:1088000000180020D18C0000158D0000158D00008F
:108810000000000000000000000000000000000058
:10882000000000000000000000000000158D0000A6
:108830000000000000000000158D0000158D0000F4
:10884000158D0000158D0000158D0000158D0000A0
:10885000158D0000158D0000158D0000158D000090
:10886000158D0000158D0000158D0000158D000080
:10887000F5A70000158D0000158D0000158D000076
:10888000158D0000158D0000158D0000158D000060
:10889000158D0000158D0000158D0000158D000050
:1088A000158D0000158D0000158D0000158D000040
:1088B000158D0000158D0000158D0000158D000030
:108C0000FFFFFFFFFFFFFFFFFFFFFFFFFEFFFFFF75
:108C100010B5064C2378002B07D1054B002B02D052
:108C2000044800E000BF0123237010BD6408002049
:108C3000000000001CE70000044B10B5002B03D01F
:108C40000349044800E000BF10BDC046000000001A
:108C5000680800201CE70000164B002B00D1144BC5
:108C60009D46402292029A1A924600218B460F4658
:108C70001348144A121A04F0A5FF0F4B002B00D022
:108C800098470E4B002B00D098470020002104008D
:108C90000D000D48002802D00C4800E000BF04F091
:108CA0006DFF2000290001F0F5FD04F051FFC046E2
:108CB0000000080000180020000000000000000074
:108CC00064080020700F0020000000000000000079
:108CD00072B604F099FE62B609490A4A0A4B9B1A19
:108CE00003DD043BC858D050FBDC0849084A521A3F
:108CF00003DD00208850043AFCDAFFF7ADFF0000E6
:108D0000ACFC00000008002064080020640800207B
:108D1000700F002000480047158D00000022430816
:108D20008B4274D303098B425FD3030A8B4244D333
:108D3000030B8B4228D3030C8B420DD3FF22090275
:108D400012BA030C8B4202D31212090265D0030B34
:108D50008B4219D300E0090AC30B8B4201D3CB032A
:108D6000C01A5241830B8B4201D38B03C01A52416C
:108D7000430B8B4201D34B03C01A5241030B8B426E
:108D800001D30B03C01A5241C30A8B4201D3CB0259
:108D9000C01A5241830A8B4201D38B02C01A52413E
:108DA000430A8B4201D34B02C01A5241030A8B4241
:108DB00001D30B02C01A5241CDD2C3098B4201D359
:108DC000CB01C01A524183098B4201D38B01C01AD7
:108DD000524143098B4201D34B01C01A524103094E
:108DE0008B4201D30B01C01A5241C3088B4201D3FD
:108DF000CB00C01A524183088B4201D38B00C01AAA
:108E0000524143088B4201D34B00C01A5241411AD0
:108E100000D20146524110467047FFE701B50020DD
:108E200000F0F0F802BDC0460029F7D076E77047A1
:108E300003460B437FD4002243088B4274D30309BB
:108E40008B425FD3030A8B4244D3030B8B4228D35C
:108E5000030C8B420DD3FF22090212BA030C8B4282
:108E600002D31212090265D0030B8B4219D300E022
:108E7000090AC30B8B4201D3CB03C01A5241830BA7
:108E80008B4201D38B03C01A5241430B8B4201D357
:108E90004B03C01A5241030B8B4201D30B03C01A80
:108EA0005241C30A8B4201D3CB02C01A5241830AFA
:108EB0008B4201D38B02C01A5241430A8B4201D329
:108EC0004B02C01A5241030A8B4201D30B02C01A53
:108ED0005241CDD2C3098B4201D3CB01C01A5241BA
:108EE00083098B4201D38B01C01A524143098B4243
:108EF00001D34B01C01A524103098B4201D30B012C
:108F0000C01A5241C3088B4201D3CB00C01A524150
:108F100083088B4201D38B00C01A524143088B4215
:108F200001D34B00C01A5241411A00D201465241AE
:108F3000104670475DE0CA0F00D04942031000D3CD
:108F40004042534000229C4603098B422DD3030A22
:108F50008B4212D3FC22890112BA030A8B420CD332
:108F6000890192118B4208D3890192118B4204D35B
:108F700089013AD0921100E08909C3098B4201D3DB
:108F8000CB01C01A524183098B4201D38B01C01A15
:108F9000524143098B4201D34B01C01A524103098C
:108FA0008B4201D30B01C01A5241C3088B4201D33B
:108FB000CB00C01A524183088B4201D38B00C01AE8
:108FC0005241D9D243088B4201D34B00C01A5241BF
:108FD000411A00D20146634652415B10104601D34C
:108FE0004042002B00D54942704763465B1000D3D6
:108FF000404201B5002000F005F802BD0029F8D07C
:1090000016E770477047C046002B11D1002A0FD1D8
:10901000002900D1002802D00021C943081C07B450
:10902000024802A14018029003BDC046D9FFFFFFCD
:1090300003B4684601B5029800F006F8019B9E460D
:1090400002B00CBC7047C046F0B54F464646D64607
:10905000C0B5040082B00D00914698468B422FD8CF
:109060002CD04146484601F0D1FA290006002000E4
:1090700001F0CCFA331A9C46203B9A4600D576E0A4
:109080004B46524693401F004B46624693401E009B
:10909000AF4228D825D05346A41BBD41002B00DA8F
:1090A0007BE000220023009201930123524693406B
:1090B0000193012362469340009318E08242D0D985
:1090C00000220023009201930A9B002B01D01C6018
:1090D0005D600098019902B01CBC90469946A2467A
:1090E000F0BDA342D7D9002200230092019363462A
:1090F000002BE9D0FB079846414672080A437B08DB
:1091000066460EE0AB4201D1A2420CD8A41A9D41A2
:10911000012024196D410021013E24184D41002EEB
:1091200006D0AB42EED9013E24196D41002EF8D194
:1091300000980199534600196941002B23DB2B004D
:109140005246D3402A006446E2401C0053461500B4
:10915000002B2DDB26005746BE4033002600674615
:10916000BE403200801A994100900191ACE76246FE
:1091700020239B1A4A46DA406146130042468A4041
:1091800017001F4380E7624620239B1A2A00664689
:109190009A402300F3401343D4E762462023002182
:1091A0009B1A0022009101920122DA40019280E78D
:1091B0002023624626009B1ADE402F00B0466646FA
:1091C000B74046463B003343C8E7C046F0B5574674
:1091D000DE464E464546E0B5834607000E0348008E
:1091E00085B092461C00360B400DCD0F002800D1F3
:1091F0009DE0954B984239D08023F6001B041E4316
:10920000924A7B0F3343994694460300634400938C
:1092100000230026FF00029323031B0B98466300E4
:10922000E40F52465B0D019400D1B3E086498B42B6
:1092300000D19EE04246D100802212040A435146EA
:10924000490F11438B46814952468C46009963442D
:10925000CB1A0021D20000932B0063409A460F2EB8
:1092600000D905E17A4BB6009B599F465B463343D4
:10927000994600D0B8E00223082600270090029308
:10928000CAE7CB463A0002990195019B9A4602290A
:1092900027D0032900D180E2012944D06D49009BE9
:1092A0008C4663441C00002C38DD530700D013E2C9
:1092B000D2085B46DB0109D55946674B19408B46FE
:1092C0008021C9008C46009B63441C00634B9C4278
:1092D00007DC5B4664055F075B0217431B0B620DEF
:1092E00002E000230027584A00211B031C0B0B0D32
:1092F0001B05234314055A4A380013401C435346A8
:109300006400DB0764081C43210005B03CBC9046A8
:109310009946A246AB46F0BD0122524201231B1BD7
:10932000382B00DCADE1002200230027DCE75B46A0
:10933000334399465ED0002E00D18AE1300001F01F
:1093400047F903000B3B1C2B00DD7BE11D22D31AE8
:109350005A460100DA4008398E4013005F46334315
:1093600099468F403F4B00261B1A0093002302931F
:1093700052E7414653460B433B499B468C46009B74
:10938000634400935B46002B3BD1022300221E4323
:10939000022161E7434613439B4637D04346002BE7
:1093A00000D162E1404601F013F903000B3B1C2B96
:1093B00000DD53E102004146083A914088461D21F4
:1093C000CB1A5146D9400B0041460B439B465346AE
:1093D00093401A00009B25499C46604403008C463C
:1093E00063440093002137E70323B14600900C2625
:1093F000029311E700230093013304260027029310
:109400000AE70323C3461E43032125E701331E4316
:109410000022012120E700239A46802300271B0316
:10942000094A61E7802349461B03194200D1E2E063
:109430005946194200D0DEE00B431B0317001B0BFB
:10944000A246014A50E7C046FF07000001FCFFFFAB
:10945000A0DF0000FF030000FFFFFFFEFE0700008B
:10946000FFFF0F800DFCFFFF01F8FFFFF30300007B
:10947000D94500D9CBE000D1C6E03C0048460027E2
:10948000009B013B00935B46160E1B021E4313021A
:10949000984633041B0C9946310C0191FFF7C4FC2C
:1094A0004A4642430B04210C050019438A4207D95E
:1094B0008919013D8E4203D88A4201D9851E891936
:1094C000881A0199FFF7B0FC09048C464A4621042A
:1094D00064464243090C030021438A4204D9891996
:1094E000013B8E4200D8F1E02D041D43AB464346BC
:1094F000891A4246280C12041D0C5B46140C2200EB
:109500001B041B0C5A4303946B434443029568436A
:109510001B19150CEB189C4203D980246402A44645
:1095200060441C0C15041B042D0C20185D1981428D
:1095300077D373D00C1AA24A7D1BAF42BF41944629
:10954000009B7F426344E01B1C00864200D1DBE0AD
:109550000199FFF769FC4A4642430B04290C0700B6
:1095600019438A4207D98919013F8E4203D88A429A
:1095700001D9871E8919881A0199FFF755FC09043A
:109580004A46894629044D464243090C03002943B3
:109590008A4207D98919013B8E4203D88A4201D9F0
:1095A000831E89193F04891A3A00039F1A43380021
:1095B00013041B0C584381460298150C6F43434318
:1095C00045434846000C8446DB1963449F4203D957
:1095D000802040028446654448461F0C00041B045A
:1095E000000C7D191818A94200D284E000D17FE058
:1095F00001231A4357E680234A461B0313431B03E8
:109600001B0BAA466F4A6FE6BA4200D935E74B46B4
:10961000DC0758087B081C43FF0734E70024AF42EF
:1096200089D247444745A4415B466442A419641863
:10963000013BA6421ED2A0426DD800D1B6E0241A4A
:109640009B4678E703005A46283B9A4000279146FC
:1096500088E6584600F0BCFF203072E60300524610
:10966000283B9A4093460022B4E6504600F0B0FFF3
:1096700020309AE6A642E2D1B845DCD9341A9B469E
:1096800059E71F2B65DC504C0099A4465C466144A9
:1096900008008C4011008240D940501E82410C438A
:1096A00014435A46DA401300620709D00F222240C1
:1096B000042A05D02200141D9442894149425B18B6
:1096C0001A0262D50122002300270DE68A4200D843
:1096D0000AE7831E891907E70F231340042B00D1E3
:1096E000E6E5171D9742924153429B44FA08E0E594
:1096F000002800D1D7E57118531EB14227D3A942E3
:1097000015D358D01A0073E7002B00DC04E60123C0
:1097100000229B44CDE502234744474589415B42F3
:109720009C46494289190C19E344241A03E743462D
:109730005F0047459B41B8465B429E19023A891932
:10974000A94200D054E7404500D051E7ABE51A00EC
:10975000F6E71F215F4649420C1BE740202B07D04C
:109760001A49009B8C46634418005B4683401A43A9
:10977000501E82413A4307270023174009D00F218A
:10978000002311401400042995D122005F075B02D9
:109790001B0BD20817430022A6E5802359461B0362
:1097A0000B431B0317001B0B064A9DE5BD42B2D8B5
:1097B0009B460024BFE68045B9D31A00C3E7C046E4
:1097C000FF030000FF0700001E0400003E0400002D
:1097D000F0B55746DE464E464546E0B583460600A0
:1097E0000F03480087B092461D003F0B400DCC0F81
:1097F000002800D16FE0DE4B984238D08023FF0074
:109800001B041F43730F3B430193DA4B0027994618
:1098100000239B46F60081442B0369001B0B524634
:109820009846490DED0F002900D185E0D04B9942B3
:1098300000D173E04346DA0080231B0413435246F1
:10984000CC48520F84461343524600206144D20054
:1098500089442100694000918C46012149448A468F
:109860000F2F00D990E0C449BF00CF59BF465B46D7
:109870003B43019300D06AE102230827002681467A
:109880009B46C9E732005846019B61460091022879
:1098900000D175E0032800D1FEE1012800D02CE1C1
:1098A00000230027002600253F032A0D3F0BB34865
:1098B00012053A4302401B051343009A5B00D1078F
:1098C0005B080B433000190007B03CBC904699463A
:1098D000A246AB46F0BD5B463B43019300D12FE16E
:1098E000002F00D1A5E1380000F072FE03000B3B11
:1098F0001C2B00DD96E11D22D31A5A460100DA40E6
:109900005E4608398F4013008E403B4301939C4BC9
:1099100000271B1A994600239B467DE74146534684
:109920000B4393498C46E144002B00D01AE10222FC
:109930000220174300228CE7134300D10DE1434678
:10994000002B00D181E1404600F042FE02000B3ABC
:109950001C2A00DD72E10100434608398B4098461D
:109960001D239A1A5346D3401A00434613435246C6
:109970008A404946081A824989468144002068E79E
:109980007B4B002700268EE7140C1204120C1100EA
:10999000370C3604350C794328008C462E00604382
:1099A0006044834656432100300C80465846794334
:1099B00040440291844506D98846802149028C465C
:1099C000E044414602913604010C360C00048B46FB
:1099D00081191E0C1B041B0C0391190079438C4642
:1099E000280075436544A8465843050C4544774311
:1099F000A94203D9802149028C466744290C8C4630
:109A000039000004000C2D042D186144AB4405916D
:109A10005946049101990F043F0C080C3900514339
:109A20004243904602008C46090C8B4662437C43BD
:109A300044445C44A04503D98021490288464244FD
:109A4000210C884661460904090C8C4639005943AB
:109A5000434370437E430F0CF6182404BE1964443C
:109A600042448C46B34203D980235B02984640446B
:109A7000029B61469846049B370443449B46AB4592
:109A8000AD416B420D0405992D0C8C467F1967443E
:109A9000FD18A8465D462D19A542A441934664428F
:109AA000A446C344DC448F42BF4198459B41934543
:109AB0009241A445A4415B427F421F43360C52426F
:109AC0006442BF192243BF18624638184302D20DC0
:109AD000039913436A020A43501E82416146ED0D09
:109AE0002A434E023243D90100D4B3E00126500884
:109AF00032400243DE0732435B08224C5444002CC0
:109B000062DD510709D00F201040042805D0101D38
:109B10009042924152429B180200D90104D5802400
:109B20001948E400034054441848844200DD27E704
:109B30005E075B02D2081F0B630516435B0DB2E69E
:109B4000002399460133042700269B4664E603233D
:109B5000019781460C279B465EE6012201201743B0
:109B6000002276E6032303201F43434671E6C046E6
:109B7000FF07000001FCFFFFE0DF0000FFFF0F8098
:109B80000DFCFFFFFF030000FFFFFFFEFE070000CC
:109B90000023802700933F030026434B83E6019B6D
:109BA0003200A446584670E6AC466EE6802701991E
:109BB0003F0339422DD03B422BD11F433F033F0B84
:109BC00000951600384B6EE601252D1B382D00DD63
:109BD00066E61F2D40DC35481C00504416008240CC
:109BE0008440EE40501E824134431443EB406207F0
:109BF00009D00F222240042A05D02200141D9442CD
:109C0000804140421B181A023ED50123002700263E
:109C100049E68027019B3F031F433F033F0B00940E
:109C2000214B40E603005A46283B9A400026019209
:109C30006DE6584600F0CCFC203057E60300524653
:109C4000283B9A401300002293E6504600F0C0FCE7
:109C500020307BE6CA4650E71F201E004042041B0E
:109C6000E640202D03D0124C5444A3401A43501E0A
:109C70008241324307260027164009D00F200023D7
:109C8000104014000428B9D122005E075B021F0BAC
:109C9000D2081643002306E680273F031F433F03F5
:109CA0003F0B1600004BFEE5FF0700001E040000FE
:109CB0003E040000F8B557464E464546DE460C00C9
:109CC0000903E0B5490A460F5F0031431E03DB0F6D
:109CD000760A9B46530F3343C84E6500C000E40F1D
:109CE000D2006D0DA24681467F0D9C469046B7423C
:109CF00000D1B9E05B46012673409B46EE1BA345AD
:109D000000D183E0002E63DD002F00D0B1E0634678
:109D1000134300D123E1731E002B00D0BAE1861A51
:109D20006346B04280410125C91A4042091A0B021C
:109D300000D447E149024B0A98464346002B00D124
:109D400089E1404600F044FC0300083B1F2B00DD86
:109D50007CE120223000D21A4146D04099400200D6
:109D60009E400A439D4200DD6AE15D1B6B1C1F2B78
:109D700000DD94E1202110003500C91A8E40DA4040
:109D80008840DD40711E8E411100072228430025C6
:109D900006433240002A09D00F233340042B05D05C
:109DA000331DB342B641764289191E000B0200D41E
:109DB0003DE26A1C914B55056D0D9A4200D119E1A7
:109DC0008F4AF6080A40570752023743120B9BE0AE
:109DD000002E00D0C5E06E1C7605760D012E00DC4D
:109DE00048E16746861ACB1BB042BF417F42B84666
:109DF0001F004346FF1A3B00B8461B0200D55FE137
:109E000037439AD100220024002579E0002E00DC9F
:109E1000FAE0002F00D18DE0784B9D4267D080237F
:109E200067461B041F43BC46382E00DC52E16346E4
:109E300013435A1E93411E1886428041404209181E
:109E40000B0200D4BEE06D4B01359D4200D1D2E043
:109E50006B4A73080A4001210E401E435108D30784
:109E600007221E43324095E71E00164300D045E707
:109E700040E7624B9D423AD0802367461B041F4354
:109E8000BC46382E00DDEBE01F2E00DC3AE133004B
:109E90006746203BDF403B00202E05D04027BF1BFC
:109EA0006646BE40324390464646721E9641334354
:109EB000DAE0002B00D114E26346134300D168E1DD
:109EC00080234E07C008C9081B030643194208D067
:109ED0006046C008184204D163460100D2085E07FC
:109EE0001643F3009946C900720F444D11434B4687
:109EF000DE08424B4F073743CA089D4200D16EE04F
:109F000012036D05120B6D0D00211203130B0A0DC8
:109F100012051A433B4B2D0513402B435B00E4070E
:109F20005B082343380019003CBC90469946A24682
:109F3000AB46F8BD6346134311D0731E002B00D00F
:109F400007E1861886428041614440420918012594
:109F50000B0237D502257BE73E006146914635006E
:109F6000C5E75C46002D00D0E1E00B000343F3D0D1
:109F7000731C00D1ACE1214B9F4200D13AE1F34385
:109F8000382B00DD6FE11F2B00DD8CE120250E005A
:109F9000ED1AAE40B0460600AA46DE4045463543BF
:109FA0002E005546D940A8406346451EA8415B1A7D
:109FB0009C463043161AB242924163465242991A65
:109FC0003D00B4E607223240002A00D0E4E60B4B05
:109FD000F6084F073743CA089D4200D090E73B0080
:109FE000134300D1A6E180231B031A431203120B73
:109FF000024D89E715000022002785E7FF070000D2
:10A00000FFFF7FFFFFFF0F80002E00D0C7E06B1C1B
:10A010005E05760D012E00DCF0E0C84DAB4200D1AC
:10A02000B9E085180A0085428941624449425118C5
:10A030000722CE076D082E43490832401D00A9E6CD
:10A04000BF49ED1A114007223240A3E632002838FA
:10A050008240002686E6300000F0BAFA203073E62F
:10A06000634613435A1E9341C61AB0428041404290
:10A07000091A5CE60E00674606431743002D5ED1C1
:10A08000002E00D0F3E0002F00D11EE15C466146B7
:10A0900091462CE7A94FBE427BD01E00F1E610008E
:10A0A0001F3DE840202B03D04021CB1A9A40164395
:10A0B000731E9E410722064332400021002583E79C
:10A0C000161A6346B2428041591A40420B1A98460A
:10A0D0005C4632E61F2E00DDABE02027BB1B9A4614
:10A0E00063465746BB40994613004F46F3401F4313
:10A0F0003B005746BA40571EBA4113436246F240EE
:10A10000891898E62027BB1B9A4663465746BB40F2
:10A11000994613004F46F3401F433B005746BA4051
:10A12000571EBA4113436246F240891A9CE7834B9B
:10A130009F425FD080252D047342294320E7002EE3
:10A140000CD1002F00D1D0E05C46614691467B4D9A
:10A15000CDE67A4FBE421CD01E0065E6002F18D017
:10A16000C0084E0706438020C9080003014208D0FA
:10A170006346DC08044204D12100DA46D2085E07B7
:10A180001643F300994601245346C900720F114348
:10A190001C406A4DABE61D0000220027B4E6002DEE
:10A1A00059D10B00034300D1D6E6731C00D1B2E0B5
:10A1B000624B9F421ED0F343382B6FDC1F2B00DD18
:10A1C00097E020250E00ED1AAE40B0460600AA46E4
:10A1D000DE40454635432E005546A840D940451E31
:10A1E000A8418C440643B6189642924151426144BC
:10A1F0003D0025E63D006146914678E60B000343AD
:10A20000002D00D055E6002BF5D06346134300D156
:10A210006DE686188642804161444042091800225A
:10A220000B0200D4D0E6464B01351940B2E5B146E9
:10A230005DE633006746203BDF403B00202E05D023
:10A240004027BF1B6646BE40324390464646721EBC
:10A2500096413343EFE5394B9F42CBD080252D0407
:10A2600073422943A8E70843411E8841A2E6002F14
:10A2700000D13CE66346861ACF1AB0429B415B424E
:10A28000FB1A98461B024ED5161A6346B2429241FB
:10A29000591A5242891A5C4600227BE501430E009E
:10A2A000711E8E419FE71D000E00203DEE40B0461E
:10A2B000202B04D04025EB1A99400843814648469C
:10A2C0004346411E8841184374E60022002417E6E5
:10A2D000161A6346B2429241591A5242891A3D00F7
:10A2E00025E561469146154D01E6802200241203C2
:10A2F00079E61D000E00203DEE40B046202B04D034
:10A300004025EB1A9940084381464E464346711E4C
:10A310008E411E4367E7861896429B4161445B422B
:10A32000C9183D008CE547463743CED00722414649
:10A33000324049E600273A00E6E5C046FF07000044
:10A34000FFFF7FFF30B5144D0A034B00120B5B0D6E
:10A35000C90F0024AB4211DD104CA34210DC802455
:10A36000640322430E4CE41A1F2C0CDD0D48C31A63
:10A37000DA4013005C42002900D11C00200030BDEF
:10A38000094BCC18FAE7094DE040AC4663449A40CB
:10A3900013000343EEE7C046FE0300001D04000067
:10A3A0003304000013040000FFFFFF7FEDFBFFFFFD
:10A3B00070B500282DD0C317C5185D40C40F280004
:10A3C00000F006F9154B1B1A5B055B0D0A2815DD1D
:10A3D0000B38854000222D032D0B002110002D038A
:10A3E0000A0D2D0B12052A430D4D1B052A40134360
:10A3F0005B00E4075B082343190070BD02002900DD
:10A40000153291400A000B21081AC5402D032D0B6F
:10A41000E3E70024002300250022DEE71E040000FD
:10A42000FFFF0F804100090E4B1C70B5DBB24602E6
:10A43000750AC40F012B14DDE0239B006D07360B5A
:10A44000CB1800210A0D280012051C4D32435B0574
:10A450002A405B0813435B00E4075B0823431900B1
:10A4600070BD002914D1002D1ED0280000F0B0F8D6
:10A470000A281CDC0B232A001B1ADA4003001533C0
:10A480009D400F4B12031B1A5B05160B5B0DD8E7A3
:10A49000002D06D0320B802636036D071643094B7C
:10A4A000CFE7084B0026CCE700230026C9E70300CE
:10A4B0002A000B3B9A400025E3E7C046FFFF0F80D0
:10A4C00089030000FF070000F0B54C00640D0B038A
:10A4D000621C5B0A460F5205C90F1E43C500520D90
:10A4E000012A29DD374BE718FE2F1CDC002F3BDD4E
:10A4F0008001431E98410722F3006D0F03432B4355
:10A500001A40002A04D00F221A40042A00D0043333
:10A510008022D2041A4024D00137FAB2FF2F02D091
:10A520009B01580A01E0FF2200204002D205400AA8
:10A53000C90710430843F0BD3543002C04D1002D5A
:10A540000AD100220020F0E7002DECD08020C003CB
:10A550003043FF22E9E7002400235B02580AE2B2FD
:10A56000E3E7DB083C00F8E73B001733F3DB80232D
:10A570001B0433431E26F61B1F2E14DD02225242FB
:10A58000D71B1A00FA401700202E04D00E4A94461A
:10A590006444A3401D432B005D1EAB4107223B4397
:10A5A0001A400027ADE7094A2800A21895409340B9
:10A5B0006C1EA541F04007222B4303431A4000279D
:10A5C0009FE7C04680FCFFFFA2FCFFFF82FCFFFF6D
:10A5D0001C2101231B04984201D3000C10391B0AD3
:10A5E000984201D3000A08391B09984201D3000997
:10A5F000043902A2105C40187047C04604030202EE
:10A6000001010101000000000000000010B5002958
:10A6100003D1FFF7DDFF203002E0081CFFF7D8FF71
:10A6200010BDC046B0B500AF72B6494B1A68484B72
:10A6300080210A431A60474B1B780133DAB2454B3D
:10A640001A70444B1B78012B77D9424B00221A70A9
:10A65000414B2720185C28241C5D24022043292418
:10A660001C5D240420432A241C5D24062043010091
:10A670002B20185C2C241C5D240220432D241C5DFF
:10A68000240420432E241B5D1B0603431A000123D0
:10A690000024C9186241304B2733FF2008400500D1
:10A6A000187800242040041C281C20431870080A35
:10A6B000FF2420400500587800242040041C281C5A
:10A6C00020435870080CFF2420400500987800248F
:10A6D0002040041C281C204398700D0ED8780024BC
:10A6E0002040041C281C2043D870FF201040050087
:10A6F000187900242040041C281C20431871100ADB
:10A70000FF2420400500587900242040041C281C08
:10A7100020435871100CFF24204005009879002434
:10A720002040041C281C20439871100EDA79002167
:10A730000A40111C021C0A43DA71084B1A68074BC5
:10A7400080210A431A6062B6C046BD46B0BDC0460D
:10A750000000044080080020540E002000500440F7
:10A76000B0B584B000AF72B6204B1B68002B2ADA5C
:10A770001E4B5A680E217B181A807B181A88FA2300
:10A780005B009A421FD91A4BE8229A5CE9215B5C74
:10A790001B0213439BB2013399B2154BE822FF20F1
:10A7A00008400500985C00242040041C281C20431D
:10A7B0009854090A88B29B185A7800210A40111C43
:10A7C000021C0A435A70094B1A68084B802109067B
:10A7D0000A431A60054B1A68044B80218A431A60A9
:10A7E00062B6C046BD4604B0B0BDC046005004408D
:10A7F000540E002090B583B000AF72B60F4B1B68AB
:10A8000000209847031E13D00D4B1B68FC1DBA1D7A
:10A8100011000020984703002370BB1D1B78002BFC
:10A8200006D0084B1B68FA1D1278110000209847CB
:10A8300062B6C046BD4603B090BDC046DC080020ED
:10A84000240900206C09002090B583B000AF72B6D7
:10A850000C4B1B68FC1DBA1D11000120984703001A
:10A860002370BB1D1B78002B07D0074B1B68074CC0
:10A870000749FA1D10782200984762B6C046BD46C7
:10A8800003B090BD240900204C090020440A002098
:10A890006E0F0020F0B5C64600B5F14CA54402AFDE
:10A8A00072B6002200239B21C90010208446BC44BC
:10A8B00061440A604B60002200239521C9001020EA
:10A8C0008446BC4461440A604B600023E54A102181
:10A8D0008C46BC4462441360E34B10229446BC4453
:10A8E000634401221A70E14B10229446BC44634435
:10A8F00000221A70DE4B10229446BC4463440022AE
:10A900001A80DC4B10229446BC4463441822FF3268
:10A910001A80D94B10229446BC446344AB221A805F
:10A92000002200239721C90010208446BC446144C2
:10A930000A604B60002200239921C9001020844640
:10A94000BC4461440A604B60CC4B10229446BC442A
:10A95000634400221A70CA4B00221A8002F048FA9F
:10A9600001F0D2FEC74B1B6801209847002105204B
:10A9700002F07EFAC44B1B68FA225200100098477E
:10A98000C24B1B68C24A110003209847C14B1B6889
:10A99000984702F097FA01F013FCBF4B19001C20F6
:10A9A00002F04CFABD4B19001A2002F047FABC4BDA
:10A9B00019000D2002F042FABA4B1B689847BA4BB7
:10A9C0001B68984762B6B94B180001F063F9B84BA1
:10A9D000180001F071F9B54BA7229A5CA821595CC7
:10A9E00009020A43A921595C09040A43AA215B5CB4
:10A9F0001B0613439322D20010218C46BC446244B0
:10AA000013600023AB4A10218C46BC44624413609F
:10AA1000A94B1B78DBB25B09DBB21A0001231340A0
:10AA200045D0A24BA7229A5CA821595C09020A438F
:10AA3000A921595C09040A43AA215B5C1B06134344
:10AA4000591C9A4BA722FF2008408446985C002698
:10AA50003040061C604630439854080AFF263040B8
:10AA60008046981846780024A44664462640B4469A
:10AA700046466446344326004670080CFF263040A4
:10AA80008046981886780024A44664462640B4463A
:10AA900046466446344326008670080E9B18DA78D2
:10AAA00000210A40111C021C0A43DA701DE0824B8F
:10AAB0001B78DBB2DB09DBB21A000123134014D090
:10AAC0007A4BA722995C0020014099549918487844
:10AAD00000263040487099188878002630408870E9
:10AAE0009B18DA7800210A40DA70704BA7229A5C32
:10AAF000A821595C09020A43A921595C09040A43A7
:10AB0000AA215B5C1B061343BB600023FB609323FD
:10AB1000DB0010229446BC4463441B68BA6893422D
:10AB200008D1644B10229446BC4463441B68FA6805
:10AB3000934210D0614B1B683F209847604B1C68C4
:10AB40005A494D4B10229446BC4463441A880B006A
:10AB500000213F20A0474B4B1B6801209847594AD2
:10AB600096235900584B009313001F22042002F033
:10AB700045FC564B180001F09BFD524A96235900A4
:10AB8000534B009313001F22042002F037FC4F4B5D
:10AB9000180001F08DFD4B4A962359004D4B009350
:10ABA00013001F22042002F029FC4B4B1B684B4D65
:10ABB0001022BA1854194A4A4A494B481026B4463A
:10ABC000BC4460449847030023703E4A96235900D2
:10ABD000464B009313001F22042002F00FFC1023A9
:10ABE000FB185B191B78002B00D1D2E03B4B1022E5
:10ABF0009446BC4463441B780A2B00D9C4E09A00F5
:10AC00003B4BD3181B689F462E4A96235900394B5D
:10AC1000009313001F22042002F0F0FBB4E0294A45
:10AC200096235900344B009313001F22042002F096
:10AC3000E5FBA9E0234A96235900304B009313000B
:10AC40001F22042002F0DAFB9EE01E4A96235900E0
:10AC50002B4B009313001F22042002F0CFFB93E044
:10AC600008FBFFFFD4040000D3040000C50400006B
:10AC7000A6040000A4040000A2040000C404000014
:10AC80006E0F0020640900200809002050090020F0
:10AC90001100CC00C408002025A6000061A7000018
:10ACA00049A80000C80800203809002098090020A1
:10ACB000540E00209C04000000F00740BC08002057
:10ACC0008408002030840000D8DB000070170000EA
:10ACD000F8DB000018DC000088090020C604000032
:10ACE000360A0020270A00202C04000038DC00006F
:10ACF00020E0000058DC000078DC000098DC000058
:10AD0000B8DC0000C14A96235900C14B00931300E0
:10AD10001F22042002F072FB36E0BC4A9623590041
:10AD2000BC4B009313001F22042002F067FB2BE0B2
:10AD3000B64A96235900B84B009313001F220420F3
:10AD400002F05CFB20E0B14A96235900B34B00931C
:10AD500013001F22042002F051FB15E0AB4A96239A
:10AD60005900AF4B009313001F22042002F046FB52
:10AD70000AE0A64A96235900AA4B009313001F220B
:10AD8000042002F03BFBC046A74B1B6802209847FB
:10AD9000E1E6C0469D4A96235900A44B0093130058
:10ADA0001F22042002F02AFBA149FC25AD0010233C
:10ADB000FB185B191422180001F04FFC1023FB183C
:10ADC0005B1900221A75914A1023FB185B19009336
:10ADD00013001F222D21462002F010FB954910235D
:10ADE000FB185B190422180001F037FC1023FB1834
:10ADF0005B1900221A71854A1023FB185B19009316
:10AE000013001F224121462002F0F8FA8A4B1A68EB
:10AE10008321C9000C001023FB185B1801331800B4
:10AE2000904721001023FB185B1820221A70102372
:10AE3000FB185B1800221A741023FB185B180133EF
:10AE4000724A009313001F225521462002F0D6FAC1
:10AE50007A4B1C680323102200210020A047784B66
:10AE60001B68784E1022BA1894191A2098470300CC
:10AE700023801023FB189B191B881800FFF798FAF2
:10AE8000714A724BFEF7A4FC03000C00180021006D
:10AE900000226F4BFEF79CFC03000C001800210001
:10AEA00000226C4BFEF792F903000C001800210001
:10AEB0000022694BFEF7FEFE03000C001800210083
:10AEC000664A674BFEF782F903000C001A00230064
:10AED00000206449FEF7EEFE03000C00180021007C
:10AEE000FFF7F2FA031C9222D20010217918891878
:10AEF0000B601023FB189B181868FFF793FA1023B8
:10AF0000FB185B19012201F036FB03003F4A009356
:10AF100013001F226921692002F070FA524B10229F
:10AF20009446BC44634400221A7029E04F4B1B68CE
:10AF3000FC22920010218C46BC44624410009847C9
:10AF4000031E0AD048491023FB185B181A781023F7
:10AF5000FB185B1801321A7012E0FC2189001023E3
:10AF6000FB185B1800225A74284A1023FB185B1840
:10AF7000009313001F2281215A2002F03FFA07E0BC
:10AF8000394B10229446BC4463441B78042BCDD922
:10AF9000354B10229446BC44634400221A702BE0C7
:10AFA000334B1B68334D1022BA185419324A102102
:10AFB0008C46BC4462441000984703002370102361
:10AFC000FB185B191B78002B07D12B4B10229446E2
:10AFD000BC4463441B78002B50D1FA23DB001800DB
:10AFE00001F066FB20491023FB185B181A78102328
:10AFF000FB185B1801321A701B4B10229446BC449C
:10B0000063441B78042BCBD939E0C0463084000060
:10B01000D8DC0000F8DC000018DD000038DD00009E
:10B0200058DD000078DD00006409002094DD000098
:10B03000CA090020FC0900209409002048090020CA
:10B04000D8080020960400006666666666660A40B8
:10B0500000408F40E0FFEF4000788640713D0AD706
:10B06000A370FB3F00003940C7040000CC0800205B
:10B0700098080020C60400000F040000C046C64B1C
:10B0800010229446BC4463441B781A00FC24A4009C
:10B090001023FB181B191900100001F0FDF9030023
:10B0A000BE4A009313001F2296215A2002F0A6F9EF
:10B0B000BB491023FB181B190F22180001F0CDFA11
:10B0C0001023FB181B190022DA73B44A1023FB1853
:10B0D0001B19009313001F22A921412002F08EF9B1
:10B0E000B0491023FB181B190522180001F0B5FA0E
:10B0F0001023FB181B1900225A71A84A1023FB18B1
:10B100001B19009313001F22BD21412002F076F984
:10B11000A24AA54B009313001F22D121242002F044
:10B120006DF99E4AA14B009313001F22D221B42037
:10B1300002F064F99E4BA3229A5CA421595C090297
:10B140000A43A521595C09040A43A6215B5C1B063E
:10B1500013431A001023FB181B191900100001F0EB
:10B160009BF903008D4A009313001F22D221B420C3
:10B1700002F044F99720C0001023FB181B185C68EC
:10B180001B68012100225B1854411022BA181218C2
:10B1900013605460874B2720185C28241C5D240210
:10B1A000204329241C5D240420432A241C5D2406FA
:10B1B000204301002B20185C2C241C5D240220431A
:10B1C0002D241C5D240420432E241B5D1B060343F9
:10B1D0001A009B23DB0010208446BC4463441B6898
:10B1E0008B4207D1744B10208446BC4463441B68D7
:10B1F000934270D06F4B2720185C28241C5D2402DA
:10B20000204329241C5D240420432A241C5D240699
:10B21000204301002B20185C2C241C5D24022043B9
:10B220002D241C5D240420432E241B5D1B06034398
:10B230001A009B23DB0010208446BC446344196041
:10B240005A6001F097F8052001F02AFE594B272299
:10B250009A5C2821595C09020A432921595C090496
:10B260000A432A21595C09060A4314002B229A5CDE
:10B270002C21595C09020A432D21595C09040A4317
:10B280002E215B5C1B0613431D00494BA3229A5CD5
:10B29000A421595C09020A43A521595C09040A4307
:10B2A000A6215B5C1B0613433B6000237B603A686E
:10B2B0007B6820002900FDF7A7FE1C001300190081
:10B2C00022000B00134306D13C4B10229446BC4491
:10B2D000634401221A70374BE8229A5CE9215B5CD7
:10B2E0001B0213439BB21A00354B10218C46BC4401
:10B2F00063441B68934224D02E4BE8229A5CE921D8
:10B300005B5C1B0213439BB22D4A10218C46BC444C
:10B3100062441360274BE8229A5CE9215B5C1B02C4
:10B3200013439BB203211800FDF77EFD0B009BB277
:10B33000002B06D1214B10229446BC4463440122C9
:10B340001A701E4B10229446BC4463441B78012B98
:10B3500000D01DE1174B180000F010FE194B1B78B0
:10B36000552B35D1174B5B78302B31D11649102333
:10B37000FB185B18154A10208446BC4462441288AE
:10B380001A801023FB185B181A880A491423FB182B
:10B39000180001F062F969E00F0400003084000039
:10B3A000270A0020360A0020B4DD0000B8DD0000C6
:10B3B00098090020540E0020DC040000D304000093
:10B3C000D40400006C0F0020B6040000A4040000A8
:10B3D000E64B1B78552B49D1E44B5B78312B45D19B
:10B3E000E2491423FB180222180001F036F9142355
:10B3F000FB180233DE490F22180001F02EF9142346
:10B40000FB181133DB490822180001F026F9142338
:10B41000FB181933D8490422180001F01EF914232F
:10B42000FB181D33D5490122180001F016F9142329
:10B43000FB181E33D2490222180001F00EF9142322
:10B44000FB182033CF490222180001F006F914231B
:10B45000FB182233CC491922180001F0FEF8CB4B1F
:10B4600010229446BC4463443B221A80C84AC94B0C
:10B47000009313001F2296215A2001F0BFFFC64BF4
:10B48000E5229B5C1A00FC239B0010218C46BC44E7
:10B4900063441900100000F0FFFF0300BC4A009352
:10B4A00013001F2296215A2001F0A8FFB84A9623C4
:10B4B0005900BA4B009313001F22042001F09EFF95
:10B4C000B74B1B68B74D1022BA1854191422B9187B
:10B4D000AE4A10208446BC4462441288100098474B
:10B4E00003002370AA4A96235900AF4B0093130020
:10B4F0001F22042001F082FF1023FB185B191B7828
:10B50000002B11D1A24A96235900A84B0093130097
:10B510001F22042001F072FFA54B10229446BC4468
:10B52000634400221A802CE0C0469E4B10229446B1
:10B53000BC4463441B78012B02D0022B0BD015E0D6
:10B54000934A962359009B4B009313001F2204201B
:10B5500001F054FF0AE08E4A96235900964B00935F
:10B5600013001F22042001F049FFC046934B1B68C3
:10B57000934A944994481024A446BC446044984794
:10B58000C046924B10229446BC44634400221A7079
:10B590008F4B1B88002B00D15BE39920C000102348
:10B5A000FB181B185C681B68012100225B185441C2
:10B5B0001022BA181218136054601023FB181B18BD
:10B5C0001B68FC22920010218C46BC44624411008E
:10B5D000180000F061FF03006D4A009313001F2262
:10B5E000F9215A2001F00AFF694A96235900794B44
:10B5F000009313001F22042001F000FF694B10226A
:10B600009446BC446344FF221A70604B1022944657
:10B61000BC44634400221A806F49FB24A400102319
:10B62000FB181B190222180001F017F86A491423AD
:10B63000FB180222180001F010F81023FB181B1948
:10B640001B78412B20D1FB239B0010229446BC4445
:10B6500063445B78302B17D14C4B10229446BC448A
:10B6600063445E491022BA185218128802321A80B6
:10B670001423FB1802331022BA18521812885849A2
:10B68000180000F0EAFF26E2FB239B0010229446FC
:10B69000BC4463441B78412B1CD1FB239B0010222C
:10B6A0009446BC4463445B78312B13D13749102353
:10B6B000FB185B1891221A801423FB180233102206
:10B6C000BA1852181288023A92B24549180000F08E
:10B6D000C4FF00E2FB239B0010229446BC44634459
:10B6E0001B78412B1CD1FB239B0010229446BC44A9
:10B6F00063445B78322B13D124491023FB185B1869
:10B7000016221A801423FB1802331022BA1852187A
:10B710001288023A92B22B49180000F09EFFDAE13B
:10B72000FB239B0010229446BC4463441B78412BAE
:10B730005AD1FB239B0010229446BC4463445B789F
:10B74000332B51D111491023FB185B180A221A80A0
:10B750001423FB1802331022BA1852181288023A26
:10B7600092B22049180000F078FFB4E16C0F00207D
:10B77000580E00207B0E0020070F0020390F0020FC
:10B780003A0F00203C0F0020520F0020B6040000AA
:10B7900030840000C4DD0000540E0020CCDD000029
:10B7A00010090020C6040000ECDD00000CDE0000E3
:10B7B000A60400002CDE00004CDE000088090020FA
:10B7C000360A0020270A00202C040000D3040000C1
:10B7D0006E0F00206CDE0000440A0020A20400006E
:10B7E000980900203B0A0020FB239B00102294466E
:10B7F000BC4463441B78422B2ED1FB239B001022B8
:10B800009446BC4463445B78302B25D1D34B102243
:10B810009446BC4463441A88D149D24B180000F0C6
:10B820001CFFD14B10229446BC44634401221A7081
:10B83000CE491023FB185B1809221A801423FB1829
:10B8400002331022BA1852181288023A92B2C8492A
:10B85000180000F002FF3EE1FB239B0010229446FB
:10B86000BC4463441B78422B29D1FB239B0010224C
:10B870009446BC4463445B78312B20D1B849B94B22
:10B880007C22180000F0E9FEB74B10229446BC441D
:10B89000634401221A70B5491023FB185B18092272
:10B8A0001A801423FB1802331022BA185218128877
:10B8B000023A92B2AE49180000F0CFFE0BE1FB2332
:10B8C0009B0010229446BC4463441B78422B29D130
:10B8D000FB239B0010229446BC4463445B78322BCC
:10B8E00020D19F49A34B1E22180000F0B6FE9E4BAC
:10B8F00010229446BC44634401221A709B491023D1
:10B90000FB185B1809221A801423FB18023310223B
:10B91000BA1852181288023A92B29549180000F0EB
:10B920009CFED8E0FB239B0010229446BC44634459
:10B930001B78422B29D1FB239B0010229446BC4448
:10B9400063445B78332B20D185498B4B0822180048
:10B9500000F083FE844B10229446BC4463440122D1
:10B960001A7082491023FB185B1809221A801423CD
:10B97000FB1802331022BA1852181288023A92B2F7
:10B980007B49180000F069FEA5E0FB239B00102214
:10B990009446BC4463441B78552B2FD1FB239B005A
:10B9A00010229446BC4463445B78302B26D1FB23A1
:10B9B0009B001022BA18D118704B0222180000F018
:10B9C0004CFE6F4B1B886F4A10218C46BC4462446E
:10B9D00012889A420AD16B4B10229446BC446344AD
:10B9E0001A886949694B180000F037FE684B10222D
:10B9F0009446BC44634401221A706CE0FB239B0014
:10BA000010229446BC4463441B78552B4ED1FB2333
:10BA10009B0010229446BC4463445B78312B45D193
:10BA2000FB239B001022BA18D118544B0222180095
:10BA300000F013FE524B1B883B2B2FD15249534B26
:10BA40000222180000F009FE4549524B0F2218004F
:10BA500000F003FE5049514B0822180000F0FDFD94
:10BA60004F49504B0422180000F0F7FD4E494F4B50
:10BA70000122180000F0F1FD4D494E4B0222180042
:10BA800000F0EBFD4C494D4B0222180000F0E5FDA3
:10BA90004B494C4B1922180000F0DFFD3C4B1022A3
:10BAA0009446BC44634401221A7014E0344B1B8852
:10BAB000344A10218C46BC44624412889A420AD10E
:10BAC000304B10229446BC4463441A882E492F4BB5
:10BAD000180000F0C2FD254B10229446BC4463447C
:10BAE0001B88002B11D0384B1B68384A102179185D
:10BAF0008C181422B9181D4A10208446BC44624494
:10BB0000128810009847030023701D4B00221A80F2
:10BB10002E4B10229446BC4463441B78002B0AD160
:10BB20002B4A962359002B4B009313001F2204200D
:10BB300001F064FC5CE0254B10229446BC44634455
:10BB40001B78FF2B4AD1224A96235900224B00939F
:10BB500013001F22042001F051FC49E0A204000060
:10BB6000460A002098090020C5040000B604000021
:10BB700090DE0000270A00203B0A00206C0F002006
:10BB80006E0F0020A4040000440A0020540E002080
:10BB9000C4040000580E0020550A00207B0E00202F
:10BBA0005D0A0020070F0020610A0020390F0020E5
:10BBB000620A00203A0F0020640A00203C0F002097
:10BBC000660A0020520F002010090020C604000061
:10BBD0003084000098DE0000BCDE0000244A96237A
:10BBE0005900244B009313001F22042001F006FC8F
:10BBF000214B10229446BC4463441B78012B1ED178
:10BC00001E4B1B683F2098471D4B1C681D491E4B4F
:10BC100010229446BC4463441A880B0000213F2044
:10BC2000A047154B10229446BC44634400221A706E
:10BC3000164B10229446BC44634401221A70134BE5
:10BC400010229446BC4463441B78012B01D100F0C0
:10BC500097FB9723DB0010229446BC44634418688A
:10BC600059680B4A0023FDF7CFF9FFF783FAC04666
:10BC7000308400004CDE0000C5040000BC08002039
:10BC80008408002098090020A2040000C4040000D9
:10BC900080BB000090B583B000AF7860054B1C6896
:10BCA0007868AB2300223F21A047C046BD4603B0C1
:10BCB00090BDC0461C090020B0B582B000AF7860CE
:10BCC0007B68A3490222180000F0C7FC7968A14BE9
:10BCD0000222180000F0C1FC7B689A7800210A401B
:10BCE0009A70DA7800210A40DA707B6813339A4937
:10BCF0000F22180000F0B1FC7B682233974905221F
:10BD0000180000F0AAFC964B6820185C69241C5DA2
:10BD1000240220436A241C5D240420436B241C5D00
:10BD20002406204301006C20185C6D241C5D240255
:10BD300020436E241C5D240420436F241B5D1B06DE
:10BD400003431A007B682733FF200840050018785A
:10BD500000242040041C281C20431870080AFF24DB
:10BD600020400500587800242040041C281C204353
:10BD70005870080CFF2420400500987800242040CB
:10BD8000041C281C204398700D0ED87800242040F5
:10BD9000041C281C2043D870FF201040050018798F
:10BDA00000242040041C281C20431871100AFF2482
:10BDB00020400500587900242040041C281C204302
:10BDC0005871100CFF242040050098790024204071
:10BDD000041C281C20439871100EDA7900210A40B7
:10BDE000111C021C0A43DA715D4BA7229A5CA82140
:10BDF000595C09020A43A921595C09040A43AA2192
:10BE00005B5C1B0613431A007B682F33FF21114034
:10BE10000C00197800200140081C211C01431970F6
:10BE2000110AFF2001400C00597800200140081C35
:10BE3000211C01435970110CFF2001400C0099781E
:10BE400000200140081C211C01439970100EDA7873
:10BE500000210A40111C021C0A43DA70404BA32245
:10BE60009A5CA421595C09020A43A521595C090482
:10BE70000A43A6215B5C1B0613431A007B6833331D
:10BE8000FF2111400C00197800200140081C211CE2
:10BE900001431970110AFF2001400C00597800205D
:10BEA0000140081C211C01435970110CFF20014066
:10BEB0000C00997800200140081C211C0143997056
:10BEC000100EDA7800210A40111C021C0A43DA70B5
:10BED0007B68373323491422180000F0BEFB7B68CF
:10BEE0004B3321490422180000F0B7FB7B684F3325
:10BEF0001B491E22180000F0B0FB7B686D331B4904
:10BF00001422180000F0A9FB7B6881331849142221
:10BF1000180000F0A2FB7B68953316491E2218001A
:10BF200000F09BFB7B68CB3313490B22180000F019
:10BF300094FB7B68E822995C0020014099549B188F
:10BF40005A7800210A405A70C046BD4602B0B0BDC2
:10BF5000DCDE00006C0F0020270A0020360A0020DB
:10BF600098090020080A0020FC090020B6090020DA
:10BF7000CA090020DE0900201C0A0020F0B589B0A3
:10BF800002AF78607D4B1A68511C7C4B196092B2ED
:10BF90007B68FF2111400C00997800200140081CAB
:10BFA000211C01439970120A90B2DA7800210A40EC
:10BFB000111C021C0A43DA70714B1C680323102207
:10BFC00000210020A0476F4B1B6816257C191A2002
:10BFD0009847030023807B191B881800FEF7E8F9B7
:10BFE000694A6A4BFDF7F4FB03000C0018002100BE
:10BFF0000022674BFDF7ECFB03000C00180021004A
:10C000000022644BFDF7E2F803000C001800210049
:10C010000022614BFDF74EFE03000C0018002100CA
:10C020005E4A5F4BFDF7D2F803000C001A002300B4
:10C0300000205C49FDF73EFE03000C0018002100C3
:10C040000022594BFDF7C4FB03000C00180021002F
:10C05000FEF778F901007B68B322FF200840050055
:10C06000985C00242040041C281C20439854080A93
:10C07000FF24204006009818447800252C40251CF9
:10C08000341C2C434470080CFF24204006009818F0
:10C09000847800252C40251C341C2C438470080E09
:10C0A0009B18DA7800210A40111C021C0A43DA703E
:10C0B0007B68B3229A5CB421595C09020A43B5211A
:10C0C000595C09040A43B6215B5C1B061343180044
:10C0D000FEF76EF90022344BFDF778F803000C00F0
:10C0E000180021000C23FB18012200F044FA030081
:10C0F0002E4A009313001F226921692001F07EF966
:10C10000204B1B6814257C190720984703002380C7
:10C110007B687919E6220D78985C00242040041C85
:10C12000281C2043985448789B185A7800210A40CC
:10C13000111C021C0A435A701D4B1B687A6804329A
:10C14000100098471B4B1B687A68D632100098473E
:10C15000194B1B6813243A19100098473B1919789A
:10C160007B68E5229954154B1B687A68FE321000F3
:10C170009847C046BD4607B0F0BDC0460008002045
:10C1800048090020D80800206666666666660A4090
:10C1900000408F40E0FFEF4000788640713D0AD7B5
:10C1A000A370FB3F000039400000244030840000B1
:10C1B000940900202809002098080020CC080020BD
:10C1C00080B58AB002AF3B0018001E231A00002180
:10C1D00001F0F8FCA0235A00574B00931300F02203
:10C1E0000021002001F05BF8012300932623EE22BA
:10C1F0000221022001F008FA4F49F8231A024F4B9E
:10C2000000930B000F21422001F0F8F80023009367
:10C210007B23EE222B21022001F0F6F9464A484BFF
:10C220000093130000222D21042001F0E7F8424A78
:10C23000444B0093130000224121042001F0DEF85A
:10C240003D4A414B0093130000225521042001F088
:10C25000D5F8394A3D4B0093130000226921042090
:10C2600001F0CCF800230093F723EE227F21022077
:10C2700001F0CAF9304A364B0093130000228121A5
:10C28000042001F0BBF82C4A324B0093130000222B
:10C290009521042001F0B2F8274A2F4B0093130098
:10C2A0000022A921042001F0A9F8234A2B4B009376
:10C2B00013000022BD21042001F0A0F81E4A284BE3
:10C2C000009313000022D121042001F097F81A4AAC
:10C2D000244B009313000022E521042001F08EF886
:10C2E000154A214B009313001F22E621312001F053
:10C2F00085F8114A1D4B009313000022F9210420F8
:10C3000001F07CF89F235A008923590001230093F0
:10C310001300EE22022001F077F9074A8A23590020
:10C32000134B009313000022042001F067F8C0466D
:10C33000BD4608B080BDC04630840000E0DE00008D
:10C34000F0DE0000FCDE000008DF000014DF00006B
:10C3500024DF000030DF00003CDF000048DF000089
:10C3600054DF00006CDF000074DF000088DF000095
:10C3700094DF000080B500AFC046BD4680BD000020
:10C3800080B58AB002AF3B0018001E231A000021BE
:10C3900001F018FC39493B001422180000F05DF947
:10C3A0003B0000221A75364A3B00009313001F22FF
:10C3B0002D21462001F022F832493B0004221800CA
:10C3C00000F04BF93B0000221A712D4A3B0000930C
:10C3D00013001F224121762001F010F8284A2A4B31
:10C3E000009313001F22D221B42001F007F8274B3D
:10C3F000A3229A5CA421595C09020A43A521595C35
:10C4000009040A43A6215B5C1B0613431A003B0088
:10C410001900100000F040F80300194A00931300BF
:10C420001F22D221B42000F0E9FF19493B000F225E
:10C43000180000F012F93B000022DA73104A3B00AA
:10C44000009313001F22A921412000F0D7FF1149BA
:10C450003B000522180000F000F93B0000225A7151
:10C46000074A3B00009313001F22BD21412000F02A
:10C47000C5FFC046BD4608B080BDC046CA09002001
:10C4800030840000FC090020B8DD0000980900207D
:10C49000270A0020360A002090B589B000AF7860E6
:10C4A00039601F23FB1800221A707B68002B0ADA00
:10C4B0001F22BB181B78BA18591C11701A003B6850
:10C4C0009B182D221A707B68BB611E23FB1800226B
:10C4D0001A701AE0BB690A211800FCF78FFD0B00E7
:10C4E000DAB21E217B181B787918581C08701900C5
:10C4F00013003033DAB20C23FB185A54BB690A21FB
:10C500001800FCF795FC0300BB61BB69002BE1D16F
:10C510001D23FB1800221A7019E01E23FB181A783D
:10C520001D243B191B78D31A5A1E1F217B181B7818
:10C530007918581C087019003B685B180C21791891
:10C540008A5C1A703B191A783B1901321A701D2344
:10C55000FA181E23FB1812781B789A42DDD31F238A
:10C56000FB181B783A68D31800221A703B68180031
:10C57000BD4609B090BDB0B588B000AFB860F960F5
:10C580007A603B601E23FB1801221A807B68BB6126
:10C5900008E01E23FA18FB181B88191C8900CB1809
:10C5A000DB181380BB695A1EBA61002BF1D11E251E
:10C5B0007B191B881800FDF7FBFEBA68FB68FDF7C6
:10C5C00007F903000C0018002100FDF7BBFE030073
:10C5D0007B613A687B6911001800FFF75DFF7B689B
:10C5E000BB617B1900221A8005E01E217B181A8886
:10C5F0007B1801321A801E23FB181B883A68D31857
:10C600001B78002BF1D11E23FB181B8801333A68DD
:10C61000D31800221A700FE01E217B187A18128896
:10C62000013A1A807B181B883A68D2187B181B883D
:10C630003968CB1812781A70BB695A1EBA61002B80
:10C64000EAD11E23FB181B883A68D3182E221A70D1
:10C650003B681800BD4608B0B0BD80B586B000AFDD
:10C66000F860B960BB1D1A8016217B1800221A8061
:10C670007B1800221A800FE016203B181B88BA682E
:10C68000D2183B181B88F968CB1812781A703B181F
:10C690001A883B1801321A801623FA18BB1D12881B
:10C6A0001B889A42E8D3C046BD4606B080BD000054
:10C6B00080B584B000AF0200BB1D1A800E23FB18AA
:10C6C00000221A8012E00023BB6003E0C046BB6872
:10C6D0000133BB60BB680B4A9342F7D90E217B182C
:10C6E0001B889BB201339AB27B181A800E23FB1869
:10C6F0001B889BB2BA1D12889A42E4D8C046BD4638
:10C7000004B080BD6710000080B5C6B000AF8423C0
:10C710001B028A2149007A1813608A235A007B1869
:10C7200019683B001800FFF798FFFE4B8C2252005F
:10C730009446BC4463441B681A00FB4B1A60F94BD7
:10C740008C2252009446BC4463445B681A00F74B49
:10C750001A60F44B8C2252009446BC4463449B689C
:10C760001A00F34B1A60EF4B8C2252009446BC44E3
:10C770006344DB681A00EF4B1A60EA4B8C225200CC
:10C780009446BC4463441B691A00EB4B1A60E54BAA
:10C790008C2252009446BC4463445B691A00E74B08
:10C7A0001A60E04B8C2252009446BC4463449B695F
:10C7B0001A00E34B1A60DB4B8C2252009446BC44B7
:10C7C0006344DB691A00DF4B1A60D64B8C2252009F
:10C7D0009446BC4463441B6A1A00DB4B1A60D14B7D
:10C7E0008C2252009446BC4463445B6A1A00D74BC7
:10C7F0001A60CC4B8C2252009446BC4463449B6A22
:10C800001A00D34B1A60C74B8C2252009446BC448A
:10C810006344DB6A1A00CF4B1A60C24B8C22520071
:10C820009446BC4463441B6B1A00CB4B1A60BD4B4F
:10C830008C2252009446BC4463445B6B1A00C74B85
:10C840001A60B84B8C2252009446BC4463449B6BE4
:10C850001A00C34B1A60B34B8C2252009446BC445E
:10C860006344DB6B1A00BF4B1A60AE4B8C22520044
:10C870009446BC4463441B6C1A00BB4B1A60A94B22
:10C880008C2252009446BC4463445B6C1A00B74B44
:10C890001A60A44B8C2252009446BC4463449B6CA7
:10C8A0001A00B34B1A609F4B8C2252009446BC4432
:10C8B00063441B691A00AF4B1A609A4B8C225200DA
:10C8C0009446BC4463441B6D1A00AB4B1A60954BF5
:10C8D0008C2252009446BC4463445B6D1A00A74B03
:10C8E0001A60904B8C2252009446BC4463449B6D6A
:10C8F0001A00A34B1A608B4B8C2252009446BC4406
:10C900006344DB6D1A009F4B1A60864B8C225200E9
:10C910009446BC4463441B6E1A009B4B1A60814BC7
:10C920008C2252009446BC4463445B6E1A00974BC1
:10C930001A607C4B8C2252009446BC4463449B6E2C
:10C940001A00934B1A60774B8C2252009446BC44D9
:10C950006344DB6E1A008F4B1A60724B8C225200BC
:10C960009446BC4463441B6F1A008B4B1A606D4B9A
:10C970008C2252009446BC4463445B6F1A00874B80
:10C980001A60684B8C2252009446BC4463449B6FEF
:10C990001A00834B1A60634B8C2252009446BC44AD
:10C9A0006344DB6F1A007F4B1A605E4B8C2252008F
:10C9B0009446BC44634480229B581A007A4B1A6008
:10C9C000584B8C2252009446BC44634484229B58AA
:10C9D0001A00764B1A60534B8C2252009446BC448A
:10C9E000634488229B581A00714B1A604D4B8C226D
:10C9F00052009446BC4463448C229B581A006D4BF1
:10CA00001A60484B8C2252009446BC4463449022E6
:10CA10009B581A00684B1A60424B8C225200944675
:10CA2000BC44634494229B581A00644B1A603D4BEB
:10CA30008C2252009446BC44634498229B581A00AE
:10CA40005F4B1A60374B8C2252009446BC446344BF
:10CA50009C229B581A005B4B1A60324B8C2252006E
:10CA60009446BC446344A0229B581A00564B1A605B
:10CA70002C4B8C2252009446BC446344A4229B5805
:10CA80001A00524B1A60274B8C2252009446BC4429
:10CA90006344A8229B581A004D4B1A60214B8C22EC
:10CAA00052009446BC446344AC229B581A00494B44
:10CAB0001A601C4B8C2252009446BC446344B02242
:10CAC0009B581A00444B1A60164B8C225200944615
:10CAD000BC446344B4229B581A00404B1A60114B6B
:10CAE0008C2252009446BC446344B8229B581A00DE
:10CAF0003B4B1A600B4B8C2252009446BC4463445F
:10CB0000BC229B581A00374B1A60064B8C225200ED
:10CB10009446BC446344C0229B581A00324B1A60AE
:10CB200064E0C046E8FEFFFF7009002048090020CD
:10CB3000D8080020C4080020BC0800208408002079
:10CB40001C0900208C080020B00800205409002097
:10CB50008C09002078090020F408002080090020BA
:10CB60005C090020580900201409002088080020D2
:10CB700030090020B4080020900800200809002097
:10CB80003C090020C8080020A408002060090020FB
:10CB9000200900209C080020F80800200C09002033
:10CBA00090090020D408002050090020F00800203F
:10CBB000B80800203809002004090020D00800200F
:10CBC000EC0800206C090020A0080020E8080020E4
:10CBD00024090020E0080020A8080020C008002048
:10CBE000DC080020FC080020880900206B4B8C2208
:10CBF00052009446BC446344C4229B581A00684BBC
:10CC00001A60664B8C2252009446BC446344C8228E
:10CC10009B581A00634B1A60604B8C22520094465A
:10CC2000BC446344CC229B581A005F4B1A605B4B98
:10CC30008C2252009446BC446344D0229B581A0074
:10CC40005A4B1A60554B8C2252009446BC446344A4
:10CC5000D4229B581A00564B1A60504B8C2252001B
:10CC60009446BC446344D8229B581A00514B1A6026
:10CC70004A4B8C2252009446BC446344DC229B58AD
:10CC80001A004D4B1A60454B8C2252009446BC440E
:10CC90006344E0229B581A00484B1A603F4B8C2299
:10CCA00052009446BC446344E4229B581A00444B0F
:10CCB0001A603A4B8C2252009446BC446344E822EA
:10CCC0009B581A003F4B1A60344B8C2252009446FA
:10CCD000BC446344EC229B581A003B4B1A602F4B18
:10CCE0008C2252009446BC446344F0229B581A00A4
:10CCF000364B1A60294B8C2252009446BC44634444
:10CD0000F4229B581A00324B1A60244B8C2252009A
:10CD10009446BC446344F8229B581A002D4B1A6079
:10CD20001E4B8C2252009446BC446344FC229B5808
:10CD30001A00294B1A60194B8C2149007A18D21815
:10CD400080235B00D3581A00244B1A60134B7A18C7
:10CD5000D21882235B00D3581A00214B1A600F4B64
:10CD60007A18D21884235B00D3581A001D4B1A601E
:10CD70000A4B7A18D21886235B00D3581A001A4B34
:10CD80001A60064B7A18D21888235B00D3581A0011
:10CD9000164B1A60C046BD4646B080BDE8FEFFFF98
:10CDA00074090020440900206409002010090020B3
:10CDB00028090020940900208409002098080020F8
:10CDC0007C0900204009002094080020CC080020A5
:10CDD000000900204C09002068090020E408002018
:10CDE000AC08002034090020180900202C0900207C
:10CDF00080B584B000AF0F4B9B68BB600E4B7B606F
:10CE00000023FB600CE0FB689B00BA68D218FB684B
:10CE10009B007968CB1812681A60FB680133FB60CD
:10CE2000FB682F2BEFDD034B034A9A60C046BD46DB
:10CE300004B080BD00ED00E00008002080B584B0A3
:10CE400000AF02003960FB1D1A70084B9B68FB6045
:10CE5000FB1D1B785BB210339B00FA68D3183A684D
:10CE60001A60C046BD4604B080BDC04600ED00E07B
:10CE700080B582B000AF0200BB1D1A807B1D0A1C6A
:10CE80001A70064B1B687A1D1178BA1D10880A00AB
:10CE900001219847C046BD4602B080BD8C090020E4
:10CEA00080B582B000AF0200BB1D1A80044B1B6826
:10CEB000BA1D128810009847C046BD4602B080BD1A
:10CEC0008009002090B583B002AF924B1C68924A53
:10CED00000230093002301210020A0478F4B1B68F3
:10CEE0008F480022012198478C4B1B688D480022F7
:10CEF000012198470021002000F016FD8A4B1B6895
:10CF0000874A0021100098471420FFF7D1FB864B79
:10CF10001B68834A0121100098471420FFF7C8FBC3
:10CF2000CF2000F0E3FC002000F09AFCD92000F0B4
:10CF300097FC302000F094FCED2000F0D7FC64203A
:10CF400000F08EFC032000F08BFC122000F088FC27
:10CF5000812000F085FCE82000F0C8FC852000F06E
:10CF60007FFC102000F07CFC782000F079FCCB20C6
:10CF700000F0BCFC392000F073FC2C2000F070FCA9
:10CF8000002000F06DFC342000F06AFC022000F06C
:10CF900067FCF72000F0AAFC202000F061FCEA20EA
:10CFA00000F0A4FC002000F05BFC002000F058FC26
:10CFB000C02000F09BFC212000F052FCC12000F0BA
:10CFC00095FC122000F04CFCC52000F08FFC3220B4
:10CFD00000F046FC3C2000F043FCC72000F086FC3B
:10CFE000C12000F03DFC362000F080FC082000F05D
:10CFF00037FC3A2000F07AFC552000F031FCB120DB
:10D0000000F074FC002000F02BFC182000F028FC3D
:10D01000B62000F06BFC0A2000F022FCA22000F0F9
:10D020001FFCF22000F062FC002000F019FC26201A
:10D0300000F05CFC012000F013FCE02000F056FC46
:10D040000F2000F00DFC202000F00AFC1E2000F054
:10D0500007FC092000F004FC122000F001FC0B206A
:10D0600000F0FEFB502000F0FBFBBA2000F0F8FBC4
:10D07000442000F0F5FB092000F0F2FB142000F042
:10D08000EFFB052000F0ECFB232000F0E9FB212062
:10D0900000F0E6FB002000F0E3FBE12000F026FCBE
:10D0A000002000F0DDFB192000F0DAFB192000F071
:10D0B000D7FB002000F0D4FB122000F0D1FB0720AA
:10D0C00000F0CEFB2D2000F0CBFB282000F0C8FBA9
:10D0D0003F2000F0C5FB022000F0C2FB0A2000F058
:10D0E000BFFB082000F0BCFB252000F0B9FB2D2081
:10D0F00000F0B6FB0F2000F0B3FB112000F0F6FBB0
:10D100007820FFF7D5FA292000F0F0FBC046BD4695
:10D1100001B090BD60090020701700008C0900204C
:10D1200002030000010300007809002090B583B0DD
:10D1300000AF040008001100BB1D221C1A803B1D1B
:10D14000021C1A80BB1C0A1C1A803B1D1C88BB1DBC
:10D150001A883B1D1988BB1D1888230000F0FBFBB3
:10D16000BB1C1B88180000F099FBC046BD4603B0ED
:10D1700090BDB0B58CB000AF05000C0010001900D8
:10D18000BB1D2A1C1A803B1D221C1A80BB1C021CC2
:10D190001A803B000A1C1A800023BB6200237B62BA
:10D1A000BB1C1A88BB1D1B88D31A3B623B001A8824
:10D1B0003B1D1B88D31AFB61BB1D1B88FB603B1DFD
:10D1C0001B88BB603B6A002B02DD01237B610BE007
:10D1D0003B6A002B02D100237B6105E001235B4207
:10D1E0007B613B6A5B423B62FB69002B02DD0123F2
:10D1F0003B610BE0FB69002B02D100233B6105E0A2
:10D2000001235B423B61FB695B42FB613A6AFB695C
:10D210009A4202DD3B6ABB6101E0FB69BB612E23E0
:10D22000FB1800221A802FE0FB689BB2BA6891B20B
:10D230004022BA1812881800FFF778FFBA6A3B6AD2
:10D24000D318BB627A6AFB69D3187B62BA6ABB697E
:10D250009A4207DDBA6ABB69D31ABB62FA687B6976
:10D26000D318FB607A6ABB699A4207DD7A6ABB69A8
:10D27000D31A7B62BA683B69D318BB602E217B1836
:10D280001A887B1801321A802E23FB181A88BB6972
:10D2900001339A42C8DDC046BD460CB0B0BDB0B542
:10D2A00084B000AF05000C0010001900BB1D2A1C43
:10D2B0001A803B1D221C1A80BB1C021C1A803B00DA
:10D2C0000A1C1A803B001C88BB1C1A883B1D19884D
:10D2D000BB1D1888230000F03EFB0E23FB183A1DEF
:10D2E00012881A801EE00C23FB18BA1D12881A80BF
:10D2F0000BE02023FB181B88180000F0CFFA0C214C
:10D300007B181A887B1801321A800C23FA18BB1C70
:10D3100012881B889A42ECD90E217B181A887B1838
:10D3200001321A800E23FA183B0012881B889A4299
:10D33000D9D9C046BD4604B0B0BDB0B584B000AFC9
:10D3400005000C0010001900BB1D2A1C1A803B1D93
:10D35000221C1A80BB1C021C1A803B000A1C1A806B
:10D360003B6ABB60BB1D1B880F339AB23B1D1B88F9
:10D370000F339CB23B1D1988BB1D1888230000F099
:10D38000EAFA0E23FB1800221A702EE00F23FB1876
:10D3900000221A701BE0BB681B781A000F23FB18D1
:10D3A0001B781A4113000122134005D0BB1C1B88B7
:10D3B000180000F073FA04E03B001B88180000F02E
:10D3C0006DFA0F217B181A787B1801321A700F231F
:10D3D000FB181B78072BDED9BB680133BB600E211D
:10D3E0007B181A787B1801321A700E23FB181B78F1
:10D3F0001F2BCBD9C046BD4604B0B0BDB0B588B078
:10D4000002AF05000C0010001900BB1D2A1C1A8079
:10D410003B1D221C1A80BB1C021C1A803B000A1CEC
:10D420001A801523FB1800221A70E0E072B6BB6A5E
:10D430001B781F2B6BD9BB6A1B787E2B67D8704B70
:10D440003B6115217B181B789BB2DB009AB2BB1D98
:10D450001B88D31898B27B181B789BB2DB009AB25A
:10D46000BB1D1B88D3189BB207339AB23B1D1B8888
:10D470000F339CB23B1D1988230000F06CFABB6A85
:10D480001B78203B1B011A003B699B183B6116234C
:10D49000FB1800221A702EE01723FB1800221A70C6
:10D4A0001BE03B691B781A001723FB181B781A41F5
:10D4B00013000122134005D0BB1C1B88180000F08C
:10D4C000EDF904E03B001B88180000F0E7F9172194
:10D4D0007B181A787B1801321A701723FB181B78F7
:10D4E000072BDED93B6901333B6116217B181A7883
:10D4F0007B1801321A701623FB181B780F2BCBD91F
:10D5000015217B181A787B1801321A706BE0BB6A00
:10D510001B787E2B67D91723FB1800221A7057E05F
:10D520000F203B18BA6A12781A700E23FB18BA6AD9
:10D5300052781A7017243B191A78324913001B01CC
:10D540009B185B005A560D257B191A703B191A78E7
:10D550002C4913001B019B185B00CB1801330022E0
:10D560009A560C23FB181A703A187B1912781B78FC
:10D570009A4227D10E23FA180C23FB1812781B7835
:10D580009A421FD11523FB181B789BB2DB009AB27D
:10D59000BB1D1B88D31898B21723FB181A781300E9
:10D5A0001B019B185B00174A9B1802333A00158831
:10D5B000BA1C14883A1D118800932B002200FFF733
:10D5C000BCFE0AE017217B181A787B1801321A700A
:10D5D0001723FB181B78052BA2D91522BB18BA18E4
:10D5E000127801321A70BB6A0133BB6262B6BB6A41
:10D5F0001B78002B00D019E7C046BD4606B0B0BD71
:10D600004CE000004CE60000F0B587B002AF05002A
:10D610000C0010001900BB1D2A1C1A803B1D221C87
:10D620001A80BB1C021C1A803B000A1C1A800C25A5
:10D630007B19894A1A803B001C88BB1C1A883B1D39
:10D640001988BB1D18887B191B8800932300FFF7DE
:10D6500026FE0B23FB1802221A707B1900221A8067
:10D660003B1D1C88BB1C1A883B1D1988BB1D1888D4
:10D670007B191B8800932300FFF77BFD3B001C8870
:10D68000BB1D1A883B1D1988BB1D18887B191B8878
:10D6900000932300FFF76DFD7B1900221A803B00E9
:10D6A0001C88BB1C1A883B1D1988BB1C18887B1959
:10D6B0001B8800932300FFF75CFD3B001C88BB1C0C
:10D6C0001A883B001988BB1D18887B191B8800939A
:10D6D0002300FFF74EFD0F23FB1801221A70AEE066
:10D6E000202308229446BC4463441B78002B01D1BC
:10D6F000002200E0594A0C26BB191A800F257B191D
:10D700001B789AB2BB1D1B88D31898B27B191B7863
:10D710009AB23B1D1B88D31899B27B191B789BB218
:10D72000BA1C1288D31A9CB27B191B789AB23B1D83
:10D730001B88D3189AB2BB191B88009313002200D0
:10D74000FFF717FD7B191B789AB2BB1D1B88D318F6
:10D7500098B27B191B789AB23B1D1B88D31899B2DB
:10D760007B191B789AB2BB1D1B88D3189CB27B19FE
:10D770001B789BB23A001288D31A9AB2BB191B8845
:10D78000009313002200FFF7F4FC202308229446A4
:10D79000BC4463441B78002B01D1304A00E00022D6
:10D7A0000C26BB191A800F257B191B789BB2BA1C5B
:10D7B0001288D31A98B27B191B789AB23B1D1B882A
:10D7C000D31899B27B191B789BB2BA1C1288D31A52
:10D7D0009CB27B191B789BB23A001288D31A9AB27A
:10D7E000BB191B88009313002200FFF7C2FC7B19B2
:10D7F0001B789AB2BB1D1B88D31898B27B191B7873
:10D800009BB23A001288D31A99B27B191B789BB24B
:10D81000BA1C1288D31A9CB27B191B789BB23A00AF
:10D820001288D31A9AB2BB191B88009313002200E6
:10D83000FFF79FFC7B191A787B1901321A700F23AE
:10D84000FA180B23FB1812781B789A4200D247E78C
:10D85000C046BD4605B0F0BD3084FFFFFFFF0000AD
:10D8600080B582B000AF0200FB1D1A70084B1B6828
:10D87000084A012110009847074B1B68FA1D1278CF
:10D88000110000209847C046BD4602B080BDC0468A
:10D8900078090020010300002009002080B582B033
:10D8A00000AF0200BB1D1A800D4B1B680D4A012101
:10D8B000100098470C4B1B68BA1D1288120A92B2CE
:10D8C000D2B2110000209847074B1B68BA1D12887E
:10D8D000D2B2110000209847C046BD4602B080BDBC
:10D8E00078090020010300002009002080B582B0E3
:10D8F00000AF0200FB1D1A70084B1B68084A00218C
:10D9000010009847074B1B68FA1D12781100002081
:10D910009847C046BD4602B080BDC0467809002089
:10D92000010300002009002080B582B000AF020092
:10D93000FB1D1A703B1D0A1C1A80FB1D1B7818006A
:10D94000FFF7D4FF3B1D1B881800FFF7A7FFC04659
:10D95000BD4602B080BDB0B582B000AF05000C007E
:10D9600010001900BB1D2A1C1A803B1D221C1A80A6
:10D97000BB1C021C1A803B000A1C1A802A20FFF7DD
:10D98000B5FFBB1D1B881B0A9BB2DBB21800FFF75B
:10D9900067FFBB1D1B88DBB21800FFF761FFBB1CD4
:10D9A0001B881B0A9BB2DBB21800FFF759FFBB1C98
:10D9B0001B88DBB21800FFF753FF2B20FFF796FF01
:10D9C0003B1D1B881B0A9BB2DBB21800FFF748FF08
:10D9D0003B1D1B88DBB21800FFF742FF3B001B8892
:10D9E0001B0A9BB2DBB21800FFF73AFF3B001B8813
:10D9F000DBB21800FFF734FF2C20FFF777FFC0469B
:10DA0000BD4602B0B0BD000080B500AF00F08EF89A
:10DA10003C493D4AC0239B028B503A4A3B4BD3586A
:10DA20003849802292001343384A8B50384B9B78F8
:10DA3000DBB21A000823134007D0354B9B78DBB2CA
:10DA4000334A08210B43DBB293702E492E4A8023C0
:10DA50005B028B502B4A2F4BD3582A492E4A134036
:10DA60002C4A8B50274B1A68264B2C490A401A60C7
:10DA7000244A284BD3582A4A134022498022520470
:10DA80001343244A8B50274B06221A70254B5B7890
:10DA9000DBB2244A40210B40DBB25370214BDB78D0
:10DAA000DBB25BB21F2213405BB2602252421343CF
:10DAB0005AB21C4BD2B2DA701B4B00221A70194BAF
:10DAC00000221A71174B00225A71C046154B9B79E0
:10DAD000DBB21A0010231340F8D0C046114B9B79DB
:10DAE000DBB21A000C231340F8D1064A074BD35877
:10DAF0000449F82292011343044A8B50C046BD46A4
:10DB000080BDC04600700440441000003810000082
:10DB100000D0074004100000FFFFFCFFFFFFF3FFF1
:10DB2000FFFFFFFC004006400050064080B500AFFC
:10DB3000064A88235B01D35804490C2293431A00F8
:10DB400088235B01CA50C046BD4680BD00700440BA
:10DB5000084B10B50400002B02D0002100E000BFEC
:10DB6000054B1868836A002B00D09847200000F00E
:10DB700031F8C0460000000018E7000070B500262C
:10DB80000C4D0D4C641BA410A64209D1002600F0D8
:10DB9000C5FD0A4D0A4C641BA410A64205D170BDF8
:10DBA000B300EB5898470136EEE7B300EB589847BF
:10DBB0000136F2E73CE700003CE700003CE70000EC
:10DBC00040E7000003001218934200D1704719701B
:10DBD0000133F9E7FEE7C04641484C2052756E20FC
:10DBE0002E20202020202020202020202020202027
:10DBF000202020200000000041484C2052756E205B
:10DC00002E2E2020202020202020202020202020F8
:10DC1000202020200000000041484C20496E6974FB
:10DC200069616C697A65202E202020202020202028
:10DC3000202020200000000041484C20496E6974DB
:10DC400069616C697A65202E2E20202020202020FA
:10DC50002020202000000000496E6974616C20457E
:10DC600072726F723A4154204572726F7220202096
:10DC70002020202000000000496E6974616C20455E
:10DC800072726F723A41544530204572726F722041
:10DC90002020202000000000496E6974616C20453E
:10DCA00072726F723A494D4549204572726F722007
:10DCB0002020202000000000496E6974616C20451E
:10DCC00072726F723A494D5349204572726F7220D9
:10DCD0002020202000000000496E6974616C2045FE
:10DCE00072726F723A422054797065204572726F79
:10DCF0007220202000000000496E6974616C20458C
:10DD000072726F723A4E6574204572726F72202083
:10DD10002020202000000000496E6974616C2045BD
:10DD200072726F723A504450204572726F722020A6
:10DD30002020202000000000496E6974616C20459D
:10DD400072726F723A476574204950204572726F43
:10DD50007220202000000000496E6974616C20452B
:10DD600072726F723A4154204F4B2C4950204572C9
:10DD7000726F722000000000496E6974616C20456A
:10DD800072726F723A544350204572726F72202043
:10DD90002020200041484C20496E697469616C69FB
:10DDA0007A65205375636365737366756C6C79204F
:10DDB0000000000030000000202020202020202033
:10DDC00020200000202020202000000041484C207E
:10DDD00053656E64202E202020202020202020202B
:10DDE00020202020202020200000000041484C203E
:10DDF00053656E64202E2E202020202020202020FD
:10DE000020202020202020200000000041484C201D
:10DE100053656E64205375636365737366756C6CCC
:10DE200079202020202020200000000053656E640F
:10DE3000204572726F723A53656E64204E6F742083
:10DE400053746172742020200000000053656E64DA
:10DE5000204572726F723A53656E6420446174613A
:10DE6000204E6F74204F4B200000000041484C2092
:10DE700052656376206F6E65206672616D65202045
:10DE800020202020202020202020202020202000B2
:10DE9000737563636573730041484C2053656E640A
:10DEA000205375636365737366756C6C79202020ED
:10DEB00020202020202020202020200041484C200D
:10DEC00052656376204E6F20436F6D6D616E6420E6
:10DED00020202020202020200000000055300000BD
:10DEE000BDF0BAF9C2AB496F542D4745430000005D
:10DEF000A1BE54797065A1BF20000000A1BE536F80
:10DF00006674A1BF20000000A1BE6553494DA1BFAA
:10DF100020000000A1BE54656D7028B6C829A1BFBD
:10DF200020200000A1BE42534E756DA1BF0000002D
:10DF3000A1BE5369676E616CA1BF2000A1BE4920DC
:10DF40002050A1BF00000000A1BE504F5254A1BFFD
:10DF5000000000005453493A202020202020204671
:10DF60007265712873293A202020000054696D657C
:10DF70003A000000323031382D30372D3031203228
:10DF8000313A35353A30300052656376436F756EFD
:10DF9000743A000052756E2053746174653A000043
:10DFA00070940000E2920000269300008A92000024
:10DFB0002693000016940000269300008A92000029
:10DFC000E2920000E2920000169400008A920000A3
:10DFD000829200008292000082920000249400004D
:10DFE000889900008A9800008A980000A89B000089
:10DFF0008498000084980000909B0000A89B00007B
:10E0000084980000909B000084980000A89B00006A
:10E010009E9B00009E9B00009E9B0000AC9B00000E
:10E0200088AD000008AC00001EAC000034AC00005D
:10E030004AAC000004AD00001AAD000030AD000095
:10E0400046AD00005CAD000072AD000000000000B5
:10E050000000000000000000000000000000183C6C
:10E060003C3C18181800181800000000006666668E
:10E070002400000000000000000000000000003646
:10E08000367F3636367F36360000000018183E637D
:10E0900043033E6061633E1818000000000000006A
:10E0A000436330180C0663610000000000001C365A
:10E0B000361C6E3B3333336E00000000000C0C0C3A
:10E0C0000600000000000000000000000000301802
:10E0D0000C0C0C0C0C0C18300000000000000C188C
:10E0E000303030303030180C0000000000000000EC
:10E0F00000663CFF3C6600000000000000000000DD
:10E100000018187E18180000000000000000000031
:10E1100000000000001818180C00000000000000AB
:10E120000000007F00000000000000000000000070
:10E1300000000000000018180000000000000000AF
:10E14000406030180C0603010000000000003E6330
:10E1500063736B6B6763633E000000000000181C74
:10E160001E1818181818187E0000000000003E63E2
:10E170006030180C0603637F0000000000003E635F
:10E1800060603C606060633E00000000000030386A
:10E190003C36337F303030780000000000007F03D1
:10E1A00003033F706060633E0000000000001C0637
:10E1B00003033F636363633E0000000000007F636E
:10E1C000606030180C0C0C0C0000000000003E6376
:10E1D00063633E636363633E0000000000003E63D0
:10E1E00063637E606060301E00000000000000007D
:10E1F00018180000001818000000000000000000BF
:10E20000181800000018180C000000000000006042
:10E2100030180C060C1830600000000000000000F0
:10E2200000007F00007F00000000000000000006EA
:10E230000C18306030180C060000000000003E632F
:10E240006330181818001818000000000000003E85
:10E2500063637B7B7B3B033E000000000000081CE7
:10E260003663637F636363630000000000003F6602
:10E2700066663E666666663F0000000000003C661B
:10E28000430303030343663C0000000000001F3605
:10E29000666666666666361F0000000000007F66E0
:10E2A00046161E160646667F0000000000007F66C8
:10E2B00046161E160606060F0000000000003C660B
:10E2C0004303037B6363665C00000000000063633C
:10E2D00063637F63636363630000000000003C18B6
:10E2E000181818181818183C0000000000007830A2
:10E2F000303030303333331E0000000000006766DA
:10E3000036361E1E366666670000000000000F06E7
:10E31000060606060646667F0000000000006377DA
:10E320007F7F6B63636363630000000000006367CB
:10E330006F7F7B73636363630000000000001C3623
:10E34000636363636363361C0000000000003F6684
:10E3500066663E060606060F0000000000003E63EB
:10E3600063636363636B7B3E3070000000003F6655
:10E3700066663E36666666670000000000003E6323
:10E3800063061C306063633E0000000000007E7E78
:10E390005A1818181818183C000000000000636391
:10E3A000636363636363633E0000000000006363B4
:10E3B0006363636363361C0800000000000063634E
:10E3C0006363636B6B7F363600000000000063639D
:10E3D00036361C1C3636636300000000000066669B
:10E3E00066663C181818183C0000000000007F63A7
:10E3F0006130180C0643637F0000000000003C0CF5
:10E400000C0C0C0C0C0C0C3C00000000000000017B
:10E4100003070E1C387060400000000000003C3014
:10E42000303030303030303C00000000081C3663A3
:10E4300000000000000000000000000000000000DC
:10E44000000000000000000000FF00000C0C18009D
:10E4500000000000000000000000000000000000BC
:10E46000001E303E3333336E00000000000007060C
:10E47000061E36666666663B00000000000000006F
:10E48000003E63030303633E0000000000003830D9
:10E49000303C36333333336E0000000000000000A0
:10E4A000003E637F0303633E0000000000001C3653
:10E4B00026060F060606060F0000000000000000FA
:10E4C000006E33333333333E30331E000000070613
:10E4D00006366E6666666667000000000000181863
:10E4E000001C18181818183C00000000000060609C
:10E4F000007060606060606066663C000000070657
:10E500000666361E1E3666670000000000001C18F6
:10E51000181818181818183C000000000000000017
:10E5200000377F6B6B6B6B6B00000000000000001E
:10E53000003B66666666666600000000000000003C
:10E54000003E63636363633E000000000000000060
:10E55000003B66666666663E06060F000000000029
:10E56000006E33333333333E303078000000000028
:10E57000003B6E460606060F00000000000000008B
:10E58000003E63061C30633E000000000000080CE3
:10E590000C3F0C0C0C0C6C3800000000000000005C
:10E5A000003333333333336E0000000000000000CB
:10E5B0000066666666663C18000000000000000009
:10E5C000006363636B6B7F36000000000000000097
:10E5D0000063361C1C1C36630000000000000000B5
:10E5E000006363636363637E60301F0000000000AC
:10E5F000007F33180C06637F0000000000007018D5
:10E6000018180E18181818700000000000001818CC
:10E6100018180018181818180000000000000E182C
