:1068000000180020D16C0000156D0000156D00000F
:106810000000000000000000000000000000000078
:10682000000000000000000000000000156D0000E6
:106830000000000000000000156D0000156D000054
:10684000156D0000156D0000156D0000156D000040
:10685000156D0000156D0000156D0000156D000030
:10686000156D0000156D0000156D0000156D000020
:1068700025880000156D0000156D0000156D0000E5
:10688000156D0000156D0000156D0000156D000000
:10689000156D0000156D0000156D0000156D0000F0
:1068A000156D0000156D0000156D0000156D0000E0
:1068B000156D0000156D0000156D0000156D0000D0
:106C0000FFFFFFFFFFFFFFFFFFFFFFFFFEFFFFFF95
:106C100010B5064C2378002B07D1054B002B02D072
:106C2000044800E000BF0123237010BD24050020AC
:106C30000000000074CB0000044B10B5002B03D003
:106C40000349044800E000BF10BDC046000000003A
:106C50002805002074CB0000164B002B00D1144BEC
:106C60009D46402292029A1A924600218B460F4678
:106C70001348144A121A05F0B1F90F4B002B00D03B
:106C800098470E4B002B00D09847002000210400AD
:106C90000D000D48002802D00C4800E000BF05F0B0
:106CA00079F92000290001F00DFE05F05DF9C046DC
:106CB0000000080000180020000000000000000094
:106CC00024050020380C0020000000000000000017
:106CD00072B605F0A5F862B609490A4A0A4B9B1A32
:106CE00003DD043BC858D050FBDC0849084A521A5F
:106CF00003DD00208850043AFCDAFFF7ADFF000006
:106D0000B0FC0000C0040020240500202405002061
:106D1000380C002000480047156D00000022430891
:106D20008B4274D303098B425FD3030A8B4244D353
:106D3000030B8B4228D3030C8B420DD3FF22090295
:106D400012BA030C8B4202D31212090265D0030B54
:106D50008B4219D300E0090AC30B8B4201D3CB034A
:106D6000C01A5241830B8B4201D38B03C01A52418C
:106D7000430B8B4201D34B03C01A5241030B8B428E
:106D800001D30B03C01A5241C30A8B4201D3CB0279
:106D9000C01A5241830A8B4201D38B02C01A52415E
:106DA000430A8B4201D34B02C01A5241030A8B4261
:106DB00001D30B02C01A5241CDD2C3098B4201D379
:106DC000CB01C01A524183098B4201D38B01C01AF7
:106DD000524143098B4201D34B01C01A524103096E
:106DE0008B4201D30B01C01A5241C3088B4201D31D
:106DF000CB00C01A524183088B4201D38B00C01ACA
:106E0000524143088B4201D34B00C01A5241411AF0
:106E100000D20146524110467047FFE701B50020FD
:106E200000F0F0F802BDC0460029F7D076E77047C1
:106E300003460B437FD4002243088B4274D30309DB
:106E40008B425FD3030A8B4244D3030B8B4228D37C
:106E5000030C8B420DD3FF22090212BA030C8B42A2
:106E600002D31212090265D0030B8B4219D300E042
:106E7000090AC30B8B4201D3CB03C01A5241830BC7
:106E80008B4201D38B03C01A5241430B8B4201D377
:106E90004B03C01A5241030B8B4201D30B03C01AA0
:106EA0005241C30A8B4201D3CB02C01A5241830A1A
:106EB0008B4201D38B02C01A5241430A8B4201D349
:106EC0004B02C01A5241030A8B4201D30B02C01A73
:106ED0005241CDD2C3098B4201D3CB01C01A5241DA
:106EE00083098B4201D38B01C01A524143098B4263
:106EF00001D34B01C01A524103098B4201D30B014C
:106F0000C01A5241C3088B4201D3CB00C01A524170
:106F100083088B4201D38B00C01A524143088B4235
:106F200001D34B00C01A5241411A00D201465241CE
:106F3000104670475DE0CA0F00D04942031000D3ED
:106F40004042534000229C4603098B422DD3030A42
:106F50008B4212D3FC22890112BA030A8B420CD352
:106F6000890192118B4208D3890192118B4204D37B
:106F700089013AD0921100E08909C3098B4201D3FB
:106F8000CB01C01A524183098B4201D38B01C01A35
:106F9000524143098B4201D34B01C01A52410309AC
:106FA0008B4201D30B01C01A5241C3088B4201D35B
:106FB000CB00C01A524183088B4201D38B00C01A08
:106FC0005241D9D243088B4201D34B00C01A5241DF
:106FD000411A00D20146634652415B10104601D36C
:106FE0004042002B00D54942704763465B1000D3F6
:106FF000404201B5002000F005F802BD0029F8D09C
:1070000016E770477047C046002B11D1002A0FD1F8
:10701000002900D1002802D00021C943081C07B470
:10702000024802A14018029003BDC046D9FFFFFFED
:1070300003B4684601B5029800F006F8019B9E462D
:1070400002B00CBC7047C046F0B54F464646D64627
:10705000C0B5040082B00D00914698468B422FD8EF
:107060002CD04146484601F0D1FA29000600200004
:1070700001F0CCFA331A9C46203B9A4600D576E0C4
:107080004B46524693401F004B46624693401E00BB
:10709000AF4228D825D05346A41BBD41002B00DAAF
:1070A0007BE000220023009201930123524693408B
:1070B0000193012362469340009318E08242D0D9A5
:1070C00000220023009201930A9B002B01D01C6038
:1070D0005D600098019902B01CBC90469946A2469A
:1070E000F0BDA342D7D9002200230092019363464A
:1070F000002BE9D0FB079846414672080A437B08FB
:1071000066460EE0AB4201D1A2420CD8A41A9D41C2
:10711000012024196D410021013E24184D41002E0B
:1071200006D0AB42EED9013E24196D41002EF8D1B4
:1071300000980199534600196941002B23DB2B006D
:107140005246D3402A006446E2401C0053461500D4
:10715000002B2DDB26005746BE4033002600674635
:10716000BE403200801A994100900191ACE762461E
:1071700020239B1A4A46DA406146130042468A4061
:1071800017001F4380E7624620239B1A2A006646A9
:107190009A402300F3401343D4E7624620230021A2
:1071A0009B1A0022009101920122DA40019280E7AD
:1071B0002023624626009B1ADE402F00B04666461A
:1071C000B74046463B003343C8E7C046F0B5574694
:1071D000DE464E464546E0B5834607000E034800AE
:1071E00085B092461C00360B400DCD0F002800D113
:1071F0009DE0954B984239D08023F6001B041E4336
:10720000924A7B0F334399469446030063440093AC
:1072100000230026FF00029323031B0B9846630004
:10722000E40F52465B0D019400D1B3E086498B42D6
:1072300000D19EE04246D100802212040A4351460A
:10724000490F11438B46814952468C46009963444D
:10725000CB1A0021D20000932B0063409A460F2ED8
:1072600000D905E17A4BB6009B599F465B463343F4
:10727000994600D0B8E00223082600270090029328
:10728000CAE7CB463A0002990195019B9A4602292A
:1072900027D0032900D180E2012944D06D49009B09
:1072A0008C4663441C00002C38DD530700D013E2E9
:1072B000D2085B46DB0109D55946674B19408B461E
:1072C0008021C9008C46009B63441C00634B9C4298
:1072D00007DC5B4664055F075B0217431B0B620D0F
:1072E00002E000230027584A00211B031C0B0B0D52
:1072F0001B05234314055A4A380013401C435346C8
:107300006400DB0764081C43210005B03CBC9046C8
:107310009946A246AB46F0BD0122524201231B1BF7
:10732000382B00DCADE1002200230027DCE75B46C0
:10733000334399465ED0002E00D18AE1300001F03F
:1073400047F903000B3B1C2B00DD7BE11D22D31A08
:107350005A460100DA4008398E4013005F46334335
:1073600099468F403F4B00261B1A0093002302933F
:1073700052E7414653460B433B499B468C46009B94
:10738000634400935B46002B3BD1022300221E4343
:10739000022161E7434613439B4637D04346002B07
:1073A00000D162E1404601F013F903000B3B1C2BB6
:1073B00000DD53E102004146083A914088461D2114
:1073C000CB1A5146D9400B0041460B439B465346CE
:1073D00093401A00009B25499C46604403008C465C
:1073E00063440093002137E70323B14600900C2645
:1073F000029311E700230093013304260027029330
:107400000AE70323C3461E43032125E701331E4336
:107410000022012120E700239A46802300271B0336
:10742000094A61E7802349461B03194200D1E2E083
:107430005946194200D0DEE00B431B0317001B0B1B
:10744000A246014A50E7C046FF07000001FCFFFFCB
:10745000F8C30000FF030000FFFFFFFEFE0700006F
:10746000FFFF0F800DFCFFFF01F8FFFFF30300009B
:10747000D94500D9CBE000D1C6E03C004846002702
:10748000009B013B00935B46160E1B021E4313023A
:10749000984633041B0C9946310C0191FFF7C4FC4C
:1074A0004A4642430B04210C050019438A4207D97E
:1074B0008919013D8E4203D88A4201D9851E891956
:1074C000881A0199FFF7B0FC09048C464A4621044A
:1074D00064464243090C030021438A4204D98919B6
:1074E000013B8E4200D8F1E02D041D43AB464346DC
:1074F000891A4246280C12041D0C5B46140C22000B
:107500001B041B0C5A4303946B434443029568438A
:107510001B19150CEB189C4203D980246402A44665
:1075200060441C0C15041B042D0C20185D198142AD
:1075300077D373D00C1AA24A7D1BAF42BF41944649
:10754000009B7F426344E01B1C00864200D1DBE0CD
:107550000199FFF769FC4A4642430B04290C0700D6
:1075600019438A4207D98919013F8E4203D88A42BA
:1075700001D9871E8919881A0199FFF755FC09045A
:107580004A46894629044D464243090C03002943D3
:107590008A4207D98919013B8E4203D88A4201D910
:1075A000831E89193F04891A3A00039F1A43380041
:1075B00013041B0C584381460298150C6F43434338
:1075C00045434846000C8446DB1963449F4203D977
:1075D000802040028446654448461F0C00041B047A
:1075E000000C7D191818A94200D284E000D17FE078
:1075F00001231A4357E680234A461B0313431B0308
:107600001B0BAA466F4A6FE6BA4200D935E74B46D4
:10761000DC0758087B081C43FF0734E70024AF420F
:1076200089D247444745A4415B466442A419641883
:10763000013BA6421ED2A0426DD800D1B6E0241A6A
:107640009B4678E703005A46283B9A40002791461C
:1076500088E6584600F0BCFF203072E60300524630
:10766000283B9A4093460022B4E6504600F0B0FF13
:1076700020309AE6A642E2D1B845DCD9341A9B46BE
:1076800059E71F2B65DC504C0099A4465C466144C9
:1076900008008C4011008240D940501E82410C43AA
:1076A00014435A46DA401300620709D00F222240E1
:1076B000042A05D02200141D9442894149425B18D6
:1076C0001A0262D50122002300270DE68A4200D863
:1076D0000AE7831E891907E70F231340042B00D103
:1076E000E6E5171D9742924153429B44FA08E0E5B4
:1076F000002800D1D7E57118531EB14227D3A94203
:1077000015D358D01A0073E7002B00DC04E60123E0
:1077100000229B44CDE502234744474589415B4213
:107720009C46494289190C19E344241A03E743464D
:107730005F0047459B41B8465B429E19023A891952
:10774000A94200D054E7404500D051E7ABE51A000C
:10775000F6E71F215F4649420C1BE740202B07D06C
:107760001A49009B8C46634418005B4683401A43C9
:10777000501E82413A4307270023174009D00F21AA
:10778000002311401400042995D122005F075B02F9
:107790001B0BD20817430022A6E5802359461B0382
:1077A0000B431B0317001B0B064A9DE5BD42B2D8D5
:1077B0009B460024BFE68045B9D31A00C3E7C04604
:1077C000FF030000FF0700001E0400003E0400004D
:1077D000F0B55746DE464E464546E0B583460600C0
:1077E0000F03480087B092461D003F0B400DCC0FA1
:1077F000002800D16FE0DE4B984238D08023FF0094
:107800001B041F43730F3B430193DA4B0027994638
:1078100000239B46F60081442B0369001B0B524654
:107820009846490DED0F002900D185E0D04B9942D3
:1078300000D173E04346DA0080231B041343524611
:10784000CC48520F84461343524600206144D20074
:1078500089442100694000918C46012149448A46AF
:107860000F2F00D990E0C449BF00CF59BF465B46F7
:107870003B43019300D06AE102230827002681469A
:107880009B46C9E732005846019B61460091022899
:1078900000D175E0032800D1FEE1012800D02CE1E1
:1078A00000230027002600253F032A0D3F0BB34885
:1078B00012053A4302401B051343009A5B00D107AF
:1078C0005B080B433000190007B03CBC904699465A
:1078D000A246AB46F0BD5B463B43019300D12FE18E
:1078E000002F00D1A5E1380000F072FE03000B3B31
:1078F0001C2B00DD96E11D22D31A5A460100DA4006
:107900005E4608398F4013008E403B4301939C4BE9
:1079100000271B1A994600239B467DE741465346A4
:107920000B4393498C46E144002B00D01AE102221C
:107930000220174300228CE7134300D10DE1434698
:10794000002B00D181E1404600F042FE02000B3ADC
:107950001C2A00DD72E10100434608398B4098463D
:107960001D239A1A5346D3401A00434613435246E6
:107970008A404946081A824989468144002068E7BE
:107980007B4B002700268EE7140C1204120C11000A
:10799000370C3604350C794328008C462E006043A2
:1079A0006044834656432100300C80465846794354
:1079B00040440291844506D98846802149028C467C
:1079C000E044414602913604010C360C00048B461B
:1079D00081191E0C1B041B0C0391190079438C4662
:1079E000280075436544A8465843050C4544774331
:1079F000A94203D9802149028C466744290C8C4650
:107A000039000004000C2D042D186144AB4405918D
:107A10005946049101990F043F0C080C3900514359
:107A20004243904602008C46090C8B4662437C43DD
:107A300044445C44A04503D980214902884642441D
:107A4000210C884661460904090C8C4639005943CB
:107A5000434370437E430F0CF6182404BE1964445C
:107A600042448C46B34203D980235B02984640448B
:107A7000029B61469846049B370443449B46AB45B2
:107A8000AD416B420D0405992D0C8C467F1967445E
:107A9000FD18A8465D462D19A542A44193466442AF
:107AA000A446C344DC448F42BF4198459B41934563
:107AB0009241A445A4415B427F421F43360C52428F
:107AC0006442BF192243BF18624638184302D20DE0
:107AD000039913436A020A43501E82416146ED0D29
:107AE0002A434E023243D90100D4B3E001265008A4
:107AF00032400243DE0732435B08224C5444002CE0
:107B000062DD510709D00F201040042805D0101D58
:107B10009042924152429B180200D90104D5802420
:107B20001948E400034054441848844200DD27E724
:107B30005E075B02D2081F0B630516435B0DB2E6BE
:107B4000002399460133042700269B4664E603235D
:107B5000019781460C279B465EE6012201201743D0
:107B6000002276E6032303201F43434671E6C04606
:107B7000FF07000001FCFFFF38C40000FFFF0F807B
:107B80000DFCFFFFFF030000FFFFFFFEFE070000EC
:107B90000023802700933F030026434B83E6019B8D
:107BA0003200A446584670E6AC466EE6802701993E
:107BB0003F0339422DD03B422BD11F433F033F0BA4
:107BC00000951600384B6EE601252D1B382D00DD83
:107BD00066E61F2D40DC35481C00504416008240EC
:107BE0008440EE40501E824134431443EB40620710
:107BF00009D00F222240042A05D02200141D9442ED
:107C0000804140421B181A023ED50123002700265E
:107C100049E68027019B3F031F433F033F0B00942E
:107C2000214B40E603005A46283B9A400026019229
:107C30006DE6584600F0CCFC203057E60300524673
:107C4000283B9A401300002293E6504600F0C0FC07
:107C500020307BE6CA4650E71F201E004042041B2E
:107C6000E640202D03D0124C5444A3401A43501E2A
:107C70008241324307260027164009D00F200023F7
:107C8000104014000428B9D122005E075B021F0BCC
:107C9000D2081643002306E680273F031F433F0315
:107CA0003F0B1600004BFEE5FF0700001E0400001E
:107CB0003E040000F8B557464E464546DE460C00E9
:107CC0000903E0B5490A460F5F0031431E03DB0F8D
:107CD000760A9B46530F3343C84E6500C000E40F3D
:107CE000D2006D0DA24681467F0D9C469046B7425C
:107CF00000D1B9E05B46012673409B46EE1BA345CD
:107D000000D183E0002E63DD002F00D0B1E0634698
:107D1000134300D123E1731E002B00D0BAE1861A71
:107D20006346B04280410125C91A4042091A0B023C
:107D300000D447E149024B0A98464346002B00D144
:107D400089E1404600F044FC0300083B1F2B00DDA6
:107D50007CE120223000D21A4146D04099400200F6
:107D60009E400A439D4200DD6AE15D1B6B1C1F2B98
:107D700000DD94E1202110003500C91A8E40DA4060
:107D80008840DD40711E8E411100072228430025E6
:107D900006433240002A09D00F233340042B05D07C
:107DA000331DB342B641764289191E000B0200D43E
:107DB0003DE26A1C914B55056D0D9A4200D119E1C7
:107DC0008F4AF6080A40570752023743120B9BE0CE
:107DD000002E00D0C5E06E1C7605760D012E00DC6D
:107DE00048E16746861ACB1BB042BF417F42B84686
:107DF0001F004346FF1A3B00B8461B0200D55FE157
:107E000037439AD100220024002579E0002E00DCBF
:107E1000FAE0002F00D18DE0784B9D4267D080239F
:107E200067461B041F43BC46382E00DC52E1634604
:107E300013435A1E93411E1886428041404209183E
:107E40000B0200D4BEE06D4B01359D4200D1D2E063
:107E50006B4A73080A4001210E401E435108D307A4
:107E600007221E43324095E71E00164300D045E727
:107E700040E7624B9D423AD0802367461B041F4374
:107E8000BC46382E00DDEBE01F2E00DC3AE133006B
:107E90006746203BDF403B00202E05D04027BF1B1C
:107EA0006646BE40324390464646721E9641334374
:107EB000DAE0002B00D114E26346134300D168E1FD
:107EC00080234E07C008C9081B030643194208D087
:107ED0006046C008184204D163460100D2085E071C
:107EE0001643F3009946C900720F444D11434B46A7
:107EF000DE08424B4F073743CA089D4200D16EE06F
:107F000012036D05120B6D0D00211203130B0A0DE8
:107F100012051A433B4B2D0513402B435B00E4072E
:107F20005B082343380019003CBC90469946A246A2
:107F3000AB46F8BD6346134311D0731E002B00D02F
:107F400007E18618864280416144404209180125B4
:107F50000B0237D502257BE73E006146914635008E
:107F6000C5E75C46002D00D0E1E00B000343F3D0F1
:107F7000731C00D1ACE1214B9F4200D13AE1F343A5
:107F8000382B00DD6FE11F2B00DD8CE120250E007A
:107F9000ED1AAE40B0460600AA46DE4045463543DF
:107FA0002E005546D940A8406346451EA8415B1A9D
:107FB0009C463043161AB242924163465242991A85
:107FC0003D00B4E607223240002A00D0E4E60B4B25
:107FD000F6084F073743CA089D4200D090E73B00A0
:107FE000134300D1A6E180231B031A431203120B93
:107FF000024D89E715000022002785E7FF070000F2
:10800000FFFF7FFFFFFF0F80002E00D0C7E06B1C3B
:108010005E05760D012E00DCF0E0C84DAB4200D1CC
:10802000B9E085180A0085428941624449425118E5
:108030000722CE076D082E43490832401D00A9E6ED
:10804000BF49ED1A114007223240A3E6320028381A
:108050008240002686E6300000F0BAFA203073E64F
:10806000634613435A1E9341C61AB04280414042B0
:10807000091A5CE60E00674606431743002D5ED1E1
:10808000002E00D0F3E0002F00D11EE15C466146D7
:1080900091462CE7A94FBE427BD01E00F1E61000AE
:1080A0001F3DE840202B03D04021CB1A9A401643B5
:1080B000731E9E410722064332400021002583E7BC
:1080C000161A6346B2428041591A40420B1A98462A
:1080D0005C4632E61F2E00DDABE02027BB1B9A4634
:1080E00063465746BB40994613004F46F3401F4333
:1080F0003B005746BA40571EBA4113436246F2400E
:10810000891898E62027BB1B9A4663465746BB4012
:10811000994613004F46F3401F433B005746BA4071
:10812000571EBA4113436246F240891A9CE7834BBB
:108130009F425FD080252D047342294320E7002E03
:108140000CD1002F00D1D0E05C46614691467B4DBA
:10815000CDE67A4FBE421CD01E0065E6002F18D037
:10816000C0084E0706438020C9080003014208D01A
:108170006346DC08044204D12100DA46D2085E07D7
:108180001643F300994601245346C900720F114368
:108190001C406A4DABE61D0000220027B4E6002D0E
:1081A00059D10B00034300D1D6E6731C00D1B2E0D5
:1081B000624B9F421ED0F343382B6FDC1F2B00DD38
:1081C00097E020250E00ED1AAE40B0460600AA4604
:1081D000DE40454635432E005546A840D940451E51
:1081E000A8418C440643B6189642924151426144DC
:1081F0003D0025E63D006146914678E60B000343CD
:10820000002D00D055E6002BF5D06346134300D176
:108210006DE686188642804161444042091800227A
:108220000B0200D4D0E6464B01351940B2E5B14609
:108230005DE633006746203BDF403B00202E05D043
:108240004027BF1B6646BE40324390464646721EDC
:1082500096413343EFE5394B9F42CBD080252D0427
:1082600073422943A8E70843411E8841A2E6002F34
:1082700000D13CE66346861ACF1AB0429B415B426E
:10828000FB1A98461B024ED5161A6346B24292411B
:10829000591A5242891A5C4600227BE501430E00BE
:1082A000711E8E419FE71D000E00203DEE40B0463E
:1082B000202B04D04025EB1A9940084381464846BC
:1082C0004346411E8841184374E60022002417E605
:1082D000161A6346B2429241591A5242891A3D0017
:1082E00025E561469146154D01E6802200241203E2
:1082F00079E61D000E00203DEE40B046202B04D054
:108300004025EB1A9940084381464E464346711E6C
:108310008E411E4367E7861896429B4161445B424B
:10832000C9183D008CE547463743CED00722414669
:10833000324049E600273A00E6E5C046FF07000064
:10834000FFFF7FFF30B5144D0A034B00120B5B0D8E
:10835000C90F0024AB4211DD104CA34210DC802475
:10836000640322430E4CE41A1F2C0CDD0D48C31A83
:10837000DA4013005C42002900D11C00200030BD0F
:10838000094BCC18FAE7094DE040AC4663449A40EB
:1083900013000343EEE7C046FE0300001D04000087
:1083A0003304000013040000FFFFFF7FEDFBFFFF1D
:1083B00070B500282DD0C317C5185D40C40F280024
:1083C00000F006F9154B1B1A5B055B0D0A2815DD3D
:1083D0000B38854000222D032D0B002110002D03AA
:1083E0000A0D2D0B12052A430D4D1B052A40134380
:1083F0005B00E4075B082343190070BD02002900FD
:10840000153291400A000B21081AC5402D032D0B8F
:10841000E3E70024002300250022DEE71E0400001D
:10842000FFFF0F804100090E4B1C70B5DBB2460206
:10843000750AC40F012B14DDE0239B006D07360B7A
:10844000CB1800210A0D280012051C4D32435B0594
:108450002A405B0813435B00E4075B0823431900D1
:1084600070BD002914D1002D1ED0280000F0B0F8F6
:108470000A281CDC0B232A001B1ADA4003001533E0
:108480009D400F4B12031B1A5B05160B5B0DD8E7C3
:10849000002D06D0320B802636036D071643094B9C
:1084A000CFE7084B0026CCE700230026C9E70300EE
:1084B0002A000B3B9A400025E3E7C046FFFF0F80F0
:1084C00089030000FF070000F0B54C00640D0B03AA
:1084D000621C5B0A460F5205C90F1E43C500520DB0
:1084E000012A29DD374BE718FE2F1CDC002F3BDD6E
:1084F0008001431E98410722F3006D0F03432B4375
:108500001A40002A04D00F221A40042A00D0043353
:108510008022D2041A4024D00137FAB2FF2F02D0B1
:108520009B01580A01E0FF2200204002D205400AC8
:10853000C90710430843F0BD3543002C04D1002D7A
:108540000AD100220020F0E7002DECD08020C003EB
:108550003043FF22E9E7002400235B02580AE2B21D
:10856000E3E7DB083C00F8E73B001733F3DB80234D
:108570001B0433431E26F61B1F2E14DD022252421B
:10858000D71B1A00FA401700202E04D00E4A94463A
:108590006444A3401D432B005D1EAB4107223B43B7
:1085A0001A400027ADE7094A2800A21895409340D9
:1085B0006C1EA541F04007222B4303431A400027BD
:1085C0009FE7C04680FCFFFFA2FCFFFF82FCFFFF8D
:1085D0001C2101231B04984201D3000C10391B0AF3
:1085E000984201D3000A08391B09984201D30009B7
:1085F000043902A2105C40187047C046040302020E
:1086000001010101000000000000000010B5002978
:1086100003D1FFF7DDFF203002E0081CFFF7D8FF91
:1086200010BDC046B0B500AF72B6494B1A68484B92
:1086300080210A431A60474B1B780133DAB2454B5D
:108640001A70444B1B78012B77D9424B00221A70C9
:10865000414B2720185C28241C5D24022043292438
:108660001C5D240420432A241C5D240620430100B1
:108670002B20185C2C241C5D240220432D241C5D1F
:10868000240420432E241B5D1B0603431A000123F0
:108690000024C9186241304B2733FF2008400500F1
:1086A000187800242040041C281C20431870080A55
:1086B000FF2420400500587800242040041C281C7A
:1086C00020435870080CFF242040050098780024AF
:1086D0002040041C281C204398700D0ED8780024DC
:1086E0002040041C281C2043D870FF2010400500A7
:1086F000187900242040041C281C20431871100AFB
:10870000FF2420400500587900242040041C281C28
:1087100020435871100CFF24204005009879002454
:108720002040041C281C20439871100EDA79002187
:108730000A40111C021C0A43DA71084B1A68074BE5
:1087400080210A431A6062B6C046BD46B0BDC0462D
:1087500000000440400500201C0B00200050044095
:10876000B0B586B002AF72B62B4B1B68002B41DA56
:10877000294B5A680E217B181A807B181A88FA2315
:108780005B009A4236D9254BE8229A5CE9215B5C72
:108790001B0213439BB2013399B2204BE822FF2006
:1087A00008400500985C00242040041C281C20433D
:1087B0009854090A88B29B185A7800210A40111C63
:1087C000021C0A435A70154BE8229A5CE9215B5C53
:1087D0001B0213439BB21A003B1D1900100002F04C
:1087E00051F803000E4A009313001F22D1212420C8
:1087F00003F010F8084B1A68074B802109060A435A
:108800001A60054B1A68044B80218A431A6062B6CD
:10881000C046BD4604B0B0BD005004401C0B002053
:108820003084000090B583B000AF72B60F4B1B6868
:1088300000209847031E13D00D4B1B68FC1DBA1D6A
:1088400011000020984703002370BB1D1B78002BEC
:1088500006D0084B1B68FA1D1278110000209847BB
:1088600062B6C046BD4603B090BDC046AC05002010
:10887000F00500204006002090B583B000AF72B62E
:108880000C4B1B68FC1DBA1D11000120984703000A
:108890002370BB1D1B78002B07D0074B1B68074CB0
:1088A0000749FA1D10782200984762B6C046BD46B7
:1088B00003B090BDF0050020140600200C07002036
:1088C000340C0020F0B5C64600B5C54CA54402AF37
:1088D00072B600220023A021C90010208446BC44A7
:1088E00061440A604B60002200239A21C9001020D5
:1088F0008446BC4461440A604B600023B94A10219D
:108900008C46BC4462441360B74B10229446BC446E
:10891000634401221A70B54B10229446BC44634450
:1089200000221A70B24B10229446BC4463440022C9
:108930001A80B04B10229446BC4463441822FF3284
:108940001A80AD4B10229446BC446344AD221A8079
:10895000002200239C21C90010208446BC446144AD
:108960000A604B60002200239E21C900102084462B
:10897000BC4461440A604B60A04B10229446BC4446
:10898000634400221A709E4B00221A8002F032FCCF
:1089900002F0B2F89B4B1B68182210218C46BC4495
:1089A000624410009847984B1B681022BA181000B8
:1089B0009847964B1B68012098470021052002F03C
:1089C00063FC934B1B68FA22520010009847914BAE
:1089D0001B68914A110003209847904B1B689847E9
:1089E00002F07CFC01F0E8FD8D4B19001C2002F028
:1089F00027FC8C4B19001A2002F022FC8A4B19002C
:108A00000D2002F01DFC894B1B689847884B1B68A2
:108A1000984762B6874B1B688749002208001100FF
:108A20009847864B1E680323102200210020B04780
:108A3000834B1B689922D2001400102179188E18DC
:108A40001A2098470300338022001023FB189B183C
:108A50001B881800FFF7ACFC7A4A7B4BFEF7B8FE88
:108A600002000B00100019000022784BFEF7B0FE48
:108A700002000B00100019000022754BFEF7A6FB48
:108A800002000B00100019000022724BFFF712F9D0
:108A900002000B00100019006F4A704BFEF796FBA6
:108AA00002000B0000206E49FFF704F902000B00E2
:108AB00010001900FFF708FD031C6A4A10217918FD
:108AC00089180B601023FB189B181868FFF7AAFC85
:108AD0008323DB0010229446BC446344012201F04E
:108AE00040FF0300604A009313001F2269216920A0
:108AF00002F090FE5D4B180001F0BCFA5C4B1800D0
:108B000001F0CAFA594BA7229A5CA821595C0902C4
:108B10000A43A921595C09040A43AA215B5C1B068C
:108B200013439722D20010218C46BC446244136048
:108B30000023504A10218C46BC44624413604E4BC3
:108B40001B78DBB25B09DBB21A000123134000D1B2
:108B500094E0464BA7229A5CA821595C09020A437B
:108B6000A921595C09040A43AA215B5C1B06134333
:108B7000591C3E4BA722FF2008408446985C0026E3
:108B80003040061C604630439854080AFF263040A7
:108B90008046981846780024A44664462640B44689
:108BA00046466446344326004670080CFF26304093
:108BB0008046981886780024A44664462640B44629
:108BC00046466446344326008670080E9B18DA78C1
:108BD00000210A40111C021C0A43DA706CE0C046F6
:108BE000E0FAFFFFFC040000FB040000ED040000BD
:108BF000CE040000CC040000CA040000EC04000015
:108C0000340C0020440600207005002004060020DB
:108C1000D8050020180600201100CC00980500207F
:108C20002586000061870000798800009C050020EF
:108C3000F8050020B8050020007A495A10060020E7
:108C4000A80500206666666666660A4000408F409A
:108C5000E0FFEF4000788640713D0AD7A370FB3FEC
:108C600000003940C4040000308400005C0600208D
:108C70001C0B0020BC04000000F00740AE4B1B782A
:108C8000DBB2DB09DBB21A000123134014D0AB4B7B
:108C9000A722995C00200140995499184878002631
:108CA00030404870991888780026304088709B18AA
:108CB000DA7800210A40DA70A04BA7229A5CA8213A
:108CC000595C09020A43A921595C09040A43AA21F3
:108CD0005B5C1B061343BB600023FB609723DB0038
:108CE00010229446BC4463441B68BA68934208D17E
:108CF000934B10229446BC4463441B68FA68934229
:108D000010D0904B1B683F2098478F4B1C688B49B5
:108D10008E4B10229446BC4463441A880B000021F9
:108D20003F20A0478A4B1B6801209847894A962319
:108D30005900894B009313001F22042002F06AFDA2
:108D4000864B180001F0ACFE824A96235900844BF2
:108D5000009313001F22042002F05CFD7F4B1800DB
:108D600001F09EFE7B4A962359007E4B0093130030
:108D70001F22042002F04EFD7B4B1B687B4D10220E
:108D8000BA1854199847030023701023FB185B1975
:108D90001B78002B00D0C9E06E4A96235900744B13
:108DA000009313001F22042002F034FD714B1B6856
:108DB0006E4D1022BA1854199847030023701023DF
:108DC000FB185B191B78002B00D0B1E0614A962399
:108DD0005900694B009313001F22042002F01AFD72
:108DE000664B1B68614D1022BA1854196449654AD4
:108DF00010009847030023701023FB185B191B78A1
:108E0000002B00D096E0534A962359005E4B009306
:108E100013001F22042002F0FDFC544B1022944644
:108E2000BC4463441B78002B00D1C5E04F4B10229B
:108E30009446BC4463441B780A2B72D89A00534B67
:108E4000D3181B689F46434A96235900504B009302
:108E500013001F22042002F0DDFC62E03D4A96234D
:108E600059004C4B009313001F22042002F0D2FC47
:108E700057E0384A96235900474B009313001F22AE
:108E8000042002F0C7FC4CE0324A96235900434BC1
:108E9000009313001F22042002F0BCFC41E02D4A85
:108EA000962359003E4B009313001F22042002F02A
:108EB000B1FC36E0274A962359003A4B0093130041
:108EC0001F22042002F0A6FC2BE0224A9623590020
:108ED000354B009313001F22042002F09BFC20E07E
:108EE0001C4A96235900314B009313001F22042083
:108EF00002F090FC15E0174A962359002C4B009382
:108F000013001F22042002F085FC0AE0114A962378
:108F10005900284B009313001F22042002F07AFC12
:108F2000C0460B4B1B6802209847FBE6C046F9E69B
:108F3000C046F7E6C046F5E600F007405C060020B4
:108F4000BC0400008C05002044050020CA04000079
:108F50000406002030840000F0BF000070170000FD
:108F600010C0000030C0000050060020EE040000D9
:108F700050C000006405002070C00000940500206F
:108F8000FA060020EB06002090C0000078C4000024
:108F9000B0C00000D0C00000F0C0000010C1000050
:108FA00030C1000050C1000070C1000090C100003D
:108FB000B0C10000D0C10000C0466C4A96235900E1
:108FC0006B4B009313001F22042002F023FC69491D
:108FD0008325ED001023FB185B191422180001F003
:108FE00035FD1023FB185B1900221A755F4A102308
:108FF000FB185B19009313001F222D21462002F05D
:1090000009FC5D491023FB185B190422180001F0CC
:109010001DFD1023FB185B1900221A71534A1023FF
:10902000FB185B19009313001F224121462002F018
:10903000F1FB524B1B68524C1022BA181219100047
:1090400098471023FB181B191433484A0093130048
:109050001F225521462002F0DDFB4A4B1C680323EA
:10906000102200210020A047474B1B689926F600DC
:109070001022BA1894191A2098470300238010234D
:10908000FB189B191B881800FFF792F93F4A404BC9
:10909000FEF79EFB03000C001800210000223D4B50
:1090A000FEF796FB03000C001800210000223A4B4B
:1090B000FEF78CF803000C00180021000022374B4B
:1090C000FEF7F8FD03000C0018002100344A354B70
:1090D000FEF77CF803000C001A0023000020324940
:1090E000FEF7E8FD03000C0018002100FFF7ECF983
:1090F000031C2E4A1021791889180B601023FB18C5
:109100009B181868FFF78EF91023FB185B190122D2
:1091100001F027FC0300154A009313001F22692168
:10912000692002F077FB224B10229446BC44634432
:1091300000221A7071E01F4B1B681F4D1022BA18D5
:1091400054190F4A10218C46BC44624410009847C1
:10915000030023701023FB185B191B78002B2DD004
:10916000FA239B00180001F09BFC4CE030840000C7
:10917000ECC100008E060020C0060020080600207A
:109180005404000010060020A805002066666666EC
:1091900066660A4000408F40E0FFEF40007886405E
:1091A000713D0AD7A370FB3F00003940C4040000A2
:1091B000EF0400000C060020EE040000E14C102338
:1091C000FB181B190133E04A009313001F22812171
:1091D0005A2002F01FFB1023FB181B191B781A00E2
:1091E0008323DB0010218C46BC446344190010002B
:1091F00001F048FB0300D44A009313001F2296217C
:109200005A2002F007FBD1491023FB185B181A788B
:109210001023FB185B1801321A70CC4B10229446B5
:10922000BC4463441B78042B85D9C9498324E400DA
:109230001023FB181B190F22180001F007FC102344
:10924000FB181B190022DA73BF4A1023FB181B19E5
:10925000009313001F22A921412002F0DBFABD492F
:109260001023FB181B190522180001F0EFFB102337
:10927000FB181B1900225A71B34A1023FB181B1943
:10928000009313001F22BD21412002F0C3FAAE4A11
:10929000B14B009313001F22D121242002F0BAFA0F
:1092A000A94AAE4B009313001F22D221B42002F032
:1092B000B1FAAB4BA3229A5CA421595C09020A4380
:1092C000A521595C09040A43A6215B5C1B061343D4
:1092D0001A001023FB181B191900100001F0D2FA14
:1092E0000300994A009313001F22D221B42002F0F8
:1092F00091FA9C20C0001023FB181B185C681B68A7
:10930000012100225B1854411022BA181218136070
:109310005460944B2720185C28241C5D24022043B1
:1093200029241C5D240420432A241C5D2406204398
:1093300001002B20185C2C241C5D240220432D24CA
:109340001C5D240420432E241B5D1B0603431A00CE
:10935000A023DB0010208446BC4463441B688B427E
:1093600008D1814B10208446BC4463441B6893425F
:1093700000D181E07B4B2720185C28241C5D24024F
:10938000204329241C5D240420432A241C5D240638
:10939000204301002B20185C2C241C5D2402204358
:1093A0002D241C5D240420432E241B5D1B06034337
:1093B0001A00A023DB0010208446BC4463441960DB
:1093C0005A606A4B1B6818241022BA181219100030
:1093D00098475D4A1023FB181B19009313001F22A6
:1093E000E621312002F016FA052001F065FF5D4B01
:1093F00027229A5C2821595C09020A432921595CD9
:1094000009040A432A21595C09060A4314002B2245
:109410009A5C2C21595C09020A432D21595C0904EC
:109420000A432E215B5C1B0613431D004C4BA322F9
:109430009A5CA421595C09020A43A521595C0904DC
:109440000A43A6215B5C1B0613433B6000237B6041
:109450003A687B6820002900FDF7D6FD1C00130048
:10946000190022000B00134306D1414B10229446F1
:10947000BC44634401221A703A4BE8229A5CE92109
:109480005B5C1B0213439BB21A003A4B10218C46C3
:10949000BC4463441B68934224D0324BE8229A5C5C
:1094A000E9215B5C1B0213439BB2324A10218C46BC
:1094B000BC44624413602B4BE8229A5CE9215B5C5C
:1094C0001B0213439BB203211800FDF7ADFC0B00F8
:1094D0009BB2002B06D1264B10229446BC44634419
:1094E00001221A70224B10229446BC4463441B781C
:1094F000012B00D033E11B4B180000F035FF184B57
:10950000AB229B5C552B3BD1154BAC229B5C302B8B
:1095100036D119491023FB185B18184A10208446CD
:10952000BC44624412881A801023FB185B181A8806
:109530000C492C2310208446BC446344180001F0DD
:1095400085FA76E05404000030840000EF04000047
:10955000EB060020FA0600200CC2000010C200003A
:109560005C0600201C0B00200405000044060020BF
:10957000FB040000FC040000DE040000CC0400003A
:10958000DE4BAB229B5C552B53D1DC4BAC229B5C5E
:10959000312B4ED1DA492C241023FB181B1902223F
:1095A000180001F053FA1023FB181B190233D54998
:1095B0000F22180001F04AFA1023FB181B1911336F
:1095C000D1490822180001F041FA1023FB181B1999
:1095D0001933CE490422180001F038FA1023FB1881
:1095E0001B191D33CA490122180001F02FFA10235C
:1095F000FB181B191E33C7490222180001F026FA76
:109600001023FB181B192033C3490222180001F054
:109610001DFA1023FB181B192233C0491922180008
:1096200001F014FABE4B10229446BC4463443B2222
:109630001A80BC4ABC4B009313001F2296215A206B
:1096400002F0E8F8B94BE5229B5C1A008323DB00AB
:1096500010218C46BC4463441900100001F012F93B
:109660000300B04A009313001F2296215A2002F0F3
:10967000D1F8AC4A96235900AD4B009313001F223A
:10968000042002F0C7F8AB4B1B68AB4D1022BA1890
:1096900054192C22102179188918A14A10208446C7
:1096A000BC446244128810009847030023709D4A0E
:1096B00096235900A14B009313001F22042002F0AF
:1096C000A9F81023FB185B191B78002B11D1954AC0
:1096D000962359009A4B009313001F22042002F096
:1096E00099F8984B10229446BC44634400221A8097
:1096F0002EE0C046904B10229446BC4463441B7835
:10970000012B02D0022B0BD015E0864A962359007C
:109710008D4B009313001F22042002F07BF80AE017
:10972000804A96235900894B009313001F2204207E
:1097300002F070F8C046864B1B689847854B1B6843
:109740009847854B1B688549854A10009847C04655
:10975000844B10229446BC44634400221A70824B0E
:109760001B88002B01D100F064FC9E20C000102358
:10977000FB181B185C681B68012100225B18544110
:109780001022BA181218136054601023FB181B180B
:109790001B688322D20010218C46BC446244110015
:1097A000180001F06FF803005E4A009313001F22B7
:1097B000F9215A2002F02EF85A4A962359006B4B91
:1097C000009313001F22042002F024F85A4B1022A9
:1097D0009446BC446344FF221A70514B10229446B5
:1097E000BC44634400221A806149624C1023FB1878
:1097F0001B190222180001F029F95D492C231022BF
:109800009446BC4463440222180001F01FF910235F
:10981000FB181B191B78412B22D1564B1022944662
:10982000BC4463445B78302B1AD13D4B10229446E4
:10983000BC44634450491022BA18521812880232AC
:109840001A802C2310229446BC4463440233102215
:10985000BA18521812882949180001F0F7F809E3DC
:10986000444B10229446BC4463441B78412B1ED1C8
:10987000404B10229446BC4463445B78312B16D194
:1098800027491023FB185B1891221A802C231022E1
:109890009446BC44634402331022BA18521812880A
:1098A000023A92B21549180001F0D0F8E2E2314BC9
:1098B00010229446BC4463441B78412B5ED12D4B4F
:1098C00010229446BC4463445B78322B56D1144931
:1098D0001023FB185B1816221A802C2310229446A2
:1098E000BC44634402331022BA1852181288023A58
:1098F00092B21B49180001F0A9F8BBE25C060020F7
:1099000007070020200B0020430B0020CF0B002076
:10991000010C0020020C0020040C00201A0C002076
:10992000DE040000308400001CC200001C0B00207C
:1099300024C20000E0050020EE04000044C2000044
:1099400064C20000CE04000084C20000A4C2000073
:10995000500600206405002094050020FA0600202F
:10996000EB060020FB040000340C0020C4C2000001
:109970000C07002014040000CA0400007D4B1022D4
:109980009446BC4463441B78412B1ED1794B102272
:109990009446BC4463445B78332B16D1764910233C
:1099A000FB185B180A221A802C2310229446BC4410
:1099B000634402331022BA1852181288023A92B243
:1099C0006E49180001F042F854E26A4B10229446A6
:1099D000BC4463441B78422B30D1664B1022944622
:1099E000BC4463445B78302B28D1654B10229446ED
:1099F000BC4463441A886349634B180001F026F89D
:109A0000624B10229446BC44634401221A705A49A6
:109A10001023FB185B1809221A802C23102294466D
:109A2000BC44634402331022BA1852181288023A16
:109A300092B25749180001F009F81BE24D4B102271
:109A40009446BC4463441B78422B2BD1494B1022D3
:109A50009446BC4463445B78312B23D149494A4B3B
:109A60007C22180000F0F2FF484B10229446BC44C0
:109A7000634401221A7040491023FB185B18092225
:109A80001A802C2310229446BC44634402331022D3
:109A9000BA1852181288023A92B23D49180000F0E2
:109AA000D5FFE7E1334B10229446BC4463441B7856
:109AB000422B2BD12F4B10229446BC4463445B783D
:109AC000322B23D12F49334B1E22180000F0BEFF4A
:109AD0002E4B10229446BC44634401221A7026493E
:109AE0001023FB185B1809221A802C23102294469D
:109AF000BC44634402331022BA1852181288023A46
:109B000092B22349180000F0A1FFB3E1194B1022D3
:109B10009446BC4463441B78422B3DD1154B102224
:109B20009446BC4463445B78332B35D11549134BC1
:109B30000822180000F08AFF144B10229446BC44FF
:109B4000634401221A700C491023FB185B18092288
:109B50001A802C2310229446BC4463440233102202
:109B6000BA1852181288023A92B20949180000F045
:109B70006DFF7FE114040000DE040000FF060020FA
:109B8000CA0400000E0700205C060020ED0400005F
:109B9000E8C20000EB060020D94B10229446BC44DA
:109BA00063441B78552B00D010E1D54B102294460E
:109BB000BC4463445B78302B00D007E1D04B1022CB
:109BC000BA18D118CF4B0222180000F03FFFCE4B3D
:109BD0001B88CE4A10218C46BC44624412889A42AB
:109BE00000D0EBE0C94B10229446BC4463441A8871
:109BF000C749C84B180000F029FFC749C74B1E22B0
:109C0000180000F023FFC649C64B1422180000F0CC
:109C10001DFFC549C54B1422180000F017FFC449A9
:109C2000C44B1E22180000F011FFC349C34B04228D
:109C3000180000F00BFFC24B1A68B64B2721595C85
:109C40002820185C000201432920185C000401430D
:109C50002A20185C000601430C002B21595C2C20A3
:109C6000185C000201432D20185C000401432E20E3
:109C70001B5C1B060B431D00200029009047B149C7
:109C8000B14B1422180000F0E1FEB049B04B0B229A
:109C9000180000F0DBFEAF49AF4B0F22180000F0B8
:109CA000D5FEAE49AE4B0522180000F0CFFE994B11
:109CB00033229A5C3421595C09020A433521595CEC
:109CC00009040A4336215B5C1B0613431900934BBE
:109CD000A322FF2008400500985C00242040041CBB
:109CE000281C20439854080AFF2420400600981896
:109CF000447800252C40251C341C2C434470080C4F
:109D0000FF24204006009818847800252C40251C4C
:109D1000341C2C438470080E9B18DA7800210A400A
:109D2000111C021C0A43DA707A4B2F229A5C3021F4
:109D3000595C09020A433121595C09040A43322162
:109D40005B5C1B0613431900744BA722FF200840DD
:109D50000500985C00242040041C281C20439854D3
:109D6000080AFF24204006009818447800252C405B
:109D7000251C341C2C434470080CFF242040060092
:109D80009818847800252C40251C341C2C438470A2
:109D9000080E9B18DA7800210A40111C021C0A43A5
:109DA000DA705C49574B0222180000F04FFE6D4BF1
:109DB00010229446BC44634401221A706A4B10225C
:109DC0009446BC44634401221A7053E04C4B102269
:109DD0009446BC4463441B78552B4BD1484B10220E
:109DE0009446BC4463445B78312B43D1444B1022EE
:109DF000BA18D118434B0222180000F027FE424B3C
:109E00001B883B2B2FD14249424B0222180000F005
:109E10001DFE5649564B0F22180000F017FE5549FB
:109E2000554B0822180000F011FE5449544B0422EF
:109E3000180000F00BFE5349534B0122180000F0AC
:109E400005FE5249524B0222180000F0FFFD514915
:109E5000514B0222180000F0F9FD5049504B1922D5
:109E6000180000F0F3FD404B10229446BC446344BC
:109E700001221A704B4B10229446BC4463441B8849
:109E8000002B13D0484B1B68484A102179188C18B6
:109E90002C22102179188918424A10208446BC448B
:109EA000624412881000984703002370164B00226A
:109EB0001A803E4B10229446BC4463441B78002B0E
:109EC0000AD13B4A962359003A4B009313001F22B4
:109ED000042001F09FFC7BE0344B10229446BC44EC
:109EE00063441B78FF2B69D1314A96235900324BCA
:109EF000009313001F22042001F08CFC68E0C04690
:109F00001404000007070020340C0020CC040000DB
:109F10000C0700201C0B00206B0B00205C060020AF
:109F2000890B00207A0600209D0B00208E06002061
:109F3000B10B0020A2060020670B0020C006002005
:109F4000B8050020530B0020CC060020E70B0020B2
:109F5000E00600202F0B0020EB0600203E0B002027
:109F6000FA060020ED040000EC0400000E070020BB
:109F7000200B00201D070020430B00202507002098
:109F8000CF0B002029070020010C00202A07002009
:109F9000020C00202C070020040C00202E070020BB
:109FA0001A0C0020DE040000E0050020EE04000092
:109FB00030840000F0C2000014C30000244A96233D
:109FC0005900244B009313001F22042001F022FCAF
:109FD000214B10229446BC4463441B78012B1ED1B4
:109FE0001E4B1B683F2098471D4B1C681D491E4B8C
:109FF00010229446BC4463441A880B0000213F2081
:10A00000A047154B10229446BC44634400221A70AA
:10A01000164B10229446BC44634401221A70134B21
:10A0200010229446BC4463441B78012B01D100F0FC
:10A030009DFB9C23DB0010229446BC4463441868BB
:10A0400059680B4A0023FCF7DFFFFFF752F9C046BF
:10A0500030840000A4C20000ED0400008C05002044
:10A06000440500205C060020CA040000EC04000047
:10A0700080BB000090B583B000AF7860054B1C68D2
:10A080007868AD2300223F21A047C046BD4603B0FB
:10A0900090BDC046E8050020B0B582B000AF786042
:10A0A0007B68A6490222180000F0D0FC7968A44B16
:10A0B0000222180000F0CAFC7B689A7800210A404E
:10A0C0009A70DA7800210A40DA707B6813339D4970
:10A0D0000F22180000F0BAFC7B6822339A4905224F
:10A0E000180000F0B3FC994B6820185C69241C5DD3
:10A0F000240220436A241C5D240420436B241C5D3D
:10A100002406204301006C20185C6D241C5D240291
:10A1100020436E241C5D240420436F241B5D1B061A
:10A1200003431A007B682733FF2008400500187896
:10A1300000242040041C281C20431870080AFF2417
:10A1400020400500587800242040041C281C20438F
:10A150005870080CFF242040050098780024204007
:10A16000041C281C204398700D0ED8780024204031
:10A17000041C281C2043D870FF20104005001879CB
:10A1800000242040041C281C20431871100AFF24BE
:10A1900020400500587900242040041C281C20433E
:10A1A0005871100CFF2420400500987900242040AD
:10A1B000041C281C20439871100EDA7900210A40F3
:10A1C000111C021C0A43DA71604BA7229A5CA82179
:10A1D000595C09020A43A921595C09040A43AA21CE
:10A1E0005B5C1B0613431A007B682F33FF21114071
:10A1F0000C00197800200140081C211C0143197033
:10A20000110AFF2001400C00597800200140081C71
:10A21000211C01435970110CFF2001400C0099785A
:10A2200000200140081C211C01439970100EDA78AF
:10A2300000210A40111C021C0A43DA70434BA3227E
:10A240009A5CA421595C09020A43A521595C0904BE
:10A250000A43A6215B5C1B0613431A007B68333359
:10A26000FF2111400C00197800200140081C211C1E
:10A2700001431970110AFF2001400C005978002099
:10A280000140081C211C01435970110CFF200140A2
:10A290000C00997800200140081C211C0143997092
:10A2A000100EDA7800210A40111C021C0A43DA70F1
:10A2B0007B68373326491422180000F0C7FB7B68FF
:10A2C0004B3324490422180000F0C0FB7B684F3355
:10A2D0001E491E22180000F0B9FB7B686D331E4931
:10A2E0001422180000F0B2FB7B6881331B49142252
:10A2F000180000F0ABFB7B68953319491E2218004B
:10A3000000F0A4FB7B68CB3316490B22180000F049
:10A310009DFB7B68E822995C0020014099549B18C2
:10A320005A7800210A405A707B68054902221800B9
:10A3300000F08CFBC046BD4602B0B0BD34C3000087
:10A3400007070020EB060020FA0600205C0600202C
:10A35000CC060020C00600207A0600208E060020D1
:10A36000A2060020E0060020F0B593B002AF7860AE
:10A37000824B1A68511C814B196092B27B68FF2195
:10A3800011400C00997800200140081C211C014359
:10A390009970120A90B2DA7800210A40111C021C4E
:10A3A0000A43DA70764B1C68032310220021002038
:10A3B000A047744B1B683E257C191A209847030060
:10A3C00023807B191B881800FDF7F2FF6E4A6F4B44
:10A3D000FDF7FEF903000C001800210000226C4B71
:10A3E000FDF7F6F903000C00180021000022694B6C
:10A3F000FCF7ECFE03000C00180021000022664B65
:10A40000FDF758FC03000C0018002100634A644B60
:10A41000FCF7DCFE03000C001A0023000020614959
:10A42000FDF748FC03000C001800210000225E4BE1
:10A43000FDF7CEF903000C0018002100FDF782FFA4
:10A4400001007B68B322FF2008400500985C0024CF
:10A450002040041C281C20439854080AFF24204054
:10A4600006009818447800252C40251C341C2C43E9
:10A470004470080CFF2420400600981884780025BA
:10A480002C40251C341C2C438470080E9B18DA7851
:10A4900000210A40111C021C0A43DA707B68B322B7
:10A4A0009A5CB421595C09020A43B521595C09043C
:10A4B0000A43B6215B5C1B0613431800FDF778FFC7
:10A4C0000022394BFCF782FE03000C00180021002B
:10A4D0003423FB18012200F044FA0300334A0093AE
:10A4E00013001F226921692001F094F9254B1B6894
:10A4F0003C257C1907209847030023807B68791945
:10A50000E6220D78985C00242040041C281C20437F
:10A51000985448789B185A7800210A40111C021C54
:10A520000A435A70224B1B680C243A1910009847B2
:10A530007B68D63339190F22180000F087FA7B6840
:10A54000181D3B1914330F22190000F07FFA194B24
:10A550001B683A19100098473B1919787B68E52267
:10A5600099547B68FE3318003B19013313221900FC
:10A5700000F06CFAC046BD4611B0F0BDC00400202A
:10A5800010060020A80500206666666666660A401A
:10A5900000408F40E0FFEF4000788640713D0AD7D1
:10A5A000A370FB3F000039400000244030840000CD
:10A5B000080600200C06002080B58AB002AF3B00E0
:10A5C00018001E231A00002101F008FDA0235A00E4
:10A5D000574B00931300F0220021002001F06BF88C
:10A5E000012300932623EE220221022001F018FA13
:10A5F0004F49F8231A024F4B00930B000F214220C2
:10A6000001F008F9002300937B23EE222B21022086
:10A6100001F006FA464A484B0093130000222D2110
:10A62000042001F0F7F8424A444B00931300002243
:10A630004121042001F0EEF83D4A414B0093130004
:10A6400000225521042001F0E5F8394A3D4B0093E2
:10A65000130000226921042001F0DCF8002300939C
:10A66000F723EE227F21022001F0DAF9304A364B3F
:10A670000093130000228121042001F0CBF82C4A22
:10A68000324B0093130000229521042001F0C2F800
:10A69000274A2F4B009313000022A921042001F028
:10A6A000B9F8234A2B4B009313000022BD2104204C
:10A6B00001F0B0F81E4A284B009313000022D1216C
:10A6C000042001F0A7F81A4A244B0093130000223B
:10A6D000E521042001F09EF8154A214B0093130058
:10A6E0001F22E621312001F095F8114A1D4B0093FD
:10A6F00013000022F921042001F08CF89F235A0056
:10A7000089235900012300931300EE22022001F057
:10A7100087F9074A8A235900134B0093130000223C
:10A72000042001F077F8C046BD4608B080BDC046A1
:10A730003084000038C3000048C3000054C3000048
:10A7400060C300006CC300007CC3000088C300002D
:10A7500094C30000A0C30000ACC30000C4C3000049
:10A76000CCC30000E0C30000ECC3000080B58AB099
:10A7700002AF3B0018001E231A00002101F02EFC3E
:10A7800039493B001422180000F060F93B00002218
:10A790001A75364A3B00009313001F222D214620D4
:10A7A00001F038F832493B000422180000F04EF95D
:10A7B0003B0000221A712D4A3B00009313001F2218
:10A7C0004121462001F026F8284A2A4B0093130025
:10A7D0001F22D221B42001F01DF8274BA3229A5C3E
:10A7E000A421595C09020A43A521595C09040A43C2
:10A7F000A6215B5C1B0613431A003B0019001000E6
:10A8000000F040F80300194A009313001F22D221E0
:10A81000B42000F0FFFF19493B000F22180000F0A0
:10A8200015F93B000022DA73104A3B000093130035
:10A830001F22A921412000F0EDFF11493B00052214
:10A84000180000F003F93B0000225A71074A3B0050
:10A85000009313001F22BD21412000F0DBFFC04602
:10A86000BD4608B080BDC0468E0600203084000082
:10A87000C006002010C200005C060020EB0600208D
:10A88000FA06002090B589B000AF786039601F23C8
:10A89000FB1800221A707B68002B0ADA1F22BB18F3
:10A8A0001B78BA18591C11701A003B689B182D228E
:10A8B0001A707B68BB611E23FB1800221A701AE015
:10A8C000BB690A211800FCF799FB0B00DAB21E21C4
:10A8D0007B181B787918581C087019001300303346
:10A8E000DAB20C23FB185A54BB690A211800FCF792
:10A8F0009FFA0300BB61BB69002BE1D11D23FB184C
:10A9000000221A7019E01E23FB181A781D243B1927
:10A910001B78D31A5A1E1F217B181B787918581CD4
:10A92000087019003B685B180C2179188A5C1A7052
:10A930003B191A783B1901321A701D23FA181E238D
:10A94000FB1812781B789A42DDD31F23FB181B7863
:10A950003A68D31800221A703B681800BD4609B047
:10A9600090BDB0B588B000AFB860F9607A603B6068
:10A970001E23FB1801221A807B68BB6108E01E239E
:10A98000FA18FB181B88191C8900CB18DB181380D8
:10A99000BB695A1EBA61002BF1D11E257B191B8899
:10A9A0001800FDF705FDBA68FB68FCF711FF03000E
:10A9B0000C0018002100FDF7C5FC03007B613A681C
:10A9C0007B6911001800FFF75DFF7B68BB617B1995
:10A9D00000221A8005E01E217B181A887B1801329C
:10A9E0001A801E23FB181B883A68D3181B78002B8B
:10A9F000F1D11E23FB181A887B68D3181A003B6814
:10AA00009B1800221A7010E01E203B181B88013B87
:10AA10003A68D2183B181B883968CB1812781A701C
:10AA20003B183A181288013A1A80BB695A1EBA615B
:10AA3000002BE9D11E23FB181B883A68D3182E225D
:10AA40001A703B681800BD4608B0B0BD80B586B02E
:10AA500000AFF860B960BB1D1A8016217B18002278
:10AA60001A807B1800221A800FE016203B181B88E2
:10AA7000BA68D2183B181B88F968CB1812781A707C
:10AA80003B181A883B1801321A801623FA18BB1D8E
:10AA900012881B889A42E8D3C046BD4606B080BDE6
:10AAA00080B584B000AF0200BB1D1A800E23FB18D6
:10AAB00000221A8012E00023BB6003E0C046BB689E
:10AAC0000133BB60BB680B4A9342F7D90E217B1858
:10AAD0001B889BB201339AB27B181A800E23FB1895
:10AAE0001B889BB2BA1D12889A42E4D8C046BD4664
:10AAF00004B080BD6710000080B5C8B000AFFE4B49
:10AB00008E2149007A1813608E235A007B18196829
:10AB10003B001800FFF79AFFF84B90225200944632
:10AB2000BC4463441B681A00F54B1A60F34B902237
:10AB300052009446BC4463445B681A00F14B1A60AF
:10AB4000EE4B902252009446BC4463449B681A002A
:10AB5000ED4B1A60E94B902252009446BC4463448A
:10AB6000DB681A00E94B1A60E44B902252009446CD
:10AB7000BC4463441B691A00E54B1A60DF4B90220A
:10AB800052009446BC4463445B691A00E14B1A606E
:10AB9000DA4B902252009446BC4463449B691A00ED
:10ABA000DD4B1A60D54B902252009446BC4463445E
:10ABB000DB691A00D94B1A60D04B902252009446A0
:10ABC000BC4463441B6A1A00D54B1A60CB4B9022DD
:10ABD00052009446BC4463445B6A1A00D14B1A602D
:10ABE000C64B902252009446BC4463449B6A1A00B0
:10ABF000CD4B1A60C14B902252009446BC44634432
:10AC0000DB6A1A00C94B1A60BC4B90225200944672
:10AC1000BC4463441B6B1A00C54B1A60B74B9022AF
:10AC200052009446BC4463445B6B1A00C14B1A60EB
:10AC3000B24B902252009446BC4463449B6B1A0072
:10AC4000BD4B1A60AD4B902252009446BC44634405
:10AC5000DB6B1A00B94B1A60A84B90225200944645
:10AC6000BC4463441B6C1A00B54B1A60A34B902282
:10AC700052009446BC4463445B6C1A00B14B1A60AA
:10AC80009E4B902252009446BC4463449B6C1A0035
:10AC9000AD4B1A60994B902252009446BC446344D9
:10ACA000DB6C1A00A94B1A60944B90225200944618
:10ACB000BC4463441B6D1A00A54B1A608F4B902255
:10ACC00052009446BC4463449B691A00A14B1A602D
:10ACD0008A4B902252009446BC4463449B6D1A00F8
:10ACE0009D4B1A60854B902252009446BC446344AD
:10ACF000DB6D1A00994B1A60804B902252009446EB
:10AD0000BC4463441B6E1A00954B1A607B4B902227
:10AD100052009446BC4463445B6E1A00914B1A6027
:10AD2000764B902252009446BC446344DB6E1A007A
:10AD30008D4B1A60714B902252009446BC44634480
:10AD40001B6F1A00894B1A606C4B9022520094467C
:10AD5000BC4463445B6F1A00854B1A60674B9022BA
:10AD600052009446BC4463449B6F1A00814B1A60A6
:10AD7000624B902252009446BC446344DB6F1A003D
:10AD80007D4B1A605D4B902252009446BC44634454
:10AD900080229B581A00794B1A60584B902252001F
:10ADA0009446BC44634484229B581A00744B1A6036
:10ADB000524B902252009446BC44634488229B58D4
:10ADC0001A00704B1A604D4B902252009446BC44BE
:10ADD00063448C229B581A006B4B1A60474B90229D
:10ADE00052009446BC44634490229B581A00674B1F
:10ADF0001A60424B902252009446BC446344942211
:10AE00009B581A00624B1A603C4B902252009446A9
:10AE1000BC44634498229B581A005E4B1A60374B1F
:10AE2000902252009446BC4463449C229B581A00D2
:10AE3000594B1A60314B902252009446BC446344F3
:10AE4000A0229B581A00554B1A602C4B902252009E
:10AE50009446BC446344A4229B581A00504B1A6089
:10AE6000264B902252009446BC446344A8229B582F
:10AE70001A004C4B1A60214B902252009446BC445D
:10AE80006344AC229B581A00474B1A601B4B90221C
:10AE900052009446BC446344B0229B581A00434B72
:10AEA0001A60164B902252009446BC446344B4226C
:10AEB0009B581A003E4B1A60104B90225200944649
:10AEC000BC446344B8229B581A003A4B1A600B4B9F
:10AED000902252009446BC446344BC229B581A0002
:10AEE000354B1A60054B902252009446BC44634493
:10AEF000C0229B581A0061E018640000E0FEFFFFCA
:10AF000044060020B805002070050020100600202F
:10AF1000A8050020980500208C050020440500208D
:10AF2000E80500204C050020780500201C060020C4
:10AF30005406002048060020C40500204C060020CE
:10AF40002806002020060020E405002048050020F7
:10AF5000F40500207C050020500500202406002078
:10AF6000000600206805002088050020CC05002090
:10AF700084050020380600203C060020D80500206B
:10AF8000FC0500209C050020600500202C06002008
:10AF9000EC05002054050020C8050020DC05002039
:10AFA00058060020A405002018060020C005002037
:10AFB00080050020F8050020D4050020754B1A609C
:10AFC000754B902252009446BC446344C4229B5863
:10AFD0001A00724B1A60704B902252009446BC4487
:10AFE0006344C8229B581A006D4B1A606A4B90222A
:10AFF00052009446BC446344CC229B581A00694BCF
:10B000001A60654B902252009446BC446344D0229F
:10B010009B581A00644B1A605F4B90225200944672
:10B02000BC446344D4229B581A00604B1A605A4BAC
:10B03000902252009446BC446344D8229B581A0084
:10B040005B4B1A60544B902252009446BC446344BC
:10B05000DC229B581A00574B1A604F4B902252002B
:10B060009446BC446344E0229B581A00524B1A6039
:10B07000494B902252009446BC446344E4229B58BE
:10B080001A004E4B1A60444B902252009446BC4426
:10B090006344E8229B581A00494B1A603E4B9022A9
:10B0A00052009446BC446344EC229B581A00454B22
:10B0B0001A60394B902252009446BC446344F022FB
:10B0C0009B581A00404B1A60334B90225200944612
:10B0D000BC446344F4229B581A003C4B1A602E4B2C
:10B0E000902252009446BC446344F8229B581A00B4
:10B0F000374B1A60284B902252009446BC4463445C
:10B10000FC229B581A00334B1A60234B90214900B4
:10B110007A18D21880235B00D3581A002E4B1A607D
:10B120001D4B7A18D21882235B00D3581A002B4B80
:10B130001A60194B7A18D21884235B00D3581A006E
:10B14000274B1A60144B7A18D21886235B00D35809
:10B150001A00244B1A60104B7A18D21888235B000F
:10B16000D3581A00204B1A600B4B7A18D2188A2336
:10B170005B00D3581A001D4B1A60074B7A18D2187F
:10B180008C235B00D3581A00194B1A60C046BD4689
:10B1900048B080BDA0050020E0FEFFFFBC050020F8
:10B1A000400600205C050020B4050020F0050020CA
:10B1B000B00500206C05002090050020AC050020A3
:10B1C000D005002004060020500600206405002061
:10B1D00094050020E0050020140600200C06002045
:10B1E00008060020300600205805002074050020C5
:10B1F0003406002080B584B000AF0F4B9B68BB6065
:10B200000E4B7B600023FB600CE0FB689B00BA6880
:10B21000D218FB689B007968CB1812681A60FB682B
:10B220000133FB60FB682F2BEFDD034B034A9A6071
:10B23000C046BD4604B080BD00ED00E00004002023
:10B2400080B584B000AF02003960FB1D1A70FB1D91
:10B250001B785BB2013311D0FB1D1B785BB20E2B48
:10B260000CD0084B9B68FB60FB1D1B785BB2103356
:10B270009B00FA68D3183A681A6000E0C046BD46E1
:10B2800004B080BD00ED00E080B582B000AF0200E8
:10B29000BB1D1A807B1D0A1C1A70064B1B687A1D89
:10B2A0001178BA1D10880A0001219847C046BD4692
:10B2B00002B080BD5406002080B582B000AF02000D
:10B2C000BB1D1A80044B1B68BA1D128810009847DA
:10B2D000C046BD4602B080BD4C06002090B583B08C
:10B2E00002AF924B1C68924A002300930023012175
:10B2F0000020A0478F4B1B688F48002201219847F0
:10B300008C4B1B688D4800220121984700210020AA
:10B3100000F016FD8A4B1B68874A002110009847F1
:10B320001420FFF7BDFB864B1B68834A01211000E8
:10B3300098471420FFF7B4FBCF2000F0E3FC002077
:10B3400000F09AFCD92000F097FC302000F094FC2B
:10B35000ED2000F0D7FC642000F08EFC032000F00C
:10B360008BFC122000F088FC812000F085FCE82096
:10B3700000F0C8FC852000F07FFC102000F07CFC71
:10B38000782000F079FCCB2000F0BCFC392000F0E4
:10B3900073FC2C2000F070FC002000F06DFC3420C9
:10B3A00000F06AFC022000F067FCF72000F0AAFC25
:10B3B000202000F061FCEA2000F0A4FC002000F056
:10B3C0005BFC002000F058FCC02000F09BFC21201A
:10B3D00000F052FCC12000F095FC122000F04CFC63
:10B3E000C52000F08FFC322000F046FC3C2000F02D
:10B3F00043FCC72000F086FCC12000F03DFC362055
:10B4000000F080FC082000F037FC3A2000F07AFCC5
:10B41000552000F031FCB12000F074FC002000F059
:10B420002BFC182000F028FCB62000F06BFC0A2052
:10B4300000F022FCA22000F01FFCF22000F062FCD1
:10B44000002000F019FC262000F05CFC012000F038
:10B4500013FCE02000F056FC0F2000F00DFC202033
:10B4600000F00AFC1E2000F007FC092000F004FC9C
:10B47000122000F001FC0B2000F0FEFB502000F039
:10B48000FBFBBA2000F0F8FB442000F0F5FB09209C
:10B4900000F0F2FB142000F0EFFB052000F0ECFBC5
:10B4A000232000F0E9FB212000F0E6FB002000F063
:10B4B000E3FBE12000F026FC002000F0DDFB19207A
:10B4C00000F0DAFB192000F0D7FB002000F0D4FBDD
:10B4D000122000F0D1FB072000F0CEFB2D2000F061
:10B4E000CBFB282000F0C8FB3F2000F0C5FB02206A
:10B4F00000F0C2FB0A2000F0BFFB082000F0BCFBFC
:10B50000252000F0B9FB2D2000F0B6FB0F2000F045
:10B51000B3FB112000F0F6FB7820FFF7C1FA2920D9
:10B5200000F0F0FBC046BD4601B090BD2C060020E7
:10B530007017000054060020020300000103000001
:10B540004806002090B583B000AF04000800110049
:10B55000BB1D221C1A803B1D021C1A80BB1C0A1C2E
:10B560001A803B1D1C88BB1D1A883B1D1988BB1DFA
:10B570001888230000F0FBFBBB1C1B88180000F0A0
:10B5800099FBC046BD4603B090BDB0B58CB000AFCE
:10B5900005000C0010001900BB1D2A1C1A803B1D61
:10B5A000221C1A80BB1C021C1A803B000A1C1A8039
:10B5B0000023BB6200237B62BB1C1A88BB1D1B8857
:10B5C000D31A3B623B001A883B1D1B88D31AFB61D0
:10B5D000BB1D1B88FB603B1D1B88BB603B6A002BAF
:10B5E00002DD01237B610BE03B6A002B02D10023CB
:10B5F0007B6105E001235B427B613B6A5B423B620E
:10B60000FB69002B02DD01233B610BE0FB69002B92
:10B6100002D100233B6105E001235B423B61FB69F2
:10B620005B42FB613A6AFB699A4202DD3B6ABB619D
:10B6300001E0FB69BB612E23FB1800221A802FE07A
:10B64000FB689BB2BA6891B24022BA1812881800FF
:10B65000FFF778FFBA6A3B6AD318BB627A6AFB6964
:10B66000D3187B62BA6ABB699A4207DDBA6ABB69C2
:10B67000D31ABB62FA687B69D318FB607A6ABB692C
:10B680009A4207DD7A6ABB69D31A7B62BA683B6962
:10B69000D318BB602E217B181A887B1801321A80C0
:10B6A0002E23FB181A88BB6901339A42C8DDC046B5
:10B6B000BD460CB0B0BDB0B584B000AF05000C0005
:10B6C00010001900BB1D2A1C1A803B1D221C1A8069
:10B6D000BB1C021C1A803B000A1C1A803B001C8801
:10B6E000BB1C1A883B1D1988BB1D1888230000F05D
:10B6F0003EFB0E23FB183A1D12881A801EE00C2315
:10B70000FB18BA1D12881A800BE02023FB181B8837
:10B71000180000F0CFFA0C217B181A887B18013230
:10B720001A800C23FA18BB1C12881B889A42ECD989
:10B730000E217B181A887B1801321A800E23FA1802
:10B740003B0012881B889A42D9D9C046BD4604B036
:10B75000B0BDB0B584B000AF05000C0010001900FA
:10B76000BB1D2A1C1A803B1D221C1A80BB1C021CFC
:10B770001A803B000A1C1A803B6ABB60BB1D1B88F9
:10B780000F339AB23B1D1B880F339CB23B1D1988A7
:10B79000BB1D1888230000F0EAFA0E23FB180022D4
:10B7A0001A702EE00F23FB1800221A701BE0BB68F2
:10B7B0001B781A000F23FB181B781A411300012273
:10B7C000134005D0BB1C1B88180000F073FA04E07E
:10B7D0003B001B88180000F06DFA0F217B181A78C7
:10B7E0007B1801321A700F23FB181B78072BDED948
:10B7F000BB680133BB600E217B181A787B180132BD
:10B800001A700E23FB181B781F2BCBD9C046BD46E0
:10B8100004B0B0BDB0B588B002AF05000C00100098
:10B820001900BB1D2A1C1A803B1D221C1A80BB1C40
:10B83000021C1A803B000A1C1A801523FB180022E8
:10B840001A70E0E072B6BB6A1B781F2B6BD9BB6A1B
:10B850001B787E2B67D8704B3B6115217B181B78BA
:10B860009BB2DB009AB2BB1D1B88D31898B27B1821
:10B870001B789BB2DB009AB2BB1D1B88D3189BB20E
:10B8800007339AB23B1D1B880F339CB23B1D1988AE
:10B89000230000F06CFABB6A1B78203B1B011A00E6
:10B8A0003B699B183B611623FB1800221A702EE09F
:10B8B0001723FB1800221A701BE03B691B781A0043
:10B8C0001723FB181B781A4113000122134005D0DF
:10B8D000BB1C1B88180000F0EDF904E03B001B883E
:10B8E000180000F0E7F917217B181A787B1801324D
:10B8F0001A701723FB181B78072BDED93B6901331D
:10B900003B6116217B181A787B1801321A701623B6
:10B91000FB181B780F2BCBD915217B181A787B18B5
:10B9200001321A706BE0BB6A1B787E2B67D9172334
:10B93000FB1800221A7057E00F203B18BA6A1278E1
:10B940001A700E23FB18BA6A52781A7017243B1922
:10B950001A78324913001B019B185B005A560D25BB
:10B960007B191A703B191A782C4913001B019B187C
:10B970005B00CB18013300229A560C23FB181A7077
:10B980003A187B1912781B789A4227D10E23FA189D
:10B990000C23FB1812781B789A421FD11523FB1831
:10B9A0001B789BB2DB009AB2BB1D1B88D31898B2E0
:10B9B0001723FB181A7813001B019B185B00174A0A
:10B9C0009B1802333A001588BA1C14883A1D118856
:10B9D00000932B002200FFF7BCFE0AE017217B1822
:10B9E0001A787B1801321A701723FB181B78052B65
:10B9F000A2D91522BB18BA18127801321A70BB6A84
:10BA00000133BB6262B6BB6A1B78002B00D019E71A
:10BA1000C046BD4606B0B0BDA4C40000A4CA000024
:10BA2000F0B587B002AF05000C0010001900BB1D77
:10BA30002A1C1A803B1D221C1A80BB1C021C1A8067
:10BA40003B000A1C1A800C257B19894A1A803B008E
:10BA50001C88BB1C1A883B1D1988BB1D18887B19C4
:10BA60001B8800932300FFF726FE0B23FB180222FE
:10BA70001A707B1900221A803B1D1C88BB1C1A8877
:10BA80003B1D1988BB1D18887B191B880093230058
:10BA9000FFF77BFD3B001C88BB1D1A883B1D1988E6
:10BAA000BB1D18887B191B8800932300FFF76DFDD1
:10BAB0007B1900221A803B001C88BB1C1A883B1D86
:10BAC0001988BB1C18887B191B8800932300FFF77B
:10BAD0005CFD3B001C88BB1C1A883B001988BB1D01
:10BAE00018887B191B8800932300FFF74EFD0F2356
:10BAF000FB1801221A70AEE0202308229446BC44B1
:10BB000063441B78002B01D1002200E0594A0C2627
:10BB1000BB191A800F257B191B789AB2BB1D1B8895
:10BB2000D31898B27B191B789AB23B1D1B88D31887
:10BB300099B27B191B789BB2BA1C1288D31A9CB29B
:10BB40007B191B789AB23B1D1B88D3189AB2BB197C
:10BB50001B88009313002200FFF717FD7B191B7849
:10BB60009AB2BB1D1B88D31898B27B191B789AB266
:10BB70003B1D1B88D31899B27B191B789AB2BB1D49
:10BB80001B88D3189CB27B191B789BB23A00128891
:10BB9000D31A9AB2BB191B88009313002200FFF737
:10BBA000F4FC202308229446BC4463441B78002BF9
:10BBB00001D1304A00E000220C26BB191A800F2563
:10BBC0007B191B789BB2BA1C1288D31A98B27B19C6
:10BBD0001B789AB23B1D1B88D31899B27B191B782E
:10BBE0009BB2BA1C1288D31A9CB27B191B789BB2E9
:10BBF0003A001288D31A9AB2BB191B88009313001B
:10BC00002200FFF7C2FC7B191B789AB2BB1D1B8870
:10BC1000D31898B27B191B789BB23A001288D31ABA
:10BC200099B27B191B789BB2BA1C1288D31A9CB2AA
:10BC30007B191B789BB23A001288D31A9AB2BB19AF
:10BC40001B88009313002200FFF79FFC7B191A78D2
:10BC50007B1901321A700F23FA180B23FB18127884
:10BC60001B789A4200D247E7C046BD4605B0F0BDFA
:10BC70003084FFFFFFFF000080B582B000AF0200FC
:10BC8000FB1D1A70084B1B68084A012110009847D9
:10BC9000074B1B68FA1D1278110000209847C04618
:10BCA000BD4602B080BDC04648060020010300002A
:10BCB000EC05002080B582B000AF0200BB1D1A80E9
:10BCC0000D4B1B680D4A0121100098470C4B1B6857
:10BCD000BA1D1288120A92B2D2B2110000209847FF
:10BCE000074B1B68BA1D1288D2B21100002098477A
:10BCF000C046BD4602B080BD4806002001030000DA
:10BD0000EC05002080B582B000AF0200FB1D1A7068
:10BD1000084B1B68084A002110009847074B1B6816
:10BD2000FA1D1278110000209847C046BD4602B0A7
:10BD300080BDC0464806002001030000EC0500203D
:10BD400080B582B000AF0200FB1D1A703B1D0A1CBB
:10BD50001A80FB1D1B781800FFF7D4FF3B1D1B88C2
:10BD60001800FFF7A7FFC046BD4602B080BDB0B5C2
:10BD700082B000AF05000C0010001900BB1D2A1C8A
:10BD80001A803B1D221C1A80BB1C021C1A803B001F
:10BD90000A1C1A802A20FFF7B5FFBB1D1B881B0A4F
:10BDA0009BB2DBB21800FFF767FFBB1D1B88DBB23D
:10BDB0001800FFF761FFBB1C1B881B0A9BB2DBB29C
:10BDC0001800FFF759FFBB1C1B88DBB21800FFF7F8
:10BDD00053FF2B20FFF796FF3B1D1B881B0A9BB2CE
:10BDE000DBB21800FFF748FF3B1D1B88DBB21800D1
:10BDF000FFF742FF3B001B881B0A9BB2DBB2180017
:10BE0000FFF73AFF3B001B88DBB21800FFF734FF57
:10BE10002C20FFF777FFC046BD4602B0B0BD000042
:10BE200080B500AF00F08EF83C493D4AC0239B022C
:10BE30008B503A4A3B4BD3583849802292001343E7
:10BE4000384A8B50384B9B78DBB21A0008231340DA
:10BE500007D0354B9B78DBB2334A08210B43DBB26A
:10BE600093702E492E4A80235B028B502B4A2F4B16
:10BE7000D3582A492E4A13402C4A8B50274B1A6814
:10BE8000264B2C490A401A60244A284BD3582A4A88
:10BE900013402249802252041343244A8B50274BDB
:10BEA00006221A70254B5B78DBB2244A40210B40F6
:10BEB000DBB25370214BDB78DBB25BB21F22134045
:10BEC0005BB26022524213435AB21C4BD2B2DA70B8
:10BED0001B4B00221A70194B00221A71174B0022BB
:10BEE0005A71C046154B9B79DBB21A0010231340E0
:10BEF000F8D0C046114B9B79DBB21A000C231340DB
:10BF0000F8D1064A074BD3580449F822920113434B
:10BF1000044A8B50C046BD4680BDC04600700440F8
:10BF2000441000003810000000D00740041000004A
:10BF3000FFFFFCFFFFFFF3FFFFFFFFFC0040064099
:10BF40000050064080B500AF064A88235B01D358F5
:10BF500004490C2293431A0088235B01CA50C0464F
:10BF6000BD4680BD00700440084B10B50400002B96
:10BF700002D0002100E000BF054B1868836A002B47
:10BF800000D09847200000F031F8C04600000000C3
:10BF900070CB000070B500260C4D0D4C641BA41036
:10BFA000A64209D1002600F0E5FD0A4D0A4C641BAB
:10BFB000A410A64205D170BDB300EB5898470136D6
:10BFC000EEE7B300EB5898470136F2E794CB000058
:10BFD00094CB000094CB000098CB00000300121813
:10BFE000934200D1704719700133F9E7FEE7C0466C
:10BFF00041484C2052756E202E20202020202020E9
:10C0000020202020202020202020202000000000B0
:10C0100041484C2052756E202E2E202020202020BA
:10C020002020202020202020202020200000000090
:10C0300041484C20496E697469616C697A65202EAB
:10C040002020202020202020202020200000000070
:10C0500041484C20496E697469616C697A65202E8B
:10C060002E20202020202020202020200000000042
:10C0700041484C20496E697469616C697A65202E6B
:10C080002E2E2020202020202020202020000000F4
:10C0900041484C20496E697469616C697A65202E4B
:10C0A0002E2E2E20202020202020202020200000A6
:10C0B000496E6974616C204572726F723A41542006
:10C0C0004572726F72202020202020200000000086
:10C0D000496E6974616C204572726F723A415445C1
:10C0E00030204572726F7220202020200000000056
:10C0F000496E6974616C204572726F723A494D45A0
:10C1000049204572726F722020202020000000001C
:10C11000496E6974616C204572726F723A494D5371
:10C1200049204572726F72202020202000000000FC
:10C13000496E6974616C204572726F723A42205484
:10C14000797065204572726F722020200000000017
:10C15000496E6974616C204572726F723A4E6574F3
:10C16000204572726F7220202020202000000000E5
:10C17000496E6974616C204572726F723A50445016
:10C18000204572726F7220202020202000000000C5
:10C19000496E6974616C204572726F723A476574BA
:10C1A000204950204572726F72202020000000004C
:10C1B000496E6974616C204572726F723A41542005
:10C1C0004F4B2C4950204572726F722000000000C6
:10C1D000496E6974616C204572726F723A544350B3
:10C1E000204572726F7220202020200041484C2090
:10C1F000496E697469616C697A652053756363651A
:10C20000737366756C6C79200000000030000000CC
:10C21000202020202020202020200000202020205E
:10C220002000000041484C2053656E64202E2020E1
:10C2300020202020202020202020202020202020FE
:10C240000000000041484C2053656E64202E2E20D3
:10C2500020202020202020202020202020202020DE
:10C260000000000041484C2053656E642053756304
:10C270006365737366756C6C792020202020202004
:10C280000000000053656E64204572726F723A536D
:10C29000656E64204E6F7420537461727420202088
:10C2A0000000000053656E64204572726F723A534D
:10C2B000656E642044617461204E6F74204F4B2082
:10C2C0000000000041484C2052656376206F6E6587
:10C2D000206672616D6520202020202020202020F3
:10C2E0002020202020202000737563636573730075
:10C2F00041484C2053656E642053756363657373C6
:10C3000066756C6C792020202020202020202020A1
:10C310002020200041484C2052656376204E6F203B
:10C32000436F6D6D616E642020202020202020202E
:10C330000000000055300000BDF0BAF9C2AB496FF3
:10C34000542D474543000000A1BE54797065A1BF3C
:10C3500020000000A1BE536F6674A1BF2000000042
:10C36000A1BE6553494DA1BF20000000A1BE546588
:10C370006D7028B6C829A1BF20200000A1BE42537D
:10C380004E756DA1BF000000A1BE5369676E616C60
:10C39000A1BF2000A1BE49202050A1BF0000000085
:10C3A000A1BE504F5254A1BF000000005453493A5F
:10C3B00020202020202020467265712873293A20F1
:10C3C0002020000054696D653A0000003230313899
:10C3D0002D30372D30312032313A35353A3030007A
:10C3E00052656376436F756E743A000052756E2025
:10C3F00053746174653A000070740000E2720000CA
:10C40000267300008A720000267300001674000074
:10C41000267300008A720000E2720000E2720000DF
:10C42000167400008A72000082720000827200009E
:10C430008272000024740000887900008A7800006D
:10C440008A780000A87B00008478000084780000CF
:10C45000907B0000A87B000084780000907B0000A7
:10C4600084780000A87B00009E7B00009E7B00007B
:10C470009E7B0000AC7B0000228F0000468E0000F7
:10C480005C8E0000728E0000888E00009E8E000080
:10C49000B48E0000CA8E0000E08E0000F68E000010
:10C4A0000C8F0000000000000000000000000000F1
:10C4B000000000000000183C3C3C18181800181838
:10C4C0000000000000666666240000000000000016
:10C4D0000000000000000036367F3636367F3636E4
:10C4E0000000000018183E6343033E6061633E187D
:10C4F0001800000000000000436330180C06636160
:10C500000000000000001C36361C6E3B3333336ED7
:10C5100000000000000C0C0C0600000000000000F1
:10C5200000000000000030180C0C0C0C0C0C183033
:10C530000000000000000C18303030303030180C93
:10C54000000000000000000000663CFF3C660000A8
:10C5500000000000000000000018187E18180000FD
:10C560000000000000000000000000000018181883
:10C570000C000000000000000000007F0000000030
:10C58000000000000000000000000000000018187B
:10C590000000000000000000406030180C0603019D
:10C5A0000000000000003E6363736B6B6763633ED3
:10C5B000000000000000181C1E1818181818187E1B
:10C5C0000000000000003E636030180C0603637F2B
:10C5D0000000000000003E6360603C606060633EFD
:10C5E00000000000000030383C36337F30303078B7
:10C5F0000000000000007F0303033F706060633EA3
:10C600000000000000001C0603033F636363633EF9
:10C610000000000000007F63606030180C0C0C0C00
