:10B0000000180020E9B400002DB500002DB50000A7
:10B010000000000000000000000000000000000030
:10B020000000000000000000000000002DB500003E
:10B0300000000000000000002DB500002DB500004C
:10B040002DB500002DB500002DB500002DB5000078
:10B050002DB500002DB500002DB500002DB5000068
:10B060002DB500002DB500002DB500002DB5000058
:10B07000E9DB00003DDC00002DB500002DB500002F
:10B080002DB500002DB500002DB500002DB5000038
:10B090002DB500002DB500002DB500002DB5000028
:10B0A0002DB500002DB500002DB500002DB5000018
:10B0B0002DB500002DB500002DB500002DB5000008
:10B40000FFFFFFFFFFFFFFFFFFFFFFFFFEFFFFFF4D
:10B4100010B5064C2378002B07D1054B002B02D02A
:10B42000044800E000BF0123237010BD68F8FF1F2F
:10B4300000000000A8F9000008B5084B002B03D05D
:10B440000748084900E000BF07480368002B03D005
:10B45000064B002B00D0984708BDC04600000000F6
:10B46000A8F900006CF8FF1F64F8FF1F000000003F
:10B47000164B002B00D1144B9D46402292029A1A83
:10B48000924600218B460F461348144A121A04F0C4
:10B4900090F90F4B002B00D098470E4B002B00D09B
:10B4A00098470020002104000D000D48002802D01C
:10B4B0000C4800E000BF04F04DF92000290002F024
:10B4C000E3FB04F031F9C04600000800001800203A
:10B4D000000000000000000068F8FF1F74FFFF1F5D
:10B4E000000000000000000072B604F079F862B6B7
:10B4F00009490A4A0A4B9B1A03DD043BC858D0503D
:10B50000FBDC0849084A521A03DD00208850043A3F
:10B51000FCDAFFF7ADFF0000ACFC000000F8FF1FF5
:10B5200068F8FF1F68F8FF1F74FFFF1F00480047FF
:10B530002DB50000002934D00123002210B4884228
:10B540002CD301242407A14204D2814202D2090152
:10B550001B01F8E7E400A14204D2814202D2490073
:10B560005B00F8E7884201D3401A1A434C08A04216
:10B5700002D3001B5C0822438C08A04202D3001BAC
:10B580009C082243CC08A04202D3001BDC082243C3
:10B59000002803D01B0901D00909E3E7101C10BCE7
:10B5A0007047002801D00020C04307B4024802A120
:10B5B0004018029003BDC046190000000029F0D0D9
:10B5C00003B5FFF7B9FF0EBC4243891A1847C046BE
:10B5D0007047C0468446101C62468C46191C634660
:10B5E00000E0C0461FB500F0B9FF002801D40021DB
:10B5F000C8421FBD10B500F0E9FE4042013010BD49
:10B6000010B500F0ABFF002801DB002010BD0120C9
:10B6100010BDC04610B500F0A1FF002801DD0020DC
:10B6200010BD012010BDC04610B500F019FF002864
:10B6300001DC002010BD012010BDC04610B500F097
:10B640000FFF002801DA002010BD012010BDC04608
:10B65000002B11D1002A0FD1002900D1002802D0DF
:10B660000021C943081C07B4024802A140180290F7
:10B6700003BDC0465DFFFFFF03B4684601B50298F5
:10B6800000F044F8019B9E4602B00CBC7047C046D7
:10B690009C460304F0B51B0C17043F0C150C1E1C34
:10B6A000041C000C7E436B4347434543FB18300C9E
:10B6B0001818874202D980235B02ED18030CED189D
:10B6C00063465C434A433604360CA11800048019D3
:10B6D0004919F0BDF0B583B0161C1F1C00900191F4
:10B6E00001F00EFE041C0D1C221C2B1C301C391CEE
:10B6F000FFF7CEFF009A019B121A8B410899201C7C
:10B700000A604B60291C03B0F0BDC046F0B583B0A1
:10B71000141C1D1C0090019101F0CEFF221C2B1C5B
:10B72000061C0F1CFFF7B4FF009A019B121A8B41F5
:10B730000899301C0A604B60391C03B0F0BDC0464C
:10B74000F8B55F46564644464D46F0B40C034D00EE
:10B75000CE0F610A440F2143C400180380465800ED
:10B76000400D8246D80F84464046400A530F03439B
:10B77000D0006D0D371C83465246664500D1A4E0CB
:10B78000AF1A002F00DC09E1002A3BD1184300D09A
:10B79000EAE0630700D187E00F232340042B00D1A8
:10B7A00082E0221DA242A4416442802309191B04A5
:10B7B0000B40371C141C002B00D17CE0CE4B013514
:10B7C0009D4200D105E1CD4BE408194048074902EC
:10B7D00004430B0B002000211B031A0B0B0D6D05FE
:10B7E0001B0513436A08C64DFF071D4015436D0036
:10B7F0006D08291C3943201C3CBC90469946A24642
:10B80000AB46F8BDBC488542C3D08020000403434A
:10B81000382F00DDF0E01F2F00DD24E12020C01BC9
:10B820001A1C814682405846F840024394465846C6
:10B830004A469040421E9041FB40624602431F1C14
:10B84000A21A9442A4416442C91B091B141C0B0296
:10B850009FD549024F0A002F00D1C8E0381C01F0E3
:10B8600031FD021C083A1F2A00DDB5E02821091A23
:10B87000201C9740C84007439440954200DDB2E049
:10B88000551B691C1F2900DDDCE01F22551B3B1CDA
:10B89000221CAB40CA40AC40651EAC411343CF40B4
:10B8A0001C43391C002574E780231B040B40371C04
:10B8B000002B00D082E7904B4807E4080443C908F6
:10B8C0009D4248D009030B0B84E7AA1A9446002A2C
:10B8D00000DC98E05046002852D08748854200D1CD
:10B8E00057E78020000403436246382A00DDFCE06D
:10B8F0001F2A00DD4AE120226046101A1A1C8240ED
:10B900008246914658466246D0404A460243904697
:10B91000584652469040421E90414246024360467D
:10B92000C3401219A242A441644259180919141CB7
:10B93000080200D42DE7704B01359D4200D122E171
:10B940006E4B60081940012323401C1C0443CB07A5
:10B950001C4349081DE7231C0B433AD080231B03DB
:10B960000B431B031B0B35E7013F002F65D15846E6
:10B97000221A9442A4416442C91A091B141C66E7A6
:10B980005846184300D104E70122524294446046CD
:10B99000002800D0C5E058460219C3E7002F73D134
:10B9A000681C4005400D012800DCDEE05A46A21A62
:10B9B0009442BF41C81A7F42C71B380200D489E0B5
:10B9C0005A46141BA3459241591A52428F1A664691
:10B9D00041E700230024FDE6271C28388740002487
:10B9E000954200DC4CE74549AD1A3940D1E6201CB0
:10B9F00001F068FC203034E75A461A43531E9A413E
:10BA0000D2B200271CE7002A00D0DCE0681C420507
:10BA1000520D012A00DC8DE0374DA84200D1F3E041
:10BA20005D462A19A242A441644259180919CC075B
:10BA3000520814434908051CABE62F48854200D044
:10BA4000E6E6A6E62B1C1F3B3A1CDA40131C202915
:10BA50006CD03F22551BAF403C43601E84411C43C9
:10BA60000021002595E6381C20381A1CC240101C05
:10BA7000202F5DD04022D71BBB405A461A43531E8D
:10BA80009A4102430027DBE6002D3BD01A4DAA4520
:10BA900000D193E080252D047F422943382F00DD1B
:10BAA000ACE01F2F00DD29E12025ED1B081C261C22
:10BAB000A840FE40AC400643651EAC413443F9400B
:10BAC0005D462C1BA34592415B1A5242991A55467A
:10BAD0006646BCE6131C3B43141C002B00D0BAE6A0
:10BAE0000027002100250024E5E65A461A43531E8C
:10BAF0009A41D2B2002314E7FF070000FFFF7FFF47
:10BB0000FFFF0F800D1C254358D0FF43002F51D15C
:10BB1000041BA3459241591A5242891A554666465A
:10BB200095E69648854200D0DEE632E6002793E7A8
:10BB30000023A2E7081C2043002D00D0C4E0002809
:10BB400000D1F7E05846184300D122E658460219C2
:10BB5000A242A441644259180919141C0A0200D4D3
:10BB600017E6874B0125194013E6081C2043002DDA
:10BB700039D1002871D15946194303D0191C5C46AC
:10BB8000664606E600270021002494E66046203839
:10BB90001A1CC24060469146202800D1ACE04022E9
:10BBA000121A93405A461A43531E9A414B461A435F
:10BBB0000023B6E6714DAA4500D06FE7191C5C461C
:10BBC00055466646E5E5002D22D10D1C254377D06C
:10BBD000D543002D71D15C445C45924159185242C5
:10BBE00089185546A4E600284DD15946194300D17D
:10BBF00094E0191C5C466646604DCAE50C43611E24
:10BC00008C41E4B200215BE7051C0021002452E6D0
:10BC10005A4DAA4554D05542802210040143382D74
:10BC200000DD81E01F2D00DD92E02022501B0A1C68
:10BC300084468240201CE84002439046624694407D
:10BC4000601E844142461443E9405C445C45924195
:10BC5000CB185242991855466AE65846184300D107
:10BC600097E55846271ABC429241C81A5242801A98
:10BC7000020266D55846041BA3459241591A524206
:10BC8000891A664685E55846184333D04807E408C4
:10BC900004438020C9080003014208D0DD080542A2
:10BCA00005D15946CA085C071443291C6646630F30
:10BCB000C9001943E400314D6BE5304A9245AED1DD
:10BCC000191C5C46554664E5002836D05846184392
:10BCD00010D080254807E408C9082D0304432942F1
:10BCE000E5D0D8082842E2D15D46EA085C07144353
:10BCF000011CDCE7214D4CE5002353E73D1C203DB2
:10BD00000A1CEA40151C202F34D04026F71BB940EE
:10BD10000C43611E8C412C430021D1E68021002779
:10BD2000C903164D0024C6E50C43611E8C41E4B2E4
:10BD300000218AE7191C5C462BE5191C5C460F4D57
:10BD400027E5031C3B4300D11CE7011C3C1C20E5FC
:10BD50002020404240190A1CC2409046202D0BD0A2
:10BD60004020451BA9400C43611E8C4145462C4395
:10BD700000216AE70021CBE70021F4E7FF0700007C
:10BD8000FFFF7FFFF0B5564644465F464D46F0B490
:10BD90001F1C0B031B0B98464B0087B0041C8146ED
:10BDA0005B0DC80F161C9A460090002B51D06A4BB1
:10BDB0009A4531D08022414652030A43630FD20094
:10BDC0001A43664B90460025E20091469A440024AF
:10BDD00002953B031B0B9B46FD0F7B00311C5B0D4B
:10BDE000019560D05C4A934254D080215846490363
:10BDF0000143720FC9001143584A8B469B18F1004A
:10BE00000020009A04436A4003920F2C00D9ADE051
:10BE1000534EA4003459A746404604436ED1002136
:10BE200002250824884689460295D2E7009C02989C
:10BE3000C34649460194022864D0032800D1ABE2EE
:10BE4000012800D038E2019A002402400025A146D2
:10BE500060E0434623434AD04046002800D1C0E179
:10BE600001F030FA031E272B00DDB3E128210D1A63
:10BE7000211C083B4246E9409A400D1C1543221CF8
:10BE80009A40A8469146374B00251B1A9A46002433
:10BE900002959EE75A4616430320002EB1D1B346C1
:10BEA00000210220ADE75A4632431BD05B46002BEF
:10BEB00000D18AE1584601F005FA272800DD7DE12E
:10BEC0002822171A011C321C08395B46FA408B40A5
:10BED000171C1F43331C8B40BB46191C214B1B1ADC
:10BEE00000208EE70027BB460021012089E70020C3
:10BEF000012504248046814602956AE703250C2427
:10BF0000029566E7019C0394039D01222A400024C8
:10BF1000114DA146002000212403260B0C0D240501
:10BF2000114B34432D0523402B435B005B08D207A4
:10BF3000191C4846114307B03CBC90469946A2469E
:10BF4000AB46F0BD0022802424039146024DE1E778
:10BF500000240025A146DDE7FF07000001FCFFFFEC
:10BF600020F900000DFCFFFFFFFF0F805546ED1A82
:10BF70000495D84500D953E100D14EE1049C002539
:10BF8000013C4E4604944746A946584603020C0E0F
:10BF90001C430902250C23041B0C0091381C291C8E
:10BFA0000193FFF7C7FA019983464143381C8A463B
:10BFB000291CFFF703FB330C090419438A450CD9EC
:10BFC0005B460919013B8C4200D947E18A4500D8FC
:10BFD00044E102225242934409195346CB1A181CD9
:10BFE000291C9846FFF7A6FA071C0198291C7843DC
:10BFF00082464046FFF7E2FA36040B04360C334320
:10C000009A4509D91B197A1E9C4200D924E19A4508
:10C0100000D821E1023F1B195E4632041743380C59
:10C02000BB46009E009F51463F0C32045B1A5946A6
:10C03000BA46120C0F043F0C904651467A434F43C8
:10C040004146414356467043CF19160CBE19B142C2
:10C0500002D980277F02C019310C12043604120C59
:10C060004018B618834200D2C4E000D1BEE0191ACD
:10C070004846861BB145BF417F42CF1BA74200D136
:10C0800013E1291C381CFFF755FA0199029041432E
:10C09000381C8946291CFFF791FA330C090419430F
:10C0A00089450CD9029B0919013B8C4200D9FFE05C
:10C0B000894500D8FCE0029F0919023F02974F46CC
:10C0C000CF1B381C291C0597FFF734FA071C019871
:10C0D000291C784381460598FFF770FA3604090455
:10C0E000360C0E43B14509D936197B1EB44200D92E
:10C0F000E0E0B14500D8DDE0023F3619029D494637
:10C10000761A290439430B0457460A0C1B0C404687
:10C110004546584355437B437A43EB18070CDB19DC
:10C120009D4202D980256D0252191D0C00041B048A
:10C13000000C52191B18964235D300D1FCE00123A4
:10C140001943049E994FF519002D00DCA1E0480722
:10C1500009D00F230B40042B05D00B1D8B428941C6
:10C1600049428B44191C5A46D20107D5904B5C4674
:10C17000049E80271C40FF00A346F5198D4B9D426D
:10C180007ADD039C0122224000248B4DA146C1E6AA
:10C1900080242403474627424CD13C432403240BEC
:10C1A000009A854DB6E63619481EB4425ED9011C88
:10C1B0009642C4D1009E9E42C1D1C2E7031C283BD7
:10C1C000311C99408B46002188E6301C01F07AF83A
:10C1D000203072E6283B211C994000228846914677
:10C1E00051E6201C01F06EF820303BE60021B145FD
:10C1F00000D33DE7009F5A46B944B945BF417F424D
:10C200003F19FB18013A9C421ED2984200D97EE0A9
:10C2100000D1B5E0191A93462AE7894500D8ADE662
:10C220004846464642467708D3074608C0071E439D
:10C230008146AAE65846204212D1044324032A1C10
:10C24000240B89465C4D65E6A342E3D1009F4F4530
:10C25000DBD9211A93460BE7171CDDE69B46BCE6AB
:10C260003C432403240B009A534D53E6B24259D861
:10C2700000D18AE0011C62E75F46C9087B07039E84
:10C280000B437C026D0501229946240B6D0D324053
:10C2900040E64A4B049FDB1B382B10DD039C012238
:10C2A000224000240025A14634E60121494248E706
:10C2B000029304E71F1C21E7019C039441E71F2B15
:10C2C00040DC3F48049F0C1C3A1858469140DC4023
:10C2D000904020430A1C511E8A41011C11435A46BA
:10C2E000DA40131C480709D00F220A40042A05D05F
:10C2F0000A1D8A42894149425B18111C1A0234D531
:10C30000039C0122224000240125A14602E6009F51
:10C3100002214942B9448B44B9458941494209192E
:10C32000CB18A4E6009D881E6900A942AD416D426C
:10C330002C19361900913AE7002B00D033E700247E
:10C34000009437E71F4A049C5D46121BD5402A1C07
:10C35000202B1FD01C4E5F46A3199F403B1C194346
:10C360004B1E994111430023BCE75A07C9080A43F1
:10C37000039F91465B0201221C0B3A400025C9E550
:10C380004E45C4D89346002172E6009F9F42C9D310
:10C39000011C0FE70023E2E7802424035F463C43AF
:10C3A0002403240B019A8946034DB3E5FF030000E3
:10C3B000FFFFFFFEFE070000FF07000002FCFFFF7B
:10C3C0001E040000E2FBFFFF3E040000F0B55F46E4
:10C3D00056464D464446F0B40D1C041C8046E80FFA
:10C3E000814618030F03000B3F0B83B084461B48A4
:10C3F000009749005E00DF0F490D9246760DBB465F
:10C4000081420CD01548864210D00120B14215D08F
:10C4100003B03CBC90469946A246AB46F0BD009F97
:10C4200001202743F4D10D488642EED160460243F5
:10C430000120002AECD10120B142E9D1009B6345E3
:10C44000E6D1D045E4D1D94506D00029E0D11C433E
:10C45000201C441EA041DBE70020D9E7FF070000B5
:10C46000F0B55F4656464D464446F0B4CD0FDE0F5C
:10C47000AC461D032D0BB146374E0F034C00AB46A7
:10C480005D0080463F0B640D92466D0DB44232D084
:10C49000314EB54235D0002C0ED138434142414196
:10C4A000081C002D0BD0002919D1CC452DD0654694
:10C4B00068420123184318E0002DF6D1281C594684
:10C4C0000A4353425341002806D1002BEDD0634666
:10C4D00058420123184308E00020002B05D14A46AA
:10C4E000504250414042012318433CBC904699467B
:10C4F000A246AB46F0BD3E1C0643C9D002204042D6
:10C50000F3E75E461643C6D0F8E7AC4207DC0BDA29
:10C51000614648424841404201231843E5E76646E8
:10C52000704201231843E0E75F450AD80ED000208F
:10C530005F45DAD2654668426841404201231843AC
:10C54000D3E76246504201231843CEE7D045F8D8DE
:10C550000020D045EED3C8E7FF070000F0B55646EF
:10C560004D4644465F46F0B40D1C83B0041C019058
:10C57000E80F814618030F03000B3F0B8446354834
:10C58000009749005E00DF0F490D9246760DB846D0
:10C59000814234D02F48864236D0002918D0002E50
:10C5A0001FD1341C67463A4353425341002C1FD0DD
:10C5B0000020002B05D14246504250414042012309
:10C5C000184303B03CBC90469946A246AB46F0BD2A
:10C5D0000098044360426041041C002EE2D0002811
:10C5E000E9D1C14515D04F46784201231843E8E709
:10C5F000002BF6D04B46584201231843E1E7009F39
:10C6000002202743DDD1C5E7674602201743D8D172
:10C61000C3E7B14204DD4A46504201231843D0E744
:10C62000B14207DB00986045E4D80AD0009F0020A3
:10C630006745C6D24F4678427841404201231843AD
:10C64000BFE7019A5245D5D8019A00205245F1D34F
:10C65000B7E7C046FF070000F0B5564644465F46C0
:10C660004D46F0B41F1C0B031B0B9A464B0087B0C2
:10C67000041C80465B0DC80F161C02938146002BDC
:10C6800068D0694B0299994232D0802253465203B6
:10C690001A43D200630F1A439246644AE000891895
:10C6A00080460291002400253B031B0B9B4678002B
:10C6B000FB0F321C400D039300D175E05A4B98429A
:10C6C00069D08022594652030A43730FD2001A439D
:10C6D000564B9346C018F200002303994E46714012
:10C6E0001C430F2C00D9A9E0514EA4003459A74691
:10C6F00053461C4300D087E00025AA46A8460824DC
:10C700000225D1E74946022D6CD0032D00D117E256
:10C71000012D00D058E10D40EDB20024A9460023C0
:10C72000A0460020002125030A0D1C052D0B120533
:10C73000404B2A43134023435B004C465B08E2070F
:10C74000191C4046114307B03CBC90469946A2468E
:10C75000AB46F0BD5346234350D05346002B00D187
:10C7600084E1504600F0AEFD031E272B00DD76E18C
:10C7700028210D1A211C083B5246E9409A400D1C05
:10C780001543221C9A40AA4690462B4B00241B1AA4
:10C790000293002588E75B461E430323002E9CD1AD
:10C7A000B3460022022398E75B46334321D0584624
:10C7B000002800D14EE100F085FD272800DD42E190
:10C7C00028210F1A021C311C083A5B46F94093409D
:10C7D0000F1C1F43331C9340BB461A1C164B181AE0
:10C7E00000237AE701230B4000249946A0460E4B14
:10C7F00097E70027BB46002201236EE700210424AF
:10C800008A46884601254FE70C2403254CE700257E
:10C810008024A9462403A846034B82E7DA469046C3
:10C8200003991D1C6FE7C046FF07000001FCFFFFD6
:10C8300060F90000FFFF0F800DFCFFFF029F160C48
:10C84000381804904046070C0004000C1204120C27
:10C85000031C5343041C3D1C7443554398463B1C26
:10C8600073436419A44644460293230C63449D42D7
:10C8700004D9029D802464022D1902951D0C039594
:10C8800045462C041B04240C1C1905945C46230CFF
:10C89000051C58432404240C8446381C604365431B
:10C8A0005F438146CC44280C6044BB46814502D995
:10C8B00080277F02BB442D04070C2D0C0004401977
:10C8C0005546BC462F04E3448446280C3D0C2F1CDF
:10C8D0005743B8462F1C77434243B94647463F0C5F
:10C8E0009144BA46D14446434A4502D98022520275
:10C8F000B6184F463A0CB6183A0447463F043F0C68
:10C90000B8462F1C67435D43444358436519019063
:10C91000380C2D184244B846AC4204D90198802303
:10C920005B02C0180190039C029F201C6044C01948
:10C930006045A44147466442A4462B043C04994602
:10C94000240C4C44A046D8448018C246E24490428D
:10C950009241574652429146F219E245BF417F4209
:10C960004B46BC46D845BF41D4187F4263461F435F
:10C970002D0C7F19B24292414C45AD4152426D425D
:10C980001543019E7D19AB19E20D5B02059F134310
:10C9900042023A439A46531E9A41C30D101C184353
:10C9A0006402204380465046C0010DD54546012211
:10C9B0005646049C6B082A401A43F30701341A4375
:10C9C000760804949046B246049E634FF319002BF8
:10C9D00061DD404640070BD00F2244462240042A26
:10C9E00006D042460432424580414042824490464D
:10C9F0005546ED0107D5594B5646049F80201E40F1
:10CA0000C000B2463B18564A934200DDEAE644466F
:10CA10005546E2086807104301226C025B050A4094
:10CA20008046240B5B0D91467BE6DA4690461D1C42
:10CA300069E680242403574627421CD13C43240343
:10CA4000240B484B6DE6031C283B311C99408B4658
:10CA50000022C3E6301C00F035FC2030ADE6283B58
:10CA6000211C994000228A4690468EE6201C00F048
:10CA700029FC203078E65846204207D10443039928
:10CA80002403240B89469046364B4AE63C43240354
:10CA9000240B344B45E6344B049E9B1B382B06DDA0
:10CAA00001230B4000249946A046002339E61F2BA2
:10CAB00025DC049C2D4D464660195246444686406E
:10CAC000DC4082405746301C2243DF40441EA041D8
:10CAD00002433B1C540709D00F201040042805D006
:10CAE000101D9042924152429B18021C1D021AD501
:10CAF00001230B4000249946A046012311E61C485F
:10CB0000049C5546001BC540281C202B16D0194EEE
:10CB10005746A21997403A1C43461A43531E9A415E
:10CB200002430023D6E758075B02D2081C0B0123FF
:10CB30000B401043994680460023F2E50022EBE7C4
:10CB40008024240350460123044319402403240B6A
:10CB50008946044BE5E5C046FF030000FFFFFFFEEA
:10CB6000FE070000FF07000002FCFFFF1E0400009C
:10CB7000E2FBFFFF3E040000F8B55F465646444620
:10CB80004D46F0B40C034D00CF0F610A440F214312
:10CB9000C4001803DE0F8046B44646465800760AA5
:10CBA000530F3343D600D14A6D0DBA46400DB346FC
:10CBB000904200D1F5E062460126724094466745F6
:10CBC00000D1ABE02F1A002F00DC11E100283ED18C
:10CBD0005846184300D0F1E0600700D197E00F23DA
:10CBE0002340042B00D122E1221DA242A441644231
:10CBF000802309191B04012750460B400740141CD1
:10CC0000002B00D179E0B94B01359D4200D10BE1F9
:10CC1000B74BE40819404807490204430B0B0020B6
:10CC200000211B031A0B0B0D6D051B0513436A082E
:10CC3000B04DFF071D4015436D006D08291C394399
:10CC4000201C3CBC90469946A246AB46F8BDA7487E
:10CC50008542C1D0802000040343382F00DDFDE071
:10CC60001F2F00DD31E12020C01B1A1C5E468240D0
:10CC7000FE40324394465A468240101C421E904168
:10CC8000FB40624602431F1CA21A9442A441644224
:10CC9000C91B091B141C0A029ED549024F0A002F0A
:10CCA00000D1D6E0381C00F00DFB021C083A1F2A08
:10CCB00000DDC3E02821231C091A9740CB401F4305
:10CCC0009440954200DDC0E0551B691C1F2900DD22
:10CCD000EAE01F22551B3B1C221CAB40CA40AC4063
:10CCE000651EAC411343CF401C43391C002573E73C
:10CCF00080217E4D0027C90300247C4B4807E408AF
:10CD00000443C9089D4250D009030B0B87E78023D9
:10CD10001B04012752460B40174071E72A1A94461C
:10CD2000002A00DCA1E0002854D07048854200D1E0
:10CD300052E78020000403436046382800DD0EE1FE
:10CD40001F2800DD57E162462020801A1E1C864005
:10CD5000B1465E46D6404A4632435E4686409046DD
:10CD6000301C421E9041424602436046C3401219A5
:10CD7000A242A441644259180919141C080200D4A3
:10CD80002AE75A4B01359D4200D131E1584B6008EA
:10CD90001940012323401C1C0443CB071C434908B2
:10CDA0001AE71E4300D00AE705E7231C0B433BD0DC
:10CDB00080231B030B431B031B0B30E7013F002F9A
:10CDC0006DD15E46A21B9442A4416442C91A091B5C
:10CDD000141C60E75846184300D1FDE60126764250
:10CDE000B4446046002800D0D0E05E463219BFE768
:10CDF000002F00D080E0681C4005400D012800DCB9
:10CE0000E8E05A46A21A9442BF41C81A7F42C71BA3
:10CE10003E0200D498E05846041BA3459241591A9B
:10CE200052428F1AE2463AE700230024F7E68023B5
:10CE30001B04012756460B403740E1E6271C2838E3
:10CE400087400024954200DC3EE72949AD1A39406D
:10CE5000C2E6201C00F036FA203026E75A461A4374
:10CE6000531E9A41D2B200270EE7002A00D0DEE01E
:10CE7000681C4605760D012E00DC90E01B4DA84293
:10CE800000D1F5E05E463219A242A441644259182D
:10CE90000919CC07520814434908051C9CE613489D
:10CEA000854200D0D9E697E62B1C1F3B3E1CDE4096
:10CEB000331C20296FD03F22551BAF403C43601EDE
:10CEC00084411C430021002586E6381C20381E1CA6
:10CED000C640301C202F60D04022D71BBB405A4692
:10CEE0001A43531E9A4102430027CDE6FF07000074
:10CEF000FFFF7FFFFFFF0F80002D37D0B64DA84208
:10CF000000D18FE080252D047F422943382F00DD9A
:10CF1000A8E01F2F00DD24E12025ED1B0E1CAE40F4
:10CF2000B046261CFE404246AC401643651EAC414E
:10CF30003443F9405A46141BA34592415B1A5242AE
:10CF4000991A051CE246A6E6131C3B43141C002B51
:10CF500000D0A4E60027002100250024CDE65A4693
:10CF60001A43531E9A41D2B2002300E70D1C2543F9
:10CF700058D0FF43002F51D15A46141BA34592416C
:10CF8000591A5242891A051CE24684E692488542A3
:10CF900000D0D1E620E6002790E700239FE7081C99
:10CFA0002043002D00D0C2E0002800D1EFE0584619
:10CFB000184300D110E658460219A242A441644227
:10CFC00059180919141C0A0200D405E6834B0125DF
:10CFD000194001E6081C2043002D38D100286FD1EC
:10CFE0005946194303D0191C5C46E246F4E5002774
:10CFF0000021002481E6604620381A1CC2406646A3
:10D00000101C202E00D1AAE04022921B93405A46C9
:10D010001A43531E9A4102430023A8E66E4DA842CC
:10D0200000D073E7191C5C46051CE246D4E5002DD0
:10D0300022D10D1C254376D0D543002D70D15C4400
:10D040005C459241591852428918051C96E6002801
:10D050004CD15946194300D14AE6191C5C46E246B8
:10D060005D4DB9E50C43611E8C41E4B2002161E7DE
:10D07000051C0021002440E6574DA84253D05542DC
:10D08000802216043143382D7BDC1F2D00DD8CE01F
:10D090002022561B0A1CB446B240261CEE403243E6
:10D0A000904662469440661EB44142461443E940AD
:10D0B0005C445C459241CB1852429918051C5DE6D0
:10D0C0005846184300D187E55E46A71BBC429241F3
:10D0D000C81A5242801A060260D55846041BA3455E
:10D0E0009241591A5242891AE24675E55846184348
:10D0F00033D04807E40804438020C90800030142F4
:10D1000008D0DD08054205D15946CA085C0714431A
:10D11000291CE246630FC9001943E4002E4D5BE56C
:10D120002D4A9042AFD1191C5C46051C54E50028DD
:10D1300030D05846184310D080254807E408C90865
:10D140002D0304432942E5D0D8082842E2D15D46A8
:10D15000EA085C071443011CDCE71F4D3CE5002393
:10D1600055E73D1C203D0E1CEE40351C202F2ED0D7
:10D170004026F71BB9400C43611E8C412C43002113
:10D18000D8E60C43611E8C41E4B2002190E7191CE3
:10D190005C4621E5191C5C460F4D1DE5031C3B4315
:10D1A00000D124E7011C3C1C16E5202676427619A6
:10D1B0000A1CF2409046202D0BD04026751BA9403A
:10D1C0000C43611E8C4145462C43002170E7002131
:10D1D000D1E70021F4E7C046FF070000FFFF7FFF13
:10D1E00070B50B1C124C09030E0B5900021C490DA3
:10D1F000DD0F0020A14211DD0E4881420FDC8020AE
:10D20000400306430C48401A1F280BDD0B4A521AF4
:10D21000D640321C5042002D00D1101C70BD084B6E
:10D22000E818FBE7074BC240C9188E403243F1E7CC
:10D23000FE0300001D04000033040000130400007E
:10D24000FFFFFF7FEDFBFFFFF8B5041E31D0C70FD6
:10D2500000D04442201C00F035F8184D2D1A0A2841
:10D2600019DD0B38844024036D05240B6D0D3A1C29
:10D270000026002000210B0D2403240B1B05234353
:10D280000F4C2D051C402C4364006408D307211C5F
:10D29000301C1943F8BD061C1536231CB3401E1C58
:10D2A0000B23181AC44024036D05240B6D0D3A1C82
:10D2B000DFE70022002500240026DAE71E04000034
:10D2C000FFFF0F801C2101231B04984201D3000C97
:10D2D00010391B0A984201D3000A08391B099842E9
:10D2E00001D30009043902A2105C40187047C046FF
:10D2F000040302020101010100000000000000001F
:10D30000F0B544465F4656464D46F0B41C1C85B009
:10D31000002900DADBE00F1C0021061C8A46101CE5
:10D32000191C002C00DAC9E001960090894680465D
:10D33000002951D1B84200D871E0FFF7C3FF00289F
:10D3400009D020234546311C1B1A85408740D9400F
:10D35000A8460F4386404246150C13041B0C291C9B
:10D36000381C9B46FEF7E6F85B464343041C291C29
:10D37000381C9946FEF722F9330C080418438145FE
:10D3800009D94044631E804500D978E1814500D821
:10D3900075E1023C40444946411A8946081C291C53
:10D3A000FEF7C8F85A464243071C291C48469346D4
:10D3B000FEF704F936040904360C0E43B34507D9C9
:10D3C00046447B1EB04502D8023FB34500D81F1C1F
:10D3D00024042743002403E0B94211D90024002784
:10D3E0005246381C211C002A03D03B1C0021584205
:10D3F000A14105B03CBC90469946A246AB46F0BD63
:10D40000081CFFF75FFF041E00D0BFE0B94500D243
:10D4100042E1019D0099071C8D424741E0E7002849
:10D4200004D101200021FEF785F880464046FFF731
:10D4300049FF002852D1414644460B043C1B1B0CBB
:10D44000A3460D0C00930124291C5846FEF772F8E0
:10D45000009F81464743291C5846FEF7AFF8330C1E
:10D46000090419438F4208D94B464144013B884582
:10D4700002D88F4200D91AE19946C91B8B46081C75
:10D48000291CFEF757F8009B291C4343071C5846EC
:10D490000093FEF793F83604009D0904360C0E4302
:10D4A000B54207D946447B1EB04502D8023FB5427B
:10D4B00000D81F1C49460E04374391E75246D24319
:10D4C000031C0C1C924600215842A1412CE7002766
:10D4D00046428F41012149428A4620E720231B1AF8
:10D4E0004246351C82403C1CDD40DC4087402B1C02
:10D4F000150C3B43291C8640201C009317049046C2
:10D50000FEF718F83F0C011C794381468B46201C1E
:10D51000291CFEF753F8009C0904230C19438B4582
:10D520000CD94B464144013B884500D9BDE08B45B1
:10D5300000D8BAE002225242914441445C460C1B9E
:10D54000201C291C0194FDF7F5FF391C4143041CE4
:10D550008B460198291CFEF731F8009A0904130440
:10D560001B0C19438B4509D94144631E884500D9DA
:10D5700097E08B4500D894E0023C41445B46CB1ACF
:10D5800049469B460B041C4300975DE7009D202302
:10D590001B1A4A468240DD401543391C009AD94087
:10D5A00082408846311C0092D9403A1C82400B1CB4
:10D5B000134301932F0C2B041B0C391C4046029380
:10D5C000FDF7B8FF029A81464243391C4046934614
:10D5D000FDF7F4FF019A0904130C19438B450AD98E
:10D5E0004B464919013B8D425DD88B455BD90223DF
:10D5F0005B42994449195A468A1A101C391C0392F5
:10D60000FDF798FF029B80464343391C03989B46D5
:10D61000FDF7D4FF019A090413041B0C19438B4531
:10D620000AD943464919013B8D4238D88B4536D932
:10D6300002235B42984449195D464D1BAB4649465F
:10D64000009D0F04424617432A04120C3B042D0C84
:10D650001B0C380C111C594342436B436843D318CD
:10D660000D0C5B198C469A4202D980225202801816
:10D670001D0C401983450CD303D00024B0E61C1CBC
:10D6800089E665462A041B04120C9B18A6409E429C
:10D69000F3D2013F0024A3E600240127A0E6984628
:10D6A000CAE71C1C6AE79946A5E7994646E70222A5
:10D6B000524291444144E0E6F0B55F4656464D463D
:10D6C0004446F0B40D1C85B0061C92469846029064
:10D6D000019103921F1C141C8346A946002B59D1AB
:10D6E000AA4269D9101CFFF7EDFD00280AD02023BB
:10D6F0001B1A311CD94085400B1C2B4386408440AB
:10D700009946B346250C23041B0C291C4846984611
:10D71000FDF710FF4646071C4643291C4846FDF707
:10D720004DFF5A460904130C19438E4209D90919B1
:10D730007B1E8C4200D957E18E4200D854E1023F53
:10D740000919891B8946081C291CFDF7F3FE43466D
:10D750004343061C291C48469846FDF72FFF5A46AE
:10D76000130409041B0C1943884508D90919731EB1
:10D770008C4200D936E1023E884500D832E13804B7
:10D7800030430027391C05B03CBC90469946A24660
:10D79000AB46F0BD019A934262D8181CFFF792FD88
:10D7A000041E60D1019B9F4200D22CE1029F03998D
:10D7B0008F4260410027E5E7002A04D101200021C3
:10D7C000FDF7B8FE041C201CFFF77CFD002800D0EC
:10D7D000B9E023042D1B1B0CA946260C98460127F3
:10D7E000311C4846FDF7A6FE41464143051C8A46CA
:10D7F0004846311CFDF7E2FE5A460804130C184354
:10D80000824507D900196B1E844202D8824500D98F
:10D8100010E11D1C5346C31A181C311C9A46FDF713
:10D8200089FE41464143814688465046311CFDF7FA
:10D83000C5FE5A46130409041B0C194388450BD92D
:10D840004B460919013B8C4200D9CFE0884500D8EE
:10D85000CCE002235B42994428044946084391E7FF
:10D86000002700208EE720231B1A4246574682409D
:10D87000DF401743524682400192321CDA40291C95
:10D88000D9408540131C2B4302933D0C3B041B0CD9
:10D890008846081C291C9A46FDF74CFE5346434314
:10D8A0008146291C40469B46FDF788FE029A0904E2
:10D8B000130C19438B4506D94B46C919013B8F42BE
:10D8C00000D8ABE099465A468A1A101C291C934688
:10D8D000FDF730FE53464343291C804658469A467E
:10D8E000FDF76CFE029A090415042D0C29438A45A4
:10D8F00006D94346C919013B8F4200D886E09846B5
:10D900005746CF1BBA464946019F0804424610437A
:10D910003D042D0C03043F0C1B0C020C291C594325
:10D9200055437B437A43EB180F0CDB198C469D4221
:10D9300002D980277F02D2191D0C521992455FD35C
:10D9400056D000271EE720231B1A311C2F1CD9405C
:10D95000DF4085400B1C84402B4386400193B34637
:10D960002304260C1B0C381C311C9846FDF7E2FDE5
:10D9700042464243051C311C381C9146FDF71EFEF1
:10D98000019F09043B0C1943894507D909196B1EEE
:10D990008C424DD889454BD9023D09194A468A1A0D
:10D9A000101C311C9246FDF7C5FD43464343071C3E
:10D9B000311C50469946FDF701FE019A09041304F3
:10D9C0001B0C1943894507D909197B1E8C422DD898
:10D9D00089452BD9023F09194B46CB1A2D0499468C
:10D9E0002F43FDE61E1CCAE61F1CAAE6994633E734
:10D9F00061460A041B04120C9B18A6409E42A0D24A
:10DA000001380027BEE600270120BBE68A4500D882
:10DA100075E702235B429844C91971E78B4500D82A
:10DA200050E702235B429944C9194CE71F1CD3E716
:10DA30001D1CB3E7023D0019ECE6C046F0B500AF8F
:10DA400072B6424B414A126880210A431A60404B29
:10DA50001B780133DAB23E4B1A703D4B1B78012B19
:10DA60006AD93B4B00221A703A4B2720185C2824B5
:10DA70001C5D2402204329241C5D240420432A2405
:10DA80001C5D24062043011C2B20185C2C241C5DEB
:10DA9000240220432D241C5D240420432E241B5DDE
:10DAA0001B0603431A1C01230024C9186241294B99
:10DAB000FF200C1C044027201E5C002535402C4311
:10DAC0001C540C0AFF20044028201E5C0025354011
:10DAD0002C431C540C0CFF20044029201E5C002504
:10DAE00035402C431C540C0E2A201E5C002535406A
:10DAF0002C431C54FF20141C04402B201E5C0025CA
:10DB000035402C431C54140AFF2004402C201E5C7A
:10DB1000002535402C431C54140CFF2004402D20BC
:10DB20001E5C002535402C431C54110E2E229C5C9B
:10DB30000020204001439954074B074A1268802176
:10DB40000A431A6062B6BD46F0BDC04600000440FC
:10DB500084F8FF1F3CFEFF1F00500440B0B584B0A6
:10DB600000AF72B61E4B1B68002B27DA1C4B5A689D
:10DB70003B1C0E331A803B1C0E331A88FA235B00C1
:10DB80009A421BD9174BE8229A5CE9215B5C1B0285
:10DB900013439BB201339AB2124BFF21101C084071
:10DBA000E8215D5C00242C4020435854120A91B2B5
:10DBB000E9229C5C0020204001439954084B084A0C
:10DBC0001268802109060A431A60054B044A12684C
:10DBD00080218A431A6062B6BD4604B0B0BDC0461B
:10DBE000005004403CFEFF1F90B583B000AF72B6FA
:10DBF0000F4B1B6800209847031C002B13D00D4BC4
:10DC00001B68FC1DBA1D0020111C9847031C2370C3
:10DC1000BB1D1B78002B06D0074B1B68FA1D127822
:10DC20000020111C984762B6BD4603B090BDC046A7
:10DC3000D8F8FF1F14F9FF1F58F9FF1F90B583B0E4
:10DC400000AF72B60B4B1B68FC1DBA1D0120111CE6
:10DC50009847031C2370BB1D1B78002B06D0064B76
:10DC60001B68FA1D10780549054A984762B6BD46FB
:10DC700003B090BD14F9FF1F3CF9FF1F56FFFF1FB3
:10DC80002CFAFF1F00000000F0B5E24CA54400AFE5
:10DC900072B600220023A820C000C01902604360B1
:10DCA00000220023A221C900C9190A604B60002389
:10DCB000D94AD2191360D94EBB1901221A70D8481B
:10DCC0003B1800221A70D7497B1800221A80D64AC6
:10DCD000BB181822FF321A80D44EBB19AB221A800F
:10DCE00000220023A420C000C0190260436000226B
:10DCF0000023A621C900C9190A604B60CC4ABB1891
:10DD000000221A70CB4B00221A8001F001FC01F0B6
:10DD1000BBF80520002101F039FCC74B1B68FA2233
:10DD20005200101C9847C54B1B68C54A0320111CA4
:10DD30009847C44B1B689847C34B1B689847C34B15
:10DD40001B689847C24B1C20191C01F007FCC14BF3
:10DD50001A20191C01F002FC62B6BF4B181C00F01F
:10DD60007FFDBE4B181C00F08DFDBB4BA7229A5CBB
:10DD7000A8215B581B021B0A1B021343A026F600B6
:10DD8000F61933600023B648C0190360B54B1B7801
:10DD9000DBB25B09DBB21A1C0123134023D0AE4B6C
:10DDA000A7229A5CA8215B581B021B0A1B02134383
:10DDB0005A1CA94BFF21161C0E407E60A721585CFF
:10DDC00084460026604606407868387138793043CA
:10DDD0005854110AA8220902090A9858000E000690
:10DDE0000143995013E09F4B1B78DBB2DB09DBB298
:10DDF0001A1C012313400AD0974BA722985C0021DC
:10DE000001409954A8229958090E09069950924B3D
:10DE1000A7229A5CA8215B581B021B0A1B02134312
:10DE20001C1C00231D1CA021C900C9190B68A3429A
:10DE300004D18B4AD2191368AB420CD08A4B1B68B1
:10DE40003F209847894B1C68784EBB191A88824B33
:10DE50003F200021A047864BA920C000C019C3184D
:10DE600000221A6000225A6000229A600022DA60C2
:10DE700000221A6100225A6100221A767D4BA921E4
:10DE8000C900C919CB1800221A6000225A6000226A
:10DE90009A600022DA6000221A6100225A61002290
:10DEA0009A610022DA6100221A6200225A6200227C
:10DEB0009A620022DA6200221A86A423DB00DB19B0
:10DEC00019685A68012300245B185441A426F600FF
:10DED000F61933607460614A2721515C906A000230
:10DEE000000A000201430B1C2B21515CD26A120272
:10DEF000120A12020A43141CA820C000C0190268AA
:10DF00009A4204D15C49C9190A68A24244D0534AD2
:10DF10002721515C906A0002000A000201430B1C99
:10DF20002B21515CD26A1202120A12020A43141CFB
:10DF3000A822D200D21913605460052001F03EFBE4
:10DF4000464A2721515C906A0002000A0002014300
:10DF50000B1C2B21515CD26A1202120A12020A43D4
:10DF6000141C3D4AA321515CA42012581202120A2B
:10DF700012020A43BA600022FA60181C211CBA6817
:10DF8000FB68FDF765FB1C1C131C1A1C224303D104
:10DF9000224EBB1901221A70304AE823D35A1A1CA8
:10DFA0001D48C01903689A4214D02C4AE823D35A5A
:10DFB0001949C9190B60294AE823D35A181C0321AF
:10DFC000FDF7FCFA0B1C9BB2002B03D1134ABB18C4
:10DFD00001221A70114EBB191B78012B00D078E179
:10DFE000264B1B6826483C189321C9007818254900
:10DFF000254A9847031C2370214ABB181B78002B25
:10E0000044D0C0461E4EBB191B78042B00D90FE12B
:10E0100009E1C046B4FAFFFF3C0500003B050000E3
:10E020002E0500000E0500000C0500000A0500008A
:10E030002D05000056FFFF1F00F9FF1F40F9FF1FCD
:10E040001100CC00C4F8FF1FC8F8FF1F28F9FF1FFC
:10E050003DDA00005DDB000080F9FF1F3CFEFF1F82
:10E060000405000000F00740BCF8FF1F88F8FF1F00
:10E0700010FBFFFFCCFAFFFF4405000074F9FF1FFF
:10E08000FF0400000FFAFF1F1EFAFF1FDA4B181CD7
:10E0900000F032FDD94B1B78552B15D1D74B5B784F
:10E0A000302B11D1D6483B18D6497A1812881A80DD
:10E0B000D34ABB181B88391C7431CF4A081C111C69
:10E0C0001A1C01F06DFB5BE0CC4B1B78552B57D134
:10E0D000CA4B5B78312B53D1CB4BA926F600F619EE
:10E0E000F318C64A12881A803B1C74330233C24AA2
:10E0F000191C04320F23081C111C1A1C01F050FBC0
:10E100003B1C74331A1C1132C04B101C191C082202
:10E1100001F046FB3B1C74331A1C1932BC4B101C1B
:10E12000191C042201F03CFB3B1C74331D33B24923
:10E13000E5228A5C1A703B1C74331A1C1E32B54BE4
:10E14000101C191C022201F02BFB3B1C74331A1CFF
:10E150002032B14B101C191C022201F021FB3B1C88
:10E1600074332233A448FE22191C82181923081C78
:10E17000111C1A1C01F014FBA1483B183B221A8009
:10E18000A64B1B68A6497C189D4EBA1911883A1CEB
:10E190007432081C111C9847031C2370A0483B18BC
:10E1A0001B78002B3AD0C0463B1C1433181C01F0DE
:10E1B00015FB031C3A1C1432D2189A4B111C1A1C62
:10E1C0000823081C111C1A1C01F0EAFA94497B1858
:10E1D0001B78FA22D2009B181A1C934EBB19101CF4
:10E1E000191C0A2200F084FD031C3A1C1432101C76
:10E1F000191C01F0E6FA3B1C1433181C01F0EEFA6E
:10E20000031C3A1C1432D218884B111C1A1C1123FF
:10E21000081C111C1A1C01F0C3FA56E084483B1874
:10E2200000221A8051E083497B1801221A7012E003
:10E230007B4ABB181B78052B04D17E4EBB190222EA
:10E240001A7008E076483B181B780B2B03D17949EC
:10E250007B1803221A703B1C1433181C01F0BEFA01
:10E26000031C3A1C1432D218734B111C1A1C0823BD
:10E27000081C111C1A1C01F093FA6E4ABB181B787B
:10E28000FA26B6009B191A1C67483B18101C191C6B
:10E290000A2200F02DFD031C3A1C1432101C191C1C
:10E2A00001F08FFA3B1C1433181C01F097FA031C81
:10E2B0003A1C1432D218614B111C1A1C0F23081C73
:10E2C000111C1A1C01F06CFAC0465D497B18002233
:10E2D0001A705C4B1B88002B00D191E2A623DB0057
:10E2E000DB1919685A68012300245B185441A626DB
:10E2F000F600F6193360746049483B18FF221A7023
:10E300003F497B1800221A804F4BA922D200D21914
:10E31000D3184E4A12881A803A1C74324B4B101C88
:10E32000191C022201F03CFA474BA926F600F61907
:10E33000F3181B78412B1BD1434BA920C000C019F7
:10E34000C3185B78302B13D12D497B18404EBA1976
:10E35000128802321A803E483B181B883A1C7432DD
:10E36000911C3C4A081C111C1A1C01F019FA10E2FD
:10E37000354BA921C900C919CB181B78412B19D1DC
:10E38000314BA922D200D219D3185B78312B11D18D
:10E390001B4EBB1991221A8019483B181B88023B5F
:10E3A0003A1C7432911C2B4A081C111C1A1C01F0D7
:10E3B000F7F9EEE1244BA921C900C919CB181B7844
:10E3C000412B4BD1204BA922D200D219D3185B7814
:10E3D000322B43D10A4EBB1916221A8008483B182B
:10E3E0001B88023B3A1C7432911C1B4A081C111CEE
:10E3F0001A1C01F0D5F9CCE13CFEFF1F54FFFF1FB2
:10E400001E0500000C0500002CFBFFFF63FEFF1F34
:10E41000EFFEFF1F22FFFF1F24FFFF1F04F9FF1F56
:10E42000FF04000030F800006404000038F8000029
:10E430000E0500002F05000018F8000020F800006D
:10E440003B05000056FFFF1F0CFBFFFF2CFAFF1FD0
:10E450000A05000080F9FF1F0FFAFF1FAF4BA9212B
:10E46000C900C919CB181B78412B19D1AB4BA92274
:10E47000D200D219D3185B78332B11D1A84EBB1917
:10E480000A221A80A6483B181B88023B3A1C7432A9
:10E49000911CA44A081C111C1A1C01F081F978E196
:10E4A0009E4BA921C900C919CB181B78422B27D133
:10E4B0009A4BA922D200D219D3185B78302B1FD1E6
:10E4C000994EBB191B889949994A081C111C1A1CA2
:10E4D00001F066F997483B1801221A7090497B18A1
:10E4E00009221A808E4ABB181B88023B3A1C7432E0
:10E4F000911C914A081C111C1A1C01F051F948E1A9
:10E50000864BA926F600F619F3181B78422B24D166
:10E51000824BA920C000C019C3185B78312B1CD1D5
:10E52000824A834B101C191C7C2201F039F9814965
:10E530007B1801221A707A4ABB1809221A80784E79
:10E54000BB191B88023B3A1C7432911C7A4A081C86
:10E55000111C1A1C01F024F91BE1704BA920C0000A
:10E56000C019C3181B78422B24D16C4BA921C900B8
:10E57000C919CB185B78322B1CD1704A6C4B101C1C
:10E58000191C1E2201F00CF96A4ABB1801221A70EC
:10E59000634EBB1909221A8061483B181B88023B55
:10E5A0003A1C7432911C644A081C111C1A1C01F09C
:10E5B000F7F8EEE0594BA921C900C919CB181B780F
:10E5C000422B24D1554BA922D200D219D3185B7803
:10E5D000332B1CD1534A564B101C191C082201F036
:10E5E000DFF8544EBB1901221A704D483B1809221E
:10E5F0001A804B497B181B88023B3A1C7432911CD1
:10E600004D4A081C111C1A1C01F0CAF8C1E0434B0A
:10E61000A922D200D219D3181B78552B25D13F4BF4
:10E62000A926F600F619F3185B78302B1DD1444B60
:10E630003A4AA920C000C019821812881A80414B9A
:10E640001B8841497A1812889A4209D13E4ABB1860
:10E650001B883E493E4A081C111C1A1C01F0A0F8F8
:10E660003C4EBB1901221A7093E02C4BA920C0002C
:10E67000C019C3181B78552B00D079E0274BA9216E
:10E68000C900C919CB185B78312B71D12C4B234AA7
:10E69000A926F600F619B21812881A80294B1B8891
:10E6A0003B2B35D1294B2A4A12881A80204B274A06
:10E6B000111D1A1C0F23081C111C1A1C01F070F8E4
:10E6C000254A264B101C191C082201F069F8244A1F
:10E6D000244B101C191C042201F062F8224B1978FB
:10E6E0001A4AE523D1541A4BD98B184AE623D15242
:10E6F000174B198C154AE823D1521C4B1349FE22A3
:10E7000089181A1C1923081C111C1A1C01F048F83E
:10E7100010483B1801221A703BE0C0460CFBFFFF7B
:10E720001E05000023FAFF1F0A05000080F9FF1FE5
:10E730002EFAFF1F2E0500004CF800000FFAFF1FF5
:10E7400054FFFF1F56FFFF1F0C0500003CFEFF1F7C
:10E750002CFAFF1F2D05000063FEFF1F3DFAFF1F6F
:10E76000EFFEFF1F45FAFF1F49FAFF1F4EFAFF1F7A
:10E770002D4B1B882D497A1812889A4209D12B4AB1
:10E78000BB181B882A492B4A081C111C1A1C01F0B3
:10E7900007F8294EBB191B88002B0DD0274B1B688F
:10E7A00027483C1824497A1811883A1C7432081CEE
:10E7B000111C9847031C23701B4B00221A80214A0E
:10E7C000BB181B78012B14D11F4B1B683F209847A7
:10E7D0001E4B1C681E4EBB191A881E4B3F20002181
:10E7E000A04718483B1800221A701B497B180122C9
:10E7F0001A70194ABB181B78012B01D100F074FA6A
:10E80000A426F600F61933687468181C211C054B01
:10E81000034AFCF71DFFFFF71EFBC046C046C0467B
:10E8200080BB00000000000056FFFF1F0C05000029
:10E830003CFEFF1F2CFAFF1F1E05000004F9FF1FFE
:10E84000FF0400002E050000BCF8FF1F88F8FF1F22
:10E850000A05000080F9FF1F2D050000C046C046D4
:10E8600090B583B000AF7860054B1C687B68181CBE
:10E870003F210022AB23A047BD4603B090BDC04658
:10E8800010F9FF1FF0B583B000AF78607A688E4B47
:10E89000111C1A1C0223081C111C1A1C00F080FFFA
:10E8A0007B688A4A101C191C022200F09EFF7B68BC
:10E8B000997800220A409A70D97800220A40DA70CA
:10E8C0007B681A1C1332824B101C191C0F2200F09B
:10E8D0008CFF7B681A1C22327E4B101C191C0522EF
:10E8E00000F083FF7C4B986E011CDB6E1A1C7B686A
:10E8F000FF200C1C044027201E5C002535402C43C3
:10E900001C540C0AFF20044028201E5C00253540C2
:10E910002C431C540C0CFF20044029201E5C0025B5
:10E9200035402C431C540C0E2A201E5C002535401B
:10E930002C431C54FF20141C04402B201E5C00257B
:10E9400035402C431C54140AFF2004402C201E5C2C
:10E95000002535402C431C54140CFF2004402D206E
:10E960001E5C002535402C431C54110E2E229C5C4D
:10E970000020204001439954574BA7229A5CA821BC
:10E980005B581B021B0A1B0213431A1C7B68FF21E6
:10E99000101C08402F215D5C00242C40204358545B
:10E9A000100AFF21084030215D5C00242C402043E8
:10E9B0005854100CFF21084031215D5C00242C408C
:10E9C00020435854110E32229C5C00202040014309
:10E9D0009954414BA3229A5CA4215B581B021B0A49
:10E9E0001B0213431A1C7B68FF21101C08403321B3
:10E9F0005D5C00242C4020435854100AFF2108403D
:10EA000034215D5C00242C4020435854100CFF211D
:10EA1000084035215D5C00242C4020435854110EE1
:10EA200036229C5C00202040014399547B681A1CCC
:10EA300037322A4B101C191C142200F0D6FE7B68BA
:10EA40001A1C4B32264B101C191C042200F0CDFE60
:10EA50007B681A1C4F32204B101C191C1E2200F020
:10EA6000C4FE7B681A1C6D321E4B101C191C14222C
:10EA700000F0BBFE7B681A1C81321B4B101C191C5A
:10EA8000142200F0B2FE7B681A1C9532174B101C42
:10EA9000191C1E2200F0A9FE7B681A1CCB32144BF5
:10EAA000101C191C0B2200F0A0FE7B68E822985C69
:10EAB000002101409954E922985C002101409954B9
:10EAC000BD4603B0F0BDC04654F8000054FFFF1F20
:10EAD0000FFAFF1F1EFAFF1F80F9FF1FF0F9FF1F3B
:10EAE000E4F9FF1F9EF9FF1FB2F9FF1FC6F9FF1FD0
:10EAF00004FAFF1F00000000B0B586B000AF7860D8
:10EB0000714B1B68591C704A11609AB27B68FF21D7
:10EB100011409C780020204001439970120A92B263
:10EB2000D878002101400A43DA70684B1C68002045
:10EB3000002110220323A047654B1B683C1C1634A0
:10EB40001A209847031C23803B1C16331B88181C73
:10EB5000FEF77AFB031C0C1C181C211C4D4B4C4A65
:10EB6000FDF77AFD031C0C1C181C211C4A4A4B4B58
:10EB7000FDF772FD031C0C1C181C211C484A494B54
:10EB8000FDF700F9031C0C1C181C211C464A474BBE
:10EB9000FDF7F2FF031C0C1C181C211C444A454BBA
:10EBA000FDF7F0F8031C0C1C434844491A1C231CB5
:10EBB000FDF7E2FF031C0C1C181C211C404A414BB2
:10EBC000FDF74AFD031C0C1C181C211CFEF708FB5A
:10EBD000021C7B68FF21101C0840B3215D5C0024EF
:10EBE0002C4020435854100AFF210840B4215D5C9A
:10EBF00000242C4020435854100CFF210840B5211C
:10EC00005D5C00242C4020435854110EB6229C5CBD
:10EC100000202040014399542D4B1B683C1C1434A8
:10EC200007209847031C23807B683A1C1432107815
:10EC3000E6215D5C00242C40204358545178E722A3
:10EC40009C5C0020204001439954224B1B687A6849
:10EC50000432101C9847204B1B687A68D632101C6F
:10EC600098471E4B1B683A1C1332101C98473B1CDC
:10EC7000133319787A68E523D154194B1B687A68E5
:10EC8000FE32101C9847BD4606B0B0BDC046C04617
:10EC90006666666666660A400000000000408F40B7
:10ECA00000000000E0FFEF40000000000078864018
:10ECB000713D0AD7A370FB3F0000000000003940FF
:10ECC000000000000000244000F8FF1F38F9FF1F7B
:10ECD000D4F8FF1F7CF9FF1F18F9FF1F9CF8FF1FD6
:10ECE000CCF8FF1FC046C04680B500AFBD4680BD12
:10ECF000F0B593B000AF786139613B1C0F331A70E7
:10ED00003B1C1C335E4A13CA13C313CA13C313CA72
:10ED100013C312781A703B1C433300221A707B69AC
:10ED20007B643B1C43331B783A1C4332591C1170E3
:10ED30003A69D4183B1C0F331B787A6C101C191CD1
:10ED4000FCF73CFC0B1C3A1C1C32D35C23703B1CB4
:10ED50000F331B78786C191CFCF7ECFB031C7B64ED
:10ED60007B6C002BDDD13B1C43331B783A69D318F5
:10ED700000221A703B691B782D2B04D13B1C4133B8
:10ED800001221A7003E03B1C413300221A703B1C25
:10ED900042333A1C413212781A7033E03B1C423342
:10EDA0001B783A69D3181B787B613B1C42331B7874
:10EDB0003A69D3183A1C433211783A1C423212781D
:10EDC0008A1A511E3A1C413212788A1839698A18F7
:10EDD00012781A703B1C43331A783B1C42331B7861
:10EDE000D31A5A1E3B1C41331B78D3183A69D318E7
:10EDF0007A69D2B21A703B1C42331A783B1C4233F8
:10EE000001321A703B1C42331B78181CFEF71CFAA7
:10EE1000051C0E1C3B1C43331B78013B181CFEF7E2
:10EE200013FA031C0C1C181C211C144B124AFCF76F
:10EE3000A9FF031C0C1C3B607C603B1C41331B780E
:10EE4000181CFEF701FA031C0C1C386879681A1CA0
:10EE5000231CFCF775FC031C0C1C281C311C1A1C01
:10EE6000231CFCF7D7FB031C002B97D13B69181C14
:10EE7000BD4613B0F0BDC0460000000000000040D9
:10EE8000F8F80000C046C04680B5C6B000AFAC235D
:10EE90001B028A214900C9190B60FD4B8C214900D6
:10EEA000C919CA188A214900C9190B68111C1A1CF2
:10EEB0008A235B00081C111C1A1C00F071FCF44B27
:10EEC0008C225200D219D3181B681A1CF14B1A60FD
:10EED000EF4B8C214900C919CB185B681A1CEE4B0B
:10EEE0001A60EB4B8C225200D219D3189B681A1C63
:10EEF000EA4B1A60E64B8C214900C919CB18DB6834
:10EF00001A1CE74B1A60E24B8C225200D219D3181C
:10EF10001B691A1CE34B1A60DD4B8C214900C9198F
:10EF2000CB185B691A1CE04B1A60D94B8C2252003B
:10EF3000D219D3189B691A1CDC4B1A60D44B8C2154
:10EF40004900C919CB18DB691A1CD94B1A60D04B80
:10EF50008C225200D219D3181B6A1A1CD54B1A6086
:10EF6000CB4B8C214900C919CB185B6A1A1CD24BB8
:10EF70001A60C74B8C225200D219D3189B6A1A1CF4
:10EF8000CE4B1A60C24B8C214900C919CB18DB6AE1
:10EF90001A1CCB4B1A60BE4B8C225200D219D318CC
:10EFA0001B6B1A1CC74B1A60B94B8C214900C9193D
:10EFB000CB185B6B1A1CC44B1A60B54B8C225200E9
:10EFC000D219D3189B6B1A1CC04B1A60B04B8C2102
:10EFD0004900C919CB18DB6B1A1CBD4B1A60AC4B2E
:10EFE0008C225200D219D3181B6C1A1CB94B1A6010
:10EFF000A74B8C214900C919CB185B6C1A1CB64B66
:10F000001A60A34B8C225200D219D3189B6C1A1C85
:10F01000B24B1A609E4B8C214900C919CB181B6951
:10F020001A1CAF4B1A609A4B8C225200D219D3187B
:10F030001B6D1A1CAB4B1A60954B8C214900C919EA
:10F04000CB185B6D1A1CA84B1A60914B8C22520096
:10F05000D219D3189B6D1A1CA44B1A608C4B8C21AF
:10F060004900C919CB18DB6D1A1CA14B1A60884BDB
:10F070008C225200D219D3181B6E1A1C9D4B1A6099
:10F08000834B8C214900C919CB185B6E1A1C9A4B13
:10F090001A607F4B8C225200D219D3189B6E1A1C17
:10F0A000964B1A607A4B8C214900C919CB18DB6E3C
:10F0B0001A1C934B1A60764B8C225200D219D3182B
:10F0C0001B6F1A1C8F4B1A60714B8C214900C91998
:10F0D000CB185B6F1A1C8C4B1A606D4B8C22520044
:10F0E000D219D3189B6F1A1C884B1A60684B8C215D
:10F0F0004900C919CB18DB6F1A1C854B1A60644B89
:10F100008C214900C919CA188023D3581A1C814B75
:10F110001A605F4B8C214900C919CA188423D3583F
:10F120001A1C7D4B1A605A4B8C214900C919CA1808
:10F130008823D3581A1C794B1A60554B8C214900EF
:10F14000C919CA188C23D3581A1C754B1A60504B16
:10F150008C214900C919CA189023D3581A1C714B25
:10F160001A604B4B8C214900C919CA189423D358F3
:10F170001A1C6D4B1A60464B8C214900C919CA18DC
:10F180009823D3581A1C694B1A60414B8C214900B3
:10F19000C919CA189C23D3581A1C654B1A603C4BDA
:10F1A0008C214900C919CA18A023D3581A1C614BD5
:10F1B0001A60374B8C214900C919CA18A423D358A7
:10F1C0001A1C5D4B1A60324B8C214900C919CA18B0
:10F1D000A823D3581A1C594B1A602D4B8C21490077
:10F1E000C919CA18AC23D3581A1C554B1A60284B9E
:10F1F0008C214900C919CA18B023D3581A1C514B85
:10F200001A60234B8C214900C919CA18B423D3585A
:10F210001A1C4D4B1A601E4B8C214900C919CA1883
:10F22000B823D3581A1C494B1A60194B8C2149003A
:10F23000C919CA18BC23D3581A1C454B1A60144B61
:10F240008C214900C919CA18C023D3581A1C414B34
:10F250001A600F4B8C214900C919CA18C423D3580E
:10F260001A1C3D4B1A600A4B8C214900C919CA1857
:10F27000C823D3581A1C394B1A60054B8C214900FE
:10F28000C919CA18CC23D3581A1C354B1A6069E027
:10F29000E8FEFFFF5CF9FF1F38F9FF1FD4F8FF1FDE
:10F2A000C4F8FF1FBCF8FF1F88F8FF1F10F9FF1FED
:10F2B00090F8FF1FB0F8FF1F44F9FF1F78F9FF1FF8
:10F2C00064F9FF1FF0F8FF1F6CF9FF1F4CF9FF1FD7
:10F2D00048F9FF1F08F9FF1F8CF8FF1F20F9FF1FD7
:10F2E000B4F8FF1F94F8FF1F00F9FF1F2CF9FF1F50
:10F2F000C8F8FF1FA4F8FF1F6CFFFF1F68FFFF1F68
:10F3000058FFFF1F60FFFF1F64FFFF1F70FFFF1FFD
:10F310005CFFFF1F40F9FF1FECF8FF1FB8F8FF1F4D
:10F3200028F9FF1FFCF8FF1FD0F8FF1FE8F8FF1FA8
:10F3300058F9FF1FA0F8FF1FE4F8FF1F14F9FF1F83
:10F34000DCF8FF1FA8F8FF1FC0F8FF1FD8F8FF1F49
:10F35000F4F8FF1F74F9FF1F60F9FF1F34F9FF1F56
:10F3600050F9FF1F584B8C214900C919CA18D023E6
:10F37000D3581A1C554B1A60534B8C214900C9199C
:10F38000CA18D423D3581A1C514B1A604E4B8C21E7
:10F390004900C919CA18D823D3581A1C4D4B1A60F2
:10F3A000494B8C214900C919CA18DC23D3581A1CAF
:10F3B000494B1A60444B8C214900C919CA18E023F3
:10F3C000D3581A1C454B1A603F4B8C214900C91970
:10F3D000CA18E423D3581A1C414B1A603A4B8C21AB
:10F3E0004900C919CA18E823D3581A1C3D4B1A60A2
:10F3F000354B8C214900C919CA18EC23D3581A1C63
:10F40000394B1A60304B8C214900C919CA18F023B6
:10F41000D3581A1C354B1A602B4B8C214900C91943
:10F42000CA18F423D3581A1C314B1A60264B8C216E
:10F430004900C919CA18F823D3581A1C2D4B1A6051
:10F44000214B8C214900C919CA18FC23D3581A1C16
:10F45000294B1A601C4B8C214900C919CA188023FA
:10F460005B00D3581A1C254B1A60174B8C2149009E
:10F47000C919CA1882235B00D3581A1C204B1A6082
:10F48000114B8C214900C919CA1884235B00D35839
:10F490001A1C1C4B1A600C4B8C214900C919CA1844
:10F4A00086235B00D3581A1C174B1A60064B8C211D
:10F4B0004900C919CA1888235B00D3581A1C134B7A
:10F4C0001A60BD4646B080BDE8FEFFFF04F9FF1F8D
:10F4D00018F9FF1F7CF9FF1F70F9FF1F9CF8FF1F31
:10F4E00068F9FF1F30F9FF1F98F8FF1FCCF8FF1FC6
:10F4F000F8F8FF1F3CF9FF1F54F9FF1FE0F8FF1F4A
:10F50000ACF8FF1F24F9FF1F0CF9FF1F1CF9FF1FA8
:10F5100080B584B000AF0F4B9B68BB600E4B7B6027
:10F520000023FB600CE0FB689B007A68D318FA6844
:10F530009200B9688A1812681A60FB680133FB6090
:10F54000FB682F2BEFDD034B034A9A60BD4604B0E6
:10F5500080BDC04600ED00E000F8FF1F80B584B01C
:10F5600000AF021C3960FB1D1A70074B9B68FB60E3
:10F57000FB1D1B785BB210339B00FA68D3183A6806
:10F580001A60BD4604B080BD00ED00E080B582B0D9
:10F5900000AF0A1CBB1D011C19807B1D1A70064B95
:10F5A0001B68BA1D11887A1D1278081C0121984722
:10F5B000BD4602B080BDC04678F9FF1F80B582B05D
:10F5C00000AF021CBB1D1A80044B1B68BA1D1288B9
:10F5D000101C9847BD4602B080BDC0466CF9FF1FA5
:10F5E00080B500AF00F08EF83C4A3D4BC021890247
:10F5F000D1503A4A39493B4BCB58802189001943B5
:10F60000384BD150384B9B78DBB21A1C082313407F
:10F6100007D0354B344A9278D2B208210A43D2B28D
:10F620009A702E4A2E4B80214902D1502B4A2B49E9
:10F630002E4BC9582E4B19402C4BD150274B274AE3
:10F6400011682C4A0A401A60244A2449274BC95899
:10F65000294B0B40802149041943244BD150274B9F
:10F6600006221A70254B254A5278D1B240220A4010
:10F67000D2B25A70214B214AD278D2B2D2B2111CE6
:10F680001F220A40D2B2602149420A43D2B2D2B20A
:10F69000DA701B4B00221A70184B00221A71174B9C
:10F6A00000225A71C046154B9B79DBB21A1C1023FD
:10F6B0001340F8D0C046114B9B79DBB21A1C0C23C7
:10F6C0001340F8D1054A0549064BCB58F82189016A
:10F6D0001943044BD150BD4680BDC0460070044064
:10F6E000441000003810000000D007400410000053
:10F6F000FFFFFCFFFFFFF3FFFFFFFFFC00400640A2
:10F700000050064080B500AF064A064988235B01D9
:10F71000CB580C21181C8843011C88235B01D15055
:10F72000BD4680BD00700440084B10B5041C002B82
:10F7300002D0002100E000BF054B1868836A002B4F
:10F7400000D09847201C00F065F8C046000000007B
:10F75000A4F9000070B50E4B0E4D0024ED1AAD104B
:10F760001E1CAC4204D0A300F35898470134F8E7BC
:10F7700000F01AF9084B094D0024ED1AAD101E1CBB
:10F78000AC4204D0A300F35898470134F8E770BDA9
:10F79000C8F90000C8F90000C8F90000CCF9000061
:10F7A00010B50023934203D0CC5CC4540133F9E775
:10F7B00010BD031C8218934202D019700133FAE77E
:10F7C000704710B5021C1378002B01D00132FAE704
:10F7D000CC5CD4540133002CFAD110BD0023C25CA0
:10F7E0000133002AFBD1581E704730B5031C002A94
:10F7F00007D00C7801335D1E013A2C700131002CCA
:10F80000F5D19A18934203D0002119700133F9E71A
:10F8100030BD0000FEE7C046CCE1CABE46312D0037
:10F82000A3AC5545B3F5CABCBBAFCAA7B0DC00005A
:10F83000CCE1CABE46322D00A3AC5545B7A2CBCD14
:10F84000CAFDBEDDCAA7B0DC0000000073756363AB
:10F85000657373005530000025660000BBF1C8A138
:10F86000B6A8CEBBD0C5CFA2CAA7B0DC0D0A000097
:10F87000BBF1C8A1B6A8CEBBD0C5CFA2B3C9B9A6AB
:10F880000D0A0000BBF1C8A1CAB1BCE4CAA7B0DC34
:10F890000D0A0000BBF1C8A1CAB1BCE4D0C5CFA21B
:10F8A000B3C9B9A60D0A0000BBF1C8A1CBD9B6C82F
:10F8B000CAA7B0DC0D0A0000BBF1C8A1CBD9B6C8FD
:10F8C000B3C9B9A60D0A0000BBF1C8A1B8DFB6C81C
:10F8D000CAA7B0DC0D0A0000BBF1C8A1B8DFB6C8EA
:10F8E000B3C9B9A60D0A0000C4EA0000D4C20000E2
:10F8F000C8D500003A000000303132333435363795
:10F9000038394142434445464748494A4B4C4D4E9D
:10F910004F505152535455565758595A00000000F1
:10F920006CBF000008BF000050BF000036BE0000E2
:10F9300050BF000044BF000050BF000036BE0000B2
:10F9400008BF000008BF000044BF000036BE000032
:10F950002CBE00002CBE00002CBE000090C1000098
:10F960003CC800002ACA00002ACA00001CC80000C7
:10F9700006C7000006C700000EC800001CC8000033
:10F9800006C700000EC8000006C700001CC8000023
:10F9900004C7000004C7000004C7000032CA00000A
:10F9A0004300000004F8FF1FF8B5C046F8BC08BCCF
:10F9B0009E467047F8B5C046F8BC08BC9E467047E6
:08F9C000B0BAFF7F0100000056
:04F9C80039B400004E
:04F9CC0011B4000072
:10FC000020A1BEBDF0BAF9C2ABCEEFC1AACDF8A11A
:10FC1000BF2041484C2D496F542D47454320323178
:10FC2000353030302D3030303030302D30303030D5
:10FC3000303141484C2D3130312D314143A1BE4D41
:10FC400036323230A1BF2020BDF0BAF9C2ABCEEFC0
:10FC5000C1AACDF8D3D0CFDED4F0C8CED6C6B9ABCA
:10FC6000CBBE202056332E3276621A5B0000000095
:10FC7000CBD5D6DDB4F3D1A7C8EDBCFEBFAAB7A2E1
:10FC8000C8CBD4B131333030303030303030303117
:10FC900032322E3131322E3231372E31393738303F
:0CFCA00039330058020000000000000092
:10FCAC000400000000000000000000000000000044
:10FCBC000000000000000000000000000000000038
:10FCCC0000000000A0F9000000000000000000008F
:10FCDC000000000000000000000000000000000018
:10FCEC000000000000000000000000000000000008
:10FCFC0000000000000000000000000000000000F8
:08FD0C000000000000000000EF
:040000030000B4E95C
:00000001FF
