:1088000000180020D18C0000158D0000158D00008F
:108810000000000000000000000000000000000058
:10882000000000000000000000000000158D0000A6
:108830000000000000000000158D0000158D0000F4
:10884000158D0000158D0000158D0000158D0000A0
:10885000158D0000158D0000158D0000158D000090
:10886000158D0000158D0000158D0000158D000080
:1088700051AE0000158D0000158D0000158D000013
:10888000158D0000158D0000158D0000158D000060
:10889000158D0000158D0000158D0000158D000050
:1088A000158D0000158D0000158D0000158D000040
:1088B000158D0000158D0000158D0000158D000030
:108C0000FFFFFFFFFFFFFFFFFFFFFFFFFEFFFFFF75
:108C100010B5064C2378002B07D1054B002B02D052
:108C2000044800E000BF0123237010BD6408002049
:108C3000000000002CEF0000044B10B5002B03D007
:108C40000349044800E000BF10BDC046000000001A
:108C5000680800202CEF0000164B002B00D1144BAD
:108C60009D46402292029A1A924600218B460F4658
:108C70001348144A121A05F04CFB0F4B002B00D07E
:108C800098470E4B002B00D098470020002104008D
:108C90000D000D48002802D00C4800E000BF05F090
:108CA0000BFB2000290002F023F905F0EFFAC04683
:108CB0000000080000180020000000000000000074
:108CC00064080020700F0020000000000000000079
:108CD00072B605F037FA62B609490A4A0A4B9B1A7E
:108CE00003DD043BC858D050FBDC0849084A521A3F
:108CF00003DD00208850043AFCDAFFF7ADFF0000E6
:108D0000ACFC00000008002064080020640800207B
:108D1000700F002000480047158D00000022430816
:108D20008B4274D303098B425FD3030A8B4244D333
:108D3000030B8B4228D3030C8B420DD3FF22090275
:108D400012BA030C8B4202D31212090265D0030B34
:108D50008B4219D300E0090AC30B8B4201D3CB032A
:108D6000C01A5241830B8B4201D38B03C01A52416C
:108D7000430B8B4201D34B03C01A5241030B8B426E
:108D800001D30B03C01A5241C30A8B4201D3CB0259
:108D9000C01A5241830A8B4201D38B02C01A52413E
:108DA000430A8B4201D34B02C01A5241030A8B4241
:108DB00001D30B02C01A5241CDD2C3098B4201D359
:108DC000CB01C01A524183098B4201D38B01C01AD7
:108DD000524143098B4201D34B01C01A524103094E
:108DE0008B4201D30B01C01A5241C3088B4201D3FD
:108DF000CB00C01A524183088B4201D38B00C01AAA
:108E0000524143088B4201D34B00C01A5241411AD0
:108E100000D20146524110467047FFE701B50020DD
:108E200000F006F802BDC0460029F7D076E770478B
:108E30007047C0468446101C62468C46191C634627
:108E400000E0C0461FB500F0D3FF002801D4002188
:108E5000C8421FBD10B500F02BFF4042013010BDCD
:108E600010B500F0C5FF002801DB002010BD012077
:108E700010BDC04610B500F0BBFF002801DD00208A
:108E800010BD012010BDC04610B500F04DFF0028F8
:108E900001DC002010BD012010BDC04610B500F05F
:108EA00043FF002801DA002010BD012010BDC0469C
:108EB000002B11D1002A0FD1002900D1002802D0A7
:108EC0000021C943081C07B4024802A140180290BF
:108ED00003BDC0465DFFFFFF03B4684601B50298BD
:108EE00000F006F8019B9E4602B00CBC7047C046DD
:108EF000F0B54F464646D646C0B5040082B00D00D8
:108F0000914698468B422FD82CD04146484601F0D6
:108F1000A3FE29000600200001F09EFE331A9C46A5
:108F2000203B9A4600D576E04B46524693401F00C0
:108F30004B46624693401E00AF4228D825D0534688
:108F4000A41BBD41002B00DA7BE00022002300922D
:108F500001930123524693400193012362469340BB
:108F6000009318E08242D0D900220023009201939E
:108F70000A9B002B01D01C605D600098019902B033
:108F80001CBC90469946A246F0BDA342D7D9002208
:108F90000023009201936346002BE9D0FB0798461B
:108FA000414672080A437B0866460EE0AB4201D197
:108FB000A2420CD8A41A9D41012024196D41002120
:108FC000013E24184D41002E06D0AB42EED9013EA1
:108FD00024196D41002EF8D10098019953460019CB
:108FE0006941002B23DB2B005246D3402A00644604
:108FF000E2401C0053461500002B2DDB260057468F
:10900000BE40330026006746BE403200801A9941B8
:1090100000900191ACE7624620239B1A4A46DA4051
:109020006146130042468A4017001F4380E76246AC
:1090300020239B1A2A0066469A402300F3401343DC
:10904000D4E76246202300219B1A0022009101925E
:109050000122DA40019280E72023624626009B1A13
:10906000DE402F00B0466646B74046463B003343DD
:10907000C8E7C046F0B54F464646D6460C00090341
:10908000C0B5490A470F5E0039431F03DB0F9C46FA
:1090900065007B0A570F1F436D0DE40F760DA14647
:1090A000C000B846D200AB1B64457BD0002B5FDD0F
:1090B000002E00D0A4E03E00164300D112E15E1E57
:1090C000002E00D09EE1871A4346B8428041012518
:1090D000C91A4042091A0B0200D431E149024E0A72
:1090E000002E00D16EE1300001F098FD0300083B36
:1090F0001F2B00DD61E120223900D21A9E40D140B1
:109100009F400E439D4200DD51E15D1B6B1C1F2BF8
:1091100000DD7CE12021C91A3D0030008F408840ED
:10912000DD40791E8F41310007222843D9400025B8
:1091300007433A40002A09D00F233B40042B05D0B7
:109140003B1DBB42BF417F42C9191F000B0200D427
:1091500026E26A1CC64B55056D0D9A4200D106E108
:10916000C44AFF080A40530752023B43120B8EE0E9
:10917000002B00D0B8E06B1C5B055B0D012B00DC05
:1091800030E1871A4346B842B641CB1A76429E1B5D
:10919000330200D54CE13B003343A1D1002200242F
:1091A000002570E0002B00DCE5E0002E00D183E01C
:1091B000AF4EB54260D0802636043743B846382BD0
:1091C00000DC3EE1434613431F007A1E97413F18DF
:1091D00087428041404209180B0200D4B0E0A44B02
:1091E00001359D4200D1C3E0A24A7B080A4001211B
:1091F0000F401F435108D30707221F433A4099E706
:109200009B4EB54238D0802636043743B846382BBB
:1092100000DDDCE01F2B00DC30E11E004746203E75
:10922000F740BC46202B04D04026F31A46469E4009
:109230003243170063467A1E97411F43CCE0002B50
:1092400000D104E24346134300D159E14B07C00863
:1092500018438023C9081B03194208D04546ED086E
:109260001D4204D14346D008590708432900420F44
:10927000C9007F4D1143C0004B07CA087C49C00894
:1092800003438D4268D012036D05120B6D0D002152
:1092900012031800130B0A0D12051A43764B2D0505
:1092A00013402B435B00E4075B08234319001CBCFD
:1092B00090469946A246F0BD3E00164312D05E1E6F
:1092C000002E00D000E1871887428041414440428F
:1092D000091801250B0233D5022585E764463300C2
:1092E000414610001D00C7E7002D00D0DAE00C0059
:1092F0000443F3D05C1C00D19FE15D4CA64200D139
:109300002FE1DB43382B00DD66E11F2B00DD83E11D
:1093100020240500E41A0F00DD40D940A040434658
:10932000A7405B1A441EA04198462F433843171AA2
:10933000BA42924143465242991A64463500CAE6FF
:1093400007223A40002A00D0F6E64B07CA084849EF
:10935000FF083B438D4296D11900114300D19EE195
:10936000802109030A431203120B414D8FE71500B8
:10937000002200238BE7002B00D0C7E06B1C5F05A9
:109380007F0D012F00DCF1E0394DAB4200D1B9E097
:1093900085180A00854289414244494251180722F2
:1093A000CF076D082F4349083A401D00C2E6072247
:1093B0003049ED1A31403A40BCE63E00283886403C
:1093C00000279FE6380001F029FC20308EE6434656
:1093D00013431F007A1E9741C71BB8428041404289
:1093E000091A78E60E003B0006431343002D61D1B5
:1093F000002E00D0F4E0002B00D11BE164463900C0
:10940000100039E71A4FBB427AD03300FFE6300034
:109410001F3DE840202B03D04021CB1A9E4037430C
:109420007B1E9F41072207433A400021002589E720
:10943000171A4346BA42B641591A76428E1B644601
:109440004EE61F2B00DDADE020264746F61AB7405A
:10945000B9461700B246DF404E463E4337005646F7
:10946000B240561EB24117434246DA408918AEE672
:10947000FF070000FFFF7FFFFFFF0F80202647460A
:10948000F61AB740B9461700B246DF404E463E4393
:1094900037005646B240561EB24117434246DA40A4
:1094A000891A99E77F4CA6425BD0802424045B4252
:1094B000214327E7002E0CD1002B00D1CBE06446DE
:1094C00039001000774DD7E6764FBB4218D03300F5
:1094D00075E6002B14D04B07C00818438023C90839
:1094E0001B03194207D0FC081C4204D17907D0089D
:1094F0000843E14621004C46420FC9001143C00019
:10950000684DB9E61D0000220023C0E6002D5BD1A6
:109510000D00054300D1E2E65D1C00D1B0E0614DD5
:10952000AE421FD0DB43382B71DC1F2B00DD96E0F1
:1095300020250F00ED1AAF40B9460700AA46DF40CC
:109540004D463D432F005546A840D940451EA841F1
:1095500088440743BF189742924151424144350025
:109560003AE6644635004146100085E60B000343A9
:10957000002D00D063E6002BF5D04346134300D105
:109580007AE6871887428041072241444042091801
:109590003A400B0200D4D5E6434B01351940C9E5EA
:1095A000380069E61E004746203EF740BC46202BA7
:1095B00004D04026F31A46469E40324317006346C5
:1095C0007A1E97411F4302E6364DAE42CAD080252F
:1095D0002D045B422943A6E70843411E8841A6E6C5
:1095E000002B00D148E6871A4346B842B641CB1A51
:1095F00076429E1B33024BD5171A4346BA4292411C
:10960000591A5242891A072264463A4092E50143A8
:109610000F00791E8F419DE71C000F00203CE740A2
:10962000202B03D04024E31A99400843411E88416F
:1096300038437CE60022002425E6171A4346BA4246
:109640009241591A5242891A6446350043E541460F
:109650001000144D10E680220024120380E61D0045
:109660000F00203DEF40BC46202B03D04025EB1AD5
:109670009940084307006346781E87411F4369E706
:10968000871897429B4141445B42C9183500A3E5C6
:109690003B003343CED0072231003A4052E600234C
:1096A0001A00F4E5FF070000FFFF7FFFF0B5574603
:1096B000DE464E464546E0B5834607000E034800A9
:1096C00085B092461C00360B400DCD0F002800D10E
:1096D0009DE0954B984239D08023F6001B041E4331
:1096E000924A7B0F334399469446030063440093A8
:1096F00000230026FF00029323031B0B9846630000
:10970000E40F52465B0D019400D1B3E086498B42D1
:1097100000D19EE04246D100802212040A43514605
:10972000490F11438B46814952468C460099634448
:10973000CB1A0021D20000932B0063409A460F2ED3
:1097400000D905E17A4BB6009B599F465B463343EF
:10975000994600D0B8E00223082600270090029323
:10976000CAE7CB463A0002990195019B9A46022925
:1097700027D0032900D180E2012944D06D49009B04
:109780008C4663441C00002C38DD530700D013E2E4
:10979000D2085B46DB0109D55946674B19408B4619
:1097A0008021C9008C46009B63441C00634B9C4293
:1097B00007DC5B4664055F075B0217431B0B620D0A
:1097C00002E000230027584A00211B031C0B0B0D4D
:1097D0001B05234314055A4A380013401C435346C3
:1097E0006400DB0764081C43210005B03CBC9046C4
:1097F0009946A246AB46F0BD0122524201231B1BF3
:10980000382B00DCADE1002200230027DCE75B46BB
:10981000334399465ED0002E00D18AE1300001F03A
:10982000FDF903000B3B1C2B00DD7BE11D22D31A4D
:109830005A460100DA4008398E4013005F46334330
:1098400099468F403F4B00261B1A0093002302933A
:1098500052E7414653460B433B499B468C46009B8F
:10986000634400935B46002B3BD1022300221E433E
:10987000022161E7434613439B4637D04346002B02
:1098800000D162E1404601F0C9F903000B3B1C2BFB
:1098900000DD53E102004146083A914088461D210F
:1098A000CB1A5146D9400B0041460B439B465346C9
:1098B00093401A00009B25499C46604403008C4657
:1098C00063440093002137E70323B14600900C2640
:1098D000029311E70023009301330426002702932B
:1098E0000AE70323C3461E43032125E701331E4332
:1098F0000022012120E700239A46802300271B0332
:10990000094A61E7802349461B03194200D1E2E07E
:109910005946194200D0DEE00B431B0317001B0B16
:10992000A246014A50E7C046FF07000001FCFFFFC6
:10993000D0E70000FF030000FFFFFFFEFE0700006E
:10994000FFFF0F800DFCFFFF01F8FFFFF303000096
:10995000D94500D9CBE000D1C6E03C0048460027FD
:10996000009B013B00935B46160E1B021E43130235
:10997000984633041B0C9946310C0191FFF754FAB9
:109980004A4642430B04210C050019438A4207D979
:109990008919013D8E4203D88A4201D9851E891951
:1099A000881A0199FFF740FA09048C464A462104B7
:1099B00064464243090C030021438A4204D98919B1
:1099C000013B8E4200D8F1E02D041D43AB464346D7
:1099D000891A4246280C12041D0C5B46140C220006
:1099E0001B041B0C5A4303946B4344430295684386
:1099F0001B19150CEB189C4203D980246402A44661
:109A000060441C0C15041B042D0C20185D198142A8
:109A100077D373D00C1AA24A7D1BAF42BF41944644
:109A2000009B7F426344E01B1C00864200D1DBE0C8
:109A30000199FFF7F9F94A4642430B04290C070044
:109A400019438A4207D98919013F8E4203D88A42B5
:109A500001D9871E8919881A0199FFF7E5F90904C8
:109A60004A46894629044D464243090C03002943CE
:109A70008A4207D98919013B8E4203D88A4201D90B
:109A8000831E89193F04891A3A00039F1A4338003C
:109A900013041B0C584381460298150C6F43434333
:109AA00045434846000C8446DB1963449F4203D972
:109AB000802040028446654448461F0C00041B0475
:109AC000000C7D191818A94200D284E000D17FE073
:109AD00001231A4357E680234A461B0313431B0303
:109AE0001B0BAA466F4A6FE6BA4200D935E74B46D0
:109AF000DC0758087B081C43FF0734E70024AF420B
:109B000089D247444745A4415B466442A41964187E
:109B1000013BA6421ED2A0426DD800D1B6E0241A65
:109B20009B4678E703005A46283B9A400027914617
:109B300088E6584601F072F8203072E6030052467B
:109B4000283B9A4093460022B4E6504601F066F85E
:109B500020309AE6A642E2D1B845DCD9341A9B46B9
:109B600059E71F2B65DC504C0099A4465C466144C4
:109B700008008C4011008240D940501E82410C43A5
:109B800014435A46DA401300620709D00F222240DC
:109B9000042A05D02200141D9442894149425B18D1
:109BA0001A0262D50122002300270DE68A4200D85E
:109BB0000AE7831E891907E70F231340042B00D1FE
:109BC000E6E5171D9742924153429B44FA08E0E5AF
:109BD000002800D1D7E57118531EB14227D3A942FE
:109BE00015D358D01A0073E7002B00DC04E60123DC
:109BF00000229B44CDE502234744474589415B420F
:109C00009C46494289190C19E344241A03E7434648
:109C10005F0047459B41B8465B429E19023A89194D
:109C2000A94200D054E7404500D051E7ABE51A0007
:109C3000F6E71F215F4649420C1BE740202B07D067
:109C40001A49009B8C46634418005B4683401A43C4
:109C5000501E82413A4307270023174009D00F21A5
:109C6000002311401400042995D122005F075B02F4
:109C70001B0BD20817430022A6E5802359461B037D
:109C80000B431B0317001B0B064A9DE5BD42B2D8D0
:109C90009B460024BFE68045B9D31A00C3E7C046FF
:109CA000FF030000FF0700001E0400003E04000048
:109CB000F0B54F464646D6468446C0B58046194E56
:109CC00018030F034D00000B5C0082463F0B6D0D27
:109CD000C90F9146640DDB0F0120B5420AD0B44292
:109CE00003D0A54201D157450CD01CBC90469946E3
:109CF000A246F0BD66463E43F7D1AC42F5D154468C
:109D00001443F2D10120C845EFD1994207D0002D6C
:109D1000EBD163461F433800471EB841E5E70020FA
:109D2000E3E7C046FF070000F0B54F464646D6467B
:109D30004D00C0B50E03C90F8A462C491F035C00B5
:109D40008046360B6D0D91463F0B640DDB0F8D4247
:109D50001ED08C4216D0002D1ED130438446002CDC
:109D600001D13A4323D06246002A1AD09A4529D01D
:109D7000514602200139084001381CBC90469946E2
:109D8000A246F0BD39001143E5D002204042F4E77D
:109D90003043FAD1AC420FD0002C0FD13A43E7D078
:109DA0000CE00122013B934318000130E5E76346D4
:109DB0000020002BE1D0DBE73A43E6D19A45D7D12A
:109DC000A542D5DCA54205DBBE42D1D808D0002093
:109DD000BE42D2D250460123013898430130CCE72D
:109DE000C845C5D80020C845F4D3C6E7FF07000022
:109DF000F0B54F464646D6464D00C0B50E03C90FD6
:109E00008A462E491F035C008046360B6D0D914635
:109E10003F0B640DDB0F8D4218D08C4211D0002D0A
:109E200018D130438446002C1ED13A431CD16346DE
:109E30000020002B30D05146022001390840013863
:109E40002AE039001143EAD0022025E03043FBD15B
:109E5000AC4226D0002C26D13A4324D151460220D0
:109E600001390840013817E06246002A0FD09A45B0
:109E7000E1D1A54205DBBE42DDD819D00020BE42AB
:109E80000AD25046012301389843013004E00122F0
:109E9000013B9343180001301CBC90469946A246F2
:109EA000F0BD3A43D0D19A45C5D1A542C3DCE0E725
:109EB000C845C0D80020C845E3D3EDE7FF07000040
:109EC000F0B55746DE464E464546E0B583460600A9
:109ED0000F03480087B092461D003F0B400DCC0F8A
:109EE000002800D16FE0DE4B984238D08023FF007D
:109EF0001B041F43730F3B430193DA4B0027994622
:109F000000239B46F60081442B0369001B0B52463D
:109F10009846490DED0F002900D185E0D04B9942BC
:109F200000D173E04346DA0080231B0413435246FA
:109F3000CC48520F84461343524600206144D2005D
:109F400089442100694000918C46012149448A4698
:109F50000F2F00D990E0C449BF00CF59BF465B46E0
:109F60003B43019300D06AE1022308270026814683
:109F70009B46C9E732005846019B61460091022882
:109F800000D175E0032800D1FEE1012800D02CE1CA
:109F900000230027002600253F032A0D3F0BB3486E
:109FA00012053A4302401B051343009A5B00D10798
:109FB0005B080B433000190007B03CBC9046994643
:109FC000A246AB46F0BD5B463B43019300D12FE177
:109FD000002F00D1A5E1380000F020FE03000B3B6C
:109FE0001C2B00DD96E11D22D31A5A460100DA40EF
:109FF0005E4608398F4013008E403B4301939C4BD3
:10A0000000271B1A994600239B467DE7414653468D
:10A010000B4393498C46E144002B00D01AE1022205
:10A020000220174300228CE7134300D10DE1434681
:10A03000002B00D181E1404600F0F0FD02000B3A18
:10A040001C2A00DD72E10100434608398B40984626
:10A050001D239A1A5346D3401A00434613435246CF
:10A060008A404946081A824989468144002068E7A7
:10A070007B4B002700268EE7140C1204120C1100F3
:10A08000370C3604350C794328008C462E0060438B
:10A090006044834656432100300C8046584679433D
:10A0A00040440291844506D98846802149028C4665
:10A0B000E044414602913604010C360C00048B4604
:10A0C00081191E0C1B041B0C0391190079438C464B
:10A0D000280075436544A8465843050C454477431A
:10A0E000A94203D9802149028C466744290C8C4639
:10A0F00039000004000C2D042D186144AB44059177
:10A100005946049101990F043F0C080C3900514342
:10A110004243904602008C46090C8B4662437C43C6
:10A1200044445C44A04503D9802149028846424406
:10A13000210C884661460904090C8C4639005943B4
:10A14000434370437E430F0CF6182404BE19644445
:10A1500042448C46B34203D980235B029846404474
:10A16000029B61469846049B370443449B46AB459B
:10A17000AD416B420D0405992D0C8C467F19674447
:10A18000FD18A8465D462D19A542A4419346644298
:10A19000A446C344DC448F42BF4198459B4193454C
:10A1A0009241A445A4415B427F421F43360C524278
:10A1B0006442BF192243BF18624638184302D20DC9
:10A1C000039913436A020A43501E82416146ED0D12
:10A1D0002A434E023243D90100D4B3E0012650088D
:10A1E00032400243DE0732435B08224C5444002CC9
:10A1F00062DD510709D00F201040042805D0101D42
:10A200009042924152429B180200D90104D5802409
:10A210001948E400034054441848844200DD27E70D
:10A220005E075B02D2081F0B630516435B0DB2E6A7
:10A23000002399460133042700269B4664E6032346
:10A24000019781460C279B465EE6012201201743B9
:10A25000002276E6032303201F43434671E6C046EF
:10A26000FF07000001FCFFFF10E80000FFFF0F8068
:10A270000DFCFFFFFF030000FFFFFFFEFE070000D5
:10A280000023802700933F030026434B83E6019B76
:10A290003200A446584670E6AC466EE68027019927
:10A2A0003F0339422DD03B422BD11F433F033F0B8D
:10A2B00000951600384B6EE601252D1B382D00DD6C
:10A2C00066E61F2D40DC35481C00504416008240D5
:10A2D0008440EE40501E824134431443EB406207F9
:10A2E00009D00F222240042A05D02200141D9442D6
:10A2F000804140421B181A023ED501230027002648
:10A3000049E68027019B3F031F433F033F0B009417
:10A31000214B40E603005A46283B9A400026019212
:10A320006DE6584600F07AFC203057E603005246AE
:10A33000283B9A401300002293E6504600F06EFC42
:10A3400020307BE6CA4650E71F201E004042041B17
:10A35000E640202D03D0124C5444A3401A43501E13
:10A360008241324307260027164009D00F200023E0
:10A37000104014000428B9D122005E075B021F0BB5
:10A38000D2081643002306E680273F031F433F03FE
:10A390003F0B1600004BFEE5FF0700001E04000007
:10A3A0003E040000F8B557464E464546DE460C00D2
:10A3B0000903E0B5490A460F5F0031431E03DB0F76
:10A3C000760A9B46530F3343C84E6500C000E40F26
:10A3D000D2006D0DA24681467F0D9C469046B74245
:10A3E00000D1B9E05B46012673409B46EE1BA345B6
:10A3F00000D183E0002E63DD002F00D0B1E0634682
:10A40000134300D123E1731E002B00D0BAE1861A5A
:10A410006346B04280410125C91A4042091A0B0225
:10A4200000D447E149024B0A98464346002B00D12D
:10A4300089E1404600F0F2FB0300083B1F2B00DDE2
:10A440007CE120223000D21A4146D04099400200DF
:10A450009E400A439D4200DD6AE15D1B6B1C1F2B81
:10A4600000DD94E1202110003500C91A8E40DA4049
:10A470008840DD40711E8E411100072228430025CF
:10A4800006433240002A09D00F233340042B05D065
:10A49000331DB342B641764289191E000B0200D427
:10A4A0003DE26A1C914B55056D0D9A4200D119E1B0
:10A4B0008F4AF6080A40570752023743120B9BE0B7
:10A4C000002E00D0C5E06E1C7605760D012E00DC56
:10A4D00048E16746861ACB1BB042BF417F42B8466F
:10A4E0001F004346FF1A3B00B8461B0200D55FE140
:10A4F00037439AD100220024002579E0002E00DCA9
:10A50000FAE0002F00D18DE0784B9D4267D0802388
:10A5100067461B041F43BC46382E00DC52E16346ED
:10A5200013435A1E93411E18864280414042091827
:10A530000B0200D4BEE06D4B01359D4200D1D2E04C
:10A540006B4A73080A4001210E401E435108D3078D
:10A5500007221E43324095E71E00164300D045E710
:10A5600040E7624B9D423AD0802367461B041F435D
:10A57000BC46382E00DDEBE01F2E00DC3AE1330054
:10A580006746203BDF403B00202E05D04027BF1B05
:10A590006646BE40324390464646721E964133435D
:10A5A000DAE0002B00D114E26346134300D168E1E6
:10A5B00080234E07C008C9081B030643194208D070
:10A5C0006046C008184204D163460100D2085E0705
:10A5D0001643F3009946C900720F444D11434B4690
:10A5E000DE08424B4F073743CA089D4200D16EE058
:10A5F00012036D05120B6D0D00211203130B0A0DD2
:10A6000012051A433B4B2D0513402B435B00E40717
:10A610005B082343380019003CBC90469946A2468B
:10A62000AB46F8BD6346134311D0731E002B00D018
:10A6300007E186188642804161444042091801259D
:10A640000B0237D502257BE73E0061469146350077
:10A65000C5E75C46002D00D0E1E00B000343F3D0DA
:10A66000731C00D1ACE1214B9F4200D13AE1F3438E
:10A67000382B00DD6FE11F2B00DD8CE120250E0063
:10A68000ED1AAE40B0460600AA46DE4045463543C8
:10A690002E005546D940A8406346451EA8415B1A86
:10A6A0009C463043161AB242924163465242991A6E
:10A6B0003D00B4E607223240002A00D0E4E60B4B0E
:10A6C000F6084F073743CA089D4200D090E73B0089
:10A6D000134300D1A6E180231B031A431203120B7C
:10A6E000024D89E715000022002785E7FF070000DB
:10A6F000FFFF7FFFFFFF0F80002E00D0C7E06B1C25
:10A700005E05760D012E00DCF0E0C84DAB4200D1B5
:10A71000B9E085180A0085428941624449425118CE
:10A720000722CE076D082E43490832401D00A9E6D6
:10A73000BF49ED1A114007223240A3E63200283803
:10A740008240002686E6300000F068FA203073E68A
:10A75000634613435A1E9341C61AB0428041404299
:10A76000091A5CE60E00674606431743002D5ED1CA
:10A77000002E00D0F3E0002F00D11EE15C466146C0
:10A7800091462CE7A94FBE427BD01E00F1E6100097
:10A790001F3DE840202B03D04021CB1A9A4016439E
:10A7A000731E9E410722064332400021002583E7A5
:10A7B000161A6346B2428041591A40420B1A984613
:10A7C0005C4632E61F2E00DDABE02027BB1B9A461D
:10A7D00063465746BB40994613004F46F3401F431C
:10A7E0003B005746BA40571EBA4113436246F240F7
:10A7F000891898E62027BB1B9A4663465746BB40FC
:10A80000994613004F46F3401F433B005746BA405A
:10A81000571EBA4113436246F240891A9CE7834BA4
:10A820009F425FD080252D047342294320E7002EEC
:10A830000CD1002F00D1D0E05C46614691467B4DA3
:10A84000CDE67A4FBE421CD01E0065E6002F18D020
:10A85000C0084E0706438020C9080003014208D003
:10A860006346DC08044204D12100DA46D2085E07C0
:10A870001643F300994601245346C900720F114351
:10A880001C406A4DABE61D0000220027B4E6002DF7
:10A8900059D10B00034300D1D6E6731C00D1B2E0BE
:10A8A000624B9F421ED0F343382B6FDC1F2B00DD21
:10A8B00097E020250E00ED1AAE40B0460600AA46ED
:10A8C000DE40454635432E005546A840D940451E3A
:10A8D000A8418C440643B6189642924151426144C5
:10A8E0003D0025E63D006146914678E60B000343B6
:10A8F000002D00D055E6002BF5D06346134300D160
:10A900006DE6861886428041614440420918002263
:10A910000B0200D4D0E6464B01351940B2E5B146F2
:10A920005DE633006746203BDF403B00202E05D02C
:10A930004027BF1B6646BE40324390464646721EC5
:10A9400096413343EFE5394B9F42CBD080252D0410
:10A9500073422943A8E70843411E8841A2E6002F1D
:10A9600000D13CE66346861ACF1AB0429B415B4257
:10A97000FB1A98461B024ED5161A6346B242924104
:10A98000591A5242891A5C4600227BE501430E00A7
:10A99000711E8E419FE71D000E00203DEE40B04627
:10A9A000202B04D04025EB1A9940084381464846A5
:10A9B0004346411E8841184374E60022002417E6EE
:10A9C000161A6346B2429241591A5242891A3D0000
:10A9D00025E561469146154D01E6802200241203CB
:10A9E00079E61D000E00203DEE40B046202B04D03D
:10A9F0004025EB1A9940084381464E464346711E56
:10AA00008E411E4367E7861896429B4161445B4234
:10AA1000C9183D008CE547463743CED00722414652
:10AA2000324049E600273A00E6E5C046FF0700004D
:10AA3000FFFF7FFF30B5144D0A034B00120B5B0D77
:10AA4000C90F0024AB4211DD104CA34210DC80245E
:10AA5000640322430E4CE41A1F2C0CDD0D48C31A6C
:10AA6000DA4013005C42002900D11C00200030BDF8
:10AA7000094BCC18FAE7094DE040AC4663449A40D4
:10AA800013000343EEE7C046FE0300001D04000070
:10AA90003304000013040000FFFFFF7FEDFBFFFF06
:10AAA00070B500282DD0C317C5185D40C40F28000D
:10AAB00000F0B4F8154B1B1A5B055B0D0A2815DD79
:10AAC0000B38854000222D032D0B002110002D0393
:10AAD0000A0D2D0B12052A430D4D1B052A40134369
:10AAE0005B00E4075B082343190070BD02002900E6
:10AAF000153291400A000B21081AC5402D032D0B79
:10AB0000E3E70024002300250022DEE71E04000006
:10AB1000FFFF0F80F0B54C00640D0B03621C5B0A55
:10AB2000460F5205C90F1E43C500520D012A29DDEB
:10AB3000374BE718FE2F1CDC002F3BDD8001431E46
:10AB400098410722F3006D0F03432B431A40002A5C
:10AB500004D00F221A40042A00D004338022D204E9
:10AB60001A4024D00137FAB2FF2F02D09B01580AB5
:10AB700001E0FF2200204002D205400AC90710432D
:10AB80000843F0BD3543002C04D1002D0AD100222A
:10AB90000020F0E7002DECD08020C0033043FF22DE
:10ABA000E9E7002400235B02580AE2B2E3E7DB088E
:10ABB0003C00F8E73B001733F3DB80231B043343EF
:10ABC0001E26F61B1F2E14DD02225242D71B1A002E
:10ABD000FA401700202E04D00E4A94466444A34045
:10ABE0001D432B005D1EAB4107223B431A4000274B
:10ABF000ADE7094A2800A218954093406C1EA54174
:10AC0000F04007222B4303431A4000279FE7C0462A
:10AC100080FCFFFFA2FCFFFF82FCFFFF1C21012341
:10AC20001B04984201D3000C10391B0A984201D32F
:10AC3000000A08391B09984201D30009043902A20D
:10AC4000105C40187047C046040302020101010174
:10AC5000000000000000000010B5002903D1FFF73C
:10AC6000DDFF203002E0081CFFF7D8FF10BDC04612
:10AC70000023C25C0133002AFBD1581E704700003C
:10AC8000B0B500AF72B6494B1A68484B80210A43F1
:10AC90001A60474B1B780133DAB2454B1A70444BAC
:10ACA0001B78012B77D9424B00221A70414B272089
:10ACB000185C28241C5D2402204329241C5D2404E4
:10ACC00020432A241C5D2406204301002B20185C0D
:10ACD0002C241C5D240220432D241C5D24042043CD
:10ACE0002E241B5D1B0603431A0001230024C918F0
:10ACF0006241304B2733FF200840050018780024BC
:10AD00002040041C281C20431870080AFF242040FF
:10AD10000500587800242040041C281C204358704B
:10AD2000080CFF2420400500987800242040041CD3
:10AD3000281C204398700D0ED87800242040041C55
:10AD4000281C2043D870FF201040050018790024EB
:10AD50002040041C281C20431871100AFF242040A6
:10AD60000500587900242040041C281C20435871F9
:10AD7000100CFF2420400500987900242040041C7A
:10AD8000281C20439871100EDA7900210A40111C0A
:10AD9000021C0A43DA71084B1A68074B80210A43E8
:10ADA0001A6062B6C046BD46B0BDC0460000044051
:10ADB00080080020380E002000500440B0B584B058
:10ADC00000AF72B6204B1B68002B2ADA1E4B5A6864
:10ADD0000E217B181A807B181A88FA235B009A428E
:10ADE0001FD91A4BE8229A5CE9215B5C1B021343D2
:10ADF0009BB2013399B2154BE822FF2008400500B1
:10AE0000985C00242040041C281C20439854090A04
:10AE100088B29B185A7800210A40111C021C0A4370
:10AE20005A70094B1A68084B802109060A431A60B8
:10AE3000054B1A68044B80218A431A6062B6C046EB
:10AE4000BD4604B0B0BDC04600500440380E0020DE
:10AE500090B583B000AF72B60F4B1B6800209847C7
:10AE6000031E13D00D4B1B68FC1DBA1D11000020E2
:10AE7000984703002370BB1D1B78002B06D0084B9E
:10AE80001B68FA1D127811000020984762B6C04670
:10AE9000BD4603B090BDC046D40800201009002074
:10AEA0005409002090B583B000AF72B60C4B1B68FC
:10AEB000FC1DBA1D11000120984703002370BB1D23
:10AEC0001B78002B07D0074B1B68074C0749FA1D5E
:10AED00010782200984762B6C046BD4603B090BDC8
:10AEE0001009002038090020280A0020520F0020F5
:10AEF000F0B5C64600B5F14CA54402AF72B60022CB
:10AF000000239B21C90010208446BC4461440A6090
:10AF10004B60002200239521C90010208446BC44C8
:10AF200061440A604B600023E54A10218C46BC4412
:10AF300062441360E34B10229446BC4463440122F4
:10AF40001A70E14B10229446BC44634400221A70EC
:10AF5000DE4B10229446BC44634400221A80DC4B32
:10AF600010229446BC4463441822FF321A80D94B05
:10AF700010229446BC446344AB221A800022002372
:10AF80009721C90010208446BC4461440A604B608C
:10AF9000002200239921C90010208446BC4461444A
:10AFA0000A604B60CC4B10229446BC4463440022A0
:10AFB0001A70CA4B00221A8002F0B8FA01F03EFF64
:10AFC000C74B1B68012098470021052002F0EEFACC
:10AFD000C44B1B68FA22520010009847C24B1B68F2
:10AFE000C24A110003209847C14B1B68984702F0E2
:10AFF00007FB01F0E1FBBF4B19001C2002F0BCFA7B
:10B00000BD4B19001A2002F0B7FABC4B19000D20F5
:10B0100002F0B2FABA4B1B689847BA4B1B689847C4
:10B0200062B6B94B180001F059F9B84B180001F09D
:10B0300067F9B54BA7229A5CA821595C09020A431B
:10B04000A921595C09040A43AA215B5C1B0613432E
:10B050009322D20010218C46BC446244136000232A
:10B06000AB4A10218C46BC4462441360A94B1B7848
:10B07000DBB25B09DBB21A000123134045D0A24BBF
:10B08000A7229A5CA821595C09020A43A921595CAC
:10B0900009040A43AA215B5C1B061343591C9A4B03
:10B0A000A722FF2008408446985C00263040061CFA
:10B0B000604630439854080AFF263040804698186E
:10B0C00046780024A44664462640B4464646644674
:10B0D000344326004670080CFF26304080469818FE
:10B0E00086780024A44664462640B4464646644614
:10B0F000344326008670080E9B18DA7800210A4037
:10B10000111C021C0A43DA701DE0824B1B78DBB273
:10B11000DB09DBB21A000123134014D07A4BA722BB
:10B12000995C0020014099549918487800263040D5
:10B130004870991888780026304088709B18DA7813
:10B1400000210A40DA70704BA7229A5CA821595C52
:10B1500009020A43A921595C09040A43AA215B5C3C
:10B160001B061343BB600023FB609323DB0010220C
:10B170009446BC4463441B68BA68934208D1644B4C
:10B1800010229446BC4463441B68FA68934210D072
:10B19000614B1B683F209847604B1C685A494D4BD8
:10B1A00010229446BC4463441A880B0000213F20BF
:10B1B000A0474B4B1B6801209847594A96235900DA
:10B1C000584B009313001F22042002F0B5FC564B8D
:10B1D000180001F007FE524A96235900534B009382
:10B1E00013001F22042002F0A7FC4F4B180001F0AF
:10B1F000F9FD4B4A962359004D4B009313001F2233
:10B20000042002F099FC4B4B1B684B4D1022BA18DE
:10B2100054194A4A4A494B481026B446BC44604433
:10B220009847030023703E4A96235900464B0093EB
:10B2300013001F22042002F07FFC1023FB185B196F
:10B240001B78002B00D1D2E03B4B10229446BC442B
:10B2500063441B780A2B00D9C4E09A003B4BD318F7
:10B260001B689F462E4A96235900394B00931300C2
:10B270001F22042002F060FCB4E0294A9623590002
:10B28000344B009313001F22042002F055FCA9E068
:10B29000234A96235900304B009313001F220420A9
:10B2A00002F04AFC9EE01E4A962359002B4B009365
:10B2B00013001F22042002F03FFC93E008FBFFFF75
:10B2C000D4040000D3040000C5040000A60400005C
:10B2D000A4040000A2040000C4040000520F0020D7
:10B2E0004C090020FC0800203C0900201100CC0083
:10B2F000C008002081AC0000BDAD0000A5AE00007C
:10B30000C4080020240900207C090020380E0020F9
:10B310009C04000000F00740B808002084080020CA
:10B320003084000050E300007017000070E300005C
:10B3300090E3000070090020C60400001A0A0020F3
:10B340000B0A00202C040000B0E3000050E80000CD
:10B35000D0E30000F0E3000010E4000030E400005F
:10B36000B84A96235900B84B009313001F220420BB
:10B3700002F0E2FB36E0B34A96235900B34B009348
:10B3800013001F22042002F0D7FB2BE0AD4A9623C6
:10B390005900AF4B009313001F22042002F0CCFB96
:10B3A00020E0A84A96235900AA4B009313001F22BD
:10B3B000042002F0C1FB15E0A24A96235900A64BD7
:10B3C000009313001F22042002F0B6FB0AE09D4AFE
:10B3D00096235900A14B009313001F22042002F072
:10B3E000ABFBC0469E4B1B6802209847E1E6C04677
:10B3F000944A962359009B4B009313001F2204206C
:10B4000002F09AFB9849FC24A4001023FB181B1996
:10B410001422180002F085FF21001023FB185B188E
:10B4200000221A75874A0C001023FB185B18009342
:10B4300013001F222D21462002F07EFB8B49102392
:10B44000FB181B190422180002F06BFF21001023C7
:10B45000FB185B1800221A717A4A1023FB185B183C
:10B46000009313001F224121762002F065FB804BE0
:10B470001A688321C9000C001023FB185B180133E4
:10B480001800904721001023FB185B1820221A7027
:10B490001023FB185B1800221A741023FB185B188A
:10B4A0000133684A009313001F225521692002F0DE
:10B4B00043FB704B1C680323102200210020A0478F
:10B4C0006D4B1B686D4D1022BA1854191A209847FD
:10B4D000030023801023FB185B191B881800FFF75B
:10B4E000DFFA674A674BFEF7EBFC03000C0018001D
:10B4F00021000022644BFEF7E3FC03000C0018005F
:10B5000021000022614BFEF7D1F803000C00180067
:10B51000210000225E4BFEF745FF03000C001800DF
:10B5200021005C4A5C4BFEF7C1F803000C001A00D6
:10B53000230000205949FEF735FF03000C001800D6
:10B540002100FFF7E7FA031C9222D20010218C465B
:10B55000BC4462441360524B10229446BC44634482
:10B5600000221A7029E04F4B1B68FC229200102128
:10B570008C46BC44624410009847031E0AD04849D8
:10B580001023FB185B181A781023FB185B18013284
:10B590001A7012E0FC2189001023FB185B180022AE
:10B5A0005A74284A1023FB185B18009313001F22BB
:10B5B0008121592002F0C0FA07E0394B102294464D
:10B5C000BC4463441B78042BCDD9354B10229446E0
:10B5D000BC44634400221A702BE0334B1B68334D8C
:10B5E0001022BA185419324A10218C46BC446244C5
:10B5F00010009847030023701023FB185B191B7879
:10B60000002B07D12A4B10229446BC4463441B787C
:10B61000002B4FD1FA23DB00180001F0E3FB204997
:10B620001023FB185B181A781023FB185B180132E3
:10B630001A701B4B10229446BC4463441B78042BA5
:10B64000CBD938E03084000050E4000070E4000002
:10B6500090E40000B0E40000D0E40000F0E400005A
:10B660004C0900200CE50000AE090020E009002094
:10B670007809002034090020D0080020960400003A
:10B680006666666666660A4000408F40E0FFEF40EF
:10B6900000788640713D0AD7A370FB3F0000394017
:10B6A000C7040000C808002098080020C604000055
:10B6B0000F040000C046C64B10229446BC446344AD
:10B6C0001B781800FC24A4001023FB181B190A2265
:10B6D000190001F09BFA0300BE4A009313001F22D9
:10B6E0009621692002F028FABB491023FB181B1988
:10B6F0000F22180002F015FE1023FB181B19002260
:10B70000DA73B44A1023FB181B19009313001F228D
:10B71000A921412002F010FAB0491023FB181B198F
:10B720000522180002F0FDFD1023FB181B19002252
:10B730005A71A84A1023FB181B19009313001F22EB
:10B74000BD21412002F0F8F9A24AA54B0093130055
:10B750001F22D121242002F0EFF99E4AA14B009331
:10B7600013001F22D221B42002F0E6F99E4BA3223F
:10B770009A5CA421595C09020A43A521595C090479
:10B780000A43A6215B5C1B06134318001023FB1819
:10B790001B190A22190001F039FA03008D4A00939F
:10B7A00013001F22D221B42002F0C6F99720C00056
:10B7B0001023FB181B185C681B68012100225B1812
:10B7C00054411022BA18121813605460874B272076
:10B7D000185C28241C5D2402204329241C5D2404B9
:10B7E00020432A241C5D2406204301002B20185CE2
:10B7F0002C241C5D240220432D241C5D24042043A2
:10B800002E241B5D1B0603431A009B23DB00102024
:10B810008446BC4463441B688B4207D1744B1020A0
:10B820008446BC4463441B68934270D06F4B27200E
:10B83000185C28241C5D2402204329241C5D240458
:10B8400020432A241C5D2406204301002B20185C81
:10B850002C241C5D240220432D241C5D2404204341
:10B860002E241B5D1B0603431A009B23DB001020C4
:10B870008446BC44634419605A6001F077F805209F
:10B8800001F0ACFE594B27229A5C2821595C090231
:10B890000A432921595C09040A432A21595C0906F3
:10B8A0000A4314002B229A5C2C21595C09020A439A
:10B8B0002D21595C09040A432E215B5C1B061343AE
:10B8C0001D00494BA3229A5CA421595C09020A433A
:10B8D000A521595C09040A43A6215B5C1B0613439E
:10B8E0003B6000237B603A687B6820002900FDF7FD
:10B8F000DFFA1C001300190022000B00134306D1CD
:10B900003C4B10229446BC44634401221A70374BCE
:10B91000E8229A5CE9215B5C1B0213439BB21A008C
:10B92000354B10218C46BC4463441B68934224D0A1
:10B930002E4BE8229A5CE9215B5C1B0213439BB20D
:10B940002D4A10218C46BC4462441360274BE822E8
:10B950009A5CE9215B5C1B0213439BB20321180034
:10B96000FDF762FA0B009BB2002B06D1214B10228F
:10B970009446BC44634401221A701E4B1022944624
:10B98000BC4463441B78012B00D029E1174B1800FD
:10B9900000F01AFE194B1B78552B35D1174B5B78ED
:10B9A000302B31D116491023FB185B18154A102093
:10B9B0008446BC44624412881A801023FB185B182A
:10B9C0001A880A491423FB18180002F099FC75E044
:10B9D0000F040000308400000B0A00201A0A002027
:10B9E0002CE5000030E500007C090020380E002026
:10B9F000DC040000D3040000D4040000500F002039
:10BA0000B6040000A4040000D94B1B78552B55D177
:10BA1000D74B5B78312B51D1D64B9C22D2001021D1
:10BA20008C46BC446244D218D14B1000190002234A
:10BA30001A0002F065FC1423FB180233CE4A1800EA
:10BA4000131D0F22190002F05BFC1423FB181133A5
:10BA5000CA490822180002F053FC1423FB181933BA
:10BA6000C7490422180002F04BFC1423FB181D33B5
:10BA7000C14AE521525C1A701423FB181E33C149D8
:10BA80000222180002F03CFC1423FB182033BE49AC
:10BA90000222180002F034FC1423FB182233B64AA9
:10BAA000FE21180053181922190002F029FCB74B87
:10BAB00010229446BC4463443B221A80B44AB54BDE
:10BAC000009313001F229621692002F035F8AA4B3B
:10BAD000E5229B5C1800FC239B0010229446BC448A
:10BAE00063440A22190001F091F80300A84A009368
:10BAF00013001F229621692002F01EF8A44A962303
:10BB00005900A54B009313001F22042002F014F8E3
:10BB1000A24B1B68A24D1022BA1854191422B9184E
:10BB20009A4A10208446BC44624412881000984708
:10BB300003002370964A962359009A4B00931300F2
:10BB40001F22042001F0F8FF1023FB185B191B785B
:10BB5000002B11D18E4A96235900934B009313006A
:10BB60001F22042001F0E8FF904B10229446BC44B1
:10BB7000634400221A802CE0C046894B1022944670
:10BB8000BC4463441B78012B02D0022B0BD015E080
:10BB90007F4A96235900864B009313001F220420EE
:10BBA00001F0CAFF0AE07A4A96235900814B0093BC
:10BBB00013001F22042001F0BFFFC0467E4B1B680C
:10BBC0007E4A7F497F481024A446BC44604498477D
:10BBD000C0467D4B10229446BC44634400221A7038
:10BBE0007A4B1B88002B00D154E39920C00010230E
:10BBF000FB181B185C681B68012100225B1854416C
:10BC00001022BA181218136054601023FB181B1866
:10BC10001B68FC2292001021791889180A2218004A
:10BC200000F0F4FF03005A4A009313001F22F92189
:10BC30005A2001F081FF564A96235900644B009325
:10BC400013001F22042001F077FF554B1022944669
:10BC5000BC446344FF221A704C4B10229446BC44EF
:10BC6000634400221A80FB24A4001023FB181A1935
:10BC7000584B1000190002231A0002F041FB5549ED
:10BC80001423FB180222180002F03AFB1023FB18C1
:10BC90001B191B78412B20D1FB239B0010229446BB
:10BCA000BC4463445B78302B17D1384B1022944648
:10BCB000BC44634448491022BA1852181288023210
:10BCC0001A801423FB1802331022BA185218128853
:10BCD0004249180002F014FB25E2FB239B001022CE
:10BCE0009446BC4463441B78412B1BD1FB239B002F
:10BCF00010229446BC4463445B78312B12D1234913
:10BD00001023FB185B1891221A801423FB180233AE
:10BD10001022BA1852181288023A3049180002F05C
:10BD2000EFFA00E2FB239B0010229446BC446344DC
:10BD30001B78412B54D1FB239B0010229446BC441A
:10BD400063445B78322B4BD110491023FB185B18EE
:10BD500016221A801423FB1802331022BA18521824
:10BD60001288023A1649180002F0CAFADBE1C0460E
:10BD7000500F002024FBFFFF380E00205F0E002034
:10BD8000EB0E00201E0F0020200F0020B604000044
:10BD9000308400003CE5000044E50000000900207C
:10BDA000C604000064E5000084E50000A60400006D
:10BDB000A4E50000C4E50000700900201A0A002074
:10BDC0000B0A00202C040000D3040000520F0020B6
:10BDD000E4E50000280A0020A20400007C090020FD
:10BDE000FB239B0010229446BC4463441B78412BE8
:10BDF0001BD1FB239B0010229446BC4463445B7818
:10BE0000332B12D1E0491023FB185B180A221A8049
:10BE10001423FB1802331022BA1852181288023A5F
:10BE2000DA49180002F06CFA7DE1FB239B00102236
:10BE30009446BC4463441B78422B2DD1FB239B00CA
:10BE400010229446BC4463445B78302B24D1D04B01
:10BE500010229446BC4463441A88CE49CE4B180045
:10BE600002F04EFACD4B10229446BC4463440122AA
:10BE70001A70C5491023FB185B1809221A80142375
:10BE8000FB1802331022BA1852181288023AC44919
:10BE9000180002F035FA46E1FB239B00102294467D
:10BEA000BC4463441B78422B28D1FB239B00102207
:10BEB0009446BC4463445B78312B1FD1B549B64BE3
:10BEC0007C22180002F01CFAB44B10229446BC44A9
:10BED000634401221A70AC491023FB185B18092235
:10BEE0001A801423FB1802331022BA185218128831
:10BEF000023AAB49180002F003FA14E1FB239B005D
:10BF000010229446BC4463441B78422B28D1FB2367
:10BF10009B0010229446BC4463445B78322B1FD1B3
:10BF20009C49A04B1E22180002F0EAF99B4B1022FC
:10BF30009446BC44634401221A7093491023FB18B1
:10BF40005B1809221A801423FB1802331022BA1836
:10BF500052181288023A9249180002F0D1F9E2E030
:10BF6000FB239B0010229446BC4463441B78422B65
:10BF700028D1FB239B0010229446BC4463445B7889
:10BF8000332B1FD18349814B0822180002F0B8F9E6
:10BF9000824B10229446BC44634401221A707A49B1
:10BFA0001023FB185B1809221A801423FB18023394
:10BFB0001022BA1852181288023A7949180002F071
:10BFC0009FF9B0E0FB239B0010229446BC446344DD
:10BFD0001B78552B32D1FB239B0010229446BC4486
:10BFE00063445B78302B29D16F4AFB239B001021DF
:10BFF0008C46BC4463441000190002231A0002F06E
:10C000007FF96A4B1B886A4A10218C46BC44624403
:10C0100012889A420AD1664B10229446BC4463446B
:10C020001A886449644B180002F06AF9634B1022C5
:10C030009446BC44634401221A7074E0FB239B00C5
:10C0400010229446BC4463441B78552B56D1FB23E5
:10C050009B0010229446BC4463445B78312B4DD145
:10C06000514AFB239B0010218C46BC4463441000C2
:10C07000190002231A0002F043F94C4B1B883B2B9A
:10C0800034D14D4A4B4B1000190002231A0002F024
:10C0900037F9404A484B043311000F22180002F0D0
:10C0A0002FF94749474B0822180002F029F9464961
:10C0B000464B0422180002F023F9454B19783E4BF9
:10C0C000E52299544349444B0222180002F018F922
:10C0D0004249434B0222180002F012F94149364B03
:10C0E000FE229B181922180002F00AF9334B102285
:10C0F0009446BC44634401221A7014E02B4B1B8805
:10C100002B4A10218C46BC44624412889A420AD1C0
:10C11000274B10229446BC4463441A882549264B79
:10C12000180002F0EDF8184B10229446BC4463440A
:10C130001B88002B11D02C4B1B682C4A102179181E
:10C140008C181422B918104A10208446BC4462444A
:10C1500012881000984703002370144B00221A80A5
:10C16000224B10229446BC4463441B78002B43D1DD
:10C170001F4A962359001F4B009313001F220420CF
:10C1800001F0DAFC55E0C046B60400001F0A0020AA
:10C19000A20400002A0A00207C090020C504000037
:10C1A00008E600000B0A0020500F0020520F00206C
:10C1B000A4040000280A0020380E0020C404000057
:10C1C000390A00205F0E0020410A0020EB0E0020FB
:10C1D000450A0020460A00201E0F0020480A0020C1
:10C1E000200F00204A0A002000090020C604000099
:10C1F0003084000010E600002D4B10229446BC4411
:10C2000063441B78FF2B0AD12A4A962359002A4BF4
:10C21000009313001F22042001F08EFC09E0254A40
:10C2200096235900254B009313001F22042001F090
:10C2300083FC234B10229446BC4463441B78012B9F
:10C240001ED1204B1B683F2098471F4B1C681F497D
:10C250001F4B10229446BC4463441A880B000021F3
:10C260003F20A047164B10229446BC446344002252
:10C270001A70184B10229446BC44634401221A7071
:10C28000144B10229446BC4463441B78012B01D10B
:10C2900000F030FC9723DB0010229446BC4463443A
:10C2A000186859680C4A0023FCF702FEFFF77EFA73
:10C2B000C60400003084000034E60000C4E500003D
:10C2C000C5040000B8080020840800207C09002074
:10C2D000A2040000C404000080BB000090B583B03D
:10C2E00000AF7860054B1C687868AB2300223F21C3
:10C2F000A047C046BD4603B090BDC0460C09002013
:10C30000B0B582B000AF78607A68A44B1000190015
:10C3100002231A0001F0F4FF7968A14B02221800F1
:10C3200001F0FFFF7B689A7800210A409A70DA7862
:10C3300000210A40DA707B6813339A490F221800F3
:10C3400001F0EFFF7B68223397490522180001F0C6
:10C35000E8FF964B6820185C69241C5D240220438A
:10C360006A241C5D240420436B241C5D24062043A6
:10C3700001006C20185C6D241C5D240220436E2497
:10C380001C5D240420436F241B5D1B0603431A001D
:10C390007B682733FF2008400500187800242040E0
:10C3A000041C281C20431870080AFF2420400500A4
:10C3B000587800242040041C281C20435870080C86
:10C3C000FF2420400500987800242040041C281CED
:10C3D000204398700D0ED87800242040041C281C9F
:10C3E0002043D870FF201040050018790024204019
:10C3F000041C281C20431871100AFF24204005004B
:10C40000587900242040041C281C20435871100C2B
:10C41000FF2420400500987900242040041C281C9B
:10C4200020439871100EDA7900210A40111C021C79
:10C430000A43DA715D4BA7229A5CA821595C090274
:10C440000A43A921595C09040A43AA215B5C1B0623
:10C4500013431A007B682F33FF2111400C00197819
:10C4600000200140081C211C01431970110AFF2003
:10C4700001400C00597800200140081C211C014398
:10C480005970110CFF2001400C00997800200140E8
:10C49000081C211C01439970100EDA7800210A4013
:10C4A000111C021C0A43DA70404BA3229A5CA4219F
:10C4B000595C09020A43A521595C09040A43A621D3
:10C4C0005B5C1B0613431A007B683333FF2111406A
:10C4D0000C00197800200140081C211C0143197030
:10C4E000110AFF2001400C00597800200140081C6F
:10C4F000211C01435970110CFF2001400C00997858
:10C5000000200140081C211C01439970100EDA78AC
:10C5100000210A40111C021C0A43DA707B68373381
:10C5200023491422180001F0FCFE7B684B3321499B
:10C530000422180001F0F5FE7B684F331B491E22D0
:10C54000180001F0EEFE7B686D331B4914221800C1
:10C5500001F0E7FE7B68813318491422180001F0CE
:10C56000E0FE7B68953316491E22180001F0D9FEC3
:10C570007B68CB3313490B22180001F0D2FE7B6895
:10C58000E822995C0020014099549B185A780021B8
:10C590000A405A70C046BD4602B0B0BD54E6000025
:10C5A000500F00200B0A00201A0A00207C090020EE
:10C5B000EC090020E00900209A090020AE090020C3
:10C5C000C2090020000A0020F0B587B000AF7860F3
:10C5D000694B1A68511C684B196092B27B68FF2145
:10C5E00011400C00997800200140081C211C0143D7
:10C5F0009970120A90B2DA7800210A40111C021CCC
:10C600000A43DA705D4B1C680323102200210020CE
:10C61000A0475B4B1B6816257C191A20984703001E
:10C6200023807B191B881800FEF73AFA554A564BAF
:10C63000FDF746FC03000C00180021000022534BBC
:10C64000FDF73EFC03000C00180021000022504BB7
:10C65000FDF72CF803000C001800210000224D4BC0
:10C66000FDF7A0FE03000C00180021004A4A4B4BC6
:10C67000FDF71CF803000C001A00230000204849B5
:10C68000FDF790FE03000C00180021000022454B2E
:10C69000FDF716FC03000C0018002100FEF7CAF994
:10C6A00001007B68B322FF2008400500985C00244D
:10C6B0002040041C281C20439854080AFF242040D2
:10C6C00006009818447800252C40251C341C2C4367
:10C6D0004470080CFF242040060098188478002538
:10C6E0002C40251C341C2C438470080E9B18DA78CF
:10C6F00000210A40111C021C0A43DA70204B1B68FF
:10C7000014257C1907209847030023807B6879193A
:10C71000E6220D78985C00242040041C281C20434D
:10C72000985448789B185A7800210A40111C021C22
:10C730000A435A701C4B1B687A68043210009847F1
:10C740001A4B1B687A68D63210009847184B1B6842
:10C7500013243A19100098473B1919787B68E52291
:10C760009954144B1B687A68FE3210009847C046F3
:10C77000BD4607B0F0BDC0460008002034090020C7
:10C78000D00800206666666666660A4000408F40F4
:10C79000E0FFEF4000788640713D0AD7A370FB3F71
:10C7A00000003940000024407809002014090020CE
:10C7B00098080020C808002080B59EB002AF3B1D3D
:10C7C00018001E231A00002101F0A3FDA0235A0027
:10C7D000574B00931300F0220021002001F0FDF8D8
:10C7E000012300932623EE220221022001F0AAFA5F
:10C7F0004F49F8231A024F4B00930B000F214220A0
:10C8000001F09AF9002300937B23EE222B210220D2
:10C8100001F098FA464A484B0093130000222D215C
:10C82000042001F089F9424A444B0093130000228E
:10C830004121042001F080F93D4A414B009313004F
:10C8400000225521042001F077F9394A3D4B00932D
:10C85000130000226921042001F06EF900230093E7
:10C86000F723EE227F21022001F06CFA304A364B8A
:10C870000093130000228121042001F05DF92C4A6D
:10C88000324B0093130000229521042001F054F94B
:10C89000274A2F4B009313000022A921042001F006
:10C8A0004BF9234A2B4B009313000022BD21042097
:10C8B00001F042F91E4A284B009313000022D121B7
:10C8C000042001F039F91A4A244B00931300002286
:10C8D000E521042001F030F9154A214B00931300A3
:10C8E0001F22E621312001F027F9114A1D4B009348
:10C8F00013000022F921042001F01EF99F235A00A1
:10C9000089235900012300931300EE22022001F035
:10C9100019FA074A8A235900134B00931300002287
:10C92000042001F009F9C046BD461CB080BDC046D8
:10C930003084000058E6000068E6000074E600005D
:10C9400080E600008CE6000098E60000A4E6000007
:10C95000B0E60000BCE60000C8E60000DCE600002F
:10C96000E4E60000F8E6000004E7000080B58AB0C5
:10C9700002AF3B0018001E231A00002101F0C9FC81
:10C980001E23FB1800221A701F23FB1800221A70A6
:10C9900090E01E23FB181B78042B15D13B001800D8
:10C9A000FEF766F903001A003B009A184B4B100083
:10C9B000190003231A0001F0A3FC1E217B181A782A
:10C9C0007B1801321A706FE01E23FB181B78082BAE
:10C9D00015D13B001800FEF74BF903001A003B008D
:10C9E0009A183F4B1000190003231A0001F088FC2D
:10C9F0001E217B181A787B1801321A7054E01E230E
:10CA0000FB181B780C2B15D13B001800FEF730F9F2
:10CA100003001A003B009A18324B10001900032340
:10CA20001A0001F06DFC1E217B181A787B18013268
:10CA30001A7039E01E23FB181B78102B0FD13B0016
:10CA40001800FEF715F903001A003B009A18264B50
:10CA50001000190002231A0001F052FC24E01E23EA
:10CA6000FB181B78132B0FD13B001800FEF700F9C1
:10CA700003001A003B009A181B4B100019000223F8
:10CA80001A0001F03DFC0FE01F22BB181B78BA18FA
:10CA9000591C11701A00154B9A5C1E23FB181B7849
:10CAA0003032D1B23A00D1541E217B181A787B184B
:10CAB00001321A701F23FB181B780D2B00D868E772
:10CAC0000B4A3B00009313001F22E621312001F0A6
:10CAD00033F8C046BD4608B080BDC04698E70000A8
:10CAE0009CE70000A0E70000A4E70000280E00205B
:10CAF0003084000080B58AB002AF3B0018001E23CE
:10CB00001A00002101F005FC39493B0014221800ED
:10CB100001F007FC3B0000221A75364A3B000093E7
:10CB200013001F222D21462001F006F832493B0058
:10CB30000422180001F0F5FB3B0000221A712D4A77
:10CB40003B00009313001F224121762000F0F4FFE8
:10CB5000284A2A4B009313001F22D221B42000F050
:10CB6000EBFF274BA3229A5CA421595C09020A43DC
:10CB7000A521595C09040A43A6215B5C1B061343EB
:10CB800018003B000A22190000F040F80300194A7F
:10CB9000009313001F22D221B42000F0CDFF1949C9
:10CBA0003B000F22180001F0BCFB3B000022DA73AF
:10CBB000104A3B00009313001F22A921412000F0DE
:10CBC000BBFF11493B000522180001F0AAFB3B0006
:10CBD00000225A71074A3B00009313001F22BD2117
:10CBE000412000F0A9FFC046BD4608B080BDC04648
:10CBF000AE09002030840000E009002030E500008C
:10CC00007C0900200B0A00201A0A0020F0B593B01E
:10CC100000AF786139610F23FB181A7014230822C2
:10CC20009446BC4463446E4A13CA13C313CA13C365
:10CC300013CA13C312781A703B2308229446BC44CB
:10CC4000634400221A707B697B640F243B191A78B5
:10CC50007B6C11001800FCF7E7F80B0019003B2271
:10CC60000823FB189B181B7808208446BC446244A8
:10CC7000581C10701A003B699B1814220820844627
:10CC8000BC446244525C1A703B191B781900786CE2
:10CC9000FCF744F803007B647B6C002BD5D13B236D
:10CCA00008229446BC4463441B783A69D318002296
:10CCB0001A703B691B782D2B07D139230822944623
:10CCC000BC44634401221A7006E0392308229446CA
:10CCD000BC44634400221A703A2308229446BC44A0
:10CCE0006344392208218C46BC44624412781A708D
:10CCF0003CE03A210826BB195B181B783A69D31827
:10CD00001B787B613B24BB191B191A78BB195B1874
:10CD10001B78D31A5A1E3925BB195B191B78D318F7
:10CD20001A003B699A180800BB195B181B7839690F
:10CD3000CB1812781A70BB191B191A780100300031
:10CD40003B185B181B78D31A5A1E3B185B191B78CB
:10CD5000D3181A003B699B187A69D2B21A703B1833
:10CD60005B181A783B185B1801321A703A230822B4
:10CD70009446BC4463441B781800FDF791FE040000
:10CD80000D003B2308229446BC4463441B78013BBE
:10CD90001800FDF785FE00228023DB05FCF786FCEA
:10CDA00002000B003A607B60392308229446BC44A1
:10CDB00063441B781800FDF773FE02000B0038680F
:10CDC0007968FCF757F902000B0020002900FCF7F6
:10CDD00051F8031E8DD13B691800BD4613B0F0BD5C
:10CDE000A8E7000080B584B000AF0200BB1D1A8028
:10CDF0000E23FB1800221A8012E00023BB6003E020
:10CE0000C046BB680133BB60BB680B4A9342F7D98D
:10CE10000E217B181B889BB201339AB27B181A80B3
:10CE20000E23FB181B889BB2BA1D12889A42E4D8C5
:10CE3000C046BD4604B080BD6710000090B5C7B0C5
:10CE400000AF84231B028A2149007A181360FE4B2D
:10CE50008C2464003A19D2187B181B681000190042
:10CE60008A235B001A0001F04BFAF74B8C22520028
:10CE70009446BC4463441B681A00F44B1A60F24B9E
:10CE80008C2252009446BC4463445B681A00F04B09
:10CE90001A60ED4B8C2252009446BC4463449B685C
:10CEA0001A00EC4B1A60E84B8C2252009446BC44AA
:10CEB0006344DB681A00E84B1A60E34B8C22520093
:10CEC0009446BC4463441B691A00E44B1A60DE4B71
:10CED0008C2252009446BC4463445B691A00E04BC8
:10CEE0001A60D94B8C2252009446BC4463449B691F
:10CEF0001A00DC4B1A60D44B8C2252009446BC447E
:10CF00006344DB691A00D84B1A60CF4B8C22520065
:10CF10009446BC4463441B6A1A00D44B1A60CA4B43
:10CF20008C2252009446BC4463445B6A1A00D04B86
:10CF30001A60C54B8C2252009446BC4463449B6AE1
:10CF40001A00CC4B1A60C04B8C2252009446BC4451
:10CF50006344DB6A1A00C84B1A60BB4B8C22520038
:10CF60009446BC4463441B6B1A00C44B1A60B64B16
:10CF70008C2252009446BC4463445B6B1A00C04B45
:10CF80001A60B14B8C2252009446BC4463449B6BA4
:10CF90001A00BC4B1A60AC4B8C2252009446BC4425
:10CFA0006344DB6B1A00B84B1A60A74B8C2252000B
:10CFB0009446BC4463441B6C1A00B44B1A60A24BE9
:10CFC0008C2252009446BC4463445B6C1A00B04B04
:10CFD0001A609D4B8C2252009446BC4463449B6C67
:10CFE0001A00AC4B1A60984B8C2252009446BC44F9
:10CFF00063441B691A00A84B1A60934B8C225200A1
:10D000009446BC4463441B6D1A00A44B1A608E4BBB
:10D010008C2252009446BC4463445B6D1A00A04BC2
:10D020001A60894B8C2252009446BC4463449B6D29
:10D030001A009C4B1A60844B8C2252009446BC44CC
:10D040006344DB6D1A00984B1A607F4B8C225200B0
:10D050009446BC4463441B6E1A00944B1A607A4B8E
:10D060008C2252009446BC4463445B6E1A00904B81
:10D070001A60754B8C2252009446BC4463449B6EEC
:10D080001A008C4B1A60704B8C2252009446BC44A0
:10D090006344DB6E1A00884B1A606B4B8C22520083
:10D0A0009446BC4463441B6F1A00844B1A60664B61
:10D0B0008C2252009446BC4463445B6F1A00804B40
:10D0C0001A60614B8C2252009446BC4463449B6FAF
:10D0D0001A007C4B1A605C4B8C2252009446BC4474
:10D0E0006344DB6F1A00784B1A60574B8C22520056
:10D0F0009446BC44634480229B581A00734B1A60C8
:10D10000514B8C2252009446BC44634484229B5869
:10D110001A006F4B1A604C4B8C2252009446BC4450
:10D12000634488229B581A006A4B1A60464B8C2233
:10D1300052009446BC4463448C229B581A00664BB0
:10D140001A60414B8C2252009446BC4463449022A6
:10D150009B581A00614B1A603B4B8C22520094463C
:10D16000BC44634494229B581A005D4B1A60364BB2
:10D170008C2252009446BC44634498229B581A0067
:10D18000584B1A60304B8C2252009446BC44634486
:10D190009C229B581A00544B1A602B4B8C22520035
:10D1A0009446BC446344A0229B581A004F4B1A601B
:10D1B000254B8C2252009446BC446344A4229B58C5
:10D1C0001A004B4B1A60204B8C2252009446BC44F0
:10D1D0006344A8229B581A00464B1A601A4B8C22B3
:10D1E00052009446BC446344AC229B581A00424B04
:10D1F0001A60154B8C2252009446BC446344B02202
:10D200009B581A003D4B1A600F4B8C2252009446DB
:10D21000BC446344B4229B581A00394B1A600A4B31
:10D220008C2252009446BC446344B8229B581A0096
:10D23000344B1A60044B8C2252009446BC44634425
:10D24000BC229B581A005FE0E8FEFFFF580900204F
:10D2500034090020D0080020C0080020B8080020B1
:10D26000840800200C0900208C080020AC08002055
:10D27000400900207409002060090020EC0800200B
:10D280006809002048090020440900200409002002
:10D29000880800201C090020B00800209008002009
:10D2A000FC08002028090020C4080020A008002055
:10D2B000680F0020640F0020540F00205C0F002036
:10D2C000600F00206C0F0020580F00203C09002048
:10D2D000E8080020B408002024090020F8080020F5
:10D2E000CC080020E4080020540900209C080020FD
:10D2F000E008002010090020D8080020A408002021
:10D30000BC080020D4080020714B1A60714B8C229D
:10D3100052009446BC446344C0229B581A006E4B92
:10D320001A606C4B8C2252009446BC446344C42265
:10D330009B581A00694B1A60664B8C225200944627
:10D34000BC446344C8229B581A00654B1A60614B69
:10D350008C2252009446BC446344CC229B581A0051
:10D36000604B1A605B4B8C2252009446BC44634471
:10D37000D0229B581A005C4B1A60564B8C225200EC
:10D380009446BC446344D4229B581A00574B1A60FD
:10D39000504B8C2252009446BC446344D8229B5884
:10D3A0001A00534B1A604B4B8C2252009446BC44DB
:10D3B0006344DC229B581A004E4B1A60454B8C226A
:10D3C00052009446BC446344E0229B581A004A4BE6
:10D3D0001A60404B8C2252009446BC446344E422C1
:10D3E0009B581A00454B1A603A4B8C2252009446C7
:10D3F000BC446344E8229B581A00414B1A60354BE9
:10D400008C2252009446BC446344EC229B581A0080
:10D410003C4B1A602F4B8C2252009446BC44634410
:10D42000F0229B581A00384B1A602A4B8C2252006B
:10D430009446BC446344F4229B581A00334B1A6050
:10D44000244B8C2252009446BC446344F8229B58DF
:10D450001A002F4B1A601F4B8C2252009446BC447A
:10D460006344FC229B581A002A4B1A60194B210076
:10D470007A18D21880235B00D3581A00264B1A6002
:10D48000144B7A18D21882235B00D3581A00234B0E
:10D490001A60104B7A18D21884235B00D3581A00F4
:10D4A0001F4B1A600B4B7A18D21886235B00D35897
:10D4B0001A001C4B1A60074B7A18D21888235B009D
:10D4C000D3581A00184B1A60C046BD4647B090BDED
:10D4D000F0080020E8FEFFFF700900205C09002032
:10D4E000300900204C090020000900201409002008
:10D4F000780900206C0900209808002064090020A9
:10D500002C09002094080020C8080020F4080020FE
:10D510003809002050090020DC080020A80800205D
:10D5200020090020080900201809002080B584B0D7
:10D5300000AF0F4B9B68BB600E4B7B600023FB6012
:10D540000CE0FB689B00BA68D218FB689B00796806
:10D55000CB1812681A60FB680133FB60FB682F2B45
:10D56000EFDD034B034A9A60C046BD4604B080BD60
:10D5700000ED00E00008002080B584B000AF02009C
:10D580003960FB1D1A70084B9B68FB60FB1D1B7804
:10D590005BB210339B00FA68D3183A681A60C04631
:10D5A000BD4604B080BDC04600ED00E080B582B04D
:10D5B00000AF0200BB1D1A807B1D0A1C1A70064BAF
:10D5C0001B687A1D1178BA1D10880A00012198473E
:10D5D000C046BD4602B080BD7409002080B582B04F
:10D5E00000AF0200BB1D1A80044B1B68BA1D1288D5
:10D5F00010009847C046BD4602B080BD68090020B3
:10D6000090B583B002AF924B1C68924A00230093FE
:10D61000002301210020A0478F4B1B688F48002268
:10D62000012198478C4B1B688D48002201219847A7
:10D630000021002000F016FD8A4B1B68874A00215C
:10D64000100098471420FFF7CDFB864B1B68834AD8
:10D650000121100098471420FFF7C4FBCF2000F0F1
:10D66000E3FC002000F09AFCD92000F097FC302069
:10D6700000F094FCED2000F0D7FC642000F08EFC5C
:10D68000032000F08BFC122000F088FC812000F0C9
:10D6900085FCE82000F0C8FC852000F07FFC10200D
:10D6A00000F07CFC782000F079FCCB2000F0BCFC82
:10D6B000392000F073FC2C2000F070FC002000F0FA
:10D6C0006DFC342000F06AFC022000F067FCF720BB
:10D6D00000F0AAFC202000F061FCEA2000F0A4FC8D
:10D6E000002000F05BFC002000F058FCC02000F09F
:10D6F0009BFC212000F052FCC12000F095FC122080
:10D7000000F04CFCC52000F08FFC322000F046FCFD
:10D710003C2000F043FCC72000F086FCC12000F054
:10D720003DFC362000F080FC082000F037FC3A2059
:10D7300000F07AFC552000F031FCB12000F074FCC0
:10D74000002000F02BFC182000F028FCB62000F090
:10D750006BFC0A2000F022FCA22000F01FFCF2204B
:10D7600000F062FC002000F019FC262000F05CFCB8
:10D77000012000F013FCE02000F056FC0F2000F028
:10D780000DFC202000F00AFC1E2000F007FC092000
:10D7900000F004FC122000F001FC0B2000F0FEFB66
:10D7A000502000F0FBFBBA2000F0F8FB442000F012
:10D7B000F5FB092000F0F2FB142000F0EFFB052040
:10D7C00000F0ECFB232000F0E9FB212000F0E6FB59
:10D7D000002000F0E3FBE12000F026FC002000F038
:10D7E000DDFB192000F0DAFB192000F0D7FB002048
:10D7F00000F0D4FB122000F0D1FB072000F0CEFB9C
:10D800002D2000F0CBFB282000F0C8FB3F2000F0CB
:10D81000C5FB022000F0C2FB0A2000F0BFFB08207D
:10D8200000F0BCFB252000F0B9FB2D2000F0B6FB7A
:10D830000F2000F0B3FB112000F0F6FB7820FFF77B
:10D84000D1FA292000F0F0FBC046BD4601B090BDE2
:10D85000680F002070170000740900200203000008
:10D86000010300006009002090B583B000AF040000
:10D8700008001100BB1D221C1A803B1D021C1A80CF
:10D88000BB1C0A1C1A803B1D1C88BB1D1A883B1D33
:10D890001988BB1D1888230000F0FBFBBB1C1B88EC
:10D8A000180000F099FBC046BD4603B090BDB0B56E
:10D8B0008CB000AF05000C0010001900BB1D2A1C25
:10D8C0001A803B1D221C1A80BB1C021C1A803B00C4
:10D8D0000A1C1A800023BB6200237B62BB1C1A88CF
:10D8E000BB1D1B88D31A3B623B001A883B1D1B885B
:10D8F000D31AFB61BB1D1B88FB603B1D1B88BB60F3
:10D900003B6A002B02DD01237B610BE03B6A002BAD
:10D9100002D100237B6105E001235B427B613B6A0E
:10D920005B423B62FB69002B02DD01233B610BE0A4
:10D93000FB69002B02D100233B6105E001235B4220
:10D940003B61FB695B42FB613A6AFB699A4202DD1B
:10D950003B6ABB6101E0FB69BB612E23FB1800221F
:10D960001A802FE0FB689BB2BA6891B24022BA18C5
:10D9700012881800FFF778FFBA6A3B6AD318BB62B7
:10D980007A6AFB69D3187B62BA6ABB699A4207DD7F
:10D99000BA6ABB69D31ABB62FA687B69D318FB60A9
:10D9A0007A6ABB699A4207DD7A6ABB69D31A7B62DD
:10D9B000BA683B69D318BB602E217B181A887B1884
:10D9C00001321A802E23FB181A88BB6901339A4250
:10D9D000C8DDC046BD460CB0B0BDB0B584B000AF28
:10D9E00005000C0010001900BB1D2A1C1A803B1DED
:10D9F000221C1A80BB1C021C1A803B000A1C1A80C5
:10DA00003B001C88BB1C1A883B1D1988BB1D18884D
:10DA1000230000F03EFB0E23FB183A1D12881A80EB
:10DA20001EE00C23FB18BA1D12881A800BE020237D
:10DA3000FB181B88180000F0CFFA0C217B181A88FD
:10DA40007B1801321A800C23FA18BB1C12881B8821
:10DA50009A42ECD90E217B181A887B1801321A8061
:10DA60000E23FA183B0012881B889A42D9D9C04667
:10DA7000BD4604B0B0BDB0B584B000AF05000C0029
:10DA800010001900BB1D2A1C1A803B1D221C1A8085
:10DA9000BB1C021C1A803B000A1C1A803B6ABB603C
:10DAA000BB1D1B880F339AB23B1D1B880F339CB2E2
:10DAB0003B1D1988BB1D1888230000F0EAFA0E23CD
:10DAC000FB1800221A702EE00F23FB1800221A7098
:10DAD0001BE0BB681B781A000F23FB181B781A4148
:10DAE00013000122134005D0BB1C1B88180000F056
:10DAF00073FA04E03B001B88180000F06DFA0F2158
:10DB00007B181A787B1801321A700F23FB181B78C8
:10DB1000072BDED9BB680133BB600E217B181A7856
:10DB20007B1801321A700E23FB181B781F2BCBD9E0
:10DB3000C046BD4604B0B0BDB0B588B002AF050068
:10DB40000C0010001900BB1D2A1C1A803B1D221C52
:10DB50001A80BB1C021C1A803B000A1C1A80152369
:10DB6000FB1800221A70E0E072B6BB6A1B781F2B0C
:10DB70006BD9BB6A1B787E2B67D8704B3B61152134
:10DB80007B181B789BB2DB009AB2BB1D1B88D31895
:10DB900098B27B181B789BB2DB009AB2BB1D1B8826
:10DBA000D3189BB207339AB23B1D1B880F339CB22C
:10DBB0003B1D1988230000F06CFABB6A1B78203BE0
:10DBC0001B011A003B699B183B611623FB180022BE
:10DBD0001A702EE01723FB1800221A701BE03B6915
:10DBE0001B781A001723FB181B781A411300012217
:10DBF000134005D0BB1C1B88180000F0EDF904E0B1
:10DC00003B001B88180000F0E7F917217B181A78F1
:10DC10007B1801321A701723FB181B78072BDED9EB
:10DC20003B6901333B6116217B181A787B1801325E
:10DC30001A701623FB181B780F2BCBD915217B18D4
:10DC40001A787B1801321A706BE0BB6A1B787E2B46
:10DC500067D91723FB1800221A7057E00F203B18D2
:10DC6000BA6A12781A700E23FB18BA6A52781A70C0
:10DC700017243B191A78324913001B019B185B00CB
:10DC80005A560D257B191A703B191A782C49130026
:10DC90001B019B185B00CB18013300229A560C2302
:10DCA000FB181A703A187B1912781B789A4227D100
:10DCB0000E23FA180C23FB1812781B789A421FD1F6
:10DCC0001523FB181B789BB2DB009AB2BB1D1B8887
:10DCD000D31898B21723FB181A7813001B019B184E
:10DCE0005B00174A9B1802333A001588BA1C148847
:10DCF0003A1D118800932B002200FFF7BCFE0AE0BA
:10DD000017217B181A787B1801321A701723FB1819
:10DD10001B78042BA2D91522BB18BA18127801322D
:10DD20001A70BB6A0133BB6262B6BB6A1B78002BF8
:10DD300000D019E7C046BD4606B0B0BD7CE8000083
:10DD40007CEE0000F0B587B002AF05000C001000BB
:10DD50001900BB1D2A1C1A803B1D221C1A80BB1CEB
:10DD6000021C1A803B000A1C1A800C257B19894A68
:10DD70001A803B001C88BB1C1A883B1D1988BB1DE0
:10DD800018887B191B8800932300FFF726FE0B23BE
:10DD9000FB1802221A707B1900221A803B1D1C8876
:10DDA000BB1C1A883B1D1988BB1D18887B191B8852
:10DDB00000932300FFF77BFD3B001C88BB1D1A88E6
:10DDC0003B1D1988BB1D18887B191B8800932300F5
:10DDD000FFF76DFD7B1900221A803B001C88BB1CDD
:10DDE0001A883B1D1988BB1C18887B191B88009357
:10DDF0002300FFF75CFD3B001C88BB1C1A883B001E
:10DE00001988BB1D18887B191B8800932300FFF716
:10DE10004EFD0F23FB1801221A70AEE020230822CA
:10DE20009446BC4463441B78002B01D1002200E0DF
:10DE3000594A0C26BB191A800F257B191B789AB2F8
:10DE4000BB1D1B88D31898B27B191B789AB23B1D57
:10DE50001B88D31899B27B191B789BB2BA1C128805
:10DE6000D31A9CB27B191B789AB23B1D1B88D3181E
:10DE70009AB2BB191B88009313002200FFF717FD0D
:10DE80007B191B789AB2BB1D1B88D31898B27B19DB
:10DE90001B789AB23B1D1B88D31899B27B191B784B
:10DEA0009AB2BB1D1B88D3189CB27B191B789BB2FE
:10DEB0003A001288D31A9AB2BB191B880093130038
:10DEC0002200FFF7F4FC202308229446BC4463445C
:10DED0001B78002B01D1304A00E000220C26BB1930
:10DEE0001A800F257B191B789BB2BA1C1288D31A93
:10DEF00098B27B191B789AB23B1D1B88D31899B234
:10DF00007B191B789BB2BA1C1288D31A9CB27B195E
:10DF10001B789BB23A001288D31A9AB2BB191B889D
:10DF2000009313002200FFF7C2FC7B191B789AB202
:10DF3000BB1D1B88D31898B27B191B789BB23A0083
:10DF40001288D31A99B27B191B789BB2BA1C12881B
:10DF5000D31A9CB27B191B789BB23A001288D31A51
:10DF60009AB2BB191B88009313002200FFF79FFC95
:10DF70007B191A787B1901321A700F23FA180B23B8
:10DF8000FB1812781B789A4200D247E7C046BD467C
:10DF900005B0F0BD3084FFFFFFFF000080B582B008
:10DFA00000AF0200FB1D1A70084B1B68084A0121D4
:10DFB00010009847074B1B68FA1D127811000020CB
:10DFC0009847C046BD4602B080BDC04660090020EB
:10DFD00001030000640F002080B582B000AF020092
:10DFE000BB1D1A800D4B1B680D4A0121100098477C
:10DFF0000C4B1B68BA1D1288120A92B2D2B21100E1
:10E0000000209847074B1B68BA1D1288D2B2110036
:10E0100000209847C046BD4602B080BD6009002080
:10E0200001030000640F002080B582B000AF020041
:10E03000FB1D1A70084B1B68084A00211000984706
:10E04000074B1B68FA1D1278110000209847C04644
:10E05000BD4602B080BDC04660090020010300003B
:10E06000640F002080B582B000AF0200FB1D1A7063
:10E070003B1D0A1C1A80FB1D1B781800FFF7D4FFFC
:10E080003B1D1B881800FFF7A7FFC046BD4602B026
:10E0900080BDB0B582B000AF05000C0010001900C3
:10E0A000BB1D2A1C1A803B1D221C1A80BB1C021C93
:10E0B0001A803B000A1C1A802A20FFF7B5FFBB1DFF
:10E0C0001B881B0A9BB2DBB21800FFF767FFBB1D62
:10E0D0001B88DBB21800FFF761FFBB1C1B881B0A03
:10E0E0009BB2DBB21800FFF759FFBB1C1B88DBB2E9
:10E0F0001800FFF753FF2B20FFF796FF3B1D1B88EF
:10E100001B0A9BB2DBB21800FFF748FF3B1D1B88C0
:10E11000DBB21800FFF742FF3B001B881B0A9BB2D3
:10E12000DBB21800FFF73AFF3B001B88DBB2180098
:10E13000FFF734FF2C20FFF777FFC046BD4602B043
:10E14000B0BD000080B500AF00F08EF83C493D4AFC
:10E15000C0239B028B503A4A3B4BD358384980220C
:10E1600092001343384A8B50384B9B78DBB21A002D
:10E170000823134007D0354B9B78DBB2334A082184
:10E180000B43DBB293702E492E4A80235B028B50E7
:10E190002B4A2F4BD3582A492E4A13402C4A8B50D6
:10E1A000274B1A68264B2C490A401A60244A284BF0
:10E1B000D3582A4A13402249802252041343244A46
:10E1C0008B50274B06221A70254B5B78DBB2244A12
:10E1D00040210B40DBB25370214BDB78DBB25BB2EA
:10E1E0001F2213405BB26022524213435AB21C4BAF
:10E1F000D2B2DA701B4B00221A70194B00221A712E
:10E20000174B00225A71C046154B9B79DBB21A009E
:10E2100010231340F8D0C046114B9B79DBB21A0093
:10E220000C231340F8D1064A074BD3580449F8226F
:10E2300092011343044A8B50C046BD4680BDC04680
:10E2400000700440441000003810000000D0074067
:10E2500004100000FFFFFCFFFFFFF3FFFFFFFFFCC8
:10E26000004006400050064080B500AF064A8823B3
:10E270005B01D35804490C2293431A0088235B01A5
:10E28000CA50C046BD4680BD00700440084B10B562
:10E290000400002B02D0002100E000BF054B1868ED
:10E2A000836A002B00D09847200000F04FF8C0464A
:10E2B0000000000028EF000070B500260C4D0D4C4A
:10E2C000641BA410A64209D1002600F02FFE0A4DBF
:10E2D0000A4C641BA410A64205D170BDB300EB58D4
:10E2E00098470136EEE7B300EB5898470136F2E75E
:10E2F0004CEF00004CEF00004CEF000050EF00002E
:10E30000002310B59A4200D110BDCC5CC454013337
:10E31000F8E703001218934200D1704719700133D7
:10E32000F9E730B50500002A00D130BD0C78013A7C
:10E330006B1C2C700131002C05D19A189A42F4D034
:10E340001C700133FAE71D00EDE70000FEE7C04650
:10E3500041484C2052756E202E2020202020202065
:10E36000202020202020202020202020000000002D
:10E3700041484C2052756E202E2E20202020202037
:10E38000202020202020202020202020000000000D
:10E3900041484C20496E697469616C697A65202E28
:10E3A00020202020202020202020202000000000ED
:10E3B00041484C20496E697469616C697A65202E08
:10E3C0002E202020202020202020202000000000BF
:10E3D000496E6974616C204572726F723A415420C3
:10E3E0004572726F72202020202020200000000043
:10E3F000496E6974616C204572726F723A4154457E
:10E4000030204572726F7220202020200000000012
:10E41000496E6974616C204572726F723A494D455C
:10E4200049204572726F72202020202000000000D9
:10E43000496E6974616C204572726F723A494D532E
:10E4400049204572726F72202020202000000000B9
:10E45000496E6974616C204572726F723A42205441
:10E46000797065204572726F7220202000000000D4
:10E47000496E6974616C204572726F723A4E6574B0
:10E48000204572726F7220202020202000000000A2
:10E49000496E6974616C204572726F723A504450D3
:10E4A000204572726F722020202020200000000082
:10E4B000496E6974616C204572726F723A47657477
:10E4C000204950204572726F722020200000000009
:10E4D000496E6974616C204572726F723A415420C2
:10E4E0004F4B2C4950204572726F72200000000083
:10E4F000496E6974616C204572726F723A54435070
:10E50000204572726F7220202020200041484C204C
:10E51000496E697469616C697A65205375636365D6
:10E52000737366756C6C7920000000003000000089
:10E53000202020202020202020200000202020201B
:10E540002000000041484C2053656E64202E20209E
:10E5500020202020202020202020202020202020BB
:10E560000000000041484C2053656E64202E2E2090
:10E57000202020202020202020202020202020209B
:10E580000000000041484C2053656E6420537563C1
:10E590006365737366756C6C7920202020202020C1
:10E5A0000000000053656E64204572726F723A532A
:10E5B000656E64204E6F7420537461727420202045
:10E5C0000000000053656E64204572726F723A530A
:10E5D000656E642044617461204E6F74204F4B203F
:10E5E0000000000041484C2052656376206F6E6544
:10E5F000206672616D6520202020202020202020B0
:10E600002020202020202000737563636573730031
:10E6100041484C2053656E64205375636365737382
