:1000000000080020D10400001505000015050000BF
:1000100000000000000000000000000000000000E0
:1000200000000000000000000000000015050000B6
:10003000000000000000000015050000BD220000C7
:100040001505000015050000150500001505000048
:100050001505000015050000150500001505000038
:100060001505000015050000150500001505000028
:10007000D92200000D230000DD230000150500003B
:100080001505000015050000150500001505000008
:1000900015050000150500001505000015050000F8
:1000A00015050000150500001505000015050000E8
:1000B00015050000150500001505000015050000D8
:10040000FFFFFFFFFFFFFFFFFFFFFFFFFEFFFFFFFD
:1004100010B5064C2378002B07D1054B002B02D0DA
:10042000044800E000BF0123237010BD90F9FF1FB6
:1004300000000000B05B0000044B10B5002B03D09F
:100440000349044800E000BF10BDC04600000000A2
:1004500094F9FF1FB05B0000164B002B00D1144B2A
:100460009D46402292029A1A924600218B460F46E0
:100470001348144A121A05F02CF90F4B002B00D028
:1004800098470E4B002B00D0984700200021040015
:100490000D000D48002802D00C4800E000BF05F018
:1004A000EBF82000290002F085F905F0CFF8C046EE
:1004B000000008000008002000000000000000000C
:1004C00090F9FF1F880200200000000000000000DB
:1004D00072B604F09DF962B609490A4A0A4B9B1AA2
:1004E00003DD043BC858D050FBDC0849084A521AC7
:1004F00003DD00208850043AFCDAFFF7ADFF00006E
:10050000D85B000000F8FF1F8CF9FF1F90F9FF1F58
:10051000880200200048004715050000002243081B
:100520008B4274D303098B425FD3030A8B4244D3BB
:10053000030B8B4228D3030C8B420DD3FF220902FD
:1005400012BA030C8B4202D31212090265D0030BBC
:100550008B4219D300E0090AC30B8B4201D3CB03B2
:10056000C01A5241830B8B4201D38B03C01A5241F4
:10057000430B8B4201D34B03C01A5241030B8B42F6
:1005800001D30B03C01A5241C30A8B4201D3CB02E1
:10059000C01A5241830A8B4201D38B02C01A5241C6
:1005A000430A8B4201D34B02C01A5241030A8B42C9
:1005B00001D30B02C01A5241CDD2C3098B4201D3E1
:1005C000CB01C01A524183098B4201D38B01C01A5F
:1005D000524143098B4201D34B01C01A52410309D6
:1005E0008B4201D30B01C01A5241C3088B4201D385
:1005F000CB00C01A524183088B4201D38B00C01A32
:10060000524143088B4201D34B00C01A5241411A58
:1006100000D20146524110467047FFE701B5002065
:1006200000F0F0F802BDC0460029F7D076E7704729
:1006300003460B437FD4002243088B4274D3030943
:100640008B425FD3030A8B4244D3030B8B4228D3E4
:10065000030C8B420DD3FF22090212BA030C8B420A
:1006600002D31212090265D0030B8B4219D300E0AA
:10067000090AC30B8B4201D3CB03C01A5241830B2F
:100680008B4201D38B03C01A5241430B8B4201D3DF
:100690004B03C01A5241030B8B4201D30B03C01A08
:1006A0005241C30A8B4201D3CB02C01A5241830A82
:1006B0008B4201D38B02C01A5241430A8B4201D3B1
:1006C0004B02C01A5241030A8B4201D30B02C01ADB
:1006D0005241CDD2C3098B4201D3CB01C01A524142
:1006E00083098B4201D38B01C01A524143098B42CB
:1006F00001D34B01C01A524103098B4201D30B01B4
:10070000C01A5241C3088B4201D3CB00C01A5241D8
:1007100083088B4201D38B00C01A524143088B429D
:1007200001D34B00C01A5241411A00D20146524136
:10073000104670475DE0CA0F00D04942031000D355
:100740004042534000229C4603098B422DD3030AAA
:100750008B4212D3FC22890112BA030A8B420CD3BA
:10076000890192118B4208D3890192118B4204D3E3
:1007700089013AD0921100E08909C3098B4201D363
:10078000CB01C01A524183098B4201D38B01C01A9D
:10079000524143098B4201D34B01C01A5241030914
:1007A0008B4201D30B01C01A5241C3088B4201D3C3
:1007B000CB00C01A524183088B4201D38B00C01A70
:1007C0005241D9D243088B4201D34B00C01A524147
:1007D000411A00D20146634652415B10104601D3D4
:1007E0004042002B00D54942704763465B1000D35E
:1007F000404201B5002000F005F802BD0029F8D004
:1008000016E770477047C046002B11D1002A0FD160
:10081000002900D1002802D00021C943081C07B4D8
:10082000024802A14018029003BDC046D9FFFFFF55
:1008300003B4684601B5029800F030F8019B9E466B
:1008400002B00CBC7047C046F0B5CE464746150412
:100850002D0C2E0080B50704140C3F0C9946030C98
:100860007E435D43674363437F19340CE4199C4620
:10087000A54203D980235B029846C4444B464343B8
:100880005143250C36046544360C2404A4195B1925
:10089000591820000CBC90469946F0BDF0B54F4663
:1008A0004646D646C0B5040082B00D009146984633
:1008B0008B422FD82CD04146484601F0E1FC29005C
:1008C0000600200001F0DCFC331A9C46203B9A46CF
:1008D00000D576E04B46524693401F004B46624699
:1008E00093401E00AF4228D825D05346A41BBD41DB
:1008F000002B00DA7BE00022002300920193012309
:10090000524693400193012362469340009318E0BE
:100910008242D0D900220023009201930A9B002B2F
:1009200001D01C605D600098019902B01CBC90462B
:100930009946A246F0BDA342D7D9002200230092D7
:1009400001936346002BE9D0FB07984641467208A5
:100950000A437B0866460EE0AB4201D1A2420CD8A6
:10096000A41A9D41012024196D410021013E241843
:100970004D41002E06D0AB42EED9013E24196D4107
:10098000002EF8D100980199534600196941002BB7
:1009900023DB2B005246D3402A006446E2401C0071
:1009A00053461500002B2DDB26005746BE40330072
:1009B00026006746BE403200801A9941009001919E
:1009C000ACE7624620239B1A4A46DA406146130090
:1009D00042468A4017001F4380E7624620239B1A45
:1009E0002A0066469A402300F3401343D4E7624648
:1009F000202300219B1A0022009101920122DA405B
:100A0000019280E72023624626009B1ADE402F00D9
:100A1000B0466646B74046463B003343C8E7C0464B
:100A2000F0B54F464646D6460C000903C0B5490A04
:100A3000470F5E0039431F03DB0F9C4665007B0AAE
:100A4000570F1F436D0DE40F760DA146C000B84649
:100A5000D200AB1B64457BD0002B5FDD002E00D0A5
:100A6000A4E03E00164300D112E15E1E002E00D02D
:100A70009EE1871A4346B84280410125C91A404287
:100A8000091A0B0200D431E149024E0A002E00D1AE
:100A90006EE1300001F0D6FB0300083B1F2B00DDA8
:100AA00061E120223900D21A9E40D1409F400E437E
:100AB0009D4200DD51E15D1B6B1C1F2B00DD7CE1C5
:100AC0002021C91A3D0030008F408840DD40791E4A
:100AD0008F41310007222843D940002507433A407F
:100AE000002A09D00F233B40042B05D03B1DBB42FD
:100AF000BF417F42C9191F000B0200D426E26A1CC5
:100B0000C64B55056D0D9A4200D106E1C44AFF0857
:100B10000A40530752023B43120B8EE0002B00D0D9
:100B2000B8E06B1C5B055B0D012B00DC30E1871A24
:100B30004346B842B641CB1A76429E1B330200D5DB
:100B40004CE13B003343A1D100220024002570E09A
:100B5000002B00DCE5E0002E00D183E0AF4EB54273
:100B600060D0802636043743B846382B00DC3EE19F
:100B7000434613431F007A1E97413F188742804126
:100B8000404209180B0200D4B0E0A44B01359D424D
:100B900000D1C3E0A24A7B080A4001210F401F4355
:100BA0005108D30707221F433A4099E79B4EB542AD
:100BB00038D0802636043743B846382B00DDDCE0D9
:100BC0001F2B00DC30E11E004746203EF740BC46AC
:100BD000202B04D04026F31A46469E40324317008D
:100BE00063467A1E97411F43CCE0002B00D104E2FC
:100BF0004346134300D159E14B07C00818438023F3
:100C0000C9081B03194208D04546ED081D4204D10E
:100C10004346D008590708432900420FC9007F4DB9
:100C20001143C0004B07CA087C49C00803438D42EA
:100C300068D012036D05120B6D0D00211203180010
:100C4000130B0A0D12051A43764B2D0513402B4347
:100C50005B00E4075B08234319001CBC90469946DF
:100C6000A246F0BD3E00164312D05E1E002E00D0FC
:100C700000E187188742804141444042091801251C
:100C80000B0233D5022585E7644633004146100048
:100C90001D00C7E7002D00D0DAE00C000443F3D0BC
:100CA0005C1C00D19FE15D4CA64200D12FE1DB43EB
:100CB000382B00DD66E11F2B00DD83E120240500D9
:100CC000E41A0F00DD40D940A0404346A7405B1A1C
:100CD000441EA04198462F433843171ABA42924106
:100CE00043465242991A64463500CAE607223A4002
:100CF000002A00D0F6E64B07CA084849FF083B43E4
:100D00008D4296D11900114300D19EE18021090343
:100D10000A431203120B414D8FE7150000220023F6
:100D20008BE7002B00D0C7E06B1C5F057F0D012F08
:100D300000DCF1E0394DAB4200D1B9E085180A0082
:100D4000854289414244494251180722CF076D0824
:100D50002F4349083A401D00C2E607223049ED1AE8
:100D600031403A40BCE63E002838864000279FE6E6
:100D7000380001F067FA20308EE6434613431F0027
:100D80007A1E9741C71BB84280414042091A78E653
:100D90000E003B0006431343002D61D1002E00D00E
:100DA000F4E0002B00D11BE164463900100039E764
:100DB0001A4FBB427AD03300FFE630001F3DE840B7
:100DC000202B03D04021CB1A9E4037437B1E9F41EE
:100DD000072207433A400021002589E7171A4346B6
:100DE000BA42B641591A76428E1B64464EE61F2B14
:100DF00000DDADE020264746F61AB740B946170099
:100E0000B246DF404E463E4337005646B240561E7D
:100E1000B24117434246DA408918AEE6FF070000A8
:100E2000FFFF7FFFFFFF0F8020264746F61AB740DF
:100E3000B9461700B246DF404E463E43370056469D
:100E4000B240561EB24117434246DA40891A99E72A
:100E50007F4CA6425BD0802424045B42214327E7D9
:100E6000002E0CD1002B00D1CBE0644639001000DD
:100E7000774DD7E6764FBB4218D0330075E6002B8E
:100E800014D04B07C00818438023C9081B0319421C
:100E900007D0FC081C4204D17907D0080843E1467A
:100EA00021004C46420FC9001143C000684DB9E60D
:100EB0001D0000220023C0E6002D5BD10D0005437C
:100EC00000D1E2E65D1C00D1B0E0614DAE421FD022
:100ED000DB43382B71DC1F2B00DD96E020250F0053
:100EE000ED1AAF40B9460700AA46DF404D463D43E4
:100EF0002F005546A840D940451EA84188440743C5
:100F0000BF18974292415142414435003AE6644647
:100F100035004146100085E60B000343002D00D04C
:100F200063E6002BF5D04346134300D17AE68718D9
:100F30008742804107224144404209183A400B024F
:100F400000D4D5E6434B01351940C9E5380069E6C0
:100F50001E004746203EF740BC46202B04D04026CA
:100F6000F31A46469E403243170063467A1E974165
:100F70001F4302E6364DAE42CAD080252D045B42A7
:100F80002943A6E70843411E8841A6E6002B00D16D
:100F900048E6871A4346B842B641CB1A76429E1BB2
:100FA00033024BD5171A4346BA429241591A52425C
:100FB000891A072264463A4092E501430F00791EE0
:100FC0008F419DE71C000F00203CE740202B03D001
:100FD0004024E31A99400843411E884138437CE687
:100FE0000022002425E6171A4346BA429241591AB4
:100FF0005242891A6446350043E541461000144DBB
:1010000010E680220024120380E61D000F00203D20
:10101000EF40BC46202B03D04025EB1A99400843F3
:1010200007006346781E87411F4369E78718974288
:101030009B4141445B42C9183500A3E53B00334363
:10104000CED0072231003A4052E600231A00F4E5E0
:10105000FF070000FFFF7FFFF0B55746DE464E4614
:101060004546E0B5834607000E03480085B092462A
:101070001C00360B400DCD0F002800D19DE0954B94
:10108000984239D08023F6001B041E43924A7B0FFE
:10109000334399469446030063440093002300269B
:1010A000FF00029323031B0B98466300E40F524694
:1010B0005B0D019400D1B3E086498B4200D19EE0E4
:1010C0004246D100802212040A435146490F11437F
:1010D0008B46814952468C4600996344CB1A0021C5
:1010E000D20000932B0063409A460F2E00D905E1F1
:1010F0007A4BB6009B599F465B463343994600D0D6
:10110000B8E002230826002700900293CAE7CB46E6
:101110003A0002990195019B9A46022927D003299A
:1011200000D180E2012944D06D49009B8C46634484
:101130001C00002C38DD530700D013E2D2085B46B8
:10114000DB0109D55946674B19408B468021C90000
:101150008C46009B63441C00634B9C4207DC5B464F
:1011600064055F075B0217431B0B620D02E000235F
:101170000027584A00211B031C0B0B0D1B052343A2
:1011800014055A4A380013401C4353466400DB07D9
:1011900064081C43210005B03CBC90469946A24619
:1011A000AB46F0BD0122524201231B1B382B00DC51
:1011B000ADE1002200230027DCE75B46334399467C
:1011C0005ED0002E00D18AE1300001F03BF8030030
:1011D0000B3B1C2B00DD7BE11D22D31A5A4601007C
:1011E000DA4008398E4013005F46334399468F40FA
:1011F0003F4B00261B1A00930023029352E74146FF
:1012000053460B433B499B468C46009B63440093EB
:101210005B46002B3BD1022300221E43022161E7E3
:10122000434613439B4637D04346002B00D162E12F
:10123000404601F007F803000B3B1C2B00DD53E197
:1012400002004146083A914088461D21CB1A51467A
:10125000D9400B0041460B439B46534693401A002E
:10126000009B25499C46604403008C4663440093E0
:10127000002137E70323B14600900C26029311E7C3
:101280000023009301330426002702930AE7032377
:10129000C3461E43032125E701331E4300220121DB
:1012A00020E700239A46802300271B03094A61E7B1
:1012B000802349461B03194200D1E2E059461942F6
:1012C00000D0DEE00B431B0317001B0BA246014AB4
:1012D00050E7C046FF07000001FCFFFFEC5900008B
:1012E000FF030000FFFFFFFEFE070000FFFF0F806F
:1012F0000DFCFFFF01F8FFFFF3030000D94500D903
:10130000CBE000D1C6E03C0048460027009B013BF3
:1013100000935B46160E1B021E43130298463304CD
:101320001B0C9946310C0191FFF77EF94A46424366
:101330000B04210C050019438A4207D98919013D84
:101340008E4203D88A4201D9851E8919881A0199CB
:10135000FFF76AF909048C464A4621046446424371
:10136000090C030021438A4204D98919013B8E42AA
:1013700000D8F1E02D041D43AB464346891A42468E
:10138000280C12041D0C5B46140C22001B041B0CC1
:101390005A4303946B434443029568431B19150C4D
:1013A000EB189C4203D980246402A44660441C0CC0
:1013B00015041B042D0C20185D19814277D373D0BE
:1013C0000C1AA24A7D1BAF42BF419446009B7F424C
:1013D0006344E01B1C00864200D1DBE00199FFF76B
:1013E00023F94A4642430B04290C070019438A4259
:1013F00007D98919013F8E4203D88A4201D9871E35
:101400008919881A0199FFF70FF909044A46894694
:1014100029044D464243090C030029438A4207D957
:101420008919013B8E4203D88A4201D9831E89194A
:101430003F04891A3A00039F1A43380013041B0C17
:10144000584381460298150C6F4343434543484631
:10145000000C8446DB1963449F4203D9802040027C
:101460008446654448461F0C00041B04000C7D198B
:101470001818A94200D284E000D17FE001231A436A
:1014800057E680234A461B0313431B031B0BAA4644
:101490006F4A6FE6BA4200D935E74B46DC07580879
:1014A0007B081C43FF0734E70024AF4289D247443E
:1014B0004745A4415B466442A4196418013BA64217
:1014C0001ED2A0426DD800D1B6E0241A9B4678E720
:1014D00003005A46283B9A400027914688E6584622
:1014E00000F0B0FE203072E603005246283B9A40DE
:1014F00093460022B4E6504600F0A4FE20309AE65F
:10150000A642E2D1B845DCD9341A9B4659E71F2BD5
:1015100065DC504C0099A4465C46614408008C4050
:1015200011008240D940501E82410C4314435A4658
:10153000DA401300620709D00F222240042A05D0A6
:101540002200141D9442894149425B181A0262D557
:101550000122002300270DE68A4200D80AE7831EF5
:10156000891907E70F231340042B00D1E6E5171D67
:101570009742924153429B44FA08E0E5002800D18B
:10158000D7E57118531EB14227D3A94215D358D0BD
:101590001A0073E7002B00DC04E6012300229B44C1
:1015A000CDE502234744474589415B429C46494279
:1015B00089190C19E344241A03E743465F004745A1
:1015C0009B41B8465B429E19023A8919A94200D054
:1015D00054E7404500D051E7ABE51A00F6E71F217C
:1015E0005F4649420C1BE740202B07D01A49009B5D
:1015F0008C46634418005B4683401A43501E824168
:101600003A4307270023174009D00F210023114038
:101610001400042995D122005F075B021B0BD2083E
:1016200017430022A6E5802359461B030B431B03E7
:1016300017001B0B064A9DE5BD42B2D89B4600240D
:10164000BFE68045B9D31A00C3E7C046FF030000D8
:10165000FF0700001E0400003E040000F0B55746DE
:10166000DE464E464546E0B5834606000F03480079
:1016700087B092461D003F0B400DCC0F002800D1D3
:101680006FE0DE4B984238D08023FF001B041F43DD
:10169000730F3B430193DA4B0027994600239B4687
:1016A000F60081442B0369001B0B52469846490DF6
:1016B000ED0F002900D185E0D04B994200D173E0B5
:1016C0004346DA0080231B0413435246CC48520F92
:1016D00084461343524600206144D20089442100CD
:1016E000694000918C46012149448A460F2F00D958
:1016F00090E0C449BF00CF59BF465B463B430193CE
:1017000000D06AE102230827002681469B46C9E7EC
:1017100032005846019B61460091022800D175E0D5
:10172000032800D1FEE1012800D02CE1002300278E
:10173000002600253F032A0D3F0BB34812053A430C
:1017400002401B051343009A5B00D1075B080B4363
:101750003000190007B03CBC90469946A246AB4603
:10176000F0BD5B463B43019300D12FE1002F00D138
:10177000A5E1380000F066FD03000B3B1C2B00DDEB
:1017800096E11D22D31A5A460100DA405E46083916
:101790008F4013008E403B4301939C4B00271B1A44
:1017A000994600239B467DE7414653460B439349A8
:1017B0008C46E144002B00D01AE10222022017439C
:1017C00000228CE7134300D10DE14346002B00D1EA
:1017D00081E1404600F036FD02000B3A1C2A00DD94
:1017E00072E10100434608398B4098461D239A1A3E
:1017F0005346D3401A004346134352468A40494653
:10180000081A824989468144002068E77B4B0027FB
:1018100000268EE7140C1204120C1100370C36044B
:10182000350C794328008C462E0060436044834683
:1018300056432100300C804658467943404402917B
:10184000844506D98846802149028C46E0444146B9
:1018500002913604010C360C00048B4681191E0CD3
:101860001B041B0C0391190079438C462800754317
:101870006544A8465843050C45447743A94203D91B
:10188000802149028C466744290C8C4639000004AB
:10189000000C2D042D186144AB4405915946049168
:1018A00001990F043F0C080C390051434243904604
:1018B00002008C46090C8B4662437C4344445C44E2
:1018C000A04503D98021490288464244210C88461C
:1018D00061460904090C8C4639005943434370435F
:1018E0007E430F0CF6182404BE19644442448C460F
:1018F000B34203D980235B0298464044029B614671
:101900009846049B370443449B46AB45AD416B422C
:101910000D0405992D0C8C467F196744FD18A846C7
:101920005D462D19A542A44193466442A446C34492
:10193000DC448F42BF4198459B4193459241A44569
:10194000A4415B427F421F43360C52426442BF199E
:101950002243BF18624638184302D20D039913433D
:101960006A020A43501E82416146ED0D2A434E022F
:101970003243D90100D4B3E001265008324002437B
:10198000DE0732435B08224C5444002C62DD5107D1
:1019900009D00F201040042805D0101D904292411C
:1019A00052429B180200D90104D580241948E40052
:1019B000034054441848844200DD27E75E075B0279
:1019C000D2081F0B630516435B0DB2E60023994650
:1019D0000133042700269B4664E6032301978146D2
:1019E0000C279B465EE6012201201743002276E683
:1019F000032303201F43434671E6C046FF07000050
:101A000001FCFFFF2C5A0000FFFF0F800DFCFFFFC1
:101A1000FF030000FFFFFFFEFE07000000238027FA
:101A200000933F030026434B83E6019B3200A4460C
:101A3000584670E6AC466EE6802701993F0339426E
:101A40002DD03B422BD11F433F033F0B0095160087
:101A5000384B6EE601252D1B382D00DD66E61F2D67
:101A600040DC35481C005044160082408440EE4063
:101A7000501E824134431443EB40620709D00F22C9
:101A80002240042A05D02200141D94428041404285
:101A90001B181A023ED501230027002649E680279D
:101AA000019B3F031F433F033F0B0094214B40E644
:101AB00003005A46283B9A40002601926DE658469C
:101AC00000F0C0FB203057E603005246283B9A4006
:101AD0001300002293E6504600F0B4FB20307BE672
:101AE000CA4650E71F201E004042041BE640202D3E
:101AF00003D0124C5444A3401A43501E8241324337
:101B000007260027164009D00F200023104014009C
:101B10000428B9D122005E075B021F0BD2081643CE
:101B2000002306E680273F031F433F033F0B1600B9
:101B3000004BFEE5FF0700001E0400003E0400000D
:101B4000F8B557464E464546DE460C000903E0B55B
:101B5000490A460F5F0031431E03DB0F760A9B469E
:101B6000530F3343C84E6500C000E40FD2006D0D23
:101B7000A24681467F0D9C469046B74200D1B9E00F
:101B80005B46012673409B46EE1BA34500D183E0D4
:101B9000002E63DD002F00D0B1E06346134300D177
:101BA00023E1731E002B00D0BAE1861A6346B042CF
:101BB00080410125C91A4042091A0B0200D447E1AD
:101BC00049024B0A98464346002B00D189E1404622
:101BD00000F038FB0300083B1F2B00DD7CE12022D6
:101BE0003000D21A4146D040994002009E400A433C
:101BF0009D4200DD6AE15D1B6B1C1F2B00DD94E143
:101C0000202110003500C91A8E40DA408840DD409E
:101C1000711E8E41110007222843002506433240E1
:101C2000002A09D00F233340042B05D0331DB342C3
:101C3000B641764289191E000B0200D43DE26A1CAF
:101C4000914B55056D0D9A4200D119E18F4AF60866
:101C50000A40570752023743120B9BE0002E00D078
:101C6000C5E06E1C7605760D012E00DC48E1674666
:101C7000861ACB1BB042BF417F42B8461F00434685
:101C8000FF1A3B00B8461B0200D55FE137439AD1EB
:101C900000220024002579E0002E00DCFAE0002F6D
:101CA00000D18DE0784B9D4267D0802367461B04AE
:101CB0001F43BC46382E00DC52E1634613435A1ED4
:101CC00093411E1886428041404209180B0200D4FD
:101CD000BEE06D4B01359D4200D1D2E06B4A7308E6
:101CE0000A4001210E401E435108D30707221E431C
:101CF000324095E71E00164300D045E740E7624BAF
:101D00009D423AD0802367461B041F43BC46382EB1
:101D100000DDEBE01F2E00DC3AE133006746203B9C
:101D2000DF403B00202E05D04027BF1B6646BE404B
:101D3000324390464646721E96413343DAE0002B0A
:101D400000D114E26346134300D168E180234E07BB
:101D5000C008C9081B030643194208D06046C008E2
:101D6000184204D163460100D2085E071643F3000F
:101D70009946C900720F444D11434B46DE08424B51
:101D80004F073743CA089D4200D16EE012036D052C
:101D9000120B6D0D00211203130B0A0D12051A43CD
:101DA0003B4B2D0513402B435B00E4075B082343AB
:101DB000380019003CBC90469946A246AB46F8BD97
:101DC0006346134311D0731E002B00D007E1861821
:101DD0008642804161444042091801250B0237D5F3
:101DE00002257BE73E00614691463500C5E75C462B
:101DF000002D00D0E1E00B000343F3D0731C00D1B1
:101E0000ACE1214B9F4200D13AE1F343382B00DD96
:101E10006FE11F2B00DD8CE120250E00ED1AAE4096
:101E2000B0460600AA46DE40454635432E005546DC
:101E3000D940A8406346451EA8415B1A9C463043E2
:101E4000161AB242924163465242991A3D00B4E6D4
:101E500007223240002A00D0E4E60B4BF6084F0779
:101E60003743CA089D4200D090E73B00134300D19E
:101E7000A6E180231B031A431203120B024D89E7CC
:101E800015000022002785E7FF070000FFFF7FFF06
:101E9000FFFF0F80002E00D0C7E06B1C5E05760DA3
:101EA000012E00DCF0E0C84DAB4200D1B9E085184E
:101EB0000A00854289416244494251180722CE07EF
:101EC0006D082E43490832401D00A9E6BF49ED1AAE
:101ED000114007223240A3E6320028388240002613
:101EE00086E6300000F0AEF9203073E66346134317
:101EF0005A1E9341C61AB04280414042091A5CE61C
:101F00000E00674606431743002D5ED1002E00D019
:101F1000F3E0002F00D11EE15C46614691462CE7BC
:101F2000A94FBE427BD01E00F1E610001F3DE840E5
:101F3000202B03D04021CB1A9A401643731E9E419A
:101F40000722064332400021002583E7161A634624
:101F5000B2428041591A40420B1A98465C4632E61A
:101F60001F2E00DDABE02027BB1B9A466346574679
:101F7000BB40994613004F46F3401F433B00574672
:101F8000BA40571EBA4113436246F240891898E698
:101F90002027BB1B9A4663465746BB409946130011
:101FA0004F46F3401F433B005746BA40571EBA41C5
:101FB00013436246F240891A9CE7834B9F425FD0ED
:101FC00080252D047342294320E7002E0CD1002FD9
:101FD00000D1D0E05C46614691467B4DCDE67A4F1C
:101FE000BE421CD01E0065E6002F18D0C0084E0768
:101FF00006438020C9080003014208D06346DC087C
:10200000044204D12100DA46D2085E071643F300E9
:10201000994601245346C900720F11431C406A4D72
:10202000ABE61D0000220027B4E6002D59D10B00BD
:10203000034300D1D6E6731C00D1B2E0624B9F424D
:102040001ED0F343382B6FDC1F2B00DD97E02025DB
:102050000E00ED1AAE40B0460600AA46DE404546E8
:1020600035432E005546A840D940451EA8418C4412
:102070000643B61896429241514261443D0025E61E
:102080003D006146914678E60B000343002D00D0E9
:1020900055E6002BF5D06346134300D16DE6861854
:1020A0008642804161444042091800220B0200D45C
:1020B000D0E6464B01351940B2E5B1465DE6330046
:1020C0006746203BDF403B00202E05D04027BF1B4A
:1020D0006646BE40324390464646721E96413343A2
:1020E000EFE5394B9F42CBD080252D047342294325
:1020F000A8E70843411E8841A2E6002F00D13CE634
:102100006346861ACF1AB0429B415B42FB1A98463F
:102110001B024ED5161A6346B2429241591A5242D8
:10212000891A5C4600227BE501430E00711E8E4138
:102130009FE71D000E00203DEE40B046202B04D04E
:102140004025EB1A99400843814648464346411EC4
:102150008841184374E60022002417E6161A6346E5
:10216000B2429241591A5242891A3D0025E5614610
:102170009146154D01E680220024120379E61D00E8
:102180000E00203DEE40B046202B04D04025EB1A37
:102190009940084381464E464346711E8E411E4378
:1021A00067E7861896429B4161445B42C9183D002F
:1021B0008CE547463743CED007224146324049E6B8
:1021C00000273A00E6E5C046FF070000FFFF7FFF5B
:1021D00070B500282DD0C317C5185D40C40F280066
:1021E00000F030F8154B1B1A5B055B0D0A2815DD56
:1021F0000B38854000222D032D0B002110002D03EC
:102200000A0D2D0B12052A430D4D1B052A401343C1
:102210005B00E4075B082343190070BD020029003E
:10222000153291400A000B21081AC5402D032D0BD1
:10223000E3E70024002300250022DEE71E0400005F
:10224000FFFF0F801C2101231B04984201D3000CC7
:1022500010391B0A984201D3000A08391B09984219
:1022600001D30009043902A2105C40187047C0462F
:10227000040302020101010100000000000000004F
:1022800010B5002903D1FFF7DDFF203002E0081C64
:10229000FFF7D8FF10BDC04602780B78002A03D0A4
:1022A000013001319A42F7D0D01A70470023C25C46
:1022B0000133002AFBD1581E704700000122002381
:1022C000044930B50C684D6812196B410A604B60C7
:1022D00030BDC0463000002010B582B072B600207C
:1022E00002F086FC002802D162B602B010BD6B4637
:1022F000DC1D2100002002F0FDFB2378002BF3D031
:102300000100002002F090FBEEE7C04610B582B05D
:1023100072B6012002F06CFC002802D162B602B055
:1023200010BD6B46DC1D2100012002F0E3FB237889
:10233000002BF3D00100012002F076FBEEE7C0464F
:1023400030B5244C2388012B34D0002B2BD0022B0A
:102350000AD0032B10D104231F4A23801388C8708E
:1023600018181080012030BD032323801A4B887079
:10237000000218800120F6E7C85417485D1C038846
:10238000ADB22580AB42F5D1C9188D1E2D78432DF5
:102390001BD101390978432917D113800023038009
:1023A00023800020DFE75028E4D101230870238038
:1023B0000120D8E7502804D10223487023804F38E9
:1023C000D1E7002302202380CDE700230380238070
:1023D0000320C8E7B4F9FF1FB6F9FF1F30B583B07B
:1023E00072B6022002F004FC002802D162B603B0EB
:1023F00030BD6B46DC1D2100022002F07BFB237800
:102400000500002BF2D01B4C631D611E1A78013BA6
:102410009A708B42FAD1052217492000257003F0EB
:1024200076F9002811D006221449200003F06FF934
:1024300000280FD0124A13492800FFF781FF002817
:10244000D4D10222104B1A70D0E71049023002F0AA
:1024500039FBEFE78C210E4B06224900213002F0B8
:10246000C3FFBFF34F8F0B4B0B4ADA60BFF34F8FA5
:10247000C046FDE7ACF9FF1F6C5A00007C5A000013
:102480003800002038FEFF1F3A000020745A000078
:10249000845A000000ED00E00400FA05014B1860CA
:1024A000596070473000002010B5034B02001868D7
:1024B000596800F035FD10BD3000002030B585B002
:1024C00004230022222101A802F0CCFF0F4B019A25
:1024D0009A4204D00A220E4B1A7005B030BD8C22ED
:1024E000002502AC062352002121200002F0BAFF91
:1024F00008492000A571FFF7CFFE054B002802D147
:1025000001221A70E9E71D70E7E7C04600180020B5
:102510003A000020845A000000B5604BC7B0009319
:102520005F4B694601935F4B212002935E4B0393FF
:102530005E4B04935E4B05935E4B06935E4B079395
:102540005E4B08935E4B09935E4B0A935E4B0B9375
:102550005E4B0C935E4B0D935E4B0F935E4B0E9355
:102560005E4B10935E4B11935E4B12935E4B139335
:102570005E4B14935E4B15935E4B16935E4B179315
:102580005E4B18935E4B19935E4B1A935E4B1B93F5
:102590005E4B1C935E4B1D935E4B1E935E4B1F93D5
:1025A00080235E4ACA505E4A0433CA505D4A0433EF
:1025B000CA505D4A0433CA505C4A0433CA505C4A6C
:1025C0000433CA505B4A0433CA505B4A0433CA50CE
:1025D0005A4A0433CA505A4A0433CA50594A043337
:1025E000CA50594A0433CA50584A0433CA50584A48
:1025F0000433CA50574A0433CA50574A0433CA50A6
:10260000564A0433CA50564A0433CA50554A043312
:10261000CA50554A0433CA50544A0433CA50544A23
:102620000433CA50534A0433CA50534A0433CA507D
:10263000524A0433CA50524A0433CA50514A0433EE
:10264000CA50514A0433CA50504A0433CA50504AFF
:102650000433CA504F4A0433CA504F4A0433CA5055
:102660004E4A0433CA504E4A0433CA504D4A0433CA
:10267000CA504D4A0433CA504C4A0433CA504C4ADB
:102680000433CA5002F06CFE8C226B4652000021CB
:10269000212002F0A9FE47B000BDC046A9240000D9
:1026A0009D24000095550000015500003D53000099
:1026B00061530000E95300006554000075540000A8
:1026C0007D540000D55400002551000081510000C8
:1026D000A9510000DD510000C15100001552000059
:1026E00065520000AD520000C5520000E5520000E6
:1026F000155300009D500000D9500000E950000023
:1027000005510000494E0000DD4F0000115000004F
:102710003D500000595000008550000091500000CD
:102720008D4C0000414D0000894D0000994D000086
:10273000B94D0000D94D0000D9480000294A0000D9
:10274000754A0000C54A0000F54A0000514B0000E0
:10275000614B0000A94B0000F14B0000254C00002C
:10276000AD4100007540000041340000113400000C
:10277000B944000059340000753400009D34000055
:1027800025360000B1340000ED360000ED400000B9
:10279000A1370000F14100009D47000049430000BF
:1027A0000138000065380000393C0000DD380000C9
:1027B000C53D0000F0B5DE4657464E464546E0B5FD
:1027C000FFB072B696210220890102F085F8FA2145
:1027D0000020890002F00EFB02F0B0FD00210C2069
:1027E00001F0F4FF222000F02DFC00230021002046
:1027F000354A364D13802B70354B90461860596022
:10280000023002F0ADF962B6FFF758FE314A0024FB
:102810009246314A2B7891466A46961C0722934687
:102820002E4F012B2BD0002B37D0022B1DD143462E
:102830004846198800F056FC012840D000283CD0BA
:10284000032838D0042824D10230320001A900F036
:102850008DFD6B469E1C318801AA022002F00AF908
:102860000A2301342B70BC4202D80134BC42D8D9AF
:102870000C2001F0B5FF2B780024012BD3D1514659
:10288000022002F01FF90A2301342B70BC42EFD85A
:10289000EBE7062815D100232B70FFF73DFE012141
:1028A0000C2001F099FF72B68820000201F09CFF15
:1028B00062B62B78B5E70520C7E70420C5E72B787B
:1028C000AFE75846C1E7C046380000203A00002074
:1028D000300000208C5A000038FEFF1FFFFF05006B
:1028E000F0B54546DE4657464E460C00E0B50500BD
:1028F000B5B0A54990461AA8682202F0E1FEA34BA4
:102900000C950D940C990D9A934200D208E200D1D7
:1029100002E200249E4B08930994012300240E93A5
:102920000F94089809990E9A0F9B12184B41D907DA
:1029300056080E4301204042C1175F08FA00730F8A
:102940001A43F3001392129380197941129A139B40
:1029500092197B410A900B91DC00510F0C43D3007C
:1029600014931594149C159DA4197D410A980B99F4
:10297000A30FAA001A43A30017921693169A179B47
:10298000A4185D410123834A5B42A4185D418B0773
:1029900082081A438B0818921993189A199BA41845
:1029A0005D41C82200235200FDF72EFF6422241847
:1029B0004D410A980B990023FDF726FF241A8D41FB
:1029C000002320002900744AFDF73EFF0C9B98422B
:1029D00000D1DBE10C9B0D9C8C4200D9ADE167D1AD
:1029E000D9E1A24200D1CBE10E980F990A9A0B9B34
:1029F00012184B41D90756080E4301204042C11717
:102A00005F08FA00730F1A43F300019200938019D4
:102A10007941009A019B92197B4108900991DC0051
:102A2000510F0C43D30002930394029C039DA419FD
:102A30007D4108980999A30FAA001A43A3000592A3
:102A40000493049A059BA4185D410123514A5B42FB
:102A5000A4185D418B0782081A438B0806920793DE
:102A6000069A079BA4185D41C82200235200FDF777
:102A7000CBFE642224184D41089809990023FDF7E4
:102A8000C3FE241A8D41002320002900424AFDF78D
:102A9000DBFE0C9B984200D167E10C9B0D9C8C42A5
:102AA00000D946E100D140E1089B099C0A930B94B0
:102AB0000E990F9A0A9B0B9CA24292D90122524274
:102AC000D3170E980F9902267642F71704000D00CF
:102AD00080197941A4185D410F00EB00610F0B4391
:102AE000E20012196B4102940395510FDD000D4372
:102AF000D400029A039BA4185D410600A30FA9000D
:102B00001943A00024184D41BB07B0081843B90869
:102B100024184D410121C8221E48494224184D4124
:102B20005200002330003900FDF76EFE64222418A5
:102B30004D41002330003900FDF766FE241A8D4117
:102B4000002320002900144AFDF77EFE0C9B0D9CFB
:102B50001B1A8C41029803990093019403230342AA
:102B600000D0C9E064220023FDF74EFE1A43012382
:102B70009A46002A00D1BFE01CAB994601230126EA
:102B800000279B4633E0C04690570000FA1E010024
:102B90000F27000093FEFFFF005C26055B46734095
:102BA0003B431A00531E9A410023109211937C4A12
:102BB00000231098119900196941FDF745FE009A0C
:102BC000019B8446994226D800D1C9E0012E00D14C
:102BD0009EE000230122A4185D414B461C605D600D
:102BE00001230024F618674107339C46E1444B4615
:102BF0001C685D685346002BD0D100232000684A32
:102C00002900FDF721FE009B019CA14203D8E7D1DA
:102C1000009B9842E4D91AAB9C46F1000839614404
:102C20005F4A002308684968FDF70EFE009B019C7F
:102C30001B1A8C4118002100594A00230090019171
:102C4000FDF7E2FD14001D0020002900554A002375
:102C500004940595FDF7D8FD14001D0020002900FF
:102C6000514A002306940795FDF7CEFD1400424615
:102C70001D0013680299039A19605A60009801991F
:102C8000424653681E605F6096680023444AFDF721
:102C9000BBFD43463060716004980599DE68414A87
:102CA0000023FDF7B1FD4346306071600698079937
:102CB0001E693D4A0023FDF7A7FD4346FA22306016
:102CC000716092005E69200000232900FDF79CFDE1
:102CD0004346FA223060716092009E69200029000C
:102CE0000023FDF791FD3260736035B03CBC904627
:102CF0009946A246AB46F0BDC822029803995200FD
:102D00000023FDF781FD1A43534253419A4633E7AE
:102D1000002F00D05DE763E7244BAB4200D3F8E51A
:102D2000224B234C0C930D94F3E50C9B834200D86B
:102D3000BAE60A9B0B9C089309940899099A012307
:102D400000249B197C410E930F94944200D9B5E660
:102D500000D0E6E50E9B089A934200D8E1E5ADE687
:102D6000009B9C4500D831E755E70D9B994200D068
:102D700093E601220023B6185F410E960F979DE659
:102D80000E9B0A9A934200D82EE697E60D9B994235
:102D900000D01FE6EDE70C9B834200D888E6CCE725
:102DA000005C260580EE360060EA0000FFB34CE4CC
:102DB000FA1E0100F0B5CE46474680B597B06B4687
:102DC00015000F9302AB109304AB119306AB129353
:102DD00008AB13930AAB14930FAA0CAB1593FFF730
:102DE0007FFD009E019FEB1C98466B1E99463000AC
:102DF00039000A220023FDF707FD0023D4B230007A
:102E000039000A22FDF700FD434630341C700123CF
:102E10005B429C46E04406000F00C845E7D1029E95
:102E2000039F2D2430002C7139000A220023FDF766
:102E3000EBFC30003900012600273032AA71002354
:102E40000A22FDF7E1FC0A220023FDF7DDFCEC710C
:102E5000049B059CF618674130326A7130003900D6
:102E60000A220023FDF7D0FC30326A7200230A22C6
:102E700030003900FDF7C8FC0A220023FDF7C4FC2E
:102E8000069E079F202330322A72AB723000390031
:102E90000A220023FDF7B8FC30322A7300230A22ED
:102EA00030003900FDF7B0FC0A220023FDF7ACFC2E
:102EB000089E099F3A243032EA726C733000390060
:102EC0000A220023FDF7A0FC3032EA7300230A2215
:102ED00030003900FDF798FC0A220023FDF794FC2E
:102EE0000A9E0B9F3032AA732C74300039000A22DC
:102EF0000023FDF789FC3032AA7400230A22300037
:102F00003900FDF781FC0A220023FDF77DFC002338
:102F100030326A74EB7417B00CBC90469946F0BD21
:102F200010B51400FA2200239200FDF78DFC044B2B
:102F3000044A801859412200FFF73CFF10BDC046EB
:102F40008338000000D82C12031C202800DD202329
:102F50001F221A4001239340014A13607047C04664
:102F600000E100E0031C202800DD20231F221A407E
:102F700001239340802201498B50704700E100E01B
:102F800003008000C0180301181A800104D0002338
:102F9000C04601338342FBD17047C046F8B547466F
:102FA000CE4680B594468278C478120222430479D2
:102FB0000C701100093989B28846198000293AD06D
:102FC00013000A3B9BB299460126841D1B4B1C4FE4
:102FD000411DA1440C786340082435001D405B0866
:102FE000002D01D07B409BB2013CA4B2002CF4D157
:102FF00001314945EED11D0ADBB28218111F0C7850
:103000000221AC4212D1D41E24789C420ED1931ED0
:103010001B780131432B09D1013A1378432B05D199
:10302000411D4246604602F04BFB002108000CBCEB
:1030300090469946F8BDFF23FF25DEE7FFFF00001D
:1030400001A0FFFF054B002219000A311A7001335D
:103050008B42FBD1024B18707047C0463C000020E9
:1030600048000020F0B54F46D64646461B4BC0B53B
:103070001D8896B0013D8146002D2BDD184A0023A6
:103080009246012200200727944601A93C001C40DB
:10309000A04664464646B440A0465446DA08A25CC0
:1030A0004446144206D142008A181C0A0130D370EB
:1030B0001471C0B201339BB2AB42E7DB887053227C
:1030C000484602F0FDFA484616B01CBC90469946A8
:1030D000A246F0BD002001A9F0E7C046460000204E
:1030E0003C000020F0B5CE46474680B56F4C0378D3
:1030F000A544502B08D00124200095239B009D441B
:103100000CBC90469946F0BD4378502BF3D1592121
:103110000A336B4417AA6944FFF740FF041EEAD143
:103120006B4659229B181B78012B09D0002B00D12C
:1031300080E0022B53D0033B5C425C410534DBE76B
:103140006A465A21F323521812885B009A4200D033
:10315000A8E0574E17A9300002F0B2FA554A73782A
:10316000317812881B020B439A4200D09CE03379DD
:10317000012BC1D17379002B22D000273B0056339D
:103180009946B846B144BB00F3189A79D879BB0088
:103190000233F31800021043DD799A7943462D0279
:1031A000154381054B442A00890D4544800A02F0ED
:1031B0001BF9ABB2984601377379FFB2BB42E2D834
:1031C000F378B2781B0213433B49DA0852180721FF
:1031D000194001238B4011780B4313708CE76A462A
:1031E0005A21F323521812885B009A4200D083E7D9
:1031F0002F4D17A9280002F063FAEB78AA781B027A
:1032000013432D49DA0852180721194001238B4036
:1032100011782A4D0B4313706846FFF723FF5322A2
:103220006946280002F04CFAAB78002B00D163E726
:10323000042461E7224B1D783F2D08D8ADB2280049
:103240000135ADB202F08CF8EBB23F2BF7D91A4D35
:10325000002229002B000A311A7001339942FBD158
:103260006A465A21F323521812885B009A4200D012
:1032700042E70F4E17A9300002F022FA07217378B7
:1032800032781B0213430B4A1380F278B378120290
:103290001A431140D30801228A40EB1819780A43D7
:1032A0001A7029E7022427E7032425E7ACFDFFFF76
:1032B000A0000020460000203C0000204C00002020
:1032C00048000020F0B51D0050232B706B70473B69
:1032D000D6469A46924453461B124F464646AB701A
:1032E00053461400C0B5EB702871681D0F0002F042
:1032F000E7F9631D9BB29846002C2FD0631E9BB24A
:1033000099467A1C39000127164B174E91440A78CA
:1033100053400822380018405B08002801D0734051
:103320009BB2013A92B2002AF4D101314945EED163
:103330001A0ADBB241466A54A21D92B2AB54432230
:10334000E31D08349BB2A4B2EA542A555246089BA6
:103350001A801CBC90469946A246F0BDFF23FF226E
:10336000E8E7C046FFFF000001A0FFFFF0B51B4CDF
:103370000E00A54417000400052821D0062817D008
:103380000120042C03D081239B009D44F0BDF32237
:1033900003AD52001249280002F092F9F3225200C4
:1033A0002000009733002900FFF78CFF0020EAE798
:1033B00003AD53220B49280002F082F95322EFE7B4
:1033C000F3220023064903AD520028008B70CB7016
:1033D00002F076F9F3225200E2E7C046FCFDFFFF5F
:1033E000A00000204C00002010B5084C0022012154
:1033F000200001F097FEFA20C000FFF7C1FD012276
:103400000121200001F08EFE10BDC0461604000010
:1034100010B501280CD0002804D0022801D1FFF7F4
:10342000E3FF10BD00220121044801F07BFEF8E714
:1034300001220121014801F075FEF2E716040000A7
:1034400010B5012001F0B0FB00220121014801F07C
:1034500069FE10BD160400000023054903E0C254B4
:1034600001330F2B02D0CA5C002AF8D1002070472C
:103470000CFEFF1F10B500230649074C04E01A5D3F
:10348000C25401330F2B02D0CA5C002AF7D10020AE
:1034900010BDC0460CFEFF1F1CFEFF1F02000023D4
:1034A0001932037001309042FBD100207047C046B2
:1034B0000023036000207047F0B5DE4657464546BE
:1034C0004E46E0B58BB002AB98464C4B824601921B
:1034D0000C001A22002103A8029302F0FAF801233B
:1034E000474A012013700023464A137001F038FB4D
:1034F000454B504619009B46FEF7CEFE002800D1F2
:1035000073E04249504602F027F9002847D042466E
:103510003F4B03CB03C2198811809B7893700A201C
:10352000FFF72EFD0A212000FCF7F8FF019B87B270
:10353000002B53D000230093364B374D9946002380
:10354000594650462B70FEF7A7FE002805D0334998
:103550005046FEF7A1FE002842D1002F35D00024AE
:1035600009E04946280002F0F7F8002821D101348B
:10357000A4B2BC4229D00A20FFF702FD4146280030
:1035800002F0EAF8061EECD0002000231C4A13705B
:103590000BB03CBC90469946A246AB46F0BD1F49D5
:1035A000504602F0D9F80028B9D03E234246138095
:1035B000B5E76420FFF7E4FC1949012001F082FA25
:1035C0006420FFF7DDFC0F4B1E70009B019A013356
:1035D0007F009BB2BFB200939A42B0D10120D4E7E2
:1035E0005146012001F06EFAB7E75B461B68424680
:1035F00002935B461B79137191E7C0464F4B000065
:10360000B8F9FF1F08FEFF1F3C5B0000445B000091
:10361000505B000090F8FF1FBCF9FF1F5C5B0000CF
:1036200000F8FF1FF8B503234E464546DE465746D1
:103630009B462A4BE0B59846294D2A4B06009946F1
:103640006B1C9A460322C8214046FFF735FF071E30
:1036500035D14946280002F07FF8401BC4B2621DF4
:10366000D2B23770AB5C2C2B1FD01F490878824236
:103670001BD2A11D0638C9B2001B4A19C0B2514461
:103680000918002402E001328A420CD0303BDBB240
:10369000092B05D8A000201840001B18DCB234709C
:1036A00013782C2BEFD1002C11D15C46FA20013C71
:1036B0008000FFF765FCE3B29B46002BC2D10127D7
:1036C00038003CBC90469946A246AB46F8BD642003
:1036D0001F216043FCF7ACFF3070F1E784F8FF1F57
:1036E000BCF9FF1F205B000008FEFF1F010070B542
:1036F00003000400002210311A7001339942FBD1FB
:10370000234D0122C8212800FFF7D6FE00282FD123
:10371000204D2149280002F01FF8401BC0B201E0F3
:103720000138C0B22B5C0D2BFAD00A2BF8D01A004E
:10373000303A092AF4D92E2BF2D000224F2B0ED08A
:10374000291849784B290AD0190001303039C0B204
:10375000092908D92E2B06D02B5C4F2BF0D15042D3
:103760005041400070BDA354511CCAB22B5CF4E719
:10377000FA21022249000948FFF79EFE0122C821D2
:103780002800FFF799FE03000120002BC0D0E9E7D5
:103790005CF8FF1FBCF9FF1F20F9FF1F20F8FF1F77
:1037A00070B503220400C8211248FFF785FE051EEC
:1037B0001BD11149114801F0CFFF0026063000222D
:1037C00000E01A0001782C2901D10136F6B2531C11
:1037D000DBB2A1540130052EF3D1002B07D0E41841
:1037E0000023013C2370280070BD0125FBE7022562
:1037F000F9E7C04610F8FF1F185B0000BCF9FF1F77
:10380000FA2110B50222040089001248FFF754FE85
:10381000002800D010BDF530FF30FFF7B1FB022CBF
:1038200011D0032C08D0012CF4D1FA210222490036
:103830000948FFF741FEEDE7FA2102224900074857
:10384000FFF73AFEE6E7FA21022249000448FFF7B3
:1038500033FEDFE798F8FF1FA8F8FF1FD0F8FF1F1F
:10386000BCF8FF1FFA2170B5194C0500022249006F
:103870002000FFF721FE00281CD1164C164920001D
:1038800001F06AFF0223002801D0180070BD20005B
:1038900000231E3402E00130844209D00278110076
:1038A0003039092902D8591CEA54CBB20E2BF2D177
:1038B0000023EAE70420FFF7A3FFFA2103224900CF
:1038C0002000FFF7F9FD01230028D6D0DDE7C04630
:1038D000E4F8FF1FBCF9FF1FDC5A0000F0B55746A3
:1038E000DE464E464546E0B585B00191FA21C84C0A
:1038F0008246022249002000FFF7DEFD002800D0AA
:1039000072E1C44BC4499846180001F025FF4346B4
:10391000C71AFFB23B0042461833DBB2D35C022029
:10392000412B00D059E13B001A33DBB2D05C3E00A2
:103930003038FEF74DFC0022B84BFDF78FFE3B0000
:1039400042461B33DBB20400D05C0D00FEF740FCA6
:1039500002000B0020002900FDF762F80022B04BA6
:10396000FEF7EEF843461C37FFB202900391D85D94
:103970001D363038F6B2FEF72BFC14E00022A74BC0
:10398000FDF76CFE040038000D00FEF721FC02007C
:103990000B0020002900FDF743F801360022A04B60
:1039A000F6B2FEF7CDF843469F5D04000D002E2FC2
:1039B000E4D1B31CDBB2994643460136F6B2985DBA
:1039C0003038FEF705FC974A974BFDF747FE22007B
:1039D0002B00FDF725F843464A469B5C06000F0086
:1039E0009B462C2B23D08F4C8F4D8E4A8E4B200024
:1039F0002900FDF733FE4B46040058460D00013305
:103A0000DBB230389946FEF7E3FB22002B00FDF7CE
:103A100025FE02000B0030003900FDF701F8434697
:103A20004A469B5C06000F009B462C2BDDD14B4683
:103A300042460133DBB2D35C00244E2B00D1E2E0DE
:103A40007A4D00227A4B30003900FDF705FB029ACF
:103A5000039BFCF7E5FF22002B00FDF7FFFD53461B
:103A6000186059604B4642460333DBB2D05C3038B5
:103A7000FEF7AEFB0022694BFDF7F0FD4B464246D8
:103A80000433DBB20400D05C0D00FEF7A1FB0200A2
:103A90000B0020002900FCF7C3FF4B4642460533CC
:103AA000DBB20400D05C0D00FEF792FB00220600A2
:103AB0000F005B4B20002900FEF742F80022574B15
:103AC000FDF7CCFD02000B0030003900FCF7A8FF29
:103AD0000022534BFEF734F84B464246DE1D0633B8
:103AE000DBB202900391D05CF6B23038FEF770FB87
:103AF00014E00022494BFDF7B1FD040038000D0031
:103B0000FEF766FB02000B0020002900FCF788FF8F
:103B100001360022424BF6B2FEF712F843469F5D93
:103B200004000D002E2FE4D1B31CDBB299464346AE
:103B30000136F6B2985D3038FEF74AFB394A3A4B07
:103B4000FDF78CFD22002B00FCF76AFF43464A4636
:103B50009B5C06000F009A462C2B23D0314C324D33
:103B6000304A314B20002900FDF778FD4B46040018
:103B700050460D000133DBB230389946FEF728FB82
:103B800022002B00FDF76AFD02000B003000390017
:103B9000FCF746FF43464A469B5C06000F009A46E8
:103BA0002C2BDDD14B4642460133DBB2D35C0024E3
:103BB000452B2AD01D4D00221D4B30003900FDF74A
:103BC0004BFA029A039BFCF72BFF2B002200FDF718
:103BD00045FD019B18605960002005B03CBC904633
:103BE0009946A246AB46F0BD0420FFF709FEFA2134
:103BF000032249002000FFF75FFC03000120002B97
:103C000000D17EE6E9E70B4D1BE70A4DD3E7C0463E
:103C1000E4F8FF1FBCF9FF1FC85A00000000244051
:103C2000000048409A9999999999B93F0000F0BFCE
:103C300000004E400000F03FF8B5FA215746DE463E
:103C40004E464546544CE0B58246022249002000CB
:103C5000FFF732FC002800D089E0504B50499946CC
:103C6000180001F079FD4B46C01A1830C0B21B5C39
:103C70000220412B75D14B49484601F06DFD0028CB
:103C800000D183E04B46C41AE4B20234E4B21D5DB5
:103C9000002600272E2D1CD00022434B3000390077
:103CA000FDF7DCFC060028000F00FEF791FA020089
:103CB0000B0030003900FCF7B3FE3C4B0022FDF74F
:103CC0003FFF4B460134E4B21D5D06000F002E2D70
:103CD000E2D1A31CDBB298464B460134E4B2185D36
:103CE0003038FEF775FA324A324BFDF7B7FC320036
:103CF0003B00FCF795FE4B4642469B5C06000F00DE
:103D00009B462C2B23D02A4C2A4D294A294B200094
:103D10002900FDF7A3FC4346040058460D0001337B
:103D2000DBB230389846FEF753FA22002B00FDF73D
:103D300095FC02000B0030003900FCF771FE4B4689
:103D400042469B5C06000F009B462C2BDDD11A4B94
:103D50001A4A30003900FDF781FC5346186059605B
:103D600000203CBC90469946A246AB46F8BD0420D4
:103D7000FFF746FDFA21032249002000FFF79CFBD4
:103D800003000120002B00D167E7EAE70C49484611
:103D900001F0E2FC76E7C046E4F8FF1FBCF9FF1F24
:103DA000C85A0000D45A00000000244000004840D7
:103DB0009A9999999999B93F5476E03FED87331ACA
:103DC000D85A0000F8B5FA214E46DE465746454619
:103DD000534CE0B58146022249002000FFF76CFBFE
:103DE000002800D08DE04F4B4F499846180001F055
:103DF000B3FC4346C01A1830C0B21B5C0220412BF2
:103E000079D14A49404601F0A7FC4346C01AFF2336
:103E1000C4B2184043461B5C2C2B05D04346013CE2
:103E2000E4B21B5D2C2BF9D143460234E4B21D5D94
:103E3000002600272E2D1CD000223D4B30003900DB
:103E4000FDF70CFC060028000F00FEF7C1F9020088
:103E50000B0030003900FCF7E3FD364B0022FDF784
:103E60006FFE43460134E4B21D5D06000F002E2DA7
:103E7000E2D1A31CDBB29A4643460134E4B2185D9A
:103E80003038FEF7A5F92C4A2C4BFDF7E7FB320042
:103E90003B00FCF7C5FD434652469B5C06000F0005
:103EA0009B460D2B23D0244C244D234A234B20002A
:103EB0002900FDF7D3FB5346040058460D0001339B
:103EC000DBB230389A46FEF783F922002B00FDF76B
:103ED000C5FB02000B0030003900FCF7A1FD434692
:103EE00052469B5C06000F009B460D2BDDD14B46D6
:103EF00000201E605F603CBC90469946A246AB46DF
:103F0000F8BD0420FFF77CFCFA21032249002000C1
:103F1000FFF7D2FA03000120002B00D163E7EAE7A4
:103F2000E4F8FF1FBCF9FF1FC85A0000585B0000EF
:103F300000002440000048409A9999999999B93F06
:103F40000023FA2170B5224C0500C37302224900F8
:103F50002000FFF7B1FA002829D11E4C1E4920008D
:103F600001F0FAFB031B07339BB2E0180278002133
:103F70001A4E4F2A10D098B2B04210D80E2914D839
:103F800010003038092802D8481C6A5481B2013325
:103F9000E01802784F2AEED140784B28EBD1002070
:103FA0000E238B424041400070BD0020FCE70222FE
:103FB000C8210B48FFF780FAFA21022249002000AD
:103FC000FFF77AFA03000120002BC6D0ECE7C046C9
:103FD00050F8FF1FBCF9FF1F285B00004B040000D6
:103FE00000F8FF1F002370B51D4C050083730222EB
:103FF0001C492000FFF760FA002821D11A4C1B4908
:10400000200001F0A9FB0023021B10B2EB73002873
:1040100014DB03191204013C120C2018801A0E2222
:1040200002E0013B984209D019780C00303C092C81
:1040300002D8541EA95422B2511CF2D1002070BDE6
:104040000222C8210A48FFF737FA01220549200059
:10405000FFF732FA03000120002BCFD0EFE7C04674
:1040600068F8FF1F88130000BCF9FF1F20F9FF1F2D
:1040700000F8FF1FE12110B54902012000F02CFCDF
:10408000012000F06DFD154C042264212000FFF793
:1040900013FA00281ED1042264212000FFF70CFA35
:1040A0000123002801D0180010BD0322C8210C48AC
:1040B000FFF702FA03230028F5D10A48FFF740FF73
:1040C00004230028EFD10848FFF78CFF031EEAD035
:1040D0000523E8E7FFF788F9DDE7C04600F8FF1F92
:1040E00008F8FF1F0CFEFF1F1CFEFF1FF0B58FB06E
:1040F0002E2206000D0001AC002102A801F0E9FA11
:104100002200254B83CB83C203CB03C2002304E0F0
:10411000E1180133CA740F2B02D0F25C002AF7D1E8
:104120002000FEF7C3F8032206001C49201801F006
:10413000C7FAFF200023023630402018EA5C002A2C
:1041400003D0C2540133052BF8D12000FEF7AEF89E
:1041500003221349201801F0B3FAFA21114D01226C
:10416000C9002800FFF7A8F902220F492000FFF735
:10417000A3F900280DD0FA210122C9002800FFF779
:104180009BF9012208492000FFF796F9431E984148
:10419000C0B20FB0F0BDC046FC5A0000105B00007A
:1041A000145B000074F8FF1F7017000070B5040066
:1041B0000D001600FFF75EFF002800D070BD0F2233
:1041C0000949200001F07CFA200008490F300F2235
:1041D00001F076FA31002800FFF788FF0028EDD0C3
:1041E0000A30C0B2EAE7C0460CFEFF1F1CFEFF1FEC
:1041F000F0B5CE46474680B5FFB001AC15002200B1
:104200001E00474B8146884683CB83C203CB03C243
:10421000F0220021520006A801F05BFAFA210222E6
:10422000C9004048FFF748F90127002805D03800A9
:104230007FB00CBC90469946F0BD2900200001F0EB
:1042400050FA2000FEF732F804223749201801F016
:1042500037FAFA210222C9002000FFF72DF90137B1
:104260000028E4D1FA210222C9003048FFF724F9DE
:1042700001370028DBD103222D492E48FFF71CF916
:1042800001370028D3D141464846FFF72FFF0137B9
:104290000028CCD1032226492748FFF70DF9013722
:1042A0000028C4D1F530FF30FEF76AFEFA21032260
:1042B00049012248FFF700F9071E2CD12049214867
:1042C00001F04AFA827A04001300303B0A34092BC9
:1042D00023D8002300E02C0099005B185B009B189A
:1042E000627899B20B001000303B30389BB2651CED
:1042F0000928F0D9F018002B0AD03139E21C8BB212
:1043000004341B1911780132317001369342F9D10E
:10431000002303708BE7072789E73000F8E7C046E2
:10432000F8570000F0F8FF1FEC5A000030F8FF1FAC
:104330008813000020F8FF1F10F9FF1F00F9FF1F6E
:10434000F05A0000BCF9FF1F10B582B06B46991CF3
:1043500000230B800B88984212D90024094A01944B
:10436000019B934205D8019B01330193019B93422A
:10437000F9D90B8801339BB20B800B888342EED3B3
:1043800002B010BDBF120000F0B54F46D6464646FB
:10439000C0B5C31784B0C418894682465C40002764
:1043A00001AE00E047467B1C20000A219846FCF73E
:1043B0003BF9F5193031297020000A21FCF7AEF8DD
:1043C000041EEFD15346002B04DA2D234246B3548A
:1043D000BB1C984643464A46013BF15C11700132D2
:1043E000013BFAD200234A464146535404B01CBC58
:1043F00090469946A246F0BDF0B51D005623C6462C
:104400002B70AE1C353B140000B50F006B70010023
:104410000F22300001F08CF92800230A6B74AC7471
:1044200013302200390001F04BF9230013339BB203
:1044300098461E4B9C4235D0230010339BB2033369
:104440009C46300001261A4B1A4FAC440278534068
:104450000822310019405B08002901D07B409BB243
:10446000013A92B2002AF4D101306045EED11A0A25
:10447000DBB241466A542200143292B2AB5423009C
:10448000532215339BB2EA5423001634A4B22F3AB8
:104490002A55002217339BB2EA54069A138004BCB3
:1044A0009046F0BDFF23FF22E3E7C046EFFF000088
:1044B000FFFF000001A0FFFF002370B52C4C060099
:1044C000A54403AD0C001022002106A803932B7114
:1044D000059301F0FEF80A236B443200210000939B
:1044E00024480AABFFF788FF6B4629005889FFF77D
:1044F0004BFF05A8FDF7DAFE040005AB0C221818E7
:104500001D4901F0DDF805AB20009C460B306044EE
:10451000290001F0F4F805A8FDF7C8FE05AB9C469C
:1045200003226044154901F0CBF805A9012000F0F1
:10453000C9FA012212491348FEF7BEFF0300012009
:10454000002B03D08A239B009D4470BD0E4A10703F
:104550000E4A13706B460AAA598900F08BFA0122A1
:104560000B490C48FEF7A8FF0028EBD00220E9E732
:10457000D8FDFFFF1CFEFF1F305B0000145B000036
:10458000B80B00005C5B0000B8F9FF1F08FEFF1FBE
:10459000701700003C5B0000F0B5DE4657464E4603
:1045A0004546E0B5754B83B01C780A2C0BD8744D8A
:1045B000A4002C59A7462C2800D1C7E000221A706D
:1045C0000022704B1A80300003B03CBC90469946E4
:1045D000A246AB46F0BD3A2800D1B4E0694A138840
:1045E00099005B185B00303B18181080EBE7664FB2
:1045F000644D3C882D88A54200D298E0002C00D163
:104600008CE0012C00D0A4E0212800D089E0651CBA
:10461000ADB2A9463D8010555C488246008883466D
:104620005846002800D1A2E01630484500DB9EE045
:104630005748834500D19EE0901C80465846103074
:1046400080B2D41C0419019121001400514D42463E
:104650000126AC46A0465048147860400824350036
:1046600005404008002D02D06546684080B2013CFC
:10467000A4B2002CF3D101328A42EDD14246019915
:10468000060AC0B24C461419A51E2D78532D50D1E0
:10469000013C2478242C4CD15C461419E57CB542AD
:1046A00047D1247D844244D158460138541C80B2FD
:1046B0002418D07C107001329442FAD15A46002658
:1046C0000A8052463E8016801E707CE72B2837D029
:1046D00000221A7077E75228FAD102221A7072E784
:1046E0004528F5D103221A706DE74328F0D1042242
:1046F0001A7068E74528EBD105221A7063E749284C
:10470000E6D106221A705EE75628E1D107221A7018
:1047100059E74528DCD108221A7054E7562800D101
:1047200075E70023194A3B80138002264BE7174A9E
:104730009246002251463A800A801A70022642E7C9
:1047400001221A703FE70A221A703CE709221A7008
:1047500036E7651CADB2A9463D801055132D00D03B
:104760005AE7507C937C0002084A1B1813800023F0
:1047700001260B8027E7FF20FF2683E72BFEFF1F84
:104780009C5A000030FEFF1F2CFEFF1F2EFEFF1F55
:10479000EFFF000001A0FFFFFFFF000070B5084B16
:1047A0001B78002B09D0074C074D2378E8540133C0
:1047B0002370FF2423400024EC54FFF7EDFE70BD6E
:1047C000B8F9FF1F08FEFF1FBCF9FF1F10B50A0054
:1047D000012100F0A7FC10BD10B500F0D1FC10BD08
:1047E00010B500F0EDFC10BD80B584B000AF78606E
:1047F0007B685A687B68013306D0FA607B681B6867
:1048000083F30888FB689847BD4604B080BDC04666
:1048100088220021264B52019950C021254A890245
:104820009950802224499200585802435A50234BF1
:104830009A78120703D508219A780A439A70802142
:104840001B4B1C4A490299501D4A1E489958014069
:10485000995019681C480140196099581B48084034
:1048600080214904014399500622194B1A70597846
:104870003A320A405A701F22D9780A40A0210A43CE
:10488000DA70002213490A7010211A715A719A794C
:104890001142FCD00C220E498B791A42FCD1F8232C
:1048A0000349054A9B01885803438B507047C04613
:1048B00000700440441000003810000000D0074091
:1048C00004100000FFFFFCFFFFFFF3FFFFFFFFFCF2
:1048D000004006400050064070B5040002283DD854
:1048E000494B0E011868002C39D0C022474B92006A
:1048F000022C00D17DE01A605A6080234449454A69
:104900001B018D582B438B500C22FA21424B013C4A
:10491000A400E458C900E3789343E370FBF7FEFD7D
:1049200002004001801A800080183100C000FBF7AF
:10493000F5FD1F21227803128A430B401343237095
:104940000023C0B26070A370A3716371E2787F33FB
:1049500013400C22E370E3781343E37070BD8021B1
:104960002B4B2E4AC9049D582943995099582C4DD8
:104970002940995080222549D2000D6D15430D65BF
:104980004D6D15434D6523495D582A435A500C22FD
:10499000FA21244D8900EB789343EB70FBF7BEFDC1
:1049A00002004001801A800080183100C000FBF72F
:1049B000B5FD1F212A7803128A430B4013432B7045
:1049C0000F231F22C0B26870AB72AC70AC712C7236
:1049D0006C722B791343C0222B716B7913436B716B
:1049E0007F23EA7813400C22EB70EB781343EB70D3
:1049F000B4E71A645A6480230549064A5B018D585E
:104A00002B438B5080E7C04624F9FF1F00D00440A1
:104A10000070044034100000645B000004100000CB
:104A2000FFFFFEFF00A0064030B50023022815D886
:104A3000431E0D4A9B009C580C4D0D4B06E02A79F5
:104A400052B2002A0CDB013B002B07D00028F6D025
:104A5000227952B2002AF6DA0123E171180030BD42
:104A6000E9710123FAE7C046645B000000A006403C
:104A7000BBFB0000F8B54746CE46060080B5884629
:104A800017000020022E16D8002918D04D1EADB2F6
:104A90000135002402E00134AC4210D0A3B2395DEC
:104AA00030009946FFF7C0FF0028F4D14B4642463C
:104AB00093424041C0B20CBC90469946F8BD0120DB
:104AC000F9E7C04670B505000E0002280FD8097836
:104AD0000024002906D101200AE00134A4B2315D8E
:104AE0000029F8D02800FFF79FFF0028F5D100200B
:104AF00070BDC04670B5022817D8124A431E9B00ED
:104B00009D58114E114B202205E03479224210D1DC
:104B1000013B002B12D00028F7D02C792242F7D08D
:104B20000123E8790B70C0B270BD002300200B7028
:104B3000FAE70123F0790B70C0B2F5E70B70FF20A4
:104B4000F2E7C046645B000000A00640BBFB00002B
:104B500003000020022B02D848424141C8B27047EE
:104B6000022811D8002810D02021431E0A4A9B0099
:104B70009A58D3780B43D3701F22084B1B5C1A4002
:104B800001239340064A136070472021054AD378D9
:104B90000B43D370F0E7C046645B000028F9FF1FA9
:104BA00000E100E000A00640022812D8002811D041
:104BB0002021431E0A4A9B009A58D3788B43D37016
:104BC0001F22084B08491B5C1A4001239340802296
:104BD0008B5070472021054AD3788B43D370EFE781
:104BE000645B000028F9FF1F00E100E000A0064020
:104BF00003000020022B0ED8002B0DD0013B074AEA
:104C00009B009B587F22D9780A40DA701879DB78AC
:104C100018408006C00F7047014BF3E7645B00004B
:104C200000A0064001281AD000280CD0022809D183
:104C30000022104B10491A645A64104A10488B58CD
:104C400003408B5070470B4B0B491A6D0D481A658A
:104C50005A6D5A65094A8B5803408B50F2E700227F
:104C6000044B05491A605A60044A07488B580340B0
:104C70008B50E7E700D0044000700440341000007F
:104C8000FFEFFFFFFFFBFFFFFFF7FFFF30B5202522
:104C9000254A264BD4582C43D4508024D558A40000
:104CA0002C43D450052806D8214A8300D3589F4668
:104CB0000022204B1A6040241F4B00071A68224331
:104CC0001A601A68203C22431A601C681B4A22435F
:104CD0001A6080221C685205224310241A601A6848
:104CE00022431A6080221C681206224304241A60A0
:104CF0001A6822431A605A681043586080201A6864
:104D000002431A60996030BD00220A4B1A61D2E753
:104D10000022084B5A60CEE70022064B9A60CAE791
:104D20000022044BDA60C6E700700440381000002F
:104D30006C5B00000090044000500440004B860073
:104D40004021104B10B51A688A431A6080225968B6
:104D5000D2030A4304215A601A681142FCD01A682F
:104D60000A431A60802258681C68120622431A609F
:104D70001A6880B21143196040211A680A431A6008
:104D800010BDC046005004400904024B084398601F
:104D90007047C046005004404021064B10B51A68C9
:104DA0001A200A431A601A6830390A431A60FEF75B
:104DB000CBF810BD005004404021064B10B51A68D6
:104DC0001A208A431A601A6830398A431A60FEF73B
:104DD000C9F810BD005004401021054B1A688A43E1
:104DE0001A6080225968D2030A435A607047C0464D
:104DF00000500440002370B50C00FA210F4D06004E
:104E00002B60AB600E4B89001868FBF787FB4443AF
:104E1000002E10D004236C602B60C02209491206BA
:104E20000B6A1B021B0A13430B620321034A13681C
:104E30000B43136070BD24096C60EEE710E000E0E6
:104E400024F9FF1F00ED00E0F8B506AC26785C4DB4
:104E50005C4C2F5901284FD1802000043843285141
:104E600080245948A400046144618461C461002421
:104E700040255648C470C4782C43C470C4780129B6
:104E800000D18EE080252C43C4705048002B00D008
:104E900091E00824C378A343C3704C48C378002E24
:104EA00000D084E00424A343C3700224474BD87885
:104EB0002043D87000209870012903D110209978E0
:104EC000014399700021414B414859701100FBF793
:104ED000AFFBC0B2C30768D40023012201334008EE
:104EE000DBB20242FAD001383A4A0001C0B2507037
:104EF00051780B435370F8BD8020C00338432851CC
:104F000080243548A400046144618461C4610024A4
:104F100040253048C470C4782C43C470C47801293B
:104F20003BD080252C43C4702A48002B29D008246C
:104F3000C3782343C3702748C378002E29D10424A3
:104F4000A343C3700224234BD8782043D870002099
:104F50009870012903D1102099780143997000219C
:104F60001C4B1B4859701100FBF762FBC0B2C30712
:104F70001BD40023012201334008DBB20242FAD0E5
:104F8000B1E70824C378A343C3701248C378002E46
:104F9000D5D004242343C370D4E710252C43C47018
:104FA000C2E710252C43C4706FE700239BE704245D
:104FB0002343C37079E70824C3782343C3706CE7A5
:104FC000007004403410000000C00440007007402E
:104FD000E02E00000060074000B004400A4B202291
:104FE0009C466044000303781A42FCD08171074B51
:104FF000202102E0013B002B04D002781142F9D0BD
:10500000012070470020FCE776000400F0FF00005C
:10501000094B10B59C466044000300290AD02024A7
:10502000511803781C42FCD0137801328371037845
:105030008A42F6D110BDC04676000400054B9C465E
:105040006044000303785BB2002BFBDA8079C0B2C6
:105050007047C04676000400094B10B59C4660447A
:105060000003002403E003785BB2002B03DBA142C2
:10507000F9D8012010BD837913550134F7E7C046F4
:105080007600040010B50A3040B2FDF75DFF10BD98
:1050900010B50A3040B2FDF765FF10BD10B5012410
:1050A0000A4B0B4A00049958000C21439950802167
:1050B0001A68C902114305221960064B5968114349
:1050C000596098601A6822431A6010BD007004404D
:1050D00038100000000004408021024A13680B438E
:1050E00013607047000004404021044A13680B43DA
:1050F00013608022024B52051A6070470000044082
:1051000000E100E04021054A13688B4380211360D1
:105110008023034A4905D1507047C046000004402F
:1051200000E100E070B5134BC5B2000A8000C4581E
:10513000114BAE00C3589B191868104E30401860D0
:1051400080201E684000304318600123AB400129D5
:1051500003D062699A43626170BD616919436161FC
:10516000012A03D022689A432260F5E7226813439C
:105170002360F1E7845B0000985B0000FFF8FFFF0D
:10518000030A084A9B009A580123C0B283400129B0
:1051900003D0116899431160704711680B43136085
:1051A000FAE7C046845B0000030A044A9B009B5850
:1051B000C0B21B69C340012018407047845B0000E7
:1051C000030A054A9B009A580123C0B28340D16864
:1051D0000B43D3607047C046845B0000020AC3B231
:1051E0000B489200105840229B00C018036893435C
:1051F000036003683E3A134303600368012903D048
:10520000012293430360704719430160FBE7C046E6
:10521000985B0000020AC3B2104810B594002058F1
:105220009B00C018802304685B042343F0240360C0
:10523000036809042403214019430160002A08D0AF
:10524000023A012A00D910BD8022054B12061A60CD
:10525000F9E78022024BD2051A60F4E7985B000060
:1052600000E100E0020A0E4B9100CB58C0B2800072
:10527000181803680B490B400360002A09D0023A52
:10528000012A00D9704780218023074A0906D1509E
:10529000F8E780218023044AC905D150F2E7C046CF
:1052A000985B0000FFFFF0FF00E100E0030A044A02
:1052B0009B009B58C0B28000C058C001C00F70470F
:1052C000985B0000064A030A9B009B58C0B280000E
:1052D0001818802302685B04134303607047C046BC
:1052E000985B00000122A02305495242CA5005499B
:1052F000CA500549CA500549CA500549CA507047A5
:105300000090044000A0044000B0044000C00440ED
:1053100000D00440C2B2084B000A8000C35892007B
:105320009B181A68012903D040218A431A607047EC
:105330003F310A431A60FAE7985B0000064A137887
:105340005BB2002BFBDA302313708023034A5B022D
:10535000D1680B43D360704700000240003000F07A
:1053600009231F4A8102D37183041B0E937100230A
:105370008006000E507113713033137072B65033C3
:10538000137013785BB2002BFBDA62B6312310780E
:1053900003400120002B1FD1124881421BDC062153
:1053A000D17193710433537108331371F333D37292
:1053B00093725372013B1372CE3B137072B650332B
:1053C0001370074A13785BB2002BFBDA62B61378CE
:1053D00031221A4201D1002070470220FCE7C0466A
:1053E00000000240FF030000F0B5C646012400B5EE
:1053F0008D072FD11A4D05348002EC7141181E0023
:10540000002A26D03020804680203127844608029A
:10541000000EA8710804000E6871C8B22871F078F7
:10542000E872B078A8727078687230782872404656
:10543000287072B6604628702C7864B2002CFBDAB3
:1054400062B62878074209D104360431F01A904236
:10545000DDD30024200004BC9046F0BD0224F9E70F
:105460000000024010B5890289181A0000F028F9DE
:1054700010BDC04610B500F023F910BD032302078C
:105480000009181AC0B2520F01281AD0002811D0F2
:10549000022808D0032805D1012191400C48037C43
:1054A0008B4303747047012191400948437C8B432F
:1054B0004374F7E7012191400548C37C8B43C374D3
:1054C000F0E7904002498B7C83438B74EAE7C04647
:1054D0000000024000290ED00378FF2B0DD10139C6
:1054E000013089B2411804E00130431E1B78FF2BC4
:1054F00003D18842F8D1012070470020FCE7C04664
:105500001F2380211840054B18601A681142FCD0F7
:1055100018691A6880B28A431A60704700B0034065
:1055200040211B4B1A6A8A431A625A6A35398A43E8
:105530005A625A6A04390A435A625A6A79310A43EA
:105540005A621A681142FCD05A6A52061ED4DA6CAA
:10555000986C1218586C1218186C1218D86B121814
:10556000986B1218D2B25208DA62DA6E986E12187C
:10557000586E1218186E1218D86D1218986D1218ED
:10558000D2B252081A635A6A8A435A62C0467047B6
:1055900000B00340F8B58024294E2A4D24057759E0
:1055A0003C4374515D240D2A07D85C3C9440C025CF
:1055B0002200AD0051242A4221D00F25224A9460B6
:1055C000D468AC43D46001282FD01024D068A04305
:1055D000D06000220C241C480262426A2243093C2B
:1055E00023401343436203682022012922D09343BE
:1055F00003604021144A13688B431360F8BDC02533
:105600002D0108342A42D8D1C024A401224054429A
:10561000624108240F25524214400B4A55349460CD
:10562000D468AC43D4600128CFD11024D068204383
:10563000D060CEE713430360FFF772FFD9E7C0469F
:10564000007004403C10000000B00340084B10B54F
:105650000400002B02D0002100E000BF054B1868B9
:10566000836A002B00D09847200000F08FF8C046D6
:1056700000000000AC5B000070B500260C4D0D4C26
:10568000641BA410A64209D1002600F091FA0A4D2D
:105690000A4C641BA410A64205D170BDB300EB58A0
:1056A00098470136EEE7B300EB5898470136F2E72A
:1056B000D05B0000D05B0000D05B0000D45B00003A
:1056C000002310B59A4200D110BDCC5CC454013304
:1056D000F8E703001218934200D1704719700133A4
:1056E000F9E7020010B51378541C002B05D1CC5CEF
:1056F000D4540133002CFAD110BD2200F3E703008B
:105700000A7801311A700133002AF9D17047002359
:1057100030B59A420AD0013AC45CCD5CAC4204D1A7
:10572000934202D00133002CF6D1631B180030BD28
:1057300030B50500002A00D130BD0C78013A6B1C51
:105740002C700131002C05D19A189A42F4D01C70AB
:105750000133FAE71D00EDE710B50378002B0FD1F8
:105760000B785A4253415B42184010BD0023CA5C7B
:10577000002AFAD0C45C944201D10133F7E701302A
:105780000378002BF2D11800EFE70000FEE7C046D7
:1057900000000000000000001F00000000000000EA
:1057A0003B000000000000005A0000000000000064
:1057B00078000000000000009700000000000000DA
:1057C000B500000000000000D40000000000000050
:1057D000F3000000000000001101000000000000C4
:1057E00030010000000000004E0100000000000039
:1057F0006D0100000000000041542B4854545050EB
:105800004152413D2255524C222C22000000000002
:105810000000000000000000000000000000000088
:105820000000000000000000000000000000000078
:105830000000000000000000000000000000000068
:105840000000000000000000000000000000000058
:105850000000000000000000000000000000000048
:105860000000000000000000000000000000000038
:105870000000000000000000000000000000000028
:105880000000000000000000000000000000000018
:105890000000000000000000000000000000000008
:1058A00000000000000000000000000000000000F8
:1058B00000000000000000000000000000000000E8
:1058C00000000000000000000000000000000000D8
:1058D00000000000000000000000000000000000C8
:1058E00000000000000000000000000000000000B8
:1058F00000000000000000000000000000000000A8
:105900000000000000000000000000000000000097
:105910000000000000000000000000000000000087
:105920000000000000000000000000000000000077
:105930000000000000000000000000000000000067
:105940000000000000000000000000000000000057
:105950000000000000000000000000000000000047
:105960000000000000000000000000000000000037
:105970000000000000000000000000000000000027
:105980000000000000000000000000000000000017
:105990000000000000000000000000000000000007
:1059A00000000000000000000000000000000000F7
:1059B00000000000000000000000000000000000E7
:1059C00000000000000000000000000000000000D7
:1059D00000000000000000000000000000000000C7
:1059E000000000000000000000000000FC120000A9
:1059F0006E110000B211000016110000B21100007B
:105A0000A2120000B2110000161100006E11000079
:105A10006E110000A2120000161100000E1100000D
:105A20000E1100000E110000B0120000141800004A
:105A30001617000016170000341A00001017000097
:105A4000101700001C1A0000341A00001017000084
:105A50001C1A000010170000341A00002A1A000057
:105A60002A1A00002A1A0000381A0000656B6168C3
:105A7000730000007368616B650000006574616409
:105A80007075000075706461746500005374617214
:105A9000742055706461746500000000CC460000FD
:105AA000D6460000E0460000EA460000F44600004A
:105AB000FE4600000847000012470000B6450000FF
:105AC000D6450000EE4500002B475053524D433A57
:105AD00000000000452C0000572C00003230303010
:105AE000303130313030303030300000220D0A009B
:105AF0002B48545450524541443A000041542B43E2
:105B0000495053544152543D22544350222C2200B8
:105B1000222C00000D0A00002B434345443A0000AC
:105B20002B4353513A2000002B4347534E3A200059
:105B300041542B43495053454E443D0053454E4438
:105B40000000000041542B4349505354415254002B
:105B5000434F4E4E454354204F4B000077616974CC
:105B60000000000000B0064000C00640B64C000037
:105B7000B04C0000104D0000184D0000204D0000FA
:105B8000084D000000F00F4040F00F4080F00F4043
:105B9000C0F00F4000F10F400090044000A004400E
:105BA00000B0044000C0044000D004402CF9FF1FA6
:105BB000F8B5C046F8BC08BC9E467047F8B5C0466C
:085BC000F8BC08BC9E467047CA
:085BC80090A8FF7F010000001E
:045BD0003904000094
:045BD40011040000B8
:105BD80041540D0A00000000415445300D0A0000F0
:105BE80041542B434345443D302C310D0A000000FD
:105BF80041542B43474143543D312C310D0A000099
:105C080041542B434744434F4E543D312C202249A5
:105C180050222C2022434D4D544D220D0A000000E5
:105C280041542B4347534E0D0A00000041542B4367
:105C3800494653520D0A000041542B43494D490D22
:105C48000A00000041542B434950434C4F53450D23
:105C58000A00000041542B4353510D0A0000000074
:105C68004552524F5200000041542B475053414374
:105C7800543D310D0A00000041542B475053524502
:105C880053544152543D310D0A00000041542B47F2
:105C98005053524553544152543D320D0A000000AE
:105CA80041542B475053524553544152543D330DA0
:105CB8000A00000041542B475053524D430D0A002F
:105CC80041542B48545450494E49540D0A00000081
:105CD80041542B48545450524541443F0D0A00004A
:105CE80041542B4854545053454E443D300D0A00FE
:105CF8004F4B0000006CDC020C0D0E000000000091
:105D0800000000000000000000000000000000008B
:105D1800000000000000000000000000000000007B
:105D2800000000000000000000000000000000006B
:105D3800000000000000000000000000000000005B
:105D4800000000000000000000000000000000004B
:0C5D58000000000000000000000000003F
:04000003000004D124
:00000001FF
