:10000000F8030020D10400001505000015050000CC
:1000100000000000000000000000000000000000E0
:1000200000000000000000000000000015050000B6
:10003000000000000000000015050000BD220000C7
:100040001505000015050000150500001505000048
:100050001505000015050000150500001505000038
:100060001505000015050000150500001505000028
:10007000D92200000D230000DD230000150500003B
:100080001505000015050000150500001505000008
:1000900015050000150500001505000015050000F8
:1000A00015050000150500001505000015050000E8
:1000B00015050000150500001505000015050000D8
:10040000FFFFFFFFFFFFFFFFFFFFFFFFFEFFFFFFFD
:1004100010B5064C2378002B07D1054B002B02D0DA
:10042000044800E000BF0123237010BD90F9FF1FB6
:10043000000000001C5D0000044B10B5002B03D031
:100440000349044800E000BF10BDC04600000000A2
:1004500094F9FF1F1C5D0000164B002B00D1144BBC
:100460009D46402292029A1A924600218B460F46E0
:100470001348144A121A05F0D2F90F4B002B00D082
:1004800098470E4B002B00D0984700200021040015
:100490000D000D48002802D00C4800E000BF05F018
:1004A00091F92000290002F03FF805F075F9C046E7
:1004B00000000800F8030020000000000000000019
:1004C00090F9FF1F2CFDFF1F00000000000000003E
:1004D00072B603F049FF62B609490A4A0A4B9B1AF1
:1004E00003DD043BC858D050FBDC0849084A521AC7
:1004F00003DD00208850043AFCDAFFF7ADFF00006E
:100500003465000000F8FF1F90F9FF1F90F9FF1FEE
:100510002CFDFF1F0048004715050000002243087E
:100520008B4274D303098B425FD3030A8B4244D3BB
:10053000030B8B4228D3030C8B420DD3FF220902FD
:1005400012BA030C8B4202D31212090265D0030BBC
:100550008B4219D300E0090AC30B8B4201D3CB03B2
:10056000C01A5241830B8B4201D38B03C01A5241F4
:10057000430B8B4201D34B03C01A5241030B8B42F6
:1005800001D30B03C01A5241C30A8B4201D3CB02E1
:10059000C01A5241830A8B4201D38B02C01A5241C6
:1005A000430A8B4201D34B02C01A5241030A8B42C9
:1005B00001D30B02C01A5241CDD2C3098B4201D3E1
:1005C000CB01C01A524183098B4201D38B01C01A5F
:1005D000524143098B4201D34B01C01A52410309D6
:1005E0008B4201D30B01C01A5241C3088B4201D385
:1005F000CB00C01A524183088B4201D38B00C01A32
:10060000524143088B4201D34B00C01A5241411A58
:1006100000D20146524110467047FFE701B5002065
:1006200000F0F0F802BDC0460029F7D076E7704729
:1006300003460B437FD4002243088B4274D3030943
:100640008B425FD3030A8B4244D3030B8B4228D3E4
:10065000030C8B420DD3FF22090212BA030C8B420A
:1006600002D31212090265D0030B8B4219D300E0AA
:10067000090AC30B8B4201D3CB03C01A5241830B2F
:100680008B4201D38B03C01A5241430B8B4201D3DF
:100690004B03C01A5241030B8B4201D30B03C01A08
:1006A0005241C30A8B4201D3CB02C01A5241830A82
:1006B0008B4201D38B02C01A5241430A8B4201D3B1
:1006C0004B02C01A5241030A8B4201D30B02C01ADB
:1006D0005241CDD2C3098B4201D3CB01C01A524142
:1006E00083098B4201D38B01C01A524143098B42CB
:1006F00001D34B01C01A524103098B4201D30B01B4
:10070000C01A5241C3088B4201D3CB00C01A5241D8
:1007100083088B4201D38B00C01A524143088B429D
:1007200001D34B00C01A5241411A00D20146524136
:10073000104670475DE0CA0F00D04942031000D355
:100740004042534000229C4603098B422DD3030AAA
:100750008B4212D3FC22890112BA030A8B420CD3BA
:10076000890192118B4208D3890192118B4204D3E3
:1007700089013AD0921100E08909C3098B4201D363
:10078000CB01C01A524183098B4201D38B01C01A9D
:10079000524143098B4201D34B01C01A5241030914
:1007A0008B4201D30B01C01A5241C3088B4201D3C3
:1007B000CB00C01A524183088B4201D38B00C01A70
:1007C0005241D9D243088B4201D34B00C01A524147
:1007D000411A00D20146634652415B10104601D3D4
:1007E0004042002B00D54942704763465B1000D35E
:1007F000404201B5002000F005F802BD0029F8D004
:1008000016E770477047C046002B11D1002A0FD160
:10081000002900D1002802D00021C943081C07B4D8
:10082000024802A14018029003BDC046D9FFFFFF55
:1008300003B4684601B5029800F030F8019B9E466B
:1008400002B00CBC7047C046F0B5CE464746150412
:100850002D0C2E0080B50704140C3F0C9946030C98
:100860007E435D43674363437F19340CE4199C4620
:10087000A54203D980235B029846C4444B464343B8
:100880005143250C36046544360C2404A4195B1925
:10089000591820000CBC90469946F0BDF0B54F4663
:1008A0004646D646C0B5040082B00D009146984633
:1008B0008B422FD82CD04146484601F0E1FC29005C
:1008C0000600200001F0DCFC331A9C46203B9A46CF
:1008D00000D576E04B46524693401F004B46624699
:1008E00093401E00AF4228D825D05346A41BBD41DB
:1008F000002B00DA7BE00022002300920193012309
:10090000524693400193012362469340009318E0BE
:100910008242D0D900220023009201930A9B002B2F
:1009200001D01C605D600098019902B01CBC90462B
:100930009946A246F0BDA342D7D9002200230092D7
:1009400001936346002BE9D0FB07984641467208A5
:100950000A437B0866460EE0AB4201D1A2420CD8A6
:10096000A41A9D41012024196D410021013E241843
:100970004D41002E06D0AB42EED9013E24196D4107
:10098000002EF8D100980199534600196941002BB7
:1009900023DB2B005246D3402A006446E2401C0071
:1009A00053461500002B2DDB26005746BE40330072
:1009B00026006746BE403200801A9941009001919E
:1009C000ACE7624620239B1A4A46DA406146130090
:1009D00042468A4017001F4380E7624620239B1A45
:1009E0002A0066469A402300F3401343D4E7624648
:1009F000202300219B1A0022009101920122DA405B
:100A0000019280E72023624626009B1ADE402F00D9
:100A1000B0466646B74046463B003343C8E7C0464B
:100A2000F0B54F464646D6460C000903C0B5490A04
:100A3000470F5E0039431F03DB0F9C4665007B0AAE
:100A4000570F1F436D0DE40F760DA146C000B84649
:100A5000D200AB1B64457BD0002B5FDD002E00D0A5
:100A6000A4E03E00164300D112E15E1E002E00D02D
:100A70009EE1871A4346B84280410125C91A404287
:100A8000091A0B0200D431E149024E0A002E00D1AE
:100A90006EE1300001F0D6FB0300083B1F2B00DDA8
:100AA00061E120223900D21A9E40D1409F400E437E
:100AB0009D4200DD51E15D1B6B1C1F2B00DD7CE1C5
:100AC0002021C91A3D0030008F408840DD40791E4A
:100AD0008F41310007222843D940002507433A407F
:100AE000002A09D00F233B40042B05D03B1DBB42FD
:100AF000BF417F42C9191F000B0200D426E26A1CC5
:100B0000C64B55056D0D9A4200D106E1C44AFF0857
:100B10000A40530752023B43120B8EE0002B00D0D9
:100B2000B8E06B1C5B055B0D012B00DC30E1871A24
:100B30004346B842B641CB1A76429E1B330200D5DB
:100B40004CE13B003343A1D100220024002570E09A
:100B5000002B00DCE5E0002E00D183E0AF4EB54273
:100B600060D0802636043743B846382B00DC3EE19F
:100B7000434613431F007A1E97413F188742804126
:100B8000404209180B0200D4B0E0A44B01359D424D
:100B900000D1C3E0A24A7B080A4001210F401F4355
:100BA0005108D30707221F433A4099E79B4EB542AD
:100BB00038D0802636043743B846382B00DDDCE0D9
:100BC0001F2B00DC30E11E004746203EF740BC46AC
:100BD000202B04D04026F31A46469E40324317008D
:100BE00063467A1E97411F43CCE0002B00D104E2FC
:100BF0004346134300D159E14B07C00818438023F3
:100C0000C9081B03194208D04546ED081D4204D10E
:100C10004346D008590708432900420FC9007F4DB9
:100C20001143C0004B07CA087C49C00803438D42EA
:100C300068D012036D05120B6D0D00211203180010
:100C4000130B0A0D12051A43764B2D0513402B4347
:100C50005B00E4075B08234319001CBC90469946DF
:100C6000A246F0BD3E00164312D05E1E002E00D0FC
:100C700000E187188742804141444042091801251C
:100C80000B0233D5022585E7644633004146100048
:100C90001D00C7E7002D00D0DAE00C000443F3D0BC
:100CA0005C1C00D19FE15D4CA64200D12FE1DB43EB
:100CB000382B00DD66E11F2B00DD83E120240500D9
:100CC000E41A0F00DD40D940A0404346A7405B1A1C
:100CD000441EA04198462F433843171ABA42924106
:100CE00043465242991A64463500CAE607223A4002
:100CF000002A00D0F6E64B07CA084849FF083B43E4
:100D00008D4296D11900114300D19EE18021090343
:100D10000A431203120B414D8FE7150000220023F6
:100D20008BE7002B00D0C7E06B1C5F057F0D012F08
:100D300000DCF1E0394DAB4200D1B9E085180A0082
:100D4000854289414244494251180722CF076D0824
:100D50002F4349083A401D00C2E607223049ED1AE8
:100D600031403A40BCE63E002838864000279FE6E6
:100D7000380001F067FA20308EE6434613431F0027
:100D80007A1E9741C71BB84280414042091A78E653
:100D90000E003B0006431343002D61D1002E00D00E
:100DA000F4E0002B00D11BE164463900100039E764
:100DB0001A4FBB427AD03300FFE630001F3DE840B7
:100DC000202B03D04021CB1A9E4037437B1E9F41EE
:100DD000072207433A400021002589E7171A4346B6
:100DE000BA42B641591A76428E1B64464EE61F2B14
:100DF00000DDADE020264746F61AB740B946170099
:100E0000B246DF404E463E4337005646B240561E7D
:100E1000B24117434246DA408918AEE6FF070000A8
:100E2000FFFF7FFFFFFF0F8020264746F61AB740DF
:100E3000B9461700B246DF404E463E43370056469D
:100E4000B240561EB24117434246DA40891A99E72A
:100E50007F4CA6425BD0802424045B42214327E7D9
:100E6000002E0CD1002B00D1CBE0644639001000DD
:100E7000774DD7E6764FBB4218D0330075E6002B8E
:100E800014D04B07C00818438023C9081B0319421C
:100E900007D0FC081C4204D17907D0080843E1467A
:100EA00021004C46420FC9001143C000684DB9E60D
:100EB0001D0000220023C0E6002D5BD10D0005437C
:100EC00000D1E2E65D1C00D1B0E0614DAE421FD022
:100ED000DB43382B71DC1F2B00DD96E020250F0053
:100EE000ED1AAF40B9460700AA46DF404D463D43E4
:100EF0002F005546A840D940451EA84188440743C5
:100F0000BF18974292415142414435003AE6644647
:100F100035004146100085E60B000343002D00D04C
:100F200063E6002BF5D04346134300D17AE68718D9
:100F30008742804107224144404209183A400B024F
:100F400000D4D5E6434B01351940C9E5380069E6C0
:100F50001E004746203EF740BC46202B04D04026CA
:100F6000F31A46469E403243170063467A1E974165
:100F70001F4302E6364DAE42CAD080252D045B42A7
:100F80002943A6E70843411E8841A6E6002B00D16D
:100F900048E6871A4346B842B641CB1A76429E1BB2
:100FA00033024BD5171A4346BA429241591A52425C
:100FB000891A072264463A4092E501430F00791EE0
:100FC0008F419DE71C000F00203CE740202B03D001
:100FD0004024E31A99400843411E884138437CE687
:100FE0000022002425E6171A4346BA429241591AB4
:100FF0005242891A6446350043E541461000144DBB
:1010000010E680220024120380E61D000F00203D20
:10101000EF40BC46202B03D04025EB1A99400843F3
:1010200007006346781E87411F4369E78718974288
:101030009B4141445B42C9183500A3E53B00334363
:10104000CED0072231003A4052E600231A00F4E5E0
:10105000FF070000FFFF7FFFF0B55746DE464E4614
:101060004546E0B5834607000E03480085B092462A
:101070001C00360B400DCD0F002800D19DE0954B94
:10108000984239D08023F6001B041E43924A7B0FFE
:10109000334399469446030063440093002300269B
:1010A000FF00029323031B0B98466300E40F524694
:1010B0005B0D019400D1B3E086498B4200D19EE0E4
:1010C0004246D100802212040A435146490F11437F
:1010D0008B46814952468C4600996344CB1A0021C5
:1010E000D20000932B0063409A460F2E00D905E1F1
:1010F0007A4BB6009B599F465B463343994600D0D6
:10110000B8E002230826002700900293CAE7CB46E6
:101110003A0002990195019B9A46022927D003299A
:1011200000D180E2012944D06D49009B8C46634484
:101130001C00002C38DD530700D013E2D2085B46B8
:10114000DB0109D55946674B19408B468021C90000
:101150008C46009B63441C00634B9C4207DC5B464F
:1011600064055F075B0217431B0B620D02E000235F
:101170000027584A00211B031C0B0B0D1B052343A2
:1011800014055A4A380013401C4353466400DB07D9
:1011900064081C43210005B03CBC90469946A24619
:1011A000AB46F0BD0122524201231B1B382B00DC51
:1011B000ADE1002200230027DCE75B46334399467C
:1011C0005ED0002E00D18AE1300001F03BF8030030
:1011D0000B3B1C2B00DD7BE11D22D31A5A4601007C
:1011E000DA4008398E4013005F46334399468F40FA
:1011F0003F4B00261B1A00930023029352E74146FF
:1012000053460B433B499B468C46009B63440093EB
:101210005B46002B3BD1022300221E43022161E7E3
:10122000434613439B4637D04346002B00D162E12F
:10123000404601F007F803000B3B1C2B00DD53E197
:1012400002004146083A914088461D21CB1A51467A
:10125000D9400B0041460B439B46534693401A002E
:10126000009B25499C46604403008C4663440093E0
:10127000002137E70323B14600900C26029311E7C3
:101280000023009301330426002702930AE7032377
:10129000C3461E43032125E701331E4300220121DB
:1012A00020E700239A46802300271B03094A61E7B1
:1012B000802349461B03194200D1E2E059461942F6
:1012C00000D0DEE00B431B0317001B0BA246014AB4
:1012D00050E7C046FF07000001FCFFFF445B000031
:1012E000FF030000FFFFFFFEFE070000FFFF0F806F
:1012F0000DFCFFFF01F8FFFFF3030000D94500D903
:10130000CBE000D1C6E03C0048460027009B013BF3
:1013100000935B46160E1B021E43130298463304CD
:101320001B0C9946310C0191FFF77EF94A46424366
:101330000B04210C050019438A4207D98919013D84
:101340008E4203D88A4201D9851E8919881A0199CB
:10135000FFF76AF909048C464A4621046446424371
:10136000090C030021438A4204D98919013B8E42AA
:1013700000D8F1E02D041D43AB464346891A42468E
:10138000280C12041D0C5B46140C22001B041B0CC1
:101390005A4303946B434443029568431B19150C4D
:1013A000EB189C4203D980246402A44660441C0CC0
:1013B00015041B042D0C20185D19814277D373D0BE
:1013C0000C1AA24A7D1BAF42BF419446009B7F424C
:1013D0006344E01B1C00864200D1DBE00199FFF76B
:1013E00023F94A4642430B04290C070019438A4259
:1013F00007D98919013F8E4203D88A4201D9871E35
:101400008919881A0199FFF70FF909044A46894694
:1014100029044D464243090C030029438A4207D957
:101420008919013B8E4203D88A4201D9831E89194A
:101430003F04891A3A00039F1A43380013041B0C17
:10144000584381460298150C6F4343434543484631
:10145000000C8446DB1963449F4203D9802040027C
:101460008446654448461F0C00041B04000C7D198B
:101470001818A94200D284E000D17FE001231A436A
:1014800057E680234A461B0313431B031B0BAA4644
:101490006F4A6FE6BA4200D935E74B46DC07580879
:1014A0007B081C43FF0734E70024AF4289D247443E
:1014B0004745A4415B466442A4196418013BA64217
:1014C0001ED2A0426DD800D1B6E0241A9B4678E720
:1014D00003005A46283B9A400027914688E6584622
:1014E00000F0B0FE203072E603005246283B9A40DE
:1014F00093460022B4E6504600F0A4FE20309AE65F
:10150000A642E2D1B845DCD9341A9B4659E71F2BD5
:1015100065DC504C0099A4465C46614408008C4050
:1015200011008240D940501E82410C4314435A4658
:10153000DA401300620709D00F222240042A05D0A6
:101540002200141D9442894149425B181A0262D557
:101550000122002300270DE68A4200D80AE7831EF5
:10156000891907E70F231340042B00D1E6E5171D67
:101570009742924153429B44FA08E0E5002800D18B
:10158000D7E57118531EB14227D3A94215D358D0BD
:101590001A0073E7002B00DC04E6012300229B44C1
:1015A000CDE502234744474589415B429C46494279
:1015B00089190C19E344241A03E743465F004745A1
:1015C0009B41B8465B429E19023A8919A94200D054
:1015D00054E7404500D051E7ABE51A00F6E71F217C
:1015E0005F4649420C1BE740202B07D01A49009B5D
:1015F0008C46634418005B4683401A43501E824168
:101600003A4307270023174009D00F210023114038
:101610001400042995D122005F075B021B0BD2083E
:1016200017430022A6E5802359461B030B431B03E7
:1016300017001B0B064A9DE5BD42B2D89B4600240D
:10164000BFE68045B9D31A00C3E7C046FF030000D8
:10165000FF0700001E0400003E040000F0B55746DE
:10166000DE464E464546E0B5834606000F03480079
:1016700087B092461D003F0B400DCC0F002800D1D3
:101680006FE0DE4B984238D08023FF001B041F43DD
:10169000730F3B430193DA4B0027994600239B4687
:1016A000F60081442B0369001B0B52469846490DF6
:1016B000ED0F002900D185E0D04B994200D173E0B5
:1016C0004346DA0080231B0413435246CC48520F92
:1016D00084461343524600206144D20089442100CD
:1016E000694000918C46012149448A460F2F00D958
:1016F00090E0C449BF00CF59BF465B463B430193CE
:1017000000D06AE102230827002681469B46C9E7EC
:1017100032005846019B61460091022800D175E0D5
:10172000032800D1FEE1012800D02CE1002300278E
:10173000002600253F032A0D3F0BB34812053A430C
:1017400002401B051343009A5B00D1075B080B4363
:101750003000190007B03CBC90469946A246AB4603
:10176000F0BD5B463B43019300D12FE1002F00D138
:10177000A5E1380000F066FD03000B3B1C2B00DDEB
:1017800096E11D22D31A5A460100DA405E46083916
:101790008F4013008E403B4301939C4B00271B1A44
:1017A000994600239B467DE7414653460B439349A8
:1017B0008C46E144002B00D01AE10222022017439C
:1017C00000228CE7134300D10DE14346002B00D1EA
:1017D00081E1404600F036FD02000B3A1C2A00DD94
:1017E00072E10100434608398B4098461D239A1A3E
:1017F0005346D3401A004346134352468A40494653
:10180000081A824989468144002068E77B4B0027FB
:1018100000268EE7140C1204120C1100370C36044B
:10182000350C794328008C462E0060436044834683
:1018300056432100300C804658467943404402917B
:10184000844506D98846802149028C46E0444146B9
:1018500002913604010C360C00048B4681191E0CD3
:101860001B041B0C0391190079438C462800754317
:101870006544A8465843050C45447743A94203D91B
:10188000802149028C466744290C8C4639000004AB
:10189000000C2D042D186144AB4405915946049168
:1018A00001990F043F0C080C390051434243904604
:1018B00002008C46090C8B4662437C4344445C44E2
:1018C000A04503D98021490288464244210C88461C
:1018D00061460904090C8C4639005943434370435F
:1018E0007E430F0CF6182404BE19644442448C460F
:1018F000B34203D980235B0298464044029B614671
:101900009846049B370443449B46AB45AD416B422C
:101910000D0405992D0C8C467F196744FD18A846C7
:101920005D462D19A542A44193466442A446C34492
:10193000DC448F42BF4198459B4193459241A44569
:10194000A4415B427F421F43360C52426442BF199E
:101950002243BF18624638184302D20D039913433D
:101960006A020A43501E82416146ED0D2A434E022F
:101970003243D90100D4B3E001265008324002437B
:10198000DE0732435B08224C5444002C62DD5107D1
:1019900009D00F201040042805D0101D904292411C
:1019A00052429B180200D90104D580241948E40052
:1019B000034054441848844200DD27E75E075B0279
:1019C000D2081F0B630516435B0DB2E60023994650
:1019D0000133042700269B4664E6032301978146D2
:1019E0000C279B465EE6012201201743002276E683
:1019F000032303201F43434671E6C046FF07000050
:101A000001FCFFFF845B0000FFFF0F800DFCFFFF68
:101A1000FF030000FFFFFFFEFE07000000238027FA
:101A200000933F030026434B83E6019B3200A4460C
:101A3000584670E6AC466EE6802701993F0339426E
:101A40002DD03B422BD11F433F033F0B0095160087
:101A5000384B6EE601252D1B382D00DD66E61F2D67
:101A600040DC35481C005044160082408440EE4063
:101A7000501E824134431443EB40620709D00F22C9
:101A80002240042A05D02200141D94428041404285
:101A90001B181A023ED501230027002649E680279D
:101AA000019B3F031F433F033F0B0094214B40E644
:101AB00003005A46283B9A40002601926DE658469C
:101AC00000F0C0FB203057E603005246283B9A4006
:101AD0001300002293E6504600F0B4FB20307BE672
:101AE000CA4650E71F201E004042041BE640202D3E
:101AF00003D0124C5444A3401A43501E8241324337
:101B000007260027164009D00F200023104014009C
:101B10000428B9D122005E075B021F0BD2081643CE
:101B2000002306E680273F031F433F033F0B1600B9
:101B3000004BFEE5FF0700001E0400003E0400000D
:101B4000F8B557464E464546DE460C000903E0B55B
:101B5000490A460F5F0031431E03DB0F760A9B469E
:101B6000530F3343C84E6500C000E40FD2006D0D23
:101B7000A24681467F0D9C469046B74200D1B9E00F
:101B80005B46012673409B46EE1BA34500D183E0D4
:101B9000002E63DD002F00D0B1E06346134300D177
:101BA00023E1731E002B00D0BAE1861A6346B042CF
:101BB00080410125C91A4042091A0B0200D447E1AD
:101BC00049024B0A98464346002B00D189E1404622
:101BD00000F038FB0300083B1F2B00DD7CE12022D6
:101BE0003000D21A4146D040994002009E400A433C
:101BF0009D4200DD6AE15D1B6B1C1F2B00DD94E143
:101C0000202110003500C91A8E40DA408840DD409E
:101C1000711E8E41110007222843002506433240E1
:101C2000002A09D00F233340042B05D0331DB342C3
:101C3000B641764289191E000B0200D43DE26A1CAF
:101C4000914B55056D0D9A4200D119E18F4AF60866
:101C50000A40570752023743120B9BE0002E00D078
:101C6000C5E06E1C7605760D012E00DC48E1674666
:101C7000861ACB1BB042BF417F42B8461F00434685
:101C8000FF1A3B00B8461B0200D55FE137439AD1EB
:101C900000220024002579E0002E00DCFAE0002F6D
:101CA00000D18DE0784B9D4267D0802367461B04AE
:101CB0001F43BC46382E00DC52E1634613435A1ED4
:101CC00093411E1886428041404209180B0200D4FD
:101CD000BEE06D4B01359D4200D1D2E06B4A7308E6
:101CE0000A4001210E401E435108D30707221E431C
:101CF000324095E71E00164300D045E740E7624BAF
:101D00009D423AD0802367461B041F43BC46382EB1
:101D100000DDEBE01F2E00DC3AE133006746203B9C
:101D2000DF403B00202E05D04027BF1B6646BE404B
:101D3000324390464646721E96413343DAE0002B0A
:101D400000D114E26346134300D168E180234E07BB
:101D5000C008C9081B030643194208D06046C008E2
:101D6000184204D163460100D2085E071643F3000F
:101D70009946C900720F444D11434B46DE08424B51
:101D80004F073743CA089D4200D16EE012036D052C
:101D9000120B6D0D00211203130B0A0D12051A43CD
:101DA0003B4B2D0513402B435B00E4075B082343AB
:101DB000380019003CBC90469946A246AB46F8BD97
:101DC0006346134311D0731E002B00D007E1861821
:101DD0008642804161444042091801250B0237D5F3
:101DE00002257BE73E00614691463500C5E75C462B
:101DF000002D00D0E1E00B000343F3D0731C00D1B1
:101E0000ACE1214B9F4200D13AE1F343382B00DD96
:101E10006FE11F2B00DD8CE120250E00ED1AAE4096
:101E2000B0460600AA46DE40454635432E005546DC
:101E3000D940A8406346451EA8415B1A9C463043E2
:101E4000161AB242924163465242991A3D00B4E6D4
:101E500007223240002A00D0E4E60B4BF6084F0779
:101E60003743CA089D4200D090E73B00134300D19E
:101E7000A6E180231B031A431203120B024D89E7CC
:101E800015000022002785E7FF070000FFFF7FFF06
:101E9000FFFF0F80002E00D0C7E06B1C5E05760DA3
:101EA000012E00DCF0E0C84DAB4200D1B9E085184E
:101EB0000A00854289416244494251180722CE07EF
:101EC0006D082E43490832401D00A9E6BF49ED1AAE
:101ED000114007223240A3E6320028388240002613
:101EE00086E6300000F0AEF9203073E66346134317
:101EF0005A1E9341C61AB04280414042091A5CE61C
:101F00000E00674606431743002D5ED1002E00D019
:101F1000F3E0002F00D11EE15C46614691462CE7BC
:101F2000A94FBE427BD01E00F1E610001F3DE840E5
:101F3000202B03D04021CB1A9A401643731E9E419A
:101F40000722064332400021002583E7161A634624
:101F5000B2428041591A40420B1A98465C4632E61A
:101F60001F2E00DDABE02027BB1B9A466346574679
:101F7000BB40994613004F46F3401F433B00574672
:101F8000BA40571EBA4113436246F240891898E698
:101F90002027BB1B9A4663465746BB409946130011
:101FA0004F46F3401F433B005746BA40571EBA41C5
:101FB00013436246F240891A9CE7834B9F425FD0ED
:101FC00080252D047342294320E7002E0CD1002FD9
:101FD00000D1D0E05C46614691467B4DCDE67A4F1C
:101FE000BE421CD01E0065E6002F18D0C0084E0768
:101FF00006438020C9080003014208D06346DC087C
:10200000044204D12100DA46D2085E071643F300E9
:10201000994601245346C900720F11431C406A4D72
:10202000ABE61D0000220027B4E6002D59D10B00BD
:10203000034300D1D6E6731C00D1B2E0624B9F424D
:102040001ED0F343382B6FDC1F2B00DD97E02025DB
:102050000E00ED1AAE40B0460600AA46DE404546E8
:1020600035432E005546A840D940451EA8418C4412
:102070000643B61896429241514261443D0025E61E
:102080003D006146914678E60B000343002D00D0E9
:1020900055E6002BF5D06346134300D16DE6861854
:1020A0008642804161444042091800220B0200D45C
:1020B000D0E6464B01351940B2E5B1465DE6330046
:1020C0006746203BDF403B00202E05D04027BF1B4A
:1020D0006646BE40324390464646721E96413343A2
:1020E000EFE5394B9F42CBD080252D047342294325
:1020F000A8E70843411E8841A2E6002F00D13CE634
:102100006346861ACF1AB0429B415B42FB1A98463F
:102110001B024ED5161A6346B2429241591A5242D8
:10212000891A5C4600227BE501430E00711E8E4138
:102130009FE71D000E00203DEE40B046202B04D04E
:102140004025EB1A99400843814648464346411EC4
:102150008841184374E60022002417E6161A6346E5
:10216000B2429241591A5242891A3D0025E5614610
:102170009146154D01E680220024120379E61D00E8
:102180000E00203DEE40B046202B04D04025EB1A37
:102190009940084381464E464346711E8E411E4378
:1021A00067E7861896429B4161445B42C9183D002F
:1021B0008CE547463743CED007224146324049E6B8
:1021C00000273A00E6E5C046FF070000FFFF7FFF5B
:1021D00070B500282DD0C317C5185D40C40F280066
:1021E00000F030F8154B1B1A5B055B0D0A2815DD56
:1021F0000B38854000222D032D0B002110002D03EC
:102200000A0D2D0B12052A430D4D1B052A401343C1
:102210005B00E4075B082343190070BD020029003E
:10222000153291400A000B21081AC5402D032D0BD1
:10223000E3E70024002300250022DEE71E0400005F
:10224000FFFF0F801C2101231B04984201D3000CC7
:1022500010391B0A984201D3000A08391B09984219
:1022600001D30009043902A2105C40187047C0462F
:10227000040302020101010100000000000000004F
:1022800010B5002903D1FFF7DDFF203002E0081C64
:10229000FFF7D8FF10BDC04602780B78002A03D0A4
:1022A000013001319A42F7D0D01A70470023C25C46
:1022B0000133002AFBD1581E704700000122002381
:1022C000044930B50C684D6812196B410A604B60C7
:1022D00030BDC046A8FCFF1F10B582B072B600200A
:1022E00002F032FA002802D162B602B010BD6B468D
:1022F000DC1D2100002002F0A9F92378002BF3D087
:102300000100002002F03CF9EEE7C04610B582B0B3
:1023100072B6012002F018FA002802D162B602B0AB
:1023200010BD6B46DC1D2100012002F08FF92378DF
:10233000002BF3D00100012002F022F9EEE7C046A5
:1023400030B5244C2388012B34D0002B2BD0022B0A
:102350000AD0032B10D104231F4A23801388C8708E
:1023600018181080012030BD032323801A4B887079
:10237000000218800120F6E7C85417485D1C038846
:10238000ADB22580AB42F5D1C9188D1E2D78432DF5
:102390001BD101390978432917D113800023038009
:1023A00023800020DFE75028E4D101230870238038
:1023B0000120D8E7502804D10223487023804F38E9
:1023C000D1E7002302202380CDE700230380238070
:1023D0000320C8E7B4F9FF1FB6F9FF1F30B583B07B
:1023E00072B6022002F0B0F9002802D162B603B042
:1023F00030BD6B46DC1D2100022002F027F9237856
:102400000500002BF2D01C4C631D611E1A78013BA5
:102410009A708B42FAD1052218492000257003F0EA
:102420001CFA002811D006221549200003F015FAE5
:1024300000280FD0134A14492800FFF781FF002815
:10244000D4D10222114B1A70D0E71149023002F0A8
:10245000E5F8EFE70F4A104B1168196091889980F1
:1024600092799A71BFF34F8F0C4B0D4ADA60BFF32C
:102470004F8FC046FDE7C046ACF9FF1FC45B0000AC
:10248000DC5B0000B0FCFF1FB0FAFF1FB2FCFF1FB7
:10249000CC5B0000DC580000F803002000ED00E0F9
:1024A0000400FA0510B5034B02001868596800F0E3
:1024B000D9FB10BDA8FCFF1F014B18605960704785
:1024C000A8FCFF1F10B518230022192103F070F893
:1024D00010BDC04610B582B0042300221A2101A805
:1024E00003F066F80C4B019A9A4204D00A220B4B77
:1024F0001A7002B010BD0A4C0A492000FFF7CCFE4A
:10250000002804D10122054B20701A70F1E7002247
:10251000024B1A70EDE7C04600180020B2FCFF1F06
:10252000F8030020F45B0000F0B5D6464F4680B5B6
:102530009DB072B6E1210220490201F079FFFA2133
:102540000020890002F002FA02F0A4FF00210C2012
:1025500001F0E8FE1A2000F023FC002100200023F7
:102560002A4A2B4C2B4F10605160023023703B8065
:10257000029302F0A1F862B6FFF7ACFF264B0A25E2
:102580009A46264B264E99462378DBB2012B12D071
:10259000002B22D0022B14D139884846257000F038
:1025A0005DFC002824D00328EED10023237023787B
:1025B000DBB2012BECD15146022002F02FF825703E
:1025C000E2E7029B01330293029BB342DCD9002372
:1025D0000C20029301F0B0FED6E701210C2001F09F
:1025E000A7FE72B6D020C00101F0AAFE62B6CBE70A
:1025F0006B4603A8991D00F09DFD0028C4D16B46D1
:1026000003AAD988023001F0E1FFBDE7A8FCFF1F53
:10261000B2FCFF1FB0FCFF1FE45B0000B0FAFF1F1D
:10262000FFFF0500F0B54546DE4657464E460C0016
:10263000E0B50500B5B0A54990461AA8682203F098
:10264000E5F8A34B0C950D940C990D9A934200D28A
:1026500008E200D102E200249E4B08930994012372
:1026600000240E930F94089809990E9A0F9B121844
:102670004B41D90756080E4301204042C1175F085D
:10268000FA00730F1A43F3001392129380197941E1
:10269000129A139B92197B410A900B91DC00510F07
:1026A0000C43D30014931594149C159DA4197D41DB
:1026B0000A980B99A30FAA001A43A3001792169326
:1026C000169A179BA4185D410123834A5B42A41804
:1026D0005D418B0782081A438B0818921993189A48
:1026E000199BA4185D41C82200235200FEF78CF804
:1026F000642224184D410A980B990023FEF784F8B0
:10270000241A8D41002320002900744AFEF79CF80A
:102710000C9B984200D1DBE10C9B0D9C8C4200D9B4
:10272000ADE167D1D9E1A24200D1CBE10E980F997A
:102730000A9A0B9B12184B41D90756080E430120E9
:102740004042C1175F08FA00730F1A43F300019269
:10275000009380197941009A019B92197B4108905E
:102760000991DC00510F0C43D30002930394029CA7
:10277000039DA4197D4108980999A30FAA001A4343
:10278000A30005920493049A059BA4185D410123BC
:10279000514A5B42A4185D418B0782081A438B089B
:1027A00006920793069A079BA4185D41C82200234E
:1027B0005200FEF729F8642224184D41089809991F
:1027C0000023FEF721F8241A8D4100232000290060
:1027D000424AFEF739F80C9B984200D167E10C9B06
:1027E0000D9C8C4200D946E100D140E1089B099C38
:1027F0000A930B940E990F9A0A9B0B9CA24292D9B2
:1028000001225242D3170E980F9902267642F717EB
:1028100004000D0080197941A4185D410F00EB0000
:10282000610F0B43E20012196B4102940395510FA3
:10283000DD000D43D400029A039BA4185D410600FD
:10284000A30FA9001943A00024184D41BB07B008ED
:102850001843B90824184D410121C8221E48494295
:1028600024184D415200002330003900FDF7CCFF01
:10287000642224184D41002330003900FDF7C4FFC5
:10288000241A8D41002320002900144AFDF7DCFFA3
:102890000C9B0D9C1B1A8C41029803990093019488
:1028A0000323034200D0C9E064220023FDF7ACFFFC
:1028B0001A4301239A46002A00D1BFE01CAB994677
:1028C0000123012600279B4633E0C046E85800005C
:1028D000FA1E01000F27000093FEFFFF005C260593
:1028E0005B4673403B431A00531E9A4100231092EB
:1028F00011937C4A00231098119900196941FDF742
:10290000A3FF009A019B8446994226D800D1C9E0D2
:10291000012E00D19EE000230122A4185D414B4608
:102920001C605D6001230024F618674107339C4654
:10293000E1444B461C685D685346002BD0D1002310
:102940002000684A2900FDF77FFF009B019CA142FF
:1029500003D8E7D1009B9842E4D91AAB9C46F1001A
:10296000083961445F4A002308684968FDF76CFF35
:10297000009B019C1B1A8C4118002100594A00231E
:1029800000900191FDF740FF14001D002000290078
:10299000554A002304940595FDF736FF14001D00E9
:1029A00020002900514A002306940795FDF72CFFCB
:1029B000140042461D0013680299039A19605A6078
:1029C00000980199424653681E605F609668002334
:1029D000444AFDF719FF4346306071600498059939
:1029E000DE68414A0023FDF70FFF43463060716007
:1029F000069807991E693D4A0023FDF705FF4346E7
:102A0000FA223060716092005E6920000023290084
:102A1000FDF7FAFE4346FA223060716092009E692B
:102A2000200029000023FDF7EFFE3260736035B00F
:102A30003CBC90469946A246AB46F0BDC8220298DF
:102A4000039952000023FDF7DFFE1A43534253411E
:102A50009A4633E7002F00D05DE763E7244BAB4293
:102A600000D3F8E5224B234C0C930D94F3E50C9B1B
:102A7000834200D8BAE60A9B0B9C089309940899F4
:102A8000099A012300249B197C410E930F949442D0
:102A900000D9B5E600D0E6E50E9B089A934200D82F
:102AA000E1E5ADE6009B9C4500D831E755E70D9B7D
:102AB000994200D093E601220023B6185F410E969A
:102AC0000F979DE60E9B0A9A934200D82EE697E652
:102AD0000D9B994200D01FE6EDE70C9B834200D886
:102AE00088E6CCE7005C260580EE360060EA000050
:102AF000FFB34CE4FA1E0100F0B5CE46474680B560
:102B000097B06B4615000F9302AB109304AB119373
:102B100006AB129308AB13930AAB14930FAA0CAB3A
:102B20001593FFF77FFD009E019FEB1C98466B1EDF
:102B30009946300039000A220023FDF765FE002384
:102B4000D4B2300039000A22FDF75EFE434630342D
:102B50001C7001235B429C46E04406000F00C84500
:102B6000E7D1029E039F2D2430002C7139000A22E8
:102B70000023FDF749FE30003900012600273032DE
:102B8000AA7100230A22FDF73FFE0A220023FDF767
:102B90003BFEEC71049B059CF618674130326A716C
:102BA000300039000A220023FDF72EFE30326A720F
:102BB00000230A2230003900FDF726FE0A220023F6
:102BC000FDF722FE069E079F202330322A72AB7249
:102BD000300039000A220023FDF716FE30322A7336
:102BE00000230A2230003900FDF70EFE0A220023DE
:102BF000FDF70AFE089E099F3A243032EA726C7390
:102C0000300039000A220023FDF7FEFD3032EA735E
:102C100000230A2230003900FDF7F6FD0A220023C6
:102C2000FDF7F2FD0A9E0B9F3032AA732C74300020
:102C300039000A220023FDF7E7FD3032AA74002391
:102C40000A2230003900FDF7DFFD0A220023FDF7DC
:102C5000DBFD002330326A74EB7417B00CBC904675
:102C60009946F0BD10B51400FA2200239200FDF73A
:102C7000EBFD044B044A801859412200FFF73CFF4A
:102C800010BDC0468338000000D82C12031C202839
:102C900000DD20231F221A4001239340014A1360C4
:102CA0007047C04600E100E0031C202800DD20231F
:102CB0001F221A4001239340802201498B50704704
:102CC00000E100E003008000C0180301181A800131
:102CD00004D00023C04601338342FBD17047C04675
:102CE000F0B5D6464F464646C0B59A4683789046DC
:102CF000C2781B021A4303799446093A0B7093B2C7
:102D0000994653464A461A804B46002B40D06346AC
:102D100001260A3B9BB2871DDF191F491F4B421D2D
:102D200014786340082435001D405B08002D01D055
:102D30004B409BB2013CA4B2002CF4D10132BA4208
:102D4000EED11D0ADBB262468218111F0C780221F7
:102D5000AC4217D1D41E24789C4213D1931E1B7809
:102D60000131432B0ED1013A1378432B0AD1411D77
:102D70004A46404602F04AFD5346414600221B881F
:102D8000CA54002108001CBC90469946A246F0BDDA
:102D9000FF23FF25D7E7C04601A0FFFFFFFF00008C
:102DA000094B0A4A187000231380094A1380002235
:102DB000084B1A70084B0022190014311A700133A5
:102DC0008B42FBD17047C046B8FCFF1FB4FCFF1F0D
:102DD000B6FCFF1FD4FCFF1FC0FCFF1FF0B54F4621
:102DE000D64646461B4BC0B51D8896B0013D814670
:102DF000002D2BDD184A00239246012200200727D0
:102E0000944601A93C001C40A04664464646B44096
:102E1000A0465446DA08A25C4446144206D1420059
:102E20008A181C0A0130D3701471C0B201339BB2EE
:102E3000AB42E7DB88705322484602F0E7FC484685
:102E400016B01CBC90469946A246F0BD002001A9D0
:102E5000F0E7C046B4FCFF1FC0FCFF1FF0B54546BD
:102E6000DE4657464E460023E0B57F4D7F4C2B7023
:102E70000378A544502B09D0012420007C4B9D44AD
:102E80003CBC90469946A246AB46F0BD4378502BD9
:102E9000F2D159210A336B4491AA6944FFF720FF0C
:102EA000041EE9D16B4659229B181E78012E13D0BF
:102EB000002E00D188E0022E63D0032E5FD16D4B2F
:102EC0009B78002BD9D16C4B0422187800216B4BD6
:102ED00002F032FB0324D0E76A465A21F32352184A
:102EE00012885B009A42C8D117AE91A9300002F057
:102EF0008DFC634B32881B889A4200D0A0E0337966
:102F0000012BBAD17379002B00D19BE05B4B0027DA
:102F10009A460423BB46994619E0BB00F318D888AB
:102F2000BB00F3181B899846B22381056B445B44B0
:102F3000890D800A424602F0FFFA43465B449BB289
:102F40009B4601377379FFB2BB4200D87AE07388A1
:102F5000012BE2D1002FE0D1B1336B4419004A4676
:102F6000504602F053FC3389F088043B9BB29846EC
:102F70005B46043304309BB280B29B46D4E7042402
:102F80007BE76A465A21F323521812885B009A4263
:102F900000D072E717AF91A9380002F037FC7B88A8
:102FA0003849DA0852180721194001238B4011785B
:102FB00068460B431370FFF711FF532269462D48F3
:102FC00002F024FC2E7058E72B4B1E783F2E08D8B9
:102FD000B6B230000136B6B202F06EFAF3B23F2B51
:102FE000F7D9284E00223100330014311A70013312
:102FF0009942FBD16A465A21F323521812885B008A
:103000009A4200D039E791A917A802F0FFFB5C2291
:103010006B469B181A881A4B1A805E226B469B18C7
:103020001A88194B1A80D308F61807231340012277
:10303000110099400B0031782A700B4333701CE764
:1030400002241AE77388104A0E491380DA085218CE
:1030500007210B40063908009840030010782970BA
:103060000343137009E7C046D4FCFF1FC4FBFFFFF6
:103070003C040000D8FCFF1FB8FCFF1FBCFCFF1F76
:10308000B4FCFF1FC0FCFF1FB6FCFF1FF0B51D0006
:1030900050232B706B70473BD6469A46924453465A
:1030A0001B124F464646AB7053461400C0B5EB703A
:1030B0002871681D0F0002F0A9FB631D9BB29846A2
:1030C000002C2FD0631E9BB299467A1C3900012731
:1030D000164B174E91440A78534008223800184086
:1030E0005B08002801D073409BB2013A92B2002ADB
:1030F000F4D101314945EED11A0ADBB241466A5496
:10310000A21D92B2AB544322E31D08349BB2A4B279
:10311000EA542A555246089B1A801CBC9046994690
:10312000A246F0BDFF23FF22E8E7C046FFFF0000F4
:1031300001A0FFFF30B50B4B04001B789DB00D00C4
:103140000120022B0CD15322074903A802F05EFB99
:10315000022000952300532203A9FFF797FF0020C8
:103160001DB030BDD4FCFF1FD8FCFF1F10B5084CAC
:1031700000220121200002F081F8FA20C000FFF7B0
:10318000A1FD01220121200002F078F810BDC04607
:103190001604000010B501280CD0002804D0022825
:1031A00001D1FFF7E3FF10BD00220121044802F026
:1031B00065F8F8E701220121014802F05FF8F2E723
:1031C0001604000000230A49CA5CC25401330F2BC5
:1031D000FAD100230749C37314331A00143A8A5CE6
:1031E000C2540133232BF8D10022C254002070476F
:1031F00088FAFF1F98FAFF1FF0B5DE4657464E4685
:103200004546E0B54C4B8BB0824601920C001A2229
:10321000002103A8029302F002FB0123474A012088
:10322000137001F049FA464B5046190002AF9B4615
:10323000FFF732F8002800D176E04249504602F00C
:1032400031FB002845D03A003F4B03CB03C219881D
:1032500011809B7893700A20FFF734FD0A2120002B
:10326000FDF75CF9019B86B2002B52D000239946F2
:10327000364B374D984659465046FFF70DF8002813
:1032800005D034495046FFF707F8002843D1002EF7
:1032900032D0002409E04146280002F003FB002858
:1032A00020D10134A4B2B44226D00A20FFF70AFD8F
:1032B0003900280002F0F6FA0028ECD000200023A4
:1032C0001E4A13700BB03CBC90469946A246AB46D2
:1032D000F0BD2049504602F0E5FA0028BBD03E235D
:1032E0003B80B8E76420FFF7EDFC1B49012001F0AB
:1032F00095F96420FFF7E6FC0023184A2B70137041
:103300004B4601339BB29946019B7600B6B24B45C2
:10331000B1D10120D3E70023104A51460120137098
:103320002B7001F07BF9B2E75B461B6802935B46AA
:103330001B793B718FE7C0464F4B0000B8F9FF1F68
:103340009C5C0000A45C0000B05C000084F8FF1FDF
:10335000BCF9FF1FBC5C000000F8FF1F84FAFF1FD0
:1033600010B5022208490948FFF746FF0300012073
:10337000002B07D1022204490548FFF73DFF431EF9
:103380009841C0B210BDC046B80B000030F8FF1F16
:1033900020F8FF1FF0B58FB02E2206000D0001AC03
:1033A000002102A802F03BFA2200264B83CB83C205
:1033B00003CB03C2002304E0E1180133CA740F2BCE
:1033C00002D0F25C002AF7D12000FEF76FFF032243
:1033D00006001D49201802F019FAFF2000230236CA
:1033E00030402018EA5C002A03D0C2540133052B78
:1033F000F8D12000FEF75AFF03221449201802F0EA
:1034000005FAFA21124D0122C9002800FFF7F4FE47
:10341000022210492000FFF7EFFE002802D1002011
:103420000FB0F0BDFA210122C9002800FFF7E4FE29
:10343000012208492000FFF7DFFE0028EFD002201C
:10344000EEE7C046745C0000885C00008C5C000005
:1034500068F8FF1F70170000F8B54E4645465746FE
:10346000DE463E4BE0B53E4F98467B1C05000326EA
:103470009946FA21032249004046FFF7BDFE041E8B
:1034800037D13849380002F00DFAC01BC3B25A1DBB
:10349000D2B22C709C46BB5C2C2B22D032490878CF
:1034A00090421ED96246911DC9B27A1849448B4692
:1034B00061460638401AC0B20100594402E00132A8
:1034C00091420CD0303BDBB2092B05D8A000241868
:1034D00064001C19E4B22C7013782C2BEFD1002C53
:1034E0000ED1FA20013E8000F6B2FFF7EBFB002E72
:1034F000BFD150463CBC90469946A246AB46F8BD6B
:1035000064201F216043FDF793F8FA2128700322FD
:1035100049001648FFF770FE824600281AD1144968
:10352000380002F0BFF900240630012200E01A0042
:1035300001782C2901D10134E4B2531CDBB2A95427
:103540000130052CF3D1002B04D0ED180023013DF0
:103550002B70CEE702239A46CBE7C04678F8FF1FD0
:10356000BCF9FF1F285C000084FAFF1F10F8FF1F42
:10357000305C0000FA2110B5022204008900002806
:1035800006D11948FFF738FE431E9841C0B210BD5E
:103590001648FFF731FEFA204000FFF793FB022C9C
:1035A00018D0032C0CD00020012CF0D1FA210222DB
:1035B00089000F48FFF720FE431E9841C0B2E6E79E
:1035C000FA21022289000B48FFF716FE431E98419C
:1035D000C0B2DCE7FA21022289000748FFF70CFE9F
:1035E000431E9841C0B2D2E78CF8FF1F9CF8FF1F22
:1035F000ACF8FF1FD4F8FF1FC0F8FF1FF0B5DE4680
:103600004E4657464546FA21E0B5814685B003222D
:1036100049008E48FFF7F0FD0190002800D088E2B5
:103620008B4B8C491800984602F03CF9002809D0D1
:1036300002230193019805B03CBC90469946A246EE
:10364000AB46F0BD454642461E3500234E4602E0DD
:10365000013295420AD011781C0008003038092840
:1036600002D80133DBB231550E2BF1D100227A4959
:10367000F254404602F016F94346C71AFFB23B0027
:1036800042461833DBB2D35CB146412B00D053E243
:103690003B001A33DBB2D05C3E003038FEF798FDB9
:1036A00000226E4BFDF7DAFF3B0042461B33DBB2D4
:1036B0000400D05C0D00FEF78BFD02000B00200023
:1036C0002900FDF7ADF90022654BFEF739FA4346B4
:1036D0001C37FFB202900391D85D1D363038F6B228
:1036E000FEF776FD14E000225C4BFDF7B7FF040007
:1036F00038000D00FEF76CFD02000B0020002900D1
:10370000FDF78EF901360022554BF6B2FEF718FA96
:1037100043469F5D04000D002E2FE4D1B71C0136F7
:10372000F6B2985DFFB23038FEF752FD4D4A4E4B6F
:10373000FDF794FF2B002200FDF772F94346DE5D92
:103740002C2E28D0B246BB4606000F00454C464DF5
:10375000444A454B20002900FDF780FF5B460400EA
:1037600050460D000133DBB230389B46FEF730FD8A
:1037700022002B00FDF772FF02000B003000390021
:10378000FDF74EF943465A469B5C06000F009A46E9
:103790002C2BDDD15F4642467B1CDBB2D35C002480
:1037A0004E2B00D1CBE1314D0022314BFDF754FCC3
:1037B000029A039BFDF734F922002B00FDF74EFF20
:1037C0004B46424618615961FB1CDBB2D05CFE1DC2
:1037D0003038FEF7FDFC0022204BFDF73FFF42464C
:1037E0003B1DDBB20400D05C0D00FEF7F1FC0200D3
:1037F0000B0020002900FDF713F942467B1DDBB2C8
:103800000400D05C0D00FEF7E3FC0022029003915F
:10381000134B20002900FEF793F900220F4BFDF710
:103820001DFF02000B0002980399FDF7F9F8002232
:103830000B4BFEF785F94246BB1DDBB202900391AC
:10384000D05CF6B23038FEF7C3FC28E0E8F8FF1F82
:10385000BCF9FF1F385C0000485C000000002440F9
:10386000000048409A9999999999B93F0000F0BF92
:1038700000004E400022B64BFDF7F0FE0400380079
:103880000D00FEF7A5FC02000B0020002900FDF74B
:10389000C7F801360022AF4BF6B2FEF751F94346A6
:1038A0009F5D04000D002E2FE4D1B71C0136F6B247
:1038B000985DFFB23038FEF78BFCA74AA74BFDF7A7
:1038C000CDFE2B002200FDF7ABF84346DE5D2C2E2B
:1038D00028D0B246BB4606000F009F4C9F4D9E4A23
:1038E0009E4B20002900FDF7B9FE5B4604005046C0
:1038F0000D000133DBB230389B46FEF769FC220035
:103900002B00FDF7ABFE02000B0030003900FDF785
:1039100087F843465A469B5C06000F009A462C2BBC
:10392000DDD15F4643460137FFB2DB5D0024452B06
:1039300000D106E18A4D00228A4BFDF78DFB029AE9
:10394000039BFDF76DF82B002200FDF787FE4B4629
:103950009861D9618449404601F0A4FF002800D154
:10396000F1E04346C61AF6B20236F6B29F5D002475
:1039700000252E2F1CD00022754B20002900FDF7BA
:103980006DFE040038000D00FEF722FC02000B0063
:1039900020002900FDF744F86E4B0022FEF7D0F816
:1039A00043460136F6B29F5D04000D002E2FE2D192
:1039B000B31CDBB29A4643460136F6B2985D303806
:1039C000FEF706FC644A654BFDF748FE22002B001B
:1039D000FDF726F8434652469B5C06000F009B46C7
:1039E0002C2B23D05C4C5D4D5B4A5C4B20002900A6
:1039F000FDF734FE5346040058460D000133DBB298
:103A000030389A46FEF7E4FB22002B00FDF726FE35
:103A100002000B0030003900FDF702F84346524621
:103A20009B5C06000F009B462C2BDDD14F4A504B70
:103A300030003900FDF712FE4B46186259624D49BD
:103A4000404601F02FFF4346C01AFF23C6B218407C
:103A500043461B5C2C2B05D04346013EF6B29B5DD2
:103A60002C2BF9D143460236F6B29F5D0024002587
:103A70002E2F1CD00022364B20002900FDF7EEFD32
:103A8000040038000D00FEF7A3FB02000B0020002D
:103A90002900FCF7C5FF2F4B0022FEF751F84346E3
:103AA0000136F6B29F5D04000D002E2FE2D1B31C4B
:103AB000DBB29A4643460136F6B2985D3038FEF7DF
:103AC00087FB254A254BFDF7C9FD22002B00FCF79B
:103AD000A7FF434652469B5C06000F009B460D2BFA
:103AE00023D01D4C1D4D1C4A1C4B20002900FDF706
:103AF000B5FD5346040058460D000133DBB23038A3
:103B00009A46FEF765FB22002B00FDF7A7FD020099
:103B10000B0030003900FCF783FF434652469B5CA4
:103B200006000F009B460D2BDDD14B469E62DF62E7
:103B300080E5012301937DE5032301937AE50E4D92
:103B400032E60D4DF7E60D49404601F0ABFE08E7C1
:103B500000002440000048409A9999999999B93FEA
:103B60000000F0BF00004E40545C0000ED87331AA7
:103B70005476E03FB85C00000000F03F585C000065
:103B8000F0B5CE46474680B5FFB001AC1500220027
:103B90001E00474B8146884683CB83C203CB03C2BA
:103BA000F0220021520006A801F039FEFA2102227B
:103BB000C9004048FFF720FB0127002805D0380046
:103BC0007FB00CBC90469946F0BD2900200001F062
:103BD0002EFE2000FEF76AFB04223749201801F070
:103BE00015FEFA210222C9002000FFF705FB01376C
:103BF0000028E4D1FA210222C9003048FFF7FCFA7C
:103C000001370028DBD103222D492E48FFF7F4FAB3
:103C100001370028D3D141464846FFF7BBFB0137A7
:103C20000028CCD1032226492748FFF7E5FA0137BF
:103C30000028C4D1F530FF30FFF744F8FA21032201
:103C400049012248FFF7D8FA071E2CD12049214804
:103C500001F028FE827A04001300303B0A34092B5D
:103C600023D8002300E02C0099005B185B009B1810
:103C7000627899B20B001000303B30389BB2651C63
:103C80000928F0D9F018002B0AD03139E21C8BB288
:103C900004341B1911780132317001369342F9D185
:103CA000002303708BE7072789E73000F8E7C04659
:103CB00050590000F4F8FF1F5C5C000030F8FF1F53
:103CC0008813000020F8FF1F14F9FF1F04F9FF1FDD
:103CD000605C0000BCF9FF1F0023FA2170B5214C85
:103CE0000500C373022249002000FFF785FA00286F
:103CF00028D11D4C1D49200001F0D4FD031B0733C2
:103D00009BB2E018027800214F2A10D098B2C72841
:103D100010D80E2914D810003038092802D8481CB1
:103D20006A5481B20133E01802784F2AEED140780C
:103D30004B28EBD100200E238B424041400070BD48
:103D40000020FCE70222C8210948FFF755FAFA21B2
:103D5000022249002000FFF74FFA03000120002B48
:103D6000C7D0ECE750F8FF1FBCF9FF1F6C5C0000E8
:103D700000F8FF1F002370B51D4C0500837302225D
:103D80001C492000FFF738FA002821D11A4C1B49A2
:103D9000200001F087FD0023021B10B2EB73002806
:103DA00014DB03191204013C120C2018801A0E2295
:103DB00002E0013B984209D019780C00303C092CF4
:103DC00002D8541EA95422B2511CF2D1002070BD59
:103DD0000222C8210A48FFF70FFA012205492000F4
:103DE000FFF70AFA03000120002BCFD0EFE7C0460F
:103DF0005CF8FF1F88130000BCF9FF1F24F9FF1FA8
:103E000000F8FF1FE12110B54902012000F010FB6E
:103E1000012000F051FCFA21164C03224900200039
:103E2000FFF7EAF900281DD1FA21032249002000FA
:103E3000FFF7E2F9002801D0012010BDFA2102228B
:103E400049000D48FFF7D8F90028F5D10B48FFF7D6
:103E500043FF0028F0D10A48FFF78CFF0028ECD080
:103E60000220EAE7FFF782F9FA204001FEF72AFF75
:103E7000DAE7C04600F8FF1F08F8FF1F88FAFF1FA7
:103E800098FAFF1F10B582B06B46991C00230B8077
:103E90000B88984212D90024094A0194019B93424D
:103EA00005D8019B01330193019B9342F9D90B88FB
:103EB00001339BB20B800B888342EED302B010BD5E
:103EC000BF120000F0B54F46D6464646C0B5C317F0
:103ED00084B0C418894682465C40002701AE00E0E9
:103EE00047467B1C20000A219846FCF79DFBF519EC
:103EF0003031297020000A21FCF710FB041EEFD19D
:103F00005346002B04DA2D234246B354BB1C98467B
:103F100043464A46013BF15C11700132013BFAD243
:103F200000234A464146535404B01CBC904699466F
:103F3000A246F0BDF0B51D005623C6462B70AE1C40
:103F4000353B140000B50F006B7001000F223000EC
:103F500001F094FC2800230A6B74AC741330220027
:103F6000390001F053FC230013339BB298461E4BDB
:103F70009C4235D0230010339BB203339C46300063
:103F800001261A4B1A4FAC440278534008223100E4
:103F900019405B08002901D07B409BB2013A92B2E4
:103FA000002AF4D101306045EED11A0ADBB2414655
:103FB0006A542200143292B2AB54230053221533B8
:103FC0009BB2EA5423001634A4B22F3A2A55002299
:103FD00017339BB2EA54069A138004BC9046F0BD96
:103FE000FF23FF22E3E7C046EFFF0000FFFF0000D2
:103FF00001A0FFFF002370B52C4C0600A54404ADC2
:104000000C001022002107A804932B71069301F0E5
:1040100006FC0E236B4432002100009324480BABB6
:10402000FFF788FF6B462900D889FFF74BFF06A8EA
:10403000FEF73CF9040006AB0C2218181D4901F0EC
:10404000E5FB06AB20009C460B306044290001F0E4
:10405000FCFB06A8FEF72AF906AB9C460322604447
:10406000154901F0D3FB06A9012000F0D7FA01227F
:1040700012491348FFF7C0F803000120002B03D0BA
:104080008E239B009D4470BD0E4A10700E4A137023
:104090006B460BAAD98900F099FA01220B490C480A
:1040A000FFF7AAF80028EBD00220E9E7C8FDFFFFE0
:1040B00098FAFF1F905C00008C5C0000B80B0000B9
:1040C000BC5C0000B8F9FF1F84FAFF1F70170000E6
:1040D0009C5C0000F0B5DE4657464E464546E0B5CE
:1040E000754B83B01C780A2C0BD8744DA4002C5946
:1040F000A7462C2800D1C7E000221A700022704B7E
:104100001A80300003B03CBC90469946A246AB46AC
:10411000F0BD3A2800D1B4E0694A138899005B18D1
:104120005B00303B18181080EBE7664F644D3C880D
:104130002D88A54200D298E0002C00D18CE0012C03
:1041400000D0A4E0212800D089E0651CADB2A946CA
:104150003D8010555C4882460088834658460028BA
:1041600000D1A2E01630484500DB9EE05748834569
:1041700000D19EE0901C80465846103080B2D41C7E
:104180000419019121001400514D42460126AC460C
:10419000A046504814786040082435000540400887
:1041A000002D02D06546684080B2013CA4B2002CCC
:1041B000F3D101328A42EDD142460199060AC0B2DA
:1041C0004C461419A51E2D78532D50D1013C24784E
:1041D000242C4CD15C461419E57CB54247D1247D92
:1041E000844244D158460138541C80B22418D07CF3
:1041F000107001329442FAD15A4600260A80524683
:104200003E8016801E707CE72B2837D000221A7063
:1042100077E75228FAD102221A7072E74528F5D1C1
:1042200003221A706DE74328F0D104221A7068E760
:104230004528EBD105221A7063E74928E6D106220A
:104240001A705EE75628E1D107221A7059E745280F
:10425000DCD108221A7054E7562800D175E70023F4
:10426000194A3B80138002264BE7174A92460022E8
:1042700051463A800A801A70022642E701221A70DB
:104280003FE70A221A703CE709221A7036E7651CDC
:10429000ADB2A9463D801055132D00D05AE7507C91
:1042A000937C0002084A1B181380002301260B8010
:1042B00027E7FF20FF2683E7A7FAFF1FFC5B00002C
:1042C000ACFAFF1FA8FAFF1FAAFAFF1FEFFF0000BA
:1042D00001A0FFFFFFFF0000F0B5C64600B50E4B82
:1042E00004001B780D001600002B0CD00B4B0C4F5C
:1042F00098461878C8213C540130FCF77FFA4346B1
:10430000197000237B54320029002000FFF7E2FEE1
:1043100004BC9046F0BDC046B8F9FF1F84FAFF1FE9
:10432000BCF9FF1F10B50A00012100F0A7FF10BD66
:1043300010B500F0D1FF10BD10B500F0EDFF10BDBD
:1043400080B584B000AF78607B685A687B680133C1
:1043500006D0FA607B681B6883F30888FB6898477F
:10436000BD4604B080BDC04688220021264B5201C4
:104370009950C021254A89029950802224499200EF
:10438000585802435A50234B9A78120703D50821F4
:104390009A780A439A7080211B4B1C4A4902995013
:1043A0001D4A1E4899580140995019681C480140FF
:1043B000196099581B4808408021490401439950CD
:1043C0000622194B1A7059783A320A405A701F2245
:1043D000D9780A40A0210A43DA70002213490A70F2
:1043E00010211A715A719A791142FCD00C220E498F
:1043F0008B791A42FCD1F8230349054A9B0188585E
:1044000003438B507047C0460070044044100000C6
:104410003810000000D0074004100000FFFFFCFF30
:10442000FFFFF3FFFFFFFFFC004006400050064087
:1044300070B5040002283DD8494B0E011868002CC5
:1044400039D0C022474B9200022C00D17DE01A6087
:104450005A6080234449454A1B018D582B438B5099
:104460000C22FA21424B013CA400E458C900E37835
:104470009343E370FCF752F802004001801A800079
:1044800080183100C000FCF749F81F212278031280
:104490008A430B40134323700023C0B26070A370A3
:1044A000A3716371E2787F3313400C22E370E378E9
:1044B0001343E37070BD80212B4B2E4AC9049D58D5
:1044C0002943995099582C4D2940995080222549CB
:1044D000D2000D6D15430D654D6D15434D65234996
:1044E0005D582A435A500C22FA21244D8900EB785A
:1044F0009343EB70FCF712F802004001801A800031
:1045000080183100C000FCF709F81F212A78031237
:104510008A430B4013432B700F231F22C0B26870D5
:10452000AB72AC70AC712C726C722B791343C022DD
:104530002B716B7913436B717F23EA7813400C2244
:10454000EB70EB781343EB70B4E71A645A64802382
:104550000549064A5B018D582B438B5080E7C046C6
:1045600028F9FF1F00D00440007004403410000000
:10457000C45C000004100000FFFFFEFF00A0064026
:1045800030B50023022815D8431E0D4A9B009C58C5
:104590000C4D0D4B06E02A7952B2002A0CDB013B90
:1045A000002B07D00028F6D0227952B2002AF6DA82
:1045B0000123E171180030BDE9710123FAE7C0461B
:1045C000C45C000000A00640BBFB0000F8B54746F5
:1045D000CE46060080B5884617000020022E16D869
:1045E000002918D04D1EADB20135002402E001347F
:1045F000AC4210D0A3B2395D30009946FFF7C0FF3E
:104600000028F4D14B46424693424041C0B20CBC14
:1046100090469946F8BD0120F9E7C04670B50500FF
:104620000E0002280FD809780024002906D10120A5
:104630000AE00134A4B2315D0029F8D02800FFF768
:104640009FFF0028F5D1002070BDC04670B502283C
:1046500017D8124A431E9B009D58114E114B202221
:1046600005E03479224210D1013B002B12D0002802
:10467000F7D02C792242F7D00123E8790B70C0B231
:1046800070BD002300200B70FAE70123F0790B7056
:10469000C0B2F5E70B70FF20F2E7C046C45C000033
:1046A00000A00640BBFB000003000020022B02D844
:1046B00048424141C8B27047022811D8002810D0A2
:1046C0002021431E0A4A9B009A58D3780B43D3708B
:1046D0001F22084B1B5C1A4001239340064A1360BB
:1046E00070472021054AD3780B43D370F0E7C046CA
:1046F000C45C00002CF9FF1F00E100E000A00640B0
:10470000022812D8002811D02021431E0A4A9B00FB
:104710009A58D3788B43D3701F22084B08491B5CEF
:104720001A400123934080228B5070472021054A74
:10473000D3788B43D370EFE7C45C00002CF9FF1FE4
:1047400000E100E000A0064003000020022B0ED88C
:10475000002B0DD0013B074A9B009B587F22D97844
:104760000A40DA701879DB7818408006C00F70476D
:10477000014BF3E7C45C000000A0064001281AD0FA
:1047800000280CD0022809D10022104B10491A64CD
:104790005A64104A10488B5803408B5070470B4B9B
:1047A0000B491A6D0D481A655A6D5A65094A8B589E
:1047B00003408B50F2E70022044B05491A605A600F
:1047C000044A07488B5803408B50E7E700D0044069
:1047D0000070044034100000FFEFFFFFFFFBFFFFFD
:1047E000FFF7FFFF30B52025254A264BD4582C4330
:1047F000D4508024D558A4002C43D450052806D882
:10480000214A8300D3589F460022204B1A6040243F
:104810001F4B00071A6822431A601A68203C224383
:104820001A601C681B4A22431A6080221C685205C9
:10483000224310241A601A6822431A6080221C68DE
:104840001206224304241A601A6822431A605A6826
:104850001043586080201A6802431A60996030BD86
:1048600000220A4B1A61D2E70022084B5A60CEE7B9
:104870000022064B9A60CAE70022044BDA60C6E7C2
:104880000070044038100000CC5C00000090044030
:1048900000500440004B86004021104B10B51A68B0
:1048A0008A431A6080225968D2030A4304215A605D
:1048B0001A681142FCD01A680A431A6080225868AC
:1048C0001C68120622431A601A6880B211431960EC
:1048D00040211A680A431A6010BDC04600500440C7
:1048E0000904024B084398607047C04600500440DA
:1048F0004021064B10B51A681A200A431A601A683C
:1049000030390A431A60FEF7C1F910BD0050044067
:104910004021064B10B51A681A208A431A601A689B
:1049200030398A431A60FEF7BFF910BD00500440C9
:104930001021054B1A688A431A6080225968D203F5
:104940000A435A607047C04600500440002370B5C7
:104950000C00FA210F4D06002B60AB600E4B890056
:104960001868FBF7DBFD4443002E10D004236C6075
:104970002B60C022094912060B6A1B021B0A134353
:104980000B620321034A13680B43136070BD2409B3
:104990006C60EEE710E000E028F9FF1F00ED00E09A
:1049A000F8B506AC26785C4D5C4C2F5901284FD1E8
:1049B000802000043843285180245948A400046111
:1049C00044618461C461002440255648C470C478A1
:1049D0002C43C470C478012900D18EE080252C437B
:1049E000C4705048002B00D091E00824C378A34342
:1049F000C3704C48C378002E00D084E00424A34345
:104A0000C3700224474BD8782043D8700020987098
:104A1000012903D110209978014399700021414B5D
:104A2000414859701100FBF703FEC0B2C30768D4B8
:104A30000023012201334008DBB20242FAD00138E0
:104A40003A4A0001C0B2507051780B435370F8BD20
:104A50008020C0033843285180243548A4000461D5
:104A600044618461C461002440253048C470C47826
:104A70002C43C470C47801293BD080252C43C470DA
:104A80002A48002B29D00824C3782343C370274821
:104A9000C378002E29D10424A343C3700224234BDE
:104AA000D8782043D87000209870012903D11020B5
:104AB00099780143997000211C4B1B4859701100D3
:104AC000FBF7B6FDC0B2C3071BD40023012201339C
:104AD0004008DBB20242FAD0B1E70824C378A3430E
:104AE000C3701248C378002ED5D004242343C3706A
:104AF000D4E710252C43C470C2E710252C43C470A2
:104B00006FE700239BE704242343C37079E708245D
:104B1000C3782343C3706CE7007004403410000076
:104B200000C0044000700740E02E00000060074015
:104B300000B004400A4B20229C46604400030378E6
:104B40001A42FCD08171074B202102E0013B002B6F
:104B500004D002781142F9D0012070470020FCE710
:104B600076000400F0FF0000094B10B59C4660443D
:104B7000000300290AD02024511803781C42FCD0DD
:104B800013780132837103788A42F6D110BDC04692
:104B900076000400054B9C466044000303785BB23A
:104BA000002BFBDA8079C0B27047C0467600040063
:104BB000094B10B59C4660440003002403E00378D1
:104BC0005BB2002B03DBA142F9D8012010BD837931
:104BD00013550134F7E7C0467600040010B50A30DB
:104BE00040B2FEF753F810BD10B50A3040B2FEF7E0
:104BF0005BF810BD10B501240A4B0B4A000499580C
:104C0000000C2143995080211A68C90211430522E2
:104C10001960064B59681143596098601A6822431D
:104C20001A6010BD007004403810000000000440FD
:104C30008021024A13680B43136070470000044050
:104C40004021044A13680B4313608022024B520533
:104C50001A6070470000044000E100E04021054A6E
:104C600013688B43802113608023034A4905D15088
:104C70007047C0460000044000E100E0F0B5264C5B
:104C800085002C59254E264D002824D140277059E7
:104C90003843705180252348ED008564C5640020A9
:104CA0004025A070A07928431225A071E078284300
:104CB000E070012919D05200D2B222708022A3786C
:104CC0001343A370A378703A9343A370A378103270
:104CD0009343A370F0BD80277059384370518025ED
:104CE0001148AD0045608560D9E7322B0ED008D958
:104CF0004B2B0ED01F2363708022A3781343A37025
:104D0000E8E7192BF6D19F236370F5E75F23637003
:104D1000F2E725236370EFE7E45C000000700440D5
:104D20003410000000D0044000B0044070B51025DD
:104D3000384C800004594900A078022628432025D9
:104D4000A070A0782843A070C8B22071324803E058
:104D5000013880B200285BD0E5782E42F8D00225D9
:104D6000E0782843E070E078C00751D42271022532
:104D7000294A03E0013A92B2002A49D0E07805427C
:104D8000F8D00220E27802431020E270A2780243B9
:104D90000420A270A2780243A27001221143C9B27A
:104DA00021711D4A022003E0013A92B2002A2FD05D
:104DB000E1780842F8D00221E2780A43E270012249
:104DC000E078104024D11021A27802258A430821DE
:104DD000A270A278D2B2A270A2780A43A2702279FD
:104DE0000D4A03E0013A92B2002A11D0E1780D4257
:104DF000F8D00221E2780A432021E270A2788A43A7
:104E0000A270A27810398A43A27022791A7000E049
:104E1000012070BDE45C0000FFFF0000F0B510252C
:104E200005AC2778524C800004594900A07802262E
:104E300028432025A070A0782843A070C8B2207114
:104E40004C4803E0013880B2002869D0E5782E4252
:104E5000F8D00225E0782843E070E078C0075FD4FE
:104E600022710225434A03E0013A92B2002A57D048
:104E7000E0780542F8D00220E27802431020E27088
:104E8000A27802430420A270A2780243A2700122F9
:104E90001143C9B22171374A022003E0013A92B2AC
:104EA000002A3DD0E1780842F8D002210125E278BD
:104EB0000A43E270E278154032D11021A278022034
:104EC0008A43A270A2780839D2B2A270A2788A432B
:104ED000A2702279274A03E0013A92B2002A1FD039
:104EE000E1780842F8D00221E278023F0A43E270FA
:104EF000002F39DD0226022022795A551D4A03E08F
:104F0000013A92B2002A0BD0E1780842F8D0E27858
:104F10003243E2706A1CD2B2BA4203DA1500EBE700
:104F20000120F0BD02359A18EDB20820A1780143A6
:104F3000A1702179022011700E4A03E0013A92B269
:104F4000002AEDD0E1780842F8D00221E2780A4345
:104F50002021E270A2788A43A270A27810398A4395
:104F6000A27022795A55DCE71A000125DDE7C04618
:104F7000E45C0000FFFF0000244B800030B5C45803
:104F80001020A378490003432020A370A378034393
:104F9000A37001231943C9B221711D4B022003E004
:104FA000013B9BB2002B2FD0E1780842F8D00221C0
:104FB000E3780B43E3700123E078184024D11021FB
:104FC000A37802258B430821A370A378DBB2A370DA
:104FD000A3780B43A37023790D4B03E0013B9BB2F5
:104FE000002B11D0E1780D42F8D00221E3780B4379
:104FF0002021E370A3788B43A370A37810398B43EF
:10500000A3702379137000E0012030BDE45C000040
:10501000FFFF0000F0B510253E4C80000459490008
:10502000A07828432025A070A0782843A0700120F4
:105030000143C9B221710225374903E0013989B220
:10504000002940D0E0780542F8D00220E178014301
:10505000E1700121E078084035D11025A1780226C1
:10506000A943A170A178083DC9B2A170A178A94354
:10507000A1702179284903E0013989B2002922D0A1
:10508000E5782E42F8D00225E178023B2943E17011
:10509000002B3CDD022100278C4602262179D155C8
:1050A0001D4903E0013989B2002906D0E5782E4276
:1050B000F8D06546E1782943E170791CC9B299427C
:1050C00003DA0F00EAE70120F0BD02375118FFB202
:1050D0000825A3782B43A370237902250B700E4B70
:1050E00003E0013B9BB2002BEDD0E1780D42F8D0FC
:1050F0000221E3780B432021E370A3788B43A37054
:10510000A37810398B43A3702379D355DCE71100C2
:105110000127DDE7E45C0000FFFF000010B510246C
:105120001B4B8000C05849008378C9B22343202418
:10513000837083782343837002240171154B03E04D
:10514000013B9BB2002B21D0C1780C42F8D0022148
:10515000C3780B43C370C378DB0717D402710D4BC0
:10516000022103E0013B9BB2002B0FD0C278114219
:10517000F8D00222C37813432022C370837893436C
:1051800083708378103A9343837000E0012010BD50
:10519000E45C0000FFFF0000F0B51025214C80000A
:1051A00004594900A078C9B228432025A070A078EE
:1051B0002843A070022521711B4903E0013989B2FF
:1051C00000292CD0E0780542F8D00220E178014394
:1051D000E1700121E078084021D1002B16D0022790
:1051E0000225013B561CDBB2F618137823710E4BD7
:1051F00003E0013B9BB2002B11D0E1780D42F8D0C7
:10520000E37801323B43E370B242EED12022A3782F
:105210009343A370A378103A9343A37000E0012056
:10522000F0BDC046E45C0000FFFF0000022110B5A5
:10523000074B8200D358DA780A434021DA709A7813
:105240000A439A70034B1856FDF720FD10BDC04667
:10525000E45C0000EC5C0000402110B5054B8200CE
:10526000D25893788B439370034B1856FDF71CFD6F
:1052700010BDC046E45C0000EC5C000070B5134B50
:10528000C5B2000A8000C458114BAE00C3589B1928
:105290001868104E3040186080201E68400030436F
:1052A00018600123AB40012903D062699A4362610F
:1052B00070BD616919436161012A03D022689A4374
:1052C0002260F5E7226813432360F1E7F05C0000F9
:1052D000045D0000FFF8FFFF030A084A9B009A588C
:1052E0000123C0B28340012903D0116899431160A2
:1052F000704711680B431360FAE7C046F05C00008A
:10530000030A044A9B009B58C0B21B69C34001209A
:1053100018407047F05C0000030A054A9B009A5849
:105320000123C0B28340D1680B43D3607047C046AD
:10533000F05C0000020AC3B20B48920010584022F1
:105340009B00C01803689343036003683E3A13430D
:1053500003600368012903D001229343036070476F
:1053600019430160FBE7C046045D0000020AC3B2B6
:10537000104810B5940020589B00C0188023046882
:105380005B042343F02403600368090424032140E1
:1053900019430160002A08D0023A012A00D910BD41
:1053A0008022054B12061A60F9E78022024BD205D3
:1053B0001A60F4E7045D000000E100E0020A0E4B11
:1053C0009100CB58C0B28000181803680B490B40FD
:1053D0000360002A09D0023A012A00D970478021CF
:1053E0008023074A0906D150F8E780218023044A28
:1053F000C905D150F2E7C046045D0000FFFFF0FF91
:1054000000E100E0030A044A9B009B58C0B2800000
:10541000C058C001C00F7047045D0000064A030A6F
:105420009B009B58C0B280001818802302685B0460
:10543000134303607047C046045D00000122A023AF
:1054400005495242CA500549CA500549CA50054942
:10545000CA500549CA5070470090044000A004405B
:1054600000B0044000C0044000D00440C2B2084B69
:10547000000A8000C35892009B181A68012903D0C3
:1054800040218A431A6070473F310A431A60FAE7A5
:10549000045D0000064A13785BB2002BFBDA302370
:1054A00013708023034A5B02D1680B43D3607047BB
:1054B00000000240003000F009231D4A8102D37130
:1054C00083041B0E937100238006000E507113712C
:1054D000303313705033137013785BB2002BFBDA48
:1054E0003123107803400120002B1DD11148814247
:1054F00019DC0621D1719371043353710833137190
:10550000F333D37293725372013B1372CE3B137019
:1055100050331370064A13785BB2002BFBDA137812
:1055200031221A4201D1002070470220FCE7C04618
:1055300000000240FF030000F0B5C646012400B59C
:105540008D072DD1194D05348002EC7141181E00D4
:10555000002A24D03020804680203127844608024B
:10556000000EA8710804000E6871C8B22871F078A6
:10557000E872B078A8727078687230782872404605
:105580002870604628702C7864B2002CFBDA2878EA
:10559000074209D104360431F01A9042DFD30024C7
:1055A000200004BC9046F0BD0224F9E70000024050
:1055B00010B5890289181A0000F028F910BDC046FC
:1055C00010B500F023F910BD032302070009181AD3
:1055D000C0B2520F01281AD0002811D0022808D0DA
:1055E000032805D1012191400C48037C8B430374AF
:1055F0007047012191400948437C8B434374F7E78E
:10560000012191400548C37C8B43C374F0E790406F
:1056100002498B7C83438B74EAE7C046000002405A
:1056200000290ED00378FF2B0DD10139013089B24A
:10563000411804E00130431E1B78FF2B03D1884240
:10564000F8D1012070470020FCE7C0461F238021CD
:105650001840054B18601A681142FCD018691A6886
:1056600080B28A431A60704700B0034040211B4B50
:105670001A6A8A431A625A6A35398A435A625A6ADE
:1056800004390A435A625A6A79310A435A621A68DB
:105690001142FCD05A6A52061ED4DA6C986C121869
:1056A000586C1218186C1218D86B1218986B1218C4
:1056B000D2B25208DA62DA6E986E1218586E121868
:1056C000186E1218D86D1218986D1218D2B25208AE
:1056D0001A635A6A8A435A62C046704700B0034050
:1056E000F8B58024294E2A4D240577593C4374513E
:1056F0005D240D2A07D85C3C9440C0252200AD00F3
:1057000051242A4221D00F25224A9460D468AC4308
:10571000D46001282FD01024D068A043D06000228C
:105720000C241C480262426A2243093C2340134372
:10573000436203682022012922D093430360402161
:10574000144A13688B431360F8BDC0252D0108343B
:105750002A42D8D1C024A4012240544262410824E4
:105760000F25524214400B4A55349460D468AC4320
:10577000D4600128CFD11024D0682043D060CEE778
:1057800013430360FFF772FFD9E7C046007004407F
:105790003C10000000B00340084B10B50400002B83
:1057A00002D0002100E000BF054B1868836A002B7F
:1057B00000D09847200000F08FF8C046000000009D
:1057C000185D000070B500260C4D0D4C641BA41034
:1057D000A64209D1002600F0A1FA0A4D0A4C641B2A
:1057E000A410A64205D170BDB300EB58984701360E
:1057F000EEE7B300EB5898470136F2E73C5D000056
:105800003C5D00003C5D0000405D0000002310B5E1
:105810009A4200D110BDCC5CC4540133F8E70300B8
:105820001218934200D1704719700133F9E7020052
:1058300010B51378541C002B05D1CC5CD454013323
:10584000002CFAD110BD2200F3E703000A780131E1
:105850001A700133002AF9D17047002330B59A42FB
:105860000AD0013AC45CCD5CAC4204D1934202D070
:105870000133002CF6D1631B180030BD30B5050094
:10588000002A00D130BD0C78013A6B1C2C7001311C
:10589000002C05D19A189A42F4D01C700133FAE713
:1058A0001D00EDE710B50378002B0FD10B785A429D
:1058B00053415B42184010BD0023CA5C002AFAD055
:1058C000C45C944201D10133F7E701300378002B27
:1058D000F2D11800EFE70000FEE7C0467570646182
:1058E00074650000000000000000000000000000DF
:1058F0001F000000000000003B000000000000004E
:105900005A000000000000007800000000000000C5
:105910009700000000000000B5000000000000003B
:10592000D400000000000000F300000000000000B0
:105930001101000000000000300100000000000024
:105940004E010000000000006D010000000000009A
:1059500041542B48545450504152413D2255524CD1
:10596000222C2200000000000000000000000000C7
:105970000000000000000000000000000000000027
:105980000000000000000000000000000000000017
:105990000000000000000000000000000000000007
:1059A00000000000000000000000000000000000F7
:1059B00000000000000000000000000000000000E7
:1059C00000000000000000000000000000000000D7
:1059D00000000000000000000000000000000000C7
:1059E00000000000000000000000000000000000B7
:1059F00000000000000000000000000000000000A7
:105A00000000000000000000000000000000000096
:105A10000000000000000000000000000000000086
:105A20000000000000000000000000000000000076
:105A30000000000000000000000000000000000066
:105A40000000000000000000000000000000000056
:105A50000000000000000000000000000000000046
:105A60000000000000000000000000000000000036
:105A70000000000000000000000000000000000026
:105A80000000000000000000000000000000000016
:105A90000000000000000000000000000000000006
:105AA00000000000000000000000000000000000F6
:105AB00000000000000000000000000000000000E6
:105AC00000000000000000000000000000000000D6
:105AD00000000000000000000000000000000000C6
:105AE00000000000000000000000000000000000B6
:105AF00000000000000000000000000000000000A6
:105B00000000000000000000000000000000000095
:105B10000000000000000000000000000000000085
:105B20000000000000000000000000000000000075
:105B30000000000000000000000000000000000065
:105B400000000000FC1200006E110000B211000005
:105B500016110000B2110000A2120000B2110000E4
:105B6000161100006E1100006E110000A21200005C
:105B7000161100000E1100000E1100000E110000A1
:105B8000B0120000141800001617000016170000CD
:105B9000341A000010170000101700001C1A000033
:105BA000341A0000101700001C1A00001017000023
:105BB000341A00002A1A00002A1A00002A1A0000CB
:105BC000381A0000656B6168730000007368616BD0
:105BD000653A4745432D36323230000065746164C2
:105BE000707500005374617274205570646174653F
:105BF00000000000757064617465000008420000D8
:105C0000124200001C420000264200003042000008
:105C10003A420000444200004E420000F2400000C0
:105C2000124100002A4100002B4353513A2000004A
:105C30002B434345443A000032303030303130316C
:105C400030303030303000002B475053524D433A03
:105C500000000000452C0000572C0000220D0A0017
:105C60002B48545450524541443A00002B4347536B
:105C70004E3A200041542B43495053544152543D15
:105C800022544350222C2200222C00000D0A000036
:105C900041542B43495053454E443D0053454E44D7
:105CA0000000000041542B434950535441525400CA
:105CB000434F4E4E454354204F4B0000776169746B
:105CC0000000000000B0064000C006400E48000082
:105CD000084800006848000070480000784800004C
:105CE000604800000060064000700640080900009F
:105CF00000F00F4040F00F4080F00F40C0F00F4028
:105D000000F10F400090044000A0044000B00440A7
:105D100000C0044000D0044030F9FF1FF8B5C04671
:105D2000F8BC08BC9E467047F8B5C046F8BC08BC35
:045D30009E467047D4
:085D340024A7FF7F010000001D
:045D3C003904000026
:045D4000110400004A
:1064000042696F732D4B4C333600000056312E30ED
:106410003230313830373134A5240000B92400003F
:10642000C5240000E15600004D56000095540000C0
:10643000B954000039550000B1550000C1550000A5
:10644000C9550000215600007D520000D9520000BD
:106450000153000019530000355300006D53000034
:10646000BD530000055400001D5400003D540000C1
:106470006D5400007D4C00002D4D00001D4E0000AD
:10648000794F0000155000001D5100009951000087
:106490002D52000059520000F54B0000314C000015
:1064A000414C00005D4C0000A1490000354B00004C
:1064B000694B0000954B0000B14B0000DD4B000024
:1064C000E94B0000E547000099480000E148000062
