:1000000000180020E90400002D0500002D05000067
:1000100000000000000000000000000000000000E0
:100020000000000000000000000000002D0500009E
:1000300000000000000000002D050000951F0000DA
:100040002D0500002D0500002D0500002D050000E8
:100050002D0500002D0500002D0500002D050000D8
:100060002D0500002D0500002D0500002D050000C8
:10007000B51F0000F51F0000352000002D05000011
:100080002D0500002D0500002D0500002D050000A8
:100090002D0500002D0500002D0500002D05000098
:1000A0002D0500002D0500002D0500002D05000088
:1000B0002D0500002D0500002D0500002D05000078
:10040000FFFFFFFFFFFFFFFFFFFFFFFFFEFFFFFFFD
:1004100010B5064C2378002B07D1054B002B02D0DA
:10042000044800E000BF0123237010BD98F9FF1FAE
:1004300000000000AC7E000008B5084B002B03D084
:100440000748084900E000BF07480368002B03D0B5
:10045000064B002B00D0984708BDC04600000000A6
:10046000AC7E00009CF9FF1F94F9FF1F0000000004
:10047000164B002B00D1144B9D46402292029A1A33
:10048000924600218B460F461348144A121A07F071
:10049000BCFA0F4B002B00D098470E4B002B00D01E
:1004A00098470020002104000D000D48002802D0CC
:1004B0000C4800E000BF07F079FA2000290001F0A5
:1004C000F1FE07F05DFAC0460000080000180020A9
:1004D000000000000000000098F9FF1FB802002093
:1004E000000000000000000072B605F0EBF962B6F3
:1004F00009490A4A0A4B9B1A03DD043BC858D050ED
:10050000FBDC0849084A521A03DD00208850043AEF
:10051000FCDAFFF7ADFF0000D47E000000F8FF1FFB
:1005200098F9FF1F98F9FF1FB80200200048004704
:100530002D050000002934D00123002210B4884288
:100540002CD301242407A14204D2814202D2090102
:100550001B01F8E7E400A14204D2814202D2490023
:100560005B00F8E7884201D3401A1A434C08A042C6
:1005700002D3001B5C0822438C08A04202D3001B5C
:100580009C082243CC08A04202D3001BDC08224373
:10059000002803D01B0901D00909E3E7101C10BC97
:1005A0007047002801D00020C04307B4024802A1D0
:1005B0004018029003BDC046D90000000029F0D0C9
:1005C00003B5FFF7B9FF0EBC4243891A1847C0466E
:1005D000002941D010B4041C4C40A4460123002241
:1005E000002900D54942002800D5404288422CD33A
:1005F00001242407A14204D2814202D209011B0135
:10060000F8E7E400A14204D2814202D249005B0033
:10061000F8E7884201D3401A1A434C08A04202D39B
:10062000001B5C0822438C08A04202D3001B9C08DC
:100630002243CC08A04202D3001BDC08224300283E
:1006400003D01B0901D00909E3E7101C6446002C04
:1006500000D5404210BC7047002806D003DB0020C4
:10066000C043400801E08020000607B4024802A110
:100670004018029003BDC046190000000029EBD0CD
:1006800003B5FFF7A7FF0EBC4243891A1847C046BF
:100690007047C046F8B55F46564644464D46F0B4EE
:1006A0000C034D00CE0F610A440F2143C400180310
:1006B00080465800400D8246D80F84464046400A86
:1006C000530F0343D0006D0D371C834652466645D9
:1006D00000D1A4E0AF1A002F00DC09E1002A3BD1D1
:1006E000184300D0EAE0630700D187E00F232340DE
:1006F000042B00D182E0221DA242A4416442802347
:1007000009191B040B40371C141C002B00D17CE082
:10071000CE4B01359D4200D105E1CD4BE408194097
:100720004807490204430B0B002000211B031A0B4E
:100730000B0D6D051B0513436A08C64DFF071D40D1
:1007400015436D006D08291C3943201C3CBC9046A4
:100750009946A246AB46F8BDBC488542C3D080202E
:1007600000040343382F00DDF0E01F2F00DD24E1FB
:100770002020C01B1A1C814682405846F840024384
:10078000944658464A469040421E9041FB4062467D
:1007900002431F1CA21A9442A4416442C91B091BB4
:1007A000141C0B029FD549024F0A002F00D1C8E04C
:1007B000381C01F0B7FB021C083A1F2A00DDB5E027
:1007C0002821091A201C9740C840074394409542AD
:1007D00000DDB2E0551B691C1F2900DDDCE01F2293
:1007E000551B3B1C221CAB40CA40AC40651EAC41B3
:1007F0001343CF401C43391C002574E780231B049E
:100800000B40371C002B00D082E7904B4807E408D0
:100810000443C9089D4248D009030B0B84E7AA1A78
:100820009446002A00DC98E05046002852D08748C1
:10083000854200D157E78020000403436246382AEE
:1008400000DDFCE01F2A00DD4AE120226046101A8C
:100850001A1C82408246914658466246D0404A461B
:1008600002439046584652469040421E90414246AE
:1008700002436046C3401219A242A441644259187F
:100880000919141C080200D42DE7704B01359D4254
:1008900000D122E16E4B60081940012323401C1C4B
:1008A0000443CB071C4349081DE7231C0B433AD0E4
:1008B00080231B030B431B031B0B35E7013F002F5A
:1008C00065D15846221A9442A4416442C91A091BB0
:1008D000141C66E75846184300D104E7012252422F
:1008E00094446046002800D0C5E058460219C3E78A
:1008F000002F73D1681C4005400D012800DCDEE0AC
:100900005A46A21A9442BF41C81A7F42C71B3802F6
:1009100000D489E05A46141BA3459241591A524209
:100920008F1A664641E700230024FDE6271C28387D
:1009300087400024954200DC4CE74549AD1A394018
:10094000D1E6201C01F0EEFA203034E75A461A4373
:10095000531E9A41D2B200271CE7002A00D0DCE0E7
:10096000681C4205520D012A00DC8DE0374DA8427B
:1009700000D1F3E05D462A19A242A441644259180D
:100980000919CC07520814434908051CABE62F4847
:10099000854200D0E6E6A6E62B1C1F3B3A1CDA4057
:1009A000131C20296CD03F22551BAF403C43601ED6
:1009B00084411C430021002595E6381C20381A1C70
:1009C000C240101C202F5DD04022D71BBB405A468E
:1009D0001A43531E9A4102430027DBE6002D3BD009
:1009E0001A4DAA4500D193E080252D047F4229436A
:1009F000382F00DDACE01F2F00DD29E12025ED1BA5
:100A0000081C261CA840FE40AC400643651EAC41B5
:100A10003443F9405D462C1BA34592415B1A524278
:100A2000991A55466646BCE6131C3B43141C002B22
:100A300000D0BAE60027002100250024E5E65A464A
:100A40001A43531E9A41D2B2002314E7FF07000055
:100A5000FFFF7FFFFFFF0F800D1C254358D0FF4392
:100A6000002F51D1041BA3459241591A5242891AB1
:100A70005546664695E69648854200D0DEE632E663
:100A8000002793E70023A2E7081C2043002D00D095
:100A9000C4E0002800D1F7E05846184300D122E610
:100AA00058460219A242A441644259180919141C5B
:100AB0000A0200D417E6874B0125194013E6081CEB
:100AC0002043002D39D1002871D15946194303D054
:100AD000191C5C46664606E600270021002494E6C1
:100AE000604620381A1CC24060469146202800D13A
:100AF000ACE04022121A93405A461A43531E9A41C0
:100B00004B461A430023B6E6714DAA4500D06FE765
:100B1000191C5C4655466646E5E5002D22D10D1CA4
:100B2000254377D0D543002D71D15C445C4592417B
:100B30005918524289185546A4E600284DD1594605
:100B4000194300D194E0191C5C466646604DCAE525
:100B50000C43611E8C41E4B200215BE7051C0021BF
:100B6000002452E65A4DAA4554D055428022100422
:100B70000143382D00DD81E01F2D00DD92E02022B1
:100B8000501B0A1C84468240201CE84002439046C9
:100B900062469440601E844142461443E9405C44EE
:100BA0005C459241CB185242991855466AE6584620
:100BB000184300D197E55846271ABC429241C81AFB
:100BC0005242801A020266D55846041BA345924140
:100BD000591A5242891A664685E55846184333D059
:100BE0004807E40804438020C9080003014208D0F4
:100BF000DD08054205D15946CA085C071443291C83
:100C00006646630FC9001943E400314D6BE5304A75
:100C10009245AED1191C5C46554664E5002836D095
:100C20005846184310D080254807E408C9082D030A
:100C300004432942E5D0D8082842E2D15D46EA08BB
:100C40005C071443011CDCE7214D4CE5002353E70E
:100C50003D1C203D0A1CEA40151C202F34D04026A4
:100C6000F71BB9400C43611E8C412C430021D1E697
:100C700080210027C903164D0024C6E50C43611EE0
:100C80008C41E4B200218AE7191C5C462BE5191C53
:100C90005C460F4D27E5031C3B4300D11CE7011CBC
:100CA0003C1C20E52020404240190A1CC2409046CE
:100CB000202D0BD04020451BA9400C43611E8C41C8
:100CC00045462C4300216AE70021CBE70021F4E7E9
:100CD000FF070000FFFF7FFFF0B5564644465F4622
:100CE0004D46F0B41F1C0B031B0B98464B0087B0FE
:100CF000041C81465B0DC80F161C9A460090002B01
:100D000051D06A4B9A4531D08022414652030A4362
:100D1000630FD2001A43664B90460025E2009146CD
:100D20009A44002402953B031B0B9B46FD0F7B005E
:100D3000311C5B0D019560D05C4A934254D08021F8
:100D4000584649030143720FC9001143584A8B4664
:100D50009B18F1000020009A04436A4003920F2C74
:100D600000D9ADE0534EA4003459A7464046044391
:100D70006ED1002102250824884689460295D2E7D3
:100D8000009C0298C34649460194022864D0032877
:100D900000D1ABE2012800D038E2019A00240240E1
:100DA0000025A14660E0434623434AD04046002840
:100DB00000D1C0E101F0B6F8031E272B00DDB3E13E
:100DC00028210D1A211C083B4246E9409A400D1C7F
:100DD0001543221C9A40A8469146374B00251B1A02
:100DE0009A46002402959EE75A4616430320002E99
:100DF000B1D1B34600210220ADE75A4632431BD0A1
:100E00005B46002B00D18AE1584601F08BF8272879
:100E100000DD7DE12822171A011C321C08395B46CF
:100E2000FA408B40171C1F43331C8B40BB46191CD8
:100E3000214B1B1A00208EE70027BB460021012012
:100E400089E70020012504248046814602956AE74F
:100E500003250C24029566E7019C0394039D01225F
:100E60002A400024114DA146002000212403260B16
:100E70000C0D2405114B34432D0523402B435B00FF
:100E80005B08D207191C4846114307B03CBC90468A
:100E90009946A246AB46F0BD002280242403914629
:100EA000024DE1E700240025A146DDE7FF07000031
:100EB00001FCFFFF987D00000DFCFFFFFFFF0F808E
:100EC0005546ED1A0495D84500D953E100D14EE1BD
:100ED000049C0025013C4E4604944746A9465846CA
:100EE00003020C0E1C430902250C23041B0C009169
:100EF000381C291C0193FFF71DFB019983464143D0
:100F0000381C8A46291CFFF759FB330C0904194386
:100F10008A450CD95B460919013B8C4200D947E14F
:100F20008A4500D844E102225242934409195346AB
:100F3000CB1A181C291C9846FFF7FCFA071C0198CD
:100F4000291C784382464046FFF738FB36040B04E1
:100F5000360C33439A4509D91B197A1E9C4200D995
:100F600024E19A4500D821E1023F1B195E46320474
:100F70001743380CBB46009E009F51463F0C32047D
:100F80005B1A5946BA46120C0F043F0C9046514664
:100F90007A434F434146414356467043CF19160C9E
:100FA000BE19B14202D980277F02C019310C120448
:100FB0003604120C4018B618834200D2C4E000D1A7
:100FC000BEE0191A4846861BB145BF417F42CF1B80
:100FD000A74200D113E1291C381CFFF7ABFA019995
:100FE00002904143381C8946291CFFF7E7FA330C6D
:100FF0000904194389450CD9029B0919013B8C420C
:1010000000D9FFE0894500D8FCE0029F0919023FA2
:1010100002974F46CF1B381C291C0597FFF78AFA09
:10102000071C0198291C784381460598FFF7C6FAEA
:1010300036040904360C0E43B14509D936197B1E16
:10104000B44200D9E0E0B14500D8DDE0023F3619F6
:10105000029D4946761A290439430B0457460A0C67
:101060001B0C40464546584355437B437A43EB1897
:10107000070CDB199D4202D980256D0252191D0C07
:1010800000041B04000C52191B18964235D300D1E2
:10109000FCE001231943049E994FF519002D00DC53
:1010A000A1E0480709D00F230B40042B05D00B1DEE
:1010B0008B42894149428B44191C5A46D20107D5BB
:1010C000904B5C46049E80271C40FF00A346F51908
:1010D0008D4B9D427ADD039C0122224000248B4DE2
:1010E000A146C1E680242403474627424CD13C4315
:1010F0002403240B009A854DB6E63619481EB442E7
:101100005ED9011C9642C4D1009E9E42C1D1C2E765
:10111000031C283B311C99408B46002188E6301C7B
:1011200000F000FF203072E6283B211C994000228D
:101130008846914651E6201C00F0F4FE20303BE644
:101140000021B14500D33DE7009F5A46B944B94557
:10115000BF417F423F19FB18013A9C421ED2984280
:1011600000D97EE000D1B5E0191A93462AE78945F7
:1011700000D8ADE64846464642467708D3074608BB
:10118000C0071E438146AAE65846204212D10443B6
:1011900024032A1C240B89465C4D65E6A342E3D157
:1011A000009F4F45DBD9211A93460BE7171CDDE65C
:1011B0009B46BCE63C432403240B009A534D53E664
:1011C000B24259D800D18AE0011C62E75F46C908E3
:1011D0007B07039E0B437C026D0501229946240B7D
:1011E0006D0D324040E64A4B049FDB1B382B10DD6F
:1011F000039C0122224000240025A14634E601215F
:10120000494248E7029304E71F1C21E7019C03942D
:1012100041E71F2B40DC3F48049F0C1C3A185846FE
:101220009140DC40904020430A1C511E8A41011C21
:1012300011435A46DA40131C480709D00F220A40CE
:10124000042A05D00A1D8A42894149425B18111CB3
:101250001A0234D5039C0122224000240125A14614
:1012600002E6009F02214942B9448B44B9458941B5
:1012700049420919CB18A4E6009D881E6900A942BD
:10128000AD416D422C19361900913AE7002B00D080
:1012900033E70024009437E71F4A049C5D46121B85
:1012A000D5402A1C202B1FD01C4E5F46A3199F40FF
:1012B0003B1C19434B1E994111430023BCE75A07BD
:1012C000C9080A43039F91465B0201221C0B3A4066
:1012D0000025C9E54E45C4D89346002172E6009F1B
:1012E0009F42C9D3011C0FE70023E2E780242403B7
:1012F0005F463C432403240B019A8946034DB3E522
:10130000FF030000FFFFFFFEFE070000FF070000D5
:1013100002FCFFFF1E040000E2FBFFFF3E04000092
:10132000F0B5564644465F464D46F0B41F1C0B03CD
:101330001B0B9A464B0087B0041C80465B0DC80F00
:10134000161C02938146002B68D0694B0299994282
:1013500032D08022534652031A43D200630F1A43FD
:101360009246644AE00089188046029100240025D4
:101370003B031B0B9B467800FB0F321C400D039375
:1013800000D175E05A4B984269D0802259465203E9
:101390000A43730FD2001A43564B9346C018F2000B
:1013A000002303994E4671401C430F2C00D9A9E03D
:1013B000514EA4003459A74653461C4300D087E041
:1013C0000025AA46A84608240225D1E74946022D51
:1013D0006CD0032D00D117E2012D00D058E10D4053
:1013E000EDB20024A9460023A046002000212503D9
:1013F0000A0D1C052D0B1205404B2A4313402343B5
:101400005B004C465B08E207191C4046114307B0DD
:101410003CBC90469946A246AB46F0BD534623439A
:1014200050D05346002B00D184E1504600F07AFDA5
:10143000031E272B00DD76E128210D1A211C083B15
:101440005246E9409A400D1C1543221C9A40AA4678
:1014500090462B4B00241B1A0293002588E75B461D
:101460001E430323002E9CD1B3460022022398E79B
:101470005B46334321D05846002800D14EE100F0AE
:1014800051FD272800DD42E128210F1A021C311CE2
:10149000083A5B46F94093400F1C1F43331C9340AE
:1014A000BB461A1C164B181A00237AE701230B407F
:1014B00000249946A0460E4B97E70027BB46002222
:1014C00001236EE7002104248A46884601254FE760
:1014D0000C2403254CE700258024A9462403A846B4
:1014E000034B82E7DA46904603991D1C6FE7C0461E
:1014F000FF07000001FCFFFFD87D0000FFFF0F8009
:101500000DFCFFFF029F160C381804904046070C94
:101510000004000C1204120C031C5343041C3D1C59
:101520007443554398463B1C73436419A446444690
:101530000293230C63449D4204D9029D80246402DB
:101540002D1902951D0C039545462C041B04240CF3
:101550001C1905945C46230C051C58432404240CD8
:101560008446381C604365435F438146CC44280C65
:101570006044BB46814502D980277F02BB442D04CD
:10158000070C2D0C000440195546BC462F04E344BB
:101590008446280C3D0C2F1C5743B8462F1C77431C
:1015A0004243B94647463F0C9144BA46D14446436C
:1015B0004A4502D980225202B6184F463A0CB61854
:1015C0003A0447463F043F0CB8462F1C67435D432F
:1015D0004443584365190190380C2D184244B846CD
:1015E000AC4204D9019880235B02C0180190039C8F
:1015F000029F201C6044C0196045A44147466442D4
:10160000A4462B043C049946240C4C44A046D844E0
:101610008018C246E2449042924157465242914657
:10162000F219E245BF417F424B46BC46D845BF4117
:10163000D4187F4263461F432D0C7F19B24292415A
:101640004C45AD4152426D421543019E7D19AB1987
:10165000E20D5B02059F134342023A439A46531E32
:101660009A41C30D101C1843640220438046504623
:10167000C0010DD5454601225646049C6B082A4000
:101680001A43F30701341A43760804949046B2468D
:10169000049E634FF319002B61DD404640070BD0D9
:1016A0000F2244462240042A06D0424604324245D4
:1016B00080414042824490465546ED0107D5594B42
:1016C0005646049F80201E40C000B2463B18564A32
:1016D000934200DDEAE644465546E20868071043B7
:1016E00001226C025B050A408046240B5B0D91468B
:1016F0007BE6DA4690461D1C69E6802424035746A3
:1017000027421CD13C432403240B484B6DE6031CA9
:10171000283B311C99408B460022C3E6301C00F068
:1017200001FC2030ADE6283B211C994000228A466E
:1017300090468EE6201C00F0F5FB203078E65846F7
:10174000204207D1044303992403240B8946904681
:10175000364B4AE63C432403240B344B45E6344BDA
:10176000049E9B1B382B06DD01230B400024994669
:10177000A046002339E61F2B25DC049C2D4D464650
:101780006019524644468640DC4082405746301C31
:101790002243DF40441EA04102433B1C540709D0B2
:1017A0000F201040042805D0101D90429241524253
:1017B0009B18021C1D021AD501230B4000249946D8
:1017C000A046012311E61C48049C5546001BC54059
:1017D000281C202B16D0194E5746A21997403A1CA8
:1017E00043461A43531E9A4102430023D6E7580743
:1017F0005B02D2081C0B01230B4010439946804624
:101800000023F2E50022EBE7802424035046012365
:10181000044319402403240B8946044BE5E5C046E4
:10182000FF030000FFFFFFFEFE070000FF070000B0
:1018300002FCFFFF1E040000E2FBFFFF3E0400006D
:10184000F8B55F46564644464D46F0B40C034D008D
:10185000CF0F610A440F2143C4001803DE0F8046F6
:10186000B44646465800760A530F3343D600D14A51
:101870006D0DBA46400DB346904200D1F5E0624688
:10188000012672409446674500D1ABE02F1A002F25
:1018900000DC11E100283ED15846184300D0F1E0A9
:1018A000600700D197E00F232340042B00D122E1F1
:1018B000221DA242A4416442802309191B0401276E
:1018C00050460B400740141C002B00D179E0B94B67
:1018D00001359D4200D10BE1B74BE40819404807A0
:1018E000490204430B0B002000211B031A0B0B0DB4
:1018F0006D051B0513436A08B04DFF071D401543D6
:101900006D006D08291C3943201C3CBC904699464B
:10191000A246AB46F8BDA7488542C1D0802000044E
:101920000343382F00DDFDE01F2F00DD31E12020D3
:10193000C01B1A1C5E468240FE40324394465A4603
:101940008240101C421E9041FB40624602431F1C15
:10195000A21A9442A4416442C91B091B141C0A0226
:101960009ED549024F0A002F00D1D6E0381C00F066
:10197000D9FA021C083A1F2A00DDC3E02821231CE3
:10198000091A9740CB401F439440954200DDC0E0C8
:10199000551B691C1F2900DDEAE01F22551B3B1C5B
:1019A000221CAB40CA40AC40651EAC411343CF4043
:1019B0001C43391C002573E780217E4D0027C90395
:1019C00000247C4B4807E4080443C9089D4250D0DA
:1019D00009030B0B87E780231B04012752460B40AA
:1019E000174071E72A1A9446002A00DCA1E000287B
:1019F00054D07048854200D152E780200004034350
:101A00006046382800DD0EE11F2800DD57E1624600
:101A10002020801A1E1C8640B1465E46D6404A46AB
:101A200032435E4686409046301C421E90414246FC
:101A300002436046C3401219A242A44164425918AD
:101A40000919141C080200D42AE75A4B01359D429B
:101A500000D131E1584B60081940012323401C1C80
:101A60000443CB071C4349081AE71E4300D00AE78A
:101A700005E7231C0B433BD080231B030B431B03B5
:101A80001B0B30E7013F002F6DD15E46A21B944235
:101A9000A4416442C91A091B141C60E75846184344
:101AA00000D1FDE601267642B4446046002800D00D
:101AB000D0E05E463219BFE7002F00D080E0681CFE
:101AC0004005400D012800DCE8E05A46A21A944285
:101AD000BF41C81A7F42C71B3E0200D498E0584657
:101AE000041BA3459241591A52428F1AE2463AE723
:101AF00000230024F7E680231B04012756460B40F1
:101B00003740E1E6271C283887400024954200DC56
:101B10003EE72949AD1A3940C2E6201C00F002FA1E
:101B2000203026E75A461A43531E9A41D2B2002764
:101B30000EE7002A00D0DEE0681C4605760D012E77
:101B400000DC90E01B4DA84200D1F5E05E46321962
:101B5000A242A441644259180919CC0752081443FF
:101B60004908051C9CE61348854200D0D9E697E653
:101B70002B1C1F3B3E1CDE40331C20296FD03F2214
:101B8000551BAF403C43601E84411C43002100258F
:101B900086E6381C20381E1CC640301C202F60D022
:101BA0004022D71BBB405A461A43531E9A41024358
:101BB0000027CDE6FF070000FFFF7FFFFFFF0F803C
:101BC000002D37D0B64DA84200D18FE080252D04DE
:101BD0007F422943382F00DDA8E01F2F00DD24E1DC
:101BE0002025ED1B0E1CAE40B046261CFE40424692
:101BF000AC401643651EAC413443F9405A46141BB1
:101C0000A34592415B1A5242991A051CE246A6E688
:101C1000131C3B43141C002B00D0A4E6002700211A
:101C200000250024CDE65A461A43531E9A41D2B2EB
:101C3000002300E70D1C254358D0FF43002F51D14E
:101C40005A46141BA3459241591A5242891A051C3F
:101C5000E24684E69248854200D0D1E620E600279D
:101C600090E700239FE7081C2043002D00D0C2E02E
:101C7000002800D1EFE05846184300D110E658463E
:101C80000219A242A441644259180919141C0A02FB
:101C900000D405E6834B0125194001E6081C2043CA
:101CA000002D38D100286FD15946194303D0191C93
:101CB0005C46E246F4E500270021002481E6604608
:101CC00020381A1CC2406646101C202E00D1AAE003
:101CD0004022921B93405A461A43531E9A41024394
:101CE0000023A8E66E4DA84200D073E7191C5C469D
:101CF000051CE246D4E5002D22D10D1C254376D0EB
:101D0000D543002D70D15C445C4592415918524234
:101D10008918051C96E600284CD15946194300D174
:101D20004AE6191C5C46E2465D4DB9E50C43611E6E
:101D30008C41E4B2002161E7051C0021002440E64B
:101D4000574DA84253D05542802216043143382DB6
:101D50007BDC1F2D00DD8CE02022561B0A1CB446C4
:101D6000B240261CEE403243904662469440661EC6
:101D7000B44142461443E9405C445C459241CB186F
:101D800052429918051C5DE65846184300D187E574
:101D90005E46A71BBC429241C81A5242801A0602F4
:101DA00060D55846041BA3459241591A5242891ADC
:101DB000E24675E55846184333D04807E408044323
:101DC0008020C9080003014208D0DD08054205D182
:101DD0005946CA085C071443291CE246630FC90030
:101DE0001943E4002E4D5BE52D4A9042AFD1191CFA
:101DF0005C46051C54E5002830D05846184310D0E6
:101E000080254807E408C9082D0304432942E5D08A
:101E1000D8082842E2D15D46EA085C071443011C59
:101E2000DCE71F4D3CE5002355E73D1C203D0E1C23
:101E3000EE40351C202F2ED04026F71BB9400C4316
:101E4000611E8C412C430021D8E60C43611E8C415D
:101E5000E4B2002190E7191C5C4621E5191C5C46A0
:101E60000F4D1DE5031C3B4300D124E7011C3C1C26
:101E700016E52026764276190A1CF2409046202D5F
:101E80000BD04026751BA9400C43611E8C41454672
:101E90002C43002170E70021D1E70021F4E7C04680
:101EA000FF070000FFFF7FFFF8B5041E31D0C70F0A
:101EB00000D04442201C00F035F8184D2D1A0A2895
:101EC00019DD0B38844024036D05240B6D0D3A1C7D
:101ED0000026002000210B0D2403240B1B052343A7
:101EE0000F4C2D051C402C4364006408D307211CB3
:101EF000301C1943F8BD061C1536231CB3401E1CAC
:101F00000B23181AC44024036D05240B6D0D3A1CD5
:101F1000DFE70022002500240026DAE71E04000087
:101F2000FFFF0F801C2101231B04984201D3000CEA
:101F300010391B0A984201D3000A08391B0998423C
:101F400001D30009043902A2105C40187047C04652
:101F50000403020201010101000000000000000072
:101F600002780B7801300131002A01D09A42F7D073
:101F7000D01A704780B500AFBFF34F8F034B044AB0
:101F8000DA60BFF34F8FC046FDE7C04600ED00E0CA
:101F90000400FA0590B500AF054B19685A68012393
:101FA00000245B185441024A13605460BD4690BD42
:101FB0003800002090B583B000AF72B6002004F066
:101FC000A1F8031C002B11D0FC1DBB1D0020191C07
:101FD00003F06AFF031C2370BB1D1B78002B05D088
:101FE000FB1D1B780020191C03F082FE62B6BD4663
:101FF00003B090BD90B583B000AF72B6012004F07D
:1020000081F8031C002B11D0FC1DBB1D0120191CE5
:1020100003F04AFF031C2370BB1D1B78002B05D067
:10202000FB1D1B780120191C03F062FE62B6BD4641
:1020300003B090BD90B583B000AF72B6022004F03B
:1020400061F8031C002B58D0BC1D7B1D0220191CFD
:1020500003F02AFF031C23707B1D1B78002B4CD040
:10206000FB1D06221A700DE0FB1D1B78FA1D12786D
:10207000013A2449895C234AD154FB1D1A78FB1D7F
:10208000013A1A70FB1D1B78002BEDD11D4BBA1DB8
:1020900012781A701B4A1C4B101C191C052205F0E3
:1020A000D0FC031C002B05D1184B0220191C03F097
:1020B000B9FE13E0134A164B101C191C062205F03A
:1020C000C0FC031C002B09D18A235A00114B2B2082
:1020D000111C062205F078F9FFF74CFFBB1D19789B
:1020E0000D4A0E4B081C111C1A1C00F01BF8031C97
:1020F000002B02D10A4B02221A7062B6BD4603B011
:1021000090BDC046B4F9FF1FCC7A0000D47A00001D
:10211000DC7A0000E47A000038FEFF1F4000002057
:102120004200002080B586B000AFB9607A603B1CE9
:102130000F33021C1A703B1C173301221A70574BC5
:102140001B88012B1FD002DC002B05D061E0022B85
:1021500033D0032B46D05CE03B1C0F331B78502B55
:1021600010D14E4B1B885A1C91B24C4A1180BA6850
:10217000D3183A1C0F3212781A703B1C1733012205
:102180001A7083E082E03B1C0F331B78502B0CD17C
:10219000424B1B885A1C91B2404A1180BA68D3182E
:1021A0003A1C0F3212781A7070E03C4B00221A80F1
:1021B0003B1C173302221A7068E0384B1B885A1CEC
:1021C00091B2364A1180BA68D3183A1C0F3212788D
:1021D0001A703B1C0F331B789BB21B029AB2304B18
:1021E0001A8053E02D4B1B885A1C91B22B4A118048
:1021F000BA68D3183A1C0F3212781A703B1C0F338E
:102200001B789AB2264B1B88D3189AB2244B1A809B
:102210003CE0224B1B885A1C91B2204A1180BA68BC
:10222000D3183A1C0F3212781A701D4B1A881B4BA8
:102230001B889A4229D11A4B1B88023BBA68D318D3
:102240001B78432B16D1164B1B88013BBA68D31859
:102250001B78432B0ED13B1C173300221A70104BF6
:102260001A887B681A800D4B00221A800C4B0022C2
:102270001A800AE03B1C173303221A70074B002216
:102280001A80074B00221A80FFE7C0463B1C173319
:102290001B78181CBD4606B080BDC046BCF9FF1FA8
:1022A000BEF9FF1F90B55D4CA54400AF72B69623F2
:1022B0009B010220191C03F0CDFBFA239B00002098
:1022C000191C04F081F905F015F80C20012103F028
:1022D000A9FA2C2000F022FC514B00221A70514B1D
:1022E00000221A80504A0023002413605460002307
:1022F00082208000C0190360022003F087FE62B6CE
:1023000000F0AEF8464B1B78012B12D0022B19D0EF
:10231000002B00D066E000F0DDF80C20012103F076
:1023200097FA72B6B0231B02181C03F0B3FA62B618
:1023300073E03E4B0220191C03F074FD384B0A2257
:102340001A706AE0374B1B88394ABC18394A101C8E
:10235000191C00F08FFC031C237035483B181B78B8
:10236000012B59D002DC002B05D013E0032B07D042
:10237000042B0AD00EE0304ABB1804221A700EE07B
:102380002D483B1805221A7009E02B4ABB1806227B
:102390001A7004E028483B1807221A70C046244AE5
:1023A000BB181B78062B03D11D4B00221A7034E09A
:1023B00021483B1819783A1D812080003B18081CE1
:1023C000111C1A1C00F0D4FB81229200BB181A8841
:1023D0003B1D0220111C1A1C03F0DEFC104B0A22CC
:1023E0001A701AE082208000C0190368013382222B
:1023F0009200D219136082239B00DB191A680F4BDD
:102400009A4208D9002382208000C01903600C2062
:1024100003F032FA01E000E0C04673E7ECFDFFFF95
:10242000420000204000002038000020EC7A00002C
:102430000702000038FEFF1F0F020000FFFF05002B
:1024400090B583B000AF7860044B5C681B687A6815
:1024500013605460BD4603B090BDC04638000020F4
:1024600080B584B000AF3B1D181C2C210022042332
:1024700005F00EF87A68144B9A4203D0134B0A22E7
:102480001A701EE03A1C08328A235B00101C2B21B4
:102490001A1C062304F0FCFF3B1C083300229A712F
:1024A0003A1C08320A4B101C191CFFF759FD031C7B
:1024B000002B03D0054B00221A7002E0034B0122CF
:1024C0001A70BD4604B080BD0018002042000020F4
:1024D000FC7A000080B5C6B000AFFE4AFE4B8C20EF
:1024E0004000C019C3181A60FC4AFB4B8C214900FC
:1024F000C919CB185A60FA4AF74B8C204000C01912
:10250000C3189A60F74AF44B8C214900C919CB18BB
:10251000DA60F54AF04B8C204000C019C3181A61EC
:10252000F24AED4B8C214900C919CB185A61F04A87
:10253000E94B8C204000C019C3189A61ED4AE64B64
:102540008C214900C919CB18DA61EB4AE24B8C2087
:102550004000C019C3181A62E84ADF4B8C214900B9
:10256000C919CB185A62E64ADB4B8C204000C019CF
:10257000C3189A62E34AD84B8C214900C919CB1879
:10258000DA62E14AD44B8C204000C019C3181A63A8
:10259000DE4AD14B8C214900C919CB189A63DC4A19
:1025A000CD4B8C204000C019C3185A63D94ACA4B7E
:1025B0008C214900C919CB18DA63D74AC64B8C2045
:1025C0004000C019C3181A64D44AC34B8C21490077
:1025D000C919CB185A64D24ABF4B8C204000C0198D
:1025E000C3189A64CF4ABC4B8C214900C919CB1837
:1025F000DA64CD4AB84B8C204000C019C3181A6564
:10260000CA4AB54B8C214900C919CB185A65C84A2A
:10261000B14B8C204000C019C3189A65C54AAE4B17
:102620008C214900C919CB18DA65C34AAA4B8C2002
:102630004000C019C3181A66C04AA74B8C21490034
:10264000C919CB185A66BE4AA34B8C204000C0194A
:10265000C3189A66BB4AA04B8C214900C919CB18F4
:10266000DA66B94A9C4B8C204000C019C3181A671F
:10267000B64A994B8C214900C919CB185A67B44AFC
:10268000954B8C204000C019C3189A67B14A924BF1
:102690008C214900C919CB18DA67AF498E4B8C20C1
:1026A0004000C019C2188023D150AC498A4B8C20FD
:1026B0004000C019C2188423D150A949864B8C20F0
:1026C0004000C019C2188823D150A649824B8C20E3
:1026D0004000C019C2188C23D150A3497E4B8C20D6
:1026E0004000C019C2189023D150A0497A4B8C20C9
:1026F0004000C019C2189423D1509D49764B8C20BC
:102700004000C019C2189823D1509A49724B8C20AE
:102710004000C019C2189C23D15097496E4B8C20A1
:102720004000C019C218A023D15094496A4B8C2094
:102730004000C019C218A423D1509149664B8C2087
:102740004000C019C218A823D1508E49624B8C207A
:102750004000C019C218AC23D1508B495E4B8C206D
:102760004000C019C218B023D15088495A4B8C2060
:102770004000C019C218B423D1508549564B8C2053
:102780004000C019C218B823D1508249524B8C2046
:102790004000C019C218BC23D1507F494E4B8C2039
:1027A0004000C019C218C023D1507C494A4B8C202C
:1027B0004000C019C218C423D1507949464B8C201F
:1027C0004000C019C218C823D1507649424B8C2012
:1027D0004000C019C218CC23D15073493E4B8C2005
:1027E0004000C019C218D023D15070493A4B8C20F8
:1027F0004000C019C218D423D1506D49364B8C20EB
:102800004000C019C218D823D1506A49324B8C20DD
:102810004000C019C218DC23D15067492E4B8C20D0
:102820004000C019C218E023D15064492A4B8C20C3
:102830004000C019C218E423D1506149264B8C20B6
:102840004000C019C218E823D1505E49224B8C20A9
:102850004000C019C218EC23D1505B491E4B8C209C
:102860004000C019C218F023D15058491A4B8C208F
:102870004000C019C218F423D1505549164B8C2082
:102880004000C019C218F823D1505249124B8C2075
:102890004000C019C218FC23D1504F490E4B8C2068
:1028A0004000C019C21880235B00D1504B490A4B2D
:1028B0008C204000C019C21882235B00D1504849C7
:1028C000054B8C204000C019C21884235B00D150F6
:1028D00088E0C04641240000ECFEFFFFBD7600000A
:1028E000D5770000F572000029730000C97300005D
:1028F00091740000D974000005750000097600008D
:10290000216D0000096E0000896E0000316F00002B
:10291000DD6E000005700000B97000003D71000020
:1029200095710000F5710000317200000D6C00001F
:10293000716C0000896C0000A96C000089660000C1
:10294000016A0000716A0000D16A00000D6B00008E
:102950006D6B0000916B0000B9620000BD63000068
:10296000356400006964000095640000C1640000E3
:10297000555A0000F15C0000995D0000255E0000E2
:10298000A95E0000715F00000D600000896000001A
:1029900005610000ED61000055340000FD340000C9
:1029A000B9350000D5330000CD3500006137000097
:1029B000A5370000ED370000313800002D3B000046
:1029C000793900008D4F0000453B0000153C0000A8
:1029D000AD3E000089510000213F0000B13F0000E2
:1029E000594600000F49104B8C204000C019C218F6
:1029F00086235B00D1500D490B4B8C204000C01941
:102A0000C21888235B00D1502B2004F08DFC8A2350
:102A10005A003B1D2B20002104F0D6FCBD4646B0D9
:102A200080BDC046A9400000ECFEFFFFC948000081
:102A300080B582B000AF021CFB1D1A70064BFA1D58
:102A40001278111C1F220A400121081C9040021C10
:102A50001A60BD4602B080BD00E100E080B582B0E2
:102A600000AF021CFB1D1A70064AFB1D1B78191CC7
:102A70001F230B40012199408023D150BD4602B055
:102A800080BDC04600E100E080B582B000AF021C0E
:102A9000FB1D1A70FB1D1B785BB2202B02DDFB1D9A
:102AA00020221A70FB1D1B785BB2181CFFF7C0FFB9
:102AB000BD4602B080BDC04680B582B000AF021CEA
:102AC000FB1D1A70FB1D1B785BB2202B02DDFB1D6A
:102AD00020221A70FB1D1B785BB2181CFFF7BEFF8B
:102AE000BD4602B080BDC04680B584B000AF021CB8
:102AF000BB1D1A800023FB6003E0C046FB68013366
:102B0000FB60BB1D1B889622520153431A1CFB68B5
:102B10009A42F2D8BD4604B080BDC04680B584B0AC
:102B200000AF021CFB1D1A703B1C0F3300221A70F1
:102B30000CE03B1C0F331B780B4A0021D1543B1C8B
:102B40000F331A783B1C0F3301321A703B1C0F33C2
:102B50001B78312BEDD9054BFA1D12781A70181C11
:102B6000BD4604B080BDC04644000020780000206F
:102B700090B53B4CA54402AFB9607A60394B8222D4
:102B80009200D219D318021C1A70374ABB180022BF
:102B90001A70344B82229200D219D3181B78052B5D
:102BA00016D0062B2AD0042B3AD181229200BB18D2
:102BB000F32252001A8081229200BB181B88391C14
:102BC00010312A4A081C111C1A1C04F015FF2CE0B5
:102BD000264B00225A8081229200BB18F322520019
:102BE0001A8081229200BB181B88391C10311F4AA1
:102BF000081C111C1A1C04F0FFFE16E08122920032
:102C0000BB1853221A8081229200BB181B88391CE2
:102C10001031174A081C111C1A1C04F0EDFE04E0C8
:102C2000114ABB1801221A7010E00E4B822292004A
:102C3000D219D3181878391C103181229200BB1890
:102C40001A88BB687C68009400F0FAF9064ABB1841
:102C50001B78181CBD4683239B009D4490BDC04635
:102C6000ECFDFFFF07FEFFFF07020000D000002081
:102C70007C00002090B5B74CA54400AFF8650A1C55
:102C8000B54B9E208000C019C3181A80B3497B1829
:102C900000221A70F86DB24AB9183A1C68323B1C0F
:102CA000663300F081FA031C002B04D0AB4C3B19B7
:102CB00001221A7045E1AA483B181B78012B62D00B
:102CC00002DC002B07D037E1022B00D1F4E0032B0C
:102CD00000D12CE130E1A3497B18A34A12781A7085
:102CE00010E0A04ABB181B789BB2181C04F01CFB18
:102CF0003220FFF7F9FE9B4C3B191A7899483B1894
:102D000001321A7097497B181B783F2BE9D9954AF5
:102D1000BB1800221A700CE0924C3B191B78934AA6
:102D20000021D1548F483B181A788E497B18013204
:102D30001A708C4ABB181B78312BEDD98C4B9E2412
:102D4000A400E419E3181A88F3235B009A4219D10E
:102D5000874B9E208000C019C3181B8885493A1CE8
:102D60006832081C111C1A1C04F046FE814B1A889C
:102D7000814B1A807F4B5B887C4A101C191C00F029
:102D800009FBDEE0DDE07A4B9E218900C919CB18F2
:102D90001A88F3235B009A4200D087E0744B9E228E
:102DA0009200D219D3181B8872493A1C6832081C49
:102DB000111C1A1C04F020FE6E4B1A886E4B1B88E7
:102DC0009A4204D0654C3B1903221A70B9E0694B52
:102DD0001B79012B6FD19D2080003B1800221A80A7
:102DE00060497B1800221A7051E05E4ABB181B78BC
:102DF0005A00624C3B195F4952008A18D2881A80E7
:102E000058483B181B785B005A1C9C2189007B1892
:102E1000584952008A18D2881A80594ABB18574C10
:102E20003A191288920A1A809B2080003B18534955
:102E30007A1812889205920D1A809D229200BB1872
:102E40001B881A1C50324B4BD31806334C4C3A1982
:102E500010889B2189007A1811889C24A4003A19B3
:102E6000128804F0B1FA9D2080003B189D22920048
:102E7000B9189C24A4003A19098812888A181A8063
:102E800038483B181A7837497B1801321A70394B89
:102E90005B79344C3A1912789A42A6D3354B5B8849
:102EA000324A101C191C00F075FA4AE02B483B18F6
:102EB00002221A7045E044E02D4B9E218900C91979
:102EC000CB181A88F3235B009A422FD1284B9E22FD
:102ED0009200D219D3181B8826493A1C6832081C64
:102EE000111C1A1C04F088FD224B5B881F4A101C21
:102EF000191C00F04FFA234C3B1C181C00F046F83C
:102F0000214B9E208000C019C318211C1A1C53237A
:102F1000081C111C1A1C04F06FFD1A4B9B78002B27
:102F200004D00E497B1804221A700AE009E00B4A0B
:102F3000BB1806221A7004E0084C3B1905221A70CF
:102F4000C04606483B181B78181CBD469F239B00B3
:102F50009D4490BD84FDFFFFE2FDFFFF760200006F
:102F60006B0200007702000078000020440000207F
:102F7000EEFDFFFFD000002076000020720200006E
:102F80006E0200007C00002088FDFFFFF0B599B0C4
:102F900000AF78603B1C083300229A703B1C5E3304
:102FA00000221A8031E0244A3B1C5E331B88101C2F
:102FB000191C00F0FFF9031C002B1FD13B1C083328
:102FC0009B783A1C08325B00391C5E310C78D018B3
:102FD000C678002535402C43C4704878D318197939
:102FE00000220A40111C021C0A431A713B1C0833C0
:102FF0009B780133DAB23B1C08339A703B1C5E337A
:103000001A883B1C5E3301321A803B1C5E331A88DF
:103010000A4B1B88013B9A42C5DB7A683B1C08338C
:10302000111C1A1C5323081C111C1A1C04F0E4FC6C
:103030007868BD4619B0F0BD44000020760000203D
:1030400090B587B000AFB9607B603B1C0F33011CAB
:1030500019703B1C0C331A803B1C163300221A805B
:103060003B1C16331B883A1C1632591C11807A6897
:10307000D31850221A703B1C16331B883A1C163288
:10308000591C11807A68D31850221A703B1C1633D1
:103090001B883A1C1632591C11807A68D3183A1CC6
:1030A0000C32128809321212D2B21A703B1C16333B
:1030B0001B883A1C1632591C11807A68D3183A1CA6
:1030C0000C321288D2B20932D2B21A703B1C1633BB
:1030D0001B883A1C1632591C11807A68D3183A1C86
:1030E0000F3212781A703B1C16331B887A68D1187D
:1030F0003B1C0C331B88BA68081C111C1A1C04F0FA
:103100007BFC3B1C1633391C16313A1C0C320988E7
:1031100012888A181A803C1C1434BA683B1C0C3381
:103120001B88101C191C00F0D1F8031C23803B1CC9
:1031300016331B883A1C1632591C11807A68D31832
:103140003A1C14321288120A92B2D2B21A703B1C84
:1031500016331B883A1C1632591C11807A68D31812
:103160003A1C14321288D2B21A703B1C16331B88D8
:103170003A1C1632591C11807A68D31843221A70EF
:103180003B1C16331B883A1C1632591C11807A6876
:10319000D31843221A70BB6A3A1C163212881A805E
:1031A000BD4607B090BDC04690B587B000AFF8608F
:1031B000B9607A603B603B1C173300221A70FB68D1
:1031C0001B78502B04D1FB6801331B78502B04D0A3
:1031D0003B1C173301221A7071E0FB6802331B7825
:1031E0001B029AB2FB6803331B7813439AB23B1C51
:1031F00014331A80FB681A79BB681A703B1C1433AD
:103200001B88093B9AB23B681A80FB685A1D3B68D1
:103210001B883C1C1234101C191C00F057F8031CAE
:1032200023803B1C12331B881B0A9BB2DAB23B1C67
:1032300010331A703B1C12331B88DAB23B1C10335C
:103240005A703B1C10331A783B1C14331B88043B08
:10325000F968CB181B789A420BD13B1C10335A7873
:103260003B1C14331B88033BF968CB181B789A422C
:1032700004D03B1C173302221A7020E03B1C14338D
:103280001B88023BFA68D3181B78432B08D13B1CE0
:1032900014331B88013BFA68D3181B78432B04D0E6
:1032A0003B1C173303221A7009E0FB685A1D3B6868
:1032B0001B887968081C111C1A1C04F09DFB3B1C20
:1032C00017331B78181CBD4607B090BD80B584B07D
:1032D00000AF78600A1CBB1C1A803B1C0A33012219
:1032E00052421A803B1C0E3300221A8041E03B1CE4
:1032F0000E331B887A68D3181B78191C3B1C0A33C1
:103300003A1C0A3212884A401A803B1C0C330022B5
:103310001A8022E03B1C08333A1C0A321188012231
:103320000A401A803B1C0A333A1C0A32128852089F
:103330001A803B1C08331B88002B07D03B1C0A3328
:103340003A1C0A32128812494A401A803B1C0C333C
:103350001A883B1C0C3301321A803B1C0C331B882F
:10336000072BD7D93B1C0E331A883B1C0E33013276
:103370001A803A1C0E32BB1C12881B889A42B6D3A4
:103380003B1C0A331B88181CBD4604B080BDC046D8
:1033900001A0FFFF80B582B000AF78600A1CBB1CA3
:1033A0001A80BB1C1B887A68D31801221A70BD468C
:1033B00002B080BD80B582B000AF78600A1CBB1C33
:1033C0001A80BB1C1B887A68D3181B78181CBD4652
:1033D00002B080BD80B582B000AF021CFB1D1A7028
:1033E000FB1D1B78012B0AD0022B14D0002B29D1F6
:1033F000174B181C0121002203F092FC22E0144B11
:10340000181C0121012203F08BFCFA231B01181C5C
:10341000FFF76AFB16E00E4B181C0121002203F097
:103420007FFCFA23DB00181CFFF75EFB084B181C1F
:103430000121012203F074FCFA231B01181CFFF781
:1034400053FBC0460023181CBD4602B080BDC046D9
:103450001604000090B587B000AFF860B9607A60DC
:103460003C1C163400F04AF8031C23703B1C163336
:103470001B78002B06D03B1C17333A1C16321278EF
:103480001A7030E0FA681B4B111C1A1C0F23081C21
:10349000111C1A1C04F0B0FAFB681A1C0F32164BF0
:1034A000111C1A1C0F23081C111C1A1C04F0A4FA6E
:1034B0003C1C1634BA687B68101C191C01F066FDB0
:1034C000031C23703B1C16331B78002B07D03B1CBE
:1034D00017333A1C163212780A321A7003E03B1C7A
:1034E000173300221A703B1C17331B78181CBD467B
:1034F00007B090BD20FEFF1F10FEFF1F80B582B0F9
:1035000000AFE1235B020120191C02F0A3FA0120A5
:1035100002F07CFD244B181C6421042201F0F8FA0F
:10352000031C002B02D00220FFF754FF1E4B181C77
:103530006421042201F0ECFA031C002B04D0C046E5
:10354000FB1D01221A7029E0184B181CC821032208
:1035500001F0DEFA031C002B04D0C046FB1D032241
:103560001A701BE0124B181C01F0D2FB031C002B3D
:1035700004D0C046FB1D04221A700FE00D4B181C2E
:1035800001F070FC031C002B04D0C046FB1D05227B
:103590001A7003E0FB1D00221A70C046FB1D1B7849
:1035A000181CBD4602B080BD08F8FF1F74F8FF1F4D
:1035B00020FEFF1F10FEFF1F80B500AF012002F0AC
:1035C00063FD0020FFF706FFBD4680BD90B5554C5A
:1035D000A54402AF021C3960534B8C21C900C919A4
:1035E000CB181A808B22D200BB1800221A6000224E
:1035F0001A714E497B1800221A6000225A6000227C
:103600009A600022DA6000221A6149483968464B04
:103610008C22D200D219D3181A883B1C10333C1CC0
:103620000E34009401F02EFE424B8C21C900C919C2
:10363000CB181B881A1C8B21C9007B18101C191C65
:1036400001F0CEFD394ABB18181C04F0F3F9031C35
:1036500036497A18D218384B111C1A1C0C23081C36
:10366000111C1A1C04F0C8F9304BFA188B21C90040
:103670007B18101C191C04F0D0F92C4ABB18181C1C
:1036800004F0D8F9031C29497A18D2182B4B111CC5
:103690001A1C0323081C111C1A1C04F0ADF9234A40
:1036A000BB180120191C02F0BDFB254A254B101C3C
:1036B000191C012201F02CFA031C002B04D0224912
:1036C0007B1801221A7025E0204B01221A70204B32
:1036D00000221A70174B8C22D200D219D3181A88E4
:1036E0003B1C10330120111C1A1C02F055FB194A17
:1036F000194B101C191C012201F00AFA031C002BA3
:1037000004D011497B1802221A7003E00E4ABB183C
:1037100000221A700C497B181B78181CBD460F4BF1
:103720009D4490BD94FBFFFFA6FBFFFF44040000F7
:1037300010FEFF1FAEFBFFFF047B0000107B0000AC
:10374000147B0000B80B00005F0400000DFEFF1F9B
:103750000CFEFF1F1C7B00007017000064040000BB
:1037600080B584B000AF78600023FB600AE0FB689E
:103770007A68D3180A49FA688A1812781A70FB68AE
:103780000133FB60FB680E2B05DC054AFB68D31890
:103790001B78002BEBD10023181CBD4604B080BD64
:1037A00020FEFF1F80B584B000AF78600023FB606F
:1037B0000AE0FB687A68D3180A49FA688A1812780E
:1037C0001A70FB680133FB60FB680E2B05DC064AB0
:1037D000FB68D3181B78002BEBD10023181CBD46C7
:1037E00004B080BD10FEFF1F20FEFF1F80B584B017
:1037F00000AF78603B1C0F3300221A700DE03B1CB9
:103800000F331B787A68D31800221A703B1C0F33D1
:103810001A783B1C0F3301321A703B1C0F331B7894
:10382000182BECD90023181CBD4604B080BDC0463F
:1038300080B584B000AF78603B1C0E3300221A7054
:1038400077E0494B181CC821032201F061F9031CE1
:10385000002B04D03B1C0D3301221A707CE0434A3C
:10386000434B101C191C04F016F9031C1A1C3F4B87
:10387000D21A3B1C0F331A703B1C0F333A1C0F3209
:10388000127805321A707B6800221A7026E03B1C01
:103890000F331B78354AD35C2F2B18D93B1C0F33C1
:1038A0001B78324AD35C392B11D87B681B781A1CE1
:1038B0009200D318DB18DAB23B1C0F331B782B496C
:1038C000CB5CD318DBB2303BDAB27B681A703B1C9E
:1038D0000F331A783B1C0F3301321A703B1C0F3325
:1038E0001B78224AD35C2C2B06D0224B1B783A1C27
:1038F0000F3212789A42CAD37B681B78002B0CD007
:103900007B681B7864225343181C1F21FCF760FE60
:10391000031CDAB27B681A7010E0FA239B00181CB3
:10392000FFF7E2F83B1C0E331A783B1C0E330132D2
:103930001A703B1C0E331B78022B82D93B1C0E33B2
:103940001B78032B04D13B1C0D3301221A7003E0BA
:103950003B1C0D3300221A703B1C0D331B78181CC6
:10396000BD4604B080BDC0468CF8FF1FC0F9FF1FE4
:10397000247B00000CFEFF1F80B584B000AF786090
:103980003B1C0F3300221A700DE03B1C0F331B78D9
:103990007A68D31800221A703B1C0F331A783B1C2C
:1039A0000F3301321A703B1C0F331B780F2BECD9ED
:1039B0005A4B181CC821012201F0AAF8031C002B45
:1039C00015D0574AFA235B00101C191C022201F083
:1039D0009FF8524B181CC821012201F099F8031CD2
:1039E000002B04D03B1C0D3301221A708FE04D4A8E
:1039F0004D4B101C191C04F04EF8031C1A1C494BAB
:103A0000D21A3B1C0F331A7006E03B1C0F331A7896
:103A10003B1C0F33013A1A703B1C0F331B78414A91
:103A2000D35C0D2BF1D03B1C0F331B783D4AD35C8C
:103A30000A2BEAD03B1C0F331B783A4AD35C2F2B5E
:103A400006D93B1C0F331B78364AD35C392BDCD9A3
:103A50003B1C0F331B78334AD35C2E2BD5D03B1C39
:103A60000E3300221A7035E03B1C0F331B782D4AB1
:103A7000D35C2F2B06D93B1C0F331B78294AD35C10
:103A8000392B06D93B1C0F331B78264AD35C2E2BCF
:103A900013D13B1C0E331B783A1C0E32591C11708B
:103AA0007A68D2183B1C0F331B78391C0F31581C15
:103AB00008701C49CB5C13700CE03B1C0F331A7868
:103AC0003B1C0F3301321A703B1C0E333A1C0E3272
:103AD00012781A703B1C0F331B78124AD35C4F2BA1
:103AE00007D03B1C0F331B7801330E4AD35C4B2BA2
:103AF000BAD13B1C0E331B78002B04D13B1C0D3379
:103B000002221A7003E03B1C0D3300221A703B1C8A
:103B10000D331B78181CBD4604B080BD4CF8FF1F48
:103B20003CF8FF1FC0F9FF1F20F9FF1F80B582B0CE
:103B300000AF78607B6800221A600023181CBD4625
:103B400002B080BD80B586B000AF78602E4B181CE7
:103B5000C821032200F0DCFF031C002B04D03B1C17
:103B60000F3301221A7048E0284A294B101C191CF7
:103B700003F091FF031C3B613B6906333B613B1C37
:103B8000163300221A703B1C173300221A7019E0FA
:103B90003B691B782C2B06D13B1C17331A783B1C36
:103BA000173301321A703B1C16331B783A1C16323D
:103BB000591C11707A68D3183A6912781A703B69E7
:103BC00001333B613B1C17331B78042BE0D93B1CB2
:103BD00016331B78002B04D13B1C0F3302221A70C2
:103BE0000BE03B1C16331B78013B7A68D31800228C
:103BF0001A703B1C0F3300221A703B1C0F331B78CA
:103C0000181CBD4606B080BD7CF8FF1FC0F9FF1F21
:103C10002C7B0000B0B5974CA54400AFF860B960AC
:103C20007A603B60944B84208000C019C118934A8D
:103C30000B1C31CA31C330CA30C30A1C1432F02302
:103C40005B00101C00211A1C03F0DFFE83208000A3
:103C50003B1800221A808A4AFA23DB00101C191C28
:103C6000022200F055FF031C002B04D085497B186D
:103C700001221A70F4E03A1C10327B68101C191CE7
:103C800003F0CBFE3B1C1033181C03F0D3FE031CC7
:103C90003A1C1032D2187C4B111C1A1C0423081C2D
:103CA000111C1A1C03F0A8FE3A1C1032FA23DB0088
:103CB000101C191C022200F02BFF031C002B04D047
:103CC000704ABB1802221A70CAE0704AFA23DB005D
:103CD000101C191C022200F01BFF031C002B04D037
:103CE000684C3B1903221A70BAE0694A694B101CF0
:103CF000191C032200F00CFF031C002B04D0614DA3
:103D00007B1904221A70ABE0FA68BB68101C191CFE
:103D100001F03CF9031C002B04D05A483B18052243
:103D20001A709DE05C4A5B4B101C191C032200F0CA
:103D3000EFFE031C002B04D052497B1806221A7098
:103D40008EE0FA235B00181CFEF7CEFE534AFA23DE
:103D50005B01101C191C032200F0DAFE031C002B6F
:103D600004D0484ABB1807221A7079E04C4A4D4BE0
:103D7000101C191C03F08FFE031C8124A400E419FD
:103D800023608125AD00ED192B680A338120800066
:103D9000C01903601DE0832189007B181B881A1C51
:103DA0009200D318DB189AB28124A400E419236886
:103DB0001B78D3189AB28325AD007B19303A1A804C
:103DC00081208000C0190368013381218900C9194D
:103DD0000B6081229200D21913681B782F2B06D911
:103DE0008124A400E41923681B78392BD3D98125B9
:103DF000AD00ED192B68023381208000C0190360EB
:103E000029497B1800221A8015E0274ABB181B8815
:103E10003A68D318244C3A1912888125AD00ED195F
:103E200029688A1812781A701F483B181A881E4988
:103E30007B1801321A801C4BFA188324A4003B190A
:103E400012881B889A42E0D38325AD007B191B881A
:103E50003A68D31800221A700A483B1800221A70D8
:103E600008497B181B78181CBD4684239B009D4481
:103E7000B0BDC046F0FDFFFF00FEFFFF447B000029
:103E800098F8FF1F0F020000347B00001CF8FF1F92
:103E90003CF8FF1F88130000A8F8FF1FB8F8FF1FA9
:103EA000C0F9FF1F387B00000A02000080B584B013
:103EB00000AFB9607A603B1C0F33021C1A70144BC0
:103EC0001B78002B16D0134B1B78134A391C0F316B
:103ED0000978D1540F4B1B780133181C0F49FCF79C
:103EE000CDFB0B1CDAB20B4B1A700A4B1B780A4A3B
:103EF0000021D1543B1C0F331978BA687B68081C29
:103F0000111C1A1C01F0CEFABD4604B080BDC0469B
:103F10000DFEFF1F0CFEFF1FC0F9FF1F4C04000029
:103F200080B582B000AF021CFB1D1A701C4AFA2338
:103F30009B00101C191C022200F0EAFD031C002B40
:103F400000D028E0FA235B00181CFEF7CDFDFB1D16
:103F50001B78022B0DD0032B14D0012B00D01AE0BC
:103F6000104AFA235B00101C191C022200F0D0FD3D
:103F700011E00D4AFA235B00101C191C022200F00C
:103F8000C7FD08E0094AFA235B00101C191C022235
:103F900000F0BEFDC046C046BD4602B080BDC04672
:103FA000C8F8FF1FE4F8FF1FF8F8FF1F0CF9FF1F08
:103FB00080B584B000AF7860374AFA235B00101CEC
:103FC000191C022200F0A4FD031C002B12D00420B7
:103FD000FFF7A6FF304AFA235B00101C191C0322CE
:103FE00000F096FD031C002B04D03B1C0D33012276
:103FF0001A7049E0294A2A4B101C191C03F04BFD8A
:10400000031C002B04D03B1C0D3302221A703BE032
:104010003B1C0F3300221A703B1C0E3300221A7017
:1040200024E03B1C0E331B781C4AD35C2F2B16D983
:104030003B1C0E331B78194AD35C392B0FD83B1C21
:104040000F331B783A1C0F32591C11707A68D31841
:104050003A1C0E32127811498A5CD2B21A703B1C9B
:104060000E331A783B1C0E3301321A703B1C0F338F
:104070001B780D2B04D83B1C0E331B781D2BD0D97D
:104080003B1C0D3300221A703B1C0D331B78181C8F
:10409000BD4604B080BDC046D8F8FF1FC0F9FF1F61
:1040A000387D000000000000F0B58DB000AF7860F2
:1040B0003960A34AFA235B00101C191C022200F08D
:1040C00027FD031C002B12D00420FFF729FF9C4A78
:1040D000FA235B00101C191C032200F019FD031CBD
:1040E000002B04D03B1C2E3301221A7091E2954A1A
:1040F000954B101C191C03F0CEFC031C1A1C914B91
:10410000D21A3B1C2F331A703B1C2F333A1C2F3210
:10411000127818321A703B1C2F331B78894AD35CF3
:10412000412B04D03B1C2E3302221A7071E23B1C3F
:104130002F333A1C2F32127802321A703B1C2F3365
:104140001B783A1C2F32591C11707E4AD35C303BCD
:10415000181CFDF7A9FE031C0C1CBB60FC60B868B2
:10416000F968704B6E4AFDF7DBF8031C0C1C1D1C34
:10417000261C3B1C2F331B783A1C2F32591C117004
:10418000704AD35C181CFDF78FFE031C0C1C281C06
:10419000311C1A1C231CFCF77DFA031C0C1C181C78
:1041A000211C614A614BFDF74BFB031C0C1CBB60DF
:1041B000FC603B1C2F331B783A1C2F32591C1170AA
:1041C000604AD35C303B181CFDF76EFE031C0C1CD0
:1041D0003B627C6229E0386A796A524B504AFDF7AB
:1041E0009FF8031C0C1C1D1C261C3B1C2F331B782A
:1041F0003A1C2F32591C1170524AD35C181CFDF71F
:1042000053FE031C0C1C281C311C1A1C231CFCF71D
:1042100041FA031C0C1C181C211C434A434BFDF79C
:104220000FFB031C0C1C3B627C623B1C2F331B7876
:10423000444AD35C2E2BCED13B1C2F331A783B1C27
:104240002F3301321A703A4B3A4CBB61FC613B1C74
:104250002F331B783A1C2F32591C1170394AD35C0A
:10426000303B181CFDF720FE031C0C1C181C211CE5
:10427000BA69FB69FDF754F8031C0C1C386A796AAB
:104280001A1C231CFCF706FA031C0C1C3B627C6204
:104290002AE0B869F969264A264BFDF741F8031C64
:1042A0000C1CBB61FC613B1C2F331B783A1C2F326A
:1042B000591C1170234AD35C303B181CFDF7F4FDE8
:1042C000031C0C1C181C211CBA69FB69FDF728F89B
:1042D000031C0C1C386A796A1A1C231CFCF7DAF9D7
:1042E000031C0C1C3B627C623B1C2F331B78154A61
:1042F000D35C2C2BCDD13B1C2F331A783B1C2F3396
:1043000001321A703B1C2F331B780E4AD35C4E2BA4
:104310001CD1094B094C3B617C611BE0C046C04687
:1043200000000000000024400000000000004840A1
:104330009A9999999999B93F000000000000F03FBF
:10434000D8F8FF1FC0F9FF1F487D0000B54CB44BE3
:104350003B617C61386A796AB34AB44BFCF7BCFCB8
:10436000031C0C1C181C211CBA68FB68FCF792F992
:10437000031C0C1C181C211C3A697B69FCF7D0FF3C
:10438000031C0C1C7A68136054603B1C2F333A1CCE
:104390002F32127802321A703B1C2F331B783A1CD2
:1043A0002F32591C1170AA4AD35C303B181CFDF700
:1043B0007BFD031C0C1CBB60FC60B868F9689C4A60
:1043C0009C4BFCF7ADFF031C0C1C1D1C261C3B1C4E
:1043D0002F331B783A1C2F32591C11709C4AD35C26
:1043E000181CFDF761FD031C0C1C281C311C1A1C39
:1043F000231CFCF74FF9031C0C1C181C211C8E4AB3
:104400008E4BFDF71DFA031C0C1CBB60FC60B868EA
:10441000F968874A874BFCF783FF031C0C1C1D1CA3
:10442000261C3B1C2F331B783A1C2F32591C117051
:10443000874AD35C181CFDF737FD031C0C1C281C95
:10444000311C1A1C231CFCF725F9031C0C1C181C1E
:10445000211C794A794BFDF7F3F9031C0C1CBB6056
:10446000FC603B1C2F331B783A1C2F32591C1170F7
:10447000774AD35C303B181CFDF716FD031C0C1C5F
:104480003B627C6229E0386A796A694A694BFCF7C9
:1044900047FF031C0C1C1D1C261C3B1C2F331B78C8
:1044A0003A1C2F32591C1170694AD35C181CFDF755
:1044B000FBFC031C0C1C281C311C1A1C231CFCF7C5
:1044C000E9F8031C0C1C181C211C5B4A5B4BFDF714
:1044D000B7F9031C0C1C3B627C623B1C2F331B781E
:1044E0005B4AD35C2E2BCED13B1C2F331A783B1C5E
:1044F0002F3301321A70524B524CBB61FC613B1C92
:104500002F331B783A1C2F32591C1170504AD35C40
:10451000303B181CFDF7C8FC031C0C1C181C211C8C
:10452000BA69FB69FCF7FCFE031C0C1C386A796A4B
:104530001A1C231CFCF7AEF8031C0C1C3B627C62AB
:104540002AE0B869F9693E4A3E4BFCF7E9FE031CD4
:104550000C1CBB61FC613B1C2F331B783A1C2F32B7
:10456000591C11703A4AD35C303B181CFDF79CFC77
:10457000031C0C1C181C211CBA69FB69FCF7D0FE3B
:10458000031C0C1C386A796A1A1C231CFCF782F87D
:10459000031C0C1C3B627C623B1C2F331B782C4A97
:1045A000D35C2C2BCDD13B1C2F331A783B1C2F33E3
:1045B00001321A703B1C2F331B78254AD35C452BE4
:1045C00004D1214B214C3B617C6103E0154C144B21
:1045D0003B617C61386A796A134A144BFCF77CFBB7
:1045E000031C0C1C181C211CBA68FB68FCF752F851
:1045F000031C0C1C181C211C3A697B69FCF790FEFB
:10460000031C0C1C3A68136054603B1C2E330022C0
:104610001A703B1C2E331B78181CBD460DB0F0BD24
:10462000000000000000F0BF0000000000004E404D
:10463000000000000000244000000000000048408E
:104640009A9999999999B93F000000000000F03FAC
:10465000C0F9FF1FC046C046F0B589B000AF786012
:10466000934AFA235B00101C191C022200F050FA36
:10467000031C002B12D00420FFF752FC8C4AFA23B3
:104680005B00101C191C032200F042FA031C002BD3
:1046900004D03B1C1E3301221A70EEE0854A864B83
:1046A000101C191C03F0F7F9031C1A1C814BD21AB9
:1046B0003B1C1F331A703B1C1F333A1C1F321278ED
:1046C00018321A703B1C1F331B787A4AD35C412B7B
:1046D00004D03B1C1E3302221A70CEE0754A774B81
:1046E000101C191C03F0D7F9031C002B0DD0714AC4
:1046F000724B101C191C03F0CEF9031C1A1C6D4BD5
:10470000D21A3B1C1F331A700CE06A4A6C4B101C07
:10471000191C03F0C0F9031C1A1C664BD21A3B1C6F
:104720001F331A703B1C1F333A1C1F32127802329F
:104730001A70564C544B3B617C6129E038697969A9
:10474000534A544BFCF7ECFD031C0C1C1D1C261C8F
:104750003B1C1F331B783A1C1F32591C1170554AE1
:10476000D35C181CFDF7A0FB031C0C1C281C311C7F
:104770001A1C231CFBF78EFF031C0C1C181C211C8D
:10478000454A464BFDF75CF8031C0C1C3B617C6101
:104790003B1C1F331B78474AD35C2E2BCED13B1CCE
:1047A0001F331A783B1C1F3301321A703C4B3D4CAF
:1047B000BB60FC603B1C1F331B783A1C1F32591C2A
:1047C00011703C4AD35C303B181CFDF76DFB031C99
:1047D0000C1C181C211CBA68FB68FCF7A1FD031C0B
:1047E0000C1C386979691A1C231CFBF753FF031C46
:1047F0000C1C3B617C612AE0B868F968284A294BA7
:10480000FCF78EFD031C0C1CBB60FC603B1C1F33C3
:104810001B783A1C1F32591C1170264AD35C303B5E
:10482000181CFDF741FB031C0C1C181C211CBA684A
:10483000FB68FCF775FD031C0C1C386979691A1CB0
:10484000231CFBF727FF031C0C1C3B617C613B1CFA
:104850001F331B78174AD35C2C2BCDD1386979696B
:10486000114A124BFCF75CFD031C0C1C7A681360A8
:1048700054603B1C1E3300221A703B1C1E331B78F5
:10488000181CBD4609B0F0BD00000000000000008B
:10489000000000000000244000000000000048402C
:1048A0009A9999999999B93FED87331A5476E03FCF
:1048B000D8F8FF1FC0F9FF1F487D0000547D00009D
:1048C000587D0000C046C046F0B589B000AF7860A2
:1048D0008B4AFA235B00101C191C022200F018F905
:1048E000031C002B12D00420FFF71AFB844AFA2382
:1048F0005B00101C191C032200F00AF9031C002B9A
:1049000004D03B1C1E3301221A70E0E07D4A7E4B2E
:10491000101C191C03F0BFF8031C1A1C794BD21A87
:104920003B1C1F331A703B1C1F333A1C1F3212787A
:1049300018321A703B1C1F331B78724AD35C412B10
:1049400004D03B1C1E3302221A70C0E06D4A6F4B2C
:10495000101C191C03F09FF8031C1A1C694BD21A77
:104960003B1C1F331A7006E03B1C1F331A783B1C9C
:104970001F33013A1A703B1C1F331B78614AD35C0A
:104980002C2BF1D13B1C1F333A1C1F321278023200
:104990001A70544C524B3B617C6129E0386979694B
:1049A000514A524BFCF7BCFC031C0C1C1D1C261C62
:1049B0003B1C1F331B783A1C1F32591C1170514A83
:1049C000D35C181CFDF770FA031C0C1C281C311C4E
:1049D0001A1C231CFBF75EFE031C0C1C181C211C5C
:1049E000434A444BFCF72CFF031C0C1C3B617C61CD
:1049F0003B1C1F331B78434AD35C2E2BCED13B1C70
:104A00001F331A783B1C1F3301321A703A4B3B4C50
:104A1000BB60FC603B1C1F331B783A1C1F32591CC7
:104A20001170384AD35C303B181CFDF73DFA031C6B
:104A30000C1C181C211CBA68FB68FCF771FC031CD9
:104A40000C1C386979691A1C231CFBF723FE031C14
:104A50000C1C3B617C612AE0B868F968264A274B48
:104A6000FCF75EFC031C0C1CBB60FC603B1C1F3392
:104A70001B783A1C1F32591C1170224AD35C303B00
:104A8000181CFDF711FA031C0C1C181C211CBA6819
:104A9000FB68FCF745FC031C0C1C386979691A1C7F
:104AA000231CFBF7F7FD031C0C1C3B617C613B1CCA
:104AB0001F331B78134AD35C0D2BCDD17A683B6929
:104AC0007C69136054603B1C1E3300221A703B1C2F
:104AD0001E331B78181CBD4609B0F0BDC046C04649
:104AE0000000000000000000000000000000244062
:104AF00000000000000048409A9999999999B93F9F
:104B0000D8F8FF1FC0F9FF1F487D00005C7D000042
:104B100090B58DB000AF7860BB1C19803B1C1A802B
:104B20003B1C0833704A1A6000225A6000229A60C7
:104B30000022DA6000221A6100225A6100229A6182
:104B400000229A83694B01221A7005E0674B01220B
:104B50001A700120FDF7C8FF644B1B78012BF5D1BB
:104B6000634B00221A70012001F050FA7A68614B01
:104B7000101C191CFDF7F4F9031C002B07D13B1C7A
:104B800008335C4A1168196012791A711FE07A685B
:104B9000594B101C191C02F07EFF031C002B09D07E
:104BA0003B1C0833554A03CA03C311881980927805
:104BB0009A700CE07A68524B101C191C02F06BFFC3
:104BC000031C002B03D03B1C08333E221A800A2012
:104BD000FDF78AFF3C1C2A34BB1C1B88181C0A21C9
:104BE000FBF7A8FC031C23803B1C283300221A80FF
:104BF00065E0444B00221A707A683E4B101C191C69
:104C0000FDF7AEF9031C002B0DD07A683C4B101C4D
:104C1000191CFDF7A5F9031C002B04D07B680120AB
:104C2000191C01F0FFF83B1C2C3300221A8030E0E5
:104C30000A20FDF759FF334A3B1C0833101C191C8E
:104C400002F029FF031C002B04D03B1C2F33002251
:104C50001A703FE02B4A2C4B101C191C02F01BFF52
:104C6000031C002B0ED06420FDF73EFF274B0120D4
:104C7000191C01F0D7F86420FDF736FF1C4B002209
:104C80001A700EE03B1C2C331A883B1C2C3301326B
:104C90001A803A1C2C323B1C2A3312881B889A42F9
:104CA000C6D33A1C2A323B1C2A331B88DB181380DC
:104CB0003B1C28331A883B1C283301321A803A1CCB
:104CC00028323B1C12881B889A4292D33B1C2F33FC
:104CD00001221A70054B00221A703B1C2F331B78DF
:104CE000181CBD460DB090BD4F4B00000DFEFF1FC0
:104CF0000CFEFF1F1C7B0000607D00006C7D00002F
:104D0000147B0000C0F9FF1F24F9FF1F08F8FF1FE4
:104D100080B584B000AF78607B680F3300221A70D2
:104D20004B4AFA235B00101C191C0222FFF7F0FE0D
:104D3000031C002B15D0474B181CC8210222FFF77B
:104D4000E7FE434AFA235B00101C191C0222FFF7FE
:104D5000DFFE031C002B04D03B1C0F3301221A7012
:104D60006FE03D4A3D4B101C191C02F094FE031CE1
:104D70001A1C394BD21A3B1C0C331A803B1C0C33C7
:104D80003A1C0C32128807321A803B1C0A3300226C
:104D90001A802EE03B1C0C331B882F4AD35C2F2B30
:104DA0001AD93B1C0C331B882B4AD35C392B13D8E4
:104DB0003B1C0A331B883A1C0A32591C11807A6842
:104DC000D2183B1C0C331B88391C0C31581C088032
:104DD0002149CB5C13700CE03B1C0C331A883B1C44
:104DE0000C3301321A803B1C0A333A1C0A321288F7
:104DF0001A803B1C0C331B88174AD35C4F2B07D1FE
:104E00003B1C0C331B880133134AD35C4B2B0AD059
:104E10003B1C0C331A88124B9A4204D83B1C0A33B1
:104E20001B880E2BB6D93B1C0A331B880E2B04D8CB
:104E30003B1C0F3302221A7003E03B1C0F3300228D
:104E40001A703B1C0F331B78181CBD4604B080BD84
:104E500010F8FF1F08F8FF1FC0F9FF1F787D000042
:104E60004B04000080B584B000AF78607B680E33DF
:104E700000221A70404A414B101C191C0222FFF7F5
:104E800047FE031C002B14D03D4B181CC8210222E6
:104E9000FFF73EFE384A394B101C191C0122FFF760
:104EA00037FE031C002B04D03B1C0F3301221A7069
:104EB0005AE0344A344B101C191C02F0ECFD031C60
:104EC0001A1C304BD21A3B1C0C331A807B680F33F0
:104ED00000221A703B1C0A330E221A8034E03B1C5D
:104EE0000C3300229B5E274AD35C2F2B1FD93B1C1F
:104EF0000C3300229B5E234AD35C392B17D83B1C12
:104F00000A331B883A1C0A32191C013911801BB262
:104F10007A68D2183B1C0C331B88391C0C31181CC6
:104F2000013808801BB21749CB5C13700CE03B1CA6
:104F30000C331A883B1C0C33013A1A803B1C0A3391
:104F40003A1C0A3212881A803B1C0A3300229B5EEC
:104F5000002B05DB3B1C0C3300229B5E002BBEDAD2
:104F60003B1C0F3300221A703B1C0F331B78181C9C
:104F7000BD4604B080BDC04668F8FF1F881300001E
:104F800008F8FF1FC0F9FF1F20F9FF1F80B590B080
:104F900000AF786039603B1C083300221A600022A1
:104FA0005A6000229A600022DA6000221A61002210
:104FB0005A6100229A610022DA6100221A620022FC
:104FC0005A6200229A620022DA6200221A863B1C90
:104FD0000833181C02F02EFD031C3A1C0832D218AC
:104FE000644B111C1A1C1423081C111C1A1C02F0FF
:104FF00003FD3B1C0833181C02F01CFD021C3B1C6B
:105000003D331A703B1C3F3300221A701FE03B1CDB
:105010003F331B787A68D3181B78002B00D11BE034
:105020003B1C3D331A783B1C3F331B78D3183A1C8A
:105030003F32127879688A1811783A1C0832D154B4
:105040003B1C3F331A783B1C3F3301321A703B1C28
:105050003F331B780E2BDAD93B1C0833181C02F0A7
:10506000E9FC031C3A1C0832D218434B111C1A1CD1
:105070000323081C111C1A1C02F0BEFC3B1C083345
:10508000181C02F0D7FC021C3B1C3D331A703B1C61
:105090003F3300221A701FE03B1C3F331B783A68F5
:1050A000D3181B78002B00D11BE03B1C3D331A7832
:1050B0003B1C3F331B78D3183A1C3F3212783968B7
:1050C0008A1811783A1C0832D1543B1C3F331A78A5
:1050D0003B1C3F3301321A703B1C3F331B78042BBF
:1050E000DAD93B1C0833181C02F0A4FC031C3A1C40
:1050F0000832D218214B111C1A1C0323081C111C46
:105100001A1C02F079FC1E4AFA23DB00101C191C41
:105110000122FFF7FDFC3A1C08321A4B101C191C27
:105120000222FFF7F5FC031C002B17D0144AFA23C8
:10513000DB00101C191C0122FFF7EAFC3A1C0832A4
:10514000104B101C191C0122FFF7E2FC031C002B62
:1051500004D03B1C3E3301221A7003E03B1C3E335B
:1051600000221A703B1C3E331B78181CBD4610B041
:1051700080BDC046807D0000947D0000107B000053
:1051800058F8FF1F7017000080B584B000AF021CF4
:10519000BB1D1A803B1C0E3300221A8012E0002334
:1051A000BB6002E0BB680133BB60BA680B4B9A423C
:1051B000F8D93B1C0E331B889BB201339AB23B1CBF
:1051C0000E331A803B1C0E331B889BB2BA1D12880B
:1051D0009A42E4D8BD4604B080BDC046BF1200006C
:1051E00090B589B000AF786039607B687B617B697E
:1051F000002B02DA7B685B427B600023FB61FC6969
:10520000631CFB617B68181C0A21FBF7D7F90B1C98
:10521000DBB23033DBB2DAB23B1C08331A557B68A1
:10522000181C0A21FBF786F9031C7B607B68002BA6
:10523000E5D17B69002B06DAFB695A1CFA613A1C3E
:1052400008322D21D154FB69013BBB610EE0FB69A3
:105250005A1EBB69D31A3A68D318391C0831BA6987
:105260008A1812781A70BB69013BBB61BB69002BBD
:10527000EDDAFB693A68D31800221A70BD4609B00E
:1052800090BDC04690B587B000AFF860B9603B6094
:10529000BB1D1A804F4B1A783B681A703B6801336C
:1052A0004C4A52781A703B1C163302221A803B6813
:1052B0009A1CFB68101C191C0F2202F0D8FB3B1C27
:1052C00016333A1C163212880F321A803B1C1633E2
:1052D0001B883A1C1632591C11803A68D318BA1D23
:1052E0001288120A92B2D2B21A703B1C16331B8873
:1052F0003A1C1632591C11803A68D318BA1D12880C
:10530000D2B21A703B68191C1331BB1D1B88BA68D6
:10531000081C111C1A1C02F06FFB3B1C1633391CB5
:105320001631BA1D098812888A181A803B689A1C9F
:10533000BB1D1B8811339BB23C1C1434101C191C60
:1053400000F04CF8031C23803B1C16331B883A1CCE
:105350001632591C11803A68D3183A1C143212883C
:10536000120A92B2D2B21A703B1C16331B883A1C36
:105370001632591C11803A68D3183A1C143212881C
:10538000D2B21A703B1C16331B883A1C1632591CB9
:1053900011803A68D318104A12781A703B1C1633E1
:1053A0001B883A1C1632591C11803A68D3180A4AD5
:1053B00052781A703B1C16331B883A68D3180022A7
:1053C0001A70BB6A3A1C163212881A80BD4607B0A2
:1053D00090BDC04600F8FF1F04F8FF1F80B584B0E1
:1053E00000AF78600A1CBB1C1A803B1C0A330122E8
:1053F00052421A803B1C0E3300221A8041E03B1CB3
:105400000E331B887A68D3181B78191C3B1C0A338F
:105410003A1C0A3212884A401A803B1C0C33002284
:105420001A8022E03B1C08333A1C0A321188012200
:105430000A401A803B1C0A333A1C0A32128852086E
:105440001A803B1C08331B88002B07D03B1C0A33F7
:105450003A1C0A32128812494A401A803B1C0C330B
:105460001A883B1C0C3301321A803B1C0C331B88FE
:10547000072BD7D93B1C0E331A883B1C0E33013245
:105480001A803A1C0E32BB1C12881B889A42B6D373
:105490003B1C0A331B88181CBD4604B080BDC046A7
:1054A00001A0FFFF90B587B000AFB9607A603B1CE8
:1054B0000F33021C1A70CB4B00221A70CA4B1B7898
:1054C0000A2B00D9A6E19A00C84BD3181B689F4647
:1054D0003B1C0F331B782B2B03D1C34B01221A70BB
:1054E00098E1C14B00221A7094E13B1C0F331B78EA
:1054F000522B03D1BC4B02221A708BE1BA4B002213
:105500001A7087E13B1C0F331B78452B03D1B64B38
:1055100003221A707EE1B44B00221A707AE13B1C20
:105520000F331B78432B03D1AF4B04221A7071E168
:10553000AD4B00221A706DE13B1C0F331B78452BDD
:1055400003D1A94B05221A7064E1A74B00221A70FF
:1055500060E13B1C0F331B78492B03D1A24B062281
:105560001A7057E1A04B00221A7053E13B1C0F3315
:105570001B78562B03D19C4B07221A704AE19A4B99
:1055800000221A7046E13B1C0F331B78452B03D1D8
:10559000954B08221A703DE1934B00221A7039E1B5
:1055A0003B1C0F331B782C2B03D18F4B09221A7015
:1055B00002E08D4B00221A708D4B00221A8029E1E7
:1055C0003B1C0F331B783A2B03D1874B0A221A70EE
:1055D00020E1874B1B881A1C9200D318DB189AB263
:1055E0003B1C0F331B789BB2D3189BB2303B9AB253
:1055F0007F4B1A800EE17B4B01221A707D4B1A887B
:105600007B4B1B889A4210D97A4B00221A807A4B26
:1056100000221A803B1C173302221A70724B0022A0
:105620001A70704B00221A70F4E0724B1B88002B2A
:1056300006D1724B1B783A1C0F3212789A420AD16B
:105640006C4B1B88012B14D16C4B5B783A1C0F32CE
:1056500012789A420DD0674B00221A80664B0022C6
:105660001A803B1C173302221A705E4B00221A70FC
:10567000D0E0604B1B885A1C91B25E4A11807A6858
:10568000D3183A1C0F3212781A705A4B1B88132BFE
:105690000BD17B6811331B781B029AB27B681233E3
:1056A0001B78D3189AB2544B1A80534B1B88002B8B
:1056B00000D1A7E04F4B1B881A1C4F4B1B88173398
:1056C0009A4200DA9EE07B689A1C4B4B1B88113390
:1056D0009BB23C1C1234101C191CFFF77FFE031CEC
:1056E00023803B1C12331B881B0A9BB2DAB23B1C83
:1056F00010331A703B1C12331B88DAB23B1C103378
:105700005A703C4B1B88023B7A68D3181A783C4B82
:105710001B789A421FD1374B1B88013B7A68D318FC
:105720001A78374B5B789A4215D13B1C10331A78A4
:10573000314B1B8813337968CB181B789A420AD1F6
:105740003B1C10335A782C4B1B8814337968CB18C8
:105750001B789A4210D0274B00221A80264B002239
:105760001A803B1C173302221A701F4B00221A703A
:105770001C4B00221A704DE03B1C143300221A808F
:1057800013E03B1C14331B887A68D3183A1C14327C
:105790001288133279688A1812781A703B1C1433F5
:1057A0001A883B1C143301321A80134B1B883A1C95
:1057B000143212889A42E4D30F4B1A88BB681A80BD
:1057C0000C4B00221A800C4B00221A803B1C173312
:1057D00000221A70044B00221A70024B00221A7029
:1057E00018E0C0460EFEFF1F30FEFF1F187E0000AF
:1057F00032FEFF1F34FEFF1F36FEFF1F00F8FF1FA3
:1058000004F8FF1FBB6800221A803B1C17330122DB
:105810001A70C0463B1C17331B78181CBD4607B0D6
:1058200090BDC04680B582B000AF0A1CBB1D011CF4
:1058300019807B1D1A70BB1D1A887B1D1B78101CDC
:1058400001211A1C01F06CFABD4602B080BDC046B1
:1058500080B582B000AF0A1CBB1D011C19807B1DE6
:105860001A70BB1D1A887B1D1B78101C191C01F0B7
:10587000CBFABD4602B080BD80B582B000AF021C3D
:10588000BB1D1A80BB1D1B88181C01F027FBBD46E1
:1058900002B080BD80B586B000AF78607B6804330D
:1058A0001B687B617B68013309D07B69FB607B6887
:1058B0001B683B613B6983F30888FB689847BD46DA
:1058C00006B080BD80B582B000AF00237B60FB1CBA
:1058D00000221A703F4A88235B010021D1503D4AC3
:1058E0003D4BC0218902D1503A4A3A493B4BCB58F3
:1058F000802189001943394BD150394B9B78DBB259
:105900001A1C0823134007D0354B354A9278D2B27F
:1059100008210A43D2B29A702E4A2F4B80214902A5
:10592000D1502C4A2B492F4BC9582F4B19402D4B86
:10593000D150284B274A11682C4A0A401A60254A40
:105940002449284BC9582A4B0B408021490419434C
:10595000244BD150274B06221A70264B254A5278E9
:10596000D1B240220A40D2B25A70224B214AD27898
:10597000D2B2D2B2111C1F220A40D2B260214942D7
:105980000A43D2B2D2B2DA701B4B00221A70194B02
:1059900000221A71174B00225A71C046154B9B7991
:1059A000DBB21A1C10231340F8D0C046114B9B7970
:1059B000DBB21A1C0C231340F8D1064A0549074BE9
:1059C000CB58F82189011943044BD150BD4602B090
:1059D00080BDC04600700440441000003810000034
:1059E00000D0074004100000FFFFFCFFFFFFF3FFA3
:1059F000FFFFFFFC004006400050064080B582B02B
:105A000000AF021CFB1D1A70064BFA1D1278111C08
:105A10001F220A400121081C9040021C1A60BD464A
:105A200002B080BD00E100E080B582B000AF021C92
:105A3000FB1D1A70064AFB1D1B78191C1F230B4007
:105A4000012199408023D150BD4602B080BDC0469F
:105A500000E100E080B586B000AF021C3960FB1D9C
:105A60001A709B4B7B61FB1D1B78181C00F012FC0D
:105A7000031C002B00D127E1FB1D1B78002B00D05D
:105A800097E0944A9349944BCB588021C904194319
:105A9000914BD1508F4A8F498F4BC9588F4B19402A
:105AA0008D4BD1508E4B8E4A126D8021C9000A4316
:105AB0001A658B4B8A4A526D8021C9000A435A6588
:105AC000C046844A8349874BCB588021C90019437B
:105AD000844BD1507B69DB78DBB20C229343DAB282
:105AE0007B69DA70804B1B68181CFA239900FAF75F
:105AF00021FD031CFA2292005A433B681B01101C33
:105B0000191CFAF717FD031C1A1C3B1C12331A80D0
:105B10007B691B78DAB23B1C11331F218A431A7050
:105B20003B1C12331A88F8235B0113401B12DAB2B4
:105B30001F231340DAB23B1C11331B781343DAB234
:105B40007B691A703B1C12331B88DAB27B695A706E
:105B50007B690F229A727B6900229A707B6900220E
:105B60009A717B6900221A727B6900225A727B69E2
:105B70001B79DBB21F221343DAB27B691A717B698E
:105B80005B79DBB2402252421343DAB27B695A712D
:105B90007B69DB78DAB27F231340DAB27B69DA7093
:105BA0007B69DB78DBB20C221343DAB27B69DA70F3
:105BB0008AE0FB1D1B78012B02D0022B13D025E0BD
:105BC000474BC02292001A60454BC02292005A6097
:105BD000C046404A3F49434BCB58802109011943F5
:105BE000404BD15012E03E4BC02292001A643C4B15
:105BF000C02292005A64C046364A3649394BCB58C7
:105C0000802149011943374BD150C046FB1D1B78F9
:105C10005A1E364B9200D358FB60FB68DB78DBB230
:105C20000C229343DAB2FB68DA702F4B1B68181C06
:105C3000FA23D900FAF77EFC031CFA2292005A4399
:105C40003B681B01101C191CFAF774FC031C1A1C7E
:105C50003B1C12331A80FB681B78DAB23B1C1133F1
:105C60001F218A431A703B1C12331A88F8235B01E8
:105C700013401B12DAB21F231340DAB23B1C11335C
:105C80001B781343DAB2FB681A703B1C12331B8873
:105C9000DAB2FB685A70FB6800229A70FB68002237
:105CA0009A71FB6800225A71FB68DB78DAB27F23B5
:105CB0001340DAB2FB68DA70FB68DB78DBB20C22E7
:105CC0001343DAB2FB68DA70BD4606B080BDC04649
:105CD00000A006400070044004100000FFFFFEFF1B
:105CE00000D00440341000002CF9FF1F447E000057
:105CF00080B586B000AF0A1CFB1D011C1970BB1DCE
:105D00001A70224B3B61FB1D1B785A1E204B9200E0
:105D1000D358FB60FB1D1B78181C00F0BBFA031C5A
:105D2000002B01D100232CE000237B611EE0FB1D32
:105D30001B78002B0BD13B691B79DBB2DBB25BB26A
:105D4000002B10DA3B69BA1D1278DA7112E0FB6899
:105D50001B79DBB2DBB25BB2002B04DAFB68BA1D45
:105D60001278DA7106E07B6901337B617A69094B4D
:105D70009A42DCD97A69074B9A4201D9002300E0A4
:105D80000123181CBD4606B080BDC04600A00640D9
:105D9000447E0000BAFB000080B584B000AF3A60DA
:105DA000FB1D021C1A703B1D0A1C1A80FB1D1B7870
:105DB000181C00F06FFA031C002B01D100232CE00B
:105DC0003B1C0E3300221A8016E03B1C0E331B884E
:105DD0003A68D3181B78FA1D1278101C191CFFF7AB
:105DE00087FF031C002B00D10DE03B1C0E331A88EB
:105DF0003B1C0E3301321A803A1C0E323B1D1288B6
:105E00001B889A42E1D33A1C0E323B1D12881B8834
:105E10009A4201D2002300E00123181CBD4604B0C1
