:1088000000180020D18C0000158D0000158D00008F
:108810000000000000000000000000000000000058
:10882000000000000000000000000000158D0000A6
:108830000000000000000000158D0000158D0000F4
:10884000158D0000158D0000158D0000158D0000A0
:10885000158D0000158D0000158D0000158D000090
:10886000158D0000158D0000158D0000158D000080
:1088700025A80000158D0000158D0000158D000045
:10888000158D0000158D0000158D0000158D000060
:10889000158D0000158D0000158D0000158D000050
:1088A000158D0000158D0000158D0000158D000040
:1088B000158D0000158D0000158D0000158D000030
:108C0000FFFFFFFFFFFFFFFFFFFFFFFFFEFFFFFF75
:108C100010B5064C2378002B07D1054B002B02D052
:108C2000044800E000BF0123237010BD6408002049
:108C30000000000030E90000044B10B5002B03D009
:108C40000349044800E000BF10BDC046000000001A
:108C50006808002030E90000164B002B00D1144BAF
:108C60009D46402292029A1A924600218B460F4658
:108C70001348144A121A05F0AFF80F4B002B00D01E
:108C800098470E4B002B00D098470020002104008D
:108C90000D000D48002802D00C4800E000BF05F090
:108CA00077F82000290001F00DFE05F05BF8C046C2
:108CB0000000080000180020000000000000000074
:108CC00064080020780F0020000000000000000071
:108CD00072B604F0A3FF62B609490A4A0A4B9B1A0E
:108CE00003DD043BC858D050FBDC0849084A521A3F
:108CF00003DD00208850043AFCDAFFF7ADFF0000E6
:108D0000B0FC000000080020640800206408002077
:108D1000780F002000480047158D0000002243080E
:108D20008B4274D303098B425FD3030A8B4244D333
:108D3000030B8B4228D3030C8B420DD3FF22090275
:108D400012BA030C8B4202D31212090265D0030B34
:108D50008B4219D300E0090AC30B8B4201D3CB032A
:108D6000C01A5241830B8B4201D38B03C01A52416C
:108D7000430B8B4201D34B03C01A5241030B8B426E
:108D800001D30B03C01A5241C30A8B4201D3CB0259
:108D9000C01A5241830A8B4201D38B02C01A52413E
:108DA000430A8B4201D34B02C01A5241030A8B4241
:108DB00001D30B02C01A5241CDD2C3098B4201D359
:108DC000CB01C01A524183098B4201D38B01C01AD7
:108DD000524143098B4201D34B01C01A524103094E
:108DE0008B4201D30B01C01A5241C3088B4201D3FD
:108DF000CB00C01A524183088B4201D38B00C01AAA
:108E0000524143088B4201D34B00C01A5241411AD0
:108E100000D20146524110467047FFE701B50020DD
:108E200000F0F0F802BDC0460029F7D076E77047A1
:108E300003460B437FD4002243088B4274D30309BB
:108E40008B425FD3030A8B4244D3030B8B4228D35C
:108E5000030C8B420DD3FF22090212BA030C8B4282
:108E600002D31212090265D0030B8B4219D300E022
:108E7000090AC30B8B4201D3CB03C01A5241830BA7
:108E80008B4201D38B03C01A5241430B8B4201D357
:108E90004B03C01A5241030B8B4201D30B03C01A80
:108EA0005241C30A8B4201D3CB02C01A5241830AFA
:108EB0008B4201D38B02C01A5241430A8B4201D329
:108EC0004B02C01A5241030A8B4201D30B02C01A53
:108ED0005241CDD2C3098B4201D3CB01C01A5241BA
:108EE00083098B4201D38B01C01A524143098B4243
:108EF00001D34B01C01A524103098B4201D30B012C
:108F0000C01A5241C3088B4201D3CB00C01A524150
:108F100083088B4201D38B00C01A524143088B4215
:108F200001D34B00C01A5241411A00D201465241AE
:108F3000104670475DE0CA0F00D04942031000D3CD
:108F40004042534000229C4603098B422DD3030A22
:108F50008B4212D3FC22890112BA030A8B420CD332
:108F6000890192118B4208D3890192118B4204D35B
:108F700089013AD0921100E08909C3098B4201D3DB
:108F8000CB01C01A524183098B4201D38B01C01A15
:108F9000524143098B4201D34B01C01A524103098C
:108FA0008B4201D30B01C01A5241C3088B4201D33B
:108FB000CB00C01A524183088B4201D38B00C01AE8
:108FC0005241D9D243088B4201D34B00C01A5241BF
:108FD000411A00D20146634652415B10104601D34C
:108FE0004042002B00D54942704763465B1000D3D6
:108FF000404201B5002000F005F802BD0029F8D07C
:1090000016E770477047C046002B11D1002A0FD1D8
:10901000002900D1002802D00021C943081C07B450
:10902000024802A14018029003BDC046D9FFFFFFCD
:1090300003B4684601B5029800F006F8019B9E460D
:1090400002B00CBC7047C046F0B54F464646D64607
:10905000C0B5040082B00D00914698468B422FD8CF
:109060002CD04146484601F0D1FA290006002000E4
:1090700001F0CCFA331A9C46203B9A4600D576E0A4
:109080004B46524693401F004B46624693401E009B
:10909000AF4228D825D05346A41BBD41002B00DA8F
:1090A0007BE000220023009201930123524693406B
:1090B0000193012362469340009318E08242D0D985
:1090C00000220023009201930A9B002B01D01C6018
:1090D0005D600098019902B01CBC90469946A2467A
:1090E000F0BDA342D7D9002200230092019363462A
:1090F000002BE9D0FB079846414672080A437B08DB
:1091000066460EE0AB4201D1A2420CD8A41A9D41A2
:10911000012024196D410021013E24184D41002EEB
:1091200006D0AB42EED9013E24196D41002EF8D194
:1091300000980199534600196941002B23DB2B004D
:109140005246D3402A006446E2401C0053461500B4
:10915000002B2DDB26005746BE4033002600674615
:10916000BE403200801A994100900191ACE76246FE
:1091700020239B1A4A46DA406146130042468A4041
:1091800017001F4380E7624620239B1A2A00664689
:109190009A402300F3401343D4E762462023002182
:1091A0009B1A0022009101920122DA40019280E78D
:1091B0002023624626009B1ADE402F00B0466646FA
:1091C000B74046463B003343C8E7C046F0B5574674
:1091D000DE464E464546E0B5834607000E0348008E
:1091E00085B092461C00360B400DCD0F002800D1F3
:1091F0009DE0954B984239D08023F6001B041E4316
:10920000924A7B0F3343994694460300634400938C
:1092100000230026FF00029323031B0B98466300E4
:10922000E40F52465B0D019400D1B3E086498B42B6
:1092300000D19EE04246D100802212040A435146EA
:10924000490F11438B46814952468C46009963442D
:10925000CB1A0021D20000932B0063409A460F2EB8
:1092600000D905E17A4BB6009B599F465B463343D4
:10927000994600D0B8E00223082600270090029308
:10928000CAE7CB463A0002990195019B9A4602290A
:1092900027D0032900D180E2012944D06D49009BE9
:1092A0008C4663441C00002C38DD530700D013E2C9
:1092B000D2085B46DB0109D55946674B19408B46FE
:1092C0008021C9008C46009B63441C00634B9C4278
:1092D00007DC5B4664055F075B0217431B0B620DEF
:1092E00002E000230027584A00211B031C0B0B0D32
:1092F0001B05234314055A4A380013401C435346A8
:109300006400DB0764081C43210005B03CBC9046A8
:109310009946A246AB46F0BD0122524201231B1BD7
:10932000382B00DCADE1002200230027DCE75B46A0
:10933000334399465ED0002E00D18AE1300001F01F
:1093400047F903000B3B1C2B00DD7BE11D22D31AE8
:109350005A460100DA4008398E4013005F46334315
:1093600099468F403F4B00261B1A0093002302931F
:1093700052E7414653460B433B499B468C46009B74
:10938000634400935B46002B3BD1022300221E4323
:10939000022161E7434613439B4637D04346002BE7
:1093A00000D162E1404601F013F903000B3B1C2B96
:1093B00000DD53E102004146083A914088461D21F4
:1093C000CB1A5146D9400B0041460B439B465346AE
:1093D00093401A00009B25499C46604403008C463C
:1093E00063440093002137E70323B14600900C2625
:1093F000029311E700230093013304260027029310
:109400000AE70323C3461E43032125E701331E4316
:109410000022012120E700239A46802300271B0316
:10942000094A61E7802349461B03194200D1E2E063
:109430005946194200D0DEE00B431B0317001B0BFB
:10944000A246014A50E7C046FF07000001FCFFFFAB
:10945000B4E10000FF030000FFFFFFFEFE07000075
:10946000FFFF0F800DFCFFFF01F8FFFFF30300007B
:10947000D94500D9CBE000D1C6E03C0048460027E2
:10948000009B013B00935B46160E1B021E4313021A
:10949000984633041B0C9946310C0191FFF7C4FC2C
:1094A0004A4642430B04210C050019438A4207D95E
:1094B0008919013D8E4203D88A4201D9851E891936
:1094C000881A0199FFF7B0FC09048C464A4621042A
:1094D00064464243090C030021438A4204D9891996
:1094E000013B8E4200D8F1E02D041D43AB464346BC
:1094F000891A4246280C12041D0C5B46140C2200EB
:109500001B041B0C5A4303946B434443029568436A
:109510001B19150CEB189C4203D980246402A44645
:1095200060441C0C15041B042D0C20185D1981428D
:1095300077D373D00C1AA24A7D1BAF42BF41944629
:10954000009B7F426344E01B1C00864200D1DBE0AD
:109550000199FFF769FC4A4642430B04290C0700B6
:1095600019438A4207D98919013F8E4203D88A429A
:1095700001D9871E8919881A0199FFF755FC09043A
:109580004A46894629044D464243090C03002943B3
:109590008A4207D98919013B8E4203D88A4201D9F0
:1095A000831E89193F04891A3A00039F1A43380021
:1095B00013041B0C584381460298150C6F43434318
:1095C00045434846000C8446DB1963449F4203D957
:1095D000802040028446654448461F0C00041B045A
:1095E000000C7D191818A94200D284E000D17FE058
:1095F00001231A4357E680234A461B0313431B03E8
:109600001B0BAA466F4A6FE6BA4200D935E74B46B4
:10961000DC0758087B081C43FF0734E70024AF42EF
:1096200089D247444745A4415B466442A419641863
:10963000013BA6421ED2A0426DD800D1B6E0241A4A
:109640009B4678E703005A46283B9A4000279146FC
:1096500088E6584600F0BCFF203072E60300524610
:10966000283B9A4093460022B4E6504600F0B0FFF3
:1096700020309AE6A642E2D1B845DCD9341A9B469E
:1096800059E71F2B65DC504C0099A4465C466144A9
:1096900008008C4011008240D940501E82410C438A
:1096A00014435A46DA401300620709D00F222240C1
:1096B000042A05D02200141D9442894149425B18B6
:1096C0001A0262D50122002300270DE68A4200D843
:1096D0000AE7831E891907E70F231340042B00D1E3
:1096E000E6E5171D9742924153429B44FA08E0E594
:1096F000002800D1D7E57118531EB14227D3A942E3
:1097000015D358D01A0073E7002B00DC04E60123C0
:1097100000229B44CDE502234744474589415B42F3
:109720009C46494289190C19E344241A03E743462D
:109730005F0047459B41B8465B429E19023A891932
:10974000A94200D054E7404500D051E7ABE51A00EC
:10975000F6E71F215F4649420C1BE740202B07D04C
:109760001A49009B8C46634418005B4683401A43A9
:10977000501E82413A4307270023174009D00F218A
:10978000002311401400042995D122005F075B02D9
:109790001B0BD20817430022A6E5802359461B0362
:1097A0000B431B0317001B0B064A9DE5BD42B2D8B5
:1097B0009B460024BFE68045B9D31A00C3E7C046E4
:1097C000FF030000FF0700001E0400003E0400002D
:1097D000F0B55746DE464E464546E0B583460600A0
:1097E0000F03480087B092461D003F0B400DCC0F81
:1097F000002800D16FE0DE4B984238D08023FF0074
:109800001B041F43730F3B430193DA4B0027994618
:1098100000239B46F60081442B0369001B0B524634
:109820009846490DED0F002900D185E0D04B9942B3
:1098300000D173E04346DA0080231B0413435246F1
:10984000CC48520F84461343524600206144D20054
:1098500089442100694000918C46012149448A468F
:109860000F2F00D990E0C449BF00CF59BF465B46D7
:109870003B43019300D06AE102230827002681467A
:109880009B46C9E732005846019B61460091022879
:1098900000D175E0032800D1FEE1012800D02CE1C1
:1098A00000230027002600253F032A0D3F0BB34865
:1098B00012053A4302401B051343009A5B00D1078F
:1098C0005B080B433000190007B03CBC904699463A
:1098D000A246AB46F0BD5B463B43019300D12FE16E
:1098E000002F00D1A5E1380000F072FE03000B3B11
:1098F0001C2B00DD96E11D22D31A5A460100DA40E6
:109900005E4608398F4013008E403B4301939C4BC9
:1099100000271B1A994600239B467DE74146534684
:109920000B4393498C46E144002B00D01AE10222FC
:109930000220174300228CE7134300D10DE1434678
:10994000002B00D181E1404600F042FE02000B3ABC
:109950001C2A00DD72E10100434608398B4098461D
:109960001D239A1A5346D3401A00434613435246C6
:109970008A404946081A824989468144002068E79E
:109980007B4B002700268EE7140C1204120C1100EA
:10999000370C3604350C794328008C462E00604382
:1099A0006044834656432100300C80465846794334
:1099B00040440291844506D98846802149028C465C
:1099C000E044414602913604010C360C00048B46FB
:1099D00081191E0C1B041B0C0391190079438C4642
:1099E000280075436544A8465843050C4544774311
:1099F000A94203D9802149028C466744290C8C4630
:109A000039000004000C2D042D186144AB4405916D
:109A10005946049101990F043F0C080C3900514339
:109A20004243904602008C46090C8B4662437C43BD
:109A300044445C44A04503D98021490288464244FD
:109A4000210C884661460904090C8C4639005943AB
:109A5000434370437E430F0CF6182404BE1964443C
:109A600042448C46B34203D980235B02984640446B
:109A7000029B61469846049B370443449B46AB4592
:109A8000AD416B420D0405992D0C8C467F1967443E
:109A9000FD18A8465D462D19A542A441934664428F
:109AA000A446C344DC448F42BF4198459B41934543
:109AB0009241A445A4415B427F421F43360C52426F
:109AC0006442BF192243BF18624638184302D20DC0
:109AD000039913436A020A43501E82416146ED0D09
:109AE0002A434E023243D90100D4B3E00126500884
:109AF00032400243DE0732435B08224C5444002CC0
:109B000062DD510709D00F201040042805D0101D38
:109B10009042924152429B180200D90104D5802400
:109B20001948E400034054441848844200DD27E704
:109B30005E075B02D2081F0B630516435B0DB2E69E
:109B4000002399460133042700269B4664E603233D
:109B5000019781460C279B465EE6012201201743B0
:109B6000002276E6032303201F43434671E6C046E6
:109B7000FF07000001FCFFFFF4E10000FFFF0F8082
:109B80000DFCFFFFFF030000FFFFFFFEFE070000CC
:109B90000023802700933F030026434B83E6019B6D
:109BA0003200A446584670E6AC466EE6802701991E
:109BB0003F0339422DD03B422BD11F433F033F0B84
:109BC00000951600384B6EE601252D1B382D00DD63
:109BD00066E61F2D40DC35481C00504416008240CC
:109BE0008440EE40501E824134431443EB406207F0
:109BF00009D00F222240042A05D02200141D9442CD
:109C0000804140421B181A023ED50123002700263E
:109C100049E68027019B3F031F433F033F0B00940E
:109C2000214B40E603005A46283B9A400026019209
:109C30006DE6584600F0CCFC203057E60300524653
:109C4000283B9A401300002293E6504600F0C0FCE7
:109C500020307BE6CA4650E71F201E004042041B0E
:109C6000E640202D03D0124C5444A3401A43501E0A
:109C70008241324307260027164009D00F200023D7
:109C8000104014000428B9D122005E075B021F0BAC
:109C9000D2081643002306E680273F031F433F03F5
:109CA0003F0B1600004BFEE5FF0700001E040000FE
:109CB0003E040000F8B557464E464546DE460C00C9
:109CC0000903E0B5490A460F5F0031431E03DB0F6D
:109CD000760A9B46530F3343C84E6500C000E40F1D
:109CE000D2006D0DA24681467F0D9C469046B7423C
:109CF00000D1B9E05B46012673409B46EE1BA345AD
:109D000000D183E0002E63DD002F00D0B1E0634678
:109D1000134300D123E1731E002B00D0BAE1861A51
:109D20006346B04280410125C91A4042091A0B021C
:109D300000D447E149024B0A98464346002B00D124
:109D400089E1404600F044FC0300083B1F2B00DD86
:109D50007CE120223000D21A4146D04099400200D6
:109D60009E400A439D4200DD6AE15D1B6B1C1F2B78
:109D700000DD94E1202110003500C91A8E40DA4040
:109D80008840DD40711E8E411100072228430025C6
:109D900006433240002A09D00F233340042B05D05C
:109DA000331DB342B641764289191E000B0200D41E
:109DB0003DE26A1C914B55056D0D9A4200D119E1A7
:109DC0008F4AF6080A40570752023743120B9BE0AE
:109DD000002E00D0C5E06E1C7605760D012E00DC4D
:109DE00048E16746861ACB1BB042BF417F42B84666
:109DF0001F004346FF1A3B00B8461B0200D55FE137
:109E000037439AD100220024002579E0002E00DC9F
:109E1000FAE0002F00D18DE0784B9D4267D080237F
:109E200067461B041F43BC46382E00DC52E16346E4
:109E300013435A1E93411E1886428041404209181E
:109E40000B0200D4BEE06D4B01359D4200D1D2E043
:109E50006B4A73080A4001210E401E435108D30784
:109E600007221E43324095E71E00164300D045E707
:109E700040E7624B9D423AD0802367461B041F4354
:109E8000BC46382E00DDEBE01F2E00DC3AE133004B
:109E90006746203BDF403B00202E05D04027BF1BFC
:109EA0006646BE40324390464646721E9641334354
:109EB000DAE0002B00D114E26346134300D168E1DD
:109EC00080234E07C008C9081B030643194208D067
:109ED0006046C008184204D163460100D2085E07FC
:109EE0001643F3009946C900720F444D11434B4687
:109EF000DE08424B4F073743CA089D4200D16EE04F
:109F000012036D05120B6D0D00211203130B0A0DC8
:109F100012051A433B4B2D0513402B435B00E4070E
:109F20005B082343380019003CBC90469946A24682
:109F3000AB46F8BD6346134311D0731E002B00D00F
:109F400007E1861886428041614440420918012594
:109F50000B0237D502257BE73E006146914635006E
:109F6000C5E75C46002D00D0E1E00B000343F3D0D1
:109F7000731C00D1ACE1214B9F4200D13AE1F34385
:109F8000382B00DD6FE11F2B00DD8CE120250E005A
:109F9000ED1AAE40B0460600AA46DE4045463543BF
:109FA0002E005546D940A8406346451EA8415B1A7D
:109FB0009C463043161AB242924163465242991A65
:109FC0003D00B4E607223240002A00D0E4E60B4B05
:109FD000F6084F073743CA089D4200D090E73B0080
:109FE000134300D1A6E180231B031A431203120B73
:109FF000024D89E715000022002785E7FF070000D2
:10A00000FFFF7FFFFFFF0F80002E00D0C7E06B1C1B
:10A010005E05760D012E00DCF0E0C84DAB4200D1AC
:10A02000B9E085180A0085428941624449425118C5
:10A030000722CE076D082E43490832401D00A9E6CD
:10A04000BF49ED1A114007223240A3E632002838FA
:10A050008240002686E6300000F0BAFA203073E62F
:10A06000634613435A1E9341C61AB0428041404290
:10A07000091A5CE60E00674606431743002D5ED1C1
:10A08000002E00D0F3E0002F00D11EE15C466146B7
:10A0900091462CE7A94FBE427BD01E00F1E610008E
:10A0A0001F3DE840202B03D04021CB1A9A40164395
:10A0B000731E9E410722064332400021002583E79C
:10A0C000161A6346B2428041591A40420B1A98460A
:10A0D0005C4632E61F2E00DDABE02027BB1B9A4614
:10A0E00063465746BB40994613004F46F3401F4313
:10A0F0003B005746BA40571EBA4113436246F240EE
:10A10000891898E62027BB1B9A4663465746BB40F2
:10A11000994613004F46F3401F433B005746BA4051
:10A12000571EBA4113436246F240891A9CE7834B9B
:10A130009F425FD080252D047342294320E7002EE3
:10A140000CD1002F00D1D0E05C46614691467B4D9A
:10A15000CDE67A4FBE421CD01E0065E6002F18D017
:10A16000C0084E0706438020C9080003014208D0FA
:10A170006346DC08044204D12100DA46D2085E07B7
:10A180001643F300994601245346C900720F114348
:10A190001C406A4DABE61D0000220027B4E6002DEE
:10A1A00059D10B00034300D1D6E6731C00D1B2E0B5
:10A1B000624B9F421ED0F343382B6FDC1F2B00DD18
:10A1C00097E020250E00ED1AAE40B0460600AA46E4
:10A1D000DE40454635432E005546A840D940451E31
:10A1E000A8418C440643B6189642924151426144BC
:10A1F0003D0025E63D006146914678E60B000343AD
:10A20000002D00D055E6002BF5D06346134300D156
:10A210006DE686188642804161444042091800225A
:10A220000B0200D4D0E6464B01351940B2E5B146E9
:10A230005DE633006746203BDF403B00202E05D023
:10A240004027BF1B6646BE40324390464646721EBC
:10A2500096413343EFE5394B9F42CBD080252D0407
:10A2600073422943A8E70843411E8841A2E6002F14
:10A2700000D13CE66346861ACF1AB0429B415B424E
:10A28000FB1A98461B024ED5161A6346B2429241FB
:10A29000591A5242891A5C4600227BE501430E009E
:10A2A000711E8E419FE71D000E00203DEE40B0461E
:10A2B000202B04D04025EB1A99400843814648469C
:10A2C0004346411E8841184374E60022002417E6E5
:10A2D000161A6346B2429241591A5242891A3D00F7
:10A2E00025E561469146154D01E6802200241203C2
:10A2F00079E61D000E00203DEE40B046202B04D034
:10A300004025EB1A9940084381464E464346711E4C
:10A310008E411E4367E7861896429B4161445B422B
:10A32000C9183D008CE547463743CED00722414649
:10A33000324049E600273A00E6E5C046FF07000044
:10A34000FFFF7FFF30B5144D0A034B00120B5B0D6E
:10A35000C90F0024AB4211DD104CA34210DC802455
:10A36000640322430E4CE41A1F2C0CDD0D48C31A63
:10A37000DA4013005C42002900D11C00200030BDEF
:10A38000094BCC18FAE7094DE040AC4663449A40CB
:10A3900013000343EEE7C046FE0300001D04000067
:10A3A0003304000013040000FFFFFF7FEDFBFFFFFD
:10A3B00070B500282DD0C317C5185D40C40F280004
:10A3C00000F006F9154B1B1A5B055B0D0A2815DD1D
:10A3D0000B38854000222D032D0B002110002D038A
:10A3E0000A0D2D0B12052A430D4D1B052A40134360
:10A3F0005B00E4075B082343190070BD02002900DD
:10A40000153291400A000B21081AC5402D032D0B6F
:10A41000E3E70024002300250022DEE71E040000FD
:10A42000FFFF0F804100090E4B1C70B5DBB24602E6
:10A43000750AC40F012B14DDE0239B006D07360B5A
:10A44000CB1800210A0D280012051C4D32435B0574
:10A450002A405B0813435B00E4075B0823431900B1
:10A4600070BD002914D1002D1ED0280000F0B0F8D6
:10A470000A281CDC0B232A001B1ADA4003001533C0
:10A480009D400F4B12031B1A5B05160B5B0DD8E7A3
:10A49000002D06D0320B802636036D071643094B7C
:10A4A000CFE7084B0026CCE700230026C9E70300CE
:10A4B0002A000B3B9A400025E3E7C046FFFF0F80D0
:10A4C00089030000FF070000F0B54C00640D0B038A
:10A4D000621C5B0A460F5205C90F1E43C500520D90
:10A4E000012A29DD374BE718FE2F1CDC002F3BDD4E
:10A4F0008001431E98410722F3006D0F03432B4355
:10A500001A40002A04D00F221A40042A00D0043333
:10A510008022D2041A4024D00137FAB2FF2F02D091
:10A520009B01580A01E0FF2200204002D205400AA8
:10A53000C90710430843F0BD3543002C04D1002D5A
:10A540000AD100220020F0E7002DECD08020C003CB
:10A550003043FF22E9E7002400235B02580AE2B2FD
:10A56000E3E7DB083C00F8E73B001733F3DB80232D
:10A570001B0433431E26F61B1F2E14DD02225242FB
:10A58000D71B1A00FA401700202E04D00E4A94461A
:10A590006444A3401D432B005D1EAB4107223B4397
:10A5A0001A400027ADE7094A2800A21895409340B9
:10A5B0006C1EA541F04007222B4303431A4000279D
:10A5C0009FE7C04680FCFFFFA2FCFFFF82FCFFFF6D
:10A5D0001C2101231B04984201D3000C10391B0AD3
:10A5E000984201D3000A08391B09984201D3000997
:10A5F000043902A2105C40187047C04604030202EE
:10A6000001010101000000000000000010B5002958
:10A6100003D1FFF7DDFF203002E0081CFFF7D8FF71
:10A6200010BDC046B0B500AF72B6494B1A68484B72
:10A6300080210A431A60474B1B780133DAB2454B3D
:10A640001A70444B1B78012B77D9424B00221A70A9
:10A65000414B2720185C28241C5D24022043292418
:10A660001C5D240420432A241C5D24062043010091
:10A670002B20185C2C241C5D240220432D241C5DFF
:10A68000240420432E241B5D1B0603431A000123D0
:10A690000024C9186241304B2733FF2008400500D1
:10A6A000187800242040041C281C20431870080A35
:10A6B000FF2420400500587800242040041C281C5A
:10A6C00020435870080CFF2420400500987800248F
:10A6D0002040041C281C204398700D0ED8780024BC
:10A6E0002040041C281C2043D870FF201040050087
:10A6F000187900242040041C281C20431871100ADB
:10A70000FF2420400500587900242040041C281C08
:10A7100020435871100CFF24204005009879002434
:10A720002040041C281C20439871100EDA79002167
:10A730000A40111C021C0A43DA71084B1A68074BC5
:10A7400080210A431A6062B6C046BD46B0BDC0460D
:10A7500000000440800800205C0E002000500440EF
:10A76000B0B586B002AF72B62B4B1B68002B41DA36
:10A77000294B5A680E217B181A807B181A88FA23F5
:10A780005B009A4236D9254BE8229A5CE9215B5C52
:10A790001B0213439BB2013399B2204BE822FF20E6
:10A7A00008400500985C00242040041C281C20431D
:10A7B0009854090A88B29B185A7800210A40111C43
:10A7C000021C0A435A70154BE8229A5CE9215B5C33
:10A7D0001B0213439BB21A003B1D1900100001F02D
:10A7E00057FF03000E4A009313001F22D12124209B
:10A7F00002F00EFF084B1A68074B802109060A4336
:10A800001A60054B1A68044B80218A431A6062B6AD
:10A81000C046BD4604B0B0BD005004405C0E0020F0
:10A820003084000090B583B000AF72B60F4B1B6848
:10A8300000209847031E13D00D4B1B68FC1DBA1D4A
:10A8400011000020984703002370BB1D1B78002BCC
:10A8500006D0084B1B68FA1D12781100002098479B
:10A8600062B6C046BD4603B090BDC046DC080020BD
:10A87000280900207009002090B583B000AF72B69F
:10A880000C4B1B68FC1DBA1D1100012098470300EA
:10A890002370BB1D1B78002B07D0074B1B68074C90
:10A8A0000749FA1D10782200984762B6C046BD4697
:10A8B00003B090BD28090020500900204C0A002058
:10A8C000740F0020F0B5C64600B5C04CA54402AFD9
:10A8D00072B6002200239D21C90010208446BC448A
:10A8E00061440A604B60002200239721C9001020B8
:10A8F0008446BC4461440A604B600023B44A102182
:10A900008C46BC4462441360B24B10229446BC4453
:10A91000634401221A70B04B10229446BC44634435
:10A9200000221A70AD4B10229446BC4463440022AE
:10A930001A80AB4B10229446BC4463441822FF3269
:10A940001A80A84B10229446BC446344AD221A805E
:10A95000002200239921C90010208446BC44614490
:10A960000A604B60002200239B21C900102084460E
:10A97000BC4461440A604B609B4B10229446BC442B
:10A98000634400221A70994B00221A8002F03AFBAD
:10A9900001F0B8FF964B1B681022BA1810009847B8
:10A9A000944B1B68012098470021052002F06AFBA8
:10A9B000914B1B68FA225200100098478F4B1B687E
:10A9C0008F4A1100032098478E4B1B68984702F06E
:10A9D00083FB01F0F7FC8C4B19001C2002F038FBC4
:10A9E0008A4B19001A2002F033FB894B19000D2005
:10A9F00002F02EFB874B1B689847874B1B689847D4
:10AA000062B6864B1B6886490022080011009847F1
:10AA1000844B1E680323102200210020B047824B84
:10AA20001B689622D2001400102179188E181A2063
:10AA300098470300338022001023FB189B181B88C3
:10AA40001800FFF7B5FC794A794BFEF7C1FE02000A
:10AA50000B00100019000022764BFEF7B9FE020031
:10AA60000B00100019000022734BFEF7AFFB020031
:10AA70000B00100019000022704BFFF71BF90200B9
:10AA80000B00100019006E4A6E4BFEF79FFB020090
:10AA90000B0000206C49FFF70DF902000B001000BD
:10AAA0001900FFF711FD031C684A10217918891855
:10AAB0000B601023FB189B181868FFF7B3FC80236A
:10AAC000DB0010229446BC446344012201F04FFE97
:10AAD00003005F4A009313001F226921692002F0DE
:10AAE00097FD5C4B180001F0D1F95B4B180001F0A9
:10AAF000DFF9584BA7229A5CA821595C09020A4346
:10AB0000A921595C09040A43AA215B5C1B06134373
:10AB10009422D20010218C46BC446244136000236E
:10AB20004E4A10218C46BC44624413604C4B1B7847
:10AB3000DBB25B09DBB21A000123134000D191E0C4
:10AB4000444BA7229A5CA821595C09020A43A92117
:10AB5000595C09040A43AA215B5C1B061343591C78
:10AB60003C4BA722FF2008408446985C00263040DA
:10AB7000061C604630439854080AFF263040804641
:10AB8000981846780024A44664462640B4464646B3
:10AB90006446344326004670080CFF263040804649
:10ABA000981886780024A44664462640B446464653
:10ABB0006446344326008670080E9B18DA7800211C
:10ABC0000A40111C021C0A43DA7069E0F8FAFFFF20
:10ABD000E4040000E3040000D5040000B604000013
:10ABE000B4040000B2040000D4040000740F00207C
:10ABF00074090020680900200C0900205409002075
:10AC00001100CC00C408002025A6000061A70000A8
:10AC100079A80000C80800203C090020EC080020AA
:10AC2000007A495A4C090020D808002066666666FA
:10AC300066660A4000408F40E0FFEF4000788640A3
:10AC4000713D0AD7A370FB3F00003940AC040000FF
:10AC5000308400009C0900205C0E0020A404000049
:10AC600000F007408F4B1B78DBB2DB09DBB21A0028
:10AC70000123134014D08C4BA722995C0020014083
:10AC80009954991848780026304048709918887867
:10AC90000026304088709B18DA7800210A40DA706C
:10ACA000814BA7229A5CA821595C09020A43A92179
:10ACB000595C09040A43AA215B5C1B061343BB6071
:10ACC0000023FB609423DB0010229446BC446344C1
:10ACD0001B68BA68934208D1744B10229446BC4456
:10ACE00063441B68FA68934210D0714B1B683F2085
:10ACF0009847704B1C686C496F4B10229446BC44BB
:10AD000063441A880B0000213F20A0476B4B1B684F
:10AD1000012098476A4A962359006A4B0093130012
:10AD20001F22042002F074FC674B180001F0BEFDE6
:10AD3000634A96235900654B009313001F22042099
:10AD400002F066FC604B180001F0B0FD5C4A9623EF
:10AD500059005F4B009313001F22042002F058FC9F
:10AD60005C4B1B685C4D1022BA1854195B4A5C4955
:10AD70005C481026B446BC446044984703002370E6
:10AD80004F4A96235900584B009313001F2204206A
:10AD900002F03EFC1023FB185B191B78002B00D13E
:10ADA000BAE04D4B10229446BC4463441B780A2BF6
:10ADB00072D89A004D4BD3181B689F46404A962381
:10ADC00059004B4B009313001F22042002F020FC7B
:10ADD00062E03B4A96235900464B009313001F2222
:10ADE000042002F015FC57E0354A96235900424BE7
:10ADF000009313001F22042002F00AFC4CE0304AAA
:10AE0000962359003D4B009313001F22042002F0AB
:10AE1000FFFB41E02A4A96235900394B0093130067
:10AE20001F22042002F0F4FB36E0254A9623590045
:10AE3000344B009313001F22042002F0E9FB2BE0A7
:10AE40001F4A96235900304B009313001F22042001
:10AE500002F0DEFB20E01A4A962359002B4B0093A8
:10AE600013001F22042002F0D3FB15E0144A96239E
:10AE70005900274B009313001F22042002F0C8FB47
:10AE80000AE00F4A96235900224B009313001F2219
:10AE9000042002F0BDFBC046084B1B680220984707
:10AEA00034E7C04600F007409C090020A4040000DD
:10AEB000BC08002084080020B204000068090020BB
:10AEC00030840000ECDD0000701700000CDE000094
:10AED0002CDE00008C090020D60400003A0A002075
:10AEE0002B0A00203C0400004CDE000034E200008D
:10AEF0006CDE00008CDE0000ACDE0000CCDE00006A
:10AF0000ECDE00000CDF00002CDF00004CDF000056
:10AF10006CDF00008CDF0000C0469D4A962359007C
:10AF20009C4B009313001F22042002F071FB9A49EE
:10AF30008025ED001023FB185B191422180001F086
:10AF40008BFC1023FB185B1900221A75904A102302
:10AF5000FB185B19009313001F222D21462002F0DD
:10AF600057FB8E491023FB185B190422180001F0CF
:10AF700073FC1023FB185B1900221A71844A1023FA
:10AF8000FB185B19009313001F224121462002F099
:10AF90003FFB834B1A688521C9000C001023FB1866
:10AFA0005B1801331800904721001023FB185B1831
:10AFB00020221A701023FB185B1800221A74102329
:10AFC000FB185B180133724A009313001F225521AE
:10AFD000462002F01DFB734B1C6803231022002146
:10AFE0000020A047704B1B689626F6001022BA1866
:10AFF00094191A209847030023801023FB189B19EB
:10B000001B881800FFF7D4F9684A694BFEF7E0FB8C
:10B0100003000C00180021000022664BFEF7D8FB4D
:10B0200003000C00180021000022634BFEF7CEF84D
:10B0300003000C00180021000022604BFEF73AFECE
:10B0400003000C00180021005D4A5E4BFEF7BEF8BD
:10B0500003000C001A00230000205B49FEF72AFEC3
:10B0600003000C0018002100FFF72EFA031C574ABA
:10B070001021791889180B601023FB189B18186889
:10B08000FFF7D0F91023FB185B19012201F06FFBC9
:10B0900003003F4A009313001F226921692002F038
:10B0A000B7FA4B4B10229446BC44634400221A70FA
:10B0B00029E0484B1B688022D20010218C46BC44FA
:10B0C000624410009847031E0AD041491023FB1820
:10B0D0005B181A781023FB185B1801321A7012E003
:10B0E0008021C9001023FB185B1800225A74284ADB
:10B0F0001023FB185B18009313001F2281215A2094
:10B1000002F086FA07E0324B10229446BC446344B6
:10B110001B78042BCDD92E4B10229446BC4463449B
:10B1200000221A702BE02C4B1B682C4D1022BA18F1
:10B1300054192B4A10218C46BC4462441000984795
:10B14000030023701023FB185B191B78002B07D119
:10B15000234B10229446BC4463441B78002B41D1FE
:10B16000FA23DB00180001F0A1FB19491023FB189A
:10B170005B181A781023FB185B1801321A70144BF5
:10B1800010229446BC4463441B78042BCBD92AE09C
:10B1900030840000A8DF0000CE090020000A002053
:10B1A000980900204C090020D808002066666666D1
:10B1B00066660A4000408F40E0FFEF40007886401E
:10B1C000713D0AD7A370FB3F00003940AC0400007A
:10B1D000D7040000CC08002098080020D604000006
:10B1E0001F040000C046D04B10229446BC44634468
:10B1F0001B781A008024E4001023FB181B19190087
:10B20000100001F045FA0300C84A009313001F2202
:10B2100096215A2002F0FCF9C5491023FB181B198E
:10B220000F22180001F018FB1023FB181B19002235
:10B23000DA73BE4A1023FB181B19009313001F2258
:10B24000A921412002F0E4F9BA491023FB181B1987
:10B250000522180001F000FB1023FB181B19002227
:10B260005A71B24A1023FB181B19009313001F22B6
:10B27000BD21412002F0CCF9AC4AAF4B0093130042
:10B280001F22D121242002F0C3F9A84AAB4B00931E
:10B2900013001F22D221B42002F0BAF9A84BA32236
:10B2A0009A5CA421595C09020A43A521595C09044E
:10B2B0000A43A6215B5C1B0613431A001023FB18EC
:10B2C0001B191900100001F0E3F90300974A0093DD
:10B2D00013001F22D221B42002F09AF99920C00055
:10B2E0001023FB181B185C681B68012100225B18E7
:10B2F00054411022BA18121813605460914B272041
:10B30000185C28241C5D2402204329241C5D24048D
:10B3100020432A241C5D2406204301002B20185CB6
:10B320002C241C5D240220432D241C5D2404204376
:10B330002E241B5D1B0603431A009D23DB001020F7
:10B340008446BC4463441B688B4208D17E4B10206A
:10B350008446BC4463441B68934200D17EE0794B31
:10B360002720185C28241C5D2402204329241C5D0E
:10B37000240420432A241C5D2406204301002B20A2
:10B38000185C2C241C5D240220432D241C5D240405
:10B3900020432E241B5D1B0603431A009D23DB0064
:10B3A00010208446BC44634419605A60674B1B6894
:10B3B0001022BA18100098475C4A1023FB1800931B
:10B3C00013001F22E621312002F022F9052001F0AE
:10B3D00071FE5C4B27229A5C2821595C09020A43C2
:10B3E0002921595C09040A432A21595C09060A43A8
:10B3F00014002B229A5C2C21595C09020A432D214E
:10B40000595C09040A432E215B5C1B0613431D0093
:10B410004B4BA3229A5CA421595C09020A43A52143
:10B42000595C09040A43A6215B5C1B0613433B607D
:10B4300000237B603A687B6820002900FDF7E4FD6B
:10B440001C001300190022000B00134306D1404BCF
:10B4500010229446BC44634401221A70394BE822FE
:10B460009A5CE9215B5C1B0213439BB21A00394BC7
:10B4700010218C46BC4463441B68934224D0314B5A
:10B48000E8229A5CE9215B5C1B0213439BB2314AC0
:10B4900010218C46BC44624413602A4BE8229A5C1B
:10B4A000E9215B5C1B0213439BB203211800FDF7EB
:10B4B000BBFC0B009BB2002B06D1254B10229446FF
:10B4C000BC44634401221A70214B10229446BC44B0
:10B4D00063441B78012B00D02FE11A4B180000F0B9
:10B4E0004FFE174BAB229B5C552B39D1144BAC2232
:10B4F0009B5C302B34D118491023FB185B18174A7A
:10B5000010208446BC44624412881A801023FB1821
:10B510005B181A880B49142310208446BC446344EA
:10B52000180001F099F974E01F0400003084000055
:10B530002B0A00203A0A0020C8DF0000CCDF000000
:10B540009C0900205C0E0020EC040000740900201F
:10B55000E3040000E4040000C6040000B40400009A
:10B56000E04BAB229B5C552B53D1DE4BAC229B5C5A
:10B57000312B4ED1DC4914241023FB181B19022255
:10B58000180001F069F91023FB181B190233D74981
:10B590000F22180001F060F91023FB181B1911335A
:10B5A000D3490822180001F057F91023FB181B1982
:10B5B0001933D0490422180001F04EF91023FB186A
:10B5C0001B191D33CC490122180001F045F9102345
:10B5D000FB181B191E33C9490222180001F03CF95F
:10B5E0001023FB181B192033C5490222180001F053
:10B5F00033F91023FB181B192233C24919221800F2
:10B6000001F02AF9C04B10229446BC4463443B220B
:10B610001A80BE4ABE4B009313001F2296215A2067
:10B6200001F0F6FFBB4BE5229B5C1A008023DB0098
:10B6300010218C46BC4463441900100001F028F826
:10B640000300B24A009313001F2296215A2001F0F2
:10B65000DFFFAE4A96235900AF4B009313001F2221
:10B66000042001F0D5FFAD4B1B68AD4D1022BA1878
:10B6700054191422102179188918A34A10208446DD
:10B68000BC446244128810009847030023709F4A0C
:10B6900096235900A34B009313001F22042001F0AE
:10B6A000B7FF1023FB185B191B78002B11D1974AA9
:10B6B000962359009C4B009313001F22042001F095
:10B6C000A7FF9A4B10229446BC44634400221A8080
:10B6D0002CE0C046924B10229446BC4463441B7835
:10B6E000012B02D0022B0BD015E0884A962359007B
:10B6F0008F4B009313001F22042001F089FF0AE002
:10B70000824A962359008B4B009313001F2204207A
:10B7100001F07EFFC046884B1B68884A88498948EB
:10B720001024A446BC4460449847C046864B10226F
:10B730009446BC44634400221A70844B1B88002B3F
:10B7400000D170E39B20C0001023FB181B185C681D
:10B750001B68012100225B1854411022BA181218EC
:10B76000136054601023FB181B181B688022D20042
:10B7700010218C46BC4462441100180000F088FF80
:10B780000300624A009313001F22F9215A2001F09E
:10B790003FFF5E4A962359006D4B009313001F2212
:10B7A000042001F035FF5E4B10229446BC446344F4
:10B7B000FF221A70544B10229446BC44634400226A
:10B7C0001A806449FF24A4001023FB181B190222CD
:10B7D000180001F041F85F49142310229446BC443C
:10B7E00063440222180001F037F81023FB181B19DC
:10B7F0001B78412B23D1FF239B0010229446BC448D
:10B8000063445B78302B1AD13F4B10229446BC44E2
:10B81000634451491022BA185218128802321A8011
:10B82000142310229446BC44634402331022BA18F5
:10B83000521812882B49180001F00EF873E2FF230A
:10B840009B0010229446BC4463441B78412B1FD1BB
:10B85000FF239B0010229446BC4463445B78312B49
:10B8600016D129491023FB185B1891221A80142342
:10B8700010229446BC44634402331022BA18521872
:10B880001288023A92B21749180000F0E5FF4AE226
:10B89000FF239B0010229446BC4463441B78412B39
:10B8A0005CD1FF239B0010229446BC4463445B7828
:10B8B000322B53D114491023FB185B1816221A801F
:10B8C000142310229446BC44634402331022BA1855
:10B8D00052181288023A92B21949180000F0BCFFBF
:10B8E00021E2C0469C090020470A0020600E00208B
:10B8F000830E00200F0F0020410F0020420F002078
:10B90000440F00205A0F0020C604000030840000BD
:10B91000D8DF00005C0E0020E0DF000014090020EA
:10B92000D604000000E0000020E00000B6040000A3
:10B9300040E0000060E000008C0900203A0A00208E
:10B940002B0A00203C040000E3040000740F0020D8
:10B9500080E000004C0A0020B2040000FF239B009E
:10B9600010229446BC4463441B78412B1FD1FF2313
:10B970009B0010229446BC4463445B78332B16D161
:10B98000C3491023FB185B180A221A8014231022C3
:10B990009446BC44634402331022BA1852181288E9
:10B9A000023A92B2BB49180000F056FFBBE1FF23F8
:10B9B0009B0010229446BC4463441B78422B31D137
:10B9C000FF239B0010229446BC4463445B78302BD9
:10B9D00028D1B14B10229446BC4463441A88AF4925
:10B9E000AF4B180000F038FFAE4B10229446BC4419
:10B9F000634401221A70A6491023FB185B18092220
:10BA00001A80142310229446BC446344023310224B
:10BA1000BA1852181288023A92B2A349180000F0DC
:10BA20001BFF80E1FF239B0010229446BC4463442B
:10BA30001B78422B2CD1FF239B0010229446BC4440
:10BA400063445B78312B23D19449954B7C221800B9
:10BA500000F002FF934B10229446BC446344012241
:10BA60001A708B491023FB185B1809221A801423C3
:10BA700010229446BC44634402331022BA18521870
:10BA80001288023A92B28849180000F0E5FE4AE1B5
:10BA9000FF239B0010229446BC4463441B78422B36
:10BAA0002CD1FF239B0010229446BC4463445B7856
:10BAB000322B23D179497D4B1E22180000F0CCFE99
:10BAC000784B10229446BC44634401221A7070499A
:10BAD0001023FB185B1809221A80142310229446A5
:10BAE000BC44634402331022BA1852181288023A36
:10BAF00092B26D49180000F0AFFE14E1FF239B00E5
:10BB000010229446BC4463441B78422B2CD1FF2363
:10BB10009B0010229446BC4463445B78332B23D1B2
:10BB20005E495C4B0822180000F096FE5D4B102227
:10BB30009446BC44634401221A7055491023FB18F3
:10BB40005B1809221A80142310229446BC446344D3
:10BB500002331022BA1852181288023A92B252498D
:10BB6000180000F079FEDEE0FF239B0010229446CF
:10BB7000BC4463441B78552B2FD1FF239B0010221C
:10BB80009446BC4463445B78302B26D1FF239B0052
:10BB90001022BA18D118464B0222180000F05CFEA1
:10BBA000444B1B88444A10218C46BC446244128892
:10BBB0009A420AD1404B10229446BC4463441A88EE
:10BBC0003E493F4B180000F047FE3E4B1022944682
:10BBD000BC44634401221A70A5E0FF239B0010229D
:10BBE0009446BC4463441B78552B00D086E0FF2369
:10BBF0009B0010229446BC4463445B78312B00D0F8
:10BC00007CE0FF239B001022BA18D118284B022297
:10BC1000180000F021FE274B1B883B2B2FD1274912
:10BC2000274B0222180000F017FE1C49264B0F225A
:10BC3000180000F011FE2549254B0822180000F0DD
:10BC40000BFE2449244B0422180000F005FE234972
:10BC5000234B0122180000F0FFFD2249224B022253
:10BC6000180000F0F9FD2149214B0222180000F0D4
:10BC7000F3FD2049204B1922180000F0EDFD114B77
:10BC800010229446BC44634401221A704BE0C04623
:10BC9000C60400003F0A0020B20400004E0A002043
:10BCA0009C090020D5040000A4E000002B0A00201D
:10BCB000470A0020740F0020B40400004C0A002042
:10BCC0005C0E0020D4040000600E00205D0A0020FD
:10BCD000830E0020650A00200F0F0020690A002053
:10BCE000410F00206A0A0020420F00206C0A002049
:10BCF000440F00206E0A00205A0F0020514B1B8871
:10BD0000514A10218C46BC44624412889A420AD19E
:10BD10004D4B10229446BC4463441A884B494C4B0B
:10BD2000180000F099FD4B4B10229446BC4463442C
:10BD30001B88002B13D0484B1B68484A10217918E8
:10BD40008C181422102179188918424A1020844630
:10BD5000BC44624412881000984703002370394B9A
:10BD600000221A803D4B10229446BC4463441B7849
:10BD7000002B0AD13A4A962359003A4B00931300FC
:10BD80001F22042001F044FC1CE0344B1022944696
:10BD9000BC4463441B78FF2B0AD1314A96235900D7
:10BDA000314B009313001F22042001F031FC09E005
:10BDB0002B4A962359002D4B009313001F22042079
:10BDC00001F026FC2A4B10229446BC4463441B78A5
:10BDD000012B1ED1274B1B683F209847264B1C6820
:10BDE0002649274B10229446BC4463441A880B0012
:10BDF00000213F20A0471E4B10229446BC446344C0
:10BE000000221A701F4B10229446BC446344012246
:10BE10001A701C4B10229446BC4463441B78012BBF
:10BE200001D100F0A9FB9923DB0010229446BC4409
:10BE3000634418685968144A0023FDF7E5F8FFF7D2
:10BE40004DFAC046740F0020B40400004C0A0020D4
:10BE50005C0E0020C604000014090020D604000077
:10BE600030840000ACE00000D0E0000060E00000A2
:10BE7000D5040000BC080020840800209C09002094
:10BE8000B2040000D404000080BB000090B583B071
:10BE900000AF7860054B1C687868AD2300223F2115
:10BEA000A047C046BD4603B090BDC0462009002053
:10BEB000B0B582B000AF78607B68A6490222180056
:10BEC00000F0CAFC7968A44B0222180000F0C4FC00
:10BED0007B689A7800210A409A70DA7800210A403B
:10BEE000DA707B6813339D490F22180000F0B4FC10
:10BEF0007B6822339A490522180000F0ADFC994B6B
:10BF00006820185C69241C5D240220436A241C5D9F
:10BF1000240420436B241C5D2406204301006C2074
:10BF2000185C6D241C5D240220436E241C5D2404D7
:10BF300020436F241B5D1B0603431A007B682733D5
:10BF4000FF2008400500187800242040041C281C0D
:10BF500020431870080AFF24204005005878002468
:10BF60002040041C281C20435870080CFF2420404B
:10BF70000500987800242040041C281C2043987059
:10BF80000D0ED87800242040041C281C2043D870B3
:10BF9000FF2010400500187900242040041C281CB4
:10BFA00020431871100AFF2420400500587900240E
:10BFB0002040041C281C20435871100CFF242040F2
:10BFC0000500987900242040041C281C2043987107
:10BFD000100EDA7900210A40111C021C0A43DA71A2
:10BFE000604BA7229A5CA821595C09020A43A92147
:10BFF000595C09040A43AA215B5C1B0613431A001F
:10C000007B682F33FF2111400C001978002001407C
:10C01000081C211C01431970110AFF2001400C006B
:10C02000597800200140081C211C01435970110C53
:10C03000FF2001400C00997800200140081C211CC1
:10C0400001439970100EDA7800210A40111C021C7D
:10C050000A43DA70434BA3229A5CA421595C09027B
:10C060000A43A521595C09040A43A6215B5C1B060F
:10C0700013431A007B683333FF2111400C001978F9
:10C0800000200140081C211C01431970110AFF20E7
:10C0900001400C00597800200140081C211C01437C
:10C0A0005970110CFF2001400C00997800200140CC
:10C0B000081C211C01439970100EDA7800210A40F7
:10C0C000111C021C0A43DA707B683733264914229C
:10C0D000180000F0C1FB7B684B3324490422180090
:10C0E00000F0BAFB7B684F331E491E22180000F097
:10C0F000B3FB7B686D331E491422180000F0ACFBC3
:10C100007B6881331B491422180000F0A5FB7B6873
:10C11000953319491E22180000F09EFB7B68CB3333
:10C1200016490B22180000F097FB7B68E822995C07
:10C130000020014099549B185A7800210A405A70F7
:10C140007B6805490222180000F086FBC046BD4608
:10C1500002B0B0BDF0E00000470A00202B0A00202A
:10C160003A0A00209C0900200C0A0020000A002046
:10C17000BA090020CE090020E2090020200A002090
:10C18000F0B589B002AF78607D4B1A68511C7C4BCA
:10C19000196092B27B68FF2111400C009978002051
:10C1A0000140081C211C01439970120A90B2DA78F0
:10C1B00000210A40111C021C0A43DA70714B1C68F2
:10C1C0000323102200210020A0476F4B1B68162577
:10C1D0007C191A209847030023807B191B881800BC
:10C1E000FEF7E6F8694A6A4BFDF7F2FA03000C0025
:10C1F000180021000022674BFDF7EAFA03000C004B
:10C20000180021000022644BFCF7E0FF03000C0043
:10C21000180021000022614BFDF74CFD03000C00CB
:10C22000180021005E4A5F4BFCF7D0FF03000C00B2
:10C230001A00230000205C49FDF73CFD03000C00C0
:10C24000180021000022594BFDF7C2FA03000C0030
:10C2500018002100FEF776F801007B68B322FF206A
:10C2600008400500985C00242040041C281C204342
:10C270009854080AFF2420400600981844780025A6
:10C280002C40251C341C2C434470080CFF242040F7
:10C2900006009818847800252C40251C341C2C435B
:10C2A0008470080E9B18DA7800210A40111C021CC9
:10C2B0000A43DA707B68B3229A5CB421595C0902A4
:10C2C0000A43B521595C09040A43B6215B5C1B068D
:10C2D00013431800FEF76CF80022344BFCF776FF8E
:10C2E00003000C00180021000C23FB18012200F0B1
:10C2F0003EFA03002E4A009313001F226921692091
:10C3000001F086F9204B1B6814257C1907209847FB
:10C31000030023807B687919E6220D78985C00245D
:10C320002040041C281C2043985448789B185A78B5
:10C3300000210A40111C021C0A435A701D4B1B6845
:10C340007A680432100098471B4B1B687A68D63213
:10C3500010009847194B1B6813243A19100098478E
:10C360003B1919787B68E5229954154B1B687A684C
:10C37000FE3210009847C046BD4607B0F0BDC0462B
:10C38000000800204C090020D80800206666666678
:10C3900066660A4000408F40E0FFEF40007886402C
:10C3A000713D0AD7A370FB3F0000394000002440D4
:10C3B00030840000980900202C09002098080020F3
:10C3C000CC08002080B58AB002AF3B0018001E23C5
:10C3D0001A00002101F000FDA0235A00574B0093E2
:10C3E0001300F0220021002001F063F801230093E4
:10C3F0002623EE220221022001F010FA4F49F823F1
:10C400001A024F4B00930B000F21422001F000F95C
:10C41000002300937B23EE222B21022001F0FEF962
:10C42000464A484B0093130000222D21042001F0BE
:10C43000EFF8424A444B00931300002241210420AC
:10C4400001F0E6F83D4A414B0093130000225521CC
:10C45000042001F0DDF8394A3D4B0093130000221F
:10C460006921042001F0D4F800230093F723EE2281
:10C470007F21022001F0D2F9304A364B009313009D
:10C4800000228121042001F0C3F82C4A324B009392
:10C49000130000229521042001F0BAF8274A2F4BFF
:10C4A000009313000022A921042001F0B1F8234ACF
:10C4B0002B4B009313000022BD21042001F0A8F8AB
:10C4C0001E4A284B009313000022D121042001F0C2
:10C4D0009FF81A4A244B009313000022E521042000
:10C4E00001F096F8154A214B009313001F22E62114
:10C4F000312001F08DF8114A1D4B009313000022EA
:10C50000F921042001F084F89F235A00892359005F
:10C51000012300931300EE22022001F07FF9074A65
:10C520008A235900134B009313000022042001F0CA
:10C530006FF8C046BD4608B080BDC04630840000DC
:10C54000F4E0000004E1000010E100001CE1000044
:10C5500028E1000038E1000044E1000050E1000063
:10C560005CE1000068E1000080E1000088E100007B
:10C570009CE10000A8E1000080B58AB002AF3B005A
:10C5800018001E231A00002101F026FC39493B0047
:10C590001422180000F060F93B0000221A75364A98
:10C5A0003B00009313001F222D21462001F030F89C
:10C5B00032493B000422180000F04EF93B000022F3
:10C5C0001A712D4A3B00009313001F22412146207F
:10C5D00001F01EF8284A2A4B009313001F22D22193
:10C5E000B42001F015F8274BA3229A5CA421595CD2
:10C5F00009020A43A521595C09040A43A6215B5C90
:10C600001B0613431A003B001900100000F040F80D
:10C610000300194A009313001F22D221B42000F016
:10C62000F7FF19493B000F22180000F015F93B00F5
:10C630000022DA73104A3B00009313001F22A92145
:10C64000412000F0E5FF11493B000522180000F0F1
:10C6500003F93B0000225A71074A3B000093130084
:10C660001F22BD21412000F0D3FFC046BD4608B0C7
:10C6700080BDC046CE09002030840000000A0020A2
:10C68000CCDF00009C0900202B0A00203A0A002081
:10C6900090B589B000AF786039601F23FB18002285
:10C6A0001A707B68002B0ADA1F22BB181B78BA1895
:10C6B000591C11701A003B689B182D221A707B6858
:10C6C000BB611E23FB1800221A701AE0BB690A2105
:10C6D0001800FCF793FC0B00DAB21E217B181B78C4
:10C6E0007918581C0870190013003033DAB20C2383
:10C6F000FB185A54BB690A211800FCF799FB030088
:10C70000BB61BB69002BE1D11D23FB1800221A700D
:10C7100019E01E23FB181A781D243B191B78D31A25
:10C720005A1E1F217B181B787918581C0870190095
:10C730003B685B180C2179188A5C1A703B191A78CF
:10C740003B1901321A701D23FA181E23FB181278A8
:10C750001B789A42DDD31F23FB181B783A68D31845
:10C7600000221A703B681800BD4609B090BDB0B5F4
:10C7700088B000AFB860F9607A603B601E23FB1898
:10C7800001221A807B68BB6108E01E23FA18FB189F
:10C790001B88191C8900CB18DB181380BB695A1E33
:10C7A000BA61002BF1D11E257B191B881800FDF7FB
:10C7B000FFFDBA68FB68FDF70BF803000C001800DA
:10C7C0002100FDF7BFFD03007B613A687B69110022
:10C7D0001800FFF75DFF7B68BB617B1900221A80A0
:10C7E00005E01E217B181A887B1801321A801E234F
:10C7F000FB181B883A68D3181B78002BF1D11E2335
:10C80000FB181A887B68D3181A003B689B18002213
:10C810001A7010E01E203B181B88013B3A68D218A2
:10C820003B181B883968CB1812781A703B183A18D5
:10C830001288013A1A80BB695A1EBA61002BE9D1ED
:10C840001E23FB181B883A68D3182E221A703B68E7
:10C850001800BD4608B0B0BD80B586B000AFF86026
:10C86000B960BB1D1A8016217B1800221A807B1824
:10C8700000221A800FE016203B181B88BA68D218D5
:10C880003B181B88F968CB1812781A703B181A8865
:10C890003B1801321A801623FA18BB1D12881B8818
:10C8A0009A42E8D3C046BD4606B080BD80B584B08C
:10C8B00000AF0200BB1D1A800E23FB1800221A8055
:10C8C00012E00023BB6003E0C046BB680133BB60DD
:10C8D000BB680B4A9342F7D90E217B181B889BB289
:10C8E00001339AB27B181A800E23FB181B889BB267
:10C8F000BA1D12889A42E4D8C046BD4604B080BD35
:10C900006710000080B5C8B000AF84231B028E21E1
:10C9100049007A1813608C235A007B1819683B1D54
:10C920001800FFF799FFFE4B902252009446BC443A
:10C9300063441B681A00FB4B1A60F94B90225200AB
:10C940009446BC4463445B681A00F74B1A60F44B8E
:10C95000902252009446BC4463449B681A00F34BF7
:10C960001A60EF4B902252009446BC446344DB684B
:10C970001A00EF4B1A60EA4B902252009446BC44D6
:10C9800063441B691A00EB4B1A60E54B902252007E
:10C990009446BC4463445B691A00E74B1A60E04B61
:10C9A000902252009446BC4463449B691A00E34BB6
:10C9B0001A60DB4B902252009446BC446344DB690E
:10C9C0001A00DF4B1A60D64B902252009446BC44AA
:10C9D00063441B6A1A00DB4B1A60D14B9022520051
:10C9E0009446BC4463445B6A1A00D74B1A60CC4B34
:10C9F000902252009446BC4463449B6A1A00D34B75
:10CA00001A60C74B902252009446BC446344DB6AD0
:10CA10001A00CF4B1A60C24B902252009446BC447D
:10CA200063441B6B1A00CB4B1A60BD4B9022520023
:10CA30009446BC4463445B6B1A00C74B1A60B84B06
:10CA4000902252009446BC4463449B6B1A00C34B33
:10CA50001A60B34B902252009446BC446344DB6B93
:10CA60001A00BF4B1A60AE4B902252009446BC4451
:10CA700063441B6C1A00BB4B1A60A94B90225200F6
:10CA80009446BC4463445B6C1A00B74B1A60A44BD9
:10CA9000902252009446BC4463449B6C1A00B34BF2
:10CAA0001A609F4B902252009446BC446344DB6C56
:10CAB0001A00AF4B1A609A4B902252009446BC4425
:10CAC00063445B691A00AB4B1A60954B902252008D
:10CAD0009446BC4463445B6D1A00A74B1A60904BAC
:10CAE000902252009446BC4463449B6D1A00A34BB1
:10CAF0001A608B4B902252009446BC446344DB6D19
:10CB00001A009F4B1A60864B902252009446BC44F8
:10CB100063441B6E1A009B4B1A60814B902252009B
:10CB20009446BC4463445B6E1A00974B1A607C4B7E
:10CB3000902252009446BC4463449B6E1A00934B6F
:10CB40001A60774B902252009446BC446344DB6EDB
:10CB50001A008F4B1A60724B902252009446BC44CC
:10CB600063441B6F1A008B4B1A606D4B902252006E
:10CB70009446BC4463445B6F1A00874B1A60684B51
:10CB8000902252009446BC4463449B6F1A00834B2E
:10CB90001A60634B902252009446BC446344DB6F9E
:10CBA0001A007F4B1A605E4B902252009446BC44A0
:10CBB000634480229B581A007A4B1A60584B90228B
:10CBC00052009446BC44634484229B581A00764B1E
:10CBD0001A60534B902252009446BC44634488220E
:10CBE0009B581A00714B1A604D4B9022520094468C
:10CBF000BC4463448C229B581A006D4B1A60484B0E
:10CC0000902252009446BC44634490229B581A00E0
:10CC1000684B1A60424B902252009446BC446344D5
:10CC200094229B581A00644B1A603D4B902252008C
:10CC30009446BC44634498229B581A005F4B1A6088
:10CC4000374B902252009446BC4463449C229B582C
:10CC50001A005B4B1A60324B902252009446BC443F
:10CC60006344A0229B581A00564B1A602C4B90220A
:10CC700052009446BC446344A4229B581A00524B71
:10CC80001A60274B902252009446BC446344A82269
:10CC90009B581A004D4B1A60214B9022520094462B
:10CCA000BC446344AC229B581A00494B1A601C4B8D
:10CCB000902252009446BC446344B0229B581A0010
:10CCC000444B1A60164B902252009446BC44634475
:10CCD000B4229B581A00404B1A60114B902252000C
:10CCE0009446BC446344B8229B581A003B4B1A60DC
:10CCF0000B4B902252009446BC446344BC229B5888
:10CD00001A00374B1A60064B902252009446BC44DE
:10CD10006344C0229B581A00324B1A6064E0C0463C
:10CD2000E4FEFFFF74090020EC0800204C090020FD
:10CD3000D8080020C4080020BC0800208408002077
:10CD4000200900208C080020B0080020580900208D
:10CD5000900900207C090020F808002084090020A8
:10CD6000600900205C0900201809002088080020C4
:10CD700034090020B4080020900800200C0900208D
:10CD800040090020C8080020A408002064090020F1
:10CD9000240900209C080020FC0800201009002025
:10CDA00094090020D408002054090020F408002031
:10CDB000B80800203C09002008090020D008002005
:10CDC000F008002070090020A0080020E8080020DA
:10CDD00028090020E0080020A8080020C008002042
:10CDE000DC08002000090020704B9022520094467D
:10CDF000BC446344C4229B581A006D4B1A606B4BB1
:10CE0000902252009446BC446344C8229B581A00A6
:10CE1000684B1A60654B902252009446BC446344B0
:10CE2000CC229B581A00644B1A60604B902252002F
:10CE30009446BC446344D0229B581A005F4B1A604E
:10CE40005A4B902252009446BC446344D4229B58CF
:10CE50001A005B4B1A60554B902252009446BC441A
:10CE60006344D8229B581A00564B1A604F4B9022AD
:10CE700052009446BC446344DC229B581A00524B37
:10CE80001A604A4B902252009446BC446344E0220C
:10CE90009B581A004D4B1A60444B90225200944606
:10CEA000BC446344E4229B581A00494B1A603F4B30
:10CEB000902252009446BC446344E8229B581A00D6
:10CEC000444B1A60394B902252009446BC44634450
:10CED000EC229B581A00404B1A60344B90225200AF
:10CEE0009446BC446344F0229B581A003B4B1A60A2
:10CEF0002E4B902252009446BC446344F4229B582B
:10CF00001A00374B1A60294B902252009446BC44B9
:10CF10006344F8229B581A00324B1A60234B90222C
:10CF200052009446BC446344FC229B581A002E4B8A
:10CF30001A601E4B902149007A18D21880235B009A
:10CF4000D3581A00294B1A60184B7A18D21882232A
:10CF50005B00D3581A00264B1A60144B7A18D2186B
:10CF600084235B00D3581A00224B1A600F4B7A18A7
:10CF7000D21886235B00D3581A001F4B1A600B4B44
:10CF80007A18D21888235B00D3581A001B4B1A60FA
:10CF9000064B7A18D2188A235B00D3581A00184B14
:10CFA0001A60C046BD4648B080BDC046E4FEFFFFE3
:10CFB0008C09002078090020480900206809002019
:10CFC000140900202C09002098090020880900205D
:10CFD00098080020800900204409002094080020BF
:10CFE000CC08002004090020500900206C09002012
:10CFF000E4080020AC080020380900201C090020AB
:10D000003009002080B584B000AF0F4B9B68BB6037
:10D010000E4B7B600023FB600CE0FB689B00BA6852
:10D02000D218FB689B007968CB1812681A60FB68FD
:10D030000133FB60FB682F2BEFDD034B034A9A6043
:10D04000C046BD4604B080BD00ED00E000080020F1
:10D0500080B584B000AF02003960FB1D1A70084B28
:10D060009B68FB60FB1D1B785BB210339B00FA686A
:10D07000D3183A681A60C046BD4604B080BDC046A9
:10D0800000ED00E080B582B000AF0200BB1D1A8049
:10D090007B1D0A1C1A70064B1B687A1D1178BA1D7D
:10D0A00010880A0001219847C046BD4602B080BDE5
:10D0B0009009002080B582B000AF0200BB1D1A802D
:10D0C000044B1B68BA1D128810009847C046BD4625
:10D0D00002B080BD8409002090B583B002AF924BAE
:10D0E0001C68924A00230093002301210020A047DE
:10D0F0008F4B1B688F480022012198478C4B1B687F
:10D100008D480022012198470021002000F016FDE3
:10D110008A4B1B68874A0021100098471420FFF7AC
:10D12000C5FB864B1B68834A0121100098471420D9
:10D13000FFF7BCFBCF2000F0E3FC002000F09AFCDE
:10D14000D92000F097FC302000F094FCED2000F096
:10D15000D7FC642000F08EFC032000F08BFC122032
:10D1600000F088FC812000F085FCE82000F0C8FC7D
:10D17000852000F07FFC102000F07CFC782000F07F
:10D1800079FCCB2000F0BCFC392000F073FC2C2093
:10D1900000F070FC002000F06DFC342000F06AFC10
:10D1A000022000F067FCF72000F0AAFC202000F02D
:10D1B00061FCEA2000F0A4FC002000F05BFC0020F1
:10D1C00000F058FCC02000F09BFC212000F052FC35
:10D1D000C12000F095FC122000F04CFCC52000F0AE
:10D1E0008FFC322000F046FC3C2000F043FCC720BE
:10D1F00000F086FCC12000F03DFC362000F080FCF1
:10D20000082000F037FC3A2000F07AFC552000F0AE
:10D2100031FCB12000F074FC002000F02BFC182041
:10D2200000F028FCB62000F06BFC0A2000F022FC85
:10D23000A22000F01FFCF22000F062FC002000F0B1
:10D2400019FC262000F05CFC012000F013FCE0201B
:10D2500000F056FC0F2000F00DFC202000F00AFC2E
:10D260001E2000F007FC092000F004FC122000F052
:10D2700001FC0B2000F0FEFB502000F0FBFBBA206D
:10D2800000F0F8FB442000F0F5FB092000F0F2FB71
:10D29000142000F0EFFB052000F0ECFB232000F051
:10D2A000E9FB212000F0E6FB002000F0E3FBE12099
:10D2B00000F026FC002000F0DDFB192000F0DAFB76
:10D2C000192000F0D7FB002000F0D4FB122000F062
:10D2D000D1FB072000F0CEFB2D2000F0CBFB282057
:10D2E00000F0C8FB3F2000F0C5FB022000F0C2FBAD
:10D2F0000A2000F0BFFB082000F0BCFB252000F056
:10D30000B9FB2D2000F0B6FB0F2000F0B3FB11207D
:10D3100000F0F6FB7820FFF7C9FA292000F0F0FBB7
:10D32000C046BD4601B090BD6409002070170000E2
:10D330009009002002030000010300007C09002086
:10D3400090B583B000AF040008001100BB1D221C83
:10D350001A803B1D021C1A80BB1C0A1C1A803B1D34
:10D360001C88BB1D1A883B1D1988BB1D188823000B
:10D3700000F0FBFBBB1C1B88180000F099FBC046AB
:10D38000BD4603B090BDB0B58CB000AF05000C0039
:10D3900010001900BB1D2A1C1A803B1D221C1A807C
:10D3A000BB1C021C1A803B000A1C1A800023BB62B3
:10D3B00000237B62BB1C1A88BB1D1B88D31A3B62EF
:10D3C0003B001A883B1D1B88D31AFB61BB1D1B88C1
:10D3D000FB603B1D1B88BB603B6A002B02DD012309
:10D3E0007B610BE03B6A002B02D100237B6105E0EF
:10D3F00001235B427B613B6A5B423B62FB69002B22
:10D4000002DD01233B610BE0FB69002B02D100230D
:10D410003B6105E001235B423B61FB695B42FB61D1
:10D420003A6AFB699A4202DD3B6ABB6101E0FB6933
:10D43000BB612E23FB1800221A802FE0FB689BB2F1
:10D44000BA6891B24022BA1812881800FFF778FF24
:10D45000BA6A3B6AD318BB627A6AFB69D3187B62EB
:10D46000BA6ABB699A4207DDBA6ABB69D31ABB6262
:10D47000FA687B69D318FB607A6ABB699A4207DD58
:10D480007A6ABB69D31A7B62BA683B69D318BB60FE
:10D490002E217B181A887B1801321A802E23FB1844
:10D4A0001A88BB6901339A42C8DDC046BD460CB03C
:10D4B000B0BDB0B584B000AF05000C00100019007D
:10D4C000BB1D2A1C1A803B1D221C1A80BB1C021C7F
:10D4D0001A803B000A1C1A803B001C88BB1C1A885F
:10D4E0003B1D1988BB1D1888230000F03EFB0E234E
:10D4F000FB183A1D12881A801EE00C23FB18BA1D77
:10D5000012881A800BE02023FB181B88180000F0FB
:10D51000CFFA0C217B181A887B1801321A800C2351
:10D52000FA18BB1C12881B889A42ECD90E217B1872
:10D530001A887B1801321A800E23FA183B001288D1
:10D540001B889A42D9D9C046BD4604B0B0BDB0B51B
:10D5500084B000AF05000C0010001900BB1D2A1C90
:10D560001A803B1D221C1A80BB1C021C1A803B0027
:10D570000A1C1A803B6ABB60BB1D1B880F339AB222
:10D580003B1D1B880F339CB23B1D1988BB1D18889F
:10D59000230000F0EAFA0E23FB1800221A702EE096
:10D5A0000F23FB1800221A701BE0BB681B781A00BF
:10D5B0000F23FB181B781A4113000122134005D0DA
:10D5C000BB1C1B88180000F073FA04E03B001B88AA
:10D5D000180000F06DFA0F217B181A787B180132C1
:10D5E0001A700F23FB181B78072BDED9BB68013399
:10D5F000BB600E217B181A787B1801321A700E233B
:10D60000FB181B781F2BCBD9C046BD4604B0B0BD5C
:10D61000B0B588B002AF05000C0010001900BB1DAA
:10D620002A1C1A803B1D221C1A80BB1C021C1A805B
:10D630003B000A1C1A801523FB1800221A70E0E038
:10D6400072B6BB6A1B781F2B6BD9BB6A1B787E2B0B
:10D6500067D8704B3B6115217B181B789BB2DB00B0
:10D660009AB2BB1D1B88D31898B27B181B789BB24B
:10D67000DB009AB2BB1D1B88D3189BB207339AB24A
:10D680003B1D1B880F339CB23B1D1988230000F003
:10D690006CFABB6A1B78203B1B011A003B699B1884
:10D6A0003B611623FB1800221A702EE01723FB188B
:10D6B00000221A701BE03B691B781A001723FB1825
:10D6C0001B781A4113000122134005D0BB1C1B8894
:10D6D000180000F0EDF904E03B001B88180000F092
:10D6E000E7F917217B181A787B1801321A70172373
:10D6F000FB181B78072BDED93B6901333B611621F0
:10D700007B181A787B1801321A701623FB181B78C5
:10D710000F2BCBD915217B181A787B1801321A7080
:10D720006BE0BB6A1B787E2B67D91723FB1800229E
:10D730001A7057E00F203B18BA6A12781A700E233D
:10D74000FB18BA6A52781A7017243B191A783249B2
:10D7500013001B019B185B005A560D257B191A708C
:10D760003B191A782C4913001B019B185B00CB183E
:10D77000013300229A560C23FB181A703A187B19B1
:10D7800012781B789A4227D10E23FA180C23FB1823
:10D7900012781B789A421FD11523FB181B789BB275
:10D7A000DB009AB2BB1D1B88D31898B21723FB1855
:10D7B0001A7813001B019B185B00174A9B18023351
:10D7C0003A001588BA1C14883A1D118800932B0062
:10D7D0002200FFF7BCFE0AE017217B181A787B189D
:10D7E00001321A701723FB181B78052BA2D91522BA
:10D7F000BB18BA18127801321A70BB6A0133BB62C7
:10D8000062B6BB6A1B78002B00D019E7C046BD4644
:10D8100006B0B0BD60E2000060E80000F0B587B07F
:10D8200002AF05000C0010001900BB1D2A1C1A8055
:10D830003B1D221C1A80BB1C021C1A803B000A1CC8
:10D840001A800C257B19894A1A803B001C88BB1C56
:10D850001A883B1D1988BB1D18887B191B880093EB
:10D860002300FFF726FE0B23FB1802221A707B19F8
:10D8700000221A803B1D1C88BB1C1A883B1D19887E
:10D88000BB1D18887B191B8800932300FFF77BFDC5
:10D890003B001C88BB1D1A883B1D1988BB1D1888BE
:10D8A0007B191B8800932300FFF76DFD7B19002275
:10D8B0001A803B001C88BB1C1A883B1D1988BB1CA6
:10D8C00018887B191B8800932300FFF75CFD3B0041
:10D8D0001C88BB1C1A883B001988BB1D18887B1943
:10D8E0001B8800932300FFF74EFD0F23FB18012236
:10D8F0001A70AEE0202308229446BC4463441B788F
:10D90000002B01D1002200E0594A0C26BB191A80D5
:10D910000F257B191B789AB2BB1D1B88D31898B2B0
:10D920007B191B789AB23B1D1B88D31899B27B19BF
:10D930001B789BB2BA1C1288D31A9CB27B191B7835
:10D940009AB23B1D1B88D3189AB2BB191B8800934F
:10D9500013002200FFF717FD7B191B789AB2BB1D3D
:10D960001B88D31898B27B191B789AB23B1D1B8871
:10D97000D31899B27B191B789AB2BB1D1B88D31898
:10D980009CB27B191B789BB23A001288D31A9AB2C8
:10D99000BB191B88009313002200FFF7F4FC20231F
:10D9A00008229446BC4463441B78002B01D1304AC2
:10D9B00000E000220C26BB191A800F257B191B786A
:10D9C0009BB2BA1C1288D31A98B27B191B789AB2F0
:10D9D0003B1D1B88D31899B27B191B789BB2BA1CCC
:10D9E0001288D31A9CB27B191B789BB23A0012881A
:10D9F000D31A9AB2BB191B88009313002200FFF7B9
:10DA0000C2FC7B191B789AB2BB1D1B88D31898B235
:10DA10007B191B789BB23A001288D31A99B27B19F2
:10DA20001B789BB2BA1C1288D31A9CB27B191B7844
:10DA30009BB23A001288D31A9AB2BB191B88009382
:10DA400013002200FFF79FFC7B191A787B19013223
:10DA50001A700F23FA180B23FB1812781B789A42BE
:10DA600000D247E7C046BD4605B0F0BD3084FFFF99
:10DA7000FFFF000080B582B000AF0200FB1D1A70EE
:10DA8000084B1B68084A012110009847074B1B6888
:10DA9000FA1D1278110000209847C046BD4602B01A
:10DAA00080BDC0467C09002001030000240900203D
:10DAB00080B582B000AF0200BB1D1A800D4B1B6801
:10DAC0000D4A0121100098470C4B1B68BA1D1288A3
:10DAD000120A92B2D2B2110000209847074B1B687D
:10DAE000BA1D1288D2B2110000209847C046BD4628
:10DAF00002B080BD7C090020010300002409002041
:10DB000080B582B000AF0200FB1D1A70084B1B6885
:10DB1000084A002110009847074B1B68FA1D12782D
:10DB2000110000209847C046BD4602B080BDC046E7
:10DB30007C090020010300002409002080B582B088
:10DB400000AF0200FB1D1A703B1D0A1C1A80FB1D52
:10DB50001B781800FFF7D4FF3B1D1B881800FFF748
:10DB6000A7FFC046BD4602B080BDB0B582B000AFD1
:10DB700005000C0010001900BB1D2A1C1A803B1D5B
:10DB8000221C1A80BB1C021C1A803B000A1C1A8033
:10DB90002A20FFF7B5FFBB1D1B881B0A9BB2DBB217
:10DBA0001800FFF767FFBB1D1B88DBB21800FFF7EB
:10DBB00061FFBB1C1B881B0A9BB2DBB21800FFF77E
:10DBC00059FFBB1C1B88DBB21800FFF753FF2B204B
:10DBD000FFF796FF3B1D1B881B0A9BB2DBB21800A8
:10DBE000FFF748FF3B1D1B88DBB21800FFF742FF21
:10DBF0003B001B881B0A9BB2DBB21800FFF73AFF01
:10DC00003B001B88DBB21800FFF734FF2C20FFF726
:10DC100077FFC046BD4602B0B0BD000080B500AF82
:10DC200000F08EF83C493D4AC0239B028B503A4A93
:10DC30003B4BD3583849802292001343384A8B50CB
:10DC4000384B9B78DBB21A000823134007D0354BC2
:10DC50009B78DBB2334A08210B43DBB293702E4929
:10DC60002E4A80235B028B502B4A2F4BD3582A49D4
:10DC70002E4A13402C4A8B50274B1A68264B2C49AE
:10DC80000A401A60244A284BD3582A4A1340224992
:10DC9000802252041343244A8B50274B06221A70C9
:10DCA000254B5B78DBB2244A40210B40DBB253703A
:10DCB000214BDB78DBB25BB21F2213405BB26022E8
:10DCC000524213435AB21C4BD2B2DA701B4B0022A1
:10DCD0001A70194B00221A71174B00225A71C04654
:10DCE000154B9B79DBB21A0010231340F8D0C046C5
:10DCF000114B9B79DBB21A000C231340F8D1064A72
:10DD0000074BD3580449F82292011343044A8B501D
:10DD1000C046BD4680BDC0460070044044100000AF
:10DD20003810000000D0074004100000FFFFFCFF87
:10DD3000FFFFF3FFFFFFFFFC0040064000500640DE
:10DD400080B500AF064A88235B01D35804490C22F2
:10DD500093431A0088235B01CA50C046BD4680BD6C
:10DD600000700440084B10B50400002B02D00021C5
:10DD700000E000BF054B1868836A002B00D098476D
:10DD8000200000F031F8C046000000002CE900003F
:10DD900070B500260C4D0D4C641BA410A64209D191
:10DDA000002600F0C5FD0A4D0A4C641BA410A642D3
:10DDB00005D170BDB300EB5898470136EEE7B300CC
:10DDC000EB5898470136F2E750E9000050E90000AF
:10DDD00050E9000054E9000003001218934200D1FA
:10DDE000704719700133F9E7FEE7C04641484C20FF
:10DDF00052756E202E202020202020202020202040
:10DE000020202020202020200000000041484C201D
:10DE100052756E202E2E2020202020202020202011
:10DE200020202020202020200000000041484C20FD
:10DE3000496E697469616C697A65202E2020202002
:10DE400020202020202020200000000041484C20DD
:10DE5000496E697469616C697A65202E2E202020D4
:10DE6000202020202020202000000000496E69741E
:10DE7000616C204572726F723A4154204572726F24
:10DE8000722020202020202000000000496E6974AC
:10DE9000616C204572726F723A4154453020457270
:10DEA000726F72202020202000000000496E6974EB
:10DEB000616C204572726F723A494D454920457236
:10DEC000726F72202020202000000000496E6974CB
:10DED000616C204572726F723A494D534920457208
:10DEE000726F72202020202000000000496E6974AB
:10DEF000616C204572726F723A42205479706520CD
:10DF00004572726F7220202000000000496E697413
:10DF1000616C204572726F723A4E65742045727260
:10DF20006F7220202020202000000000496E6974BC
:10DF3000616C204572726F723A5044502045727283
:10DF40006F7220202020202000000000496E69749C
:10DF5000616C204572726F723A4765742049502097
:10DF60004572726F7220202000000000496E6974B3
:10DF7000616C204572726F723A4154204F4B2C49AC
:10DF800050204572726F722000000000496E697463
:10DF9000616C204572726F723A5443502045727220
:10DFA0006F7220202020200041484C20496E697467
:10DFB00069616C697A65205375636365737366750F
:10DFC0006C6C792000000000300000002020202030
:10DFD00020202020202000002020202020000000E1
:10DFE00041484C2053656E64202E202020202020A4
:10DFF00020202020202020202020202000000000A1
:10E0000041484C2053656E64202E2E202020202075
:10E010002020202020202020202020200000000080
:10E0200041484C2053656E64205375636365737378
:10E0300066756C6C792020202020202000000000D4
:10E0400053656E64204572726F723A53656E642038
:10E050004E6F742053746172742020200000000001
:10E0600053656E64204572726F723A53656E642018
:10E0700044617461204E6F74204F4B2000000000FB
:10E0800041484C2052656376206F6E652066726150
:10E090006D652020202020202020202020202020EE
:10E0A00020202000737563636573730041484C2022
:10E0B00053656E64205375636365737366756C6C2A
:10E0C0007920202020202020202020202020200017
:10E0D00041484C2052656376204E6F20436F6D6D32
:10E0E000616E6420202020202020202000000000DD
:10E0F00055300000BDF0BAF9C2AB496F542D474509
:10E1000043000000A1BE54797065A1BF200000004B
:10E11000A1BE536F6674A1BF20000000A1BE65536D
:10E12000494DA1BF20000000A1BE54656D7028B606
:10E13000C829A1BF20200000A1BE42534E756DA189
:10E14000BF000000A1BE5369676E616CA1BF2000D3
:10E15000A1BE49202050A1BF00000000A1BE504F29
:10E160005254A1BF000000005453493A20202020FF
:10E17000202020467265712873293A202020000053
:10E1800054696D653A000000323031382D30372D3A
:10E1900030312032313A35353A30300052656376CD
:10E1A000436F756E743A000052756E20537461743B
:10E1B000653A000070940000E2920000269300008F
:10E1C0008A92000026930000169400002693000017
:10E1D0008A920000E2920000E29200001694000091
:10E1E0008A920000829200008292000082920000D7
:10E1F00024940000889900008A9800008A98000002
:10E20000A89B00008498000084980000909B000068
:10E21000A89B000084980000909B00008498000058
:10E22000A89B00009E9B00009E9B00009E9B000000
:10E23000AC9B000098AE0000BCAD0000D2AD000069
:10E24000E8AD0000FEAD000014AE00002AAE0000F4
:10E2500040AE000056AE00006CAE000082AE000082
:10E2600000000000000000000000000000000000AE
:10E270000000183C3C3C181818001818000000005A
:10E280000066666624000000000000000000000038
:10E2900000000036367F3636367F36360000000006
:10E2A00018183E6343033E6061633E181800000087
:10E2B00000000000436330180C066361000000009A
:10E2C00000001C36361C6E3B3333336E00000000FA
:10E2D000000C0C0C06000000000000000000000014
:10E2E000000030180C0C0C0C0C0C18300000000056
:10E2F00000000C18303030303030180C00000000B6
:10E300000000000000663CFF3C66000000000000CA
:10E31000000000000018187E18180000000000001F
:10E320000000000000000000001818180C00000099
:10E33000000000000000007F00000000000000005E
:10E34000000000000000000000001818000000009D
:10E3500000000000406030180C06030100000000BF
:10E3600000003E6363736B6B6763633E00000000F5
:10E370000000181C1E1818181818187E000000003D
:10E3800000003E636030180C0603637F000000004D
:10E3900000003E6360603C606060633E000000001F
:10E3A000000030383C36337F3030307800000000D9
:10E3B00000007F0303033F706060633E00000000C5
:10E3C00000001C0603033F636363633E000000001C
:10E3D00000007F63606030180C0C0C0C0000000023
:10E3E00000003E6363633E636363633E00000000BE
:10E3F00000003E6363637E606060301E00000000CA
:10E4000000000000181800000018180000000000AC
:10E4100000000000181800000018180C0000000090
:10E420000000006030180C060C183060000000007E
:10E430000000000000007F00007F000000000000DE
:10E44000000000060C18306030180C0600000000B8
:10E4500000003E6363301818180018180000000010
:10E460000000003E63637B7B7B3B033E00000000BB
:10E470000000081C3663637F636363630000000071
:10E4800000003F6666663E666666663F0000000006
:10E4900000003C66430303030343663C00000000A6
:10E4A00000001F36666666666666361F000000005E
:10E4B00000007F6646161E160646667F00000000B6
:10E4C00000007F6646161E160606060F00000000B6
:10E4D00000003C664303037B6363665C000000004E
:10E4E0000000636363637F63636363630000000032
:10E4F00000003C18181818181818183C00000000E4
:10E5000000007830303030303333331E00000000EC
:10E510000000676636361E1E36666667000000001D
:10E5200000000F06060606060646667F000000008D
:10E53000000063777F7F6B636363636300000000A9
:10E54000000063676F7F7B73636363630000000099
:10E5500000001C36636363636363361C00000000C5
:10E5600000003F6666663E060606060F00000000D5
:10E5700000003E6363636363636B7B3E3070000047
:10E5800000003F6666663E3666666667000000000D
:10E5900000003E6363061C306063633E00000000C1
:10E5A00000007E7E5A1818181818183C0000000049
:10E5B00000006363636363636363633E00000000A2
:10E5C000000063636363636363361C08000000003C
:10E5D000000063636363636B6B7F3636000000008B
:10E5E0000000636336361C1C36366363000000008F
:10E5F0000000666666663C181818183C00000000AB
:10E6000000007F636130180C0643637F0000000048
:10E6100000003C0C0C0C0C0C0C0C0C3C0000000022
