:1078000000180020E97C0000157D0000157D0000B7
:107810000000000000000000000000000000000068
:10782000000000000000000000000000157D0000C6
:107830000000000000000000157D00001D7D00001C
:10784000157D0000157D0000157D0000157D0000F0
:10785000157D0000157D0000157D0000157D0000E0
:10786000157D0000157D0000157D0000157D0000D0
:10787000757D0000157D0000157D0000157D000060
:10788000157D0000157D0000157D0000157D0000B0
:10789000157D0000157D0000157D0000157D0000A0
:1078A000157D0000157D00004D7D0000157D000058
:1078B000217D0000157D0000157D0000157D000074
:107C0000FFFFFFFFFFFFFFFFFFFFFFFFFEFFFFFF85
:107C100010B5064C2378002B07D1054B002B02D062
:107C2000044800E000BF0123237010BD6408002059
:107C300000000000B883000008B5084B002B03D0FB
:107C40000748084900E000BF07480368002B03D03D
:107C5000064B002B00D0984708BDC046000000002E
:107C6000B8830000680800206008002000000000C1
:107C7000164B002B00D1144B9D46402292029A1ABB
:107C8000924600218B460F461348144A121A00F000
:107C900081FB0F4B002B00D098470E4B002B00D0E0
:107CA00098470020002104000D000D48002802D054
:107CB0000C4800E000BF00F047FB2000290000F066
:107CC0007BF800F02BFBC0460000080000180020E5
:107CD0000000000000000000640800209809002057
:107CE000000000000000000072B600F0A9FA62B6C1
:107CF0000549064A064B9B1A03DD043BC858D05081
:107D0000FBDCFFF7B5FF0000E08300000008002067
:107D10006408002000480047157D00007047C046F9
:107D200072B6074B8022196811431960054B197808
:107D300001311970044B19680A431A6062B6704722
:107D400000000440800800200050044072B6084B38
:107D50001A68002A00DA5B68054B8022196812064F
:107D60000A431A601A6880218A431A6062B6704713
:107D70000050044010B582B072B60C4B00201B6856
:107D80009847002802D162B602B010BD084B6C467D
:107D900007341B68211C002098472378011C002B06
:107DA000F1D0044B00201B689847ECE7D408002072
:107DB000140900205809002070B572B600F02EFAA0
:107DC00000F020F80A4B0520012101221B6898478A
:107DD000084B1B68984762B6074E084D084C33683D
:107DE000052098472B68211C02209847F7E7C046DA
:107DF00074090020C008002068090020E008002065
:107E0000A8830000F0B55F4656464D464446F0B4A0
:107E1000E823D9014868CB688146486ABBB08A68C4
:107E20004F698E69CD690C6A9C460B69009090463B
:107E30008A6A0192C86A02900A6B0392486B0490A6
:107E40008A6B0592C86B06900A6C0792486C089082
:107E50008A6C0992086D0A904A6D0B92886D0C909D
:107E6000CA6D0D92086E0E904A6E0F92886E109039
:107E7000CA6E1192086F12904A6F1392886F149015
:107E8000CA6F159280228A58169284228A581792B5
:107E900088228A5818928C228A58199290228A58DD
:107EA0001A9294228A581B9298228A581C929C22D9
:107EB0008A581D92A0228A581E92A4228A581F9284
:107EC000A8228A582092AC228A582192B0228A583D
:107ED0002292B4228A582392B8228A582492BC2231
:107EE0008A582592C0228A582692C4228A582792FC
:107EF000C8228A582892CC228A582992D0228A589D
:107F00002A92D4228A582B92D8228A582C92DC2288
:107F10008A582D92E0228A582E92E4228A582F9273
:107F2000E8228A583092EC228A583192F0228A58FC
:107F30003292F4228A583392F8228A583492FC22E0
:107F40008A583592802252008A58369282225200F4
:107F50008A583792842252008A58389286225200D8
:107F60008A583992882252008A58086866490860FF
:107F70006648494601606649404608606548614672
:107F80000160654965480B6065490F60654F009960
:107F90003E60654E3560654D2C60654C21600199F1
:107FA0000160029963480160039963480160049984
:107FB0006248016005996248016006996148016064
:107FC0000799614801600899604801600999604813
:107FD000016060480B9903600A985F4B18605F4B23
:107FE0000C9819605E4B0D9918605E4B0E981960E5
:107FF0005D4B0F9918605D4B109819605C4B11999F
:1080000018605C4B129819605B4B186013995B4BBE
:10801000149819605A4B159918605A4B16981960A4
:10802000594B17991860594B18981960584B199962
:108030001860584B1A981960574B1B991860574B8A
:108040001C981960564B1D991860564B1E98196064
:10805000554B18601F99554B20981960544B219926
:108060001860544B22981960534B23991860534B56
:1080700024981960524B25991860524B2698196024
:10808000514B27991860514B28981960504B2999EA
:108090001860504B2A9819604F4B18602B994F4B22
:1080A0002C9819604E4B2D9918604E4B2E981960E4
:1080B0004D4B2F9918604D4B309819604C4B3199AE
:1080C00018604C4B329819604B4B339918604B4BEE
:1080D000349819604A4B359918604A4B36981960A4
:1080E000494B1860494B379938981960484B399972
:1080F0001860484B1960484B1A603BB03CBC904636
:108100009946A246AB46F0BDE4080020380900209D
:10811000D0080020C0080020B80800207409002002
:1081200084080020100900208C080020AC080020E2
:108130004409002060090020F008002068090020A0
:108140004C09002048090020080900208808002068
:1081500020090020B008002090080020000900201D
:1081600028090020C4080020A00800209009002051
:108170008C0900207C090020840900208809002047
:10818000940900208009002040090020EC0800200C
:10819000B40800202C090020FC080020CC08002096
:1081A000E8080020580900209C080020E008002072
:1081B00014090020D8080020A4080020BC080020D2
:1081C000D4080020F4080020700900205C09002079
:1081D000340900205009002004090020180900205B
:1081E000780900206C09002098080020640900200C
:1081F0003009002094080020C8080020F80800205A
:108200003C09002054090020DC080020A8080020B8
:10821000240900200C0900201C090020064B996845
:10822000002306481A18585804331060C02BF8D1A0
:10823000024A014B9A60704700ED00E00008002000
:1082400008B500F061F8264B264AC02189029950F2
:10825000254A80219858890001439950234B9A78E8
:10826000110704D5997808220A43D2B29A701C4BA0
:108270001C4A8021490299501D4A1E4998580140C4
:10828000995018681C490140196098581B490140D1
:108290008020400401439950194906230B704B7804
:1082A000402213404B70CB781F221340A02213436F
:1082B000144ACB70002313700B7110224B718B7911
:1082C0001A42FCD00E490C228B791A42FCD1044A86
:1082D000054BF821D05889010143D15008BDC04653
:1082E00000700440441000003810000000D0074027
:1082F00004100000FFFFFCFFFFFFF3FFFFFFFFFC88
:108300000040064000500640034A88235B01D158D4
:108310000C208143D150704700700440084B10B5C9
:10832000041C002B02D0002100E000BF054B1868A0
:10833000836A002B00D09847201C00F033F8C04619
:1083400000000000B483000070B50E4B0E4D0024F9
:10835000ED1AAD101E1CAC4204D0A300F358984790
:108360000134F8E700F028F8084B094D0024ED1A15
:10837000AD101E1CAC4204D0A300F3589847013442
:10838000F8E770BDD8830000D8830000D8830000D0
:10839000DC830000031C8218934202D01970013361
:1083A000FAE77047FEE7C0464343546573740A001A
:1083B0004300000000080020F8B5C046F8BC08BC27
:1083C0009E467047F8B5C046F8BC08BC9E4670474C
:0883D000A0F8FF7F010000008E
:0483D800397C0000EC
:0483DC00117C000010
:1083E000000000000000000000000000000000008D
:1083F000000000000000000000000000000000007D
:10840000B083000000000000000000000000000039
:10841000000000000000000000000000000000005C
:10842000000000000000000000000000000000004C
:10843000000000000000000000000000000000003C
:048440000000000038
:0400000300007CE994
:00000001FF
