:1000000000040020D10400001505000015050000C3
:1000100000000000000000000000000000000000E0
:1000200000000000000000000000000015050000B6
:100030000000000000000000150500006906000037
:100040001505000015050000150500001505000048
:100050001505000015050000150500001505000038
:100060001505000015050000150500001505000028
:100070008D060000CD0600000D07000015050000EC
:100080001505000015050000150500001505000008
:1000900015050000150500001505000015050000F8
:1000A00015050000150500001505000015050000E8
:1000B00015050000150500001505000015050000D8
:10040000FFFFFFFFFFFFFFFFFFFFFFFFFEFFFFFFFD
:1004100010B5064C2378002B07D1054B002B02D0DA
:10042000044800E000BF0123237010BD68F8FF1FDF
:1004300000000000BC2C0000044B10B5002B03D0C2
:100440000349044800E000BF10BDC04600000000A2
:100450006CF8FF1FBC2C0000164B002B00D1144B76
:100460009D46402292029A1A924600218B460F46E0
:100470001348144A121A02F0D0FB0F4B002B00D085
:1004800098470E4B002B00D0984700200021040015
:100490000D000D48002802D00C4800E000BF02F01B
:1004A0008FFB2000290000F063FA02F073FBC046C6
:1004B0000000080000040020000000000000000010
:1004C00068F8FF1F10FDFF1F000000000000000083
:1004D00072B601F0DFF862B609490A4A0A4B9B1A64
:1004E00003DD043BC858D050FBDC0849084A521AC7
:1004F00003DD00208850043AFCDAFFF7ADFF00006E
:10050000E42C000000F8FF1F68F8FF1F68F8FF1FC9
:1005100010FDFF1F0048004715050000002243089A
:100520008B4274D303098B425FD3030A8B4244D3BB
:10053000030B8B4228D3030C8B420DD3FF220902FD
:1005400012BA030C8B4202D31212090265D0030BBC
:100550008B4219D300E0090AC30B8B4201D3CB03B2
:10056000C01A5241830B8B4201D38B03C01A5241F4
:10057000430B8B4201D34B03C01A5241030B8B42F6
:1005800001D30B03C01A5241C30A8B4201D3CB02E1
:10059000C01A5241830A8B4201D38B02C01A5241C6
:1005A000430A8B4201D34B02C01A5241030A8B42C9
:1005B00001D30B02C01A5241CDD2C3098B4201D3E1
:1005C000CB01C01A524183098B4201D38B01C01A5F
:1005D000524143098B4201D34B01C01A52410309D6
:1005E0008B4201D30B01C01A5241C3088B4201D385
:1005F000CB00C01A524183088B4201D38B00C01A32
:10060000524143088B4201D34B00C01A5241411A58
:1006100000D20146524110467047FFE701B5002065
:1006200000F006F802BDC0460029F7D076E7704713
:100630007047C04602780B78002A03D001300131A0
:100640009A42F7D0D01A704780B500AFBFF34F8FF2
:10065000034B044ADA60BFF34F8FC046FDE7C04644
:1006600000ED00E00400FA0590B500AF064B5C68B1
:100670001B68012100225B185441034A1360546037
:10068000C046BD4690BDC04690FAFF1F90B583B0EE
:1006900000AF72B6002001F011FC031E11D0FC1D4A
:1006A000BB1D1900002001F0E1FA03002370BB1DFF
:1006B0001B78002B05D0FB1D1B781900002001F0D2
:1006C00003FA62B6C046BD4603B090BD90B583B094
:1006D00000AF72B6012001F0F1FB031E11D0FC1D2A
:1006E000BB1D1900012001F0C1FA03002370BB1DDE
:1006F0001B78002B05D0FB1D1B781900012001F091
:10070000E3F962B6C046BD4603B090BD90B583B074
:1007100000AF72B6022001F0D1FB031E4FD0BC1D0A
:100720007B1D1900022001F0A1FA030023707B1D3C
:100730001B78002B43D0FB1D06221A700DE0FB1D19
:100740001B785A1EFB1D1B781F49895C1E4AD15419
:10075000FB1D1A78FB1D013A1A70FB1D1B78002B3C
:10076000EDD1194BBA1D12781A701849164B052293
:10077000180002F05AFA031E05D1154B1900022089
:1007800001F035FA0FE013490F4B0622180002F072
:100790004CFA031E07D1104B062280211D2002F0C7
:1007A00085F8FFF751FF0D4A0D49BB1D1B78180056
:1007B00000F01AF8031E02D10A4B02221A7062B628
:1007C000C046BD4603B090BD84F8FF1F502C00000A
:1007D000582C0000602C0000682C000098FAFF1FC5
:1007E00090F8FF1F9AFAFF1F80B586B000AFB9607E
:1007F0007A600F23FB18021C1A701723FB180122C2
:100800001A70594B1B88012B20D002DC002B05D01D
:1008100063E0022B35D0032B48D05EE00F23FB189A
:100820001B78502B00D095E04F4B1B885A1C91B27F
:100830004D4A11801A00BB689B180F22BA18127813
:100840001A701723FB1801221A7083E00F23FB187C
:100850001B78502B0DD1444B1B885A1C91B2424A35
:1008600011801A00BB689B180F22BA1812781A70F0
:1008700073E03D4B00221A801723FB1802221A70E6
:100880006BE0394B1B885A1C91B2374A11801A0011
:10089000BB689B180F217A1812781A707B181B7886
:1008A0009BB21B029AB2314B1A8056E02E4B1B882A
:1008B0005A1C91B22C4A11801A00BB689B180F2158
:1008C0007A1812781A707B181B789AB2274B1B88FB
:1008D000D3189AB2254B1A803FE0234B1B885A1C31
:1008E00091B2214A11801A00BB689B180F22BA18D6
:1008F00012781A701D4B1A881B4B1B889A422BD1F9
:100900001A4B1B88023BBA68D3181B78432B16D1AD
:10091000164B1B88013BBA68D3181B78432B0ED1AA
:100920001723FB1800221A70104B1A887B681A8054
:100930000D4B00221A800D4B00221A800CE0172369
:10094000FB1803221A70084B00221A80074B002262
:100950001A8001E0C04600E0C0461723FB181B7850
:100960001800BD4606B080BD8CF8FF1F8EF8FF1F33
:10097000B0B5664CA54400AF72B696239B01190032
:10098000022000F051FFFA239B001900002001F023
:10099000CDFB01F023FF01210C2000F028FE1E20DA
:1009A00000F0DCF95A4B00221A705A4B00221A80D0
:1009B000594A0023002413605460002382229200CD
:1009C000BA181360022001F0FDF962B600F0C0F819
:1009D0004F4B1B78012B12D0022B19D0002B00D0CB
:1009E0007BE000F0EBF801210C2000F015FE72B660
:1009F000F023DB01180000F033FE62B685E0474BC0
:100A00001900022001F0F3F8414B0A221A707CE031
:100A1000404B1A88424D7C19424B1100180000F0DF
:100A200045FA030023707B191B78012B00D169E084
:100A300002DC002B05D013E0032B07D0042B0AD0D7
:100A40000EE0394BFB1804221A700EE0364BFB18EF
:100A500005221A7009E0344BFB1806221A7004E0D4
:100A6000314BFB1807221A70C0462D4BFB181B7820
:100A7000062B03D1264B00221A7046E081239B00EF
:100A8000FA18391D284BFB181B78180000F08EF956
:100A9000264BFB1800221A8012E0244C3B191B88BD
:100AA000234A842189008C46BC446244D35C1900EB
:100AB000022001F009F83B191A883B1901321A800B
:100AC00081239B00FB181B88184ABA1812889A4287
:100AD000E3D30F4B0A221A7017E082229200BB1850
:100AE0001B680133B9180B60BB181B68114A93428D
:100AF0000AD9002382229200BA1813600C2000F059
:100B0000A0FD01E0C04663E7C04661E7F0FDFFFFDE
:100B10009AFAFF1F98FAFF1F90FAFF1F702C00002F
:100B20000702000090F8FF1F0D0200000E020000F7
:100B3000F4FDFFFFFFFF050090B500AF034B5C68BD
:100B40001B6818002100BD4690BDC04690FAFF1FEB
:100B500090B585B000AF381D042300221E2101F09E
:100B60000DFF7B68124A934203D0124B0A221A707F
:100B70001AE008210C007818062380221D2101F0BC
:100B8000FDFE21007B1800229A710B4A7B18110090
:100B90001800FFF74FFD031E03D0064B00221A700A
:100BA00002E0044B01221A70C046BD4605B090BD5C
:100BB000001800209AFAFF1F802C000080B5A0B01A
:100BC00000AF364A3B001A60354A3B005A60354A4E
:100BD0003B009A60344A3B001A61344A3B00DA60B9
:100BE000334A3B005A61334A3B009A61324A3B0028
:100BF000DA61324A3B001A62314A3B005A62314A9A
:100C00003B009A62304A3B00DA62304A3B001A638A
:100C10002F4A3B005A632F4A3B009A632E4A3B00FF
:100C2000DA632E4A3B001A642D4A3B005A642D4A6F
:100C30003B009A642C4A3B00DA642C4A3B001A655C
:100C40002B4A3B005A652B4A3B009A652A4A3B00D7
:100C5000DA652A4A3B001A66294A3B005A66294A45
:100C60003B009A66284A3B00DA66284A3B001A672E
:100C7000274A3B005A67274A3B009A67264A3B00AF
:100C8000DA671D2001F0C4FD3B00802200211D20F9
:100C900001F00CFEC046BD4620B080BD51220000D0
:100CA0003D230000B52300004D2400000124000076
:100CB00011250000BD25000039260000892600000E
:100CC000E12600002127000029180000C91A0000B1
:100CD000691B0000EF1B00006D1C0000311D0000AF
:100CE000C51D0000411E0000BD1E0000811F000048
:100CF000DD27000011280000AD2800007D2900003C
:100D0000C5290000ED290000E92A0000EF150000C8
:100D10001916000043160000390B000080B584B09E
:100D200000AF0200BB1D1A800023FB6003E0C04639
:100D3000FB680133FB60BB1D1A8813009B009B18E6
:100D40001A01D21A93011A0013001A00FB68934289
:100D5000EDD3C046BD4604B080BD000080B584B070
:100D600000AF0200FB1D1A700F23FB1800221A703F
:100D70000AE00F203B181B780A4A0021D1543B1887
:100D80001A783B1801321A700F23FB181B78312B8D
:100D9000EFD9054BFA1D12781A70C0461800BD46EF
:100DA00004B080BD9CFAFF1FD0FAFF1F90B53A4CEB
:100DB000A54402AFB9607A60384B82229200944613
:100DC000BC446344021C1A70354BFB1800221A7095
:100DD000324B822292009446BC4463441B78052B1C
:100DE00012D0062B28D0042B34D1812189007B1806
:100DF000F32252001A807B181A882A491023FB1804
:100E0000180001F001FF2AE0264B9A7800210A40E1
:100E10009A70DA7800210A40DA70812189007B1803
:100E2000F32252001A807B181A881E491023FB18DF
:100E3000180001F0E9FE12E0812189007B1853229D
:100E40001A807B181A8818491023FB18180001F023
:100E5000DBFE04E0124BFB1801221A7012E0BC68A2
:100E600081239B00FB181A881023F9180B4B822052
:100E700080008446BC44634418787B680093230058
:100E800000F006FA064BFB181B781800BD468323BA
:100E90009B009D4490BDC046ECFDFFFF07FEFFFF99
:100EA0000702000028FBFF1FD4FAFF1FF0B5BE4C5D
:100EB000A54400AFF8650A00BC4B9E2189008C4612
:100EC000BC4463441A80BA4BFB1800221A70662394
:100ED000FB186822BA18B7497918F86D00F07BFA48
:100EE000031E04D0B24BFB1801221A7053E1B14B20
:100EF000FB181B78012B67D002DC002B07D040E1E8
:100F0000022B00D1FAE0032B00D135E139E1AA4BE5
:100F1000FB18AA4A12781A700EE0A74C3B191B78EE
:100F20009BB2180001F074FC3220FFF7F7FE3B196A
:100F30001A783B1901321A709F4BFB181B783F2B14
:100F4000EBD99D4BFB1800221A700AE09A483B1817
:100F50001B789B4A0021D1543B181A783B18013268
:100F60001A70954BFB181B78312BEFD9954B9E22AD
:100F700092009446BC4463441A88F3235B009A426F
:100F800000D003E18F4B9E2292009446BC44634400
:100F90001B881A006823F9188B4B180001F034FEE7
:100FA000894B1A785B781B0213439AB2874B1A80DD
:100FB000854B9A78DB781B0213439AB2804B110061
:100FC000180000F0F3FAE1E07E4B9E229200944676
:100FD000BC4463441A88F3235B009A4200D088E043
:100FE000784B9E2292009446BC4463441B881A00AE
:100FF0006823F918744B180001F006FE724B1A783A
:101000005B781B0213439AB2704B1B889A4204D040
:10101000674BFB1803221A70BDE06B4B1B79012B49
:1010200000D0B5E09D239B00FB1800221A80624B84
:10103000FB1800221A7049E05F4D7B191B785B009A
:10104000634C3919604A5B00D0188079D318DB797A
:101050001B0203430B807B191B785B0001339C262A
:10106000B600B919584A5B00D0188079D318DB79DB
:101070001B0203430B8057483B183A191288920A07
:101080001A809B2189007B183A1912889205920DCB
:101090001A809D229200BB181A884F4BD418BB1996
:1010A0001A887B1819883B181888230001F0FEFB6A
:1010B0009D229200BB18B918BA19098812888A189B
:1010C0001A807B191A787B1901321A703E4B5B79B2
:1010D000394ABA1812789A42AED33B4B9A78DB78E9
:1010E0001B0213439AB2364B1100180000F05EFA4F
:1010F0004EE02F4BFB1802221A704CE0314B9E221F
:1011000092009446BC4463441A88F3235B009A42DD
:1011100040D12C4B9E2292009446BC4463441B88D1
:101120001A006823F918284B180001F06DFD264BB2
:101130009A78DB781B0213439AB2214B11001800F6
:1011400000F034FA254C3B00180000F04BF8244B1B
:101150009E2292009446BC4463442000190053230D
:101160001A0001F051FD1D4B9B78002B12D0104B43
:10117000FB1804221A700EE00D4BFB1806221A70A1
:1011800009E00B4BFB1805221A7004E0C04602E090
:10119000C04600E0C046064BFB181B781800BD4651
:1011A0009F239B009D44F0BD84FDFFFFE2FDFFFFF8
:1011B000760200006B02000077020000D0FAFF1FE9
:1011C0009CFAFF1FEEFDFFFF28FBFF1FCEFAFF1F5B
:1011D000720200006E0200007EFBFF1FD4FAFF1FA8
:1011E00088FDFFFFB0B598B000AF78600823FB180A
:1011F00000229A705E23FB1800221A802EE05E23E4
:10120000FB181A88204B1100180000F0E0F9031EAB
:101210001ED108257B199B7879195B005E22BA18CC
:10122000CB1803331478197800200140081C211CC6
:101230000143197050785A7800210A40111C021C91
:101240000A435A707B199B780133DAB27B199A7082
:101250005E217B181A887B1801321A805E23FB18E6
:101260001A880A4B1B88013B9A42C8DB7A6808231C
:10127000FB181000190053231A0001F0C5FC786810
:10128000BD4618B0B0BDC0469CFAFF1FCEFAFF1F86
:10129000F0B587B000AFB96011007B600F23FB1879
:1012A000021C1A700C26BB190A1C1A8016243B1942
:1012B00000221A803B191B883A19591C11801A0008
:1012C0007B689B1850221A703B191B883A19591CCD
:1012D00011801A007B689B1850221A70BB191B885A
:1012E000093319123B191B883A19581C10801A002F
:1012F0007B689B18CAB21A70BB191B88DAB23B19FB
:101300001B883919581C088019007B685B18093242
:10131000D2B21A703B191B8825003A19591C11804A
:101320001A007B689B180F22BA1812781A707B1962
:101330001B887A68D018BB191A88BB68190001F09D
:1013400063FC7B197919BA19098812888A181A80DE
:1013500014243C19BB191A88BB681100180000F04E
:10136000C9F80300238014243B191B881B0A99B277
:101370007B191B887A19581C10801A007B689B18EF
:10138000CAB21A707B191B8828007A19591C11805F
:101390001A007B689B183A191288D2B21A703B184F
:1013A0001B883A18591C11801A007B689B1843222D
:1013B0001A703B181B883A18591C11801A007B6858
:1013C0009B1843221A703B6B3A1812881A80C04649
:1013D000BD4607B0F0BDF0B587B000AFF860B960AA
:1013E0007A603B601723FB1800221A70FB681B7899
:1013F000502B04D1FB6801331B78502B04D01723EA
:10140000FB1801221A706DE0FB6802331B781B0287
:101410001AB2FB6803331B781BB213431AB21425AC
:101420007B191A80FB681A79BB681A707B191B88B4
:10143000093B9AB23B681A80FB685A1D3B681B88BF
:1014400012210E007C181900100000F053F8030060
:10145000238031007B181B881B0A9BB2DAB2102054
:101460003B181A707B181B88DAB23B185A703B186D
:101470001A787B191B88043BF968CB181B789A42B1
:101480000BD11023FB185A781423FB181B88033B3D
:10149000F968CB181B789A4204D01723FB18022254
:1014A0001A701FE01423FB181B88023BFA68D3183C
:1014B0001B78432B08D11423FB181B88013BFA68C7
:1014C000D3181B78432B04D01723FB1803221A7060
:1014D00008E0FB68591D3B681B881A007B681800F0
:1014E00001F092FB1723FB181B781800BD4607B0CC
:1014F000F0BD000090B585B000AF78600A00BB1C5D
:101500001A800A23FB18012252421A800E23FB186C
:1015100000221A803AE00E23FB181B887A68D31841
:101520001B7899B20A22BB18BA1812884A401A804E
:101530000C23FB1800221A801DE008243B190A2006
:101540003A18128801210A401A803B183A1812886A
:1015500052081A803B191B88002B06D00A22BB18A0
:10156000BA18128810494A401A800C217B181A8830
:101570007B1801321A800C23FB181B88072BDCD93F
:101580000E217B181A887B1801321A800E23FA1854
:10159000BB1C12881B889A42BDD30A23FB181B88E8
:1015A0001800BD4605B090BD01A0FFFF80B582B018
:1015B00000AF78600A00BB1C1A80BB1C1B887A68CD
:1015C000D31801221A70C046BD4602B080BD80B556
:1015D00082B000AF78600A00BB1C1A80BB1C1B885D
:1015E0007A68D3181B781800BD4602B080BD80B55C
:1015F00082B000AF0200BB1D1A807B1D0A1C1A704E
:101600007B1D1A78BB1D1B880121180000F020FEED
:10161000C046BD4602B080BD80B582B000AF0200BA
:10162000BB1D1A807B1D0A1C1A707B1D1A78BB1DFE
:101630001B881100180000F081FEC046BD4602B0B4
:1016400080BD80B582B000AF0200BB1D1A80BB1DFB
:101650001B88180000F0D4FEC046BD4602B080BD15
:1016600080B586B000AF78607B6804331B687B610F
:101670007B68013309D07B69FB607B681B683B6139
:101680003B6983F30888FB689847C046BD4606B0AF
:1016900080BD000080B582B000AF00237B60FB1CE2
:1016A00000221A703F4A88235B010021D1503D4936
:1016B0003D4AC0239B028B503A4A3C4BD358394990
:1016C000802292001343394A8B50394B9B78DBB20E
:1016D0001A000823134007D0354B9B78DBB2344AFD
:1016E00008210B43DBB293702E492F4A80235B0203
:1016F0008B502C4A2F4BD3582A492F4A13402D4A3E
:101700008B50284B1A68274B2C490A401A60254AEF
:10171000284BD3582A4A13402249802252041343AB
:10172000244A8B50274B06221A70264B5B78DBB27B
:10173000244A40210B40DBB25370224BDB78DBB2F2
:101740005BB21F2213405BB26022524213435AB273
:101750001C4BD2B2DA701C4B00221A70194B0022BB
:101760001A71184B00225A71C046164B9B79DBB296
:101770001A0010231340F8D0C046124B9B79DBB2FD
:101780001A000C231340F8D1064A084BD3580549D8
:10179000F82292011343054A8B50C046BD4602B061
:1017A00080BDC046007004404410000038100000A6
:1017B00000D0074004100000FFFFFCFFFFFFF3FF15
:1017C000FFFFFFFC004006400050064080B582B09D
:1017D00000AF0200FB1D1A70FB1D1B781A001F23AF
:1017E0001A40044B012191400A001A60C046BD46D0
:1017F00002B080BD00E100E080B582B000AF020021
:10180000FB1D1A70FB1D1B781A001F23134005498E
:1018100001229A40130080228B50C046BD4602B080
:1018200080BDC04600E100E090B587B000AF020087
:101830003960FB1D1A709C4BFB60FB1D1B78180068
:1018400000F0F4FB031E00D12AE1FB1D1B78002BE6
:1018500000D098E0954A964BD35894498022D20400
:101860001343934A8B50914A914BD3588F49914AD5
:1018700013408F4A8B50904B1A6D8F4B8021C900BB
:101880000A431A658C4B5A6D8B4B8021C9000A4361
:101890005A65C046854A894BD35884498022D20074
:1018A0001343864A8B50FB68DB78DBB20C229343F0
:1018B000DAB2FB68DA70824B1A68FA2399001000DA
:1018C000FEF72CFE03001A0013005B019B1A9B001D
:1018D0009B18DB001A003B681B0119001000FEF783
:1018E0001DFE03001A00122108007B181A80FB68F5
:1018F0001B78DAB211243B191F218A431A700100A8
:101900007B181B881B12DBB21F221340DAB23B1973
:101910001B781343DAB2FB681A707B181B88DAB2A3
:10192000FB685A70FB680F229A72FB6800229A705B
:10193000FB6800229A71FB6800221A72FB68002281
:101940005A72FB681B79DBB21F221343DAB2FB68C1
:101950001A71FB685B79DBB2402252421343DAB260
:10196000FB685A71FB68DB78DBB27F221340DAB286
:10197000FB68DA70FB68DB78DBB20C221343DAB267
:10198000FB68DA708DE0FB1D1B78012B02D0022B67
:1019900013D025E0484BC02292001A60464BC0226B
:1019A00092005A60C046414A444BD3583F49802276
:1019B00012011343414A8B5012E03F4BC022920068
:1019C0001A643D4BC02292005A64C046374A3B4BD2
:1019D000D3583649802252011343384A8B50C046AF
:1019E000FB1D1B785A1E374B9200D3587B617B69D5
:1019F000DB78DBB20C229343DAB27B69DA70304BCE
:101A00001A68FA23D9001000FEF788FD03001A00B7
:101A100013005B019B1A9B009B18DB001A003B68BC
:101A20001B0119001000FEF779FD03001A001221B6
:101A300008007B181A807B691B78DAB211243B19E5
:101A40001F218A431A7001007B181B881B12DBB20E
:101A50001F221340DAB23B191B781343DAB27B69B9
:101A60001A707B181B88DAB27B695A707B69002276
:101A70009A707B6900229A717B6900225A717B6996
:101A8000DB78DBB27F221340DAB27B69DA707B69E4
:101A9000DB78DBB20C221343DAB27B69DA7000E048
:101AA000C046BD4607B090BD00A00640007004408F
:101AB00004100000FFFFFEFF00D0044034100000BF
:101AC00000F8FF1F882C000080B586B000AF020030
:101AD000FB1D1A70BB1D0A1C1A70204B3B61FB1DBD
:101AE0001B785A1E1E4B9200D358FB60FB1D1B78BF
:101AF000180000F09BFA031E01D100232AE0002306
:101B00007B611CE0FB1D1B78002B0AD13B691B7914
:101B1000DBB25BB2002B0FDA3B69BA1D1278DA71C7
:101B200011E0FB681B79DBB25BB2002B04DAFB68C7
:101B3000BA1D1278DA7106E07B6901337B617B693B
:101B4000084A9342DED97B69064A934201D90023B1
:101B500000E001231800BD4606B080BD00A006408D
:101B6000882C0000BAFB000080B584B000AF3A605A
:101B7000FB1D021C1A703B1D0A1C1A80FB1D1B78E2
:101B8000180000F053FA031E01D100232BE00E23AE
:101B9000FB1800221A8013E00E23FB181B883A68FA
:101BA000D3181A78FB1D1B7811001800FFF78CFF63
:101BB000031E0DD00E217B181A887B1801321A8063
:101BC0000E23FA183B1D12881B889A42E4D300E0CA
:101BD000C0460E23FA183B1D12881B889A4201D278
:101BE000002300E001231800BD4604B080BD80B58D
:101BF00084B000AF02003960FB1D1A700E23FB1881
:101C000000221A803B68BB60FB1D1B78180000F0A7
:101C10000DFA031E01D1002323E00E23FB1800223E
:101C20001A8015E00E23FB181B88BA68D3181A789F
:101C3000FB1D1B7811001800FFF746FF031E01D1A2
:101C400000230EE00E217B181A887B1801321A80BF
:101C50000E23FB181B88BA68D3181B78002BE1D120
:101C600001231800BD4604B080BD000080B586B0D9
:101C700000AF02003960FB1D1A702A4BFB60FB1D90
:101C80001B785A1E284B9200D358BB60FB1D1B7853
:101C9000180000F0CBF9031E04D13B6800221A7033
:101CA00000233BE000237B6126E0FB1D1B78002B1B
:101CB0000FD1FB681B79DBB21A002023134018D028
:101CC0001323FB18FA68D2791A703B6801221A7044
:101CD00016E0BB681B79DBB21A002023134008D042
:101CE0001323FB18BA68D2791A703B6801221A7064
:101CF00006E07B6901337B617B690C4A9342D4D94E
:101D00007B690A4A934206D91323FB18FF221A70F3
:101D10003B6800221A701323FB181B781800BD467D
:101D200006B080BD00A00640882C0000BAFB000071
:101D3000B0B584B000AF3A60FB1D021C1A703B1DA9
:101D40000A1C1A800D23FB1800221A70FB1D1B7839
:101D5000180000F06BF9031E01D100232EE00E23C2
:101D6000FB1800221A8013E00E257B191B883A68A5
:101D7000D4180D23FA18FB1D1B7811001800FFF76B
:101D800075FF030023707B191A887B1901321A80B2
:101D90000E23FA183B1D12881B889A4204D20D2389
:101DA000FB181B78012BDFD00E23FA183B1D12887D
:101DB0001B889A4201D2002300E001231800BD468F
:101DC00004B0B0BD80B584B000AF0200FB1D1A7036
:101DD000184BFB60FB1D1B785A1E174B9200D35803
:101DE000BB60FB1D1B78180000F020F9031E1CD0FF
:101DF000FB1D1B78002B08D1FB68DB78DBB22022AF
:101E00001343DAB2FB68DA7007E0BB68DB78DBB259
:101E100020221343DAB2BB68DA70FB1D1B78074A35
:101E2000D3561800FFF7D2FC00E0C046BD4604B010
:101E300080BDC04600A00640882C000004F8FF1FAB
:101E400080B584B000AF0200FB1D1A70184BFB6018
:101E5000FB1D1B785A1E174B9200D358BB60FB1D0D
:101E60001B78180000F0E2F8031E1CD0FB1D1B7845
:101E7000002B08D1FB68DB78DBB220229343DAB277
:101E8000FB68DA7007E0BB68DB78DBB220229343A3
:101E9000DAB2BB68DA70FB1D1B78074AD35618000C
:101EA000FFF7AAFC00E0C046BD4604B080BDC046B6
:101EB00000A00640882C000004F8FF1F80B586B003
:101EC00000AF0200FB1D1A702B4B7B61FB1D1B78C2
:101ED0005A1E2A4B9200D3583B61FB1D1B781800F9
:101EE00000F0A4F8031E01D1002340E0FB1D1B7885
:101EF000002B1ED17B69DB78DBB27F221340DAB284
:101F00007B69DA707B691B79DAB20F203B182021DC
:101F10000A401A703B181B785B09DBB27A69D278E9
:101F2000D2B25209D2B21340DBB201221340DBB26B
:101F30001DE03B69DB78DBB27F221340DAB23B69FC
:101F4000DA703B691B79DAB20F203B1820210A4076
:101F50001A703B181B785B09DBB23A69D278D2B2AF
:101F60005209D2B21340DBB201221340DBB2180097
:101F7000BD4606B080BDC04600A00640882C0000CB
:101F800080B584B000AF0200FB1D1A70204BFB60CF
:101F9000FB1D1B78012B16D0022B24D0002B00D068
:101FA00031E01C4A1B4B126D1A651A4A194B526DCF
:101FB0005A65C046184A194BD3581749184A134056
:101FC000164A8B501FE0134B00221A60114B00225F
:101FD0005A60C046104A114BD3580F49114A13405A
:101FE0000E4A8B500FE00B4B00221A64094B002263
:101FF0005A64C046084A094BD35807490A4A134055
:10200000064A8B50C046C046BD4604B080BDC0469F
:1020100000A0064000D004400070044034100000CE
:10202000FFFBFFFFFFF7FFFFFFEFFFFF80B582B071
:1020300000AF0200FB1D1A70FB1D1B78022B01D99B
:10204000002300E001231800BD4602B080BD00005F
:1020500090B583B000AF02003960FB1D1A70FB1D04
:102060001B787F2B32D92F4AFB1D1B7819000F23B9
:102070000B40083B9B0806339B00D31804331B68B6
:10208000FA1D1278110003220A40D200FF2191406C
:102090000A00D2431A4011003B689B01FF221A40FC
:1020A000FB1D1B78180003230340DB009A401D48EA
:1020B000FB1D1B781C000F232340083B9B080A4391
:1020C00006339B00C31804331A6027E0164AFB1D31
:1020D0001B785BB29B08C0339B009B58FA1D12789B
:1020E000110003220A40D200FF2191400A00D2438E
:1020F0001A4011003B689B01FF221A40FB1D1B7810
:10210000180003230340DB009A400748FB1D1B789F
:102110005BB29B080A43C0339B001A50C046BD46C1
:1021200003B090BD00ED00E000E100E080B582B0BA
:1021300000AF0200FB1D1A703B1D0A1C1A802A4BBF
:1021400000221A60284B00229A60FB1D1B78002B8E
:102150001BD13B1D1B88002B07D13B1D1B88234A2D
:10216000934202D93B1D0A221A80214B1A68FA2396
:1021700099001000FEF7D2F903001A003B1D1B88DE
:102180005A43194B12095A601DE03B1D1B88002B56
:1021900008D13B1D1A885E23FF339A4202D93B1DAA
:1021A0000A221A80124B1A68FA2399001000FEF7CF
:1021B000B5F9030019003B1D1A880B4B4A435A60BE
:1021C000094B04221A6001235B4203211800FFF728
:1021D0003FFF054B1A68044B03210A431A60C046AF
:1021E000BD4602B080BDC04610E000E0D81500003A
:1021F00000F8FF1F80B582B000AF0200FB1D1A700F
:10220000FB1D1B781A001F231A40044B012191402B
:102210000A001A60C046BD4602B080BD00E100E081
:1022200080B582B000AF0200FB1D1A70FB1D1B7849
:102230001A001F231340054901229A4013008022EF
:102240008B50C046BD4602B080BDC04600E100E0F4
:10225000B0B586B000AF040008001100BB1D221C01
:102260001A807B1D021C1A703B1D0A1C1A700E245A
:102270003A190F210D007918BB1D1B88180000F0BA
:1022800093FA29007B181B781A00294B9200D35827
:102290007B617B181B781A00264B9200D3583B6158
:1022A0003B191B781A007B699200D3583A191278AF
:1022B0001000214A134019007B698200D1503B195C
:1022C0001B781A007B699200D3583A1912781000D3
:1022D000802252001A4311007B698200D1507B1D7D
:1022E0001B78012B13D13B695B690E22BA18127857
:1022F000110001228A401A433B695A613B1D1A783A
:10230000BB1D1B881100180000F018F80BE03B699A
:102310005B690E22BA181278110001228A40D2435A
:102320001A403B695A61C046BD4606B0B0BDC046C2
:10233000902C0000A42C0000FFF8FFFF90B585B0A2
:1023400000AF0200BB1D1A807B1D0A1C1A700A23F5
:10235000FA180B243919BB1D1B88180000F024FA49
:102360003B191B781A00124B9200D358FB607B1D5F
:102370001B78012B0BD1FB681B680A22BA18127854
:10238000110001228A401A43FB681A600BE0FB68C7
:102390001B680A22BA181278110001228A40D2431F
:1023A0001A40FB681A60C046BD4605B090BDC046E5
:1023B000A42C0000B0B584B000AF0200BB1D1A8091
:1023C0000A243A190B257919BB1D1B88180000F047
:1023D000EBF97B191B781A00084B9200D358FB606D
:1023E000FB681B693A191278D340012213405A1E28
:1023F0009341DBB21800BD4604B0B0BDA42C000070
:10240000B0B584B000AF0200BB1D1A800A243A198F
:102410000B257919BB1D1B88180000F0C5F97B1925
:102420001B781A00084B9200D358FB60FB68DB68EE
:102430003A191278110001228A401A43FB68DA60C7
:10244000C046BD4604B0B0BDA42C0000B0B584B0F9
:1024500000AF0200BB1D1A807B1D0A1C1A700A24E3
:102460003A190B257919BB1D1B88180000F09CF93F
:102470007B191B781A00254B9200D358FB603B193F
:102480001B781A00FB689200D3583A191278100092
:10249000402293431900FB688200D1503B191B78FE
:1024A0001A00FB689200D3583A19127810000222E1
:1024B0001A431100FB688200D1507B1D1B78012B51
:1024C00010D10A217B181B781A00FB689200D358A0
:1024D0007A181278100001221A431100FB6882005A
:1024E000D1500FE00A217B181B781A00FB6892007C
:1024F000D3587A1812781000012293431900FB6810
:102500008200D150C046BD4604B0B0BD902C000042
:10251000B0B584B000AF0200BB1D1A807B1D0A1C41
:102520001A700A243A190B257919BB1D1B8818004B
:1025300000F03AF97B191B781A001F4B9200D35810
:10254000FB603B191B781A00FB689200D3583A19BC
:1025500012781000802252041A431100FB68820096
:10256000D15020003B191B781A00FB689200D2580A
:102570007B1D1B781904F0231B030B4039180978C5
:1025800008001A431100FB688200D1507B191B78A8
:10259000002B04D00BDB023B012B08D803E01E20EC
:1025A000FFF728FE03E01F20FFF724FEC046C046C9
:1025B000BD4604B0B0BDC046902C0000B0B584B09C
:1025C00000AF0200BB1D1A800A243A190B257919A5
:1025D000BB1D1B88180000F0E7F87B191B781A0058
:1025E000134B9200D358FB603B191B781A00FB6811
:1025F0009200D3583A19127810000E4A134019006D
:10260000FB688200D1507B191B78002B04D00BDBB8
:10261000023B012B08D803E01E20FFF701FE03E078
:102620001F20FFF7FDFDC046C046BD4604B0B0BD4B
:10263000902C0000FFFFF0FFB0B584B000AF0200A7
:10264000BB1D1A800A243A190B257919BB1D1B885A
:10265000180000F0A9F87B191B781A00094B9200AA
:10266000D358FB603B191B781A00FB689200D358C3
:102670001B0E012213405A1E9341DBB21800BD46C7
:1026800004B0B0BD902C0000B0B584B000AF020023
:10269000BB1D1A800A243A190B257919BB1D1B880A
:1026A000180000F081F87B191B781A000B4B920080
:1026B000D358FB603B191B781A00FB689200D35873
:1026C0003A1912781000802252041A431100FB6854
:1026D0008200D150C046BD4604B0B0BD902C000071
:1026E00080B582B000AFFB1D00221A700DE0FB1D0B
:1026F0001A780A4B9200D358A021012252425A5014
:10270000FB1D1A78FB1D01321A70FB1D1B78042B70
:10271000EDD9C046BD4602B080BDC046902C000039
:1027200090B585B000AF0200BB1D1A807B1D0A1C4E
:102730001A700A23FA180B243919BB1D1B881800BC
:1027400000F032F83B191B781A00164B9200D35850
:10275000FB607B1D1B78012B10D10A217B181B7895
:102760001A00FB689200D3587A18127810004022A1
:102770001A431100FB688200D1500FE00A217B1838
:102780001B781A00FB689200D3587A181278100050
:10279000402293431900FB688200D150C046BD46D9
:1027A00005B090BD902C000080B584B000AFB9603A
:1027B0007A600E217B18021C1A807B181B881B0A6A
:1027C0009BB2DAB2BB681A707B181B88DAB27B68DE
:1027D0001A70C046BD4604B080BD000080B500AF91
:1027E000C046094B1B78DBB25BB2002BF9DA064B13
:1027F00030221A70054BDA68044B802149020A43E3
:10280000DA60C046BD4680BD00000240003000F0E6
:1028100080B584B000AF0200BB1D1A80BB1D1B88B1
:102820009B02FB601F4B0922DA711E4A0C217B18A8
:102830009B7893711B4A7B185B785371194A7B18FC
:102840001B78137100F086F90300012B01D10123DD
:1028500023E0FB68144A93421ED8124B0622DA7119
:10286000104B00229A710F4B04225A710D4B0C220F
:102870001A710C4BFF22DA720A4BFF229A72094B33
:10288000FF225A72074BFE221A7200F063F903000E
:10289000012B01D1022300E000231800BD4604B043
:1028A00080BDC04600000240FF03000090B589B023
:1028B00000AF0400080011007B600E23FB18221CEF
:1028C0001A800C243B19021C1A800A23FB180A1CCC
:1028D0001A803B191B88032213409BB2002B01D0A6
:1028E000012344E0244B0622DA710E23FB181B88D7
:1028F0009A020C23FB181B88D318BB61BB697B6150
:102900000023FB612CE01C4A14217B189B789371F7
:10291000194A7B185B785371174A7B181B7813711F
:10292000154A7B68DB78D372134A7B689B78937275
:10293000114A7B685B7853720F4A7B681B7813726D
:1029400000F008F90300012B01D102230FE0FB691D
:102950000433FB617B6904337B617B6804337B60F8
:102960000A23FB181B88FA699A42CCD3002318006B
:10297000BD4609B090BDC04600000240B0B586B06B
:1029800000AFF8600C00100019000A257B19221C0A
:102990001A8008243B19021C1A80BB1D0A1C1A80CD
:1029A0007B191B889A023B191B88D3187B61BB1DBE
:1029B0001A887969FB68180000F026F9C046BD4600
:1029C00006B0B0BD80B586B000AFF860B960BB1D81
:1029D0001A80BB687B61BB1D1A887969FB68180087
:1029E00000F012F9C046BD4606B080BD80B584B087
:1029F00000AF0200FB1D1A700F217B18FA1D127820
:102A000052081A700E23FB1808007A181278072152
:102A10000A401A7001007B181B78DB08DAB20D201F
:102A20003B1803218A1A1A703B181B78012B2ED0F1
:102A300002DC002B3ED050E0022B15D0032B00D03F
:102A40004BE0284B1B7CDBB25BB20E22BA1812782B
:102A5000012191400A0052B2D24352B213405AB2FD
:102A6000204BD2B21A7438E01E4B5B7CDBB25BB2F7
:102A70000E22BA181278012191400A0052B2D243B4
:102A800052B213405AB2174BD2B25A7425E0154BCA
:102A90009B7CDBB25BB20E22BA1812780121914006
:102AA0000A0052B2D24352B213405AB20D4BD2B2C4
:102AB0009A7412E00B4BDB7CDBB25BB20E22BA18CD
:102AC0001278012191400A0052B2D24352B213400F
:102AD0005AB2044BD2B2DA74C046C046BD4604B006
:102AE00080BDC0460000024080B584B000AF786071
:102AF0000A00BB1C1A800E217B1800221A800C23AE
:102B0000FB1801221A807B1800221A8012E00E2383
:102B1000FB181B887A68D3181B78FF2B04D00C2372
:102B2000FB1800221A800CE00E217B181A887B18F3
:102B300001321A800E23FA18BB1C12881B889A4295
:102B4000E5D30C23FB181B88DBB21800BD4604B08C
:102B500080BD000080B500AF0D4B30221A7072B6F8
:102B60000B4B80221A70C046094B1B78DBB25BB25C
:102B7000002BF9DA62B6064B1B78DBB21A00312360
:102B8000134001D0012300E000231800BD4680BDA2
:102B900000000240084B10B50400002B02D00021B9
:102BA00000E000BF054B1868836A002B00D09847EF
:102BB000200000F04BF8C04600000000B82C0000D8
:102BC00070B500260C4D0D4C641BA410A64209D113
:102BD000002600F073F80A4D0A4C641BA410A642AC
:102BE00005D170BDB300EB5898470136EEE7B3004E
:102BF000EB5898470136F2E7DC2C0000DC2C000093
:102C0000DC2C0000E02C0000002310B59A4200D11B
:102C100010BDCC5CC4540133F8E703001218934292
:102C200000D1704719700133F9E7002330B59A429B
:102C30000AD0013AC45CCD5CAC4204D1934202D0CC
:102C40000133002CF6D1631B180030BDFEE7C046EF
:102C5000656B6168730000007368616B650000005C
:102C6000657461647075000075706461746500005E
:102C700053746172742055706461746500000000C3
:102C8000757064617465000000B0064000C00640C5
:102C90000090044000A0044000B0044000C0044084
:102CA00000D0044000F00F4040F00F4080F00F4093
:102CB000C0F00F4000F10F4008F8FF1FF8B5C04604
:102CC000F8BC08BC9E467047F8B5C046F8BC08BCC6
:042CD0009E46704765
:082CD40084D7FF7F010000001E
:042CDC0039040000B7
:042CE00011040000DB
:102CE400006CDC020C0D0E0000000000000000006F
:102CF40000000000000000000000000000000000D0
:102D040000000000000000000000000000000000BF
:102D140000000000000000000000000000000000AF
:102D2400000000000000000000000000000000009F
:102D3400000000000000000000000000000000008F
:082D4400000000000000000087
:04000003000004D124
:00000001FF
