:1078000000180020D17C0000FD7C0000FD7C000001
:107810000000000000000000000000000000000068
:10782000000000000000000000000000FD7C0000DF
:107830000000000000000000FD7C00003D7E000014
:10784000FD7C0000FD7C0000FD7C0000FD7C000054
:10785000FD7C0000FD7C0000FD7C0000FD7C000044
:10786000FD7C0000FD7C0000FD7C0000FD7C000034
:10787000D57E00001D810000157F0000FD7C00000A
:10788000FD7C0000FD7C0000FD7C0000FD7C000014
:10789000FD7C0000FD7C0000FD7C0000FD7C000004
:1078A000FD7C0000FD7C0000957E0000FD7C00005A
:1078B000557E0000FD7C0000FD7C0000FD7C00008A
:107C0000FFFFFFFFFFFFFFFFFFFFFFFFFEFFFFFF85
:107C100010B5064C2378002B07D1054B002B02D062
:107C2000044800E000BF0123237010BD70F8FF1F5F
:107C300000000000B0900000044B10B5002B03D0F2
:107C40000349044800E000BF10BDC046000000002A
:107C500074F8FF1FB0900000164B002B00D1144B9E
:107C60009D46402292029A1A924600218B460F4668
:107C70001348144A121A01F0EAF90F4B002B00D0F6
:107C800098470E4B002B00D098470020002104009D
:107C90000D000D48002802D00C4800E000BF01F0A4
:107CA000A9F92000290000F091F901F08DF9C046F2
:107CB0000000080000180020000000000000000084
:107CC00070F8FF1F98FDFF1F00000000000000007B
:107CD00072B600F00BFC62B60549064A064B9B1AC9
:107CE00003DD043BC858D050FBDCFFF7B5FF0000B4
:107CF000D890000000F8FF1F70F8FF1F00480047F1
:107D0000FD7C0000002243088B4274D303098B42A0
:107D10005FD3030A8B4244D3030B8B4228D3030C5B
:107D20008B420DD3FF22090212BA030C8B4202D3FD
:107D30001212090265D0030B8B4219D300E0090A25
:107D4000C30B8B4201D3CB03C01A5241830B8B422E
:107D500001D38B03C01A5241430B8B4201D34B0317
:107D6000C01A5241030B8B4201D30B03C01A52417C
:107D7000C30A8B4201D3CB02C01A5241830A8B4201
:107D800001D38B02C01A5241430A8B4201D34B02EA
:107D9000C01A5241030A8B4201D30B02C01A52414E
:107DA000CDD2C3098B4201D3CB01C01A5241830902
:107DB0008B4201D38B01C01A524143098B4201D33C
:107DC0004B01C01A524103098B4201D30B01C01A67
:107DD0005241C3088B4201D3CB00C01A52418308E1
:107DE0008B4201D38B00C01A524143088B4201D30E
:107DF0004B00C01A5241411A00D20146524110466E
:107E00007047FFE701B5002000F006F802BDC0464C
:107E10000029F7D076E770477047C04680B500AFBD
:107E2000BFF34F8F034B044ADA60BFF34F8FC04656
:107E3000FDE7C04600ED00E00400FA0580B500AFA4
:107E4000034B1B680D209847C046BD4680BDC04609
:107E500038FBFF1F80B500AF72B60B4B1A680A4B98
:107E600080210A431A60094B1B780133DAB2074BB1
:107E70001A70074B1A68064B80210A431A6062B6D3
:107E8000C046BD4680BDC046000004408CF8FF1FC0
:107E90000050044080B582B000AF72B60C4B1B6836
:107EA000002B03DA0A4B5A68BB1D1A80084B1A686C
:107EB000074B802109060A431A60054B1A68044BD8
:107EC00080218A431A6062B6C046BD4602B080BDBA
:107ED0000050044090B583B000AF72B6002000F0AF
:107EE00093FE031E11D0FC1DBB1D1900002000F0E5
:107EF000ADFD03002370BB1D1B78002B05D0FB1DBF
:107F00001B781900002000F013FD62B6C046BD4684
:107F100003B090BD90B583B000AF72B6022000F000
:107F200073FE031E43D0BC1D7B1D1900022000F010
:107F30008DFD030023707B1D1B78002B37D0FB1DAC
:107F400006221A700DE0FB1D1B785A1EFB1D1B78C4
:107F50001949895C184AD154FB1D1A78FB1D013A56
:107F60001A70FB1D1B78002BEDD1134BBA1D127834
:107F70001A701249104B0522180001F070F8031E08
:107F800005D10F4B1900022000F022FD0FE00D4932
:107F9000094B0622180001F062F8031E07D10A4BB4
:107FA00006227C211D2000F087FFFFF737FF62B615
:107FB000C046BD4603B090BD90F8FF1F84900000FE
:107FC0008C900000949000009C90000080B582B0DE
:107FD00000AF72B600F02EF8FA239B0019000020C3
:107FE00000F0F4FE96239B011900022000F050FBE4
:107FF0000D4B1B68012201210D20984700F04AFF1C
:108000000A4BF022D2019A6000237B60022000F02C
:108010007FFD62B67B6801337B607B68044A9342D4
:10802000F8D900237B60F5E73CFBFF1F00ED00E083
:10803000FFFF010080B5A0B000AFE823DB01FB67C4
:108040003A00FB6F100019007C231A0000F0F6FFC5
:108050003B001B681A00234B1A603B005B681A0048
:10806000214B1A603B009B681A00204B1A603B00B2
:10807000DB681A001E4B1A603B001B691A001D4B7F
:108080001A603B005B691A001B4B1A603B009B693E
:108090001A001A4B1A603B00DB691A00184B1A6071
:1080A0003B001B6A1A00174B1A603B009B6D1A00BD
:1080B000154B1A603B009B6A1A00144B1A603B0078
:1080C0001B6F1A00124B1A603B005B6F1A00114BBA
:1080D0001A603B009B6F1A000F4B1A60C046BD46EA
:1080E00020B080BD3CFBFF1F34FBFF1F18FBFF1FB0
:1080F00038FBFF1F30FBFF1F28FBFF1F1CFBFF1F70
:1081000008FBFF1F20FBFF1F14FBFF1F0CFBFF1FC3
:1081100010FBFF1F2CFBFF1F24FBFF1F80B500AFD0
:1081200000F0B4F9C046BD4680BD000090B585B0F2
:1081300000AF78600A00BB1C1A800A23FB180122DA
:1081400052421A800E23FB1800221A803AE00E23B6
:10815000FB181B887A68D3181B7899B20A22BB18BF
:10816000BA1812884A401A800C23FB1800221A8081
:108170001DE008243B190A203A18128801210A4000
:108180001A803B183A18128852081A803B191B882B
:10819000002B06D00A22BB18BA18128810494A4090
:1081A0001A800C217B181A887B1801321A800C2344
:1081B000FB181B88072BDCD90E217B181A887B182B
:1081C00001321A800E23FA18BB1C12881B889A42AF
:1081D000BDD30A23FB181B881800BD4605B090BD0F
:1081E00001A0FFFFB0B586B000AFB9607A600F2381
:1081F000FB18021C1A706D4B1B88002B06D16C4BB0
:108200001B780F22BA1812789A420AD1674B1B8842
:10821000012B11D1664B5B780F22BA1812789A4263
:108220000AD0624B00221A80624B00221A80172368
:10823000FB1802221A70B1E05C4B1B885A1C91B2E9
:108240005A4A11801A007B689B180F22BA181278BC
:108250001A70564B1B88132B0DD17B6811331B787A
:108260009BB21B029AB27B6812331B789BB2D31865
:108270009AB2504B1A804F4B1B88002B00D186E0DE
:108280004A4B1B881A004B4B1B8817339A4200DA63
:108290007DE07B689A1C474B1B8811339BB21221EF
:1082A0000D007C1819001000FFF740FF0300238029
:1082B00029007B181B881B0A9BB2DAB210203B18DE
:1082C0001A707B181B88DAB23B185A70374B1B8820
:1082D000023B7A68D3181A78374B1B789A421FD121
:1082E000324B1B88013B7A68D3181A78324B5B7883
:1082F0009A4215D11023FB181A782E4B1B88133382
:108300007968CB181B789A420AD11023FB185A7847
:10831000284B1B8814337968CB181B789A420AD0F3
:10832000224B00221A80234B00221A801723FB18AD
:1083300002221A7032E01423FB1800221A8010E087
:1083400014203B181B8813337A68D2183B181B88FB
:108350007968CB1812781A703B181A883B180132CA
:108360001A80144B1B881422BA1812889A42E7D339
:10837000104B1A88BB681A800C4B00221A800D4BD8
:1083800000221A801723FB1800221A7006E0BB682F
:1083900000221A801723FB1801221A701723FB18DA
:1083A0001B781800BD4606B0B0BDC04602FBFF1FDB
:1083B00000F8FF1F04FBFF1F04F8FF1F80B582B009
:1083C00000AF0200FB1D1A702C4B1B78002B4ED007
:1083D0002B4B1B785A1CD1B2294A11701900294B1A
:1083E000FA1D12785A54264B1B781A00254B00218F
:1083F0009954234B1B78023B224AD35C4F2B06D166
:108400001F4B1B78013B1F4AD35C4B2B26D01C4BC8
:108410001B78042B2DD91A4B1B78053B194AD35CCA
:10842000452B26D1164B1B78043B164AD35C522BA6
:108430001FD1134B1B78033B124AD35C522B18D12C
:108440000F4B1B78023B0F4AD35C4F2B11D10C4BC7
:108450001B78013B0B4AD35C522B0AD1074B0022FD
:108460001A70074B1A78084B1A70C04601E0C046D4
:1084700000E0C046BD4602B080BDC0469CFAFF1F6A
:1084800099FAFF1F98F8FF1F98FAFF1F90B583B065
:1084900000AF72B6012000F0B7FB031E1DD0012013
:1084A00000F074FBFC1DBB1D1900012000F0CEFA8A
:1084B00003002370BB1D1B78002B0BD0FB1D1B780A
:1084C0001800FFF77BFF074A0749FB1D1B781800C0
:1084D000FFF788FE012000F01BFB62B6C046BD46D8
:1084E00003B090BD40FBFF1F00FBFF1F80B500AF36
:1084F00000F08EF83C493D4AC0239B028B503A4A1B
:108500003B4BD3583849802292001343384A8B5052
:10851000384B9B78DBB21A000823134007D0354B49
:108520009B78DBB2334A08210B43DBB293702E49B0
:108530002E4A80235B028B502B4A2F4BD3582A495B
:108540002E4A13402C4A8B50274B1A68264B2C4935
:108550000A401A60244A284BD3582A4A1340224919
:10856000802252041343244A8B50274B06221A7050
:10857000254B5B78DBB2244A40210B40DBB25370C1
:10858000214BDB78DBB25BB21F2213405BB260226F
:10859000524213435AB21C4BD2B2DA701B4B002228
:1085A0001A70194B00221A71174B00225A71C046DB
:1085B000154B9B79DBB21A0010231340F8D0C0464C
:1085C000114B9B79DBB21A000C231340F8D1064AF9
:1085D000074BD3580449F82292011343044A8B50A5
:1085E000C046BD4680BDC046007004404410000037
:1085F0003810000000D0074004100000FFFFFCFF0F
:10860000FFFFF3FFFFFFFFFC004006400050064065
:1086100080B500AF064A88235B01D35804490C2279
:1086200093431A0088235B01CA50C046BD4680BDF3
:108630000070044080B582B000AF0200FB1D1A70CC
:10864000FB1D1B781A001F231A40044B0121914087
:108650000A001A60C046BD4602B080BD00E100E0DD
:1086600080B582B000AF0200FB1D1A70FB1D1B78A5
:108670001A001F231340054901229A40130080224B
:108680008B50C046BD4602B080BDC04600E100E050
:1086900090B587B000AF02003960FB1D1A709C4B8B
:1086A000FB60FB1D1B78180000F010FB031E00D1BF
:1086B0002AE1FB1D1B78002B00D098E0954A964BD1
:1086C000D35894498022D2041343934A8B50914A41
:1086D000914BD3588F49914A13408F4A8B50904BFE
:1086E0001A6D8F4B8021C9000A431A658C4B5A6D55
:1086F0008B4B8021C9000A435A65C046854A894B85
:10870000D35884498022D2001343864A8B50FB6899
:10871000DB78DBB20C229343DAB2FB68DA70824B6F
:108720001A68FA2399001000FFF7ECFA03001A0008
:1087300013005B019B1A9B009B18DB001A003B682F
:108740001B0119001000FFF7DDFA03001A001221C7
:1087500008007B181A80FB681B78DAB211243B19D9
:108760001F218A431A7001007B181B881B12DBB281
:108770001F221340DAB23B191B781343DAB2FB68AD
:108780001A707B181B88DAB2FB685A70FB680F22DC
:108790009A72FB6800229A70FB6800229A71FB684B
:1087A00000221A72FB6800225A72FB681B79DBB246
:1087B0001F221343DAB2FB681A71FB685B79DBB2E4
:1087C000402252421343DAB2FB685A71FB68DB78ED
:1087D000DBB27F221340DAB2FB68DA70FB68DB7829
:1087E000DBB20C221343DAB2FB68DA708DE0FB1DBA
:1087F0001B78012B02D0022B13D025E0484BC0225E
:1088000092001A60464BC02292005A60C046414A0C
:10881000444BD3583F49802212011343414A8B50A5
:1088200012E03F4BC02292001A643D4BC0229200DE
:108830005A64C046374A3B4BD358364980225201CE
:108840001343384A8B50C046FB1D1B785A1E374BCA
:108850009200D3587B617B69DB78DBB20C229343B7
:10886000DAB27B69DA70304B1A68FA23D90010004B
:10887000FFF748FA03001A0013005B019B1A9B00E4
:108880009B18DB001A003B681B0119001000FFF762
:1088900039FA03001A00122108007B181A807B693C
:1088A0001B78DAB211243B191F218A431A70010088
:1088B0007B181B881B12DBB21F221340DAB23B1954
:1088C0001B781343DAB27B691A707B181B88DAB203
:1088D0007B695A707B6900229A707B6900229A71C9
:1088E0007B6900225A717B69DB78DBB27F221340FF
:1088F000DAB27B69DA707B69DB78DBB20C22134376
:10890000DAB27B69DA7000E0C046BD4607B090BDC0
:1089100000A006400070044004100000FFFFFEFFAE
:1089200000D004403410000008F8FF1FA49000009D
:1089300080B586B000AF0200FB1D1A70BB1D0A1C7B
:108940001A70204B3B61FB1D1B785A1E1E4B920078
:10895000D358FB60FB1D1B78180000F0B7F9031E0D
:1089600001D100232AE000237B611CE0FB1D1B7862
:10897000002B0AD13B691B79DBB25BB2002B0FDA0B
:108980003B69BA1D1278DA7111E0FB681B79DBB222
:108990005BB2002B04DAFB68BA1D1278DA7106E0CC
:1089A0007B6901337B617B69084A9342DED97B692D
:1089B000064A934201D9002300E001231800BD4676
:1089C00006B080BD00A00640A4900000BAFB0000E5
:1089D00080B584B000AF02003960FB1D1A700E2311
:1089E000FB1800221A803B68BB60FB1D1B78180037
:1089F00000F06CF9031E01D1002323E00E23FB18C5
:108A000000221A8015E00E23FB181B88BA68D318C1
:108A10001A78FB1D1B7811001800FFF789FF031E51
:108A200001D100230EE00E217B181A887B18013239
:108A30001A800E23FB181B88BA68D3181B78002BEA
:108A4000E1D101231800BD4604B080BD80B586B0D9
:108A500000AF02003960FB1D1A702A4BFB60FB1D42
:108A60001B785A1E284B9200D358BB60FB1D1B7805
:108A7000180000F02BF9031E04D13B6800221A7085
:108A800000233BE000237B6126E0FB1D1B78002BCD
:108A90000FD1FB681B79DBB21A002023134018D0DA
:108AA0001323FB18FA68D2791A703B6801221A70F6
:108AB00016E0BB681B79DBB21A002023134008D0F4
:108AC0001323FB18BA68D2791A703B6801221A7016
:108AD00006E07B6901337B617B690C4A9342D4D900
:108AE0007B690A4A934206D91323FB18FF221A70A6
:108AF0003B6800221A701323FB181B781800BD4630
:108B000006B080BD00A00640A4900000BAFB0000A3
:108B100080B584B000AF0200FB1D1A70184BFB60DB
:108B2000FB1D1B785A1E174B9200D358BB60FB1DD0
:108B30001B78180000F0CAF8031E1CD0FB1D1B7820
:108B4000002B08D1FB68DB78DBB220221343DAB2BA
:108B5000FB68DA7007E0BB68DB78DBB220221343E6
:108B6000DAB2BB68DA70FB1D1B78074AD3561800CF
:108B7000FFF760FD00E0C046BD4604B080BDC046C2
:108B800000A00640A49000000CF8FF1F80B584B040
:108B900000AF0200FB1D1A70184BFB60FB1D1B7819
:108BA0005A1E174B9200D358BB60FB1D1B78180050
:108BB00000F08CF8031E1CD0FB1D1B78002B08D185
:108BC000FB68DB78DBB220229343DAB2FB68DA7011
:108BD00007E0BB68DB78DBB220229343DAB2BB68E4
:108BE000DA70FB1D1B78074AD3561800FFF738FDD3
:108BF00000E0C046BD4604B080BDC04600A00640AF
:108C0000A49000000CF8FF1F80B586B000AF0200F2
:108C1000FB1D1A702B4B7B61FB1D1B785A1E2A4BC8
:108C20009200D3583B61FB1D1B78180000F04EF8F2
:108C3000031E01D1002340E0FB1D1B78002B1ED139
:108C40007B69DB78DBB27F221340DAB27B69DA70B2
:108C50007B691B79DAB20F203B1820210A401A7079
:108C60003B181B785B09DBB27A69D278D2B2520921
:108C7000D2B21340DBB201221340DBB21DE03B69EC
:108C8000DB78DBB27F221340DAB23B69DA703B69F2
:108C90001B79DAB20F203B1820210A401A703B18CA
:108CA0001B785B09DBB23A69D278D2B25209D2B2F0
:108CB0001340DBB201221340DBB21800BD4606B000
:108CC00080BDC04600A00640A490000080B582B0E0
:108CD00000AF0200FB1D1A70FB1D1B78022B01D98F
:108CE000002300E001231800BD4602B080BD000053
:108CF00090B583B000AF02003960FB1D1A70FB1DF8
:108D00001B787F2B32D92F4AFB1D1B7819000F23AC
:108D10000B40083B9B0806339B00D31804331B68A9
:108D2000FA1D1278110003220A40D200FF2191405F
:108D30000A00D2431A4011003B689B01FF221A40EF
:108D4000FB1D1B78180003230340DB009A401D48DD
:108D5000FB1D1B781C000F232340083B9B080A4384
:108D600006339B00C31804331A6027E0164AFB1D24
:108D70001B785BB29B08C0339B009B58FA1D12788E
:108D8000110003220A40D200FF2191400A00D24381
:108D90001A4011003B689B01FF221A40FB1D1B7803
:108DA000180003230340DB009A400748FB1D1B7893
:108DB0005BB29B080A43C0339B001A50C046BD46B5
:108DC00003B090BD00ED00E000E100E080B582B0AE
:108DD00000AF0200FB1D1A703B1D0A1C1A802A4BB3
:108DE00000221A60284B00229A60FB1D1B78002B82
:108DF0001BD13B1D1B88002B07D13B1D1B88234A21
:108E0000934202D93B1D0A221A80214B1A68FA2389
:108E100099001000FEF776FF03001A003B1D1B8827
:108E20005A43194B12095A601DE03B1D1B88002B49
:108E300008D13B1D1A885E23FF339A4202D93B1D9D
:108E40000A221A80124B1A68FA2399001000FEF7C2
:108E500059FF030019003B1D1A880B4B4A435A6007
:108E6000094B04221A6001235B4203211800FFF71B
:108E70003FFF054B1A68044B03210A431A60C046A2
:108E8000BD4602B080BDC04610E000E0D81500002D
:108E900008F8FF1F80B500AFC046064B1B78DBB259
:108EA0005BB2002BF9DA034B30221A70C046BD4684
:108EB00080BDC0460000024090B589B000AF0400FC
:108EC000080011007B600E23FB18221C1A800C2462
:108ED0003B19021C1A800A23FB180A1C1A803B1932
:108EE0001B88032213409BB2002B01D0012344E0D6
:108EF000244B0622DA710E23FB181B889A020C23DE
:108F0000FB181B88D318BB61BB697B610023FB6125
:108F10002CE01C4A14217B189B789371194A7B180A
:108F20005B785371174A7B181B781371154A7B685D
:108F3000DB78D372134A7B689B789372114A7B6803
:108F40005B7853720F4A7B681B78137200F01CF831
:108F50000300012B01D102230FE0FB690433FB6105
:108F60007B6904337B617B6804337B600A23FB18D5
:108F70001B88FA699A42CCD300231800BD4609B079
:108F800090BDC0460000024080B500AF0D4B3022BE
:108F90001A7072B60B4B80221A70C046094B1B78B0
:108FA000DBB25BB2002BF9DA62B6064B1B78DBB2A0
:108FB0001A003123134001D0012300E000231800E0
:108FC000BD4680BD00000240084B10B50400002BD8
:108FD00002D0002100E000BF054B1868836A002B17
:108FE00000D09847200000F04BF8C0460000000079
:108FF000AC90000070B500260C4D0D4C641BA41005
:10900000A64209D1002600F053F80A4D0A4C641B11
:10901000A410A64205D170BDB300EB5898470136A5
:10902000EEE7B300EB5898470136F2E7D090000026
:10903000D0900000D0900000D4900000002310B524
:109040009A4200D110BDCC5CC4540133F8E7030050
:109050001218934200D1704719700133F9E70023C9
:1090600030B59A420AD0013AC45CCD5CAC4204D11E
:10907000934202D00133002CF6D1631B180030BD9F
:10908000FEE7C046656B6168730000007368616B42
:10909000650000006574616470750000757064613E
:1090A0007465000000B0064000C0064010F8FF1FC5
:1090B000F8B5C046F8BC08BC9E467047F8B5C04637
:0890C000F8BC08BC9E46704795
:0890C80090EBFF7F01000000A6
:0490D000397C0000E7
:0490D400117C00000B
:1090D8005621000053240000006CDC020C0D0E0029
:1090E8000000000000000000000000000000000078
:1090F8000000000000000000000000000000000068
:109108000000000000000000000000000000000057
:109118000000000000000000000000000000000047
:109128000000000000000000000000000000000037
:109138000000000000000000000000000000000027
:0400000300007CD1AC
:00000001FF
