:1000000000080020E90400002D0500002D05000077
:1000100000000000000000000000000000000000E0
:100020000000000000000000000000002D0500009E
:1000300000000000000000002D050000BD060000CB
:100040002D0500002D0500002D0500002D050000E8
:100050002D0500002D0500002D0500002D050000D8
:100060002D0500002D0500002D0500002D050000C8
:10007000D90600000D070000E10700002D05000073
:100080002D0500002D0500002D0500002D050000A8
:100090002D0500002D0500002D0500002D05000098
:1000A0002D0500002D0500002D0500002D05000088
:1000B0002D0500002D0500002D0500002D05000078
:10040000FFFFFFFFFFFFFFFFFFFFFFFFFEFFFFFFFD
:1004100010B5064C2378002B07D1054B002B02D0DA
:10042000044800E000BF0123237010BDC0F8FF1F87
:1004300000000000C03A000008B5084B002B03D0B4
:100440000748084900E000BF07480368002B03D0B5
:10045000064B002B00D0984708BDC04600000000A6
:10046000C03A0000C4F8FF1FB8F8FF1F00000000EA
:10047000164B002B00D1144B9D46402292029A1A33
:10048000924600218B460F461348144A121A01F077
:1004900026FD0F4B002B00D098470E4B002B00D0B1
:1004A00098470020002104000D000D48002802D0CC
:1004B0000C4800E000BF01F0D9FC2000290000F04A
:1004C00011FB01F0A5FCC046000008000008002058
:1004D0000000000000000000C0F8FF1F7CFEFF1FAE
:1004E000000000000000000072B600F0A3FD62B63C
:1004F00009490A4A0A4B9B1A03DD043BC858D050ED
:10050000FBDC0849084A521A03DD00208850043AEF
:10051000FCDAFFF7ADFF0000E83A000000F8FF1F2B
:10052000BCF8FF1FC0F8FF1F7CFEFF1F00480047FC
:100530002D050000002934D00123002210B4884288
:100540002CD301242407A14204D2814202D2090102
:100550001B01F8E7E400A14204D2814202D2490023
:100560005B00F8E7884201D3401A1A434C08A042C6
:1005700002D3001B5C0822438C08A04202D3001B5C
:100580009C082243CC08A04202D3001BDC08224373
:10059000002803D01B0901D00909E3E7101C10BC97
:1005A0007047002801D00020C04307B4024802A1D0
:1005B0004018029003BDC046D90000000029F0D0C9
:1005C00003B5FFF7B9FF0EBC4243891A1847C0466E
:1005D000002941D010B4041C4C40A4460123002241
:1005E000002900D54942002800D5404288422CD33A
:1005F00001242407A14204D2814202D209011B0135
:10060000F8E7E400A14204D2814202D249005B0033
:10061000F8E7884201D3401A1A434C08A04202D39B
:10062000001B5C0822438C08A04202D3001B9C08DC
:100630002243CC08A04202D3001BDC08224300283E
:1006400003D01B0901D00909E3E7101C6446002C04
:1006500000D5404210BC7047002806D003DB0020C4
:10066000C043400801E08020000607B4024802A110
:100670004018029003BDC046190000000029EBD0CD
:1006800003B5FFF7A7FF0EBC4243891A1847C046BF
:100690007047C04602780B7801300131002A01D042
:1006A0009A42F7D0D01A704703B471464908400007
:1006B0004900095A49008E4403BC704730B50549CA
:1006C000012200230C684D6812196B410A604B60CF
:1006D00030BDC046F8FBFF1F10B582B072B60020D7
:1006E00000F082FE002802D162B602B010BD6C4656
:1006F0000734211C002000F0F7FD2378011C002B9B
:10070000F2D0002000F094FDEEE7C04610B582B0B4
:1007100072B6012000F068FE002802D162B602B075
:1007200010BD6C460734211C012000F0DDFD23784C
:10073000011C002BF2D0012000F07AFDEEE7C0464C
:1007400030B5254C2388012B27D0002B1ED0022B3F
:100750000AD0032B10D104232380204BC8701A88A1
:1007600080181880012030BD032323801B4B887024
:10077000000218800120F6E7C85418485D1C038861
:10078000ADB22580AB420ED00120ECE75028FBD162
:100790000123087023800120E5E750280DD00023B5
:1007A00023800220DFE7C9188D1E2D78432D09D044
:1007B0000023038023800320D5E702234870238091
:1007C0000120D0E7013909784329F1D113800023B2
:1007D000038023800020C6E7DEF8FF1FDCF8FF1F40
:1007E00030B583B072B6022000F0FEFD002802D1C1
:1007F00062B603B030BD6C4607340220211C00F005
:1008000073FD2378051C002BF2D01B4C631D611E69
:100810001A78013B9A708B42FAD1201C17490522A5
:10082000257002F0B6FA002811D0201C14490622C7
:1008300002F0AFFA00280FD0281C1249124AFFF725
:100840007FFF0028D4D1114B02221A70D0E7104943
:10085000022000F031FDEFE7C02106220D4B1D20E4
:1008600001F0AAF9BFF34F8F0B4A0C4BDA60BFF3CC
:100870004F8FC046FDE7C046E0F8FF1F043600007A
:1008800014360000F8F9FF1F00FCFF1F02FCFF1FD9
:100890000C3600001C3600000400FA0500ED00E0F4
:1008A00010B5084B82B01B68041C01A8019301F02D
:1008B000C5FA1421031C044A201C01F045FE02B0B5
:1008C00010BDC046F8FBFF1F2436000030B585B0D0
:1008D0000022042301A81E2101F0A8F90F4B019A60
:1008E0009A4204D00E4B0A221A7005B030BD02ACF9
:1008F000201C1D21C022062301F098F90025201C90
:100900000849A571FFF7C6FE002803D1044B012258
:100910001A70EAE7024B1D70E7E7C0460018002096
:1009200002FCFF1F1C36000000B53E4BB1B0009327
:100930003D4B694601933D4B1D2002933C4B039375
:100940003C4B04933C4B05933C4B06933C4B079329
:100950003C4B08933C4B09933C4B0A933C4B0B9309
:100960003C4B0C933C4B0E933C4B0D933C4B0F93E9
:100970003C4B10933C4B3D4A11933D4B12933D4BE6
:1009800013933D4B14933D4B15933D4B16933D4BA9
:1009900017933D4B18933D4B19933D4B1A933D4B89
:1009A0001B933D4B1C933D4B1D933D4B1E933D4B69
:1009B0001F938023CA503C4A8423CA503B4A882351
:1009C000CA503B4A8C23CA503A4A9023CA503A4AEA
:1009D0009423CA50394A9823CA50394A9C23CA5092
:1009E000384AA023CA50384AA423CA50374AA823F9
:1009F000CA50374AAC23CA50364AB023CA50364A86
:100A0000B423CA50354AB823CA50354ABC23CA5009
:100A100001F08EF80021C0226B461D2001F0CCF8B9
:100A200031B000BDA10800006D1D0000CD1C00000C
:100A3000091B0000311B0000B91B00002D1C000029
:100A40003D1C0000451C0000A11C0000E518000032
:100A5000451900006D190000A51900008919000052
:100A6000DD1900002D1A0000751A00009D14000009
:100A70008D1A0000AD1A0000DD1A00005D1800009C
:100A800099180000A9180000C518000009160000F8
:100A9000AD170000DD170000051800001D1800004C
:100AA0004518000051180000511500009D15000068
:100AB000AD150000CD150000ED150000FD10000083
:100AC0003112000081120000B9120000E91200008A
:100AD00045130000551300009D130000E9130000AA
:100AE00035140000F0B544465F4656464D46F0B416
:100AF0003A4CA54472B696210220890100F0FEFA14
:100B000001F002F801210C2000F074FA1E2000F020
:100B10009DF8334A334C00233349237090461380A9
:100B20000220002200230A604B6000F013FC62B632
:100B3000FFF7CCFE2D4B2E4A9B462E4B6F460025D1
:100B4000924606370A2699462378012B20D0002B9F
:100B50002CD0022B22D142461188504600F09EF93B
:100B60000128F1D0002835D0032831D004282AD11B
:100B700006203A1C6F4602A9063700F0F7F83988BC
:100B8000022002AA00F07CFB26702378012BDED124
:100B90000220594600F090FB2670D5E701354D45FF
:100BA000D2D90C2000F030FA0025CDE7FFF7BCFECB
:100BB0000C20012100F024FA72B6F020C00100F0F0
:100BC00027FA62B6C0E7062806D100232370BBE7E8
:100BD0000520CEE70420CCE70720CAE7F4FDFFFF9D
:100BE00000FCFF1F02FCFF1FF8FBFF1F3836000050
:100BF000F8F9FF1FFFFF0500031C202800DD20235C
:100C00001F22134001229A40131C014A13607047AF
:100C100000E100E0031C202800DD20231F221340F8
:100C200001229A400249131C80228B507047C04613
:100C300000E100E096235B015843002804D0002324
:100C4000C04601338342FBD17047C046054B0022AA
:100C5000191C32311A7001338B42FBD1024B1870D0
:100C60007047C04604FCFF1F38FCFF1FF0B5124B55
:100C700097B01E88071C012E1BDD104D013E00247D
:100C8000002301A9EA5C002A06D162008A18180A2A
:100C90000134D3701071E4B201339BB2B342F1DB83
:100CA0006B469C71381C532201F010F9381C17B0A8
:100CB000F0BD002401A9F3E736FCFF1F04FCFF1F71
:100CC000F8B54646904609224F469146C144C0B405
:100CD0004A461F1C50233B707B701312BB70FA7086
:100CE00038714246781D0C1C01F0F0F8434605337C
:100CF0009BB29C464346002B30D0013B9BB2621C0A
:100D0000D2181848184B211C01260C786040082482
:100D1000351C05404008002D01D0584080B2013CF0
:100D2000A4B2002CF4D101319142EED1030AC0B239
:100D30006246BB544346424606339BB20732F854E0
:100D400092B24323BB544246083292B2BB54089B32
:100D50004A461A800CBC90469946F8BDFF20FF23F6
:100D6000E6E7C046FFFF000001A0FFFFF0B5174C0B
:100D70000E1CA544171C041E052C21D0062817D0D4
:100D80000120042C03D081239B009D44F0BD03ADC2
:100D90000F49281CF322520001F098F8F322520068
:100DA000201C0097291C331CFFF78AFF0020EAE76C
:100DB00003AD5322281C074901F088F85322EFE7BE
:100DC0000349002303AD4B80281CE3E7FCFDFFFF34
:100DD00090FCFF1F3CFCFF1FF0B5454657464E46B2
:100DE000E0B405780124502D05D0201C1CBC904691
:100DF0009946A246F0BD4578502DF6D18478C57845
:100E0000240225430479AA460C70291C093989B2A9
:100E100088461980431D41469946002936D02C1C2E
:100E20000A3C191CA4B2831D1B199C46194F1A4B6E
:100E300001260C7863400824351C1D405B08002DFA
:100E400001D07B409BB2013CA4B2002CF4D1013113
:100E50006145EED1190ADBB25044041F2578022403
:100E60008D42C2D1C11E09789942BED1831E1B7822
:100E70000324432BB9D101380378432BB5D1101C7F
:100E80004946424601F022F80024AEE7FF23FF2145
:100E9000E2E7C04601A0FFFFFFFF0000F0B54F4CA6
:100EA000A54469466B465D3118AA5E33FFF794FF8F
:100EB000012400280CD15D226A441378012B0CD048
:100EC000002B49D0022B3ED0DC1E63425C4105342E
:100ED000201C99239B009D44F0BD5E236B441A881F
:100EE000F32302245B009A42F2D13D4D18A9281C3D
:100EF00000F0ECFF3B4B2A881B8803249A42E7D181
:100F00002B79012B26D16B7900260024002B14D0DD
:100F1000A300EB18DB88A200AA181789980A9B0582
:100F2000990DAB1956333A1C00F046FE01346B792B
:100F3000BE19E4B2B6B2A342EAD86B882A4A0121AC
:100F4000D1540024C4E75E236B441A88F3235B006A
:100F50009A422CD00024BBE7244B1C783F2C09D8A4
:100F6000201C013400F0E4FDE4B23220FFF762FE01
:100F7000402CF5D11C4C0022211C231C32311A704C
:100F800001338B42FBD15E236B441A88F3235B0051
:100F90009A42DFD1124D18A9281C00F097FF2A8829
:100FA000104B1A806B880122E254002490E70C4D0C
:100FB00018A9281C00F08AFF6B880B4A6846D45495
:100FC0000B4CFFF753FE201C6946532200F07EFFB6
:100FD000A378002BBED004247AE7C0469CFDFFFF17
:100FE00090FCFF1F36FCFF1F04FCFF1F38FCFF1F97
:100FF0003CFCFF1F08B50A1C012100F073FC08BD72
:1010000008B500F09FFC08BD08B500F0BDFC08BDA8
:1010100000B585B00190019B5A68019B013306D051
:101020000392019B1B6883F30888039B984705B0D4
:1010300000BDC046274B8822002152019950264A04
:10104000C02189029950254A80219858890001437E
:101050009950234B9A78110704D5997808220A43AE
:10106000D2B29A701B4B1C4A8021490299501D4AEA
:101070001D4998580140995018681C490140196051
:1010800098581B4901408020400401439950194958
:1010900006230B704B78402213404B70CB781F22F5
:1010A0001340A0221343144ACB70002313700B711A
:1010B00010224B718B791A42FCD00E490C228B798D
:1010C0001A42FCD1034A054BF821D058890101434B
:1010D000D1507047007004404410000038100000E8
:1010E00000D0074004100000FFFFFCFFFFFFF3FFEC
:1010F000FFFFFFFC004006400050064070B5051C95
:101100000E1C022879D800282FD0C022404B920014
:10111000022D00D172E01A605A603E4A3E4B802197
:10112000D05809010143D1503C4B013DAD00EC5872
:101130000C22E378FA219343E370394BC900186815
:10114000FFF7F8F9FA239B0058433101FFF7F2F952
:101150002378C2041F21D20E8B4313432370C0B2E5
:1011600000236070A370A3713EE02A4B2D4A8021BA
:101170009858C9040143995098582B492B4C014069
:101180009950234A8021106DC90008431065506DA5
:1011900008435065204A985801439950E3780C223F
:1011A0009343E3701E4BFA2118688900FFF7C2F9D8
:1011B000FA239B0058433101FFF7BCF92378C2049E
:1011C0001F21D20E8B4313432370C0B20F236070D4
:1011D000A372A570A5712572657222791F2313432E
:1011E00023716279C02313436371E3787F22134034
:1011F000E370E2780C231343E37070BD1A645A6401
:10120000044A054B8021D05849010143D1508BE756
:1012100000D0044000700440341000004836000044
:1012200000F8FF1F04100000FFFFFEFF00A00640B3
:10123000021C104B0138800030B5C4580020022A2F
:1012400011D80D4B0D4D06E0287940B200280BDB7C
:10125000013B002B0CD0002AF6D0207940B20028A8
:10126000F6DAE171012030BD044B0120D971FAE7B3
:101270000020F8E748360000BBFB000000A0064055
:10128000F8B5061C0F1C022811D8151C00240029D3
:1012900005D10EE00134A4B20135BC4209D0297851
:1012A000301CFFF7C5FF0028F4D1A74201D9002068
:1012B000F8BD0120FCE7C04670B5051C0E1C0228D5
:1012C0000ED809780024002905D10BE00134A4B21E
:1012D000315D002906D0281CFFF7AAFF0028F5D1B0
:1012E000002070BD0120FCE7421E134B920070B538
:1012F000D558022813D8114B2022114E05E034791D
:10130000224210D1013B002B13D00028F7D02C79BA
:101310002242F7D0E8790123C0B20B7002E000232B
:101320000B70002070BD064BD8790123C0B20B7042
:10133000F8E70B70FF20F5E748360000BBFB000024
:1013400000A006400023022802D84B424B41DBB2EA
:10135000181C7047421E0D4B9200D35802280ED81D
:1013600000280DD0D97820220A43DA70084B1F22BA
:101370001B5C1A40012393401A1C064B1A607047ED
:10138000054B2022D9780A43DA70EFE7483600008F
:1013900004F8FF1F00E100E000A00640421E0E4BD3
:1013A0009200D35802280FD800280ED0DA782021D6
:1013B0008A43DA70094B1F211B5C094A194001233B
:1013C0008B40191C8023D1507047064B2021DA78BE
:1013D0008A43DA70EEE7C0464836000004F8FF1F83
:1013E00000E100E000A00640411E104A8900031CF5
:1013F0008A580020022B0BD8002B0AD0D3787F21EB
:101400000B40D3701379D0789B06DB0F400918404E
:101410007047074B7F21DA780A40DA701A79D8785A
:101420009306DB0F40091840F2E7C046483600003B
:1014300000A0064001281AD000280CD0022809D1AB
:10144000104B00221A645A640F4A104B1049D058AE
:101450000140D15070470B4B0E491A6D1A655A6DF9
:101460005A65094A094BD0580140D150F2E7054B63
:1014700000221A605A60044A044B0749D0580140C0
:10148000D150E7E700D00440007004403410000061
:10149000FFEFFFFFFFFBFFFFFFF7FFFF264A274B92
:1014A00030B5D55820242C43D450D5588024A400DE
:1014B0002C43D450052806D8214A8300D3589F4690
:1014C000204B00221A60204B40221C680007224358
:1014D0001A601C68202222431A601A681B4C22439F
:1014E0001A601C688022520522431A601C68102270
:1014F00022431A601C688022120622431A601C686C
:10150000042222431A605A681043586018688022E7
:1015100002431A60996030BD0A4B00221A61D2E77B
:10152000084B00225A60CEE7064B00229A60CAE7B9
:10153000044B0022DA60C6E7007004403810000057
:10154000503600000090044000500440004B8600DC
:1015500010B5114C40222368042093432360626835
:101560008023DB031343636023680B4A0421184282
:10157000FAD013680B4313605068802314681B066D
:1015800023431360136880B219431160116840232C
:101590000B43136010BDC046005004400904024BC9
:1015A000084398607047C0460050044008B5064B99
:1015B000402219681A200A431A60196810220A4347
:1015C0001A60FFF719FB08BD0050044008B5064B30
:1015D00040211A681A208A431A601A6810218A4327
:1015E0001A60FFF717FB08BD00500440054B10219F
:1015F0001A688A431A6059688022D2030A435A60E3
:101600007047C04600500440F8B506AC2578604CE1
:1016100001284FD15F488026275836043E43265084
:101620005D488024A400046144618461C4615B4816
:101630000024C470C67840243443C470C67801299D
:1016400000D190E080243443C470002B00D084E0AB
:10165000524B0824D878A043D870504B002D00D0AE
:1016600076E0D8780424A043D8704C4B0220DC7874
:101670002043D87000209870012900D180E0474BAA
:10168000002159704648111CFEF7A2FFC0B2C307E3
:1016900000D57AE00023012201334008DBB2024288
:1016A000FAD001383F4A0001C0B2507051780B4364
:1016B0005370F8BD374880262758F6033E4326501E
:1016C00039488024A400046144618461C4613548C0
:1016D0000024C470C67840243443C470C6780129FD
:1016E00045D080243443C470002B2BD12D4B0824CB
:1016F000D878A043D8702B4B002D1ED1D878042465
:10170000A043D870274B0220DC782043D8700020FB
:10171000987001292FD0234B002159702048111CAB
:10172000FEF756FFC0B2C3072FD4002301220133B6
:101730004008DBB20242FAD0B3E7DC780420204351
:10174000D870DFE7174B0820DC782043D870D2E749
:10175000DC7804202043D87087E7104B0820DC7821
:101760002043D87079E710243443C4706DE7102407
:101770003443C470B8E79878102101439970CAE7E0
:10178000987810210143997079E7002389E7C046D2
:10179000007004403410000000C004400070074096
:1017A000E02E00000060074000B00440094BC21862
:1017B0001203202013781842FCD09171064B20218F
:1017C00002E0013B002B03D010780840F9D0012043
:1017D0007047C04676000400F0FF0000084B30B5AB
:1017E000C018000300252024002908D003781C42DB
:1017F000FCD0535D0135837103788D42F6D330BD43
:1018000076000400044BC018000303785BB2002B81
:10181000FBDA8079C0B2704776000400084B10B53F
:10182000C018000300248C4201D3012010BD0378AE
:101830005BB2002BFBDA837913550134F3E7C04622
:101840007600040008B50A3040B2FFF7D5F908BDAC
:1018500008B50A3040B2FFF7DDF908BD0B4B0C4963
:1018600010B55C58012214435C501C688021C902E9
:1018700021431960074B05215C6800042143000CDB
:101880005960986019680A431A6010BD00700440DE
:101890003810000000000440024B802219680A43FF
:1018A0001A60704700000440044B402219680A4344
:1018B0001A60034B802252051A60704700000440F2
:1018C00000E100E0054B40211A688A431A6080213C
:1018D000034A49058023D1507047C04600000440A8
:1018E00000E100E070B5144BC5B2144E000A800050
:1018F000C4588059AB00C3181E68114830401860A6
:101900001E6880204000304318606369012904D0BC
:101910000122AA409343636170BDA9400B430D1C93
:101920006361012A03D023688B432360F4E72168B5
:101930000D432560F0E7C046683600007C360000A5
:10194000FFF8FFFFC2B2084B000A8000C3581868B6
:10195000012904D0012191408843186070479140CB
:101960000A1C02431A60F9E768360000020A054BB8
:101970009200D358C0B21B69C340181C0123184001
:101980007047C04668360000020A054B9200D358E3
:10199000C0B20121DA688140081C1043D86070474A
:1019A00068360000020A0C4B9200D358C0B2800087
:1019B000181803684022934303600268022313430C
:1019C00003600368012903D0012293430360704739
:1019D00019430160FBE7C0467C36000010B5030ADE
:1019E000104A9C00A258C0B28000101804688022DF
:1019F000520422430260F0240268090424032140B7
:101A000011430160002B08D0023B012B00D910BD0F
:101A10008022054B12061A60F9E78022024BD2059C
:101A20001A60F4E77C36000000E100E0030A0E4A89
:101A300099008A58C0B28000101801680B4A0A4009
:101A40000260002B09D0023B012B00D97047802196
:101A5000074A09068023D150F8E78021044AC905C6
:101A60008023D150F2E7C0467C360000FFFFF0FF34
:101A700000E100E0020A044B9200D358C0B280009B
:101A8000C058C001C00F70477C360000020A064BE8
:101A90009200D358C0B280001818026880235B04FB
:101AA000134303607047C0467C360000064901229C
:101AB000A0235242CA500549CA500549CA50054997
:101AC000CA500549CA5070470090044000A0044025
:101AD00000B0044000C0044000D00440C3B2094A32
:101AE000000A800082589B00012905D0D3181A688B
:101AF00040218A431A607047D218116840230B4373
:101B00001360F8E77C360000074A13785BB2002BBD
:101B1000FBDA054B30221A70044B8022D96852023E
:101B20000A43DA607047C04600000240003000F00F
:101B30001F49092310B5CB71830484021B0E800654
:101B40008B71000EE3B248710B7130230B7072B6CB
:101B500080230B700B78164A5BB2002BFADA62B660
:101B600013783120184001D0012010BD114B9C4248
:101B7000FBD80623D3710423907153710C23137186
:101B8000FF23D37293725372FE23137230231370A8
:101B900072B68023137013785BB2002BFBDA62B647
:101BA000034B31201B781840DFD00220DDE7C04610
:101BB00000000240FF030000F0B5051C01208C0767
:101BC0002FD1194E0620AD02F0716D181C1C002A91
:101BD00026D03021301C8C46802731262902090E60
:101BE00081712904090E4171E9B20171E178C17274
:101BF000A178817261784172217801726146017029
:101C000072B60770017849B20029FBDA62B606495C
:101C100009780E4206D104340435E11A9142DDD32D
:101C20000020F0BD0220FCE70000024008B5890258
:101C300089181A1C00F04AF908BDC04608B500F022
:101C400045F908BD43080720021C1A400320DB08A1
:101C5000C01AC0B201281AD0002811D0022808D01A
:101C6000032805D10D4B0120197C90408143197444
:101C700070470A4B0120597C904081435974F7E723
:101C8000064B0120D97C90408143D974F0E7034B87
:101C90009040997C0A1C82439A74E9E70000024054
:101CA00000290ED00378FF2B0DD14A1E013092B2CD
:101CB000821804E00130431E1B78FF2B03D19042B1
:101CC000F8D1012070470020FCE7C0461F230340E5
:101CD0000648802103600368044A1942FBD010695A
:101CE000136880218B4380B21360704700B00340BB
:101CF0001D484022036A802193430362436A0B22FA
:101D000093434362426A072313434362426A802338
:101D1000134343620368144A1942FBD0536A5906BD
:101D20001FD4D16C936CCB18516C5B18116C5B1881
:101D3000D16B5B18916B5B18DBB25B08D362D16E21
:101D4000936ECB18516E5B18116E5B18D16D5B18DA
:101D5000916D5B18DBB25B081363536A80218B4380
:101D60005362C0467047C04600B00340F8B5254CEA
:101D7000254D80262F593605083A3E43D2B22E51C2
:101D80005D24052A05D801249440221C512495077E
:101D900021D01E4A0F259460D468AC43D46001283A
:101DA00023D0D0681024A043D060184A00201062CD
:101DB000546A0C2020430324234003435362012927
:101DC00018D0136820218B431360104B40211A68F0
:101DD0008A431A60F8BD0C2559241542D9D1302503
:101DE0005D241542D5D05524D3E7D4681020204374
:101DF000D060DAE7116820230B431360FFF778FF08
:101E0000E3E7C0463C1000000070044000B003400F
:101E1000084B10B5041C002B02D0002100E000BFCD
:101E2000054B1868836A002B00D09847201C01F0EE
:101E3000E7FBC046000000009436000038B5074BB1
:101E4000051C1C68E36B002B03D1242000F034F840
:101E5000E063281CE16B00F003F838BD68F8FF1F51
:101E600008B5012200F0F8F808BD000070B50E4B6F
:101E70000E4D0024ED1AAD101E1CAC4204D0A30080
:101E8000F35898470134F8E701F01AFE084B094D62
:101E90000024ED1AAD101E1CAC4204D0A300F35870
:101EA00098470134F8E770BDE03A0000E03A0000DE
:101EB000E03A0000E43A000008B5034B011C186842
:101EC00000F06EFA08BDC04668F8FF1F10B5002389
:101ED000934203D0CC5CC4540133F9E710BD031C1A
:101EE0008218934202D019700133FAE7704700005C
:101EF000F0B587B0051C01F001F84F4B061C002718
:101F00009D4200DC95E045604C486E242B18FF3460
:101F10005C434B494B4A6B186421A8189B104942FB
:101F2000E418FEF755FB484BC82124184900E8186F
:101F3000FEF74EFB201802906421281CFEF79EFB42
:101F40000491C821281C4900FEF798FB4B424B41E5
:101F5000DBB2341C019314340397231C0C3B1B7815
:101F60004A2B12D123680298C218A90702D10498FB
:101F7000002803D101980021884203D001213B2B86
:101F800000DC0021511801393EE0442B03D1029AB4
:101F90002368D11838E0019BA80704D104990123D4
:101FA000002900D1019B30225343284AD3180593BE
:101FB000231C083B1F68029B059A00930123BB4228
:101FC00005DA009802CA013340180090F7E7002FA5
:101FD00000DC0127009807210430FEF74FFB226840
:101FE000531A00D50733221F1168072201395143C4
:101FF000C918174B0598FF18BF003B58994201DBE1
:102000000739FBE7009A5118124BE068594363689F
:10201000C9180918A16003991C34013103910229E0
:102020009BD1F269B06B0123824200DB0023336055
:102030000127381C07B0F0BDB10700004EF8FFFFC4
:102040004FF8FFFF93F8FFFFBFF9FFFF983600003E
:10205000FFFFFF3F80510100F0B585B003920C1CDB
:10206000019000F04BFF071C0198A2490668301C44
:10207000FEF7AEFA9F49051C301CFEF7FFFA0E1C56
:10208000002E03DA9B49013D7618F9E7E121301C67
:102090000901FEF79DFAE121A0600901301CFEF75D
:1020A000EDFA0E1C081C3C21FEF792FA3C21606000
:1020B000301CFEF7E3FA281D21600721FEF7DEFA47
:1020C000002900DA0731A1618B4E002D23DBB20716
:1020D00006D1301C6421FEF7D1FA0123002906D174
:1020E000C821301C4900FEF7C9FA4B424B418348D6
:1020F0009A008258954219DB0136AD1AE7E7301C89
:102100006421FEF7BBFA0123002907D07B489A001F
:102110008258AD180AD5013EB107F0D0C821301C55
:102120004900FEF7ABFA4B424B41EFE77449E561DA
:102130007218626130225343724AD318029300230B
:1021400023612269029893001B589D4203DB0132F0
:10215000ED1A2261F5E703990135E560002900D009
:10216000C3E000F0C5FE684B1B68002B23D07A68E3
:10217000964206D1019B39681A68F869002908D18E
:1021800010E0301CFFF7B4FE0028F3D101235B42BE
:102190000FE0002382420CDBB86B0121824207DB97
:1021A000191C05E00123824203DAB86B824200DB8E
:1021B0000B1C236201E003992162226A012A01D1EA
:1021C000FE6B00E03E6AE121301C0901FEF756FA81
:1021D0000F1C081C3C21FEF751FA2368381C5D1ABD
:1021E00025603C21FEF7F4F961680F1AE121676070
:1021F000301C0901FEF7ECF9A268101AA0603B2D13
:1022000003DD013767603C3D04E0002D03DA013F48
:1022100067603C35256063683B2B03DD0130A060BF
:102220003C3B04E0002B03DA0138A0603C336360E0
:10223000A368172B21DDE2690132E261A269013254
:10224000062A00DD0022A261183BE268A360236930
:1022500001320298E260990009588A4242DD521A1E
:102260000133E2600C2B01D023613BE06269002363
:10227000013223616261E36134E0002B32DAE2690A
:10228000013AE261A269013A00D50622A261E26840
:102290001833013AE260A360002A23D12369013B8D
:1022A00001D4236119E065690B23184923616B1E72
:1022B00063616D189A0706D1281C6421FEF7DEF9C8
:1022C0000123002906D1C821281C4900FEF7D6F9B0
:1022D0004B424B416D33FF33E36120690299830028
:1022E0005B58E36000F005FE01E000232362201C40
:1022F00005B0F0BD80510100B2070000F8360000C3
:1023000094F8FFFF98360000F0F9FF1F6B070000FC
:1023100030B5002940D004390B68002B00DAC91809
:102320001E4A1368141C002B02D14B60116033E06D
:1023300099420FD208680A189A4205D11368526868
:10234000C01808604A6000E04B60216024E08A42C7
:1023500003D8131C5A68002AF9D11D685C198C42F5
:102360000BD10968691858181960904214D1146883
:102370005268091919605A600EE08C4202D90C2388
:10238000036009E008680C18944203D1146852688D
:10239000001908604A60596030BDC046ECF8FF1F64
:1023A00070B50323CD1C9D430835061C0C2D01D2AE
:1023B0000C2501E0002D3FDB8D423DD3204B1C68F6
:1023C0001A1C211C002913D00868431B0DD40B2BA9
:1023D00002D90B60CC181EE08C4202D163681360F6
:1023E0001AE0486860600C1C16E00C1C4968E9E7BC
:1023F000144C2068002803D1301C00F025F8206020
:10240000301C291C00F020F8431C15D0C41C0323E9
:102410009C4384420AD12560201C0B300722231DD7
:102420009043C31A0BD05A42E25008E0211A301CE4
:1024300000F00AF80130EED10C233360002070BDAB
:10244000ECF8FF1FE8F8FF1F38B5074C0023051C08
:10245000081C236001F0BAF8431C03D12368002B49
:1024600000D02B6038BDC04678FEFF1F031C0A78E1
:1024700001311A700133002AF9D1704738B5446927
:10248000051CA1070CD1002C01DA274801E06420CB
:10249000404220186421FEF7F1F8012300290CD1F5
:1024A000002C01DA204801E064204042C8212018B5
:1024B0004900FEF7E3F84B424B41E9690A01A9697B
:1024C00049005118C91821290EDC202925DA0D29C7
:1024D00002DC0A2905DB20E0102921DB11291CDDA3
:1024E0001C39012919D91BE0104B99420BDC104B08
:1024F000994217DA0F4B994214D011DB0E4A891812
:1025000002290FD90CE00D4B99420BD00C4B99428C
:1025100008D00C4B994203D104E00120404202E074
:10252000002000E0012038BD6C070000C616000046
:10253000C2160000A21600004EE9FFFFD5160000EB
:10254000D7160000D3160000F0B593B003900E1C10
:10255000141C1D1C00F0BEFC002707902378002BE4
:1025600000D1EFE3252B08D0721E974200D3F0E391
:1025700003980134C3550137F0E76178049130299D
:1025800006D02B2904D0013405940024049401E0E2
:1025900002340594059C23780024313B0294082BD7
:1025A00007D805980AA90A2200F086FC0A9C029026
:1025B0000594059C23780134452B04D04F3B059CA2
:1025C0005A425341E418059405980478201C253894
:1025D000552800D9BDE3FEF767F8A803BC03BC0388
:1025E000BC03BC03BC03BC03BC03BC03BC03BC03F3
:1025F000BC03BC03BC03BC03BC03BC03BC03BC03E3
:10260000BC03BC03BC03BC03BC03BC03BC03BC03D2
:10261000BC036D009B00CA001401BC03310187019B
:10262000F9010302BC03BC03BC032202BC03BC03CC
:102630004F02BC037C0284029002A902B502FE0292
:10264000BB001F037F03BC03BC03BC03BC03BC0370
:10265000BC0356008500B20005010501BC03620100
:102660008500BC031502F90103021C022802BC0309
:102670004F02BC03B500BC038A029A02BC03F702F6
:10268000B8000F034E03AB69079918339B005C58E1
:10269000201C00F077FB3B1CC019834200D141E2B3
:1026A000721E934200D354E3E21BD25C0399CA54D6
:1026B0000133F2E7AB69079C1E339B00E3185C68AB
:1026C000201C00F05FFB3B1CC019834200D129E2B3
:1026D000721E934200D33CE3E21BD25C0399CA54BE
:1026E0000133F2E72A69079893001C58201C00F078
:1026F00049FB3B1CC019834200D113E2721E934276
:1027000000D326E3E21BD25C0399CA540133F2E7FB
:102710002B69079A0C339B009C58201C00F032FB5D
:102720003B1CC019834200D1FCE1721E934200D3CE
:102730000FE3E21BD25C0399CA540133F2E7079B13
:10274000A03307E0079BE43304E0079B9C3301E0E0
:10275000079B98331C68201C00F014FB2378002B87
:1027600000D1E9E2039AF11BD019221C8FE06869BD
:10277000B14B0122984200DB0022D2B2069200281F
:1027800004DB6421FDF724FF133006E0AB4BC018D7
:1027900000F0B0FB6421FDF71BFF049C002C05D06A
:1027A000A74A632805DD2B2C03D104E0A54BA64ADC
:1027B00002E0A44B00E0A54B029C012C01D80224AE
:1027C0000294039CF11BE419A446069C0491002C7E
:1027D00000D09F4B0299069C0190091B0091604616
:1027E000049928E00399C819F11B642C01D1994A76
:1027F00000E0994AEB6800F089FB002800DB67E203
:10280000A7E22869039A01300490E9686869F31B1C
:10281000D41902930691002803DA884A801800F040
:1028200069FB6421FDF72AFF069B01910093029941
:102830008A4A049B201C00F069FBDEE7049C0AAB7B
:1028400025221A700133002C04D01C70029C052C28
:1028500008D903E02B221A70042306E0029B063BF2
:10286000002B02D168462A300AE068462A301E2131
:102870007B4A00F04BFB0028F4DD2A21694408184C
:102880007849FFF7F3FD039CF11BE0190AAA2B1C02
:10289000FFF75AFE002800DC5BE23F184CE2281CE0
:1028A000FFF7ECFD041C6869002803DA634940184F
:1028B00000F020FB6421FDF7E1FE002C05DA6A4BF5
:1028C0006A699A4209DA012407E0002C05D05A4BC4
:1028D0006869984201DA0124644208196421FDF70D
:1028E000CDFE081C64308EE16C69534B01200890CA
:1028F0009C4201DB00210891089A281C0992FFF7ED
:10290000BDFD0690002C06DB201C6421FDF760FE57
:10291000041C133407E0494BE01800F0EBFA642183
:10292000FDF756FE041C6869002803DA4349401885
:1029300000F0E0FA6421FDF7A1FE069A002A06DA0B
:10294000494B686998420DDA0122069209E0069B1C
:10295000002B07D00898002804D001235B4206937F
:1029600001220992069BCA18501C02D1013C632225
:1029700003E0642A01D10134002264235C430999F5
:10298000A4180AAA002902D02D23137007E0049886
:10299000131C2B280BD135498C4208D91070029892
:1029A000002802D00299013902916B462933252271
:1029B0001A70049A581C002A02D03022981C5A70AF
:1029C0002B49FFF753FD039BD8194FE10399C81911
:1029D000F11B6B2C01D1204A00E01E4AAB680AE7CC
:1029E000A8680C23002805D0984203D0191CFDF7D5
:1029F00045FE0B1C039AF11BD019492C00D109E1AB
:102A0000154AF8E6039CEB69E019F11B0133194AFA
:102A1000F1E6039C2B69E019F11B0133FAE0039CFA
:102A2000F11BE0190B4A6B68E5E6731E9F4200D369
:102A30008FE10A237DE1C04694F8FFFF6C07000098
:102A400007370000923A0000003700000F370000FF
:102A5000113700002137000013370000173700003E
:102A6000263700002A37000095F8FFFF0F270000E7
:102A70003237000036370000A86801230B2800DC3D
:102A80000023079C28339B00E3185C68201C00F09F
:102A900079F9C01902903B1C029A934242D0721EEF
:102AA000934200D355E10598E21B0178D25C50298E
:102AB0000BD1A9490968891849788C4660460321D9
:102AC0000140012900D12032D2B20399CA54013306
:102AD000E2E76A68039C0092E019F11B9F4AAB6829
:102AE000F3E0039CF11BE0199D4A2B6883E6731EFB
:102AF0009F4200D32DE109231BE16A682B68039CE8
:102B000000920193E019F11B964AAB6893E6731E9D
:102B10009F4200D31DE1AA697B1C002A04D1372201
:102B2000039CE2551F1C07E13032F9E7E869A96907
:102B30000730401A0721FDF74BFD039A031CF41BD5
:102B4000D01957E0281CFFF799FCAB690622002B2F
:102B500000D05A1EE9690123002858DC07D10B1C5C
:102B60000A33981A0721FDF733FD031C4FE06C6907
:102B7000511A0291002C01DA7B4B01E065235B4284
:102B8000E31898070CD1002C01DA774801E06520A2
:102B9000404220186421FDF771FD012300290CD16A
:102BA000002C01DA704801E065204042C82120185D
:102BB0004900FDF763FD4B424B41029CE21A34236E
:102BC000042A24DC352322E0731E9F4200D3C0E098
:102BD000AB693033ADE0AA690623002A00D0531E4A
:102BE000E86907210730C01AFDF7F2FC0399031CBE
:102BF000F41BC819211C0DE06869002803DA5B4A40
:102C0000801800F077F96421FDF738FD0B1C039C58
:102C1000F11BE019524AEEE56B69544854491C18FF
:102C20000AAA8B4203DA2D231370644208E0049948
:102C3000131C2B290CD14F498C4209D9049B1370CA
:102C40000299002902D00298013802906B4629337C
:102C5000049925221A70581C002902D03022981C91
:102C60005A704549FFF702FC039AD019F11B0094F2
:102C70000AAA029B29E02B6A002B5DDB00F03EF9DB
:102C8000041C00F035F92B6ADA17D31ADB0F1C226B
:102C90005343E418246A00F02CF964423C21201CC0
:102CA000FDF796FC00F02EF9E12102900901201CAD
:102CB000FDF78EFC3C21041C0298FDF7DFFC00911F
:102CC00003992E4AC819231CF11B00F01FF994E543
:102CD0003F18B74230D33CE02A6A002A2CDB00F0D0
:102CE00007F92B6ADA17D31ADB0F254A9B0098588D
:102CF00000F048F80023DC19834212DA721E944275
:102D00000CD22A6A039CD1178A1AD20F1C4992004E
:102D10005258D15CE219D1540133ECE700F0E9F8E4
:102D200017E000F0E6F8271C06E0731E9F4210D261
:102D30002523039CE3550137059C2378002B01D004
:102D400001340BE4381C002E04D0039C0023E3550F
:102D500000E0002013B0F0BD74F8FF1F4037000002
:102D6000213700003B3700006B0700006C070000B4
:102D700094F8FFFF0F270000323700004A370000A9
:102D80006CF8FF1F0023C25C0133002AFBD1581EE0
:102D90007047031C002010B582420FD01C780878C1
:102DA000A04201D1012A03D118780B78C01A05E09E
:102DB000013A0028F8D001330131EFE710BD0000DF
:102DC000F0B51D1C3B4B87B01B6805900293049126
:102DD000171C0B1C02991C785E1C0A1951780822DA
:102DE0000A4001D0331CF5E72D2C04D101229E1C92
:102DF0005C78019204E001922B2C01D15C789E1C3E
:102E000010232A1C9A4311D1302C08D1327820216A
:102E10008A43582A07D174781D1C023606E0002D1B
:102E200004D10A2502E0002D00D108250120291C2B
:102E30004042FDF77FFB039001204042291CFDF733
:102E4000BDFB00238C46181C02990A1952785107C1
:102E500001D5303C07E00321114017D0572201294A
:102E600000D13722A41AAC4210DA002B09DB039AF6
:102E7000904206D801D1644503DC68430123201841
:102E800001E001235B4234780136DDE7002B04DAF0
:102E9000059922220A60012002E0019A002A00D04E
:102EA0004042002F04D0049A002B00D0721E3A60DA
:102EB00007B0F0BD74F8FF1F38B5131C044A051C99
:102EC0000C1C1068291C221CFFF77AFF38BDC04675
:102ED00068F8FF1F034B1B68002B01D0024800E07D
:102EE00002487047F0F8FF1FF4F8FF1F8C3800000D
:102EF00070477047C317C018584070470048704764
:102F000078F8FF1FC317C018584070470CB430B58D
:102F1000164B9DB00C1C1D6804D58B2301202B6023
:102F200040421DE0822302A99B008B810023029076
:102F300008619C4200D0631E8B604B6101235B42A1
:102F4000CB81209A21AB281C019300F071F8421C20
:102F500001DA8B232B60002C02D0029A002313701D
:102F60001DB030BC08BC02B01847C04668F8FF1F4F
:102F7000F0B58D6885B0071C0C1C03920193AB4221
:102F800045D390228B89D20013423DD0626903263B
:102F9000564309692068F20F401A96190290021CE4
:102FA0000198013212187610964200D2161C381C75
:102FB0005A050FD5311CFFF7F3F9051E13D0029AFD
:102FC0002169FEF783FFA289184B13408022134327
:102FD000A38111E0321C00F0C9FA051E0CD1381C87
:102FE0002169FFF795F90C233B60A3894022134325
:102FF0000120A381404217E0029B2561ED18256066
:103000006661019DF61AA6600198A84200D2019D52
:103010002A1C2068039900F090FAA2680020531B34
:10302000A36023685D19256005B0F0BD7FFBFFFF3D
:10303000F0B59FB0039005938B890E1C171C1906E1
:103040000FD53269002A0CD14021FFF7A9F9306071
:103050003061002803D103990C230B60C9E04023A1
:10306000736106AD00236B6120236B763023AB7652
:103070003C1C2378002B03D1E21B029211D003E009
:10308000252BF9D00134F4E70398311C3A1C029B3C
:10309000FFF76EFF013000D1A6E06969029A8B1834
:1030A0006B612378002B00D19EE0012252426A60BE
:1030B0006A4600235B3201342B60EB60AB60137017
:1030C000AB654E4F2178381C052200F02BFA002802
:1030D00007D0C71B2B680120B84018432860013473
:1030E000EFE72B68D90603D56A4620215B321170C1
:1030F0001A0703D56A462B215B32117022782A2ADF
:1031000001D0099B0EE0059A111D12680591002A55
:1031100001DB099204E05242EA60022213432B6071
:10312000013409E02278303A092A04D80A214B43B5
:1031300001349B18F6E7099323782E2B18D1637876
:103140002A2B09D1059B02341A1D1B680592002BFE
:103150000DDA01235B420AE0013400232278303A81
:10316000092A04D80A214B4301349B18F6E7079338
:10317000234F2178381C032200F0D4F9002806D010
:10318000C71B2B684020B8401843286001342178C1
:103190001C480622671C297600F0C4F9002812D0CA
:1031A000194B002B06D1059B0722073393430833A5
:1031B000059314E005AB00930398291C321C134BB4
:1031C00000E000BF07E005AB00930398291C321C08
:1031D0000E4B00F091F804900499013104D06A6913
:1031E000049953186B6143E7B3895A0601D40B98CD
:1031F00001E0012040421FB0F0BDC0468D3A000002
:10320000933A0000973A000000000000712F000080
:10321000F7B5151C01930A698B68061C0C1C9342B8
:1032200000DA131C221C2B6043321278002A01D0D2
:1032300001332B602068800602D52B6802332B6097
:10324000216806270F401FD0231C43331B785A1ECA
:103250009341226892061FD5E11840313020C87092
:10326000211C5A1C45310978A21840320233D17012
:1032700012E0221C301C019919320123089FB84723
:10328000013011D0009F01370097E0682968009F46
:10329000431A9F42EDDBD7E7221C301C01994332D1
:1032A000089FB847013002D10120404223E0206846
:1032B00006212B68E26801400025042903D1D51AB4
:1032C000EB43DB171D40A26823699A4201DDD31A44
:1032D000ED1800270097009FAF420BDA221C301C2C
:1032E00001991A320123089FB8470130DCD0009FB2
:1032F0000137EFE70020FEBDF0B50D1C8BB0433564
:1033000006920590079304950B7E0C1C109A6E2B69
:1033100000D1A7E011D8632B22D009D8002B00D10F
:10332000B0E0582B00D0C0E045310B707B4D4EE033
:10333000642B1CD0692B1AD0B7E0732B00D1A5E009
:1033400009D86F2B29D0702B00D0AEE00E68202357
:1033500033430B6036E0752B1FD0782B32D0A4E0BE
:1033600013680D1C191D423511601B689FE0216810
:1033700013680E0603D5191D11601E6805E0480686
:10338000F9D5191D116000215E5E644B002E3BDAF9
:10339000049D2D2276422A7036E0216813680E06BD
:1033A00003D5191D11601E6804E04806F9D5191DE2
:1033B0001E881160594B227E039308276F2A1ED066
:1033C0000A271CE0231C78214533554D19701168DC
:1033D0002368081D039510601E0601D50E6802E0E3
:1033E0005806FBD50E88D90702D520221343236047
:1033F0001027002E03D1226820239A432260231C29
:10340000002243331A7001E003930A276368A36024
:10341000002B03DB2568042295432560002E02D192
:10342000049D002B0ED0049D301C391CFDF7C6F8FE
:103430000398013D435C301C2B70391CFDF77AF872
:10344000061EF1D1082F09D12168C90706D5626887
:1034500023699A4202DC013D30232B70049E731BCA
:1034600023612AE0086813684969050604D5181D18
:1034700010601B68196005E04606F8D5181D10603D
:103480001B68198000232361049D16E01368191D31
:1034900011601D68281CFFF775FC63682061984265
:1034A00000D923612069606004E0251C42352B703F
:1034B00001232361049E00233370079E0598009624
:1034C000211C09AA069BFFF7A3FE013002D10120AF
:1034D000404221E02A1C059806992369079DA847C8
:1034E0000130F4D02668B60705D4099BE0689842FD
:1034F00012DA181C10E00025E0680999431A9D4271
:10350000F3DA221C0598069919320123079EB04769
:103510000130DCD00135EFE70BB0F0BD9E3A000082
:10352000AF3A0000C9B28218904204D003788B42AF
:1035300002D00130F8E70020704770B5814201D316
:1035400000230CE08C18A042FAD28518131C013B12
:103550000BD351426618F65C6918CE54F7E79342D4
:1035600003D0CC5CC4540133F9E770BDF8B5061C38
:103570000C1C151C002904D1111CFEF711FF041CA2
:1035800018E0002A03D1FEF7C3FE2C1C12E000F065
:1035900013F8A8420ED2301C291CFEF701FF071EAB
:1035A00007D0211C2A1CFEF791FC301C211CFEF7C1
:1035B000AFFE3C1C201CF8BD04390B68181F002B03
:1035C00002DAC8581B18181F70470000094A136810
:1035D000002B0CD018186946884202D81060181CBD
:1035E0007047054B0C2201201A604042F8E7034B5C
:1035F0001360EFE7F4F9FF1F78FEFF1F80FEFF1F47
:10360000FEE7C046656B6168730000007368616B1C
:103610006500000065746164707500007570646118
:103620007465000025592D256D2D25642025483A07
:10363000254D3A2553000000537461727420557073
:10364000646174650000000000B0064000C00640E0
:10365000C6140000C014000020150000281500004A
:10366000301500001815000000F00F4040F00F402A
:1036700080F00F40C0F00F4000F10F400090044078
:1036800000A0044000B0044000C0044000D004404A
:103690004300000008F8FF1F1F0000001C0000008E
:1036A0001F0000001E0000001F0000001E000000A0
:1036B0001F0000001F0000001E0000001F0000008F
:1036C0001E0000001F0000001F0000001D00000081
:1036D0001F0000001E0000001F0000001E00000070
:1036E0001F0000001F0000001E0000001F0000005F
:1036F0001E0000001F0000006D0100006E010000B0
:103700002573252E2A6400257325302E2A64002B6C
:10371000002D0025326400252E32642F252E3264C0
:103720002F252E326400256C7500592D256D2D2511
:1037300064002E2A7500252E336400252E32643A4B
:10374000252E32643A252E326400252B30336C64EA
:10375000252E326C64004C435F54494D45004A614C
:103760006E00466562004D617200417072004D61ED
:1037700079004A756E004A756C00417567005365A3
:1037800070004F6374004E6F7600446563004A61B9
:103790006E75617279004665627275617279004D6D
:1037A0006172636800417072696C004A756E6500F1
:1037B0004A756C7900417567757374005365707450
:1037C000656D626572004F63746F626572004E6F63
:1037D00076656D62657200446563656D6265720051
:1037E00053756E004D6F6E0054756500576564002B
:1037F00054687500467269005361740053756E64B5
:103800006179004D6F6E6461790054756573646110
:1038100079005765646E65736461790054687572E8
:1038200073646179004672696461790053617475EB
:10383000726461790025483A254D3A255300256D7B
:103840002F25642F257900256120256220256520FC
:1038500025483A254D3A255320255900414D005021
:103860004D0025612025622025652025483A254DFB
:103870003A255320255A202559006D640025493AE0
:10388000254D3A2553202570000000005E370000CA
:1038900062370000663700006A3700006E370000AC
:1038A00072370000763700007A3700007E3700005C
:1038B00082370000863700008A3700008E3700000C
:1038C000963700009F370000A53700006E370000D4
:1038D000AB370000B0370000B5370000BC37000040
:1038E000C6370000CE370000D7370000E0370000B1
:1038F000E4370000E8370000EC370000F037000044
:10390000F4370000F8370000FC37000003380000EF
:103910000A380000123800001C380000253800006A
:103920002C380000353800003E38000047380000D1
:103930005C3800005F380000623800008E370000FD
:10394000963700009F370000A53700006E37000053
:10395000AB370000B0370000B5370000BC370000BF
:10396000C6370000CE370000D73700007A38000095
:103970007D380000923A0000923A0000923A00002E
:10398000923A0000923A0000474D54000020202057
:1039900020202020202028282828282020202020FF
:1039A00020202020202020202020202020881010CF
:1039B000101010101010101010101010100404042B
:1039C00004040404040404101010101010104141E9
:1039D00041414141010101010101010101010101D7
:1039E00001010101010101011010101010104242EB
:1039F00042424242020202020202020202020202A7
:103A00000202020202020202101010102000000046
:103A100000000000000000000000000000000000A6
:103A20000000000000000000000000000000000096
:103A30000000000000000000000000000000000086
:103A40000000000000000000000000000000000076
:103A50000000000000000000000000000000000066
:103A60000000000000000000000000000000000056
:103A70000000000000000000000000000000000046
:103A800000000000000000000000000000232D30B6
:103A90002B2000686C4C0065666745464700303156
:103AA00032333435363738394142434445460030A5
:103AB00031323334353637383961626364656600D4
:103AC000F8B5C046F8BC08BC9E467047F8B5C0467D
:083AD000F8BC08BC9E467047DB
:083AD80098C9FF7F0100000006
:043AE00039040000A5
:043AE40011040000C9
:103AE800006CDC020C0D0E0000000000000000005D
:103AF80000000000000000000000000000000000BE
:103B080000000000000000009036000000000000E7
:103B1800000000000000000000000000000000009D
:103B2800000000000000000000000000000000008D
:103B3800000000000000000000000000000000007D
:103B4800000000000000000008F8FF1F883900008E
:103B5800883900008C3900000100000000000000D6
:103B68004A00000000000000000000000000000003
:103B78000000000000000000000000004A000000F3
:103B8800000000000000000000000000000000002D
:0C3B980000000000000000000000000021
:04000003000004E90C
:00000001FF
