:1000000000180020D1040000FD040000FD040000E1
:1000100000000000000000000000000000000000E0
:10002000000000000000000000000000FD040000CF
:100030000000000000000000FD040000FD040000BE
:10004000FD040000FD040000FD040000FD040000AC
:10005000FD040000FD040000FD040000FD0400009C
:10006000FD040000FD040000FD040000FD0400008C
:10007000052D0000452D0000852D0000FD04000029
:10008000FD040000FD040000FD040000FD0400006C
:10009000FD040000FD040000FD040000FD0400005C
:1000A000FD040000FD040000412C0000FD040000E0
:1000B000052B0000FD040000FD040000FD0400000D
:10040000FFFFFFFFFFFFFFFFFFFFFFFFFEFFFFFFFD
:1004100010B5064C2378002B07D1054B002B02D0DA
:10042000044800E000BF0123237010BDA8FAFF1F9D
:1004300000000000A8E80000044B10B5002B03D01A
:100440000349044800E000BF10BDC04600000000A2
:10045000ACFAFF1FA8E80000164B002B00D1144B8C
:100460009D46402292029A1A924600218B460F46E0
:100470001348144A121A0AF06EF90F4B002B00D0E1
:1004800098470E4B002B00D0984700200021040015
:100490000D000D48002802D00C4800E000BF0AF013
:1004A00019F92000290002F083FC0AF01DF8C0466B
:1004B00000000800001800200000000000000000FC
:1004C000A8FAFF1F500500200000000000000000F7
:1004D00072B607F0C1FC62B60549064A064B9B1A84
:1004E00003DD043BC858D050FBDCFFF7B5FF00002C
:1004F000D0E8000000F8FF1FA8FAFF1F00480047DF
:10050000FD040000002243088B4274D303098B4290
:100510005FD3030A8B4244D3030B8B4228D3030CD3
:100520008B420DD3FF22090212BA030C8B4202D375
:100530001212090265D0030B8B4219D300E0090A9D
:10054000C30B8B4201D3CB03C01A5241830B8B42A6
:1005500001D38B03C01A5241430B8B4201D34B038F
:10056000C01A5241030B8B4201D30B03C01A5241F4
:10057000C30A8B4201D3CB02C01A5241830A8B4279
:1005800001D38B02C01A5241430A8B4201D34B0262
:10059000C01A5241030A8B4201D30B02C01A5241C6
:1005A000CDD2C3098B4201D3CB01C01A524183097A
:1005B0008B4201D38B01C01A524143098B4201D3B4
:1005C0004B01C01A524103098B4201D30B01C01ADF
:1005D0005241C3088B4201D3CB00C01A5241830859
:1005E0008B4201D38B00C01A524143088B4201D386
:1005F0004B00C01A5241411A00D2014652411046E6
:100600007047FFE701B5002000F0F0F802BDC046DA
:100610000029F7D076E7704703460B437FD40022CA
:1006200043088B4274D303098B425FD3030A8B4286
:1006300044D3030B8B4228D3030C8B420DD3FF22F0
:10064000090212BA030C8B4202D31212090265D0BE
:10065000030B8B4219D300E0090AC30B8B4201D371
:10066000CB03C01A5241830B8B4201D38B03C01AB8
:100670005241430B8B4201D34B03C01A5241030B2F
:100680008B4201D30B03C01A5241C30A8B4201D3E0
:10069000CB02C01A5241830A8B4201D38B02C01A8B
:1006A0005241430A8B4201D34B02C01A5241030A02
:1006B0008B4201D30B02C01A5241CDD2C3098B42E7
:1006C00001D3CB01C01A524183098B4201D38B0164
:1006D000C01A524143098B4201D34B01C01A524107
:1006E00003098B4201D30B01C01A5241C3088B424C
:1006F00001D3CB00C01A524183088B4201D38B0037
:10070000C01A524143088B4201D34B00C01A5241D8
:10071000411A00D201465241104670475DE0CA0FAF
:1007200000D04942031000D34042534000229C466F
:1007300003098B422DD3030A8B4212D3FC22890179
:1007400012BA030A8B420CD3890192118B4208D34F
:10075000890192118B4204D389013AD0921100E0B1
:100760008909C3098B4201D3CB01C01A52418309C5
:100770008B4201D38B01C01A524143098B4201D3F2
:100780004B01C01A524103098B4201D30B01C01A1D
:100790005241C3088B4201D3CB00C01A5241830897
:1007A0008B4201D38B00C01A5241D9D243088B42ED
:1007B00001D34B00C01A5241411A00D20146634690
:1007C00052415B10104601D34042002B00D54942F4
:1007D000704763465B1000D3404201B5002000F033
:1007E00005F802BD0029F8D016E770477047C046EB
:1007F0008446101C62468C46191C634600E0C046C5
:100800001FB501F041F8002801D40021C8421FBDE6
:1008100010B500F099FF4042013010BD10B501F055
:1008200033F8002801DB002010BD012010BDC046B8
:1008300010B501F029F8002801DD002010BD0120CD
:1008400010BDC04610B500F0BBFF002801DC002041
:1008500010BD012010BDC04610B500F0B1FF00284A
:1008600001DA002010BD012010BDC046002B11D1BF
:10087000002A0FD1002900D1002802D00021C9434D
:10088000081C07B4024802A14018029003BDC046EC
:100890005DFFFFFF03B4684601B5029800F074F8ED
:1008A000019B9E4602B00CBC7047C04670B500224A
:1008B0000C4B04000D00FFF7CFFF002804D12000EF
:1008C000290001F01FFE70BD064B00222000290008
:1008D00001F0B4FA01F016FE80231B069C4660442A
:1008E000F1E7C0460000E04170B505000C000022B1
:1008F000002328002100FFF791FF002804D12800E1
:10090000210000F00DF870BD80231B06E1182800BF
:1009100000F006F802000B00002150429941F2E776
:1009200070B500220B4B0D00040001F015F8FFF725
:10093000BDFF060001F056FE0022074B01F00CF847
:1009400002000B002000290001F078FAFFF7AEFF4B
:10095000310070BD0000F03D0000F04170B50600B0
:10096000080001F005FE0022064B00F0F5FF0D0027
:100970000400300001F036FE2B00220000F0C6F823
:1009800070BDC0460000F041F0B54F464646D64621
:10099000C0B5040082B00D00914698468B422FD816
:1009A0002CD04146484601F043FF290006002000B4
:1009B00001F03EFF331A9C46203B9A4600D576E074
:1009C0004B46524693401F004B46624693401E00E2
:1009D000AF4228D825D05346A41BBD41002B00DAD6
:1009E0007BE00022002300920193012352469340B2
:1009F0000193012362469340009318E08242D0D9CC
:100A000000220023009201930A9B002B01D01C605E
:100A10005D600098019902B01CBC90469946A246C0
:100A2000F0BDA342D7D90022002300920193634670
:100A3000002BE9D0FB079846414672080A437B0821
:100A400066460EE0AB4201D1A2420CD8A41A9D41E9
:100A5000012024196D410021013E24184D41002E32
:100A600006D0AB42EED9013E24196D41002EF8D1DB
:100A700000980199534600196941002B23DB2B0094
:100A80005246D3402A006446E2401C0053461500FB
:100A9000002B2DDB26005746BE403300260067465C
:100AA000BE403200801A994100900191ACE7624645
:100AB00020239B1A4A46DA406146130042468A4088
:100AC00017001F4380E7624620239B1A2A006646D0
:100AD0009A402300F3401343D4E7624620230021C9
:100AE0009B1A0022009101920122DA40019280E7D4
:100AF0002023624626009B1ADE402F00B046664641
:100B0000B74046463B003343C8E7C046F0B54F46C2
:100B10004646D6460C000903C0B5490A470F5E0099
:100B200039431F03DB0F9C4665007B0A570F1F43A9
:100B30006D0DE40F760DA146C000B846D200AB1B88
:100B400064457BD0002B5FDD002E00D0A4E03E008A
:100B5000164300D112E15E1E002E00D09EE1871ADE
:100B60004346B84280410125C91A4042091A0B0286
:100B700000D431E149024E0A002E00D16EE130006E
:100B800001F038FE0300083B1F2B00DD61E120224D
:100B90003900D21A9E40D1409F400E439D4200DD55
:100BA00051E15D1B6B1C1F2B00DD7CE12021C91A6C
:100BB0003D0030008F408840DD40791E8F4131007C
:100BC00007222843D940002507433A40002A09D08C
:100BD0000F233B40042B05D03B1DBB42BF417F424E
:100BE000C9191F000B0200D426E26A1CC64B55052A
:100BF0006D0D9A4200D106E1C44AFF080A4053072E
:100C000052023B43120B8EE0002B00D0B8E06B1C6D
:100C10005B055B0D012B00DC30E1871A4346B842CF
:100C2000B641CB1A76429E1B330200D54CE13B0005
:100C30003343A1D100220024002570E0002B00DC0A
:100C4000E5E0002E00D183E0AF4EB54260D08026B3
:100C500036043743B846382B00DC3EE143461343A5
:100C60001F007A1E97413F18874280414042091871
:100C70000B0200D4B0E0A44B01359D4200D1C3E08B
:100C8000A24A7B080A4001210F401F435108D307A5
:100C900007221F433A4099E79B4EB54238D0802641
:100CA00036043743B846382B00DDDCE01F2B00DC70
:100CB00030E11E004746203EF740BC46202B04D0C2
:100CC0004026F31A46469E403243170063467A1E7A
:100CD00097411F43CCE0002B00D104E2434613436D
:100CE00000D159E14B07C00818438023C9081B03F2
:100CF000194208D04546ED081D4204D14346D008AC
:100D0000590708432900420FC9007F4D1143C00015
:100D10004B07CA087C49C00803438D4268D01203C0
:100D20006D05120B6D0D002112031800130B0A0D37
:100D300012051A43764B2D0513402B435B00E40745
:100D40005B08234319001CBC90469946A246F0BD9F
:100D50003E00164312D05E1E002E00D000E1871820
:100D60008742804141444042091801250B0233D596
:100D7000022585E764463300414610001D00C7E7A1
:100D8000002D00D0DAE00C000443F3D05C1C00D14D
:100D90009FE15D4CA64200D12FE1DB43382B00DD03
:100DA00066E11F2B00DD83E120240500E41A0F001B
:100DB000DD40D940A0404346A7405B1A441EA041F5
:100DC00098462F433843171ABA429241434652423B
:100DD000991A64463500CAE607223A40002A00D034
:100DE000F6E64B07CA084849FF083B438D4296D1B7
:100DF0001900114300D19EE1802109030A43120327
:100E0000120B414D8FE71500002200238BE7002BCA
:100E100000D0C7E06B1C5F057F0D012F00DCF1E007
:100E2000394DAB4200D1B9E085180A0085428941AD
:100E30004244494251180722CF076D082F43490801
:100E40003A401D00C2E607223049ED1A31403A40CF
:100E5000BCE63E002838864000279FE6380001F0B7
:100E6000C9FC20308EE6434613431F007A1E97418B
:100E7000C71BB84280414042091A78E60E003B0089
:100E800006431343002D61D1002E00D0F4E0002B67
:100E900000D11BE164463900100039E71A4FBB420C
:100EA0007AD03300FFE630001F3DE840202B03D00E
:100EB0004021CB1A9E4037437B1E9F4107220743A8
:100EC0003A400021002589E7171A4346BA42B64145
:100ED000591A76428E1B64464EE61F2B00DDADE0AC
:100EE00020264746F61AB740B9461700B246DF40FB
:100EF0004E463E4337005646B240561EB241174357
:100F00004246DA408918AEE6FF070000FFFF7FFF88
:100F1000FFFF0F8020264746F61AB740B946170054
:100F2000B246DF404E463E4337005646B240561E5C
:100F3000B24117434246DA40891A99E77F4CA642EC
:100F40005BD0802424045B42214327E7002E0CD190
:100F5000002B00D1CBE0644639001000774DD7E676
:100F6000764FBB4218D0330075E6002B14D04B07E8
:100F7000C00818438023C9081B03194207D0FC0886
:100F80001C4204D17907D0080843E14621004C46B1
:100F9000420FC9001143C000684DB9E61D00002290
:100FA0000023C0E6002D5BD10D00054300D1E2E631
:100FB0005D1C00D1B0E0614DAE421FD0DB43382B49
:100FC00071DC1F2B00DD96E020250F00ED1AAF40ED
:100FD000B9460700AA46DF404D463D432F0055461F
:100FE000A840D940451EA84188440743BF189742EE
:100FF00092415142414435003AE66446350041464B
:10100000100085E60B000343002D00D063E6002BA3
:10101000F5D04346134300D17AE6871887428041D2
:1010200007224144404209183A400B0200D4D5E659
:10103000434B01351940C9E5380069E61E004746B3
:10104000203EF740BC46202B04D04026F31A4646EB
:101050009E403243170063467A1E97411F4302E6C3
:10106000364DAE42CAD080252D045B422943A6E707
:101070000843411E8841A6E6002B00D148E6871AA6
:101080004346B842B641CB1A76429E1B33024BD53B
:10109000171A4346BA429241591A5242891A0722F4
:1010A00064463A4092E501430F00791E8F419DE767
:1010B0001C000F00203CE740202B03D04024E31A03
:1010C00099400843411E884138437CE600220024B1
:1010D00025E6171A4346BA429241591A5242891AD2
:1010E0006446350043E541461000144D10E6802269
:1010F0000024120380E61D000F00203DEF40BC4697
:10110000202B03D04025EB1A994008430700634683
:10111000781E87411F4369E7871897429B414144E6
:101120005B42C9183500A3E53B003343CED007220C
:1011300031003A4052E600231A00F4E5FF070000B0
:10114000FFFF7FFFF0B55746DE464E464546E0B509
:10115000834607000E03480085B092461C00360BFC
:10116000400DCD0F002800D19DE0954B984239D01D
:101170008023F6001B041E43924A7B0F334399469B
:10118000944603006344009300230026FF0002936B
:1011900023031B0B98466300E40F52465B0D01943A
:1011A00000D1B3E086498B4200D19EE04246D10097
:1011B000802212040A435146490F11438B4681494C
:1011C00052468C4600996344CB1A0021D20000930A
:1011D0002B0063409A460F2E00D905E17A4BB600EA
:1011E0009B599F465B463343994600D0B8E00223A3
:1011F0000826002700900293CAE7CB463A000299DE
:101200000195019B9A46022927D0032900D180E24B
:10121000012944D06D49009B8C4663441C00002C7E
:1012200038DD530700D013E2D2085B46DB0109D555
:101230005946674B19408B468021C9008C46009B5C
:1012400063441C00634B9C4207DC5B4664055F07FC
:101250005B0217431B0B620D02E000230027584A74
:1012600000211B031C0B0B0D1B05234314055A4ABD
:10127000380013401C4353466400DB0764081C43DA
:10128000210005B03CBC90469946A246AB46F0BD55
:101290000122524201231B1B382B00DCADE100224E
:1012A00000230027DCE75B46334399465ED0002EDF
:1012B00000D18AE1300001F09DFA03000B3B1C2BAA
:1012C00000DD7BE11D22D31A5A460100DA400839BD
:1012D0008E4013005F46334399468F403F4B0026B4
:1012E0001B1A00930023029352E7414653460B43D7
:1012F0003B499B468C46009B634400935B46002B16
:101300003BD1022300221E43022161E743461343DF
:101310009B4637D04346002B00D162E1404601F0A6
:1013200069FA03000B3B1C2B00DD53E10200414630
:10133000083A914088461D21CB1A5146D9400B00EE
:1013400041460B439B46534693401A00009B254958
:101350009C46604403008C4663440093002137E7B9
:101360000323B14600900C26029311E7002300935B
:1013700001330426002702930AE70323C3461E43D2
:10138000032125E701331E430022012120E700232A
:101390009A46802300271B03094A61E780234946B8
:1013A0001B03194200D1E2E05946194200D0DEE0A9
:1013B0000B431B0317001B0BA246014A50E7C04614
:1013C000FF07000001FCFFFFB4D10000FF03000095
:1013D000FFFFFFFEFE070000FFFF0F800DFCFFFF79
:1013E00001F8FFFFF3030000D94500D9CBE000D19D
:1013F000C6E03C0048460027009B013B00935B464B
:10140000160E1B021E431302984633041B0C99460A
:10141000310C0191FFF7FCF84A4642430B04210CC2
:10142000050019438A4207D98919013D8E4203D824
:101430008A4201D9851E8919881A0199FFF7E8F8AF
:1014400009048C464A46210464464243090C0300C1
:1014500021438A4204D98919013B8E4200D8F1E028
:101460002D041D43AB464346891A4246280C1204FC
:101470001D0C5B46140C22001B041B0C5A430394E6
:101480006B434443029568431B19150CEB189C42AF
:1014900003D980246402A44660441C0C15041B0478
:1014A0002D0C20185D19814277D373D00C1AA24AF3
:1014B0007D1BAF42BF419446009B7F426344E01BCB
:1014C0001C00864200D1DBE00199FFF7A1F84A46F3
:1014D00042430B04290C070019438A4207D9891992
:1014E000013F8E4203D88A4201D9871E8919881A82
:1014F0000199FFF78DF809044A46894629044D46AB
:101500004243090C030029438A4207D98919013B48
:101510008E4203D88A4201D9831E89193F04891A51
:101520003A00039F1A43380013041B0C58438146AA
:101530000298150C6F43434345434846000C8446CC
:10154000DB1963449F4203D98020400284466544EE
:1015500048461F0C00041B04000C7D191818A942F2
:1015600000D284E000D17FE001231A4357E68023B4
:101570004A461B0313431B031B0BAA466F4A6FE625
:10158000BA4200D935E74B46DC0758087B081C43B4
:10159000FF0734E70024AF4289D247444745A441BE
:1015A0005B466442A4196418013BA6421ED2A042C5
:1015B0006DD800D1B6E0241A9B4678E703005A465E
:1015C000283B9A400027914688E6584601F012F9D8
:1015D000203072E603005246283B9A409346002290
:1015E000B4E6504601F006F920309AE6A642E2D170
:1015F000B845DCD9341A9B4659E71F2B65DC504CA3
:101600000099A4465C46614408008C401100824069
:10161000D940501E82410C4314435A46DA4013000D
:10162000620709D00F222240042A05D02200141D8F
:101630009442894149425B181A0262D50122002373
:1016400000270DE68A4200D80AE7831E891907E7BA
:101650000F231340042B00D1E6E5171D974292415A
:1016600053429B44FA08E0E5002800D1D7E5711801
:10167000531EB14227D3A94215D358D01A0073E79D
:10168000002B00DC04E6012300229B44CDE502236D
:101690004744474589415B429C46494289190C1998
:1016A000E344241A03E743465F0047459B41B8469D
:1016B0005B429E19023A8919A94200D054E740457D
:1016C00000D051E7ABE51A00F6E71F215F4649421B
:1016D0000C1BE740202B07D01A49009B8C46634423
:1016E00018005B4683401A43501E82413A43072745
:1016F0000023174009D00F210023114014000429B2
:1017000095D122005F075B021B0BD2081743002212
:10171000A6E5802359461B030B431B0317001B0B35
:10172000064A9DE5BD42B2D89B460024BFE68045EF
:10173000B9D31A00C3E7C046FF030000FF0700004B
:101740001E0400003E040000F0B54F464646D64653
:101750008446C0B58046194E18030F034D00000B98
:101760005C0082463F0B6D0DC90F9146640DDB0F87
:101770000120B5420AD0B44203D0A54201D1574559
:101780000CD01CBC90469946A246F0BD66463E432E
:10179000F7D1AC42F5D154461443F2D10120C845EB
:1017A000EFD1994207D0002DEBD163461F4338009B
:1017B000471EB841E5E70020E3E7C046FF07000009
:1017C000F0B54F464646D6464D00C0B50E03C90F8C
:1017D0008A462C491F035C008046360B6D0D9146EE
:1017E0003F0B640DDB0F8D421ED08C4216D0002DB6
:1017F0001ED130438446002C01D13A4323D06246A7
:10180000002A1AD09A4529D05146022001390840B1
:1018100001381CBC90469946A246F0BD39001143E0
:10182000E5D002204042F4E73043FAD1AC420FD079
:10183000002C0FD13A43E7D00CE00122013B934347
:1018400018000130E5E763460020002BE1D0DBE71C
:101850003A43E6D19A45D7D1A542D5DCA54205DB6E
:10186000BE42D1D808D00020BE42D2D25046012379
:10187000013898430130CCE7C845C5D80020C84599
:10188000F4D3C6E7FF070000F0B54F464646D646FC
:101890004D00C0B50E03C90F8A462E491F035C00D8
:1018A0008046360B6D0D91463F0B640DDB0F8D426C
:1018B00018D08C4211D0002D18D130438446002C12
:1018C0001ED13A431CD163460020002B30D0514634
:1018D00002200139084001382AE039001143EAD0DA
:1018E000022025E03043FBD1AC4226D0002C26D18B
:1018F0003A4324D15146022001390840013817E00B
:101900006246002A0FD09A45E1D1A54205DBBE42CE
:10191000DDD819D00020BE420AD25046012301383A
:101920009843013004E00122013B93431800013049
:101930001CBC90469946A246F0BD3A43D0D19A4588
:10194000C5D1A542C3DCE0E7C845C0D80020C845E2
:10195000E3D3EDE7FF070000F0B55746DE464E46FD
:101960004546E0B5834606000F03480087B092461F
:101970001D003F0B400DCC0F002800D16FE0DE4B67
:10198000984238D08023FF001B041F43730F3B4352
:101990000193DA4B0027994600239B46F6008144C9
:1019A0002B0369001B0B52469846490DED0F002989
:1019B00000D185E0D04B994200D173E04346DA0074
:1019C00080231B0413435246CC48520F84461343D2
:1019D000524600206144D2008944210069400091B0
:1019E0008C46012149448A460F2F00D990E0C44912
:1019F000BF00CF59BF465B463B43019300D06AE12D
:101A000002230827002681469B46C9E73200584634
:101A1000019B61460091022800D175E0032800D1A6
:101A2000FEE1012800D02CE100230027002600253C
:101A30003F032A0D3F0BB34812053A4302401B05F2
:101A40001343009A5B00D1075B080B433000190079
:101A500007B03CBC90469946A246AB46F0BD5B46FB
:101A60003B43019300D12FE1002F00D1A5E13800C5
:101A700000F0C0FE03000B3B1C2B00DD96E11D2295
:101A8000D31A5A460100DA405E4608398F401300E7
:101A90008E403B4301939C4B00271B1A9946002321
:101AA0009B467DE7414653460B4393498C46E144B0
:101AB000002B00D01AE102220220174300228CE7FB
:101AC000134300D10DE14346002B00D181E1404694
:101AD00000F090FE02000B3A1C2A00DD72E10100CA
:101AE000434608398B4098461D239A1A5346D340E3
:101AF0001A004346134352468A404946081A82490F
:101B000089468144002068E77B4B002700268EE74A
:101B1000140C1204120C1100370C3604350C7943E6
:101B200028008C462E0060436044834656432100C3
:101B3000300C80465846794340440291844506D98A
:101B40008846802149028C46E04441460291360491
:101B5000010C360C00048B4681191E0C1B041B0C57
:101B60000391190079438C46280075436544A846C3
:101B70005843050C45447743A94203D980214902C3
:101B80008C466744290C8C4639000004000C2D0457
:101B90002D186144AB4405915946049101990F04F5
:101BA0003F0C080C390051434243904602008C46DA
:101BB000090C8B4662437C4344445C44A04503D9F2
:101BC0008021490288464244210C88466146090426
:101BD000090C8C4639005943434370437E430F0C34
:101BE000F6182404BE19644442448C46B34203D917
:101BF00080235B0298464044029B61469846049BC2
:101C0000370443449B46AB45AD416B420D040599F7
:101C10002D0C8C467F196744FD18A8465D462D198A
:101C2000A542A44193466442A446C344DC448F4287
:101C3000BF4198459B4193459241A445A4415B42D5
:101C40007F421F43360C52426442BF192243BF18E1
:101C5000624638184302D20D039913436A020A43BD
:101C6000501E82416146ED0D2A434E023243D90196
:101C700000D4B3E00126500832400243DE0732436D
:101C80005B08224C5444002C62DD510709D00F2020
:101C90001040042805D0101D9042924152429B18DA
:101CA0000200D90104D580241948E40003405444BB
:101CB0001848844200DD27E75E075B02D2081F0B4D
:101CC000630516435B0DB2E60023994601330427F2
:101CD00000269B4664E60323019781460C279B461A
:101CE0005EE6012201201743002276E6032303204B
:101CF0001F43434671E6C046FF07000001FCFFFF9B
:101D0000F4D10000FFFF0F800DFCFFFFFF03000078
:101D1000FFFFFFFEFE0700000023802700933F0324
:101D20000026434B83E6019B3200A446584670E6EA
:101D3000AC466EE6802701993F0339422DD03B42E5
:101D40002BD11F433F033F0B00951600384B6EE627
:101D500001252D1B382D00DD66E61F2D40DC3548A2
:101D60001C005044160082408440EE40501E8241C8
:101D700034431443EB40620709D00F222240042A67
:101D800005D02200141D9442804140421B181A02C3
:101D90003ED501230027002649E68027019B3F030B
:101DA0001F433F033F0B0094214B40E603005A467C
:101DB000283B9A40002601926DE6584600F01AFD35
:101DC000203057E603005246283B9A401300002279
:101DD00093E6504600F00EFD20307BE6CA4650E701
:101DE0001F201E004042041BE640202D03D0124C51
:101DF0005444A3401A43501E824132430726002711
:101E0000164009D00F200023104014000428B9D137
:101E100022005E075B021F0BD2081643002306E672
:101E200080273F031F433F033F0B1600004BFEE597
:101E3000FF0700001E0400003E040000F8B55746EE
:101E40004E464546DE460C000903E0B5490A460FFA
:101E50005F0031431E03DB0F760A9B46530F33436B
:101E6000C84E6500C000E40FD2006D0DA246814649
:101E70007F0D9C469046B74200D1B9E05B460126F3
:101E800073409B46EE1BA34500D183E0002E63DD2B
:101E9000002F00D0B1E06346134300D123E1731E4D
:101EA000002B00D0BAE1861A6346B042804101257A
:101EB000C91A4042091A0B0200D447E149024B0AF1
:101EC00098464346002B00D189E1404600F092FC41
:101ED0000300083B1F2B00DD7CE120223000D21ADA
:101EE0004146D040994002009E400A439D4200DD99
:101EF0006AE15D1B6B1C1F2B00DD94E120211000AB
:101F00003500C91A8E40DA408840DD40711E8E418E
:101F1000110007222843002506433240002A09D039
:101F20000F233340042B05D0331DB342B641764214
:101F300089191E000B0200D43DE26A1C914B550525
:101F40006D0D9A4200D119E18F4AF6080A405707F1
:101F500052023743120B9BE0002E00D0C5E06E1CEE
:101F60007605760D012E00DC48E16746861ACB1B0C
:101F7000B042BF417F42B8461F004346FF1A3B00B4
:101F8000B8461B0200D55FE137439AD100220024F6
:101F9000002579E0002E00DCFAE0002F00D18DE072
:101FA000784B9D4267D0802367461B041F43BC4685
:101FB000382E00DC52E1634613435A1E93411E182B
:101FC00086428041404209180B0200D4BEE06D4BAE
:101FD00001359D4200D1D2E06B4A73080A400121CD
:101FE0000E401E435108D30707221E43324095E797
:101FF0001E00164300D045E740E7624B9D423AD0B1
:10200000802367461B041F43BC46382E00DDEBE0EF
:102010001F2E00DC3AE133006746203BDF403B00E7
:10202000202E05D04027BF1B6646BE403243904657
:102030004646721E96413343DAE0002B00D114E28B
:102040006346134300D168E180234E07C008C908E6
:102050001B030643194208D06046C008184204D149
:1020600063460100D2085E071643F3009946C90093
:10207000720F444D11434B46DE08424B4F07374326
:10208000CA089D4200D16EE012036D05120B6D0D62
:1020900000211203130B0A0D12051A433B4B2D05A9
:1020A00013402B435B00E4075B082343380019000F
:1020B0003CBC90469946A246AB46F8BD63461343E6
:1020C00011D0731E002B00D007E186188642804194
:1020D00061444042091801250B0237D502257BE7F0
:1020E0003E00614691463500C5E75C46002D00D0B4
:1020F000E1E00B000343F3D0731C00D1ACE1214BB2
:102100009F4200D13AE1F343382B00DD6FE11F2BF2
:1021100000DD8CE120250E00ED1AAE40B046060031
:10212000AA46DE40454635432E005546D940A840D4
:102130006346451EA8415B1A9C463043161AB242BC
:10214000924163465242991A3D00B4E6072232405A
:10215000002A00D0E4E60B4BF6084F073743CA08C5
:102160009D4200D090E73B00134300D1A6E18023BD
:102170001B031A431203120B024D89E715000022BC
:10218000002785E7FF070000FFFF7FFFFFFF0F80AD
:10219000002E00D0C7E06B1C5E05760D012E00DC22
:1021A000F0E0C84DAB4200D1B9E085180A00854285
:1021B00089416244494251180722CE076D082E43D7
:1021C000490832401D00A9E6BF49ED1A1140072217
:1021D0003240A3E6320028388240002686E63000EE
:1021E00000F008FB203073E6634613435A1E934108
:1021F000C61AB04280414042091A5CE60E006746AA
:1022000006431743002D5ED1002E00D0F3E0002FCF
:1022100000D11EE15C46614691462CE7A94FBE42C3
:102220007BD01E00F1E610001F3DE840202B03D0BC
:102230004021CB1A9A401643731E9E410722064343
:1022400032400021002583E7161A6346B2428041DE
:10225000591A40420B1A98465C4632E61F2E00DDA2
:10226000ABE02027BB1B9A4663465746BB409946C6
:1022700013004F46F3401F433B005746BA40571EDA
:10228000BA4113436246F240891898E62027BB1BE7
:102290009A4663465746BB40994613004F46F34063
:1022A0001F433B005746BA40571EBA41134362468C
:1022B000F240891A9CE7834B9F425FD080252D0412
:1022C0007342294320E7002E0CD1002F00D1D0E02B
:1022D0005C46614691467B4DCDE67A4FBE421CD0AE
:1022E0001E0065E6002F18D0C0084E070643802068
:1022F000C9080003014208D06346DC08044204D147
:102300002100DA46D2085E071643F30099460124FD
:102310005346C900720F11431C406A4DABE61D00C5
:1023200000220027B4E6002D59D10B00034300D151
:10233000D6E6731C00D1B2E0624B9F421ED0F3433D
:10234000382B6FDC1F2B00DD97E020250E00ED1AE7
:10235000AE40B0460600AA46DE40454635432E0054
:102360005546A840D940451EA8418C440643B6189E
:1023700096429241514261443D0025E63D0061464E
:10238000914678E60B000343002D00D055E6002B64
:10239000F5D06346134300D16DE68618864280412E
:1023A00061444042091800220B0200D4D0E6464B9B
:1023B00001351940B2E5B1465DE633006746203B82
:1023C000DF403B00202E05D04027BF1B6646BE40A5
:1023D000324390464646721E96413343EFE5394BF1
:1023E0009F42CBD080252D0473422943A8E70843A0
:1023F000411E8841A2E6002F00D13CE66346861AC2
:10240000CF1AB0429B415B42FB1A98461B024ED545
:10241000161A6346B2429241591A5242891A5C46D0
:1024200000227BE501430E00711E8E419FE71D00D7
:102430000E00203DEE40B046202B04D04025EB1A84
:1024400099400843814648464346411E8841184307
:1024500074E60022002417E6161A6346B24292413F
:10246000591A5242891A3D0025E561469146154D9B
:1024700001E680220024120379E61D000E00203DB3
:10248000EE40B046202B04D04025EB1A994008437B
:1024900081464E464346711E8E411E4367E78618AD
:1024A00096429B4161445B42C9183D008CE547461A
:1024B0003743CED007224146324049E600273A0052
:1024C000E6E5C046FF070000FFFF7FFF70B50C4E3A
:1024D0000D031C0349005B002D0B490D240B5B0D04
:1024E000B14208D0064900208B4203D1144320009A
:1024F000441EA04170BD05430120002DFAD1F1E733
:10250000FF07000030B5144D0A034B00120B5B0DA2
:10251000C90F0024AB4211DD104CA34210DC802413
:10252000640322430E4CE41A1F2C0CDD0D48C31A21
:10253000DA4013005C42002900D11C00200030BDAD
:10254000094BCC18FAE7094DE040AC4663449A4089
:1025500013000343EEE7C046FE0300001D04000025
:102560003304000013040000FFFFFF7FEDFBFFFFBB
:1025700070B500282DD0C317C5185D40C40F2800C2
:1025800000F038F9154B1B1A5B055B0D0A2815DDA9
:102590000B38854000222D032D0B002110002D0348
:1025A0000A0D2D0B12052A430D4D1B052A4013431E
:1025B0005B00E4075B082343190070BD020029009B
:1025C000153291400A000B21081AC5402D032D0B2E
:1025D000E3E70024002300250022DEE71E040000BC
:1025E000FFFF0F8010B5041E25D000F003F9144B37
:1025F0001B1A5B055B0D0A2812DD0B388440002294
:102600002403240B0021100024030A0D240B1205BF
:1026100022430C4C1B05224013435B00590810BD9C
:1026200002002100153291400A000B21081AC44013
:102630002403240BE6E7002300240022E2E7C0463F
:102640001E040000FFFF0F804100090E4B1C70B5F7
:10265000DBB24602750AC40F012B14DDE0239B0098
:102660006D07360BCB1800210A0D280012051C4DF2
:1026700032435B052A405B0813435B00E4075B08B9
:102680002343190070BD002914D1002D1ED028004D
:1026900000F0B0F80A281CDC0B232A001B1ADA40D1
:1026A000030015339D400F4B12031B1A5B05160BDD
:1026B0005B0DD8E7002D06D0320B802636036D0760
:1026C0001643094BCFE7084B0026CCE70023002632
:1026D000C9E703002A000B3B9A400025E3E7C04608
:1026E000FFFF0F8089030000FF070000F0B54C00DA
:1026F000640D0B03621C5B0A460F5205C90F1E4393
:10270000C500520D012A29DD374BE718FE2F1CDCCE
:10271000002F3BDD8001431E98410722F3006D0F1F
:1027200003432B431A40002A04D00F221A40042AE4
:1027300000D004338022D2041A4024D00137FAB2E8
:10274000FF2F02D09B01580A01E0FF220020400227
:10275000D205400AC90710430843F0BD3543002C99
:1027600004D1002D0AD100220020F0E7002DECD08A
:102770008020C0033043FF22E9E7002400235B02EE
:10278000580AE2B2E3E7DB083C00F8E73B00173306
:10279000F3DB80231B0433431E26F61B1F2E14DDA0
:1027A00002225242D71B1A00FA401700202E04D0F2
:1027B0000E4A94466444A3401D432B005D1EAB416A
:1027C00007223B431A400027ADE7094A2800A21818
:1027D000954093406C1EA541F04007222B430343D4
:1027E0001A4000279FE7C04680FCFFFFA2FCFFFFC6
:1027F00082FCFFFF1C2101231B04984201D3000C23
:1028000010391B0A984201D3000A08391B09984263
:1028100001D30009043902A2105C40187047C04679
:102820000403020201010101000000000000000099
:1028300010B5002903D1FFF7DDFF203002E0081CAE
:10284000FFF7D8FF10BDC04602780B78002A03D0EE
:10285000013001319A42F7D0D01A70470023C25C90
:102860000133002AFBD1581E7047000003B47146A3
:10287000490840004900095A49008E4403BC70478A
:10288000002B15D1002A13D1002906DB01DC00281A
:1028900006D00020C043410802E080210906002044
:1028A00007B4024801A14018029003BD41DFFFFFB9
:1028B00003B4684601B5029800F030F8019B9E46CB
:1028C00002B00CBC7047C046F0B5CE464746150472
:1028D0002D0C2E0080B50704140C3F0C9946030CF8
:1028E0007E435D43674363437F19340CE4199C4680
:1028F000A54203D980235B029846C4444B46434318
:102900005143250C36046544360C2404A4195B1984
:10291000591820000CBC90469946F0BDF0B583B024
:1029200016001F000090019100F014F804000D0043
:1029300002000B0030003900FFF7C6FF009A019B30
:10294000121A8B41089920000A604B60290003B0DD
:10295000F0BDC046F0B54E465746DE464546E0B5AA
:102960000F00002183B006008946002F06DA3900E7
:10297000002746428F41012149428946002B07DA50
:102980004946C943100089461900002342428B4141
:1029900034003D0092469846BB4269D866D0414615
:1029A0005046FFF745FF834639003000FFF740FFF0
:1029B0005B461B1A9C46203B9B4600D575E0514662
:1029C000584681400B005146604681400A00BB4298
:1029D00061D85ED034003D005946A41A9D410029BB
:1029E00000DA7AE00021002001260090019159468A
:1029F0008E400196614601268E4061460096002970
:102A000050D0D90756085F080E4363460EE0AF4228
:102A100001D1A6420CD8A41BBD41012124196D414E
:102A20000022013B64185541002B06D0AF42EED97D
:102A3000013B24196D41002BF8D1009801995B46A8
:102A400000196941002B3DDB2E00DE4063462C005F
:102A5000DC405B46002B4BDB34005D46AC40230082
:102A60006446A6403200801A994103E0B24296D9EA
:102A7000002000214B46002B04D003000C00002155
:102A80005842A14103B03CBC90469946A246AB4691
:102A9000F0BDB1429ED90021002000900191614615
:102AA0000029AED100980199E4E7202362465146FF
:102AB0009B1AD94040460091614688400300009926
:102AC0000B4380E7624620239B1A2A009A40260087
:102AD00013006246D6401E43B8E761462026012710
:102AE000761A00200021F74000900191019781E7BC
:102AF0006746202362463500BC409B1ADD40230018
:102B00002B43ADE7B0B500AF72B6494B1A68484BDE
:102B100080210A431A60474B1B780133DAB2454BD8
:102B20001A70444B1B78012B77D9424B00221A7044
:102B3000414B2720185C28241C5D240220432924B3
:102B40001C5D240420432A241C5D2406204301002C
:102B50002B20185C2C241C5D240220432D241C5D9A
:102B6000240420432E241B5D1B0603431A0001236B
:102B70000024C9186241304B2733FF20084005006C
:102B8000187800242040041C281C20431870080AD0
:102B9000FF2420400500587800242040041C281CF5
:102BA00020435870080CFF2420400500987800242A
:102BB0002040041C281C204398700D0ED878002457
:102BC0002040041C281C2043D870FF201040050022
:102BD000187900242040041C281C20431871100A76
:102BE000FF2420400500587900242040041C281CA4
:102BF00020435871100CFF242040050098790024D0
:102C00002040041C281C20439871100EDA79002102
:102C10000A40111C021C0A43DA71084B1A68074B60
:102C200080210A431A6062B6C046BD46B0BDC046A8
:102C300000000440C4FAFF1F30040020005004408C
:102C4000B0B586B002AF72B62B4B1B68002B41DAD1
:102C5000294B5A680E217B181A807B181A88FA2390
:102C60005B009A4236D9254BE8229A5CE9215B5CED
:102C70001B0213439BB2013399B2204BE822FF2081
:102C800008400500985C00242040041C281C2043B8
:102C90009854090A88B29B185A7800210A40111CDE
:102CA000021C0A435A70154BE8229A5CE9215B5CCE
:102CB0001B0213439BB218003B1D0A22190001F0AE
:102CC0006FFF03000E4A009313001F22D12124201E
:102CD00004F0E4FC084B1A68074B802109060A43FC
:102CE0001A60054B1A68044B80218A431A6062B649
:102CF000C046BD4604B0B0BD0050044030040020C2
:102D00003084000090B583B000AF72B6002005F0AB
:102D10001FFC031E11D0FC1DBB1D1900002005F077
:102D200077FB03002370BB1D1B78002B05D0FB1D18
:102D30001B781900002005F099FA62B6C046BD461E
:102D400003B090BD90B583B000AF72B6FC1DBB1D43
:102D50001900012005F05CFB03002370BB1D1B78EC
:102D6000002B06D0054A0649FB1D1B78180003F00E
:102D700097FB62B6C046BD4603B090BD2000002060
:102D80004A05002090B583B000AF72B6022005F06E
:102D9000DFFB031E07D0FC1DBB1D1900022005F040
:102DA00037FB0300237062B6C046BD4603B090BD3A
:102DB000F0B5C64600B57A4CA54402AF72B6002203
:102DC0000023A521C90010208446BC4461440A6048
:102DD0004B60002200239F21C90010208446BC4480
:102DE00061440A604B6000236E4A10218C46BC444B
:102DF000624413606C4B10229446BC44634401222D
:102E00001A706A4B10229446BC44634400221A7024
:102E1000674B10229446BC44634400221A80654BE1
:102E200010229446BC4463441822FF321A80624B3D
:102E300010229446BC446344AB221A800022002333
:102E4000A121C90010208446BC4461440A604B6043
:102E500000220023A321C90010208446BC44614401
:102E60000A604B60554B10229446BC4463440022D8
:102E70001A70534B00221A800021052004F058F9E3
:102E800004F07AF9FA235B00180005F071FEE123E3
:102E90005B021900022005F099F84A4B1900032043
:102EA00005F0CAFB05F098FF05F094FE05F046FC1E
:102EB000022005F00FFB62B6434B180001F098F8B2
:102EC000424B180001F0A2F83F4BA7229A5CA821C0
:102ED000595C09020A43A921595C09040A43AA2141
:102EE0005B5C1B0613439D22D20010218C46BC4420
:102EF000624413600023364A10218C46BC4462446D
:102F00001360344B1B78DBB25B09DBB21A00012380
:102F1000134061D02C4BA7229A5CA821595C09026E
:102F20000A43A921595C09040A43AA215B5C1B06D8
:102F30001343591C244BA722FF2008408446985C69
:102F400000263040061C604630439854080AFF268D
:102F500030408046981846780024A44664462640AF
:102F6000B44646466446344326004670080CFF26A5
:102F700030408046981886780024A446644626404F
:102F8000B44646466446344326008670080E9B18B5
:102F9000DA7800210A40111C021C0A43DA7039E079
:102FA000B8FAFFFF24050000230500001505000006
:102FB000F6040000F4040000F20400001405000010
:102FC0004A0500201100CC0074FFFF1F30040020D0
:102FD000EC04000000F00740F24B1B78DBB2DB0989
:102FE000DBB21A000123134014D0EF4BA722995CE7
:102FF00000200140995499184878002630404870C4
:10300000991888780026304088709B18DA7800215B
:103010000A40DA70E44BA7229A5CA821595C0902A5
:103020000A43A921595C09040A43AA215B5C1B06D7
:103030001343BB600023FB609D23DB0010229446FA
:10304000BC4463441B68BA68934208D1D74B102232
:103050009446BC4463441B68FA6893420ED03F20F8
:1030600005F0CCFED049D24B10229446BC446344B8
:103070001A880B0000213F2005F00EFFCA4BA72243
:103080009A5CA821595C09020A43A921595C0904E8
:103090000A43AA215B5C1B0613431A00C54B1100AF
:1030A000180002F091FE01F023FA01F0E9FAC24B98
:1030B000A622D200944610229046B844C4446344E9
:1030C000180019231A00002107F045FBBB4BA6226C
:1030D000D200944610229046B844C4446344180079
:1030E00032231A00002107F036FBA120C000102374
:1030F000FB181B185C681B68012100225B185441F7
:103100001022BA18121813605460AD4B2720185CB7
:1031100028241C5D2402204329241C5D2404204310
:103120002A241C5D2406204301002B20185C2C243B
:103130001C5D240220432D241C5D240420432E24E6
:103140001B5D1B0603431A00A523DB0010208446E9
:10315000BC4463441B688B4208D19A4B10208446C0
:10316000BC4463441B68934200D195E0944B2720F4
:10317000185C28241C5D2402204329241C5D24049F
:1031800020432A241C5D2406204301002B20185CC8
:103190002C241C5D240220432D241C5D2404204388
:1031A0002E241B5D1B0603431A00A523DB00102001
:1031B0008446BC44634419605A60814B27229A5C60
:1031C0002821595C09020A432921595C09040A4350
:1031D0002A21595C09060A4314002B229A5C2C21EF
:1031E000595C09020A432D21595C09040A432E2126
:1031F0005B5C1B0613431D00734B1A002000290063
:1032000001F038FE01F072FB052003F0A6FF6C4BC5
:1032100027229A5C2821595C09020A432921595C1A
:1032200009040A432A21595C09060A4314002B2287
:103230009A5C2C21595C09020A432D21595C09042E
:103240000A432E215B5C1B0613431D00564BA32231
:103250009A5CA421595C09020A43A521595C09041E
:103260000A43A6215B5C1B0613433B6000237B6083
:103270003A687B6820002900FDF7F8FA1C0013006B
:10328000190022000B00134306D1504B1022944624
:10329000BC44634401221A70494BE8229A5CE9213C
:1032A0005B5C1B0213439BB21A00494B10218C46F6
:1032B000BC4463441B68934232D0414BE8229A5C81
:1032C000E9215B5C1B0213439BB2414A10218C46EF
:1032D000BC44624413603A4BE8229A5CE9215B5C8F
:1032E0001B0213439BB21A003A4B1100180002F064
:1032F0006BFD334BE8229A5CE9215B5C1B021343B4
:103300009BB203211800FDF783F90B009BB2002B41
:1033100006D12E4B10229446BC44634401221A70FD
:103320002A4B10229446BC4463441B78012B00D0E6
:1033300098E2294B180002F047FD9E235A0096237D
:103340005900264B00931300EC22042004F0F7F8F8
:10335000224A96235900224B009313001F22042077
:1033600004F09CF91F4D1023FB185C191E4A1F49DD
:103370001F4B10208446BC446344180002F0E0FD5B
:10338000030023701023FB185B191B78002B00D05F
:1033900040E1184B180002F017FD104A962359001F
:1033A0002AE0C04600F0074074FFFF1FEC04000055
:1033B000F2040000D4CA000014FBFFFFD0FAFFFFA4
:1033C000300400202C05000020040020230500000C
:1033D00024050000F4CA000008CB0000308400007F
:1033E0002CCB000016050000120000200300002076
:1033F0008404000048CB0000CE4B009313001F2232
:10340000042004F04BF9CC4B180000F063FFCB4BC9
:103410001B78552B1CD1C94B5B78302B18D1C84970
:103420001023FB185B18C74A10208446BC44624432
:1034300012881A801023FB185B181A88BE49602373
:1034400010208446BC446344180007F07BF964E014
:10345000BA4B1B78552B60D1B84B5B78312B5CD1C4
:10346000B94BA622D20010218C46BC446244D2182B
:10347000B24B1000190002231A0007F063F9602410
:103480001023FB181B190233AB4A1800131D0F221F
:10349000190007F057F91023FB181B191133AB491A
:1034A0000822180007F04EF91023FB181B191933D6
:1034B000A7490422180007F045F920001023FB1843
:1034C0001B191D339C4AE521525C1A70040010231D
:1034D000FB181B191E339F490222180007F032F90E
:1034E0001023FB181B1920339B490222180007F0F8
:1034F00029F920001023FB181B1822338E4AFE21C5
:10350000180053181922190007F01CF98C4B1022CF
:103510009446BC4463443B221A80904A904B0093EB
:1035200013001F229621692004F0B8F8824BE5228F
:103530009B5C18008B4B10229446BC4463440A22C7
:10354000190001F02DFB0300844A009313001F2291
:103550009621692004F0A2F8774BE5229B5C1A00C3
:10356000814B1100180002F02FFC804B180002F074
:103570002BFC9E235A0096235900784B009313008E
:10358000EC22042003F0DBFF744A96235900784BA9
:10359000009313001F22042004F080F8754D1023BF
:1035A000FB185C1960231022BA18D218644B102142
:1035B0008C46BC4463441B881100180002F068FD6F
:1035C000030023701023FB185B191B78002B00D01D
:1035D000E0E0694B180002F0F7FB9E235A009623A7
:1035E00059005E4B00931300EC22042003F0A7FF68
:1035F0005A4A96235900614B009313001F2204205E
:1036000004F04CF85E4B10229446BC446344002204
:103610001A8020E1C046574B10229446BC446344B4
:103620001B78042B07D8574B10229446BC446344A4
:1036300001221A701EE04F4B10229446BC44634492
:103640001B78052B07D14F4B10229446BC44634492
:1036500002221A700EE0474B10229446BC44634489
:103660001B780B2B06D1474B10229446BC44634475
:1036700003221A70434C1023FB181B191B78FA22E3
:1036800092009A18404B1100180002F09DFB9E23F7
:103690005A0096235900314B00931300EC2204206A
:1036A00003F04DFF1023FB181800FFF7D7F80300B5
:1036B0001A001023FB189A18344B10001900082325
:1036C0001A0007F03FF81023FB181B191B78FA2289
:1036D00092009446634418008A23DB00102294462B
:1036E000BC4463440A22190001F05AFA0200102374
:1036F000FB181100180007F011F91023FB1818002F
:10370000FFF7ACF803001A001023FB189A18204B9F
:10371000100019000F231A0007F014F80F4A96231F
:1037200059001023FB18009313001F22042003F0FC
:10373000B5FF90E06CCB000030040020480500206D
:1037400006050000F404000030FBFFFF57040020D2
:10375000E304002016050020180500203084000036
:1037600084CB00005C0400008CCB0000A4CB0000E4
:10377000C8CB000016050000E8CB00000CCC000010
:10378000F60400001705000028CC000044CC00001F
:103790004CCC0000C046E04C1023FB181B191B78D2
:1037A000FA22D2009A18DD4B1100180002F00CFB2F
:1037B0009E235A0096235900D94B00931300EC2204
:1037C000042003F0BCFE1023FB181800FFF746F896
:1037D00003001A001023FB189A18D24B100019008E
:1037E00008231A0006F0AEFF1023FB181B191B78E4
:1037F000FA22D2009446634418008A23DB00102288
:103800009446BC4463440A22190001F0C9F902003D
:103810001023FB181100180007F080F81023FB1884
:103820001800FFF71BF803001A001023FB189A1862
:10383000BD4B1000190011231A0006F083FFB84A8F
:10384000962359001023FB18009313001F22042015
:1038500003F024FFC046B54B10229446BC44634499
:1038600000221A70B24B1B88002B01D100F0A3FB81
:10387000A320C0001023FB181B185C681B680121E3
:1038800000225B1854411022BA18121813605460B9
:103890001023FB181B181B68342210217918891873
:1038A0000A22180001F07CF903009D4A00931300DE
:1038B0001F22F9215A2003F0F1FE994A962359005C
:1038C0009C4B009313001F22042003F0E7FE924B51
:1038D00010229446BC446344FF221A70964B102277
:1038E0009446BC44634400221A80944BA622D20022
:1038F00010218C46BC446244D218914B1000190030
:1039000002231A0006F01EFF8D4960231022944600
:10391000BC4463440222180006F014FF874BA62221
:10392000D200944610229046B844C44463441B78A5
:10393000412B26D1814BA622D200944610229046DC
:10394000B844C44463445B78302B1AD17A4B1022BC
:103950009446BC4463447B491022BA18521812881A
:1039600002321A80602310229446BC44634402331E
:103970001022BA18521812887349180006F0E2FE95
:1039800062E26E4BA622D200944610229046B844C2
:10399000C44463441B78412B21D1684BA622D2003A
:1039A000944610229046B844C44463445B78312B5B
:1039B00015D161491023FB185B1891221A806023EE
:1039C00010229446BC44634402331022BA185218A1
:1039D0001288023A5C49180006F0B4FE34E2574BF4
:1039E000A622D200944610229046B844C4446344B0
:1039F0001B78412B21D1514BA622D2009446102294
:103A00009046B844C44463445B78322B15D14A498C
:103A10001023FB185B1816221A806023102294468C
:103A2000BC44634402331022BA1852181288023A76
:103A30004649180006F086FE06E2404BA622D20058
:103A4000944610229046B844C44463441B78412BEA
:103A500021D13A4BA622D200944610229046B84477
:103A6000C44463445B78332B15D133491023FB18CE
:103A70005B180A221A80602310229446BC446344D7
:103A800002331022BA1852181288023A304918002C
:103A900006F058FED8E1294BA622D2009446102207
:103AA0009046B844C44463441B78422B58D1234BFE
:103AB000A622D200944610229046B844C4446344DF
:103AC0005B78302B4CD11F4B10229446BC4463448E
:103AD0001A8820491C4B180006F034FE1E4B102299
:103AE0009446BC44634401221A7013491023FB1806
:103AF0005B1809221A80602310229446BC44634458
:103B000002331022BA1852181288023A13491800C8
:103B100006F018FE98E1C046160500005CCC0000D7
:103B20003084000078CC000080CC00002305000029
:103B30004A05002094CC00000605000010FBFFFFA2
:103B400020000020F204000074FFFF1F030000208B
:103B5000170000202200002015050000B4CC000052
:103B6000DC4BA622D200944610229046B844C444AE
:103B700063441B78422B2ED1D64BA622D20094460A
:103B800010229046B844C44463445B78312B22D160
:103B9000D149D24B7C22180006F0D4FDD04B102224
:103BA0009446BC44634401221A70CE491023FB188A
:103BB0005B1809221A80602310229446BC44634497
:103BC00002331022BA1852181288023AC649180055
:103BD00006F0B8FD38E1BF4BA622D2009446102271
:103BE0009046B844C44463441B78422B2ED1B94B51
:103BF000A622D200944610229046B844C44463449E
:103C00005B78322B22D1B449B84B1E22180006F043
:103C100099FDB34B10229446BC44634401221A70B0
:103C2000B0491023FB185B1809221A806023102268
:103C30009446BC44634402331022BA1852181288C6
:103C4000023AA949180006F07DFDFDE0A14BA6222D
:103C5000D200944610229046B844C44463441B7872
:103C6000422B2ED19B4BA622D20094461022904686
:103C7000B844C44463445B78332B22D196499C4BAF
:103C80000822180006F05EFD954B10229446BC44B5
:103C9000634401221A7093491023FB185B18092210
:103CA0001A80602310229446BC44634402331022DD
:103CB000BA1852181288023A8B49180006F042FDD1
:103CC000C2E0844BA622D200944610229046B8440B
:103CD000C44463441B78552B38D17E4BA622D200B6
:103CE000944610229046B844C44463445B78302B19
:103CF0002CD1804A774BA621C9008C4610218846DA
:103D0000B844C44463441000190002231A0006F0AA
:103D100019FD794B1B88794A10218C46BC446244BA
:103D200012889A420AD1754B10229446BC446344CF
:103D30001A887349734B180006F004FD724B102269
:103D40009446BC44634401221A707DE0614BA62274
:103D5000D200944610229046B844C44463441B7871
:103D6000552B5CD15B4BA622D20094461022904684
:103D7000B844C44463445B78312B50D15D4A554B01
:103D8000A621C9008C4610218846B844C444634427
:103D90001000190002231A0006F0D4FC564B1B88B1
:103DA0003B2B34D1574A564B1000190002231A00FE
:103DB00006F0C8FC484A534B043311000F22180088
:103DC00006F0C0FC5149524B0822180006F0BAFC1C
:103DD0005049514B0422180006F0B4FC4F4B19789F
:103DE000484BE52299544E494E4B0222180006F0EA
:103DF000A9FC4D494D4B0222180006F0A3FC4C498A
:103E0000404BFE229B181922180006F09BFC3E4BEB
:103E100010229446BC44634401221A7014E0364BCD
:103E20001B88364A10218C46BC44624412889A4250
:103E30000AD1324B10229446BC4463441A8830495C
:103E4000304B180006F07EFC264B10229446BC44F2
:103E500063441B88002B13D0364B1022BA18D41899
:103E600060231022BA18D2181E4B10218C46BC4475
:103E700063441B881100180002F00AF90300237044
:103E80001D4B00221A802B4B10229446BC446344E5
:103E90001B78002B0AD1284A96235900274B009300
:103EA00013001F22042003F0F9FB55E0214B1022E0
:103EB0009446BC4463441B78FF2B43D11E4A96238F
:103EC00059001F4B009313001F22042003F0E6FB50
:103ED00042E0C04610FBFFFF2200002074FFFF1FDE
:103EE0001505000006050000B4CC0000030000200A
:103EF00017000020480500204A050020F4040000B7
:103F000020000020300400201405000031000020B3
:103F10005704002039000020E30400203D00002069
:103F20003E0000201605002040000020180500205B
:103F3000420000201605000030840000BCCC0000C8
:103F4000E0CC0000234A96235900234B0093130032
:103F50001F22042003F0A2FB204B10229446BC44F5
:103F600063441B78012B1CD13F2004F047FF1C4900
:103F70001C4B10229446BC4463441A880B00002159
:103F80003F2004F089FF154B10229446BC44634443
:103F900000221A70144B10229446BC446344012240
:103FA0001A70114B10229446BC4463441B78012BB9
:103FB00001D100F05FFDA123DB0010229446BC4438
:103FC000634418685968094A0023FCF74FFCFFF75F
:103FD0006EF8C0463084000004CD000015050000D6
:103FE00074FFFF1FF20400001405000080BB0000F6
:103FF00080B582B000AF78607868AB2300223F21A3
:1040000004F0B2FFC046BD4602B080BDB0B582B07C
:1040100000AF78607A68A44B1000190002231A00E0
:1040200006F090FB7968A14B0222180007F0E2F934
:104030007B689A7800210A409A70DA7800210A4059
:10404000DA707B6813339A490F22180007F0D2F90F
:104050007B68223397490522180007F0CBF9964B6D
:104060006820185C69241C5D240220436A241C5DBE
:10407000240420436B241C5D2406204301006C2093
:10408000185C6D241C5D240220436E241C5D2404F6
:1040900020436F241B5D1B0603431A007B682733F4
:1040A000FF2008400500187800242040041C281C2C
:1040B00020431870080AFF24204005005878002487
:1040C0002040041C281C20435870080CFF2420406A
:1040D0000500987800242040041C281C2043987078
:1040E0000D0ED87800242040041C281C2043D870D2
:1040F000FF2010400500187900242040041C281CD3
:1041000020431871100AFF2420400500587900242C
:104110002040041C281C20435871100CFF24204010
:104120000500987900242040041C281C2043987125
:10413000100EDA7900210A40111C021C0A43DA71C0
:104140005D4BA7229A5CA821595C09020A43A92168
:10415000595C09040A43AA215B5C1B0613431A003D
:104160007B682F33FF2111400C001978002001409B
:10417000081C211C01431970110AFF2001400C008A
:10418000597800200140081C211C01435970110C72
:10419000FF2001400C00997800200140081C211CE0
:1041A00001439970100EDA7800210A40111C021C9C
:1041B0000A43DA70404BA3229A5CA421595C09029D
:1041C0000A43A521595C09040A43A6215B5C1B062E
:1041D00013431A007B683333FF2111400C00197818
:1041E00000200140081C211C01431970110AFF2006
:1041F00001400C00597800200140081C211C01439B
:104200005970110CFF2001400C00997800200140EA
:10421000081C211C01439970100EDA7800210A4015
:10422000111C021C0A43DA707B68373323491422BD
:10423000180007F0DFF87B684B332149042218008F
:1042400007F0D8F87B684F331B491E22180007F08F
:10425000D1F87B686D331B491422180007F0CAF8A7
:104260007B68813318491422180007F0C3F87B6873
:10427000953316491E22180007F0BCF87B68CB3333
:1042800013490B22180007F0B5F87B68E822995C07
:104290000020014099549B185A7800210A405A7016
:1042A000C046BD4602B0B0BD28CD00004805002084
:1042B000030000201200002074FFFF1FE4FFFF1F17
:1042C000D8FFFF1F92FFFF1FA6FFFF1FBAFFFF1FB0
:1042D000F8FFFF1FF0B589B002AF7860794B1A681C
:1042E000511C784B196092B27B68FF2111400C0081
:1042F000997800200140081C211C01439970120A82
:1043000090B2DA7800210A40111C021C0A43DA70CC
:10431000032310220021002004F06AFE16257C19D8
:104320001A2004F0F5FE030023807B191B88180077
:10433000FEF71EF9644A654BFDF70EFB03000C0007
:10434000180021000022624BFDF706FB03000C0061
:104350001800210000225F4BFCF7F4FE03000C0064
:104360001800210000225C4BFDF768FD03000C00E3
:1043700018002100594A5A4BFCF7E4FE03000C00D8
:104380001A00230000205749FDF758FD03000C00D8
:10439000180021000022544BFDF7DEFA03000C0048
:1043A00018002100FEF7AEF801007B68B322FF2061
:1043B00008400500985C00242040041C281C204371
:1043C0009854080AFF2420400600981844780025D5
:1043D0002C40251C341C2C434470080CFF24204026
:1043E00006009818847800252C40251C341C2C438A
:1043F0008470080E9B18DA7800210A40111C021CF8
:104400000A43DA707B68B3229A5CB421595C0902D2
:104410000A43B521595C09040A43B6215B5C1B06BB
:1044200013431800FEF7A4F800222F4BFCF78AFE76
:1044300003000C00180021000C23FB18012200F0DF
:104440009BFC0300294A009313001F226921692065
:1044500003F024F914257C19072004F059FE030009
:1044600023807B687919E6220D78985C002420402F
:10447000041C281C2043985448789B185A78002123
:104480000A40111C021C0A435A707B68043318004E
:1044900001F0DCFE7B68D633180001F0B5FE132472
:1044A0003B19180001F0F6FE3B1919787B68E522EC
:1044B00099547B68FE33180001F08CFFC046BD465E
:1044C00007B0F0BD00F8FF1F6666666666660A40C4
:1044D00000408F40E0FFEF4000788640713D0AD7F2
:1044E000A370FB3F000039400000244030840000EE
:1044F00080B59EB002AF3B1D18001E231A0000219C
:1045000006F029F9A0235A004F4B00931300F02224
:104510000021002003F013F82623EE2202210220BE
:1045200003F0C0F94849F8231A02484B00930B00E6
:104530000F21422003F0B2F87B23EE222B21022030
:1045400003F0BCFA404A424B0093130000222D2195
:10455000042003F0A3F83C4A3E4B009313000022D2
:104560004121042003F09AF8374A3B4B0093130093
:1045700000225521042003F091F8334A374B009371
:10458000130000226921042003F088F8F723EE22AB
:104590007F21022003F092FA2B4A314B0093130043
:1045A00000228121042003F079F8274A2D4B009343
:1045B000130000229521042003F070F8224A2A4BB0
:1045C000009313000022A921042003F067F81E4A7B
:1045D000264B009313000022BD21042003F05EF857
:1045E000194A234B009313000022D121042003F029
:1045F00055F8154A1F4B009313000022E5210420B3
:1046000003F04CF8104A1C4B009313000022F921D0
:10461000042003F043F89F235A0089235900130014
:10462000EE22022003F03EF9074A8A235900134B79
:10463000009313000022042003F030F800F01AFA6F
:10464000C046BD461CB080BD308400002CCD0000AB
:104650003CCD000048CD000058CD000068CD0000E2
:1046600078CD000084CD000094CD0000A0CD0000E6
:10467000ACCD0000C4CD0000CCCD0000D8CD0000F2
:10468000B0B59CB002AF032310220021002004F03B
:10469000AFFC64257C191A2004F03AFD0300238046
:1046A0007B191B881800FDF763FF814A814BFDF7DA
:1046B00053F903000C001800210000227E4BFDF787
:1046C0004BF903000C001800210000227B4BFCF783
:1046D00039FD03000C00180021000022784BFDF783
:1046E000ADFB03000C0018002100764A764BFCF766
:1046F00029FD03000C001A00230000207349FDF778
:104700009DFB03000C0018002100FDF7EFFF031CC8
:104710003B66386EFDF798FF03000C006C491A00E9
:104720002300080001F050FB386EFDF78DFF0300F9
:104730000C006849082578191A00230006F0CEF805
:10474000386EFDF781FF7B19012200F015FB030095
:10475000614A009313001F226921692002F09EFF25
:1047600009E05D4A962359005C4B009313001F2219
:10477000042002F093FF01F031FC031EF1D1482325
:10478000FB1801335F257C19180001F05FFD030061
:1047900023707B191B78002B19D148217B1820220C
:1047A0001A707B1800221A740C007B1801334C4AD3
:1047B0001900100001F008FB21007B180133464A64
:1047C000009313001F225521692002F067FF672321
:1047D000FB1800221A7020E05F257C19FB1D1800D1
:1047E00001F058FD030023707B191B78002B09D1C1
:1047F000FB1D1B78002B05D0FB1D1978394BE522DA
:1048000099540FE0FA23DB00180001F02DFB67211B
:104810007B181A787B1801321A706723FB181B78F3
:10482000042BD9D92F4BE5229B5C1A002E4B11008B
:10483000180001F0C9FA2B4BE5229B5C18001C23E1
:10484000FB180A22190000F0ABF90300224A00937A
:1048500013001F229621692002F020FF6723FB1816
:1048600000221A701BE02823FB18180001F0B2FD8B
:10487000031E06D067217B181A787B1801321A7044
:104880000DE028217B1800225A74134A7B180093EC
:1048900013001F228121592002F000FF04E067234A
:1048A000FB181B78042BDED9C046BD461AB0B0BD3C
:1048B0006666666666660A4000408F40E0FFEF402D
:1048C00000788640713D0AD7A370FB3F0000394055
:1048D000E4CD000000CE00003084000004CE0000D3
:1048E00024CE0000300400208CCB000080B58AB0BC
:1048F00002AF3B0018001E231A00002105F02BFF19
:104900001E23FB1800221A701F23FB1800221A70A6
:1049100090E01E23FB181B78042B15D13B001800D8
:10492000FDF79CFF03001A003B009A184B4B100048
:10493000190003231A0005F005FF1E217B181A78C1
:104940007B1801321A706FE01E23FB181B78082BAE
:1049500015D13B001800FDF781FF03001A003B0052
:104960009A183F4B1000190003231A0005F0EAFEC5
:104970001E217B181A787B1801321A7054E01E230E
:10498000FB181B780C2B15D13B001800FDF766FFB8
:1049900003001A003B009A18324B10001900032341
:1049A0001A0005F0CFFE1E217B181A787B18013201
:1049B0001A7039E01E23FB181B78102B0FD13B0017
:1049C0001800FDF74BFF03001A003B009A18264B16
:1049D0001000190002231A0005F0B4FE24E01E2383
:1049E000FB181B78132B0FD13B001800FDF736FF87
:1049F00003001A003B009A181B4B100019000223F9
:104A00001A0005F09FFE0FE01F22BB181B78BA1892
:104A1000591C11701A00154B9A5C1E23FB181B7849
:104A20003032D1B23A00D1541E217B181A787B184B
:104A300001321A701F23FB181B780D2B00D868E772
:104A40000B4A3B00009313001F22E621312002F0A5
:104A500025FEC046BD4608B080BDC046C8CE000099
:104A6000CCCE0000D0CE0000D4CE00002004002028
:104A70003084000080B58AB002AF3B0018001E23CE
:104A80001A00002105F067FE3D493B001422180082
:104A900006F0B0FC3B0000221A753A4A3B00009336
:104AA00013001F222D21462002F0F8FD36493B005D
:104AB0000422180006F09EFC3B0000221A71314AC5
:104AC0003B00009313001F224121762002F0E6FDF7
:104AD0002C4A2E4B009313001F22D121242002F0D8
:104AE000DDFD284A2A4B009313001F22D221B42057
:104AF00002F0D4FD274BA3229A5CA421595C090241
:104B00000A43A521595C09040A43A6215B5C1B06E4
:104B1000134318003B000A22190000F041F803007B
:104B2000184A009313001F22D221B42002F0B6FDD0
:104B300019493B000F22180006F05CFC3B000022E4
:104B4000DA73104A3B00009313001F22A921412071
:104B500002F0A4FD11493B000522180006F04AFCB2
:104B60003B0000225A71074A3B00009313001F22AA
:104B7000BD21412002F092FDC046BD4608B080BD77
:104B8000A6FFFF1F30840000D8FFFF1FD8CE000013
:104B9000DCCE000074FFFF1F030000201200002085
:104BA000F0B593B000AF786139610F23FB181A702C
:104BB000142308229446BC4463446E4A13CA13C3A8
:104BC00013CA13C313CA13C312781A703B230822E3
:104BD0009446BC44634400221A707B697B640F24B2
:104BE0003B191A787B6C11001800FBF711FD0B00C4
:104BF00019003B220823FB189B181B7808208446C9
:104C0000BC446244581C10701A003B699B18142263
:104C100008208446BC446244525C1A703B191B78DD
:104C20001900786CFBF76EFC03007B647B6C002B37
:104C3000D5D13B2308229446BC4463441B783A698F
:104C4000D31800221A703B691B782D2B07D139230A
:104C500008229446BC44634401221A7006E03923BA
:104C600008229446BC44634400221A703A23082266
:104C70009446BC446344392208218C46BC446244B7
:104C800012781A703CE03A210826BB195B181B7891
:104C90003A69D3181B787B613B24BB191B191A781E
:104CA000BB195B181B78D31A5A1E3925BB195B191F
:104CB0001B78D3181A003B699A180800BB195B18B7
:104CC0001B783969CB1812781A70BB191B191A781E
:104CD000010030003B185B181B78D31A5A1E3B1892
:104CE0005B191B78D3181A003B699B187A69D2B2FA
:104CF0001A703B185B181A783B185B1801321A704F
:104D00003A2308229446BC4463441B781800FDF7FC
:104D10002FFC04000D003B2308229446BC4463444E
:104D20001B78013B1800FDF723FC00228023DB05E4
:104D3000FCF708FA02000B003A607B603923082276
:104D40009446BC4463441B781800FDF711FC020034
:104D50000B0038687968FBF7D9FE02000B002000D1
:104D60002900FBF765FD031E8DD13B691800BD4688
:104D700013B0F0BDE8CE0000B0B59AB000AFB86097
:104D8000F9607A603B6034257B19202200211800ED
:104D900005F0E1FC1423FB1820220021180005F087
:104DA000DAFCB868F968FBF79FFD03000C003B666E
:104DB0007C66386E796EFBF7D1FD03000C001A009B
:104DC0002300B868F968FDF739F803000C00BB65EB
:104DD000FC653B6E79190A221800FFF7E1FE7B683B
:104DE000002B22DD7868FDF7C3FB03000C000020D8
:104DF0001F491A00230004F063FABA6DFB6DFCF73B
:104E0000ABFD03000C001A00BA6563005B08FB658C
:104E1000B86DF96DFBF768FD03000C001800142352
:104E2000FB180A221900FFF7BBFE34210C007B1887
:104E30001800FDF713FD03007B6521007A187B6DD8
:104E4000D3182E221A701423FA180C007B181100A4
:104E5000180005F063FD21007A183B681100180066
:104E600005F06AFD3B681800BD461AB0B0BDC046EB
:104E70000000244090B5A3B000AFB860F9607A603C
:104E8000BB68FC683B617C611023FB18180005F0CF
:104E900041FB03008022B9180B60BB181B68134A42
:104EA0001C217818642106F095FA8723FB1800224C
:104EB0001A7011E087203B181B781C22BA18D25CAC
:104EC0003B181B787968CB18303AD2B21A703B186D
:104ED0001A783B1801321A708723FB181B780D2BA8
:104EE000E8D9C046BD4623B090BDC04610CF0000F3
:104EF00080B582B000AF0200FB1D1A70FB1D1B784D
:104F00001900022003F0B2F9C046BD4602B080BDD0
:104F100080B584B000AFF860B9607A607B681B68C8
:104F2000012B02D0022B07D011E07B685B68FA6886
:104F300052B2100098470AE07B689B68FA6852B248
:104F40001A707B689B685A1C7B689A60C046BB6875
:104F50001B685A1CBB681A60C046BD4604B080BDC1
:104F6000B0B5A6B000AFF860B9607A605C23FB18FA
:104F7000180014231A00002105F0EDFB1023FB1884
:104F800018004C231A00002105F0E5FB00239425AE
:104F90007A191360002300248022BA181360546029
:104FA000FB685C681B6818002100FBF77FFC0300AE
:104FB0002A00B9180B60FB681C685D68BB1818688C
:104FC000FDF710FB02000B0020002900FCF736FF64
:104FD00003000C00BB67FC677B68002B2CD1FB68CF
:104FE0001C685D689423FB181868FDF7FBFA020043
:104FF0000B0020002900FCF721FF03000C00180023
:105000002100A54AA54BFCF7A7FC03000C001800E3
:105010002100FBF785FC03000C008022BA18136006
:10502000546018E000229E4BB86FF96FFCF794FCB7
:1050300003000C00BB67FC677B685A1E7A60002B7C
:10504000F0D1B86FF96FFBF76BFC03000C00802206
:10505000BA1813605460FB681C685D689423FB18E1
:105060001868FDF7BFFA02000B0020002900FCF7CA
:10507000E5FE03000C003B677C6700238822BA181A
:1050800013600FE00022864B386F796FFCF764FCE9
:1050900003000C003B677C678822BB181B68013348
:1050A000BA18136000227F4B386F796FFBF7B6FB9D
:1050B000031EE7D18822BB181B68013BBA18136096
:1050C00000239022BA1813609423FB181B68002B4E
:1050D0000AD190217B181B685A1C79180A60BA689B
:1050E000D31830221A7045E000238C22BA181360BE
:1050F0001BE08C22BB181C68631CBA181360942533
:105100007B191B680A211800FBF782FA0B001900B3
:105110005C23FB18A200D1507B191B680A211800E0
:10512000FBF7F0F903007A1913609423FB181B684E
:10513000002BDED119E08C203B181B685A1E5C2323
:10514000FB189200D358DBB23033D9B290243B190C
:105150001B685A1C3C192260BA68D3184AB21A70EC
:105160003B181B68013B3A1813608C23FB181B6823
:10517000002BE0D190217B181B685A1C79180A601B
:10518000BA68D3182E221A708023FB181B68842259
:10519000BA18126813430AD190217B181B685A1C55
:1051A00079180A60BA68D31830221A7066E00023B2
:1051B0008C22BA18136022E080257B191868596880
:1051C0000A220023FBF752FB1C00130018002100E9
:1051D0008C243B191B685A1C3C19226001001022C8
:1051E000BA189B0099507B19186859680A22002345
:1051F000FBF73CFB03000C007A191360546080231A
:10520000FB181B688422BA1812681343D4D110E02B
:105210008C217B181B685A1C79180A601022BA1856
:105220009B00002199508822BB181B68013BBA18CB
:1052300013608823FB181B68002BE9D119E08C2030
:105240003B181B685A1E1023FB189200D358DBB280
:105250003033D9B290243B191B685A1C3C19226088
:10526000BA68D3184AB21A703B181B68013B3A1847
:1052700013608C23FB181B68002BE0D1BA689021C7
:105280007B181B68D31800221A707B181B68180043
:10529000BD4626B0B0BDC04600A0D8855734764381
:1052A000000024400000F03F80B58CB000AFF860F3
:1052B000B9607A603B600023FB61FB68BB61BB693E
:1052C0005A1CBA6100221A707B68002B32D0BB686E
:1052D0001B68FB62FB6A002B28D1BB6930221A7065
:1052E000FB690133FB6158E03968F86AFBF794F910
:1052F00003003B613B693A685343FA6AD31ABB62C5
:10530000BB6A002B04DABB6A3022D31ABB6202E00C
:10531000BB6A3033BB623B69FB62BB695A1CBA6132
:10532000BA6A52B21A70FB690133FB61FB6A002B47
:10533000DAD132E0BB681B687B627B6A002B28D124
:10534000BB6930221A70FB690133FB6125E03B68C1
:105350001900786AFBF7D6F803007B613B687A692D
:1053600053437A6AD31A3B623B6A092B03D83B6AE0
:1053700030333B6202E03B6A37333B627B697B62DE
:10538000BB695A1CBA613A6A52B21A70FB6901339E
:10539000FB617B6A002BDAD1C046FB691800BD4671
:1053A0000CB080BD80B586B000AFF860B9607A609F
:1053B0003B60FB687B6108E03A687B68190030203D
:1053C000FFF7A6FD7B6901337B617A69BB689A426E
:1053D000F2DBC046BD4606B080BD80B586B000AFEA
:1053E000F860B9607A603B60FB687B6108E03A680E
:1053F0007B6819002020FFF78BFD7B6901337B61FF
:105400007A69BB689A42F2DBC046BD4606B080BDF1
:10541000B0B5A6B000AFF860B9607A602C243B1933
:10542000180021231A00002105F095F93B193022BC
:105430001A700023BB620023FB670123BB67BB68B4
:105440009422BA18136000F0AEFC7B6E252B1AD0A4
:105450007B6E0A2B08D0FA682823F9187B6E180097
:10546000FFF756FD00F099FCFA6828243B19190053
:105470000D20FFF74DFDFA683B1919000A20FFF7D0
:1054800047FD00F08AFC00238422BA181360002331
:105490008822BA18136044E09422BB181B680133B9
:1054A000B9180B60BB181B681B785BB2203B102B34
:1054B0002CD89A00D44BD3181B689F4684217B18A4
:1054C0001B68012213437A1813602AE084217B1899
:1054D0001B68022213437A18136022E084217B1890
:1054E0001B68042213437A1813601AE084217B1886
:1054F0001B68082213437A18136012E084217B187A
:105500001B68102213437A1813600AE09422BB1818
:105510001B68013BBA18136001238822BA18136074
:10552000C0468823FB181B68002BB5D000238022BF
:10553000BA18136000238822BA18136027E0942257
:10554000BB181B680133B9180B60BB181B681B78AC
:105550005BB27B667B6E303B092B0DD880217B18BC
:105560001A6813009B009B185B001A007B6E303B8F
:10557000D3187A1813600AE09422BB181B68013B09
:10558000BA18136001238822BA181360C046882312
:10559000FB181B68002BD2D09422BB181B68013368
:1055A000B9180B60BB181B681B785BB22E2B31D16E
:1055B00000237B6700238822BA18136024E094221A
:1055C000BB181B680133B9180B60BB181B681B782C
:1055D0005BB27B667B6E303B092B0AD87A6F130077
:1055E0009B009B185B001A007B6E303BD3187B67D7
:1055F0000AE09422BB181B68013BBA181360012310
:105600008822BA181360C0468823FB181B68002B39
:10561000D5D009E09422BB181B68013BBA1813606F
:105620000023BB6700237B679422BB181B680133F0
:10563000B9180B60BB181B681B785BB2682B15D0C0
:105640006C2B02D04C2B05D009E0FB6F01221343D9
:10565000FB670CE0FB6F02221343FB6707E0942219
:10566000BB181B68013BBA18136000E0C0469422C7
:10567000BB181B680133B9180B60BB181B681B787B
:105680005BB27B667B6E583B202B01D900F078FB28
:105690009A005E4BD3181B689F467B6804337B607F
:1056A0007B68043B1B687B622423F9182C2438197F
:1056B0000A230122FFF7F8FD03008C217A181360FA
:1056C0003A197B181B68D3189022BA1813607B6AAA
:1056D000002B08DA2D233B678C22BB181B68013393
:1056E000BA1813601FE08423FB181B6802221340C2
:1056F00008D02B233B678C22BB181B680133BA18D8
:10570000136010E08423FB181B680422134008D0A8
:1057100020233B678C22BB181B680133BA18136027
:1057200001E000233B670023FB668423FB181B6812
:10573000082213401BD03B6F002B06D0FA682823A9
:10574000F9183B6F1800FFF7E3FB0123FB66FB68CA
:105750002822BA188024391909688C25781900681C
:10576000FFF720FE3B191B687A1913601CE08423A5
:10577000FB181B680122134016D1FB682822BA18B7
:105780008021791809688C2038180068FFF725FEF9
:105790003B6F002B06D0FA682823F9183B6F1800DE
:1057A000FFF7B6FB0123FB66FB6E002B00D03AE24D
:1057B0003B6F002B00D136E2FA682823F9183B6FC3
:1057C0001800FFF7A5FB2EE2FB6F002B20D17B68B2
:1057D00008337B607B68083B5C681B683B657C65C5
:1057E0005F217B1850203A18D2791A703B6D7B6587
:1057F00000233B653B187A181278DA703B6D7C6D9C
:10580000BB61FC6116E0C04640D2000084D20000BB
:10581000FB6F012B02D0FB6F022B0BD17B68043393
:105820007B607B6808337B607B68083B5C681B6837
:10583000BB61FC61BB6F002B10D07A6F2C2439192F
:105840001823FB181800FFF78BFB03008C22BA18F3
:1058500013603B199022BA18136023E0FB6F002BF2
:1058600010D12C2439191823FB1808221800FFF72F
:1058700077FB03008C22BA1813603B199022BA18E8
:1058800013600FE07A6F2C2439191823FB181800C5
:10589000FFF766FB03008C22BA1813603B199022B5
:1058A000BA181360B869F96900220023FAF7B6FF45
:1058B000031E08D02D233B678C22BB181B680133C5
:1058C000BA1813601FE08423FB181B6802221340E0
:1058D00008D02B233B678C22BB181B680133BA18F6
:1058E000136010E08423FB181B680422134008D0C7
:1058F00020233B678C22BB181B680133BA18136046
:1059000001E000233B670023FB668423FB181B6830
:10591000082213401BD03B6F002B06D0FA682823C7
:10592000F9183B6F1800FFF7F3FA0123FB66FB68D9
:105930002822BA188024391909688C25781900683A
:10594000FFF730FD3B191B687A1913601CE08423B4
:10595000FB181B680122134016D1FB682822BA18D5
:105960008021791809688C2038180068FFF735FD08
:105970003B6F002B06D0FA682823F9183B6F1800FC
:10598000FFF7C6FA0123FB66FB6E002B19D13B6FB4
:10599000002B16D0FA682823F9183B6F1800FFF780
:1059A000B7FA0EE090217B181B685A1C79180A6020
:1059B0001B785BB21800FA682823FB181900FFF760
:1059C000A7FA9023FB181B681B785BB2002BE9D168
:1059D0008423FB181B680122134000D1D8E1FB6827
:1059E0002822BA188021791809688C203818006894
:1059F000FFF7F3FCCCE17B6804337B607B68043BFE
:105A00001B687B611423F9182C24381910230022F9
:105A1000FFF74AFC03008C217A1813603A197B18AF
:105A20001B68D3189022BA1813600023FB668423E6
:105A3000FB181B680822134024D08423FB181B6822
:105A4000102213400ED0FA6828243B191900302088
:105A5000FFF75EFAFA683B1919007820FFF758FA49
:105A60000123FB66FB682822BA18802439190968CB
:105A70008C2578190068FFF795FC3B191B687A198B
:105A8000136031E08423FB181B68012213402BD1E3
:105A90008423FB181B681022134005D08C22BB18EE
:105AA0001B680233BA181360FB682822BA188021D9
:105AB000791809688C2038180068FFF78EFC842359
:105AC000FB181B68102213400ED0FA6828243B19DB
:105AD00019003020FFF71CFAFA683B1919007820EA
:105AE000FFF716FA0123FB668423FB181B681022BC
:105AF000134000D199E0FB6E002B00D095E0FA68CE
:105B000028243B1919003020FFF702FAFA683B19E4
:105B100019007820FFF7FCF98C22BB181B680233B0
:105B2000BA18136081E07B6804337B607B68043BB8
:105B30001B687B611423F9182C23F8180823002212
:105B4000FFF7B2FB03008C22BA1813603AE07B68BF
:105B500004337B607B68043B1B687B611423F9186A
:105B60002C23F81802230022FFF79EFB03008C224F
:105B7000BA18136026E07B6804337B607B68043BC3
:105B80001B687B611423F9182C23F81810230022BA
:105B9000FFF78AFB03008C22BA18136012E07B68BF
:105BA00004337B607B68043B1B687B611423F9181A
:105BB0002C23F8180A230022FFF776FB03008C221F
:105BC000BA1813602C23FA188C23FB181B68D318FF
:105BD0009022BA1813608423FB181B680822134014
:105BE0000FD0FB682822BA188024391909688C253F
:105BF00078190068FFF7D6FB3B191B687A19136008
:105C000026E08423FB181B68012213400FD1FB6898
:105C10002822BA188021791809688C203818006861
:105C2000FFF7DBFB14E0C04612E0C04610E0C046C0
:105C30000EE090217B181B685A1E79180A601B78A9
:105C40005BB21800FA682823FB181900FFF760F907
:105C50009023FB181B681B785BB2002BE9D18423CF
:105C6000FB181B680122134000D193E0FB68282237
:105C7000BA188021791809688C2038180068FFF755
:105C8000ACFB87E07B6804337B607B68043B1B686C
:105C90005BB2BB65FA682823F918BB6D1800FFF7E3
:105CA00037F97AE07B6804337B607B68043B1B68D0
:105CB000BB66BB6E002B00D16EE0BB6E1800FCF71C
:105CC000CDFD03008C22BA1813608423FB181B68D7
:105CD000012213400AD1FB682822BA1880217918C2
:105CE00009688C2038180068FFF777FB7B6F002B62
:105CF00024D011E07B6F002B0EDD7B6F013B7B67B7
:105D0000BB6E5A1CBA661B785BB21800FA6828236F
:105D1000FB181900FFF7FCF8BB6E1B785BB2002B79
:105D2000E8D110E0BB6E5A1CBA661B785BB2180053
:105D3000FA682823FB181900FFF7EAF8BB6E1B78F6
:105D40005BB2002BEED18423FB181B6801221340A9
:105D500022D0FB682822BA188021791809688C2083
:105D600038180068FFF739FB16E07B6804337B6066
:105D70007B68043B1B683B66BA6A3B6E1A600CE0AA
:105D8000FA682823F9187B6E1800FFF7C1F804E0C1
:105D9000C04602E0C04600E0C0469422BB181B6823
:105DA0000133BA1813609423FB181B681B785BB28D
:105DB0007B667B6E002B01D0FFF747FBBB6A1800A8
:105DC000BD4626B0B0BDC0460FB480B586B000AFAA
:105DD0003B1D01221A603B1D0B4A5A602423FB180D
:105DE0007B61396A7A693B1D1800FFF711FB0300DC
:105DF0003B6100237B613B691800BD4606B080BC57
:105E000008BC04B01847C046F14E000080B582B00F
:105E100000AF0200FB1D1A70FB1D1B781A001F2328
