:1078000000180020D17C0000FD7C0000FD7C000001
:107810000000000000000000000000000000000068
:10782000000000000000000000000000FD7C0000DF
:107830000000000000000000FD7C0000057D00004D
:10784000FD7C0000FD7C0000FD7C0000FD7C000054
:10785000FD7C0000FD7C0000FD7C0000FD7C000044
:10786000FD7C0000FD7C0000FD7C0000FD7C000034
:10787000917D0000797F0000FD7C0000FD7C000010
:10788000FD7C0000FD7C0000FD7C0000FD7C000014
:10789000FD7C0000FD7C0000FD7C0000FD7C000004
:1078A000FD7C0000FD7C0000517D0000FD7C00009F
:1078B000117D0000FD7C0000FD7C0000FD7C0000CF
:107C0000FFFFFFFFFFFFFFFFFFFFFFFFFEFFFFFF85
:107C100010B5064C2378002B07D1054B002B02D062
:107C2000044800E000BF0123237010BD6C04002055
:107C3000000000000C890000044B10B5002B03D09D
:107C40000349044800E000BF10BDC046000000002A
:107C5000700400200C890000164B002B00D1144B3F
:107C60009D46402292029A1A924600218B460F4668
:107C70001348144A121A00F038FE0F4B002B00D0A4
:107C800098470E4B002B00D098470020002104009D
:107C90000D000D48002802D00C4800E000BF00F0A5
:107CA000F7FD2000290000F093F800F0DBFDC0464E
:107CB0000000080000180020000000000000000084
:107CC0006C040020B80A0020000000000000000042
:107CD00072B600F039FB62B60549064A064B9B1A9C
:107CE00003DD043BC858D050FBDCFFF7B5FF0000B4
:107CF00034890000000400206C0400200048004784
:107D0000FD7C000080B500AFC046BD4680BD0000D0
:107D100080B500AF72B60B4B1A680A4B80210A433C
:107D20001A60094B1B780133DAB2074B1A70074B04
:107D30001A68064B80210A431A6062B6C046BD46E7
:107D400080BDC0460000044088040020005004406C
:107D500080B582B000AF72B60C4B1B68002B03DA03
:107D60000A4B5A68BB1D1A80084B1A68074B8021C2
:107D700009060A431A60054B1A68044B80218A439E
:107D80001A6062B6C046BD4602B080BD00500440D5
:107D900090B583B000AF72B6002000F0D5FC031E92
:107DA00011D0FC1DBB1D1900002000F0EFFB0300EB
:107DB0002370BB1D1B78002B05D0FB1D1B78190001
:107DC000002000F093FB62B6C046BD4603B090BDF4
:107DD00090B585B000AF72B600F02AF800F04EF80A
:107DE0000F4B1B68012201210520984700F020FD60
:107DF0000023FB6062B6FB680133FB60FB68094A45
:107E00009342F8D90023FB60074B1B680520984775
:107E1000064B1B68984703000C003B607C60EAE758
:107E200030070020FFFF0F002C0700204407002030
:107E300080B584B000AF0F4B9B68BB600E4B7B607E
:107E40000023FB600CE0FB689B00BA68D218FB685B
:107E50009B007968CB1812681A60FB680133FB60DD
:107E6000FB682F2BEFDD034B034A9A60C046BD46EB
:107E700004B080BD00ED00E00004002080B5A2B099
:107E800000AFE823DB0184217A1813603A1D7B18C8
:107E90001B681000190080231A0000F01DFD3B1D17
:107EA0001B681A00254B1A603B1D5B681A00244BA7
:107EB0001A603B1D9B681A00224B1A603B1DDB6851
:107EC0001A00214B1A603B1D1B691A001F4B1A60D8
:107ED0003B1D5B691A001E4B1A603B1D9B691A0013
:107EE0001C4B1A603B1DDB691A001B4B1A603B1DC3
:107EF0001B6A1A00194B1A603B1D9B6D1A00184B28
:107F00001A603B1D9B6A1A00164B1A603B1D1B6FC3
:107F10001A00154B1A603B1D5B6F1A00134B1A6059
:107F20003B1D9B6F1A00124B1A603B1DDB6F1A0042
:107F3000104B1A60C046BD4622B080BD30070020FD
:107F4000280700200C0700202C0700202407002011
:107F50001C07002010070020FC060020140700204A
:107F60000807002000070020040700202007002049
:107F7000180700204407002080B500AF00F0B4F9D6
:107F8000C046BD4680BD000090B585B000AF7860AA
:107F90000A00BB1C1A800A23FB18012252421A80D5
:107FA0000E23FB1800221A803AE00E23FB181B88D0
:107FB0007A68D3181B7899B20A22BB18BA181288AB
:107FC0004A401A800C23FB1800221A801DE0082466
:107FD0003B190A203A18128801210A401A803B18DE
:107FE0003A18128852081A803B191B88002B06D0B9
:107FF0000A22BB18BA18128810494A401A800C216C
:108000007B181A887B1801321A800C23FB181B88F6
:10801000072BDCD90E217B181A887B1801321A80B5
:108020000E23FA18BB1C12881B889A42BDD30A2360
:10803000FB181B881800BD4605B090BD01A0FFFFCE
:10804000B0B586B000AFB9607A600F23FB18021C90
:108050001A706D4B1B88002B06D16C4B1B780F22BE
:10806000BA1812789A420AD1674B1B88012B11D19A
:10807000664B5B780F22BA1812789A420AD0624B8C
:1080800000221A80624B00221A801723FB1802225A
:108090001A70B1E05C4B1B885A1C91B25A4A11808D
:1080A0001A007B689B180F22BA1812781A70564B68
:1080B0001B88132B0DD17B6811331B789BB21B02DD
:1080C0009AB27B6812331B789BB2D3189AB2504B8A
:1080D0001A804F4B1B88002B00D186E04A4B1B882F
:1080E0001A004B4B1B8817339A4200DA7DE07B68FD
:1080F0009A1C474B1B8811339BB212210D007C1830
:1081000019001000FFF740FF0300238029007B18AF
:108110001B881B0A9BB2DAB210203B181A707B181E
:108120001B88DAB23B185A70374B1B88023B7A68BF
:10813000D3181A78374B1B789A421FD1324B1B88C1
:10814000013B7A68D3181A78324B5B789A4215D182
:108150001023FB181A782E4B1B8813337968CB1821
:108160001B789A420AD11023FB185A78284B1B8897
:1081700014337968CB181B789A420AD0224B00221C
:108180001A80234B00221A801723FB1802221A7030
:1081900032E01423FB1800221A8010E014203B1850
:1081A0001B8813337A68D2183B181B887968CB1860
:1081B00012781A703B181A883B1801321A80144B37
:1081C0001B881422BA1812889A42E7D3104B1A88D7
:1081D000BB681A800C4B00221A800D4B00221A80BB
:1081E0001723FB1800221A7006E0BB6800221A80D1
:1081F0001723FB1801221A701723FB181B7818008D
:10820000BD4606B0B0BDC046F60600200004002002
:10821000F80600200404002080B582B000AF020000
:10822000FB1D1A702C4B1B78002B4ED02B4B1B7850
:108230005A1CD1B2294A11701900294BFA1D127823
:108240005A54264B1B781A00254B00219954234B76
:108250001B78023B224AD35C4F2B06D11F4B1B7865
:10826000013B1F4AD35C4B2B26D01C4B1B78042BA5
:108270002DD91A4B1B78053B194AD35C452B26D1C7
:10828000164B1B78043B164AD35C522B1FD1134B61
:108290001B78033B124AD35C522B18D10F4B1B782F
:1082A000023B0F4AD35C4F2B11D10C4B1B78013B87
:1082B0000B4AD35C522B0AD1074B00221A70074B92
:1082C0001A78084B1A70C04601E0C04600E0C0466C
:1082D000BD4602B080BDC046900600208D0600203D
:1082E0008C0400208C06002090B583B000AF72B6DD
:1082F000012000F029FA031E1DD0012000F0E6F94C
:10830000FC1DBB1D1900012000F040F90300237083
:10831000BB1D1B78002B0BD0FB1D1B781800FFF733
:108320007BFF074A0749FB1D1B781800FFF788FEF3
:10833000012000F08DF962B6C046BD4603B090BD85
:1083400060080020F406002080B500AF00F08EF831
:108350003C493D4AC0239B028B503A4A3B4BD35881
:108360003849802292001343384A8B50384B9B780F
:10837000DBB21A000823134007D0354B9B78DBB2E1
:10838000334A08210B43DBB293702E492E4A8023D7
:108390005B028B502B4A2F4BD3582A492E4A13404D
:1083A0002C4A8B50274B1A68264B2C490A401A60DE
:1083B000244A284BD3582A4A134022498022520487
:1083C0001343244A8B50274B06221A70254B5B78A7
:1083D000DBB2244A40210B40DBB25370214BDB78E7
:1083E000DBB25BB21F2213405BB2602252421343E6
:1083F0005AB21C4BD2B2DA701B4B00221A70194BC6
:1084000000221A71174B00225A71C046154B9B79F6
:10841000DBB21A0010231340F8D0C046114B9B79F1
:10842000DBB21A000C231340F8D1064A074BD3588D
:108430000449F82292011343044A8B50C046BD46BA
:1084400080BDC04600700440441000003810000099
:1084500000D0074004100000FFFFFCFFFFFFF3FF08
:10846000FFFFFFFC004006400050064080B500AF13
:10847000064A88235B01D35804490C2293431A000F
:1084800088235B01CA50C046BD4680BD00700440D1
:1084900080B582B000AF0200FB1D1A70FB1D1B7877
:1084A0001A001F231A40044B012191400A001A6050
:1084B000C046BD4602B080BD00E100E080B582B09C
:1084C00000AF0200FB1D1A70FB1D1B781A001F2352
:1084D0001340054901229A40130080228B50C04668
:1084E000BD4602B080BDC04600E100E080B586B068
:1084F00000AF0200FB1D1A70BB1D0A1C1A70204B36
:108500003B61FB1D1B785A1E1E4B9200D358FB602B
:10851000FB1D1B78180000F079F9031E01D1002320
:108520002AE000237B611CE0FB1D1B78002B0AD195
:108530003B691B79DBB25BB2002B0FDA3B69BA1DDA
:108540001278DA7111E0FB681B79DBB25BB2002BA9
:1085500004DAFB68BA1D1278DA7106E07B69013330
:108560007B617B69084A9342DED97B69064A934264
:1085700001D9002300E001231800BD4606B080BDEC
:1085800000A0064000890000BAFB000080B586B05C
:1085900000AF02003960FB1D1A702A4BFB60FB1D07
:1085A0001B785A1E284B9200D358BB60FB1D1B78CA
:1085B000180000F02BF9031E04D13B6800221A704A
:1085C00000233BE000237B6126E0FB1D1B78002B92
:1085D0000FD1FB681B79DBB21A002023134018D09F
:1085E0001323FB18FA68D2791A703B6801221A70BB
:1085F00016E0BB681B79DBB21A002023134008D0B9
:108600001323FB18BA68D2791A703B6801221A70DA
:1086100006E07B6901337B617B690C4A9342D4D9C4
:108620007B690A4A934206D91323FB18FF221A706A
:108630003B6800221A701323FB181B781800BD46F4
:1086400006B080BD00A0064000890000BAFB000013
:1086500080B584B000AF0200FB1D1A70184BFB60A0
:10866000FB1D1B785A1E174B9200D358BB60FB1D95
:108670001B78180000F0CAF8031E1CD0FB1D1B78E5
:10868000002B08D1FB68DB78DBB220221343DAB27F
:10869000FB68DA7007E0BB68DB78DBB220221343AB
:1086A000DAB2BB68DA70FB1D1B78074AD356180094
:1086B000FFF7EEFE00E0C046BD4604B080BDC046F8
:1086C00000A00640008900000804002080B584B0A6
:1086D00000AF0200FB1D1A70184BFB60FB1D1B78DE
:1086E0005A1E174B9200D358BB60FB1D1B78180015
:1086F00000F08CF8031E1CD0FB1D1B78002B08D14A
:10870000FB68DB78DBB220229343DAB2FB68DA70D5
:1087100007E0BB68DB78DBB220229343DAB2BB68A8
:10872000DA70FB1D1B78074AD3561800FFF7C6FE08
:1087300000E0C046BD4604B080BDC04600A0064073
:10874000008900000804002080B586B000AF020058
:10875000FB1D1A702B4B7B61FB1D1B785A1E2A4B8D
:108760009200D3583B61FB1D1B78180000F04EF8B7
:10877000031E01D1002340E0FB1D1B78002B1ED1FE
:108780007B69DB78DBB27F221340DAB27B69DA7077
:108790007B691B79DAB20F203B1820210A401A703E
:1087A0003B181B785B09DBB27A69D278D2B25209E6
:1087B000D2B21340DBB201221340DBB21DE03B69B1
:1087C000DB78DBB27F221340DAB23B69DA703B69B7
:1087D0001B79DAB20F203B1820210A401A703B188F
:1087E0001B785B09DBB23A69D278D2B25209D2B2B5
:1087F0001340DBB201221340DBB21800BD4606B0C5
:1088000080BDC04600A006400089000080B582B04F
:1088100000AF0200FB1D1A70FB1D1B78022B01D953
:10882000002300E001231800BD4602B080BD000017
:1088300080B500AFC046094B1B78DBB25BB2002BA2
:10884000F9DA064B30221A70054BDA68044B8021A6
:1088500049020A43DA60C046BD4680BD00000240BE
:10886000003000F0084B10B50400002B02D00021AE
:1088700000E000BF054B1868836A002B00D09847C2
:10888000200000F03BF8C04600000000088900000E
:1088900070B500260C4D0D4C641BA410A64209D1E6
:1088A000002600F033F80A4D0A4C641BA410A642BF
:1088B00005D170BDB300EB5898470136EEE7B30021
:1088C000EB5898470136F2E72C8900002C8900000C
:1088D0002C89000030890000002310B59A4200D195
:1088E00010BDCC5CC4540133F8E703001218934266
:1088F00000D1704719700133F9E70000FEE7C04668
:1089000000B0064000C006400C040020F8B5C04688
:10891000F8BC08BC9E467047F8B5C046F8BC08BC19
:048920009E467047B8
:0889240034F3FF7F01000000A5
:04892C00397C000092
:04893000117C0000B6
:1089340056210000532400000C0D0E00000000001E
:108944000000000000000000000000000000000023
:108954000000000000000000000000000000000013
:108964000000000000000000000000000000000003
:1089740000000000000000000000000000000000F3
:1089840000000000000000000000000000000000E3
:0C899400000000000000000000000000D7
:0400000300007CD1AC
:00000001FF
